{
  "contractName": "MacroverseSystemGenerator",
  "abi": [
    {
      "constant": true,
      "inputs": [],
      "name": "owner",
      "outputs": [
        {
          "name": "",
          "type": "address"
        }
      ],
      "payable": false,
      "stateMutability": "view",
      "type": "function"
    },
    {
      "constant": false,
      "inputs": [
        {
          "name": "newAccessControl",
          "type": "address"
        }
      ],
      "name": "changeAccessControl",
      "outputs": [],
      "payable": false,
      "stateMutability": "nonpayable",
      "type": "function"
    },
    {
      "constant": false,
      "inputs": [
        {
          "name": "newOwner",
          "type": "address"
        }
      ],
      "name": "transferOwnership",
      "outputs": [],
      "payable": false,
      "stateMutability": "nonpayable",
      "type": "function"
    },
    {
      "inputs": [
        {
          "name": "accessControlAddress",
          "type": "address"
        }
      ],
      "payable": false,
      "stateMutability": "nonpayable",
      "type": "constructor"
    },
    {
      "anonymous": false,
      "inputs": [
        {
          "indexed": true,
          "name": "previousOwner",
          "type": "address"
        },
        {
          "indexed": true,
          "name": "newOwner",
          "type": "address"
        }
      ],
      "name": "OwnershipTransferred",
      "type": "event"
    },
    {
      "constant": true,
      "inputs": [
        {
          "name": "starSeed",
          "type": "bytes32"
        },
        {
          "name": "objectClass",
          "type": "uint8"
        },
        {
          "name": "spectralType",
          "type": "uint8"
        }
      ],
      "name": "getObjectPlanetCount",
      "outputs": [
        {
          "name": "",
          "type": "int16"
        }
      ],
      "payable": false,
      "stateMutability": "view",
      "type": "function"
    },
    {
      "constant": true,
      "inputs": [
        {
          "name": "starSeed",
          "type": "bytes32"
        },
        {
          "name": "planetNumber",
          "type": "int16"
        }
      ],
      "name": "getPlanetSeed",
      "outputs": [
        {
          "name": "",
          "type": "bytes32"
        }
      ],
      "payable": false,
      "stateMutability": "view",
      "type": "function"
    },
    {
      "constant": true,
      "inputs": [
        {
          "name": "seed",
          "type": "bytes32"
        },
        {
          "name": "planetNumber",
          "type": "int16"
        },
        {
          "name": "totalPlanets",
          "type": "int16"
        }
      ],
      "name": "getPlanetClass",
      "outputs": [
        {
          "name": "",
          "type": "uint8"
        }
      ],
      "payable": false,
      "stateMutability": "view",
      "type": "function"
    },
    {
      "constant": true,
      "inputs": [
        {
          "name": "seed",
          "type": "bytes32"
        },
        {
          "name": "class",
          "type": "uint8"
        }
      ],
      "name": "getPlanetMass",
      "outputs": [
        {
          "name": "",
          "type": "int128"
        }
      ],
      "payable": false,
      "stateMutability": "view",
      "type": "function"
    },
    {
      "constant": true,
      "inputs": [
        {
          "name": "objectClass",
          "type": "uint8"
        },
        {
          "name": "spectralType",
          "type": "uint8"
        },
        {
          "name": "seed",
          "type": "bytes32"
        },
        {
          "name": "class",
          "type": "uint8"
        },
        {
          "name": "realPrevClearance",
          "type": "int128"
        }
      ],
      "name": "getPlanetOrbitDimensions",
      "outputs": [
        {
          "name": "realPeriapsis",
          "type": "int128"
        },
        {
          "name": "realApoapsis",
          "type": "int128"
        },
        {
          "name": "realClearance",
          "type": "int128"
        }
      ],
      "payable": false,
      "stateMutability": "view",
      "type": "function"
    },
    {
      "constant": true,
      "inputs": [
        {
          "name": "realPeriapsis",
          "type": "int128"
        },
        {
          "name": "realApoapsis",
          "type": "int128"
        }
      ],
      "name": "convertOrbitShape",
      "outputs": [
        {
          "name": "realSemimajor",
          "type": "int128"
        },
        {
          "name": "realEccentricity",
          "type": "int128"
        }
      ],
      "payable": false,
      "stateMutability": "view",
      "type": "function"
    },
    {
      "constant": true,
      "inputs": [
        {
          "name": "seed",
          "type": "bytes32"
        }
      ],
      "name": "getPlanetLan",
      "outputs": [
        {
          "name": "",
          "type": "int128"
        }
      ],
      "payable": false,
      "stateMutability": "view",
      "type": "function"
    },
    {
      "constant": true,
      "inputs": [
        {
          "name": "seed",
          "type": "bytes32"
        },
        {
          "name": "class",
          "type": "uint8"
        }
      ],
      "name": "getPlanetInclination",
      "outputs": [
        {
          "name": "",
          "type": "int128"
        }
      ],
      "payable": false,
      "stateMutability": "view",
      "type": "function"
    },
    {
      "constant": true,
      "inputs": [
        {
          "name": "seed",
          "type": "bytes32"
        }
      ],
      "name": "getPlanetAop",
      "outputs": [
        {
          "name": "",
          "type": "int128"
        }
      ],
      "payable": false,
      "stateMutability": "view",
      "type": "function"
    },
    {
      "constant": true,
      "inputs": [
        {
          "name": "seed",
          "type": "bytes32"
        }
      ],
      "name": "getPlanetMeanAnomalyAtEpoch",
      "outputs": [
        {
          "name": "",
          "type": "int128"
        }
      ],
      "payable": false,
      "stateMutability": "view",
      "type": "function"
    }
  ],
  "bytecode": "0x6060604052341561000f57600080fd5b604051602080613f138339810160405280805190602001909190505080336000806101000a81548173ffffffffffffffffffffffffffffffffffffffff021916908373ffffffffffffffffffffffffffffffffffffffff16021790555080600160006101000a81548173ffffffffffffffffffffffffffffffffffffffff021916908373ffffffffffffffffffffffffffffffffffffffff1602179055505050613e55806100be6000396000f3006060604052600436106100c5576000357c0100000000000000000000000000000000000000000000000000000000900463ffffffff16806310dfa4b3146100ca578063158712e61461010b5780631f6fcf8e1461014c5780635433f7641461019b57806363e68c81146101e85780637037abab146102295780638da5cb5b146102b45780639387730c146103095780639a8914bc146103425780639e19642f1461039b578063bfd4fac1146103fc578063d2b4620b14610455578063f2fde38b146104a2575b600080fd5b34156100d557600080fd5b6100ef6004808035600019169060200190919050506104db565b6040518082600f0b600f0b815260200191505060405180910390f35b341561011657600080fd5b610130600480803560001916906020019091905050610846565b6040518082600f0b600f0b815260200191505060405180910390f35b341561015757600080fd5b61017d60048080356000191690602001909190803560010b906020019091905050610bb1565b60405180826000191660001916815260200191505060405180910390f35b34156101a657600080fd5b6101cc60048080356000191690602001909190803560ff16906020019091905050610d07565b6040518082600f0b600f0b815260200191505060405180910390f35b34156101f357600080fd5b61020d6004808035600019169060200190919050506115a6565b6040518082600f0b600f0b815260200191505060405180910390f35b341561023457600080fd5b61027e600480803560ff1690602001909190803560ff169060200190919080356000191690602001909190803560ff16906020019091908035600f0b906020019091905050611911565b6040518084600f0b600f0b815260200183600f0b600f0b815260200182600f0b600f0b8152602001935050505060405180910390f35b34156102bf57600080fd5b6102c7611d5a565b604051808273ffffffffffffffffffffffffffffffffffffffff1673ffffffffffffffffffffffffffffffffffffffff16815260200191505060405180910390f35b341561031457600080fd5b610340600480803573ffffffffffffffffffffffffffffffffffffffff16906020019091905050611d7f565b005b341561034d57600080fd5b6103726004808035600f0b906020019091908035600f0b906020019091905050611e1e565b6040518083600f0b600f0b815260200182600f0b600f0b81526020019250505060405180910390f35b34156103a657600080fd5b6103d860048080356000191690602001909190803560010b90602001909190803560010b906020019091905050612126565b604051808260048111156103e857fe5b60ff16815260200191505060405180910390f35b341561040757600080fd5b61043960048080356000191690602001909190803560ff1690602001909190803560ff16906020019091905050612407565b604051808260010b60010b815260200191505060405180910390f35b341561046057600080fd5b61048660048080356000191690602001909190803560ff16906020019091905050612735565b6040518082600f0b600f0b815260200191505060405180910390f35b34156104ad57600080fd5b6104d9600480803573ffffffffffffffffffffffffffffffffffffffff16906020019091905050612c9b565b005b60006104e5613e12565b600160009054906101000a900473ffffffffffffffffffffffffffffffffffffffff1673ffffffffffffffffffffffffffffffffffffffff16634af5fb0f33326000604051602001526040518363ffffffff167c0100000000000000000000000000000000000000000000000000000000028152600401808373ffffffffffffffffffffffffffffffffffffffff1673ffffffffffffffffffffffffffffffffffffffff1681526020018273ffffffffffffffffffffffffffffffffffffffff1673ffffffffffffffffffffffffffffffffffffffff16815260200192505050602060405180830381600087803b15156105de57600080fd5b6102c65a03f115156105ef57600080fd5b50505060405180519050151561060457600080fd5b61065f6040805190810160405280600381526020017f414f5000000000000000000000000000000000000000000000000000000000008152506020604051908101604052808660001916815250612df090919063ffffffff16565b905061083e73__RealMath______________________________63f5a5d503600080604051602001526040518263ffffffff167c01000000000000000000000000000000000000000000000000000000000281526004018082600a0b815260200191505060206040518083038186803b15156106da57600080fd5b6102c65a03f415156106eb57600080fd5b5050506040518051905073__RealMath______________________________63b697214673__RealMath______________________________63f5a5d50360026000604051602001526040518263ffffffff167c01000000000000000000000000000000000000000000000000000000000281526004018082600a0b815260200191505060206040518083038186803b151561078657600080fd5b6102c65a03f4151561079757600080fd5b505050604051805190506503243f6a88866000604051602001526040518363ffffffff167c01000000000000000000000000000000000000000000000000000000000281526004018083600f0b600f0b815260200182600f0b600f0b81526020019250505060206040518083038186803b151561081357600080fd5b6102c65a03f4151561082457600080fd5b5050506040518051905083612eb39092919063ffffffff16565b915050919050565b6000610850613e12565b600160009054906101000a900473ffffffffffffffffffffffffffffffffffffffff1673ffffffffffffffffffffffffffffffffffffffff16634af5fb0f33326000604051602001526040518363ffffffff167c0100000000000000000000000000000000000000000000000000000000028152600401808373ffffffffffffffffffffffffffffffffffffffff1673ffffffffffffffffffffffffffffffffffffffff1681526020018273ffffffffffffffffffffffffffffffffffffffff1673ffffffffffffffffffffffffffffffffffffffff16815260200192505050602060405180830381600087803b151561094957600080fd5b6102c65a03f1151561095a57600080fd5b50505060405180519050151561096f57600080fd5b6109ca6040805190810160405280600381526020017f4c414e00000000000000000000000000000000000000000000000000000000008152506020604051908101604052808660001916815250612df090919063ffffffff16565b9050610ba973__RealMath______________________________63f5a5d503600080604051602001526040518263ffffffff167c01000000000000000000000000000000000000000000000000000000000281526004018082600a0b815260200191505060206040518083038186803b1515610a4557600080fd5b6102c65a03f41515610a5657600080fd5b5050506040518051905073__RealMath______________________________63b697214673__RealMath______________________________63f5a5d50360026000604051602001526040518263ffffffff167c01000000000000000000000000000000000000000000000000000000000281526004018082600a0b815260200191505060206040518083038186803b1515610af157600080fd5b6102c65a03f41515610b0257600080fd5b505050604051805190506503243f6a88866000604051602001526040518363ffffffff167c01000000000000000000000000000000000000000000000000000000000281526004018083600f0b600f0b815260200182600f0b600f0b81526020019250505060206040518083038186803b1515610b7e57600080fd5b6102c65a03f41515610b8f57600080fd5b5050506040518051905083612eb39092919063ffffffff16565b915050919050565b6000600160009054906101000a900473ffffffffffffffffffffffffffffffffffffffff1673ffffffffffffffffffffffffffffffffffffffff16634af5fb0f33326000604051602001526040518363ffffffff167c0100000000000000000000000000000000000000000000000000000000028152600401808373ffffffffffffffffffffffffffffffffffffffff1673ffffffffffffffffffffffffffffffffffffffff1681526020018273ffffffffffffffffffffffffffffffffffffffff1673ffffffffffffffffffffffffffffffffffffffff16815260200192505050602060405180830381600087803b1515610cac57600080fd5b6102c65a03f11515610cbd57600080fd5b505050604051805190501515610cd257600080fd5b610cfb8260010b6020604051908101604052808660001916815250612f7190919063ffffffff16565b60000151905092915050565b6000610d11613e12565b600160009054906101000a900473ffffffffffffffffffffffffffffffffffffffff1673ffffffffffffffffffffffffffffffffffffffff16634af5fb0f33326000604051602001526040518363ffffffff167c0100000000000000000000000000000000000000000000000000000000028152600401808373ffffffffffffffffffffffffffffffffffffffff1673ffffffffffffffffffffffffffffffffffffffff1681526020018273ffffffffffffffffffffffffffffffffffffffff1673ffffffffffffffffffffffffffffffffffffffff16815260200192505050602060405180830381600087803b1515610e0a57600080fd5b6102c65a03f11515610e1b57600080fd5b505050604051805190501515610e3057600080fd5b610e8b6040805190810160405280600481526020017f6d617373000000000000000000000000000000000000000000000000000000008152506020604051908101604052808760001916815250612df090919063ffffffff16565b905060006004811115610e9a57fe5b836004811115610ea657fe5b141561100257610ffb73__RealMath______________________________631dade0d4600160646000604051602001526040518363ffffffff167c01000000000000000000000000000000000000000000000000000000000281526004018083600a0b815260200182600a0b81526020019250505060206040518083038186803b1515610f3257600080fd5b6102c65a03f41515610f4357600080fd5b5050506040518051905073__RealMath______________________________631dade0d4600960646000604051602001526040518363ffffffff167c01000000000000000000000000000000000000000000000000000000000281526004018083600a0b815260200182600a0b81526020019250505060206040518083038186803b1515610fd057600080fd5b6102c65a03f41515610fe157600080fd5b5050506040518051905083612eb39092919063ffffffff16565b915061159f565b6001600481111561100f57fe5b83600481111561101b57fe5b141561116b5761116473__RealMath______________________________631dade0d4600a60646000604051602001526040518363ffffffff167c01000000000000000000000000000000000000000000000000000000000281526004018083600a0b815260200182600a0b81526020019250505060206040518083038186803b15156110a757600080fd5b6102c65a03f415156110b857600080fd5b5050506040518051905073__RealMath______________________________63f5a5d50360096000604051602001526040518263ffffffff167c01000000000000000000000000000000000000000000000000000000000281526004018082600a0b815260200191505060206040518083038186803b151561113957600080fd5b6102c65a03f4151561114a57600080fd5b5050506040518051905083612eb39092919063ffffffff16565b915061159f565b6002600481111561117857fe5b83600481111561118457fe5b14156112c8576112c173__RealMath______________________________63f5a5d50360096000604051602001526040518263ffffffff167c01000000000000000000000000000000000000000000000000000000000281526004018082600a0b815260200191505060206040518083038186803b151561120457600080fd5b6102c65a03f4151561121557600080fd5b5050506040518051905073__RealMath______________________________63f5a5d50360146000604051602001526040518263ffffffff167c01000000000000000000000000000000000000000000000000000000000281526004018082600a0b815260200191505060206040518083038186803b151561129657600080fd5b6102c65a03f415156112a757600080fd5b5050506040518051905083612eb39092919063ffffffff16565b915061159f565b600360048111156112d557fe5b8360048111156112e157fe5b14156114265761141f73__RealMath______________________________63f5a5d50360326000604051602001526040518263ffffffff167c01000000000000000000000000000000000000000000000000000000000281526004018082600a0b815260200191505060206040518083038186803b151561136157600080fd5b6102c65a03f4151561137257600080fd5b5050506040518051905073__RealMath______________________________63f5a5d5036101906000604051602001526040518263ffffffff167c01000000000000000000000000000000000000000000000000000000000281526004018082600a0b815260200191505060206040518083038186803b15156113f457600080fd5b6102c65a03f4151561140557600080fd5b5050506040518051905083612eb39092919063ffffffff16565b915061159f565b60048081111561143257fe5b83600481111561143e57fe5b141561159a5761159373__RealMath______________________________631dade0d4600160646000604051602001526040518363ffffffff167c01000000000000000000000000000000000000000000000000000000000281526004018083600a0b815260200182600a0b81526020019250505060206040518083038186803b15156114ca57600080fd5b6102c65a03f415156114db57600080fd5b5050506040518051905073__RealMath______________________________631dade0d4601460646000604051602001526040518363ffffffff167c01000000000000000000000000000000000000000000000000000000000281526004018083600a0b815260200182600a0b81526020019250505060206040518083038186803b151561156857600080fd5b6102c65a03f4151561157957600080fd5b5050506040518051905083612eb39092919063ffffffff16565b915061159f565b600080fd5b5092915050565b60006115b0613e12565b600160009054906101000a900473ffffffffffffffffffffffffffffffffffffffff1673ffffffffffffffffffffffffffffffffffffffff16634af5fb0f33326000604051602001526040518363ffffffff167c0100000000000000000000000000000000000000000000000000000000028152600401808373ffffffffffffffffffffffffffffffffffffffff1673ffffffffffffffffffffffffffffffffffffffff1681526020018273ffffffffffffffffffffffffffffffffffffffff1673ffffffffffffffffffffffffffffffffffffffff16815260200192505050602060405180830381600087803b15156116a957600080fd5b6102c65a03f115156116ba57600080fd5b5050506040518051905015156116cf57600080fd5b61172a6040805190810160405280600381526020017f4d414500000000000000000000000000000000000000000000000000000000008152506020604051908101604052808660001916815250612df090919063ffffffff16565b905061190973__RealMath______________________________63f5a5d503600080604051602001526040518263ffffffff167c01000000000000000000000000000000000000000000000000000000000281526004018082600a0b815260200191505060206040518083038186803b15156117a557600080fd5b6102c65a03f415156117b657600080fd5b5050506040518051905073__RealMath______________________________63b697214673__RealMath______________________________63f5a5d50360026000604051602001526040518263ffffffff167c01000000000000000000000000000000000000000000000000000000000281526004018082600a0b815260200191505060206040518083038186803b151561185157600080fd5b6102c65a03f4151561186257600080fd5b505050604051805190506503243f6a88866000604051602001526040518363ffffffff167c01000000000000000000000000000000000000000000000000000000000281526004018083600f0b600f0b815260200182600f0b600f0b81526020019250505060206040518083038186803b15156118de57600080fd5b6102c65a03f415156118ef57600080fd5b5050506040518051905083612eb39092919063ffffffff16565b915050919050565b6000806000806000611921613e12565b600160009054906101000a900473ffffffffffffffffffffffffffffffffffffffff1673ffffffffffffffffffffffffffffffffffffffff16634af5fb0f33326000604051602001526040518363ffffffff167c0100000000000000000000000000000000000000000000000000000000028152600401808373ffffffffffffffffffffffffffffffffffffffff1673ffffffffffffffffffffffffffffffffffffffff1681526020018273ffffffffffffffffffffffffffffffffffffffff1673ffffffffffffffffffffffffffffffffffffffff16815260200192505050602060405180830381600087803b1515611a1a57600080fd5b6102c65a03f11515611a2b57600080fd5b505050604051805190501515611a4057600080fd5b600580811115611a4c57fe5b8b6005811115611a5857fe5b1415611a6957621e84809250611c72565b60046005811115611a7657fe5b8b6005811115611a8257fe5b1415611a93576210c8e09250611c71565b60036005811115611aa057fe5b8b6005811115611aac57fe5b1415611abd57620c35009250611c70565b60026005811115611aca57fe5b8b6005811115611ad657fe5b1415611c125760006007811115611ae957fe5b8a6007811115611af557fe5b1415611b0657629896809250611c0d565b60016007811115611b1357fe5b8a6007811115611b1f57fe5b1415611b3057624c4b409250611c0c565b60026007811115611b3d57fe5b8a6007811115611b4957fe5b1415611b5a576216e3609250611c0b565b60036007811115611b6757fe5b8a6007811115611b7357fe5b1415611b845762124f809250611c0a565b60046007811115611b9157fe5b8a6007811115611b9d57fe5b1415611bae57620f42409250611c09565b60056007811115611bbb57fe5b8a6007811115611bc757fe5b1415611bd857620516159250611c08565b60066007811115611be557fe5b8a6007811115611bf157fe5b1415611c0257620186a09250611c07565b600080fd5b5b5b5b5b5b5b611c6f565b60016005811115611c1f57fe5b8b6005811115611c2b57fe5b1415611c3d576301312d009250611c6e565b60006005811115611c4a57fe5b8b6005811115611c5657fe5b1415611c68576302faf0809250611c6d565b600080fd5b5b5b5b5b5b73__RealMath______________________________63f5a5d503846103e8026000604051602001526040518263ffffffff167c01000000000000000000000000000000000000000000000000000000000281526004018082600a0b600a0b815260200191505060206040518083038186803b1515611cef57600080fd5b6102c65a03f41515611d0057600080fd5b5050506040518051905091506020604051908101604052808a600019168152509050611d2e8189848a612fe7565b9550611d3c81898489613318565b9450611d4a81898488613645565b9350505050955095509592505050565b6000809054906101000a900473ffffffffffffffffffffffffffffffffffffffff1681565b6000809054906101000a900473ffffffffffffffffffffffffffffffffffffffff1673ffffffffffffffffffffffffffffffffffffffff163373ffffffffffffffffffffffffffffffffffffffff16141515611dda57600080fd5b80600160006101000a81548173ffffffffffffffffffffffffffffffffffffffff021916908373ffffffffffffffffffffffffffffffffffffffff16021790555050565b600080600160009054906101000a900473ffffffffffffffffffffffffffffffffffffffff1673ffffffffffffffffffffffffffffffffffffffff16634af5fb0f33326000604051602001526040518363ffffffff167c0100000000000000000000000000000000000000000000000000000000028152600401808373ffffffffffffffffffffffffffffffffffffffff1673ffffffffffffffffffffffffffffffffffffffff1681526020018273ffffffffffffffffffffffffffffffffffffffff1673ffffffffffffffffffffffffffffffffffffffff16815260200192505050602060405180830381600087803b1515611f1a57600080fd5b6102c65a03f11515611f2b57600080fd5b505050604051805190501515611f4057600080fd5b73__RealMath______________________________6325f39a6385850173__RealMath______________________________63f5a5d50360026000604051602001526040518263ffffffff167c01000000000000000000000000000000000000000000000000000000000281526004018082600a0b815260200191505060206040518083038186803b1515611fd457600080fd5b6102c65a03f41515611fe557600080fd5b505050604051805190506000604051602001526040518363ffffffff167c01000000000000000000000000000000000000000000000000000000000281526004018083600f0b600f0b815260200182600f0b600f0b81526020019250505060206040518083038186803b151561205a57600080fd5b6102c65a03f4151561206b57600080fd5b50505060405180519050915073__RealMath______________________________6325f39a638585038686016000604051602001526040518363ffffffff167c01000000000000000000000000000000000000000000000000000000000281526004018083600f0b600f0b815260200182600f0b600f0b81526020019250505060206040518083038186803b151561210257600080fd5b6102c65a03f4151561211357600080fd5b5050506040518051905090509250929050565b6000612130613e12565b6000600160009054906101000a900473ffffffffffffffffffffffffffffffffffffffff1673ffffffffffffffffffffffffffffffffffffffff16634af5fb0f33326000604051602001526040518363ffffffff167c0100000000000000000000000000000000000000000000000000000000028152600401808373ffffffffffffffffffffffffffffffffffffffff1673ffffffffffffffffffffffffffffffffffffffff1681526020018273ffffffffffffffffffffffffffffffffffffffff1673ffffffffffffffffffffffffffffffffffffffff16815260200192505050602060405180830381600087803b151561222b57600080fd5b6102c65a03f1151561223c57600080fd5b50505060405180519050151561225157600080fd5b6122ac6040805190810160405280600581526020017f636c6173730000000000000000000000000000000000000000000000000000008152506020604051908101604052808960001916815250612df090919063ffffffff16565b91506122c560016064846139769092919063ffffffff16565b905060008560010b1480156122de575060018460010b14155b1561232b57604681600a0b12156122f857600092506123fe565b605081600a0b121561230d57600192506123fe565b605a81600a0b121561232257600292506123fe565b600392506123fe565b60028460010b81151561233a57fe5b0560010b8560010b12156123a557601481600a0b121561235d57600092506123fe565b602881600a0b121561237257600192506123fe565b604681600a0b121561238757600292506123fe565b605081600a0b121561239c57600392506123fe565b600492506123fe565b601481600a0b12156123ba57600092506123fe565b601e81600a0b12156123cf57600192506123fe565b603c81600a0b12156123e457600292506123fe565b605a81600a0b12156123f957600392506123fe565b600492505b50509392505050565b6000612411613e12565b600080600160009054906101000a900473ffffffffffffffffffffffffffffffffffffffff1673ffffffffffffffffffffffffffffffffffffffff16634af5fb0f33326000604051602001526040518363ffffffff167c0100000000000000000000000000000000000000000000000000000000028152600401808373ffffffffffffffffffffffffffffffffffffffff1673ffffffffffffffffffffffffffffffffffffffff1681526020018273ffffffffffffffffffffffffffffffffffffffff1673ffffffffffffffffffffffffffffffffffffffff16815260200192505050602060405180830381600087803b151561250d57600080fd5b6102c65a03f1151561251e57600080fd5b50505060405180519050151561253357600080fd5b61258e6040805190810160405280600b81526020017f706c616e6574636f756e740000000000000000000000000000000000000000008152506020604051908101604052808a60001916815250612df090919063ffffffff16565b92506002600581111561259d57fe5b8660058111156125a957fe5b14156126b657600060078111156125bc57fe5b8560078111156125c857fe5b14806125ea5750600160078111156125dc57fe5b8560078111156125e857fe5b145b156125f857600591506126b1565b6002600781111561260557fe5b85600781111561261157fe5b141561262057600791506126b0565b6003600781111561262d57fe5b85600781111561263957fe5b148061265b57506004600781111561264d57fe5b85600781111561265957fe5b145b8061267c57506005600781111561266e57fe5b85600781111561267a57fe5b145b1561268a57600c91506126af565b6006600781111561269757fe5b8560078111156126a357fe5b14156126ae57600e91505b5b5b5b61270d565b600160058111156126c357fe5b8660058111156126cf57fe5b14156126de576002915061270c565b600060058111156126eb57fe5b8660058111156126f757fe5b1415612706576002915061270b565b600291505b5b5b61272660018360010b856139769092919063ffffffff16565b90508093505050509392505050565b600061273f613e12565b6000806000600160009054906101000a900473ffffffffffffffffffffffffffffffffffffffff1673ffffffffffffffffffffffffffffffffffffffff16634af5fb0f33326000604051602001526040518363ffffffff167c0100000000000000000000000000000000000000000000000000000000028152600401808373ffffffffffffffffffffffffffffffffffffffff1673ffffffffffffffffffffffffffffffffffffffff1681526020018273ffffffffffffffffffffffffffffffffffffffff1673ffffffffffffffffffffffffffffffffffffffff16815260200192505050602060405180830381600087803b151561283d57600080fd5b6102c65a03f1151561284e57600080fd5b50505060405180519050151561286357600080fd5b6128be6040805190810160405280600b81526020017f696e636c696e6174696f6e0000000000000000000000000000000000000000008152506020604051908101604052808a60001916815250612df090919063ffffffff16565b9350600060048111156128cd57fe5b8660048111156128d957fe5b14156128ec576000925060af91506129a5565b600160048111156128f957fe5b86600481111561290557fe5b14156129185760009250605791506129a4565b6002600481111561292557fe5b86600481111561293157fe5b14156129445760009250602391506129a3565b6003600481111561295157fe5b86600481111561295d57fe5b14156129705760009250603491506129a2565b60048081111561297c57fe5b86600481111561298857fe5b141561299c576000925061010691506129a1565b600080fd5b5b5b5b5b600090506002612a0c6001606460006129fc6040805190810160405280600a81526020017f726574726f6772616465000000000000000000000000000000000000000000008152508a612df090919063ffffffff16565b613c80909392919063ffffffff16565b60010b1215612a1f576503243f6a888690505b73__RealMath______________________________6325f39a63612b7473__RealMath______________________________63f5a5d503876000604051602001526040518263ffffffff167c01000000000000000000000000000000000000000000000000000000000281526004018082600a0b600a0b815260200191505060206040518083038186803b1515612ab557600080fd5b6102c65a03f41515612ac657600080fd5b5050506040518051905073__RealMath______________________________63f5a5d503876000604051602001526040518263ffffffff167c01000000000000000000000000000000000000000000000000000000000281526004018082600a0b600a0b815260200191505060206040518083038186803b1515612b4957600080fd5b6102c65a03f41515612b5a57600080fd5b5050506040518051905088612eb39092919063ffffffff16565b73__RealMath______________________________63f5a5d5036103e86000604051602001526040518263ffffffff167c01000000000000000000000000000000000000000000000000000000000281526004018082600a0b815260200191505060206040518083038186803b1515612bec57600080fd5b6102c65a03f41515612bfd57600080fd5b505050604051805190506000604051602001526040518363ffffffff167c01000000000000000000000000000000000000000000000000000000000281526004018083600f0b600f0b815260200182600f0b600f0b81526020019250505060206040518083038186803b1515612c7257600080fd5b6102c65a03f41515612c8357600080fd5b50505060405180519050810194505050505092915050565b6000809054906101000a900473ffffffffffffffffffffffffffffffffffffffff1673ffffffffffffffffffffffffffffffffffffffff163373ffffffffffffffffffffffffffffffffffffffff16141515612cf657600080fd5b600073ffffffffffffffffffffffffffffffffffffffff168173ffffffffffffffffffffffffffffffffffffffff1614151515612d3257600080fd5b8073ffffffffffffffffffffffffffffffffffffffff166000809054906101000a900473ffffffffffffffffffffffffffffffffffffffff1673ffffffffffffffffffffffffffffffffffffffff167f8be0079c531659141344cd1fd0a4f28419497f9722a3daafe3b4186f6b6457e060405160405180910390a3806000806101000a81548173ffffffffffffffffffffffffffffffffffffffff021916908373ffffffffffffffffffffffffffffffffffffffff16021790555050565b612df8613e12565b602060405190810160405280600285600001518560006040516020015260405180836000191660001916815260200182805190602001908083835b602083101515612e585780518252602082019150602081019050602083039250612e33565b6001836020036101000a0380198251168184511680821785525050505050509050019250505060206040518083038160008661646e5a03f11515612e9b57600080fd5b50506040518051905060001916815250905092915050565b600082612ebf85613cfe565b600f0b73__RealMath______________________________63b697214690918686036000604051602001526040518363ffffffff167c01000000000000000000000000000000000000000000000000000000000281526004018083600f0b600f0b815260200182600f0b600f0b81526020019250505060206040518083038186803b1515612f4c57600080fd5b6102c65a03f41515612f5d57600080fd5b505050604051805190500190509392505050565b612f79613e12565b60206040519081016040528060028560000151856000604051602001526040518083600019166000191681526020018281526020019250505060206040518083038160008661646e5a03f11515612fcf57600080fd5b50506040518051905060001916815250905092915050565b6000612ff1613e12565b600080600061303e6040805190810160405280600981526020017f70657269617073697300000000000000000000000000000000000000000000008152508a612df090919063ffffffff16565b93506000600481111561304d57fe5b88600481111561305957fe5b141561306c5760149250603c9150613129565b6001600481111561307957fe5b88600481111561308557fe5b1415613098576028925060469150613128565b600260048111156130a557fe5b8860048111156130b157fe5b14156130c6576103e892506107d09150613127565b600360048111156130d357fe5b8860048111156130df57fe5b14156130f45761012c92506101f49150613126565b60048081111561310057fe5b88600481111561310c57fe5b141561312057601492506101f49150613125565b600080fd5b5b5b5b5b61326473__RealMath______________________________63f5a5d503856000604051602001526040518263ffffffff167c01000000000000000000000000000000000000000000000000000000000281526004018082600a0b600a0b815260200191505060206040518083038186803b15156131a557600080fd5b6102c65a03f415156131b657600080fd5b5050506040518051905073__RealMath______________________________63f5a5d503856000604051602001526040518263ffffffff167c01000000000000000000000000000000000000000000000000000000000281526004018082600a0b600a0b815260200191505060206040518083038186803b151561323957600080fd5b6102c65a03f4151561324a57600080fd5b5050506040518051905086612eb39092919063ffffffff16565b905073__RealMath______________________________63b697214682896000604051602001526040518363ffffffff167c01000000000000000000000000000000000000000000000000000000000281526004018083600f0b600f0b815260200182600f0b600f0b81526020019250505060206040518083038186803b15156132ed57600080fd5b6102c65a03f415156132fe57600080fd5b505050604051805190508601945050505050949350505050565b6000613322613e12565b600080600061336f6040805190810160405280600881526020017f61706f61707369730000000000000000000000000000000000000000000000008152508a612df090919063ffffffff16565b93506000600481111561337e57fe5b88600481111561338a57fe5b141561339d576000925060069150613456565b600160048111156133aa57fe5b8860048111156133b657fe5b14156133c95760009250600a9150613455565b600260048111156133d657fe5b8860048111156133e257fe5b14156133f657601492506103e89150613454565b6003600481111561340357fe5b88600481111561340f57fe5b141561342257600a925060c89150613453565b60048081111561342e57fe5b88600481111561343a57fe5b141561344d57600a925060649150613452565b600080fd5b5b5b5b5b61359173__RealMath______________________________63f5a5d503856000604051602001526040518263ffffffff167c01000000000000000000000000000000000000000000000000000000000281526004018082600a0b600a0b815260200191505060206040518083038186803b15156134d257600080fd5b6102c65a03f415156134e357600080fd5b5050506040518051905073__RealMath______________________________63f5a5d503856000604051602001526040518263ffffffff167c01000000000000000000000000000000000000000000000000000000000281526004018082600a0b600a0b815260200191505060206040518083038186803b151561356657600080fd5b6102c65a03f4151561357757600080fd5b5050506040518051905086612eb39092919063ffffffff16565b905073__RealMath______________________________63b697214682896000604051602001526040518363ffffffff167c01000000000000000000000000000000000000000000000000000000000281526004018083600f0b600f0b815260200182600f0b600f0b81526020019250505060206040518083038186803b151561361a57600080fd5b6102c65a03f4151561362b57600080fd5b505050604051805190508601945050505050949350505050565b600061364f613e12565b600080600061369c6040805190810160405280600781526020017f636c6561726564000000000000000000000000000000000000000000000000008152508a612df090919063ffffffff16565b9350600060048111156136ab57fe5b8860048111156136b757fe5b14156136ca5760149250603c9150613787565b600160048111156136d757fe5b8860048111156136e357fe5b14156136f6576028925060469150613786565b6002600481111561370357fe5b88600481111561370f57fe5b1415613724576103e892506107d09150613785565b6003600481111561373157fe5b88600481111561373d57fe5b14156137525761012c92506101f49150613784565b60048081111561375e57fe5b88600481111561376a57fe5b141561377e57601492506101f49150613783565b600080fd5b5b5b5b5b6138c273__RealMath______________________________63f5a5d503856000604051602001526040518263ffffffff167c01000000000000000000000000000000000000000000000000000000000281526004018082600a0b600a0b815260200191505060206040518083038186803b151561380357600080fd5b6102c65a03f4151561381457600080fd5b5050506040518051905073__RealMath______________________________63f5a5d503856000604051602001526040518263ffffffff167c01000000000000000000000000000000000000000000000000000000000281526004018082600a0b600a0b815260200191505060206040518083038186803b151561389757600080fd5b6102c65a03f415156138a857600080fd5b5050506040518051905086612eb39092919063ffffffff16565b905073__RealMath______________________________63b697214682896000604051602001526040518363ffffffff167c01000000000000000000000000000000000000000000000000000000000281526004018083600f0b600f0b815260200182600f0b600f0b81526020019250505060206040518083038186803b151561394b57600080fd5b6102c65a03f4151561395c57600080fd5b505050604051805190508601945050505050949350505050565b600073__RealMath______________________________6315dbfe2873__RealMath______________________________63f5a5d503866000604051602001526040518263ffffffff167c01000000000000000000000000000000000000000000000000000000000281526004018082600a0b600a0b815260200191505060206040518083038186803b1515613a0b57600080fd5b6102c65a03f41515613a1c57600080fd5b50505060405180519050613a2f87613cfe565b600f0b73__RealMath______________________________63b6972146909173__RealMath______________________________63f5a5d5038a6000604051602001526040518263ffffffff167c01000000000000000000000000000000000000000000000000000000000281526004018082600a0b600a0b815260200191505060206040518083038186803b1515613ac757600080fd5b6102c65a03f41515613ad857600080fd5b5050506040518051905073__RealMath______________________________63f5a5d5038a6000604051602001526040518263ffffffff167c01000000000000000000000000000000000000000000000000000000000281526004018082600a0b600a0b815260200191505060206040518083038186803b1515613b5b57600080fd5b6102c65a03f41515613b6c57600080fd5b50505060405180519050036000604051602001526040518363ffffffff167c01000000000000000000000000000000000000000000000000000000000281526004018083600f0b600f0b815260200182600f0b600f0b81526020019250505060206040518083038186803b1515613be257600080fd5b6102c65a03f41515613bf357600080fd5b50505060405180519050016000604051602001526040518263ffffffff167c01000000000000000000000000000000000000000000000000000000000281526004018082600f0b600f0b815260200191505060206040518083038186803b1515613c5c57600080fd5b6102c65a03f41515613c6d57600080fd5b5050506040518051905090509392505050565b600080600060018660000b1415613cac578360000b613ca48860018860000b613976565b019250613cf4565b8360000b9150600090505b8560000b8160000b1215613cf057613cdf613cd5888360000b612f71565b6001876000613c80565b820191508080600101915050613cb7565b8192505b5050949350505050565b6000613d0982613da8565b600f0b73__RealMath______________________________6384f1bd4e90916000604051602001526040518263ffffffff167c01000000000000000000000000000000000000000000000000000000000281526004018082600f0b600f0b815260200191505060206040518083038186803b1515613d8657600080fd5b6102c65a03f41515613d9757600080fd5b505050604051805190509050919050565b6000613db382613dbe565b600190049050919050565b60006002826000015160006040516020015260405180826000191660001916815260200191505060206040518083038160008661646e5a03f11515613e0257600080fd5b5050604051805190509050919050565b6020604051908101604052806000801916815250905600a165627a7a72305820e0e16d1949576e2a8c94e69f4a5f06a85405997a35c1b8c1522713cb1c5fe6a40029",
  "source": "pragma solidity ^0.4.18;\n\nimport \"./RNG.sol\";\nimport \"./RealMath.sol\";\n\nimport \"./AccessControl.sol\";\nimport \"./ControlledAccess.sol\";\n\nimport \"./MacroverseStarGenerator.sol\";\n\n/**\n * Represents a Macroverse generator for planetary systems around stars and\n * other stellar objects.\n *\n * Permission to call methods on this contract is regulated by a configurable\n * AccessControl contract. One such set of terms might be to require that the\n * account initiating a transaction have a certain minimum MRV token balance.\n *\n * The owner of this contract reserves the right to supersede it with a new\n * version, and to modify the terms for accessing this contract, at any time,\n * for any reason, and without notice. This includes the right to indefinitely\n * or permanently suspend or terminate access to this contract for any person,\n * account, or other contract, or for all persons, accounts, or other\n * contracts. The owner also reserves the right to not do any of the above.\n */\ncontract MacroverseSystemGenerator is ControlledAccess {\n    // TODO: RNG doesn't get linked against because we can't pass the struct to the library...\n    using RNG for *;\n    using RealMath for *;\n    // No SafeMath or it might confuse RealMath\n\n    /**\n     * It is also useful to have Pi around.\n     * We can't pull it in from the library.\n     */\n    int128 constant REAL_PI = 3454217652358;\n\n    /**\n     * Define different types of planet.\n     */\n    enum PlanetClass {Lunar, Terrestrial, Uranian, Jovian, AsteroidBelt}\n\n    /**\n     * Deploy a new copy of the MacroverseSystemGenerator.\n     */\n    function MacroverseSystemGenerator(address accessControlAddress) ControlledAccess(AccessControl(accessControlAddress)) public {\n        // Nothing to do!\n    }\n    \n    /**\n     * If the object has any planets at all, get the planet count. Will return\n     * nonzero numbers always, so make sure to check getObjectHasPlanets in the\n     * Star Generator.\n     */\n    function getObjectPlanetCount(bytes32 starSeed, MacroverseStarGenerator.ObjectClass objectClass,\n        MacroverseStarGenerator.SpectralType spectralType) public view onlyControlledAccess returns (int16) {\n        \n        var node = RNG.RandNode(starSeed).derive(\"planetcount\");\n        \n        \n        int16 limit;\n\n        if (objectClass == MacroverseStarGenerator.ObjectClass.MainSequence) {\n            if (spectralType == MacroverseStarGenerator.SpectralType.TypeO ||\n                spectralType == MacroverseStarGenerator.SpectralType.TypeB) {\n                \n                limit = 5;\n            } else if (spectralType == MacroverseStarGenerator.SpectralType.TypeA) {\n                limit = 7;\n            } else if (spectralType == MacroverseStarGenerator.SpectralType.TypeF ||\n                spectralType == MacroverseStarGenerator.SpectralType.TypeG ||\n                spectralType == MacroverseStarGenerator.SpectralType.TypeK) {\n                \n                limit = 12;\n            } else if (spectralType == MacroverseStarGenerator.SpectralType.TypeM) {\n                limit = 14;\n            }\n        } else if (objectClass == MacroverseStarGenerator.ObjectClass.Giant) {\n            limit = 2;\n        } else if (objectClass == MacroverseStarGenerator.ObjectClass.Supergiant) {\n            limit = 2;\n        } else {\n           // Black hole, neutron star, or white dwarf\n           limit = 2;\n        }\n        \n        var roll = int16(node.getIntBetween(1, limit));\n        \n        return roll;\n    }\n    \n    /**\n     * Get the seed for a planet from the seed for the star and its number.\n     */\n    function getPlanetSeed(bytes32 starSeed, int16 planetNumber) public view onlyControlledAccess returns (bytes32) {\n        return RNG.RandNode(starSeed).derive(planetNumber)._hash;\n    }\n    \n    /**\n     * Decide what kind of planet a given planet is.\n     * It depends on its place in the order.\n     * Takes the *planet*'s seed, its number, and the total planets in the system.\n     */\n    function getPlanetClass(bytes32 seed, int16 planetNumber, int16 totalPlanets) public view onlyControlledAccess returns (PlanetClass) {\n        // TODO: do something based on metallicity?\n        var node = RNG.RandNode(seed).derive(\"class\");\n        \n        var roll = node.getIntBetween(1, 100);\n        \n        // Inner planets should be more planet-y, ideally smaller\n        // Asteroid belts shouldn't be first that often\n        \n        if (planetNumber == 0 && totalPlanets != 1) {\n            // Innermost planet of a multi-planet system\n            // No asteroid belts allowed!\n            if (roll < 70) {\n                return PlanetClass.Lunar;\n            } else if (roll < 80) {\n                return PlanetClass.Terrestrial;\n            } else if (roll < 90) {\n                return PlanetClass.Uranian;\n            } else {\n                return PlanetClass.Jovian;\n            }\n        } else if (planetNumber < totalPlanets / 2) {\n            // Inner system\n            if (roll < 20) {\n                return PlanetClass.Lunar;\n            } else if (roll < 40) {\n                return PlanetClass.Terrestrial;\n            } else if (roll < 70) {\n                return PlanetClass.Uranian;\n            } else if (roll < 80) {\n                return PlanetClass.Jovian;\n            } else {\n                return PlanetClass.AsteroidBelt;\n            }\n        } else {\n            // Outer system\n            if (roll < 20) {\n                return PlanetClass.Lunar;\n            } else if (roll < 30) {\n                return PlanetClass.Terrestrial;\n            } else if (roll < 60) {\n                return PlanetClass.Uranian;\n            } else if (roll < 90) {\n                return PlanetClass.Jovian;\n            } else {\n                return PlanetClass.AsteroidBelt;\n            }\n        }\n    }\n    \n    /**\n     * Decide what the mass of the planet is. We can't do even the mass of\n     * Jupiter in the ~88 bits we have in a real (should we have used int256 as\n     * the backing type?) so we work in Earth masses.\n     */\n    function getPlanetMass(bytes32 seed, PlanetClass class) public view onlyControlledAccess returns (int128) {\n        var node = RNG.RandNode(seed).derive(\"mass\");\n        \n        if (class == PlanetClass.Lunar) {\n            return node.getRealBetween(RealMath.fraction(1, 100), RealMath.fraction(9, 100));\n        } else if (class == PlanetClass.Terrestrial) {\n            return node.getRealBetween(RealMath.fraction(10, 100), RealMath.toReal(9));\n        } else if (class == PlanetClass.Uranian) {\n            return node.getRealBetween(RealMath.toReal(9), RealMath.toReal(20));\n        } else if (class == PlanetClass.Jovian) {\n            return node.getRealBetween(RealMath.toReal(50), RealMath.toReal(400));\n        } else if (class == PlanetClass.AsteroidBelt) {\n            return node.getRealBetween(RealMath.fraction(1, 100), RealMath.fraction(20, 100));\n        } else {\n            // Not real!\n            revert();\n        }\n    }\n    \n    // Define the orbit shape\n\n    /**\n     * Given the parent star class and type, the planet seed, the planet class\n     * to be generated, and the \"clearance\" radius around the previous planet\n     * in meters, produces orbit statistics (periapsis, apoapsis, and\n     * clearance) in meters.\n     *\n     * The first planet uses a previous clearance of 0.\n     */\n    function getPlanetOrbitDimensions(MacroverseStarGenerator.ObjectClass objectClass,\n        MacroverseStarGenerator.SpectralType spectralType, bytes32 seed, PlanetClass class, int128 realPrevClearance)\n        public view onlyControlledAccess returns (int128 realPeriapsis, int128 realApoapsis, int128 realClearance) {\n\n        // Each object class and spectral type combo has a characteristic base length (in km).\n        // For sun-sized TypeG MainSequence stars, that is 1,000,000\n        int88 baseLength;\n        if (objectClass == MacroverseStarGenerator.ObjectClass.BlackHole) {\n            // Black hole systems should be about twice our size\n            baseLength = 2000000;\n        } else if (objectClass == MacroverseStarGenerator.ObjectClass.NeutronStar) {\n            // Neutron star systems should be about our size\n            baseLength = 1100000;\n        } else if (objectClass == MacroverseStarGenerator.ObjectClass.WhiteDwarf) {\n            // White dwarf systems can be smaller\n            baseLength = 800000;\n        } else if (objectClass == MacroverseStarGenerator.ObjectClass.MainSequence) {\n            if (spectralType == MacroverseStarGenerator.SpectralType.TypeO) {\n                // Type O systems should be big (10x)\n                baseLength = 10000000;\n            } else if (spectralType == MacroverseStarGenerator.SpectralType.TypeB) {\n                // Type B should be smaller (5x)\n                baseLength = 5000000;\n            } else if (spectralType == MacroverseStarGenerator.SpectralType.TypeA) {\n                // Type A should be just a bit bigger\n                baseLength = 1500000;\n            } else if (spectralType == MacroverseStarGenerator.SpectralType.TypeF) {\n                // Type F should be just a hair bigger\n                baseLength = 1200000;\n            } else if (spectralType == MacroverseStarGenerator.SpectralType.TypeG) {\n                // Type G should be on average our size\n                baseLength = 1000000;\n            } else if (spectralType == MacroverseStarGenerator.SpectralType.TypeK) {\n                // Type K should be smaller (1/3)\n                baseLength = 333333;\n            } else if (spectralType == MacroverseStarGenerator.SpectralType.TypeM) {\n                // Type M should be even smaller (1/10)\n                baseLength = 100000;\n            } else {\n                // Not real!\n                revert();\n            }\n        } else if (objectClass == MacroverseStarGenerator.ObjectClass.Giant) {\n            // Giants are giant (20x)\n            baseLength = 20000000;\n        } else if (objectClass == MacroverseStarGenerator.ObjectClass.Supergiant) {\n            // Supergiants are gianter (50x)\n            baseLength = 50000000;\n        } else {\n            // Not real!\n            revert();\n        }\n\n        int128 realBaseLengthMeters = RealMath.toReal(1000 * baseLength);\n\n        // Make the planet RNG node to use for all the computations\n        var node = RNG.RandNode(seed);\n        \n        // Compute the statistics with their own functions\n        realPeriapsis = getPlanetPeriapsis(node, class, realBaseLengthMeters, realPrevClearance);\n        realApoapsis = getPlanetApoapsis(node, class, realBaseLengthMeters, realPeriapsis);\n        realClearance = getPlanetClearance(node, class, realBaseLengthMeters, realApoapsis);\n    }\n\n    /**\n     * Decide what the planet's orbit's periapsis is, in meters.\n     * This is the first statistic about the orbit to be generated.\n     *\n     * For the first planet, realPrevClearance is 0. For others, it is the\n     * clearance (i.e. distance from star that the planet has cleared out) of\n     * the previous planet.\n     */\n    function getPlanetPeriapsis(RNG.RandNode planetNode, PlanetClass class, int128 realBaseLength, int128 realPrevClearance) internal view returns (int128) {\n        \n        var node = planetNode.derive(\"periapsis\");\n        \n        // Define minimum and maximum periapsis distance above previous planet's\n        // cleared band in millions of km\n        int88 minimum;\n        int88 maximum;\n        if (class == PlanetClass.Lunar) {\n            minimum = 20;\n            maximum = 60;\n        } else if (class == PlanetClass.Terrestrial) {\n            minimum = 40;\n            maximum = 70;\n        } else if (class == PlanetClass.Uranian) {\n            minimum = 1000;\n            maximum = 2000;\n        } else if (class == PlanetClass.Jovian) {\n            minimum = 300;\n            maximum = 500;\n        } else if (class == PlanetClass.AsteroidBelt) {\n            minimum = 20;\n            maximum = 500;\n        } else {\n            // Not real!\n            revert();\n        }\n        \n        int128 realSeparation = node.getRealBetween(RealMath.toReal(minimum), RealMath.toReal(maximum));\n        return realPrevClearance + RealMath.mul(realSeparation, realBaseLength); \n    }\n    \n    /**\n     * Decide what the planet's orbit's apoapsis is, in meters.\n     * This is the second statistic about the orbit to be generated.\n     */\n    function getPlanetApoapsis(RNG.RandNode planetNode, PlanetClass class, int128 realBaseLength, int128 realPeriapsis) internal view returns (int128) {\n        \n        var node = planetNode.derive(\"apoapsis\");\n        \n        // Define minimum and maximum apoapsis distance above planet's periapsis\n        // Think in gigameters (millions of km)\n        int88 minimum;\n        int88 maximum;\n        if (class == PlanetClass.Lunar) {\n            minimum = 0;\n            maximum = 6;\n        } else if (class == PlanetClass.Terrestrial) {\n            minimum = 0;\n            maximum = 10;\n        } else if (class == PlanetClass.Uranian) {\n            minimum = 20;\n            maximum = 1000;\n        } else if (class == PlanetClass.Jovian) {\n            minimum = 10;\n            maximum = 200;\n        } else if (class == PlanetClass.AsteroidBelt) {\n            minimum = 10;\n            maximum = 100;\n        } else {\n            // Not real!\n            revert();\n        }\n        \n        int128 realWidth = node.getRealBetween(RealMath.toReal(minimum), RealMath.toReal(maximum));\n        return realPeriapsis + RealMath.mul(realWidth, realBaseLength); \n    }\n    \n    /**\n     * Decide how far out the cleared band after the planet's orbit is.\n     */\n    function getPlanetClearance(RNG.RandNode planetNode, PlanetClass class, int128 realBaseLength, int128 realApoapsis) internal view returns (int128) {\n        \n        var node = planetNode.derive(\"cleared\");\n        \n        // Define minimum and maximum clearance in millions of km.\n        // TODO: Constants should be sort of like the periapsis constants I think? But maybe not identical.\n        // Think in gigameters (millions of km)\n        int88 minimum;\n        int88 maximum;\n        if (class == PlanetClass.Lunar) {\n            minimum = 20;\n            maximum = 60;\n        } else if (class == PlanetClass.Terrestrial) {\n            minimum = 40;\n            maximum = 70;\n        } else if (class == PlanetClass.Uranian) {\n            minimum = 1000;\n            maximum = 2000;\n        } else if (class == PlanetClass.Jovian) {\n            minimum = 300;\n            maximum = 500;\n        } else if (class == PlanetClass.AsteroidBelt) {\n            minimum = 20;\n            maximum = 500;\n        } else {\n            // Not real!\n            revert();\n        }\n        \n        int128 realSeparation = node.getRealBetween(RealMath.toReal(minimum), RealMath.toReal(maximum));\n        return realApoapsis + RealMath.mul(realSeparation, realBaseLength); \n    }\n    \n    /**\n     * Convert from periapsis and apoapsis to semimajor axis and eccentricity.\n     */\n    function convertOrbitShape(int128 realPeriapsis, int128 realApoapsis) public view onlyControlledAccess returns (int128 realSemimajor, int128 realEccentricity) {\n        // Semimajor axis is average of apoapsis and periapsis\n        realSemimajor = RealMath.div(realApoapsis + realPeriapsis, RealMath.toReal(2));\n        \n        // Eccentricity is ratio of difference and sum\n        realEccentricity = RealMath.div(realApoapsis - realPeriapsis, realApoapsis + realPeriapsis);\n    }\n    \n    // Define the orbital plane\n    \n    /**\n     * Get the longitude of the ascending node (angle from galactic +X to ascending node) for a planet.\n     */ \n    function getPlanetLan(bytes32 seed) public view onlyControlledAccess returns (int128) {\n        var node = RNG.RandNode(seed).derive(\"LAN\");\n        // Angles should be uniform from 0 to 2 PI\n        return node.getRealBetween(RealMath.toReal(0), RealMath.mul(RealMath.toReal(2), REAL_PI));\n    }\n    \n    /**\n     * Get the inclination (angle from galactic XZ plane to orbital plane at the ascending node) for a planet.\n     * Inclination is always positive. If it were negative, the ascending node would really be the descending node.\n     * Result is a real in radians.\n     */ \n    function getPlanetInclination(bytes32 seed, PlanetClass class) public view onlyControlledAccess returns (int128) {\n        var node = RNG.RandNode(seed).derive(\"inclination\");\n    \n        // Define minimum and maximum inclinations in milliradians\n        // 175 milliradians = ~ 10 degrees\n        int88 minimum;\n        int88 maximum;\n        if (class == PlanetClass.Lunar) {\n            minimum = 0;\n            maximum = 175;\n        } else if (class == PlanetClass.Terrestrial) {\n            minimum = 0;\n            maximum = 87;\n        } else if (class == PlanetClass.Uranian) {\n            minimum = 0;\n            maximum = 35;\n        } else if (class == PlanetClass.Jovian) {\n            minimum = 0;\n            maximum = 52;\n        } else if (class == PlanetClass.AsteroidBelt) {\n            minimum = 0;\n            maximum = 262;\n        } else {\n            // Not real!\n            revert();\n        }\n        \n        // Decide if we should be retrograde (PI-ish inclination)\n        int128 real_retrograde_offset = 0;\n        if (node.derive(\"retrograde\").d(1, 100, 0) < 2) {\n            // This planet ought to move retrograde\n            real_retrograde_offset = REAL_PI;\n        }\n\n        return real_retrograde_offset + RealMath.div(node.getRealBetween(RealMath.toReal(minimum), RealMath.toReal(maximum)), RealMath.toReal(1000));    \n    }\n    \n    // Define the orbit's embedding in the plane (and in time)\n    \n    /**\n     * Get the argument of periapsis (angle from ascending node to periapsis position, in the orbital plane) for a planet.\n     */\n    function getPlanetAop(bytes32 seed) public view onlyControlledAccess returns (int128) {\n        var node = RNG.RandNode(seed).derive(\"AOP\");\n        // Angles should be uniform from 0 to 2 PI.\n        // We already made sure planets wouldn't get too close together when laying out the orbits.\n        return node.getRealBetween(RealMath.toReal(0), RealMath.mul(RealMath.toReal(2), REAL_PI));\n    }\n    \n    /**\n     * Get the mean anomaly (which sweeps from 0 at periapsis to 2 pi at the next periapsis) at epoch (time 0) for a planet.\n     */\n    function getPlanetMeanAnomalyAtEpoch(bytes32 seed) public view onlyControlledAccess returns (int128) {\n        var node = RNG.RandNode(seed).derive(\"MAE\");\n        // Angles should be uniform from 0 to 2 PI.\n        return node.getRealBetween(RealMath.toReal(0), RealMath.mul(RealMath.toReal(2), REAL_PI));\n    }  \n}\n \n",
  "sourcePath": "/Users/anovak/Documents/Workspace/macroverse/contracts/MacroverseSystemGenerator.sol",
  "compiler": {
    "name": "solc",
    "version": "0.4.19+commit.c4cbbb05.Emscripten.clang"
  },
  "schemaVersion": "2.0.0",
  "updatedAt": "2018-06-29T05:37:02.818Z"
}