{
  "contractName": "MacroverseStarRegistry",
  "abi": [
    {
      "inputs": [
        {
          "internalType": "address payable",
          "name": "depositTokenAddress",
          "type": "address"
        },
        {
          "internalType": "uint256",
          "name": "initialMinDepositInAtomicUnits",
          "type": "uint256"
        }
      ],
      "stateMutability": "nonpayable",
      "type": "constructor"
    },
    {
      "anonymous": false,
      "inputs": [
        {
          "indexed": true,
          "internalType": "address",
          "name": "previousOwner",
          "type": "address"
        },
        {
          "indexed": true,
          "internalType": "address",
          "name": "newOwner",
          "type": "address"
        }
      ],
      "name": "OwnershipTransferred",
      "type": "event"
    },
    {
      "anonymous": false,
      "inputs": [
        {
          "indexed": true,
          "internalType": "bytes32",
          "name": "starSeed",
          "type": "bytes32"
        },
        {
          "indexed": true,
          "internalType": "address",
          "name": "newOwner",
          "type": "address"
        }
      ],
      "name": "StarOwnershipChange",
      "type": "event"
    },
    {
      "inputs": [
        {
          "internalType": "bytes32",
          "name": "",
          "type": "bytes32"
        }
      ],
      "name": "depositFor",
      "outputs": [
        {
          "internalType": "uint256",
          "name": "",
          "type": "uint256"
        }
      ],
      "stateMutability": "view",
      "type": "function"
    },
    {
      "inputs": [],
      "name": "expectedMrvBalance",
      "outputs": [
        {
          "internalType": "uint256",
          "name": "",
          "type": "uint256"
        }
      ],
      "stateMutability": "view",
      "type": "function"
    },
    {
      "inputs": [],
      "name": "minDepositInAtomicUnits",
      "outputs": [
        {
          "internalType": "uint256",
          "name": "",
          "type": "uint256"
        }
      ],
      "stateMutability": "view",
      "type": "function"
    },
    {
      "inputs": [],
      "name": "owner",
      "outputs": [
        {
          "internalType": "address",
          "name": "",
          "type": "address"
        }
      ],
      "stateMutability": "view",
      "type": "function"
    },
    {
      "inputs": [
        {
          "internalType": "bytes32",
          "name": "",
          "type": "bytes32"
        }
      ],
      "name": "ownerOf",
      "outputs": [
        {
          "internalType": "address",
          "name": "",
          "type": "address"
        }
      ],
      "stateMutability": "view",
      "type": "function"
    },
    {
      "inputs": [
        {
          "internalType": "address",
          "name": "contractAddr",
          "type": "address"
        }
      ],
      "name": "reclaimContract",
      "outputs": [],
      "stateMutability": "nonpayable",
      "type": "function"
    },
    {
      "inputs": [],
      "name": "reclaimEther",
      "outputs": [],
      "stateMutability": "nonpayable",
      "type": "function"
    },
    {
      "inputs": [],
      "name": "renounceOwnership",
      "outputs": [],
      "stateMutability": "nonpayable",
      "type": "function"
    },
    {
      "inputs": [],
      "name": "tokenAddress",
      "outputs": [
        {
          "internalType": "contract MRVToken",
          "name": "",
          "type": "address"
        }
      ],
      "stateMutability": "view",
      "type": "function"
    },
    {
      "stateMutability": "payable",
      "type": "receive"
    },
    {
      "inputs": [
        {
          "internalType": "uint256",
          "name": "newMinimumDepositInAtomicUnits",
          "type": "uint256"
        }
      ],
      "name": "setMinimumDeposit",
      "outputs": [],
      "stateMutability": "nonpayable",
      "type": "function"
    },
    {
      "inputs": [
        {
          "internalType": "bytes32",
          "name": "starSeed",
          "type": "bytes32"
        },
        {
          "internalType": "uint256",
          "name": "depositInAtomicUnits",
          "type": "uint256"
        }
      ],
      "name": "claimOwnership",
      "outputs": [],
      "stateMutability": "nonpayable",
      "type": "function"
    },
    {
      "inputs": [
        {
          "internalType": "bytes32",
          "name": "starSeed",
          "type": "bytes32"
        },
        {
          "internalType": "address",
          "name": "newOwner",
          "type": "address"
        }
      ],
      "name": "transferOwnership",
      "outputs": [],
      "stateMutability": "nonpayable",
      "type": "function"
    },
    {
      "inputs": [
        {
          "internalType": "address",
          "name": "newOwner",
          "type": "address"
        }
      ],
      "name": "transferOwnership",
      "outputs": [],
      "stateMutability": "nonpayable",
      "type": "function"
    },
    {
      "inputs": [
        {
          "internalType": "bytes32",
          "name": "starSeed",
          "type": "bytes32"
        }
      ],
      "name": "abdicateOwnership",
      "outputs": [],
      "stateMutability": "nonpayable",
      "type": "function"
    },
    {
      "inputs": [
        {
          "internalType": "address",
          "name": "otherToken",
          "type": "address"
        }
      ],
      "name": "reclaimToken",
      "outputs": [],
      "stateMutability": "nonpayable",
      "type": "function"
    }
  ],
  "bytecode": "0x608060405234801561001057600080fd5b50604051610e0e380380610e0e8339818101604052604081101561003357600080fd5b508051602090910151600061004f6001600160e01b036100cd16565b600080546001600160a01b0319166001600160a01b0383169081178255604051929350917f8be0079c531659141344cd1fd0a4f28419497f9722a3daafe3b4186f6b6457e0908290a35034156100a457600080fd5b600180546001600160a01b0319166001600160a01b0393909316929092179091556002556100d1565b3390565b610d2e806100e06000396000f3fe6080604052600436106100ec5760003560e01c80639ba554391161008a578063dccbaa9911610059578063dccbaa9914610293578063e78ec42e146102bd578063ef5d6bbb146102e7578063f2fde38b14610320576100f6565b80639ba554391461020f5780639bf77fb41461023f5780639d76ea58146102695780639f727c271461027e576100f6565b80634ad2daaf116100c65780634ad2daaf1461018a578063715018a61461019f5780637dd56411146101b45780638da5cb5b146101fa576100f6565b806317ffc320146100fb5780632aed7f3f146101305780633a0a82ad14610163576100f6565b366100f657600080fd5b600080fd5b34801561010757600080fd5b5061012e6004803603602081101561011e57600080fd5b50356001600160a01b0316610353565b005b34801561013c57600080fd5b5061012e6004803603602081101561015357600080fd5b50356001600160a01b03166104ea565b34801561016f57600080fd5b506101786105be565b60408051918252519081900360200190f35b34801561019657600080fd5b506101786105c4565b3480156101ab57600080fd5b5061012e6105ca565b3480156101c057600080fd5b506101de600480360360208110156101d757600080fd5b503561066c565b604080516001600160a01b039092168252519081900360200190f35b34801561020657600080fd5b506101de610687565b34801561021b57600080fd5b5061012e6004803603604081101561023257600080fd5b5080359060200135610696565b34801561024b57600080fd5b506101786004803603602081101561026257600080fd5b503561078e565b34801561027557600080fd5b506101de6107a0565b34801561028a57600080fd5b5061012e6107af565b34801561029f57600080fd5b5061012e600480360360208110156102b657600080fd5b503561084a565b3480156102c957600080fd5b5061012e600480360360208110156102e057600080fd5b503561095f565b3480156102f357600080fd5b5061012e6004803603604081101561030a57600080fd5b50803590602001356001600160a01b03166109bc565b34801561032c57600080fd5b5061012e6004803603602081101561034357600080fd5b50356001600160a01b0316610a7c565b61035b610b74565b6000546001600160a01b039081169116146103ab576040805162461bcd60e51b81526020600482018190526024820152600080516020610cd9833981519152604482015290519081900360640190fd5b604080516370a0823160e01b8152306004820152905182916000916001600160a01b038416916370a08231916024808301926020929190829003018186803b1580156103f657600080fd5b505afa15801561040a573d6000803e3d6000fd5b505050506040513d602081101561042057600080fd5b50516001549091506001600160a01b03838116911614156104525760055461044f90829063ffffffff610b7816565b90505b816001600160a01b031663a9059cbb610469610687565b836040518363ffffffff1660e01b815260040180836001600160a01b03166001600160a01b0316815260200182815260200192505050602060405180830381600087803b1580156104b957600080fd5b505af11580156104cd573d6000803e3d6000fd5b505050506040513d60208110156104e357600080fd5b5050505050565b6104f2610b74565b6000546001600160a01b03908116911614610542576040805162461bcd60e51b81526020600482018190526024820152600080516020610cd9833981519152604482015290519081900360640190fd5b806001600160a01b03811663f2fde38b61055a610687565b6040518263ffffffff1660e01b815260040180826001600160a01b03166001600160a01b03168152602001915050600060405180830381600087803b1580156105a257600080fd5b505af11580156105b6573d6000803e3d6000fd5b505050505050565b60025481565b60055481565b6105d2610b74565b6000546001600160a01b03908116911614610622576040805162461bcd60e51b81526020600482018190526024820152600080516020610cd9833981519152604482015290519081900360640190fd5b600080546040516001600160a01b03909116907f8be0079c531659141344cd1fd0a4f28419497f9722a3daafe3b4186f6b6457e0908390a3600080546001600160a01b0319169055565b6003602052600090815260409020546001600160a01b031681565b6000546001600160a01b031690565b6000828152600360205260409020546001600160a01b0316156106b857600080fd5b6002548110156106c757600080fd5b600082815260036020908152604080832080546001600160a01b0319163317905560049091529020819055600554610705908263ffffffff610bc116565b600555604051339083907f575875f7fca9a5932686f3a3f2153e91772df070936be6bba7edbc61d339e60f90600090a3600154604080516323b872dd60e01b81523360048201523060248201526044810184905290516001600160a01b03909216916323b872dd9160648082019260009290919082900301818387803b1580156105a257600080fd5b60046020526000908152604090205481565b6001546001600160a01b031681565b6107b7610b74565b6000546001600160a01b03908116911614610807576040805162461bcd60e51b81526020600482018190526024820152600080516020610cd9833981519152604482015290519081900360640190fd5b61080f610687565b6001600160a01b03166108fc479081150290604051600060405180830381858888f19350505050158015610847573d6000803e3d6000fd5b50565b6000818152600360205260409020546001600160a01b0316331461086d57600080fd5b600081815260046020818152604080842080546003845291852080546001600160a01b03198116909155939092529290556005546001600160a01b03909116906108bd908363ffffffff610b7816565b60055560405160009084907f575875f7fca9a5932686f3a3f2153e91772df070936be6bba7edbc61d339e60f908390a36001546040805163a9059cbb60e01b81526001600160a01b038481166004830152602482018690529151919092169163a9059cbb91604480830192600092919082900301818387803b15801561094257600080fd5b505af1158015610956573d6000803e3d6000fd5b50505050505050565b610967610b74565b6000546001600160a01b039081169116146109b7576040805162461bcd60e51b81526020600482018190526024820152600080516020610cd9833981519152604482015290519081900360640190fd5b600255565b6000828152600360205260409020546001600160a01b031633146109df57600080fd5b6001600160a01b0381166109f257600080fd5b6001600160a01b038116301415610a0857600080fd5b6001546001600160a01b0382811691161415610a2357600080fd5b60008281526003602052604080822080546001600160a01b0319166001600160a01b0385169081179091559051909184917f575875f7fca9a5932686f3a3f2153e91772df070936be6bba7edbc61d339e60f9190a35050565b610a84610b74565b6000546001600160a01b03908116911614610ad4576040805162461bcd60e51b81526020600482018190526024820152600080516020610cd9833981519152604482015290519081900360640190fd5b6001600160a01b038116610b195760405162461bcd60e51b8152600401808060200182810382526026815260200180610cb36026913960400191505060405180910390fd5b600080546040516001600160a01b03808516939216917f8be0079c531659141344cd1fd0a4f28419497f9722a3daafe3b4186f6b6457e091a3600080546001600160a01b0319166001600160a01b0392909216919091179055565b3390565b6000610bba83836040518060400160405280601e81526020017f536166654d6174683a207375627472616374696f6e206f766572666c6f770000815250610c1b565b9392505050565b600082820183811015610bba576040805162461bcd60e51b815260206004820152601b60248201527f536166654d6174683a206164646974696f6e206f766572666c6f770000000000604482015290519081900360640190fd5b60008184841115610caa5760405162461bcd60e51b81526004018080602001828103825283818151815260200191508051906020019080838360005b83811015610c6f578181015183820152602001610c57565b50505050905090810190601f168015610c9c5780820380516001836020036101000a031916815260200191505b509250505060405180910390fd5b50505090039056fe4f776e61626c653a206e6577206f776e657220697320746865207a65726f20616464726573734f776e61626c653a2063616c6c6572206973206e6f7420746865206f776e6572a2646970667358221220ba57331918880e159848d3109522852ec1ffbe0457056a86b1f8a301c1d5ee5864736f6c634300060a0033",
  "immutableReferences": {},
  "source": "pragma solidity ^0.6.10;\n\nimport \"./MRVToken.sol\";\nimport \"openzeppelin-solidity/contracts/access/Ownable.sol\";\nimport \"./HasNoEther.sol\";\nimport \"./HasNoContracts.sol\";\nimport \"openzeppelin-solidity/contracts/token/ERC20/IERC20.sol\";\nimport \"openzeppelin-solidity/contracts/math/SafeMath.sol\";\n\n/**\n * The Macroverse Star Registry keeps track of who currently owns virtual real estate in the\n * Macroverse world, at the scale of star systems and other star-like objects.\n *\n * Ownership is handled by having the first person who wants to own an object claim it, by\n * putting up a deposit in MRV tokens of a certain minimum size. Note that the owner of the\n * contract reserves the right to adjust this minimum size at any time, for any reason, and\n * without notice. Since the size of the deposit to be made is specified by the claimant,\n * trying to claim something when the minimum deposit size has been increased without your\n * knowledge should at worst result in wasted gas.\n *\n * Owners of objects can send them to other addresses, and an owner can abdicate ownership of\n * an object and collect the original MRV deposit used to claim it.\n *\n * Note that the claiming system used here is not protected against front-running. Anyone can\n * see your claim transaction before it is mined, and claim the object you were going for first.\n * However, they would then need to find it among the many billions of objects in the Macroverse\n * universe, because this contract only records ownership by seed.\n *\n * Note that ownership of a star system does not necessarily imply ownership of everything in it.\n * Just as one person can own a condo in another person's building, one person can own a planet in\n * another person's star system.\n *\n * All ownership is recorded using star seeds; no attempt is made to enforce that a given\n * seed actually exists in the Macroverse world. It is possible to purchase (and sell!)\n * nonexistent star systems, or star systems that you don't know where they are. Caveat emptor.\n *\n * The deployer of this contract reserves the right to supersede it with a new version at any time,\n * for any reason, and without notice. The deployer of this contract reserves the right to leave it\n * in place as is indefinitely.\n *\n * The deployer of this contract reserves the right to claim and keep any tokens or ETH or contracts\n * sent to this contract, in excess of the MRV balance that this contract thinks it is supposed to\n * have.\n *\n * TODO: Note that the deployed version of this contract on the mainnet is slightly different!\n * In particular, this version reverts where the deployed version throws, to make newer compilers\n * stop warning whenever you build the Macroverse project.\n */\ncontract MacroverseStarRegistry is Ownable, HasNoEther, HasNoContracts {\n    using SafeMath for *;\n    \n    // This is the token in which star ownership deposits have to be paid.\n    MRVToken public tokenAddress;\n    // This is the minimum ownership deposit in atomic token units.\n    uint public minDepositInAtomicUnits;\n    \n    // This maps from star or other body seed to the address that owns it.\n    // This can be queried without meeting the access control requirements.\n    mapping(bytes32 => address) public ownerOf;\n    \n    // This holds what deposit was paid for each owned item.\n    mapping(bytes32 => uint) public depositFor;\n    \n    // This tracks how much MRV the contract is supposed to have.\n    // If it ends up with extra (because someone incorrectly used transfer() instead of approve()), the owner can remove it.\n    uint public expectedMrvBalance;\n    \n    // This event is fired when ownership of a star system. Giving up ownership transfers to the 0 address.\n    event StarOwnershipChange(bytes32 indexed starSeed, address indexed newOwner);\n    \n    /**\n     * Deploy a new copy of the Macroverse Star Registry.\n     * The given token will be used to pay deposits, and the given minimum\n     * deposit size will be required.\n     */\n    constructor(address payable depositTokenAddress, uint initialMinDepositInAtomicUnits) public {\n        // We can only use one token for the lifetime of the contract.\n        tokenAddress = MRVToken(depositTokenAddress);\n        // But the minimum deposit for new claims can change\n        minDepositInAtomicUnits = initialMinDepositInAtomicUnits;\n    }\n    \n    /**\n     * Allow the owner to set the minimum deposit amount for granting new\n     * ownership claims.\n     */\n    function setMinimumDeposit(uint newMinimumDepositInAtomicUnits) external onlyOwner {\n        minDepositInAtomicUnits = newMinimumDepositInAtomicUnits;\n    }\n    \n    /**\n     * Acquire ownership of an unclaimed star.\n     * To claim a star, you need to put up a deposit of MRV. You need to call\n     * approve() on the MRV token contract to allow this contract to debit the\n     * requested deposit from your account. The deposit must be more than the\n     * current minimum deposit.\n     *\n     * YOU and ONLY YOU are responsible for remembering the seeds of stars you\n     * own, so you can get your deposits back when you are done with them. You\n     * can't easily get a listing from this contract.\n     */\n    function claimOwnership(bytes32 starSeed, uint depositInAtomicUnits) external {\n        // You can't claim things that are already owned.\n        if (ownerOf[starSeed] != address(0)) revert();\n        \n        // You can claim things that don't exist, if you really want to.\n        \n        // You have to put up at least the minimum deposit\n        if (depositInAtomicUnits < minDepositInAtomicUnits) revert();\n        \n        // Go ahead and do the state changes\n        ownerOf[starSeed] = msg.sender;\n        depositFor[starSeed] = depositInAtomicUnits;\n        expectedMrvBalance = expectedMrvBalance.add(depositInAtomicUnits);\n        \n        // Announce it\n        emit StarOwnershipChange(starSeed, msg.sender);\n        \n        // After state changes, try to take the money\n        tokenAddress.transferFrom(msg.sender, address(this), depositInAtomicUnits);\n        // The MRV token will throw if transferFrom fails.\n    }\n    \n    /**\n     * Transfer ownership of a star from the sender to the given address.\n     * You don't need to meet the access control requirements to get rid of\n     * your owned stars, or to own stars. But you might not be able to\n     * query anything about them.\n     */\n    function transferOwnership(bytes32 starSeed, address newOwner) external {\n        // You can't send things you don't own.\n        if (ownerOf[starSeed] != msg.sender) revert();\n        \n        // Don't try to burn star ownership; use abdicateOwnership instead.\n        if (newOwner == address(0)) revert();\n        // Don't send stars to the contract either\n        if (newOwner == address(this)) revert();\n        // Or to the token\n        if (newOwner == address(tokenAddress)) revert();\n        \n        // Transfer owenership\n        ownerOf[starSeed] = newOwner;\n        \n        // Announce it\n        emit StarOwnershipChange(starSeed, newOwner);\n    }\n    \n    // In a future version, we might want an ERC20-style authorization system, to let a contract move your things for you.\n    \n    /**\n     * Give up ownership of an owned star.\n     * The MRV deposit originally paid to acquire ownership of the star will\n     * be paid out to the sender of the message.\n     */\n    function abdicateOwnership(bytes32 starSeed) external {\n        // You can't give up things you don't own.\n        if (ownerOf[starSeed] != msg.sender) revert();\n        \n        // How much should we return?\n        uint depositSize = depositFor[starSeed];\n        // And to whom?\n        address oldOwner = ownerOf[starSeed];\n        \n        // Clear ownership\n        ownerOf[starSeed] = address(0);\n        // Clear the deposit value\n        depositFor[starSeed] = 0;\n        \n        // Update expected balance\n        expectedMrvBalance = expectedMrvBalance.sub(depositSize);\n\n        // Announce lack of ownership of the thing\n        emit StarOwnershipChange(starSeed, address(0));\n        \n        // Pay back deposit\n        tokenAddress.transfer(oldOwner, depositSize);\n        // We know MRVToken throws on a failed transfer\n    }\n    \n    /**\n     * Allow the owner to collect any non-MRV tokens, or any excess MRV, that ends up in this contract.\n     */\n    function reclaimToken(address otherToken) external onlyOwner {\n        IERC20 other = IERC20(otherToken);\n        \n        // We will send our whole balance\n        uint excessBalance = other.balanceOf(address(this));\n        \n        // Unless we're talking about the MRV token\n        if (address(other) == address(tokenAddress)) {\n            // In which case we send only any balance that we shouldn't have\n            excessBalance = excessBalance.sub(expectedMrvBalance);\n        }\n        \n        // Make the transfer. If it doesn't work, we can try again later.\n        other.transfer(owner(), excessBalance);\n    }\n}\n\n// This code is part of Macroverse and is licensed: UNLICENSED\n",
  "sourcePath": "/home/anovak/workspace/macroverse/contracts/MacroverseStarRegistry.sol",
  "compiler": {
    "name": "solc",
    "version": "0.6.10+commit.00c0fcaf.Emscripten.clang"
  },
  "schemaVersion": "3.3.1",
  "updatedAt": "2020-12-06T06:13:58.672Z",
  "devdoc": {
    "methods": {
      "owner()": {
        "details": "Returns the address of the current owner."
      },
      "reclaimContract(address)": {
        "details": "Reclaim ownership of Ownable contracts",
        "params": {
          "contractAddr": "The address of the Ownable to be reclaimed."
        }
      },
      "reclaimEther()": {
        "details": "Transfer all Ether held by the contract to the owner."
      },
      "renounceOwnership()": {
        "details": "Leaves the contract without owner. It will not be possible to call `onlyOwner` functions anymore. Can only be called by the current owner. NOTE: Renouncing ownership will leave the contract without an owner, thereby removing any functionality that is only available to the owner."
      },
      "transferOwnership(address)": {
        "details": "Transfers ownership of the contract to a new account (`newOwner`). Can only be called by the current owner."
      }
    }
  },
  "userdoc": {
    "methods": {
      "abdicateOwnership(bytes32)": {
        "notice": "Give up ownership of an owned star. The MRV deposit originally paid to acquire ownership of the star will be paid out to the sender of the message."
      },
      "claimOwnership(bytes32,uint256)": {
        "notice": "Acquire ownership of an unclaimed star. To claim a star, you need to put up a deposit of MRV. You need to call approve() on the MRV token contract to allow this contract to debit the requested deposit from your account. The deposit must be more than the current minimum deposit. YOU and ONLY YOU are responsible for remembering the seeds of stars you own, so you can get your deposits back when you are done with them. You can't easily get a listing from this contract."
      },
      "constructor": "Deploy a new copy of the Macroverse Star Registry. The given token will be used to pay deposits, and the given minimum deposit size will be required.",
      "reclaimToken(address)": {
        "notice": "Allow the owner to collect any non-MRV tokens, or any excess MRV, that ends up in this contract."
      },
      "setMinimumDeposit(uint256)": {
        "notice": "Allow the owner to set the minimum deposit amount for granting new ownership claims."
      },
      "transferOwnership(bytes32,address)": {
        "notice": "Transfer ownership of a star from the sender to the given address. You don't need to meet the access control requirements to get rid of your owned stars, or to own stars. But you might not be able to query anything about them."
      }
    },
    "notice": "The Macroverse Star Registry keeps track of who currently owns virtual real estate in the Macroverse world, at the scale of star systems and other star-like objects. Ownership is handled by having the first person who wants to own an object claim it, by putting up a deposit in MRV tokens of a certain minimum size. Note that the owner of the contract reserves the right to adjust this minimum size at any time, for any reason, and without notice. Since the size of the deposit to be made is specified by the claimant, trying to claim something when the minimum deposit size has been increased without your knowledge should at worst result in wasted gas. Owners of objects can send them to other addresses, and an owner can abdicate ownership of an object and collect the original MRV deposit used to claim it. Note that the claiming system used here is not protected against front-running. Anyone can see your claim transaction before it is mined, and claim the object you were going for first. However, they would then need to find it among the many billions of objects in the Macroverse universe, because this contract only records ownership by seed. Note that ownership of a star system does not necessarily imply ownership of everything in it. Just as one person can own a condo in another person's building, one person can own a planet in another person's star system. All ownership is recorded using star seeds; no attempt is made to enforce that a given seed actually exists in the Macroverse world. It is possible to purchase (and sell!) nonexistent star systems, or star systems that you don't know where they are. Caveat emptor. The deployer of this contract reserves the right to supersede it with a new version at any time, for any reason, and without notice. The deployer of this contract reserves the right to leave it in place as is indefinitely. The deployer of this contract reserves the right to claim and keep any tokens or ETH or contracts sent to this contract, in excess of the MRV balance that this contract thinks it is supposed to have. TODO: Note that the deployed version of this contract on the mainnet is slightly different! In particular, this version reverts where the deployed version throws, to make newer compilers stop warning whenever you build the Macroverse project."
  }
}