{
  "contractName": "MacroverseRealEstate",
  "abi": [
    {
      "inputs": [
        {
          "internalType": "string",
          "name": "domain",
          "type": "string"
        }
      ],
      "stateMutability": "nonpayable",
      "type": "constructor"
    },
    {
      "anonymous": false,
      "inputs": [
        {
          "indexed": true,
          "internalType": "address",
          "name": "owner",
          "type": "address"
        },
        {
          "indexed": true,
          "internalType": "address",
          "name": "approved",
          "type": "address"
        },
        {
          "indexed": true,
          "internalType": "uint256",
          "name": "tokenId",
          "type": "uint256"
        }
      ],
      "name": "Approval",
      "type": "event"
    },
    {
      "anonymous": false,
      "inputs": [
        {
          "indexed": true,
          "internalType": "address",
          "name": "owner",
          "type": "address"
        },
        {
          "indexed": true,
          "internalType": "address",
          "name": "operator",
          "type": "address"
        },
        {
          "indexed": false,
          "internalType": "bool",
          "name": "approved",
          "type": "bool"
        }
      ],
      "name": "ApprovalForAll",
      "type": "event"
    },
    {
      "anonymous": false,
      "inputs": [
        {
          "indexed": true,
          "internalType": "address",
          "name": "previousOwner",
          "type": "address"
        },
        {
          "indexed": true,
          "internalType": "address",
          "name": "newOwner",
          "type": "address"
        }
      ],
      "name": "OwnershipTransferred",
      "type": "event"
    },
    {
      "anonymous": false,
      "inputs": [
        {
          "indexed": true,
          "internalType": "address",
          "name": "from",
          "type": "address"
        },
        {
          "indexed": true,
          "internalType": "address",
          "name": "to",
          "type": "address"
        },
        {
          "indexed": true,
          "internalType": "uint256",
          "name": "tokenId",
          "type": "uint256"
        }
      ],
      "name": "Transfer",
      "type": "event"
    },
    {
      "inputs": [
        {
          "internalType": "address",
          "name": "to",
          "type": "address"
        },
        {
          "internalType": "uint256",
          "name": "tokenId",
          "type": "uint256"
        }
      ],
      "name": "approve",
      "outputs": [],
      "stateMutability": "nonpayable",
      "type": "function"
    },
    {
      "inputs": [
        {
          "internalType": "address",
          "name": "owner",
          "type": "address"
        }
      ],
      "name": "balanceOf",
      "outputs": [
        {
          "internalType": "uint256",
          "name": "",
          "type": "uint256"
        }
      ],
      "stateMutability": "view",
      "type": "function"
    },
    {
      "inputs": [],
      "name": "baseURI",
      "outputs": [
        {
          "internalType": "string",
          "name": "",
          "type": "string"
        }
      ],
      "stateMutability": "view",
      "type": "function"
    },
    {
      "inputs": [
        {
          "internalType": "uint256",
          "name": "tokenId",
          "type": "uint256"
        }
      ],
      "name": "getApproved",
      "outputs": [
        {
          "internalType": "address",
          "name": "",
          "type": "address"
        }
      ],
      "stateMutability": "view",
      "type": "function"
    },
    {
      "inputs": [
        {
          "internalType": "address",
          "name": "owner",
          "type": "address"
        },
        {
          "internalType": "address",
          "name": "operator",
          "type": "address"
        }
      ],
      "name": "isApprovedForAll",
      "outputs": [
        {
          "internalType": "bool",
          "name": "",
          "type": "bool"
        }
      ],
      "stateMutability": "view",
      "type": "function"
    },
    {
      "inputs": [],
      "name": "name",
      "outputs": [
        {
          "internalType": "string",
          "name": "",
          "type": "string"
        }
      ],
      "stateMutability": "view",
      "type": "function"
    },
    {
      "inputs": [],
      "name": "owner",
      "outputs": [
        {
          "internalType": "address",
          "name": "",
          "type": "address"
        }
      ],
      "stateMutability": "view",
      "type": "function"
    },
    {
      "inputs": [
        {
          "internalType": "uint256",
          "name": "tokenId",
          "type": "uint256"
        }
      ],
      "name": "ownerOf",
      "outputs": [
        {
          "internalType": "address",
          "name": "",
          "type": "address"
        }
      ],
      "stateMutability": "view",
      "type": "function"
    },
    {
      "inputs": [],
      "name": "renounceOwnership",
      "outputs": [],
      "stateMutability": "nonpayable",
      "type": "function"
    },
    {
      "inputs": [
        {
          "internalType": "address",
          "name": "from",
          "type": "address"
        },
        {
          "internalType": "address",
          "name": "to",
          "type": "address"
        },
        {
          "internalType": "uint256",
          "name": "tokenId",
          "type": "uint256"
        }
      ],
      "name": "safeTransferFrom",
      "outputs": [],
      "stateMutability": "nonpayable",
      "type": "function"
    },
    {
      "inputs": [
        {
          "internalType": "address",
          "name": "from",
          "type": "address"
        },
        {
          "internalType": "address",
          "name": "to",
          "type": "address"
        },
        {
          "internalType": "uint256",
          "name": "tokenId",
          "type": "uint256"
        },
        {
          "internalType": "bytes",
          "name": "_data",
          "type": "bytes"
        }
      ],
      "name": "safeTransferFrom",
      "outputs": [],
      "stateMutability": "nonpayable",
      "type": "function"
    },
    {
      "inputs": [
        {
          "internalType": "address",
          "name": "operator",
          "type": "address"
        },
        {
          "internalType": "bool",
          "name": "approved",
          "type": "bool"
        }
      ],
      "name": "setApprovalForAll",
      "outputs": [],
      "stateMutability": "nonpayable",
      "type": "function"
    },
    {
      "inputs": [
        {
          "internalType": "bytes4",
          "name": "interfaceId",
          "type": "bytes4"
        }
      ],
      "name": "supportsInterface",
      "outputs": [
        {
          "internalType": "bool",
          "name": "",
          "type": "bool"
        }
      ],
      "stateMutability": "view",
      "type": "function"
    },
    {
      "inputs": [],
      "name": "symbol",
      "outputs": [
        {
          "internalType": "string",
          "name": "",
          "type": "string"
        }
      ],
      "stateMutability": "view",
      "type": "function"
    },
    {
      "inputs": [
        {
          "internalType": "uint256",
          "name": "index",
          "type": "uint256"
        }
      ],
      "name": "tokenByIndex",
      "outputs": [
        {
          "internalType": "uint256",
          "name": "",
          "type": "uint256"
        }
      ],
      "stateMutability": "view",
      "type": "function"
    },
    {
      "inputs": [
        {
          "internalType": "address",
          "name": "owner",
          "type": "address"
        },
        {
          "internalType": "uint256",
          "name": "index",
          "type": "uint256"
        }
      ],
      "name": "tokenOfOwnerByIndex",
      "outputs": [
        {
          "internalType": "uint256",
          "name": "",
          "type": "uint256"
        }
      ],
      "stateMutability": "view",
      "type": "function"
    },
    {
      "inputs": [
        {
          "internalType": "uint256",
          "name": "tokenId",
          "type": "uint256"
        }
      ],
      "name": "tokenURI",
      "outputs": [
        {
          "internalType": "string",
          "name": "",
          "type": "string"
        }
      ],
      "stateMutability": "view",
      "type": "function"
    },
    {
      "inputs": [],
      "name": "totalSupply",
      "outputs": [
        {
          "internalType": "uint256",
          "name": "",
          "type": "uint256"
        }
      ],
      "stateMutability": "view",
      "type": "function"
    },
    {
      "inputs": [
        {
          "internalType": "address",
          "name": "from",
          "type": "address"
        },
        {
          "internalType": "address",
          "name": "to",
          "type": "address"
        },
        {
          "internalType": "uint256",
          "name": "tokenId",
          "type": "uint256"
        }
      ],
      "name": "transferFrom",
      "outputs": [],
      "stateMutability": "nonpayable",
      "type": "function"
    },
    {
      "inputs": [
        {
          "internalType": "address",
          "name": "newOwner",
          "type": "address"
        }
      ],
      "name": "transferOwnership",
      "outputs": [],
      "stateMutability": "nonpayable",
      "type": "function"
    },
    {
      "inputs": [
        {
          "internalType": "string",
          "name": "domain",
          "type": "string"
        }
      ],
      "name": "setTokenMetadataDomain",
      "outputs": [],
      "stateMutability": "nonpayable",
      "type": "function"
    },
    {
      "inputs": [
        {
          "internalType": "address",
          "name": "to",
          "type": "address"
        },
        {
          "internalType": "uint256",
          "name": "tokenId",
          "type": "uint256"
        }
      ],
      "name": "mint",
      "outputs": [],
      "stateMutability": "nonpayable",
      "type": "function"
    },
    {
      "inputs": [
        {
          "internalType": "uint256",
          "name": "tokenId",
          "type": "uint256"
        }
      ],
      "name": "burn",
      "outputs": [],
      "stateMutability": "nonpayable",
      "type": "function"
    },
    {
      "inputs": [
        {
          "internalType": "uint256",
          "name": "tokenId",
          "type": "uint256"
        }
      ],
      "name": "exists",
      "outputs": [
        {
          "internalType": "bool",
          "name": "",
          "type": "bool"
        }
      ],
      "stateMutability": "view",
      "type": "function"
    }
  ],
  "bytecode": "0x60806040523480156200001157600080fd5b5060405162003e4938038062003e49833981810160405260208110156200003757600080fd5b81019080805160405193929190846401000000008211156200005857600080fd5b838201915060208201858111156200006f57600080fd5b82518660018202830111640100000000821117156200008d57600080fd5b8083526020830192505050908051906020019080838360005b83811015620000c3578082015181840152602081019050620000a6565b50505050905090810190601f168015620000f15780820380516001836020036101000a031916815260200191505b506040525050506040518060400160405280601681526020017f4d6163726f7665727365205265616c20457374617465000000000000000000008152506040518060400160405280600381526020017f4d524500000000000000000000000000000000000000000000000000000000008152506200017c6301ffc9a760e01b620002c160201b60201c565b816006908051906020019062000194929190620006ac565b508060079080519060200190620001ad929190620006ac565b50620001c66380ac58cd60e01b620002c160201b60201c565b620001de635b5e139f60e01b620002c160201b60201c565b620001f663780e9d6360e01b620002c160201b60201c565b505060006200020a620003ca60201b60201c565b905080600a60006101000a81548173ffffffffffffffffffffffffffffffffffffffff021916908373ffffffffffffffffffffffffffffffffffffffff1602179055508073ffffffffffffffffffffffffffffffffffffffff16600073ffffffffffffffffffffffffffffffffffffffff167f8be0079c531659141344cd1fd0a4f28419497f9722a3daafe3b4186f6b6457e060405160405180910390a350620002ba81620003d260201b60201c565b506200075b565b63ffffffff60e01b817bffffffffffffffffffffffffffffffffffffffffffffffffffffffff191614156200035e576040517f08c379a000000000000000000000000000000000000000000000000000000000815260040180806020018281038252601c8152602001807f4552433136353a20696e76616c696420696e746572666163652069640000000081525060200191505060405180910390fd5b6001600080837bffffffffffffffffffffffffffffffffffffffffffffffffffffffff19167bffffffffffffffffffffffffffffffffffffffffffffffffffffffff1916815260200190815260200160002060006101000a81548160ff02191690831515021790555050565b600033905090565b60008090504690506200053982620003f5836200053d60201b62001d5d1760201c565b60405160200180807f68747470733a2f2f00000000000000000000000000000000000000000000000081525060080183805190602001908083835b6020831062000455578051825260208201915060208101905060208303925062000430565b6001836020036101000a038019825116818451168082178552505050505050905001807f2f7672652f76312f636861696e2f000000000000000000000000000000000000815250600e0182805190602001908083835b60208310620004d05780518252602082019150602081019050602083039250620004ab565b6001836020036101000a038019825116818451168082178552505050505050905001807f2f746f6b656e2f00000000000000000000000000000000000000000000000000815250600701925050506040516020818303038152906040526200069060201b60201c565b5050565b6060600082141562000587576040518060400160405280600181526020017f300000000000000000000000000000000000000000000000000000000000000081525090506200068b565b600082905060005b60008214620005b4578080600101915050600a8281620005ab57fe5b0491506200058f565b60608167ffffffffffffffff81118015620005ce57600080fd5b506040519080825280601f01601f191660200182016040528015620006025781602001600182028036833780820191505090505b50905060006001830390508593505b600084146200068357600a84816200062557fe5b0660300160f81b828280600190039350815181106200064057fe5b60200101907effffffffffffffffffffffffffffffffffffffffffffffffffffffffffffff1916908160001a905350600a84816200067a57fe5b04935062000611565b819450505050505b919050565b8060099080519060200190620006a8929190620006ac565b5050565b828054600181600116156101000203166002900490600052602060002090601f016020900481019282601f10620006ef57805160ff191683800117855562000720565b8280016001018555821562000720579182015b828111156200071f57825182559160200191906001019062000702565b5b5090506200072f919062000733565b5090565b6200075891905b80821115620007545760008160009055506001016200073a565b5090565b90565b6136de806200076b6000396000f3fe608060405234801561001057600080fd5b50600436106101585760003560e01c80636352211e116100c357806395d89b411161007c57806395d89b41146107b9578063a22cb4651461083c578063b88d4fde1461088c578063c87b56dd14610991578063e985e9c514610a38578063f2fde38b14610ab457610158565b80636352211e146105615780636c0360eb146105cf57806370a0823114610652578063715018a6146106aa578063839dc732146106b45780638da5cb5b1461076f57610158565b80632f745c59116101155780632f745c591461038d57806340c10f19146103ef57806342842e0e1461043d57806342966c68146104ab5780634f558e79146104d95780634f6ccce71461051f57610158565b806301ffc9a71461015d57806306fdde03146101c2578063081812fc14610245578063095ea7b3146102b357806318160ddd1461030157806323b872dd1461031f575b600080fd5b6101a86004803603602081101561017357600080fd5b8101908080357bffffffffffffffffffffffffffffffffffffffffffffffffffffffff19169060200190929190505050610af8565b604051808215151515815260200191505060405180910390f35b6101ca610b5f565b6040518080602001828103825283818151815260200191508051906020019080838360005b8381101561020a5780820151818401526020810190506101ef565b50505050905090810190601f1680156102375780820380516001836020036101000a031916815260200191505b509250505060405180910390f35b6102716004803603602081101561025b57600080fd5b8101908080359060200190929190505050610c01565b604051808273ffffffffffffffffffffffffffffffffffffffff1673ffffffffffffffffffffffffffffffffffffffff16815260200191505060405180910390f35b6102ff600480360360408110156102c957600080fd5b81019080803573ffffffffffffffffffffffffffffffffffffffff16906020019092919080359060200190929190505050610c9c565b005b610309610de0565b6040518082815260200191505060405180910390f35b61038b6004803603606081101561033557600080fd5b81019080803573ffffffffffffffffffffffffffffffffffffffff169060200190929190803573ffffffffffffffffffffffffffffffffffffffff16906020019092919080359060200190929190505050610df1565b005b6103d9600480360360408110156103a357600080fd5b81019080803573ffffffffffffffffffffffffffffffffffffffff16906020019092919080359060200190929190505050610e67565b6040518082815260200191505060405180910390f35b61043b6004803603604081101561040557600080fd5b81019080803573ffffffffffffffffffffffffffffffffffffffff16906020019092919080359060200190929190505050610ec2565b005b6104a96004803603606081101561045357600080fd5b81019080803573ffffffffffffffffffffffffffffffffffffffff169060200190929190803573ffffffffffffffffffffffffffffffffffffffff16906020019092919080359060200190929190505050610f9a565b005b6104d7600480360360208110156104c157600080fd5b8101908080359060200190929190505050610fba565b005b610505600480360360208110156104ef57600080fd5b8101908080359060200190929190505050611090565b604051808215151515815260200191505060405180910390f35b61054b6004803603602081101561053557600080fd5b81019080803590602001909291905050506110a2565b6040518082815260200191505060405180910390f35b61058d6004803603602081101561057757600080fd5b81019080803590602001909291905050506110c5565b604051808273ffffffffffffffffffffffffffffffffffffffff1673ffffffffffffffffffffffffffffffffffffffff16815260200191505060405180910390f35b6105d76110fc565b6040518080602001828103825283818151815260200191508051906020019080838360005b838110156106175780820151818401526020810190506105fc565b50505050905090810190601f1680156106445780820380516001836020036101000a031916815260200191505b509250505060405180910390f35b6106946004803603602081101561066857600080fd5b81019080803573ffffffffffffffffffffffffffffffffffffffff16906020019092919050505061119e565b6040518082815260200191505060405180910390f35b6106b2611273565b005b61076d600480360360208110156106ca57600080fd5b81019080803590602001906401000000008111156106e757600080fd5b8201836020820111156106f957600080fd5b8035906020019184600183028401116401000000008311171561071b57600080fd5b91908080601f016020809104026020016040519081016040528093929190818152602001838380828437600081840152601f19601f8201169050808301925050505050505091929192905050506113fe565b005b6107776114d4565b604051808273ffffffffffffffffffffffffffffffffffffffff1673ffffffffffffffffffffffffffffffffffffffff16815260200191505060405180910390f35b6107c16114fe565b6040518080602001828103825283818151815260200191508051906020019080838360005b838110156108015780820151818401526020810190506107e6565b50505050905090810190601f16801561082e5780820380516001836020036101000a031916815260200191505b509250505060405180910390f35b61088a6004803603604081101561085257600080fd5b81019080803573ffffffffffffffffffffffffffffffffffffffff1690602001909291908035151590602001909291905050506115a0565b005b61098f600480360360808110156108a257600080fd5b81019080803573ffffffffffffffffffffffffffffffffffffffff169060200190929190803573ffffffffffffffffffffffffffffffffffffffff169060200190929190803590602001909291908035906020019064010000000081111561090957600080fd5b82018360208201111561091b57600080fd5b8035906020019184600183028401116401000000008311171561093d57600080fd5b91908080601f016020809104026020016040519081016040528093929190818152602001838380828437600081840152601f19601f820116905080830192505050505050509192919290505050611758565b005b6109bd600480360360208110156109a757600080fd5b81019080803590602001909291905050506117d0565b6040518080602001828103825283818151815260200191508051906020019080838360005b838110156109fd5780820151818401526020810190506109e2565b50505050905090810190601f168015610a2a5780820380516001836020036101000a031916815260200191505b509250505060405180910390f35b610a9a60048036036040811015610a4e57600080fd5b81019080803573ffffffffffffffffffffffffffffffffffffffff169060200190929190803573ffffffffffffffffffffffffffffffffffffffff169060200190929190505050611ab9565b604051808215151515815260200191505060405180910390f35b610af660048036036020811015610aca57600080fd5b81019080803573ffffffffffffffffffffffffffffffffffffffff169060200190929190505050611b4d565b005b6000806000837bffffffffffffffffffffffffffffffffffffffffffffffffffffffff19167bffffffffffffffffffffffffffffffffffffffffffffffffffffffff1916815260200190815260200160002060009054906101000a900460ff169050919050565b606060068054600181600116156101000203166002900480601f016020809104026020016040519081016040528092919081815260200182805460018160011615610100020316600290048015610bf75780601f10610bcc57610100808354040283529160200191610bf7565b820191906000526020600020905b815481529060010190602001808311610bda57829003601f168201915b5050505050905090565b6000610c0c82611ea4565b610c61576040517f08c379a000000000000000000000000000000000000000000000000000000000815260040180806020018281038252602c8152602001806135d3602c913960400191505060405180910390fd5b6004600083815260200190815260200160002060009054906101000a900473ffffffffffffffffffffffffffffffffffffffff169050919050565b6000610ca7826110c5565b90508073ffffffffffffffffffffffffffffffffffffffff168373ffffffffffffffffffffffffffffffffffffffff161415610d2e576040517f08c379a00000000000000000000000000000000000000000000000000000000081526004018080602001828103825260218152602001806136576021913960400191505060405180910390fd5b8073ffffffffffffffffffffffffffffffffffffffff16610d4d611ec1565b73ffffffffffffffffffffffffffffffffffffffff161480610d7c5750610d7b81610d76611ec1565b611ab9565b5b610dd1576040517f08c379a00000000000000000000000000000000000000000000000000000000081526004018080602001828103825260388152602001806135266038913960400191505060405180910390fd5b610ddb8383611ec9565b505050565b6000610dec6002611f82565b905090565b610e02610dfc611ec1565b82611f97565b610e57576040517f08c379a00000000000000000000000000000000000000000000000000000000081526004018080602001828103825260318152602001806136786031913960400191505060405180910390fd5b610e6283838361208b565b505050565b6000610eba82600160008673ffffffffffffffffffffffffffffffffffffffff1673ffffffffffffffffffffffffffffffffffffffff1681526020019081526020016000206122ce90919063ffffffff16565b905092915050565b610eca611ec1565b73ffffffffffffffffffffffffffffffffffffffff16600a60009054906101000a900473ffffffffffffffffffffffffffffffffffffffff1673ffffffffffffffffffffffffffffffffffffffff1614610f8c576040517f08c379a00000000000000000000000000000000000000000000000000000000081526004018080602001828103825260208152602001807f4f776e61626c653a2063616c6c6572206973206e6f7420746865206f776e657281525060200191505060405180910390fd5b610f9682826122e8565b5050565b610fb583838360405180602001604052806000815250611758565b505050565b610fc2611ec1565b73ffffffffffffffffffffffffffffffffffffffff16600a60009054906101000a900473ffffffffffffffffffffffffffffffffffffffff1673ffffffffffffffffffffffffffffffffffffffff1614611084576040517f08c379a00000000000000000000000000000000000000000000000000000000081526004018080602001828103825260208152602001807f4f776e61626c653a2063616c6c6572206973206e6f7420746865206f776e657281525060200191505060405180910390fd5b61108d816124dc565b50565b600061109b82611ea4565b9050919050565b6000806110b983600261261690919063ffffffff16565b50905080915050919050565b60006110f5826040518060600160405280602981526020016135886029913960026126459092919063ffffffff16565b9050919050565b606060098054600181600116156101000203166002900480601f0160208091040260200160405190810160405280929190818152602001828054600181600116156101000203166002900480156111945780601f1061116957610100808354040283529160200191611194565b820191906000526020600020905b81548152906001019060200180831161117757829003601f168201915b5050505050905090565b60008073ffffffffffffffffffffffffffffffffffffffff168273ffffffffffffffffffffffffffffffffffffffff161415611225576040517f08c379a000000000000000000000000000000000000000000000000000000000815260040180806020018281038252602a81526020018061355e602a913960400191505060405180910390fd5b61126c600160008473ffffffffffffffffffffffffffffffffffffffff1673ffffffffffffffffffffffffffffffffffffffff168152602001908152602001600020612664565b9050919050565b61127b611ec1565b73ffffffffffffffffffffffffffffffffffffffff16600a60009054906101000a900473ffffffffffffffffffffffffffffffffffffffff1673ffffffffffffffffffffffffffffffffffffffff161461133d576040517f08c379a00000000000000000000000000000000000000000000000000000000081526004018080602001828103825260208152602001807f4f776e61626c653a2063616c6c6572206973206e6f7420746865206f776e657281525060200191505060405180910390fd5b600073ffffffffffffffffffffffffffffffffffffffff16600a60009054906101000a900473ffffffffffffffffffffffffffffffffffffffff1673ffffffffffffffffffffffffffffffffffffffff167f8be0079c531659141344cd1fd0a4f28419497f9722a3daafe3b4186f6b6457e060405160405180910390a36000600a60006101000a81548173ffffffffffffffffffffffffffffffffffffffff021916908373ffffffffffffffffffffffffffffffffffffffff160217905550565b611406611ec1565b73ffffffffffffffffffffffffffffffffffffffff16600a60009054906101000a900473ffffffffffffffffffffffffffffffffffffffff1673ffffffffffffffffffffffffffffffffffffffff16146114c8576040517f08c379a00000000000000000000000000000000000000000000000000000000081526004018080602001828103825260208152602001807f4f776e61626c653a2063616c6c6572206973206e6f7420746865206f776e657281525060200191505060405180910390fd5b6114d181612679565b50565b6000600a60009054906101000a900473ffffffffffffffffffffffffffffffffffffffff16905090565b606060078054600181600116156101000203166002900480601f0160208091040260200160405190810160405280929190818152602001828054600181600116156101000203166002900480156115965780601f1061156b57610100808354040283529160200191611596565b820191906000526020600020905b81548152906001019060200180831161157957829003601f168201915b5050505050905090565b6115a8611ec1565b73ffffffffffffffffffffffffffffffffffffffff168273ffffffffffffffffffffffffffffffffffffffff161415611649576040517f08c379a00000000000000000000000000000000000000000000000000000000081526004018080602001828103825260198152602001807f4552433732313a20617070726f766520746f2063616c6c65720000000000000081525060200191505060405180910390fd5b8060056000611656611ec1565b73ffffffffffffffffffffffffffffffffffffffff1673ffffffffffffffffffffffffffffffffffffffff16815260200190815260200160002060008473ffffffffffffffffffffffffffffffffffffffff1673ffffffffffffffffffffffffffffffffffffffff16815260200190815260200160002060006101000a81548160ff0219169083151502179055508173ffffffffffffffffffffffffffffffffffffffff16611703611ec1565b73ffffffffffffffffffffffffffffffffffffffff167f17307eab39ab6107e8899845ad3d59bd9653f200f220920489ca2b5937696c3183604051808215151515815260200191505060405180910390a35050565b611769611763611ec1565b83611f97565b6117be576040517f08c379a00000000000000000000000000000000000000000000000000000000081526004018080602001828103825260318152602001806136786031913960400191505060405180910390fd5b6117ca848484846127cb565b50505050565b60606117db82611ea4565b611830576040517f08c379a000000000000000000000000000000000000000000000000000000000815260040180806020018281038252602f815260200180613628602f913960400191505060405180910390fd5b6060600860008481526020019081526020016000208054600181600116156101000203166002900480601f0160208091040260200160405190810160405280929190818152602001828054600181600116156101000203166002900480156118d95780601f106118ae576101008083540402835291602001916118d9565b820191906000526020600020905b8154815290600101906020018083116118bc57829003601f168201915b505050505090506000600980546001816001161561010002031660029004905014156119085780915050611ab4565b6000815111156119e15760098160405160200180838054600181600116156101000203166002900480156119735780601f10611951576101008083540402835291820191611973565b820191906000526020600020905b81548152906001019060200180831161195f575b505082805190602001908083835b602083106119a45780518252602082019150602081019050602083039250611981565b6001836020036101000a03801982511681845116808217855250505050505090500192505050604051602081830303815290604052915050611ab4565b60096119ec84611d5d565b6040516020018083805460018160011615610100020316600290048015611a4a5780601f10611a28576101008083540402835291820191611a4a565b820191906000526020600020905b815481529060010190602001808311611a36575b505082805190602001908083835b60208310611a7b5780518252602082019150602081019050602083039250611a58565b6001836020036101000a038019825116818451168082178552505050505050905001925050506040516020818303038152906040529150505b919050565b6000600560008473ffffffffffffffffffffffffffffffffffffffff1673ffffffffffffffffffffffffffffffffffffffff16815260200190815260200160002060008373ffffffffffffffffffffffffffffffffffffffff1673ffffffffffffffffffffffffffffffffffffffff16815260200190815260200160002060009054906101000a900460ff16905092915050565b611b55611ec1565b73ffffffffffffffffffffffffffffffffffffffff16600a60009054906101000a900473ffffffffffffffffffffffffffffffffffffffff1673ffffffffffffffffffffffffffffffffffffffff1614611c17576040517f08c379a00000000000000000000000000000000000000000000000000000000081526004018080602001828103825260208152602001807f4f776e61626c653a2063616c6c6572206973206e6f7420746865206f776e657281525060200191505060405180910390fd5b600073ffffffffffffffffffffffffffffffffffffffff168173ffffffffffffffffffffffffffffffffffffffff161415611c9d576040517f08c379a00000000000000000000000000000000000000000000000000000000081526004018080602001828103825260268152602001806134b06026913960400191505060405180910390fd5b8073ffffffffffffffffffffffffffffffffffffffff16600a60009054906101000a900473ffffffffffffffffffffffffffffffffffffffff1673ffffffffffffffffffffffffffffffffffffffff167f8be0079c531659141344cd1fd0a4f28419497f9722a3daafe3b4186f6b6457e060405160405180910390a380600a60006101000a81548173ffffffffffffffffffffffffffffffffffffffff021916908373ffffffffffffffffffffffffffffffffffffffff16021790555050565b60606000821415611da5576040518060400160405280600181526020017f30000000000000000000000000000000000000000000000000000000000000008152509050611e9f565b600082905060005b60008214611dcf578080600101915050600a8281611dc757fe5b049150611dad565b60608167ffffffffffffffff81118015611de857600080fd5b506040519080825280601f01601f191660200182016040528015611e1b5781602001600182028036833780820191505090505b50905060006001830390508593505b60008414611e9757600a8481611e3c57fe5b0660300160f81b82828060019003935081518110611e5657fe5b60200101907effffffffffffffffffffffffffffffffffffffffffffffffffffffffffffff1916908160001a905350600a8481611e8f57fe5b049350611e2a565b819450505050505b919050565b6000611eba82600261283d90919063ffffffff16565b9050919050565b600033905090565b816004600083815260200190815260200160002060006101000a81548173ffffffffffffffffffffffffffffffffffffffff021916908373ffffffffffffffffffffffffffffffffffffffff160217905550808273ffffffffffffffffffffffffffffffffffffffff16611f3c836110c5565b73ffffffffffffffffffffffffffffffffffffffff167f8c5be1e5ebec7d5bd14f71427d1e84f3dd0314c0f7b2291e5b200ac8c7c3b92560405160405180910390a45050565b6000611f9082600001612857565b9050919050565b6000611fa282611ea4565b611ff7576040517f08c379a000000000000000000000000000000000000000000000000000000000815260040180806020018281038252602c8152602001806134fa602c913960400191505060405180910390fd5b6000612002836110c5565b90508073ffffffffffffffffffffffffffffffffffffffff168473ffffffffffffffffffffffffffffffffffffffff16148061207157508373ffffffffffffffffffffffffffffffffffffffff1661205984610c01565b73ffffffffffffffffffffffffffffffffffffffff16145b8061208257506120818185611ab9565b5b91505092915050565b8273ffffffffffffffffffffffffffffffffffffffff166120ab826110c5565b73ffffffffffffffffffffffffffffffffffffffff1614612117576040517f08c379a00000000000000000000000000000000000000000000000000000000081526004018080602001828103825260298152602001806135ff6029913960400191505060405180910390fd5b600073ffffffffffffffffffffffffffffffffffffffff168273ffffffffffffffffffffffffffffffffffffffff16141561219d576040517f08c379a00000000000000000000000000000000000000000000000000000000081526004018080602001828103825260248152602001806134d66024913960400191505060405180910390fd5b6121a8838383612868565b6121b3600082611ec9565b61220481600160008673ffffffffffffffffffffffffffffffffffffffff1673ffffffffffffffffffffffffffffffffffffffff16815260200190815260200160002061286d90919063ffffffff16565b5061225681600160008573ffffffffffffffffffffffffffffffffffffffff1673ffffffffffffffffffffffffffffffffffffffff16815260200190815260200160002061288790919063ffffffff16565b5061226d818360026128a19092919063ffffffff16565b50808273ffffffffffffffffffffffffffffffffffffffff168473ffffffffffffffffffffffffffffffffffffffff167fddf252ad1be2c89b69c2b068fc378daa952ba7f163c4a11628f55a4df523b3ef60405160405180910390a4505050565b60006122dd83600001836128d6565b60001c905092915050565b600073ffffffffffffffffffffffffffffffffffffffff168273ffffffffffffffffffffffffffffffffffffffff16141561238b576040517f08c379a00000000000000000000000000000000000000000000000000000000081526004018080602001828103825260208152602001807f4552433732313a206d696e7420746f20746865207a65726f206164647265737381525060200191505060405180910390fd5b61239481611ea4565b15612407576040517f08c379a000000000000000000000000000000000000000000000000000000000815260040180806020018281038252601c8152602001807f4552433732313a20746f6b656e20616c7265616479206d696e7465640000000081525060200191505060405180910390fd5b61241360008383612868565b61246481600160008573ffffffffffffffffffffffffffffffffffffffff1673ffffffffffffffffffffffffffffffffffffffff16815260200190815260200160002061288790919063ffffffff16565b5061247b818360026128a19092919063ffffffff16565b50808273ffffffffffffffffffffffffffffffffffffffff16600073ffffffffffffffffffffffffffffffffffffffff167fddf252ad1be2c89b69c2b068fc378daa952ba7f163c4a11628f55a4df523b3ef60405160405180910390a45050565b60006124e7826110c5565b90506124f581600084612868565b612500600083611ec9565b6000600860008481526020019081526020016000208054600181600116156101000203166002900490501461254f5760086000838152602001908152602001600020600061254e919061336e565b5b6125a082600160008473ffffffffffffffffffffffffffffffffffffffff1673ffffffffffffffffffffffffffffffffffffffff16815260200190815260200160002061286d90919063ffffffff16565b506125b582600261295990919063ffffffff16565b5081600073ffffffffffffffffffffffffffffffffffffffff168273ffffffffffffffffffffffffffffffffffffffff167fddf252ad1be2c89b69c2b068fc378daa952ba7f163c4a11628f55a4df523b3ef60405160405180910390a45050565b6000806000806126298660000186612973565b915091508160001c8160001c8090509350935050509250929050565b6000612658846000018460001b84612a0c565b60001c90509392505050565b600061267282600001612b02565b9050919050565b60008090504690506127c78261268e83611d5d565b60405160200180807f68747470733a2f2f00000000000000000000000000000000000000000000000081525060080183805190602001908083835b602083106126ec57805182526020820191506020810190506020830392506126c9565b6001836020036101000a038019825116818451168082178552505050505050905001807f2f7672652f76312f636861696e2f000000000000000000000000000000000000815250600e0182805190602001908083835b602083106127655780518252602082019150602081019050602083039250612742565b6001836020036101000a038019825116818451168082178552505050505050905001807f2f746f6b656e2f0000000000000000000000000000000000000000000000000081525060070192505050604051602081830303815290604052612b13565b5050565b6127d684848461208b565b6127e284848484612b2d565b612837576040517f08c379a000000000000000000000000000000000000000000000000000000000815260040180806020018281038252603281526020018061347e6032913960400191505060405180910390fd5b50505050565b600061284f836000018360001b612d72565b905092915050565b600081600001805490509050919050565b505050565b600061287f836000018360001b612d95565b905092915050565b6000612899836000018360001b612e7d565b905092915050565b60006128cd846000018460001b8473ffffffffffffffffffffffffffffffffffffffff1660001b612eed565b90509392505050565b600081836000018054905011612937576040517f08c379a000000000000000000000000000000000000000000000000000000000815260040180806020018281038252602281526020018061345c6022913960400191505060405180910390fd5b82600001828154811061294657fe5b9060005260206000200154905092915050565b600061296b836000018360001b612fc9565b905092915050565b600080828460000180549050116129d5576040517f08c379a00000000000000000000000000000000000000000000000000000000081526004018080602001828103825260228152602001806135b16022913960400191505060405180910390fd5b60008460000184815481106129e657fe5b906000526020600020906002020190508060000154816001015492509250509250929050565b60008084600101600085815260200190815260200160002054905060008114158390612ad3576040517f08c379a00000000000000000000000000000000000000000000000000000000081526004018080602001828103825283818151815260200191508051906020019080838360005b83811015612a98578082015181840152602081019050612a7d565b50505050905090810190601f168015612ac55780820380516001836020036101000a031916815260200191505b509250505060405180910390fd5b50846000016001820381548110612ae657fe5b9060005260206000209060020201600101549150509392505050565b600081600001805490509050919050565b8060099080519060200190612b299291906133b6565b5050565b6000612b4e8473ffffffffffffffffffffffffffffffffffffffff166130e2565b612b5b5760019050612d6a565b6060612cf163150b7a0260e01b612b70611ec1565b888787604051602401808573ffffffffffffffffffffffffffffffffffffffff1673ffffffffffffffffffffffffffffffffffffffff1681526020018473ffffffffffffffffffffffffffffffffffffffff1673ffffffffffffffffffffffffffffffffffffffff16815260200183815260200180602001828103825283818151815260200191508051906020019080838360005b83811015612c20578082015181840152602081019050612c05565b50505050905090810190601f168015612c4d5780820380516001836020036101000a031916815260200191505b5095505050505050604051602081830303815290604052907bffffffffffffffffffffffffffffffffffffffffffffffffffffffff19166020820180517bffffffffffffffffffffffffffffffffffffffffffffffffffffffff838183161783525050505060405180606001604052806032815260200161347e603291398773ffffffffffffffffffffffffffffffffffffffff1661312d9092919063ffffffff16565b90506000818060200190516020811015612d0a57600080fd5b8101908080519060200190929190505050905063150b7a0260e01b7bffffffffffffffffffffffffffffffffffffffffffffffffffffffff1916817bffffffffffffffffffffffffffffffffffffffffffffffffffffffff191614925050505b949350505050565b600080836001016000848152602001908152602001600020541415905092915050565b60008083600101600084815260200190815260200160002054905060008114612e715760006001820390506000600186600001805490500390506000866000018281548110612de057fe5b9060005260206000200154905080876000018481548110612dfd57fe5b9060005260206000200181905550600183018760010160008381526020019081526020016000208190555086600001805480612e3557fe5b60019003818190600052602060002001600090559055866001016000878152602001908152602001600020600090556001945050505050612e77565b60009150505b92915050565b6000612e898383613145565b612ee2578260000182908060018154018082558091505060019003906000526020600020016000909190919091505582600001805490508360010160008481526020019081526020016000208190555060019050612ee7565b600090505b92915050565b6000808460010160008581526020019081526020016000205490506000811415612f9457846000016040518060400160405280868152602001858152509080600181540180825580915050600190039060005260206000209060020201600090919091909150600082015181600001556020820151816001015550508460000180549050856001016000868152602001908152602001600020819055506001915050612fc2565b82856000016001830381548110612fa757fe5b90600052602060002090600202016001018190555060009150505b9392505050565b600080836001016000848152602001908152602001600020549050600081146130d6576000600182039050600060018660000180549050039050600086600001828154811061301457fe5b906000526020600020906002020190508087600001848154811061303457fe5b906000526020600020906002020160008201548160000155600182015481600101559050506001830187600101600083600001548152602001908152602001600020819055508660000180548061308757fe5b60019003818190600052602060002090600202016000808201600090556001820160009055505090558660010160008781526020019081526020016000206000905560019450505050506130dc565b60009150505b92915050565b60008060007fc5d2460186f7233c927e7db2dcc703c0e500b653ca82273b7bfad8045d85a47060001b9050833f915080821415801561312457506000801b8214155b92505050919050565b606061313c8484600085613168565b90509392505050565b600080836001016000848152602001908152602001600020541415905092915050565b6060613173856130e2565b6131e5576040517f08c379a000000000000000000000000000000000000000000000000000000000815260040180806020018281038252601d8152602001807f416464726573733a2063616c6c20746f206e6f6e2d636f6e747261637400000081525060200191505060405180910390fd5b600060608673ffffffffffffffffffffffffffffffffffffffff1685876040518082805190602001908083835b602083106132355780518252602082019150602081019050602083039250613212565b6001836020036101000a03801982511681845116808217855250505050505090500191505060006040518083038185875af1925050503d8060008114613297576040519150601f19603f3d011682016040523d82523d6000602084013e61329c565b606091505b509150915081156132b1578092505050613366565b6000815111156132c45780518082602001fd5b836040517f08c379a00000000000000000000000000000000000000000000000000000000081526004018080602001828103825283818151815260200191508051906020019080838360005b8381101561332b578082015181840152602081019050613310565b50505050905090810190601f1680156133585780820380516001836020036101000a031916815260200191505b509250505060405180910390fd5b949350505050565b50805460018160011615610100020316600290046000825580601f1061339457506133b3565b601f0160209004906000526020600020908101906133b29190613436565b5b50565b828054600181600116156101000203166002900490600052602060002090601f016020900481019282601f106133f757805160ff1916838001178555613425565b82800160010185558215613425579182015b82811115613424578251825591602001919060010190613409565b5b5090506134329190613436565b5090565b61345891905b8082111561345457600081600090555060010161343c565b5090565b9056fe456e756d657261626c655365743a20696e646578206f7574206f6620626f756e64734552433732313a207472616e7366657220746f206e6f6e20455243373231526563656976657220696d706c656d656e7465724f776e61626c653a206e6577206f776e657220697320746865207a65726f20616464726573734552433732313a207472616e7366657220746f20746865207a65726f20616464726573734552433732313a206f70657261746f7220717565727920666f72206e6f6e6578697374656e7420746f6b656e4552433732313a20617070726f76652063616c6c6572206973206e6f74206f776e6572206e6f7220617070726f76656420666f7220616c6c4552433732313a2062616c616e636520717565727920666f7220746865207a65726f20616464726573734552433732313a206f776e657220717565727920666f72206e6f6e6578697374656e7420746f6b656e456e756d657261626c654d61703a20696e646578206f7574206f6620626f756e64734552433732313a20617070726f76656420717565727920666f72206e6f6e6578697374656e7420746f6b656e4552433732313a207472616e73666572206f6620746f6b656e2074686174206973206e6f74206f776e4552433732314d657461646174613a2055524920717565727920666f72206e6f6e6578697374656e7420746f6b656e4552433732313a20617070726f76616c20746f2063757272656e74206f776e65724552433732313a207472616e736665722063616c6c6572206973206e6f74206f776e6572206e6f7220617070726f766564a264697066735822122033bdd72e2da26816e47a72a01e3a35728fc86a2da1f8921f1a5ed3bddd645b4e64736f6c634300060a0033",
  "immutableReferences": {},
  "source": "pragma solidity ^0.6.10;\n\nimport \"openzeppelin-solidity/contracts/token/ERC721/ERC721.sol\";\n\nimport \"openzeppelin-solidity/contracts/access/Ownable.sol\";\n\nimport \"openzeppelin-solidity/contracts/utils/Strings.sol\";\n\n/**\n * The MacroverseRealEstate contract keeps track of who currently owns virtual\n * real estate in the Macroverse world, at all scales. It supersedes the\n * MacroverseStarRegistry. Registration and Macroverse-specific manipulation of\n * tokens is accomplished through the MacroverseUniversalRegistry, which owns\n * this contract.\n *\n * The split between this contract and the MacroverseUniversalRegistry exists\n * to keep contract size under the limit. \n */\ncontract MacroverseRealEstate is ERC721, Ownable {\n\n    \n    /**\n     * Deploy the backend, taking mint, burn, and set-user commands from the deployer.\n     * Use the given domain as the domain for token URIs.\n     */\n    constructor(string memory domain) public ERC721(\"Macroverse Real Estate\", \"MRE\") {\n        _setTokenMetadataDomain(domain);\n    }\n    \n    /**\n     * Allow this contract to change the ERC721 metadata URI domain.\n     */\n    function _setTokenMetadataDomain(string memory domain) internal {\n        // Set up new OpenZeppelin 3.0 automatic token URI system.\n        // Good thing we match their format or we'd have to fork OZ.\n        uint chainId = 0;\n        assembly {\n            chainId := chainid()\n        }\n        _setBaseURI(string(abi.encodePacked(\"https://\", domain, \"/vre/v1/chain/\", Strings.toString(chainId), \"/token/\")));\n    }\n    \n    /**\n     * Allow this the owner to change the ERC721 metadata URI domain.\n     */\n    function setTokenMetadataDomain(string memory domain) external onlyOwner {\n        _setTokenMetadataDomain(domain);\n    }\n\n    /**\n     * Mint tokens at the direction of the owning contract.\n     */\n    function mint(address to, uint256 tokenId) external onlyOwner {\n        _mint(to, tokenId);\n    }\n\n    /**\n     * Burn tokens at the direction of the owning contract.\n     */\n    function burn(uint256 tokenId) external onlyOwner {\n        _burn(tokenId);\n    }\n\n    /**\n     * Publically expose a token existence test. Returns true if the given\n     * token is owned by someone, and false otherwise. Note that tokens sent to\n     * 0x0 but not burned may still exist.\n     */\n    function exists(uint256 tokenId) external view returns (bool) {\n        return _exists(tokenId);\n    }\n}\n\n// This code is part of Macroverse and is licensed: UNLICENSED\n",
  "sourcePath": "/z/home/anovak/workspace/macroverse/contracts/MacroverseRealEstate.sol",
  "compiler": {
    "name": "solc",
    "version": "0.6.10+commit.00c0fcaf.Emscripten.clang"
  },
  "schemaVersion": "3.1.0",
  "updatedAt": "2020-09-04T05:38:56.749Z",
  "devdoc": {
    "methods": {
      "approve(address,uint256)": {
        "details": "See {IERC721-approve}."
      },
      "balanceOf(address)": {
        "details": "See {IERC721-balanceOf}."
      },
      "baseURI()": {
        "details": "Returns the base URI set via {_setBaseURI}. This will be automatically added as a prefix in {tokenURI} to each token's URI, or to the token ID if no specific URI is set for that token ID."
      },
      "getApproved(uint256)": {
        "details": "See {IERC721-getApproved}."
      },
      "isApprovedForAll(address,address)": {
        "details": "See {IERC721-isApprovedForAll}."
      },
      "name()": {
        "details": "See {IERC721Metadata-name}."
      },
      "owner()": {
        "details": "Returns the address of the current owner."
      },
      "ownerOf(uint256)": {
        "details": "See {IERC721-ownerOf}."
      },
      "renounceOwnership()": {
        "details": "Leaves the contract without owner. It will not be possible to call `onlyOwner` functions anymore. Can only be called by the current owner. NOTE: Renouncing ownership will leave the contract without an owner, thereby removing any functionality that is only available to the owner."
      },
      "safeTransferFrom(address,address,uint256)": {
        "details": "See {IERC721-safeTransferFrom}."
      },
      "safeTransferFrom(address,address,uint256,bytes)": {
        "details": "See {IERC721-safeTransferFrom}."
      },
      "setApprovalForAll(address,bool)": {
        "details": "See {IERC721-setApprovalForAll}."
      },
      "supportsInterface(bytes4)": {
        "details": "See {IERC165-supportsInterface}. Time complexity O(1), guaranteed to always use less than 30 000 gas."
      },
      "symbol()": {
        "details": "See {IERC721Metadata-symbol}."
      },
      "tokenByIndex(uint256)": {
        "details": "See {IERC721Enumerable-tokenByIndex}."
      },
      "tokenOfOwnerByIndex(address,uint256)": {
        "details": "See {IERC721Enumerable-tokenOfOwnerByIndex}."
      },
      "tokenURI(uint256)": {
        "details": "See {IERC721Metadata-tokenURI}."
      },
      "totalSupply()": {
        "details": "See {IERC721Enumerable-totalSupply}."
      },
      "transferFrom(address,address,uint256)": {
        "details": "See {IERC721-transferFrom}."
      },
      "transferOwnership(address)": {
        "details": "Transfers ownership of the contract to a new account (`newOwner`). Can only be called by the current owner."
      }
    }
  },
  "userdoc": {
    "methods": {
      "burn(uint256)": {
        "notice": "Burn tokens at the direction of the owning contract."
      },
      "constructor": "Deploy the backend, taking mint, burn, and set-user commands from the deployer. Use the given domain as the domain for token URIs.",
      "exists(uint256)": {
        "notice": "Publically expose a token existence test. Returns true if the given token is owned by someone, and false otherwise. Note that tokens sent to 0x0 but not burned may still exist."
      },
      "mint(address,uint256)": {
        "notice": "Mint tokens at the direction of the owning contract."
      },
      "setTokenMetadataDomain(string)": {
        "notice": "Allow this the owner to change the ERC721 metadata URI domain."
      }
    },
    "notice": "The MacroverseRealEstate contract keeps track of who currently owns virtual real estate in the Macroverse world, at all scales. It supersedes the MacroverseStarRegistry. Registration and Macroverse-specific manipulation of tokens is accomplished through the MacroverseUniversalRegistry, which owns this contract. The split between this contract and the MacroverseUniversalRegistry exists to keep contract size under the limit. "
  }
}