{
  "contractName": "MacroverseMoonGenerator",
  "abi": [
    {
      "inputs": [
        {
          "internalType": "address",
          "name": "accessControlAddress",
          "type": "address"
        }
      ],
      "stateMutability": "nonpayable",
      "type": "constructor"
    },
    {
      "anonymous": false,
      "inputs": [
        {
          "indexed": true,
          "internalType": "address",
          "name": "previousOwner",
          "type": "address"
        },
        {
          "indexed": true,
          "internalType": "address",
          "name": "newOwner",
          "type": "address"
        }
      ],
      "name": "OwnershipTransferred",
      "type": "event"
    },
    {
      "inputs": [
        {
          "internalType": "address",
          "name": "newAccessControl",
          "type": "address"
        }
      ],
      "name": "changeAccessControl",
      "outputs": [],
      "stateMutability": "nonpayable",
      "type": "function"
    },
    {
      "inputs": [],
      "name": "owner",
      "outputs": [
        {
          "internalType": "address",
          "name": "",
          "type": "address"
        }
      ],
      "stateMutability": "view",
      "type": "function",
      "constant": true
    },
    {
      "inputs": [],
      "name": "renounceOwnership",
      "outputs": [],
      "stateMutability": "nonpayable",
      "type": "function"
    },
    {
      "inputs": [
        {
          "internalType": "address",
          "name": "newOwner",
          "type": "address"
        }
      ],
      "name": "transferOwnership",
      "outputs": [],
      "stateMutability": "nonpayable",
      "type": "function"
    },
    {
      "inputs": [
        {
          "internalType": "bytes32",
          "name": "planetSeed",
          "type": "bytes32"
        },
        {
          "internalType": "enum Macroverse.WorldClass",
          "name": "class",
          "type": "uint8"
        }
      ],
      "name": "getPlanetMoonCount",
      "outputs": [
        {
          "internalType": "uint16",
          "name": "",
          "type": "uint16"
        }
      ],
      "stateMutability": "view",
      "type": "function",
      "constant": true
    },
    {
      "inputs": [
        {
          "internalType": "enum Macroverse.WorldClass",
          "name": "parent",
          "type": "uint8"
        },
        {
          "internalType": "bytes32",
          "name": "moonSeed",
          "type": "bytes32"
        },
        {
          "internalType": "uint16",
          "name": "moonNumber",
          "type": "uint16"
        }
      ],
      "name": "getMoonClass",
      "outputs": [
        {
          "internalType": "enum Macroverse.WorldClass",
          "name": "",
          "type": "uint8"
        }
      ],
      "stateMutability": "view",
      "type": "function",
      "constant": true
    },
    {
      "inputs": [
        {
          "internalType": "bytes32",
          "name": "planetSeed",
          "type": "bytes32"
        },
        {
          "internalType": "int128",
          "name": "planetRealMass",
          "type": "int128"
        }
      ],
      "name": "getPlanetMoonScale",
      "outputs": [
        {
          "internalType": "int128",
          "name": "",
          "type": "int128"
        }
      ],
      "stateMutability": "view",
      "type": "function",
      "constant": true
    },
    {
      "inputs": [
        {
          "internalType": "int128",
          "name": "planetMoonScale",
          "type": "int128"
        },
        {
          "internalType": "bytes32",
          "name": "seed",
          "type": "bytes32"
        },
        {
          "internalType": "enum Macroverse.WorldClass",
          "name": "class",
          "type": "uint8"
        },
        {
          "internalType": "int128",
          "name": "realPrevClearance",
          "type": "int128"
        }
      ],
      "name": "getMoonOrbitDimensions",
      "outputs": [
        {
          "internalType": "int128",
          "name": "realPeriapsis",
          "type": "int128"
        },
        {
          "internalType": "int128",
          "name": "realApoapsis",
          "type": "int128"
        },
        {
          "internalType": "int128",
          "name": "realClearance",
          "type": "int128"
        }
      ],
      "stateMutability": "view",
      "type": "function",
      "constant": true
    },
    {
      "inputs": [
        {
          "internalType": "bytes32",
          "name": "seed",
          "type": "bytes32"
        },
        {
          "internalType": "enum Macroverse.WorldClass",
          "name": "class",
          "type": "uint8"
        }
      ],
      "name": "getMoonInclination",
      "outputs": [
        {
          "internalType": "int128",
          "name": "real_inclination",
          "type": "int128"
        }
      ],
      "stateMutability": "view",
      "type": "function",
      "constant": true
    }
  ],
  "bytecode": "0x60806040523480156200001157600080fd5b506040516200315038038062003150833981810160405260208110156200003757600080fd5b81019080805190602001909291905050508060006200005b6200014260201b60201c565b9050806000806101000a81548173ffffffffffffffffffffffffffffffffffffffff021916908373ffffffffffffffffffffffffffffffffffffffff1602179055508073ffffffffffffffffffffffffffffffffffffffff16600073ffffffffffffffffffffffffffffffffffffffff167f8be0079c531659141344cd1fd0a4f28419497f9722a3daafe3b4186f6b6457e060405160405180910390a35080600160006101000a81548173ffffffffffffffffffffffffffffffffffffffff021916908373ffffffffffffffffffffffffffffffffffffffff16021790555050506200014a565b600033905090565b612ff6806200015a6000396000f3fe608060405234801561001057600080fd5b50600436106100935760003560e01c80637928f06d116100665780637928f06d146101d75780638da5cb5b1461022c5780639387730c14610276578063a1ea9333146102ba578063f2fde38b1461032557610093565b80632b0837b4146100985780633330fb51146100ef5780634062292314610144578063715018a6146101cd575b600080fd5b6100d1600480360360408110156100ae57600080fd5b8101908080359060200190929190803560ff169060200190929190505050610369565b604051808261ffff1661ffff16815260200191505060405180910390f35b6101286004803603604081101561010557600080fd5b81019080803590602001909291908035600f0b9060200190929190505050610656565b6040518082600f0b600f0b815260200191505060405180910390f35b6101976004803603608081101561015a57600080fd5b810190808035600f0b906020019092919080359060200190929190803560ff1690602001909291908035600f0b9060200190929190505050610d9c565b6040518084600f0b600f0b815260200183600f0b600f0b815260200182600f0b600f0b8152602001935050505060405180910390f35b6101d5611a81565b005b610210600480360360408110156101ed57600080fd5b8101908080359060200190929190803560ff169060200190929190505050611c09565b6040518082600f0b600f0b815260200191505060405180910390f35b610234612113565b604051808273ffffffffffffffffffffffffffffffffffffffff1673ffffffffffffffffffffffffffffffffffffffff16815260200191505060405180910390f35b6102b86004803603602081101561028c57600080fd5b81019080803573ffffffffffffffffffffffffffffffffffffffff16906020019092919050505061213c565b005b610301600480360360608110156102d057600080fd5b81019080803560ff16906020019092919080359060200190929190803561ffff169060200190929190505050612249565b6040518082600981111561031157fe5b60ff16815260200191505060405180910390f35b6103676004803603602081101561033b57600080fd5b81019080803573ffffffffffffffffffffffffffffffffffffffff1690602001909291905050506125a3565b005b6000600160009054906101000a900473ffffffffffffffffffffffffffffffffffffffff1673ffffffffffffffffffffffffffffffffffffffff16634af5fb0f33326040518363ffffffff1660e01b8152600401808373ffffffffffffffffffffffffffffffffffffffff1673ffffffffffffffffffffffffffffffffffffffff1681526020018273ffffffffffffffffffffffffffffffffffffffff1673ffffffffffffffffffffffffffffffffffffffff1681526020019250505060206040518083038186803b15801561043e57600080fd5b505afa158015610452573d6000803e3d6000fd5b505050506040513d602081101561046857600080fd5b810190808051906020019092919050505061048257600080fd5b600080600290506000600190506001600981111561049c57fe5b8560098111156104a857fe5b14806104ca5750600560098111156104bc57fe5b8560098111156104c857fe5b145b156104dc5760029250600290506105b7565b600260098111156104e957fe5b8560098111156104f557fe5b148061051757506006600981111561050957fe5b85600981111561051557fe5b145b1561052557600392506105b6565b6007600981111561053257fe5b85600981111561053e57fe5b1415610555576008925060029150600290506105b5565b6003600981111561056257fe5b85600981111561056e57fe5b1415610585576006925060039150600290506105b4565b60098081111561059157fe5b85600981111561059d57fe5b14156105af5760009350505050610650565b600080fd5b5b5b5b6105bf612f84565b6106156040518060400160405280600981526020017f6d6f6f6e636f756e74000000000000000000000000000000000000000000000081525060405180602001604052808a8152506127b090919063ffffffff16565b905060008260000b600a0b61063a858787600003866128e2909392919063ffffffff16565b60010b8161064457fe5b05905080955050505050505b92915050565b6000600160009054906101000a900473ffffffffffffffffffffffffffffffffffffffff1673ffffffffffffffffffffffffffffffffffffffff16634af5fb0f33326040518363ffffffff1660e01b8152600401808373ffffffffffffffffffffffffffffffffffffffff1673ffffffffffffffffffffffffffffffffffffffff1681526020018273ffffffffffffffffffffffffffffffffffffffff1673ffffffffffffffffffffffffffffffffffffffff1681526020019250505060206040518083038186803b15801561072b57600080fd5b505afa15801561073f573d6000803e3d6000fd5b505050506040513d602081101561075557600080fd5b810190808051906020019092919050505061076f57600080fd5b610777612f84565b6107cd6040518060400160405280600981526020017f6d6f6f6e7363616c6500000000000000000000000000000000000000000000008152506040518060200160405280878152506127b090919063ffffffff16565b9050600083600f0b73__RealMath______________________________63b697214690916e0143c0e7a8a2bd3025de76267000006040518363ffffffff1660e01b81526004018083600f0b600f0b815260200182600f0b600f0b81526020019250505060206040518083038186803b15801561084857600080fd5b505af415801561085c573d6000803e3d6000fd5b505050506040513d602081101561087257600080fd5b81019080805190602001909291905050509050600081600f0b73__RealMath______________________________6325f39a6390916503243f6a8886600f0b73__RealMath______________________________63b6972146909173__RealMath______________________________631dade0d4600460036040518363ffffffff1660e01b81526004018083600a0b815260200182600a0b81526020019250505060206040518083038186803b15801561092c57600080fd5b505af4158015610940573d6000803e3d6000fd5b505050506040513d602081101561095657600080fd5b81019080805190602001909291905050506040518363ffffffff1660e01b81526004018083600f0b600f0b815260200182600f0b600f0b81526020019250505060206040518083038186803b1580156109ae57600080fd5b505af41580156109c2573d6000803e3d6000fd5b505050506040513d60208110156109d857600080fd5b81019080805190602001909291905050506040518363ffffffff1660e01b81526004018083600f0b600f0b815260200182600f0b600f0b81526020019250505060206040518083038186803b158015610a3057600080fd5b505af4158015610a44573d6000803e3d6000fd5b505050506040513d6020811015610a5a57600080fd5b8101908080519060200190929190505050600f0b73__RealMath______________________________634672f555909173__RealMath______________________________631dade0d4600160036040518363ffffffff1660e01b81526004018083600a0b815260200182600a0b81526020019250505060206040518083038186803b158015610ae957600080fd5b505af4158015610afd573d6000803e3d6000fd5b505050506040513d6020811015610b1357600080fd5b81019080805190602001909291905050506040518363ffffffff1660e01b81526004018083600f0b600f0b815260200182600f0b600f0b81526020019250505060206040518083038186803b158015610b6b57600080fd5b505af4158015610b7f573d6000803e3d6000fd5b505050506040513d6020811015610b9557600080fd5b8101908080519060200190929190505050905080600f0b73__RealMath______________________________63b69721469091610d0f73__RealMath______________________________631dade0d4600560026040518363ffffffff1660e01b81526004018083600a0b815260200182600a0b81526020019250505060206040518083038186803b158015610c2a57600080fd5b505af4158015610c3e573d6000803e3d6000fd5b505050506040513d6020811015610c5457600080fd5b810190808051906020019092919050505073__RealMath______________________________631dade0d4600760026040518363ffffffff1660e01b81526004018083600a0b815260200182600a0b81526020019250505060206040518083038186803b158015610cc457600080fd5b505af4158015610cd8573d6000803e3d6000fd5b505050506040513d6020811015610cee57600080fd5b8101908080519060200190929190505050886129609092919063ffffffff16565b6040518363ffffffff1660e01b81526004018083600f0b600f0b815260200182600f0b600f0b81526020019250505060206040518083038186803b158015610d5657600080fd5b505af4158015610d6a573d6000803e3d6000fd5b505050506040513d6020811015610d8057600080fd5b8101908080519060200190929190505050935050505092915050565b6000806000600160009054906101000a900473ffffffffffffffffffffffffffffffffffffffff1673ffffffffffffffffffffffffffffffffffffffff16634af5fb0f33326040518363ffffffff1660e01b8152600401808373ffffffffffffffffffffffffffffffffffffffff1673ffffffffffffffffffffffffffffffffffffffff1681526020018273ffffffffffffffffffffffffffffffffffffffff1673ffffffffffffffffffffffffffffffffffffffff1681526020019250505060206040518083038186803b158015610e7457600080fd5b505afa158015610e88573d6000803e3d6000fd5b505050506040513d6020811015610e9e57600080fd5b8101908080519060200190929190505050610eb857600080fd5b610ec0612f84565b604051806020016040528088815250905060086009811115610ede57fe5b866009811115610eea57fe5b141561144a5787600f0b73__RealMath______________________________63b6972146909160016028600f0b6001600f0b6000821215610f2757fe5b901b600f0b901d6040518363ffffffff1660e01b81526004018083600f0b600f0b815260200182600f0b600f0b81526020019250505060206040518083038186803b158015610f7557600080fd5b505af4158015610f89573d6000803e3d6000fd5b505050506040513d6020811015610f9f57600080fd5b8101908080519060200190929190505050600f0b73__RealMath______________________________63b6972146909161106c6028600f0b6001600f0b6000821215610fe757fe5b901b6001600f0b6028600f0b6001600f0b600082121561100357fe5b901b600f0b600082121561101357fe5b901b61105d6040518060400160405280600981526020017f72696e6773746172740000000000000000000000000000000000000000000000815250886127b090919063ffffffff16565b6129609092919063ffffffff16565b6040518363ffffffff1660e01b81526004018083600f0b600f0b815260200182600f0b600f0b81526020019250505060206040518083038186803b1580156110b357600080fd5b505af41580156110c7573d6000803e3d6000fd5b505050506040513d60208110156110dd57600080fd5b81019080805190602001909291905050508501935083600f0b73__RealMath______________________________63b697214690916111b660016028600f0b6001600f0b600082121561112c57fe5b901b600f0b901d6001600f0b6028600f0b6001600f0b600082121561114d57fe5b901b600f0b600082121561115d57fe5b901b6111a76040518060400160405280600981526020017f72696e6777696474680000000000000000000000000000000000000000000000815250886127b090919063ffffffff16565b6129609092919063ffffffff16565b6040518363ffffffff1660e01b81526004018083600f0b600f0b815260200182600f0b600f0b81526020019250505060206040518083038186803b1580156111fd57600080fd5b505af4158015611211573d6000803e3d6000fd5b505050506040513d602081101561122757600080fd5b81019080805190602001909291905050508401925087600f0b73__RealMath______________________________63b6972146909160016028600f0b6001600f0b600082121561127357fe5b901b600f0b901d6040518363ffffffff1660e01b81526004018083600f0b600f0b815260200182600f0b600f0b81526020019250505060206040518083038186803b1580156112c157600080fd5b505af41580156112d5573d6000803e3d6000fd5b505050506040513d60208110156112eb57600080fd5b8101908080519060200190929190505050600f0b73__RealMath______________________________63b697214690916113bf60016028600f0b6001600f0b600082121561133557fe5b901b600f0b901d6001600f0b6028600f0b6001600f0b600082121561135657fe5b901b600f0b600082121561136657fe5b901b6113b06040518060400160405280600981526020017f72696e67636c6561720000000000000000000000000000000000000000000000815250886127b090919063ffffffff16565b6129609092919063ffffffff16565b6040518363ffffffff1660e01b81526004018083600f0b600f0b815260200182600f0b600f0b81526020019250505060206040518083038186803b15801561140657600080fd5b505af415801561141a573d6000803e3d6000fd5b505050506040513d602081101561143057600080fd5b810190808051906020019092919050505083019150611a76565b87600f0b73__RealMath______________________________63b697214690916114f960016028600f0b6001600f0b600082121561148457fe5b901b600f0b901d6028600f0b6001600f0b60008212156114a057fe5b901b6114ea6040518060400160405280600981526020017f7065726961707369730000000000000000000000000000000000000000000000815250886127b090919063ffffffff16565b6129609092919063ffffffff16565b6040518363ffffffff1660e01b81526004018083600f0b600f0b815260200182600f0b600f0b81526020019250505060206040518083038186803b15801561154057600080fd5b505af4158015611554573d6000803e3d6000fd5b505050506040513d602081101561156a57600080fd5b81019080805190602001909291905050508501935083600f0b73__RealMath______________________________63b697214690916116aa6028600f0b6001600f0b60008212156115b757fe5b901b73__RealMath______________________________631dade0d4607860646040518363ffffffff1660e01b81526004018083600a0b815260200182600a0b81526020019250505060206040518083038186803b15801561161857600080fd5b505af415801561162c573d6000803e3d6000fd5b505050506040513d602081101561164257600080fd5b810190808051906020019092919050505061169b6040518060400160405280600881526020017f61706f6170736973000000000000000000000000000000000000000000000000815250886127b090919063ffffffff16565b6129609092919063ffffffff16565b6040518363ffffffff1660e01b81526004018083600f0b600f0b815260200182600f0b600f0b81526020019250505060206040518083038186803b1580156116f157600080fd5b505af4158015611705573d6000803e3d6000fd5b505050506040513d602081101561171b57600080fd5b810190808051906020019092919050505092506000600981111561173b57fe5b86600981111561174757fe5b148061176957506004600981111561175b57fe5b86600981111561176757fe5b145b1561184357838303600f0b73__RealMath______________________________63b697214690916001600f0b6028600f0b6001600f0b60008212156117aa57fe5b901b600f0b60008212156117ba57fe5b901b6040518363ffffffff1660e01b81526004018083600f0b600f0b815260200182600f0b600f0b81526020019250505060206040518083038186803b15801561180357600080fd5b505af4158015611817573d6000803e3d6000fd5b505050506040513d602081101561182d57600080fd5b8101908080519060200190929190505050830192505b82600f0b73__RealMath______________________________63b697214690916119f173__RealMath______________________________631dade0d4606e60646040518363ffffffff1660e01b81526004018083600a0b815260200182600a0b81526020019250505060206040518083038186803b1580156118c557600080fd5b505af41580156118d9573d6000803e3d6000fd5b505050506040513d60208110156118ef57600080fd5b810190808051906020019092919050505073__RealMath______________________________631dade0d4608260646040518363ffffffff1660e01b81526004018083600a0b815260200182600a0b81526020019250505060206040518083038186803b15801561195f57600080fd5b505af4158015611973573d6000803e3d6000fd5b505050506040513d602081101561198957600080fd5b81019080805190602001909291905050506119e26040518060400160405280600981526020017f636c656172616e63650000000000000000000000000000000000000000000000815250886127b090919063ffffffff16565b6129609092919063ffffffff16565b6040518363ffffffff1660e01b81526004018083600f0b600f0b815260200182600f0b600f0b81526020019250505060206040518083038186803b158015611a3857600080fd5b505af4158015611a4c573d6000803e3d6000fd5b505050506040513d6020811015611a6257600080fd5b810190808051906020019092919050505091505b509450945094915050565b611a89612a1a565b73ffffffffffffffffffffffffffffffffffffffff166000809054906101000a900473ffffffffffffffffffffffffffffffffffffffff1673ffffffffffffffffffffffffffffffffffffffff1614611b4a576040517f08c379a00000000000000000000000000000000000000000000000000000000081526004018080602001828103825260208152602001807f4f776e61626c653a2063616c6c6572206973206e6f7420746865206f776e657281525060200191505060405180910390fd5b600073ffffffffffffffffffffffffffffffffffffffff166000809054906101000a900473ffffffffffffffffffffffffffffffffffffffff1673ffffffffffffffffffffffffffffffffffffffff167f8be0079c531659141344cd1fd0a4f28419497f9722a3daafe3b4186f6b6457e060405160405180910390a360008060006101000a81548173ffffffffffffffffffffffffffffffffffffffff021916908373ffffffffffffffffffffffffffffffffffffffff160217905550565b6000600160009054906101000a900473ffffffffffffffffffffffffffffffffffffffff1673ffffffffffffffffffffffffffffffffffffffff16634af5fb0f33326040518363ffffffff1660e01b8152600401808373ffffffffffffffffffffffffffffffffffffffff1673ffffffffffffffffffffffffffffffffffffffff1681526020018273ffffffffffffffffffffffffffffffffffffffff1673ffffffffffffffffffffffffffffffffffffffff1681526020019250505060206040518083038186803b158015611cde57600080fd5b505afa158015611cf2573d6000803e3d6000fd5b505050506040513d6020811015611d0857600080fd5b8101908080519060200190929190505050611d2257600080fd5b611d2a612f84565b611d806040518060400160405280600b81526020017f696e636c696e6174696f6e0000000000000000000000000000000000000000008152506040518060200160405280878152506127b090919063ffffffff16565b90506000806009811115611d9057fe5b846009811115611d9c57fe5b1480611dbe575060046009811115611db057fe5b846009811115611dbc57fe5b145b15611dcd576103529050611eb9565b60016009811115611dda57fe5b846009811115611de657fe5b1480611e08575060056009811115611dfa57fe5b846009811115611e0657fe5b145b15611e165760649050611eb8565b60026009811115611e2357fe5b846009811115611e2f57fe5b1480611e51575060066009811115611e4357fe5b846009811115611e4f57fe5b145b15611e5f5760509050611eb7565b60076009811115611e6c57fe5b846009811115611e7857fe5b1415611e875760329050611eb6565b60086009811115611e9457fe5b846009811115611ea057fe5b1415611eb05761015e9050611eb5565b600080fd5b5b5b5b5b611f5e600073__RealMath______________________________63f5a5d503846040518263ffffffff1660e01b81526004018082600a0b600a0b815260200191505060206040518083038186803b158015611f1357600080fd5b505af4158015611f27573d6000803e3d6000fd5b505050506040513d6020811015611f3d57600080fd5b8101908080519060200190929190505050846129609092919063ffffffff16565b600f0b73__RealMath______________________________6325f39a63909173__RealMath______________________________63f5a5d5036103e86040518263ffffffff1660e01b81526004018082600a0b815260200191505060206040518083038186803b158015611fd157600080fd5b505af4158015611fe5573d6000803e3d6000fd5b505050506040513d6020811015611ffb57600080fd5b81019080805190602001909291905050506040518363ffffffff1660e01b81526004018083600f0b600f0b815260200182600f0b600f0b81526020019250505060206040518083038186803b15801561205357600080fd5b505af4158015612067573d6000803e3d6000fd5b505050506040513d602081101561207d57600080fd5b81019080805190602001909291905050509250600a6120f36001606460006120e36040518060400160405280600a81526020017f726574726f677261646500000000000000000000000000000000000000000000815250886127b090919063ffffffff16565b6128e2909392919063ffffffff16565b60010b121561210857826503243f6a88860392505b829250505092915050565b60008060009054906101000a900473ffffffffffffffffffffffffffffffffffffffff16905090565b612144612a1a565b73ffffffffffffffffffffffffffffffffffffffff166000809054906101000a900473ffffffffffffffffffffffffffffffffffffffff1673ffffffffffffffffffffffffffffffffffffffff1614612205576040517f08c379a00000000000000000000000000000000000000000000000000000000081526004018080602001828103825260208152602001807f4f776e61626c653a2063616c6c6572206973206e6f7420746865206f776e657281525060200191505060405180910390fd5b80600160006101000a81548173ffffffffffffffffffffffffffffffffffffffff021916908373ffffffffffffffffffffffffffffffffffffffff16021790555050565b6000600160009054906101000a900473ffffffffffffffffffffffffffffffffffffffff1673ffffffffffffffffffffffffffffffffffffffff16634af5fb0f33326040518363ffffffff1660e01b8152600401808373ffffffffffffffffffffffffffffffffffffffff1673ffffffffffffffffffffffffffffffffffffffff1681526020018273ffffffffffffffffffffffffffffffffffffffff1673ffffffffffffffffffffffffffffffffffffffff1681526020019250505060206040518083038186803b15801561231e57600080fd5b505afa158015612332573d6000803e3d6000fd5b505050506040513d602081101561234857600080fd5b810190808051906020019092919050505061236257600080fd5b61236a612f84565b604051806020016040528085815250905060008361ffff161480156123f2575060146123ed6001606460006123dd6040518060400160405280600481526020017f72696e6700000000000000000000000000000000000000000000000000000000815250876127b090919063ffffffff16565b6128e2909392919063ffffffff16565b60010b125b1561240157600891505061259c565b6000601e6124666001606460006124566040518060400160405280600981526020017f63726f7373747970650000000000000000000000000000000000000000000000815250886127b090919063ffffffff16565b6128e2909392919063ffffffff16565b60010b1290506000600487600981111561247c57fe5b8161248357fe5b0490506000600488600981111561249657fe5b8161249d57fe5b069050600360098111156124ad57fe5b8860098111156124b957fe5b1480156124c35750825b156124d15780806001019150505b600060026125546002847fffffffffffffffffffffffffffffffffffffffffffffffffffffffffffffffff6125446040518060400160405280600481526020017f72616e6b000000000000000000000000000000000000000000000000000000008152508b6127b090919063ffffffff16565b6128e2909392919063ffffffff16565b60010b8161255e57fe5b0560010b905060008461257e576002600185018161257857fe5b06612580565b835b9050816004820201600981111561259357fe5b96505050505050505b9392505050565b6125ab612a1a565b73ffffffffffffffffffffffffffffffffffffffff166000809054906101000a900473ffffffffffffffffffffffffffffffffffffffff1673ffffffffffffffffffffffffffffffffffffffff161461266c576040517f08c379a00000000000000000000000000000000000000000000000000000000081526004018080602001828103825260208152602001807f4f776e61626c653a2063616c6c6572206973206e6f7420746865206f776e657281525060200191505060405180910390fd5b600073ffffffffffffffffffffffffffffffffffffffff168173ffffffffffffffffffffffffffffffffffffffff1614156126f2576040517f08c379a0000000000000000000000000000000000000000000000000000000008152600401808060200182810382526026815260200180612f9b6026913960400191505060405180910390fd5b8073ffffffffffffffffffffffffffffffffffffffff166000809054906101000a900473ffffffffffffffffffffffffffffffffffffffff1673ffffffffffffffffffffffffffffffffffffffff167f8be0079c531659141344cd1fd0a4f28419497f9722a3daafe3b4186f6b6457e060405160405180910390a3806000806101000a81548173ffffffffffffffffffffffffffffffffffffffff021916908373ffffffffffffffffffffffffffffffffffffffff16021790555050565b6127b8612f84565b604051806020016040528060028560000151856040516020018083815260200182805190602001908083835b6020831061280757805182526020820191506020810190506020830392506127e4565b6001836020036101000a038019825116818451168082178552505050505050905001925050506040516020818303038152906040526040518082805190602001908083835b6020831061286f578051825260208201915060208101905060208303925061284c565b6001836020036101000a038019825116818451168082178552505050505050905001915050602060405180830381855afa1580156128b1573d6000803e3d6000fd5b5050506040513d60208110156128c657600080fd5b8101908080519060200190929190505050815250905092915050565b600060018460000b141561290b578160000b6129038660018660000b612a22565b019050612958565b60008260000b905060008090505b8560000b8160000b121561295257612941612937888360000b612d18565b60018760006128e2565b820191508080600101915050612919565b50809150505b949350505050565b60008261296c85612dff565b600f0b73__RealMath______________________________63b697214690918686036040518363ffffffff1660e01b81526004018083600f0b600f0b815260200182600f0b600f0b81526020019250505060206040518083038186803b1580156129d557600080fd5b505af41580156129e9573d6000803e3d6000fd5b505050506040513d60208110156129ff57600080fd5b81019080805190602001909291905050500190509392505050565b600033905090565b600073__RealMath______________________________6315dbfe2873__RealMath______________________________63f5a5d503866040518263ffffffff1660e01b81526004018082600a0b600a0b815260200191505060206040518083038186803b158015612a9357600080fd5b505af4158015612aa7573d6000803e3d6000fd5b505050506040513d6020811015612abd57600080fd5b8101908080519060200190929190505050612ad787612dff565b600f0b73__RealMath______________________________63b6972146909173__RealMath______________________________63f5a5d5038a6040518263ffffffff1660e01b81526004018082600a0b600a0b815260200191505060206040518083038186803b158015612b4b57600080fd5b505af4158015612b5f573d6000803e3d6000fd5b505050506040513d6020811015612b7557600080fd5b810190808051906020019092919050505073__RealMath______________________________63f5a5d5038a6040518263ffffffff1660e01b81526004018082600a0b600a0b815260200191505060206040518083038186803b158015612bdb57600080fd5b505af4158015612bef573d6000803e3d6000fd5b505050506040513d6020811015612c0557600080fd5b8101908080519060200190929190505050036040518363ffffffff1660e01b81526004018083600f0b600f0b815260200182600f0b600f0b81526020019250505060206040518083038186803b158015612c5e57600080fd5b505af4158015612c72573d6000803e3d6000fd5b505050506040513d6020811015612c8857600080fd5b8101908080519060200190929190505050016040518263ffffffff1660e01b81526004018082600f0b600f0b815260200191505060206040518083038186803b158015612cd457600080fd5b505af4158015612ce8573d6000803e3d6000fd5b505050506040513d6020811015612cfe57600080fd5b810190808051906020019092919050505090509392505050565b612d20612f84565b6040518060200160405280600285600001518560405160200180838152602001828152602001925050506040516020818303038152906040526040518082805190602001908083835b60208310612d8c5780518252602082019150602081019050602083039250612d69565b6001836020036101000a038019825116818451168082178552505050505050905001915050602060405180830381855afa158015612dce573d6000803e3d6000fd5b5050506040513d6020811015612de357600080fd5b8101908080519060200190929190505050815250905092915050565b6000612e0a82612ea5565b600f0b73__RealMath______________________________6384f1bd4e90916040518263ffffffff1660e01b81526004018082600f0b600f0b815260200191505060206040518083038186803b158015612e6357600080fd5b505af4158015612e77573d6000803e3d6000fd5b505050506040513d6020811015612e8d57600080fd5b81019080805190602001909291905050509050919050565b6000612eb082612eba565b60001c9050919050565b600060028260000151604051602001808281526020019150506040516020818303038152906040526040518082805190602001908083835b60208310612f155780518252602082019150602081019050602083039250612ef2565b6001836020036101000a038019825116818451168082178552505050505050905001915050602060405180830381855afa158015612f57573d6000803e3d6000fd5b5050506040513d6020811015612f6c57600080fd5b81019080805190602001909291905050509050919050565b604051806020016040528060008019168152509056fe4f776e61626c653a206e6577206f776e657220697320746865207a65726f2061646472657373a2646970667358221220004ddb31f8f7b7b62a22b16301ad258b9ed54fd7b60fba5a497b1e478b94dcaa64736f6c634300060a0033",
  "immutableReferences": {},
  "source": "pragma solidity ^0.6.10;\n\nimport \"./RNG.sol\";\nimport \"./RealMath.sol\";\n\nimport \"./AccessControl.sol\";\nimport \"./ControlledAccess.sol\";\n\nimport \"./MacroverseStarGenerator.sol\";\nimport \"./MacroverseSystemGenerator.sol\";\nimport \"./Macroverse.sol\";\n\n/**\n * Represents a Macroverse generator for moons around planets.\n *\n * Not part of the system generator to keep it from going over the contract\n * size limit.\n *\n * Permission to call methods on this contract is regulated by a configurable\n * AccessControl contract. One such set of terms might be to require that the\n * account initiating a transaction have a certain minimum MRV token balance.\n *\n * The owner of this contract reserves the right to supersede it with a new\n * version, and to modify the terms for accessing this contract, at any time,\n * for any reason, and without notice. This includes the right to indefinitely\n * or permanently suspend or terminate access to this contract for any person,\n * account, or other contract, or for all persons, accounts, or other\n * contracts. The owner also reserves the right to not do any of the above.\n */\ncontract MacroverseMoonGenerator is ControlledAccess {\n    // TODO: RNG doesn't get linked against because we can't pass the struct to the library...\n    using RNG for *;\n    using RealMath for *;\n    // No SafeMath or it might confuse RealMath\n\n    /**@dev\n     * It is useful to have Pi around.\n     * We can't pull it in from the library.\n     */\n    int128 constant REAL_PI = 3454217652358;\n\n    /**@dev\n     * How many fractional bits are there?\n     */\n    int256 constant REAL_FBITS = 40;\n\n    /**@dev\n     * What's the first non-fractional bit\n     */\n    int128 constant REAL_ONE = int128(1) << int128(REAL_FBITS);\n    \n    /**@dev\n     * What's the last fractional bit?\n     */\n    int128 constant REAL_HALF = REAL_ONE >> 1;\n    \n    /**@dev\n     * What's two? Two is pretty useful.\n     */\n    int128 constant REAL_TWO = REAL_ONE << int128(1);\n\n    /**@dev\n     * For having moons, we need to be able to run the orbit calculations (all\n     * specified in solar masses for the central mass) on\n     * Earth-mass-denominated planet masses.\n     * See the \"Equivalent Planetary masses\" table at https://en.wikipedia.org/wiki/Astronomical_system_of_units\n     */\n    int256 constant EARTH_MASSES_PER_SOLAR_MASS = 332950;\n\n    /**@dev\n     * We define the number of earth masses per solar mass as a real, so we don't have to convert it always.\n     */\n    int128 constant REAL_EARTH_MASSES_PER_SOLAR_MASS = int128(EARTH_MASSES_PER_SOLAR_MASS) * REAL_ONE; \n\n    /**@dev\n     * We also keep a \"stowage factor\" for planetary material in m^3 per earth mass, at water density, for\n     * faking planetary radii during moon orbit calculations.\n     */\n    int128 constant REAL_M3_PER_EARTH = 6566501804087548000000000000000000; // 6.566501804087548E33 as an int, 5.97219E21 m^3/earth\n\n    /**\n     * Deploy a new copy of the MacroverseMoonGenerator.\n     */\n    constructor(address accessControlAddress) ControlledAccess(accessControlAddress) public {\n        // Nothing to do!\n    }\n\n    /**\n     * Get the number of moons a planet has, using its class. Will sometimes return 0; there is no hasMoons boolean flag to check.\n     * The seed of each moon is obtained from the MacroverseSystemGenerator.\n     */\n    function getPlanetMoonCount(bytes32 planetSeed, Macroverse.WorldClass class) public view onlyControlledAccess returns (uint16) {\n        // We will roll n of this kind of die and subtract n to get our moon count\n        int8 die;\n        int8 n = 2;\n        // We can also divide by this\n        int8 divisor = 1;\n\n        if (class == Macroverse.WorldClass.Lunar || class == Macroverse.WorldClass.Europan) {\n            die = 2;\n            divisor = 2;\n            // (2d2 - 2) / 2 = 25% chance of 1, 75% chance of 0\n        } else if (class == Macroverse.WorldClass.Terrestrial || class == Macroverse.WorldClass.Panthalassic) {\n            die = 3;\n            // 2d3-2: https://www.wolframalpha.com/input/?i=roll+2d3\n        } else if (class == Macroverse.WorldClass.Neptunian) {\n            die = 8;\n            n = 2;\n            divisor = 2;\n        } else if (class == Macroverse.WorldClass.Jovian) {\n            die = 6;\n            n = 3;\n            divisor = 2;\n        } else if (class == Macroverse.WorldClass.AsteroidBelt) {\n            // Just no moons here\n            return 0;\n        } else {\n            // Not real!\n            revert();\n        }\n        \n        RNG.RandNode memory node = RNG.RandNode(planetSeed).derive(\"mooncount\");\n\n        uint16 roll = uint16(node.d(n, die, -n) / int88(divisor));\n        \n        return roll;\n    }\n\n    /**\n     * Get the class of a moon, given the moon's seed and the class of its parent planet.\n     * The seed of each moon is obtained from the MacroverseSystemGenerator.\n     * The actual moon body properties (i.e. mass) are generated with the MacroverseSystemGenerator as if it were a planet.\n     */\n    function getMoonClass(Macroverse.WorldClass parent, bytes32 moonSeed, uint16 moonNumber) public view onlyControlledAccess\n        returns (Macroverse.WorldClass) {\n        \n        // We can have moons of smaller classes than us only.\n        // Classes are Asteroidal, Lunar, Terrestrial, Jovian, Cometary, Europan, Panthalassic, Neptunian, Ring, AsteroidBelt\n        // AsteroidBelts never have moons and never are moons.\n        // Asteroidal and Cometary planets only ever are moons.\n        // Moons of the same type (rocky or icy) should be more common than cross-type.\n        // Jovians can have Neptunian moons\n\n        RNG.RandNode memory moonNode = RNG.RandNode(moonSeed);\n\n        if (moonNumber == 0 && moonNode.derive(\"ring\").d(1, 100, 0) < 20) {\n            // This should be a ring\n            return Macroverse.WorldClass.Ring;\n        }\n\n        // Should we be of the opposite ice/rock type to our parent?\n        bool crossType = moonNode.derive(\"crosstype\").d(1, 100, 0) < 30;\n\n        // What type is our parent? 0=rock, 1=ice\n        uint parentType = uint(parent) / 4;\n\n        // What number is the parent in its type? 0=Asteroidal/Cometary, 3=Jovian/Neptunian\n        // The types happen to be arranged so this works.\n        uint rankInType = uint(parent) % 4;\n\n        if (parent == Macroverse.WorldClass.Jovian && crossType) {\n            // Say we can have the gas giant type (Neptunian)\n            rankInType++;\n        }\n\n        // Roll a lower rank. Bias upward by subtracting 1 instead of 2, so we more or less round up.\n        uint lowerRank = uint(moonNode.derive(\"rank\").d(2, int8(rankInType), -1) / 2);\n\n        // Determine the type of the moon (0=rock, 1=ice)\n        uint moonType = crossType ? parentType : (parentType + 1) % 2;\n\n        return Macroverse.WorldClass(moonType * 4 + lowerRank);\n\n    }\n\n    /**\n     * Use the mass of a planet to compute its moon scale distance in AU. This is sort of like the Roche limit and must be bigger than the planet's radius.\n     */\n    function getPlanetMoonScale(bytes32 planetSeed, int128 planetRealMass) public view onlyControlledAccess returns (int128) {\n        // We assume a fictional inverse density of 1 cm^3/g = 5.9721986E21 cubic meters per earth mass\n        // Then we take cube root of volume / (4/3 pi) to get the radius of such a body\n        // Then we derive the scale factor from a few times that.\n\n        RNG.RandNode memory node = RNG.RandNode(planetSeed).derive(\"moonscale\");\n\n        // Get the volume. We can definitely hold Jupiter's volume in m^3\n        int128 realVolume = planetRealMass.mul(REAL_M3_PER_EARTH);\n        \n        // Get the radius in meters\n        int128 realRadius = realVolume.div(REAL_PI.mul(RealMath.fraction(4, 3))).pow(RealMath.fraction(1, 3));\n\n        // Return some useful, randomized multiple of it.\n        return realRadius.mul(node.getRealBetween(RealMath.fraction(5, 2), RealMath.fraction(7, 2)));\n    }\n\n    /**\n     * Given the parent planet's scale radius, a moon's seed, the moon's class, and the previous moon's outer clearance (or 0), return the orbit shape of the moon.\n     * Other orbit properties come from the system generator.\n     */\n    function getMoonOrbitDimensions(int128 planetMoonScale, bytes32 seed, Macroverse.WorldClass class, int128 realPrevClearance)\n        public view onlyControlledAccess returns (int128 realPeriapsis, int128 realApoapsis, int128 realClearance) {\n\n        RNG.RandNode memory moonNode = RNG.RandNode(seed);\n\n        if (class == Macroverse.WorldClass.Ring) {\n            // Rings are special\n            realPeriapsis = realPrevClearance + planetMoonScale.mul(REAL_HALF).mul(moonNode.derive(\"ringstart\").getRealBetween(REAL_ONE, REAL_TWO));\n            realApoapsis = realPeriapsis + realPeriapsis.mul(moonNode.derive(\"ringwidth\").getRealBetween(REAL_HALF, REAL_TWO));\n            realClearance = realApoapsis + planetMoonScale.mul(REAL_HALF).mul(moonNode.derive(\"ringclear\").getRealBetween(REAL_HALF, REAL_TWO));\n        } else {\n            // Otherwise just roll some stuff\n            realPeriapsis = realPrevClearance + planetMoonScale.mul(moonNode.derive(\"periapsis\").getRealBetween(REAL_HALF, REAL_ONE));\n            realApoapsis = realPeriapsis.mul(moonNode.derive(\"apoapsis\").getRealBetween(REAL_ONE, RealMath.fraction(120, 100)));\n\n            if (class == Macroverse.WorldClass.Asteroidal || class == Macroverse.WorldClass.Cometary) {\n                // Captured tiny things should be more eccentric\n                realApoapsis = realApoapsis + (realApoapsis - realPeriapsis).mul(REAL_TWO);\n            }\n\n            realClearance = realApoapsis.mul(moonNode.derive(\"clearance\").getRealBetween(RealMath.fraction(110, 100), RealMath.fraction(130, 100)));\n        }\n    }\n\n    /**\n     * Get the inclination (angle from parent body's equatorial plane to orbital plane at the ascending node) for a moon.\n     * Inclination is always positive. If it were negative, the ascending node would really be the descending node.\n     * Result is a real in radians.\n     */ \n    function getMoonInclination(bytes32 seed, Macroverse.WorldClass class) public view onlyControlledAccess returns (int128 real_inclination) {\n        \n        RNG.RandNode memory node = RNG.RandNode(seed).derive(\"inclination\");\n\n        // Define maximum inclination in milliradians\n        // 175 milliradians = ~ 10 degrees\n        int88 maximum;\n        if (class == Macroverse.WorldClass.Asteroidal || class == Macroverse.WorldClass.Cometary) {\n            // Tiny captured things can be pretty free\n            maximum = 850;\n        } else if (class == Macroverse.WorldClass.Lunar || class == Macroverse.WorldClass.Europan) {\n            maximum = 100;\n        } else if (class == Macroverse.WorldClass.Terrestrial || class == Macroverse.WorldClass.Panthalassic) {\n            maximum = 80;\n        } else if (class == Macroverse.WorldClass.Neptunian) {\n            maximum = 50;\n        } else if (class == Macroverse.WorldClass.Ring) {\n            maximum = 350;\n        } else {\n            // Not real!\n            revert();\n        }\n        \n        // Compute the inclination\n        real_inclination = node.getRealBetween(0, RealMath.toReal(maximum)).div(RealMath.toReal(1000));\n\n        if (node.derive(\"retrograde\").d(1, 100, 0) < 10) {\n            // This moon ought to move retrograde (subtract inclination from pi instead of adding it to 0)\n            real_inclination = REAL_PI - real_inclination;\n        }\n\n        return real_inclination;  \n    }\n}\n\n// SPDX-License-Identifier: UNLICENSED\n",
  "sourcePath": "/z/home/anovak/workspace/macroverse/contracts/MacroverseMoonGenerator.sol",
  "compiler": {
    "name": "solc",
    "version": "0.6.10+commit.00c0fcaf.Emscripten.clang"
  },
  "schemaVersion": "3.1.0",
  "updatedAt": "2020-06-12T03:46:39.799Z",
  "networkType": "ethereum",
  "devdoc": {
    "methods": {
      "owner()": {
        "details": "Returns the address of the current owner."
      },
      "renounceOwnership()": {
        "details": "Leaves the contract without owner. It will not be possible to call `onlyOwner` functions anymore. Can only be called by the current owner. NOTE: Renouncing ownership will leave the contract without an owner, thereby removing any functionality that is only available to the owner."
      },
      "transferOwnership(address)": {
        "details": "Transfers ownership of the contract to a new account (`newOwner`). Can only be called by the current owner."
      }
    },
    "stateVariables": {
      "EARTH_MASSES_PER_SOLAR_MASS": {
        "details": "For having moons, we need to be able to run the orbit calculations (all specified in solar masses for the central mass) on Earth-mass-denominated planet masses. See the \"Equivalent Planetary masses\" table at https://en.wikipedia.org/wiki/Astronomical_system_of_units"
      },
      "REAL_EARTH_MASSES_PER_SOLAR_MASS": {
        "details": "We define the number of earth masses per solar mass as a real, so we don't have to convert it always."
      },
      "REAL_FBITS": {
        "details": "How many fractional bits are there?"
      },
      "REAL_HALF": {
        "details": "What's the last fractional bit?"
      },
      "REAL_M3_PER_EARTH": {
        "details": "We also keep a \"stowage factor\" for planetary material in m^3 per earth mass, at water density, for faking planetary radii during moon orbit calculations."
      },
      "REAL_ONE": {
        "details": "What's the first non-fractional bit"
      },
      "REAL_PI": {
        "details": "It is useful to have Pi around. We can't pull it in from the library."
      },
      "REAL_TWO": {
        "details": "What's two? Two is pretty useful."
      }
    }
  },
  "userdoc": {
    "methods": {
      "changeAccessControl(address)": {
        "notice": "Change the access control strategy of the prototype."
      },
      "constructor": "Deploy a new copy of the MacroverseMoonGenerator.",
      "getMoonClass(uint8,bytes32,uint16)": {
        "notice": "Get the class of a moon, given the moon's seed and the class of its parent planet. The seed of each moon is obtained from the MacroverseSystemGenerator. The actual moon body properties (i.e. mass) are generated with the MacroverseSystemGenerator as if it were a planet."
      },
      "getMoonInclination(bytes32,uint8)": {
        "notice": "Get the inclination (angle from parent body's equatorial plane to orbital plane at the ascending node) for a moon. Inclination is always positive. If it were negative, the ascending node would really be the descending node. Result is a real in radians."
      },
      "getMoonOrbitDimensions(int128,bytes32,uint8,int128)": {
        "notice": "Given the parent planet's scale radius, a moon's seed, the moon's class, and the previous moon's outer clearance (or 0), return the orbit shape of the moon. Other orbit properties come from the system generator."
      },
      "getPlanetMoonCount(bytes32,uint8)": {
        "notice": "Get the number of moons a planet has, using its class. Will sometimes return 0; there is no hasMoons boolean flag to check. The seed of each moon is obtained from the MacroverseSystemGenerator."
      },
      "getPlanetMoonScale(bytes32,int128)": {
        "notice": "Use the mass of a planet to compute its moon scale distance in AU. This is sort of like the Roche limit and must be bigger than the planet's radius."
      }
    },
    "notice": "Represents a Macroverse generator for moons around planets. Not part of the system generator to keep it from going over the contract size limit. Permission to call methods on this contract is regulated by a configurable AccessControl contract. One such set of terms might be to require that the account initiating a transaction have a certain minimum MRV token balance. The owner of this contract reserves the right to supersede it with a new version, and to modify the terms for accessing this contract, at any time, for any reason, and without notice. This includes the right to indefinitely or permanently suspend or terminate access to this contract for any person, account, or other contract, or for all persons, accounts, or other contracts. The owner also reserves the right to not do any of the above."
  }
}