{
  "contractName": "MacroverseUniversalRegistry",
  "abi": [
    {
      "constant": true,
      "inputs": [
        {
          "name": "interfaceId",
          "type": "bytes4"
        }
      ],
      "name": "supportsInterface",
      "outputs": [
        {
          "name": "",
          "type": "bool"
        }
      ],
      "payable": false,
      "stateMutability": "view",
      "type": "function"
    },
    {
      "constant": true,
      "inputs": [],
      "name": "name",
      "outputs": [
        {
          "name": "",
          "type": "string"
        }
      ],
      "payable": false,
      "stateMutability": "view",
      "type": "function"
    },
    {
      "constant": true,
      "inputs": [],
      "name": "expectedDepositBalance",
      "outputs": [
        {
          "name": "",
          "type": "uint256"
        }
      ],
      "payable": false,
      "stateMutability": "view",
      "type": "function"
    },
    {
      "constant": true,
      "inputs": [
        {
          "name": "tokenId",
          "type": "uint256"
        }
      ],
      "name": "getApproved",
      "outputs": [
        {
          "name": "",
          "type": "address"
        }
      ],
      "payable": false,
      "stateMutability": "view",
      "type": "function"
    },
    {
      "constant": false,
      "inputs": [
        {
          "name": "to",
          "type": "address"
        },
        {
          "name": "tokenId",
          "type": "uint256"
        }
      ],
      "name": "approve",
      "outputs": [],
      "payable": false,
      "stateMutability": "nonpayable",
      "type": "function"
    },
    {
      "constant": true,
      "inputs": [],
      "name": "totalSupply",
      "outputs": [
        {
          "name": "",
          "type": "uint256"
        }
      ],
      "payable": false,
      "stateMutability": "view",
      "type": "function"
    },
    {
      "constant": false,
      "inputs": [
        {
          "name": "from",
          "type": "address"
        },
        {
          "name": "to",
          "type": "address"
        },
        {
          "name": "tokenId",
          "type": "uint256"
        }
      ],
      "name": "transferFrom",
      "outputs": [],
      "payable": false,
      "stateMutability": "nonpayable",
      "type": "function"
    },
    {
      "constant": false,
      "inputs": [
        {
          "name": "contractAddr",
          "type": "address"
        }
      ],
      "name": "reclaimContract",
      "outputs": [],
      "payable": false,
      "stateMutability": "nonpayable",
      "type": "function"
    },
    {
      "constant": true,
      "inputs": [],
      "name": "minSystemDepositInAtomicUnits",
      "outputs": [
        {
          "name": "",
          "type": "uint256"
        }
      ],
      "payable": false,
      "stateMutability": "view",
      "type": "function"
    },
    {
      "constant": true,
      "inputs": [
        {
          "name": "owner",
          "type": "address"
        },
        {
          "name": "index",
          "type": "uint256"
        }
      ],
      "name": "tokenOfOwnerByIndex",
      "outputs": [
        {
          "name": "",
          "type": "uint256"
        }
      ],
      "payable": false,
      "stateMutability": "view",
      "type": "function"
    },
    {
      "constant": false,
      "inputs": [
        {
          "name": "from",
          "type": "address"
        },
        {
          "name": "to",
          "type": "address"
        },
        {
          "name": "tokenId",
          "type": "uint256"
        }
      ],
      "name": "safeTransferFrom",
      "outputs": [],
      "payable": false,
      "stateMutability": "nonpayable",
      "type": "function"
    },
    {
      "constant": true,
      "inputs": [
        {
          "name": "index",
          "type": "uint256"
        }
      ],
      "name": "tokenByIndex",
      "outputs": [
        {
          "name": "",
          "type": "uint256"
        }
      ],
      "payable": false,
      "stateMutability": "view",
      "type": "function"
    },
    {
      "constant": true,
      "inputs": [
        {
          "name": "tokenId",
          "type": "uint256"
        }
      ],
      "name": "ownerOf",
      "outputs": [
        {
          "name": "",
          "type": "address"
        }
      ],
      "payable": false,
      "stateMutability": "view",
      "type": "function"
    },
    {
      "constant": true,
      "inputs": [
        {
          "name": "owner",
          "type": "address"
        }
      ],
      "name": "balanceOf",
      "outputs": [
        {
          "name": "",
          "type": "uint256"
        }
      ],
      "payable": false,
      "stateMutability": "view",
      "type": "function"
    },
    {
      "constant": false,
      "inputs": [],
      "name": "renounceOwnership",
      "outputs": [],
      "payable": false,
      "stateMutability": "nonpayable",
      "type": "function"
    },
    {
      "constant": true,
      "inputs": [
        {
          "name": "",
          "type": "bytes32"
        }
      ],
      "name": "commitments",
      "outputs": [
        {
          "name": "hash",
          "type": "bytes32"
        },
        {
          "name": "deposit",
          "type": "uint256"
        },
        {
          "name": "creationTime",
          "type": "uint256"
        }
      ],
      "payable": false,
      "stateMutability": "view",
      "type": "function"
    },
    {
      "constant": true,
      "inputs": [],
      "name": "owner",
      "outputs": [
        {
          "name": "",
          "type": "address"
        }
      ],
      "payable": false,
      "stateMutability": "view",
      "type": "function"
    },
    {
      "constant": true,
      "inputs": [],
      "name": "isOwner",
      "outputs": [
        {
          "name": "",
          "type": "bool"
        }
      ],
      "payable": false,
      "stateMutability": "view",
      "type": "function"
    },
    {
      "constant": true,
      "inputs": [],
      "name": "symbol",
      "outputs": [
        {
          "name": "",
          "type": "string"
        }
      ],
      "payable": false,
      "stateMutability": "view",
      "type": "function"
    },
    {
      "constant": false,
      "inputs": [],
      "name": "reclaimEther",
      "outputs": [],
      "payable": false,
      "stateMutability": "nonpayable",
      "type": "function"
    },
    {
      "constant": false,
      "inputs": [
        {
          "name": "to",
          "type": "address"
        },
        {
          "name": "approved",
          "type": "bool"
        }
      ],
      "name": "setApprovalForAll",
      "outputs": [],
      "payable": false,
      "stateMutability": "nonpayable",
      "type": "function"
    },
    {
      "constant": false,
      "inputs": [
        {
          "name": "from",
          "type": "address"
        },
        {
          "name": "to",
          "type": "address"
        },
        {
          "name": "tokenId",
          "type": "uint256"
        },
        {
          "name": "_data",
          "type": "bytes"
        }
      ],
      "name": "safeTransferFrom",
      "outputs": [],
      "payable": false,
      "stateMutability": "nonpayable",
      "type": "function"
    },
    {
      "constant": true,
      "inputs": [
        {
          "name": "tokenId",
          "type": "uint256"
        }
      ],
      "name": "tokenURI",
      "outputs": [
        {
          "name": "",
          "type": "string"
        }
      ],
      "payable": false,
      "stateMutability": "view",
      "type": "function"
    },
    {
      "constant": true,
      "inputs": [],
      "name": "commitmentMinWait",
      "outputs": [
        {
          "name": "",
          "type": "uint256"
        }
      ],
      "payable": false,
      "stateMutability": "view",
      "type": "function"
    },
    {
      "constant": true,
      "inputs": [
        {
          "name": "owner",
          "type": "address"
        },
        {
          "name": "operator",
          "type": "address"
        }
      ],
      "name": "isApprovedForAll",
      "outputs": [
        {
          "name": "",
          "type": "bool"
        }
      ],
      "payable": false,
      "stateMutability": "view",
      "type": "function"
    },
    {
      "constant": false,
      "inputs": [
        {
          "name": "newOwner",
          "type": "address"
        }
      ],
      "name": "transferOwnership",
      "outputs": [],
      "payable": false,
      "stateMutability": "nonpayable",
      "type": "function"
    },
    {
      "inputs": [
        {
          "name": "existence_checker_address",
          "type": "address"
        },
        {
          "name": "deposit_token_address",
          "type": "address"
        },
        {
          "name": "initial_min_system_deposit_in_atomic_units",
          "type": "uint256"
        },
        {
          "name": "commitment_min_wait",
          "type": "uint256"
        }
      ],
      "payable": false,
      "stateMutability": "nonpayable",
      "type": "constructor"
    },
    {
      "payable": false,
      "stateMutability": "nonpayable",
      "type": "fallback"
    },
    {
      "anonymous": false,
      "inputs": [
        {
          "indexed": true,
          "name": "hash",
          "type": "bytes32"
        },
        {
          "indexed": true,
          "name": "owner",
          "type": "address"
        }
      ],
      "name": "Commit",
      "type": "event"
    },
    {
      "anonymous": false,
      "inputs": [
        {
          "indexed": true,
          "name": "hash",
          "type": "bytes32"
        },
        {
          "indexed": true,
          "name": "token",
          "type": "uint256"
        },
        {
          "indexed": true,
          "name": "owner",
          "type": "address"
        }
      ],
      "name": "Reveal",
      "type": "event"
    },
    {
      "anonymous": false,
      "inputs": [
        {
          "indexed": true,
          "name": "hash",
          "type": "bytes32"
        },
        {
          "indexed": true,
          "name": "owner",
          "type": "address"
        }
      ],
      "name": "Cancel",
      "type": "event"
    },
    {
      "anonymous": false,
      "inputs": [
        {
          "indexed": true,
          "name": "token",
          "type": "uint256"
        },
        {
          "indexed": true,
          "name": "former_owner",
          "type": "address"
        }
      ],
      "name": "Release",
      "type": "event"
    },
    {
      "anonymous": false,
      "inputs": [
        {
          "indexed": true,
          "name": "token",
          "type": "uint256"
        },
        {
          "indexed": true,
          "name": "value",
          "type": "bool"
        }
      ],
      "name": "Homesteading",
      "type": "event"
    },
    {
      "anonymous": false,
      "inputs": [
        {
          "indexed": true,
          "name": "parent",
          "type": "uint256"
        },
        {
          "indexed": true,
          "name": "child",
          "type": "uint256"
        }
      ],
      "name": "LandSplit",
      "type": "event"
    },
    {
      "anonymous": false,
      "inputs": [
        {
          "indexed": true,
          "name": "child",
          "type": "uint256"
        },
        {
          "indexed": true,
          "name": "parent",
          "type": "uint256"
        }
      ],
      "name": "LandMerge",
      "type": "event"
    },
    {
      "anonymous": false,
      "inputs": [
        {
          "indexed": false,
          "name": "new_min_system_deposit_in_atomic_units",
          "type": "uint256"
        }
      ],
      "name": "DepositScaleChange",
      "type": "event"
    },
    {
      "anonymous": false,
      "inputs": [
        {
          "indexed": true,
          "name": "from",
          "type": "address"
        },
        {
          "indexed": true,
          "name": "to",
          "type": "address"
        },
        {
          "indexed": true,
          "name": "tokenId",
          "type": "uint256"
        }
      ],
      "name": "Transfer",
      "type": "event"
    },
    {
      "anonymous": false,
      "inputs": [
        {
          "indexed": true,
          "name": "owner",
          "type": "address"
        },
        {
          "indexed": true,
          "name": "approved",
          "type": "address"
        },
        {
          "indexed": true,
          "name": "tokenId",
          "type": "uint256"
        }
      ],
      "name": "Approval",
      "type": "event"
    },
    {
      "anonymous": false,
      "inputs": [
        {
          "indexed": true,
          "name": "owner",
          "type": "address"
        },
        {
          "indexed": true,
          "name": "operator",
          "type": "address"
        },
        {
          "indexed": false,
          "name": "approved",
          "type": "bool"
        }
      ],
      "name": "ApprovalForAll",
      "type": "event"
    },
    {
      "anonymous": false,
      "inputs": [
        {
          "indexed": true,
          "name": "previousOwner",
          "type": "address"
        },
        {
          "indexed": true,
          "name": "newOwner",
          "type": "address"
        }
      ],
      "name": "OwnershipTransferred",
      "type": "event"
    },
    {
      "constant": true,
      "inputs": [
        {
          "name": "token",
          "type": "uint256"
        }
      ],
      "name": "lowestExistingParent",
      "outputs": [
        {
          "name": "",
          "type": "uint256"
        }
      ],
      "payable": false,
      "stateMutability": "view",
      "type": "function"
    },
    {
      "constant": true,
      "inputs": [
        {
          "name": "token",
          "type": "uint256"
        },
        {
          "name": "claimant",
          "type": "address"
        }
      ],
      "name": "childrenClaimable",
      "outputs": [
        {
          "name": "",
          "type": "bool"
        }
      ],
      "payable": false,
      "stateMutability": "view",
      "type": "function"
    },
    {
      "constant": true,
      "inputs": [
        {
          "name": "token",
          "type": "uint256"
        }
      ],
      "name": "getMinDepositToCreate",
      "outputs": [
        {
          "name": "",
          "type": "uint256"
        }
      ],
      "payable": false,
      "stateMutability": "view",
      "type": "function"
    },
    {
      "constant": true,
      "inputs": [
        {
          "name": "token",
          "type": "uint256"
        }
      ],
      "name": "exists",
      "outputs": [
        {
          "name": "",
          "type": "bool"
        }
      ],
      "payable": false,
      "stateMutability": "view",
      "type": "function"
    },
    {
      "constant": false,
      "inputs": [
        {
          "name": "hash",
          "type": "bytes32"
        },
        {
          "name": "deposit",
          "type": "uint256"
        }
      ],
      "name": "commit",
      "outputs": [],
      "payable": false,
      "stateMutability": "nonpayable",
      "type": "function"
    },
    {
      "constant": false,
      "inputs": [
        {
          "name": "hash",
          "type": "bytes32"
        }
      ],
      "name": "cancel",
      "outputs": [],
      "payable": false,
      "stateMutability": "nonpayable",
      "type": "function"
    },
    {
      "constant": false,
      "inputs": [
        {
          "name": "token",
          "type": "uint256"
        },
        {
          "name": "nonce",
          "type": "uint256"
        }
      ],
      "name": "reveal",
      "outputs": [],
      "payable": false,
      "stateMutability": "nonpayable",
      "type": "function"
    },
    {
      "constant": false,
      "inputs": [
        {
          "name": "token",
          "type": "uint256"
        }
      ],
      "name": "release",
      "outputs": [],
      "payable": false,
      "stateMutability": "nonpayable",
      "type": "function"
    },
    {
      "constant": false,
      "inputs": [
        {
          "name": "token",
          "type": "uint256"
        },
        {
          "name": "value",
          "type": "bool"
        }
      ],
      "name": "setHomesteading",
      "outputs": [],
      "payable": false,
      "stateMutability": "nonpayable",
      "type": "function"
    },
    {
      "constant": true,
      "inputs": [
        {
          "name": "token",
          "type": "uint256"
        }
      ],
      "name": "getHomesteading",
      "outputs": [
        {
          "name": "",
          "type": "bool"
        }
      ],
      "payable": false,
      "stateMutability": "view",
      "type": "function"
    },
    {
      "constant": true,
      "inputs": [
        {
          "name": "token",
          "type": "uint256"
        }
      ],
      "name": "getDeposit",
      "outputs": [
        {
          "name": "",
          "type": "uint256"
        }
      ],
      "payable": false,
      "stateMutability": "view",
      "type": "function"
    },
    {
      "constant": false,
      "inputs": [
        {
          "name": "parent",
          "type": "uint256"
        },
        {
          "name": "additional_deposit",
          "type": "uint256"
        }
      ],
      "name": "subdivideLand",
      "outputs": [],
      "payable": false,
      "stateMutability": "nonpayable",
      "type": "function"
    },
    {
      "constant": false,
      "inputs": [
        {
          "name": "child1",
          "type": "uint256"
        },
        {
          "name": "child2",
          "type": "uint256"
        },
        {
          "name": "child3",
          "type": "uint256"
        },
        {
          "name": "child4",
          "type": "uint256"
        },
        {
          "name": "withdraw_deposit",
          "type": "uint256"
        }
      ],
      "name": "combineLand",
      "outputs": [],
      "payable": false,
      "stateMutability": "nonpayable",
      "type": "function"
    },
    {
      "constant": false,
      "inputs": [
        {
          "name": "new_minimum_deposit_in_atomic_units",
          "type": "uint256"
        }
      ],
      "name": "setMinimumSystemDeposit",
      "outputs": [],
      "payable": false,
      "stateMutability": "nonpayable",
      "type": "function"
    },
    {
      "constant": false,
      "inputs": [
        {
          "name": "otherToken",
          "type": "address"
        }
      ],
      "name": "reclaimToken",
      "outputs": [],
      "payable": false,
      "stateMutability": "nonpayable",
      "type": "function"
    }
  ],
  "bytecode": "0x60806040523480156200001157600080fd5b5060405160808062005c69833981018060405281019080805190602001909291908051906020019092919080519060200190929190805190602001909291905050506040805190810160405280601681526020017f4d6163726f7665727365205265616c20457374617465000000000000000000008152506040805190810160405280600381526020017f4d524500000000000000000000000000000000000000000000000000000000008152508181336000806101000a81548173ffffffffffffffffffffffffffffffffffffffff021916908373ffffffffffffffffffffffffffffffffffffffff1602179055506000809054906101000a900473ffffffffffffffffffffffffffffffffffffffff1673ffffffffffffffffffffffffffffffffffffffff16600073ffffffffffffffffffffffffffffffffffffffff167f8be0079c531659141344cd1fd0a4f28419497f9722a3daafe3b4186f6b6457e060405160405180910390a36000341415156200018d57600080fd5b620001ca6301ffc9a77c01000000000000000000000000000000000000000000000000000000000262000351640100000000026401000000009004565b620002076380ac58cd7c01000000000000000000000000000000000000000000000000000000000262000351640100000000026401000000009004565b6200024463780e9d637c01000000000000000000000000000000000000000000000000000000000262000351640100000000026401000000009004565b81600a90805190602001906200025c9291906200040f565b5080600b9080519060200190620002759291906200040f565b50620002b3635b5e139f7c01000000000000000000000000000000000000000000000000000000000262000351640100000000026401000000009004565b5050505083600d60006101000a81548173ffffffffffffffffffffffffffffffffffffffff021916908373ffffffffffffffffffffffffffffffffffffffff16021790555082600e60006101000a81548173ffffffffffffffffffffffffffffffffffffffff021916908373ffffffffffffffffffffffffffffffffffffffff16021790555081600f819055508060118190555050505050620004be565b63ffffffff7c010000000000000000000000000000000000000000000000000000000002817bffffffffffffffffffffffffffffffffffffffffffffffffffffffff191614151515620003a357600080fd5b6001806000837bffffffffffffffffffffffffffffffffffffffffffffffffffffffff19167bffffffffffffffffffffffffffffffffffffffffffffffffffffffff1916815260200190815260200160002060006101000a81548160ff02191690831515021790555050565b828054600181600116156101000203166002900490600052602060002090601f016020900481019282601f106200045257805160ff191683800117855562000483565b8280016001018555821562000483579182015b828111156200048257825182559160200191906001019062000465565b5b50905062000492919062000496565b5090565b620004bb91905b80821115620004b75760008160009055506001016200049d565b5090565b90565b61579b80620004ce6000396000f3006080604052600436106101f9576000357c0100000000000000000000000000000000000000000000000000000000900463ffffffff16806301ffc9a71461020857806306fdde031461026c5780630758e2ed146102fc578063081812fc14610327578063095ea7b31461039457806317ffc320146103e157806318160ddd1461042457806323b872dd1461044f5780632aed7f3f146104bc5780632ecca5b4146104ff5780632f745c591461052a5780633081be161461058b57806337bdc99b146105c257806342842e0e146105ef5780634948d8e51461065c5780634f558e79146106c15780634f6ccce71461070657806352311839146107475780636352211e1461078857806370a08231146107f5578063715018a61461084c57806373cf9f8314610863578063839df945146108a45780638da5cb5b146108ff5780638f32d59b146109565780639348cef71461098557806395d89b41146109bc5780639f727c2714610a4c5780639f9fb96814610a63578063a22cb46514610aa4578063b0c706f014610af3578063b88d4fde14610b20578063c4d252f514610bd3578063c87b56dd14610c04578063db6711e314610caa578063e900ead814610cd5578063e985e9c514610d10578063f2fde38b14610d8b578063f315966514610dce578063f637cfd414610e07578063fc1dcfe714610e5c575b34801561020557600080fd5b50005b34801561021457600080fd5b5061025260048036038101908080357bffffffffffffffffffffffffffffffffffffffffffffffffffffffff19169060200190929190505050610ea1565b604051808215151515815260200191505060405180910390f35b34801561027857600080fd5b50610281610f09565b6040518080602001828103825283818151815260200191508051906020019080838360005b838110156102c15780820151818401526020810190506102a6565b50505050905090810190601f1680156102ee5780820380516001836020036101000a031916815260200191505b509250505060405180910390f35b34801561030857600080fd5b50610311610fab565b6040518082815260200191505060405180910390f35b34801561033357600080fd5b5061035260048036038101908080359060200190929190505050610fb1565b604051808273ffffffffffffffffffffffffffffffffffffffff1673ffffffffffffffffffffffffffffffffffffffff16815260200191505060405180910390f35b3480156103a057600080fd5b506103df600480360381019080803573ffffffffffffffffffffffffffffffffffffffff16906020019092919080359060200190929190505050611002565b005b3480156103ed57600080fd5b50610422600480360381019080803573ffffffffffffffffffffffffffffffffffffffff169060200190929190505050611147565b005b34801561043057600080fd5b50610439611391565b6040518082815260200191505060405180910390f35b34801561045b57600080fd5b506104ba600480360381019080803573ffffffffffffffffffffffffffffffffffffffff169060200190929190803573ffffffffffffffffffffffffffffffffffffffff1690602001909291908035906020019092919050505061139e565b005b3480156104c857600080fd5b506104fd600480360381019080803573ffffffffffffffffffffffffffffffffffffffff16906020019092919050505061146d565b005b34801561050b57600080fd5b50610514611543565b6040518082815260200191505060405180910390f35b34801561053657600080fd5b50610575600480360381019080803573ffffffffffffffffffffffffffffffffffffffff16906020019092919080359060200190929190505050611549565b6040518082815260200191505060405180910390f35b34801561059757600080fd5b506105c060048036038101908080359060200190929190803590602001909291905050506115c0565b005b3480156105ce57600080fd5b506105ed60048036038101908080359060200190929190505050611d2c565b005b3480156105fb57600080fd5b5061065a600480360381019080803573ffffffffffffffffffffffffffffffffffffffff169060200190929190803573ffffffffffffffffffffffffffffffffffffffff16906020019092919080359060200190929190505050611efa565b005b34801561066857600080fd5b506106a760048036038101908080359060200190929190803573ffffffffffffffffffffffffffffffffffffffff169060200190929190505050611f1b565b604051808215151515815260200191505060405180910390f35b3480156106cd57600080fd5b506106ec60048036038101908080359060200190929190505050611fad565b604051808215151515815260200191505060405180910390f35b34801561071257600080fd5b5061073160048036038101908080359060200190929190505050611fbf565b6040518082815260200191505060405180910390f35b34801561075357600080fd5b5061077260048036038101908080359060200190929190505050611ff7565b6040518082815260200191505060405180910390f35b34801561079457600080fd5b506107b3600480360381019080803590602001909291905050506120f3565b604051808273ffffffffffffffffffffffffffffffffffffffff1673ffffffffffffffffffffffffffffffffffffffff16815260200191505060405180910390f35b34801561080157600080fd5b50610836600480360381019080803573ffffffffffffffffffffffffffffffffffffffff169060200190929190505050612171565b6040518082815260200191505060405180910390f35b34801561085857600080fd5b506108616121f5565b005b34801561086f57600080fd5b5061088e600480360381019080803590602001909291905050506122c7565b6040518082815260200191505060405180910390f35b3480156108b057600080fd5b506108d36004803603810190808035600019169060200190929190505050612317565b604051808460001916600019168152602001838152602001828152602001935050505060405180910390f35b34801561090b57600080fd5b50610914612341565b604051808273ffffffffffffffffffffffffffffffffffffffff1673ffffffffffffffffffffffffffffffffffffffff16815260200191505060405180910390f35b34801561096257600080fd5b5061096b61236a565b604051808215151515815260200191505060405180910390f35b34801561099157600080fd5b506109ba60048036038101908080359060200190929190803590602001909291905050506123c1565b005b3480156109c857600080fd5b506109d1612c6d565b6040518080602001828103825283818151815260200191508051906020019080838360005b83811015610a115780820151818401526020810190506109f6565b50505050905090810190601f168015610a3e5780820380516001836020036101000a031916815260200191505b509250505060405180910390f35b348015610a5857600080fd5b50610a61612d0f565b005b348015610a6f57600080fd5b50610a8e60048036038101908080359060200190929190505050612d89565b6040518082815260200191505060405180910390f35b348015610ab057600080fd5b50610af1600480360381019080803573ffffffffffffffffffffffffffffffffffffffff169060200190929190803515159060200190929190505050612dc2565b005b348015610aff57600080fd5b50610b1e60048036038101908080359060200190929190505050612efe565b005b348015610b2c57600080fd5b50610bd1600480360381019080803573ffffffffffffffffffffffffffffffffffffffff169060200190929190803573ffffffffffffffffffffffffffffffffffffffff16906020019092919080359060200190929190803590602001908201803590602001908080601f0160208091040260200160405190810160405280939291908181526020018383808284378201915050505050509192919290505050612f54565b005b348015610bdf57600080fd5b50610c026004803603810190808035600019169060200190929190505050612f7c565b005b348015610c1057600080fd5b50610c2f60048036038101908080359060200190929190505050613324565b6040518080602001828103825283818151815260200191508051906020019080838360005b83811015610c6f578082015181840152602081019050610c54565b50505050905090810190601f168015610c9c5780820380516001836020036101000a031916815260200191505b509250505060405180910390f35b348015610cb657600080fd5b50610cbf6133ed565b6040518082815260200191505060405180910390f35b348015610ce157600080fd5b50610d0e6004803603810190808035600019169060200190929190803590602001909291905050506133f3565b005b348015610d1c57600080fd5b50610d71600480360381019080803573ffffffffffffffffffffffffffffffffffffffff169060200190929190803573ffffffffffffffffffffffffffffffffffffffff16906020019092919050505061381d565b604051808215151515815260200191505060405180910390f35b348015610d9757600080fd5b50610dcc600480360381019080803573ffffffffffffffffffffffffffffffffffffffff1690602001909291905050506138b1565b005b348015610dda57600080fd5b50610e05600480360381019080803590602001909291908035151590602001909291905050506138d0565b005b348015610e1357600080fd5b50610e5a6004803603810190808035906020019092919080359060200190929190803590602001909291908035906020019092919080359060200190929190505050613a17565b005b348015610e6857600080fd5b50610e87600480360381019080803590602001909291905050506142fb565b604051808215151515815260200191505060405180910390f35b600060016000837bffffffffffffffffffffffffffffffffffffffffffffffffffffffff19167bffffffffffffffffffffffffffffffffffffffffffffffffffffffff1916815260200190815260200160002060009054906101000a900460ff169050919050565b6060600a8054600181600116156101000203166002900480601f016020809104026020016040519081016040528092919081815260200182805460018160011615610100020316600290048015610fa15780601f10610f7657610100808354040283529160200191610fa1565b820191906000526020600020905b815481529060010190602001808311610f8457829003601f168201915b5050505050905090565b60105481565b6000610fbc8261434b565b1515610fc757600080fd5b6003600083815260200190815260200160002060009054906101000a900473ffffffffffffffffffffffffffffffffffffffff169050919050565b600061100d826120f3565b90508073ffffffffffffffffffffffffffffffffffffffff168373ffffffffffffffffffffffffffffffffffffffff161415151561104a57600080fd5b8073ffffffffffffffffffffffffffffffffffffffff163373ffffffffffffffffffffffffffffffffffffffff16148061108a5750611089813361381d565b5b151561109557600080fd5b826003600084815260200190815260200160002060006101000a81548173ffffffffffffffffffffffffffffffffffffffff021916908373ffffffffffffffffffffffffffffffffffffffff160217905550818373ffffffffffffffffffffffffffffffffffffffff168273ffffffffffffffffffffffffffffffffffffffff167f8c5be1e5ebec7d5bd14f71427d1e84f3dd0314c0f7b2291e5b200ac8c7c3b92560405160405180910390a4505050565b60008061115261236a565b151561115d57600080fd5b8291508173ffffffffffffffffffffffffffffffffffffffff166370a08231306040518263ffffffff167c0100000000000000000000000000000000000000000000000000000000028152600401808273ffffffffffffffffffffffffffffffffffffffff1673ffffffffffffffffffffffffffffffffffffffff168152602001915050602060405180830381600087803b1580156111fb57600080fd5b505af115801561120f573d6000803e3d6000fd5b505050506040513d602081101561122557600080fd5b81019080805190602001909291905050509050600e60009054906101000a900473ffffffffffffffffffffffffffffffffffffffff1673ffffffffffffffffffffffffffffffffffffffff168273ffffffffffffffffffffffffffffffffffffffff1614156112a6576112a3601054826143bd90919063ffffffff16565b90505b8173ffffffffffffffffffffffffffffffffffffffff1663a9059cbb6112ca612341565b836040518363ffffffff167c0100000000000000000000000000000000000000000000000000000000028152600401808373ffffffffffffffffffffffffffffffffffffffff1673ffffffffffffffffffffffffffffffffffffffff16815260200182815260200192505050602060405180830381600087803b15801561135057600080fd5b505af1158015611364573d6000803e3d6000fd5b505050506040513d602081101561137a57600080fd5b810190808051906020019092919050505050505050565b6000600880549050905090565b6113a833826143de565b15156113b357600080fd5b600073ffffffffffffffffffffffffffffffffffffffff168273ffffffffffffffffffffffffffffffffffffffff16141515156113ef57600080fd5b6113f98382614473565b6114038382614576565b61140d8282614732565b808273ffffffffffffffffffffffffffffffffffffffff168473ffffffffffffffffffffffffffffffffffffffff167fddf252ad1be2c89b69c2b068fc378daa952ba7f163c4a11628f55a4df523b3ef60405160405180910390a4505050565b600061147761236a565b151561148257600080fd5b8190508073ffffffffffffffffffffffffffffffffffffffff1663f2fde38b6114a9612341565b6040518263ffffffff167c0100000000000000000000000000000000000000000000000000000000028152600401808273ffffffffffffffffffffffffffffffffffffffff1673ffffffffffffffffffffffffffffffffffffffff168152602001915050600060405180830381600087803b15801561152757600080fd5b505af115801561153b573d6000803e3d6000fd5b505050505050565b600f5481565b600061155483612171565b8210151561156157600080fd5b600660008473ffffffffffffffffffffffffffffffffffffffff1673ffffffffffffffffffffffffffffffffffffffff168152602001908152602001600020828154811015156115ad57fe5b9060005260206000200154905092915050565b60006060806000806000806000803373ffffffffffffffffffffffffffffffffffffffff166115ee8c6120f3565b73ffffffffffffffffffffffffffffffffffffffff16141515611679576040517f08c379a00000000000000000000000000000000000000000000000000000000081526004018080602001828103825260148152602001807f546f6b656e206f776e6572206d69736d6174636800000000000000000000000081525060200191505060405180910390fd5b601f6116848c614809565b141515156116fa576040517f08c379a00000000000000000000000000000000000000000000000000000000081526004018080602001828103825260198152602001807f4c616e64206d6178696d616c6c7920737562646976696465640000000000000081525060200191505060405180910390fd5b601360008c81526020019081526020016000206000015498506117288a60105461481690919063ffffffff16565b601081905550600e60009054906101000a900473ffffffffffffffffffffffffffffffffffffffff1673ffffffffffffffffffffffffffffffffffffffff166323b872dd33308d6040518463ffffffff167c0100000000000000000000000000000000000000000000000000000000028152600401808473ffffffffffffffffffffffffffffffffffffffff1673ffffffffffffffffffffffffffffffffffffffff1681526020018373ffffffffffffffffffffffffffffffffffffffff1673ffffffffffffffffffffffffffffffffffffffff1681526020018281526020019350505050602060405180830381600087803b15801561182757600080fd5b505af115801561183b573d6000803e3d6000fd5b505050506040513d602081101561185157600080fd5b810190808051906020019092919050505015156118d6576040517f08c379a00000000000000000000000000000000000000000000000000000000081526004018080602001828103825260148152602001807f4465706f736974206e6f7420617070726f76656400000000000000000000000081525060200191505060405180910390fd5b6118e98a8a61481690919063ffffffff16565b9850600460405190808252806020026020018201604052801561191b5781602001602082028038833980820191505090505b509750600460405190808252806020026020018201604052801561194e5781602001602082028038833980820191505090505b50965060009550600094505b6004851015611a7c578a73__MacroverseNFTUtils____________________630240446c9091876040518363ffffffff167c0100000000000000000000000000000000000000000000000000000000028152600401808381526020018281526020019250505060206040518083038186803b1580156119d857600080fd5b505af41580156119ec573d6000803e3d6000fd5b505050506040513d6020811015611a0257600080fd5b81019080805190602001909291905050509350838886815181101515611a2457fe5b9060200190602002018181525050611a3b84611ff7565b9250828786815181101515611a4c57fe5b9060200190602002018181525050611a6d838761481690919063ffffffff16565b9550848060010195505061195a565b888611151515611af4576040517f08c379a00000000000000000000000000000000000000000000000000000000081526004018080602001828103825260168152602001807f4465706f736974206e6f742073756666696369656e740000000000000000000081525060200191505060405180910390fd5b611afe338c614837565b601360008c81526020019081526020016000206000808201600090556001820160006101000a81549060ff02191690555050611b43868a6143bd90919063ffffffff16565b9850611b5960048a61489690919063ffffffff16565b9150611b6f60048a6148c090919063ffffffff16565b9050611b9c81886000815181101515611b8457fe5b9060200190602002015161481690919063ffffffff16565b876000815181101515611bab57fe5b9060200190602002018181525050600094505b6004851015611d0657611bf1828887815181101515611bd957fe5b9060200190602002015161481690919063ffffffff16565b8786815181101515611bff57fe5b906020019060200201818152505060408051908101604052808887815181101515611c2657fe5b90602001906020020151815260200160001515815250601360008a88815181101515611c4e57fe5b9060200190602002015181526020019081526020016000206000820151816000015560208201518160010160006101000a81548160ff0219169083151502179055509050508785815181101515611ca157fe5b906020019060200201518b7f0680f9477cd8a6cca55787c444e98cd63333f7a7a7248b46d202faeb6e0f3bda60405160405180910390a3611cf9338987815181101515611cea57fe5b906020019060200201516148e5565b8480600101955050611bbe565b600f601460008d8152602001908152602001600020819055505050505050505050505050565b6000611d383383614837565b3373ffffffffffffffffffffffffffffffffffffffff16827f32013bfacb93ebe85c135ce33c603934b756eb1e4b9d552305fbd24adec3617a60405160405180910390a3611d858261493c565b60136000838152602001908152602001600020600001549050601360008381526020019081526020016000206000808201600090556001820160006101000a81549060ff02191690555050611de5816010546143bd90919063ffffffff16565b601081905550600e60009054906101000a900473ffffffffffffffffffffffffffffffffffffffff1673ffffffffffffffffffffffffffffffffffffffff1663a9059cbb33836040518363ffffffff167c0100000000000000000000000000000000000000000000000000000000028152600401808373ffffffffffffffffffffffffffffffffffffffff1673ffffffffffffffffffffffffffffffffffffffff16815260200182815260200192505050602060405180830381600087803b158015611eb057600080fd5b505af1158015611ec4573d6000803e3d6000fd5b505050506040513d6020811015611eda57600080fd5b81019080805190602001909291905050501515611ef657600080fd5b5050565b611f168383836020604051908101604052806000815250612f54565b505050565b6000611f268361434b565b1515611f3157600080fd5b611f3a836149f2565b158015611fa55750611f4b836120f3565b73ffffffffffffffffffffffffffffffffffffffff168273ffffffffffffffffffffffffffffffffffffffff161480611fa457506013600084815260200190815260200160002060010160009054906101000a900460ff165b5b905092915050565b6000611fb88261434b565b9050919050565b6000611fc9611391565b82101515611fd657600080fd5b600882815481101515611fe557fe5b90600052602060002001549050919050565b60008060008061200685614809565b92506000831415612039577fffffffffffffffffffffffffffffffffffffffffffffffffffffffffffffffff93506120eb565b600183141561204c57600f5493506120eb565b60028314156120725761206b600a600f5461489690919063ffffffff16565b93506120eb565b6003831415612098576120916028600f5461489690919063ffffffff16565b93506120eb565b6120d061ffff80166120a987614a1a565b61ffff16146120b95760286120bc565b600a5b60ff16600f5461489690919063ffffffff16565b91506120db85614a3b565b905060018101829060020a900493505b505050919050565b6000806002600084815260200190815260200160002060009054906101000a900473ffffffffffffffffffffffffffffffffffffffff169050600073ffffffffffffffffffffffffffffffffffffffff168173ffffffffffffffffffffffffffffffffffffffff161415151561216857600080fd5b80915050919050565b60008073ffffffffffffffffffffffffffffffffffffffff168273ffffffffffffffffffffffffffffffffffffffff16141515156121ae57600080fd5b600460008373ffffffffffffffffffffffffffffffffffffffff1673ffffffffffffffffffffffffffffffffffffffff168152602001908152602001600020549050919050565b6121fd61236a565b151561220857600080fd5b600073ffffffffffffffffffffffffffffffffffffffff166000809054906101000a900473ffffffffffffffffffffffffffffffffffffffff1673ffffffffffffffffffffffffffffffffffffffff167f8be0079c531659141344cd1fd0a4f28419497f9722a3daafe3b4186f6b6457e060405160405180910390a360008060006101000a81548173ffffffffffffffffffffffffffffffffffffffff021916908373ffffffffffffffffffffffffffffffffffffffff160217905550565b60008060006122d584614809565b14156122e45760009150612311565b6122ed83614a6b565b90506122f88161434b565b1561230557809150612311565b61230e816122c7565b91505b50919050565b60126020528060005260406000206000915090508060000154908060010154908060020154905083565b60008060009054906101000a900473ffffffffffffffffffffffffffffffffffffffff16905090565b60008060009054906101000a900473ffffffffffffffffffffffffffffffffffffffff1673ffffffffffffffffffffffffffffffffffffffff163373ffffffffffffffffffffffffffffffffffffffff1614905090565b600080600080858560405160200180838152602001828152602001925050506040516020818303038152906040526040518082805190602001908083835b60208310151561242457805182526020820191506020810190506020830392506123ff565b6001836020036101000a0380198251168184511680821785525050505050509050019150506040518091039020935083336040516020018083600019166000191681526020018273ffffffffffffffffffffffffffffffffffffffff1673ffffffffffffffffffffffffffffffffffffffff166c01000000000000000000000000028152601401925050506040516020818303038152906040526040518082805190602001908083835b6020831015156124f357805182526020820191506020810190506020830392506124ce565b6001836020036101000a03801982511681845116808217855250505050505090500191505060405180910390209250601260008460001916600019168152602001908152602001600020915083600019168260000154600019161415156125c2576040517f08c379a00000000000000000000000000000000000000000000000000000000081526004018080602001828103825260148152602001807f436f6d6d69746d656e74206e6f7420666f756e6400000000000000000000000081525060200191505060405180910390fd5b42600760115402836002015401111515612644576040517f08c379a00000000000000000000000000000000000000000000000000000000081526004018080602001828103825260128152602001807f436f6d6d69746d656e742065787069726564000000000000000000000000000081525060200191505060405180910390fd5b426011548360020154011015156126c3576040517f08c379a00000000000000000000000000000000000000000000000000000000081526004018080602001828103825260128152602001807f436f6d6d69746d656e7420746f6f206e6577000000000000000000000000000081525060200191505060405180910390fd5b6126cc8661434b565b151515612741576040517f08c379a00000000000000000000000000000000000000000000000000000000081526004018080602001828103825260148152602001807f546f6b656e20616c72656164792065786973747300000000000000000000000081525060200191505060405180910390fd5b8573__MacroverseNFTUtils____________________6328f0b3df90916040518263ffffffff167c01000000000000000000000000000000000000000000000000000000000281526004018082815260200191505060206040518083038186803b1580156127ae57600080fd5b505af41580156127c2573d6000803e3d6000fd5b505050506040513d60208110156127d857600080fd5b8101908080519060200190929190505050151561285d576040517f08c379a00000000000000000000000000000000000000000000000000000000081526004018080602001828103825260158152602001807f546f6b656e2064617461206d69732d7061636b6564000000000000000000000081525060200191505060405180910390fd5b600d60009054906101000a900473ffffffffffffffffffffffffffffffffffffffff1673ffffffffffffffffffffffffffffffffffffffff16634f558e79876040518263ffffffff167c010000000000000000000000000000000000000000000000000000000002815260040180828152602001915050602060405180830381600087803b1580156128ee57600080fd5b505af1158015612902573d6000803e3d6000fd5b505050506040513d602081101561291857600080fd5b8101908080519060200190929190505050151561299d576040517f08c379a000000000000000000000000000000000000000000000000000000000815260040180806020018281038252601f8152602001807f43616e6e6f7420636c61696d206e6f6e2d6578697374656e74207468696e670081525060200191505060405180910390fd5b6129a686611ff7565b826001015410151515612a21576040517f08c379a00000000000000000000000000000000000000000000000000000000081526004018080602001828103825260118152602001807f4465706f73697420746f6f20736d616c6c00000000000000000000000000000081525060200191505060405180910390fd5b612a2a866122c7565b9050600081141515612ab557612a408133611f1b565b1515612ab4576040517f08c379a000000000000000000000000000000000000000000000000000000000815260040180806020018281038252601a8152602001807f43616e6e6f7420636c61696d206368696c6472656e206865726500000000000081525060200191505060405180910390fd5b5b612abe866149f2565b1580612add575060006014600088815260200190815260200160002054145b1515612b77576040517f08c379a00000000000000000000000000000000000000000000000000000000081526004018080602001828103825260278152602001807f43616e6e6f7420636c61696d206c616e64207769746820636c61696d6564207381526020017f7562706c6f74730000000000000000000000000000000000000000000000000081525060400191505060405180910390fd5b60408051908101604052808360010154815260200160001515815250601360008881526020019081526020016000206000820151816000015560208201518160010160006101000a81548160ff021916908315150217905550905050612bdc86614b89565b6012600084600019166000191681526020019081526020016000206000808201600090556001820160009055600282016000905550503373ffffffffffffffffffffffffffffffffffffffff168685600019167f7f10e24a6522bbac4d453beb2dcf75f1c54e235677b2a3d136c257f777b2bc9060405160405180910390a4612c6533876148e5565b505050505050565b6060600b8054600181600116156101000203166002900480601f016020809104026020016040519081016040528092919081815260200182805460018160011615610100020316600290048015612d055780601f10612cda57610100808354040283529160200191612d05565b820191906000526020600020905b815481529060010190602001808311612ce857829003601f168201915b5050505050905090565b612d1761236a565b1515612d2257600080fd5b612d2a612341565b73ffffffffffffffffffffffffffffffffffffffff166108fc3073ffffffffffffffffffffffffffffffffffffffff16319081150290604051600060405180830381858888f19350505050158015612d86573d6000803e3d6000fd5b50565b6000612d948261434b565b1515612da35760009050612dbd565b601360008381526020019081526020016000206000015490505b919050565b3373ffffffffffffffffffffffffffffffffffffffff168273ffffffffffffffffffffffffffffffffffffffff1614151515612dfd57600080fd5b80600560003373ffffffffffffffffffffffffffffffffffffffff1673ffffffffffffffffffffffffffffffffffffffff16815260200190815260200160002060008473ffffffffffffffffffffffffffffffffffffffff1673ffffffffffffffffffffffffffffffffffffffff16815260200190815260200160002060006101000a81548160ff0219169083151502179055508173ffffffffffffffffffffffffffffffffffffffff163373ffffffffffffffffffffffffffffffffffffffff167f17307eab39ab6107e8899845ad3d59bd9653f200f220920489ca2b5937696c3183604051808215151515815260200191505060405180910390a35050565b612f0661236a565b1515612f1157600080fd5b80600f819055507f6202478fec10331b8abbcf1169a16c03e315dc45d28669598f271b131a023a28600f546040518082815260200191505060405180910390a150565b612f5f84848461139e565b612f6b84848484614c16565b1515612f7657600080fd5b50505050565b60008060008060010260001916846000191614151515613004576040517f08c379a00000000000000000000000000000000000000000000000000000000081526004018080602001828103825260148152602001807f5a65726f20686173682070726f6869626974656400000000000000000000000081525060200191505060405180910390fd5b83336040516020018083600019166000191681526020018273ffffffffffffffffffffffffffffffffffffffff1673ffffffffffffffffffffffffffffffffffffffff166c01000000000000000000000000028152601401925050506040516020818303038152906040526040518082805190602001908083835b6020831015156130a4578051825260208201915060208101905060208303925061307f565b6001836020036101000a0380198251168184511680821785525050505050509050019150506040518091039020925060126000846000191660001916815260200190815260200160002091508360001916826000015460001916141515613173576040517f08c379a00000000000000000000000000000000000000000000000000000000081526004018080602001828103825260148152602001807f436f6d6d69746d656e74206e6f7420666f756e6400000000000000000000000081525060200191505060405180910390fd5b816001015490506012600084600019166000191681526020019081526020016000206000808201600090556001820160009055600282016000905550506131c5816010546143bd90919063ffffffff16565b601081905550600e60009054906101000a900473ffffffffffffffffffffffffffffffffffffffff1673ffffffffffffffffffffffffffffffffffffffff1663a9059cbb33836040518363ffffffff167c0100000000000000000000000000000000000000000000000000000000028152600401808373ffffffffffffffffffffffffffffffffffffffff1673ffffffffffffffffffffffffffffffffffffffff16815260200182815260200192505050602060405180830381600087803b15801561329057600080fd5b505af11580156132a4573d6000803e3d6000fd5b505050506040513d60208110156132ba57600080fd5b810190808051906020019092919050505015156132d657600080fd5b3373ffffffffffffffffffffffffffffffffffffffff1684600019167f383447dfd40b32b73af346d8a498d4f50e93188330a1901d6c2add893d520e3260405160405180910390a350505050565b606061332f8261434b565b151561333a57600080fd5b600c60008381526020019081526020016000208054600181600116156101000203166002900480601f0160208091040260200160405190810160405280929190818152602001828054600181600116156101000203166002900480156133e15780601f106133b6576101008083540402835291602001916133e1565b820191906000526020600020905b8154815290600101906020018083116133c457829003601f168201915b50505050509050919050565b60115481565b60008060006001026000191684600019161415151561347a576040517f08c379a00000000000000000000000000000000000000000000000000000000081526004018080602001828103825260148152602001807f5a65726f20686173682070726f6869626974656400000000000000000000000081525060200191505060405180910390fd5b61348f8360105461481690919063ffffffff16565b601081905550600e60009054906101000a900473ffffffffffffffffffffffffffffffffffffffff1673ffffffffffffffffffffffffffffffffffffffff166323b872dd3330866040518463ffffffff167c0100000000000000000000000000000000000000000000000000000000028152600401808473ffffffffffffffffffffffffffffffffffffffff1673ffffffffffffffffffffffffffffffffffffffff1681526020018373ffffffffffffffffffffffffffffffffffffffff1673ffffffffffffffffffffffffffffffffffffffff1681526020018281526020019350505050602060405180830381600087803b15801561358e57600080fd5b505af11580156135a2573d6000803e3d6000fd5b505050506040513d60208110156135b857600080fd5b8101908080519060200190929190505050151561363d576040517f08c379a00000000000000000000000000000000000000000000000000000000081526004018080602001828103825260148152602001807f4465706f736974206e6f7420617070726f76656400000000000000000000000081525060200191505060405180910390fd5b83336040516020018083600019166000191681526020018273ffffffffffffffffffffffffffffffffffffffff1673ffffffffffffffffffffffffffffffffffffffff166c01000000000000000000000000028152601401925050506040516020818303038152906040526040518082805190602001908083835b6020831015156136dd57805182526020820191506020810190506020830392506136b8565b6001836020036101000a0380198251168184511680821785525050505050509050019150506040518091039020915060126000836000191660001916815260200190815260200160002090506000600102600019168160000154600019161415156137b0576040517f08c379a000000000000000000000000000000000000000000000000000000000815260040180806020018281038252601f8152602001807f4475706c696361746520636f6d6d69746d656e742070726f686962697465640081525060200191505060405180910390fd5b838160000181600019169055508281600101819055504281600201819055503373ffffffffffffffffffffffffffffffffffffffff1684600019167f06993d49ee122769a3c0ef60e9862b93d411b169b222fac05276d82abf11c9e760405160405180910390a350505050565b6000600560008473ffffffffffffffffffffffffffffffffffffffff1673ffffffffffffffffffffffffffffffffffffffff16815260200190815260200160002060008373ffffffffffffffffffffffffffffffffffffffff1673ffffffffffffffffffffffffffffffffffffffff16815260200190815260200160002060009054906101000a900460ff16905092915050565b6138b961236a565b15156138c457600080fd5b6138cd81614e38565b50565b60003373ffffffffffffffffffffffffffffffffffffffff166138f2846120f3565b73ffffffffffffffffffffffffffffffffffffffff1614151561397d576040517f08c379a00000000000000000000000000000000000000000000000000000000081526004018080602001828103825260148152602001807f546f6b656e206f776e6572206d69736d6174636800000000000000000000000081525060200191505060405180910390fd5b613986836149f2565b15151561399257600080fd5b6013600084815260200190815260200160002090508115158160010160009054906101000a900460ff161515141515613a1257818160010160006101000a81548160ff021916908315150217905550811515837f0da0a9bb596ddd85dfa72c9cbcfe8816ed96436e9efc8862a9e861183a274c1060405160405180910390a35b505050565b613a1f6156b3565b6000806000806080604051908101604052808b81526020018a815260200189815260200188815250945060009350600092505b6004831015613b62573373ffffffffffffffffffffffffffffffffffffffff16613a8d8685600481101515613a8357fe5b60200201516120f3565b73ffffffffffffffffffffffffffffffffffffffff16141515613b18576040517f08c379a00000000000000000000000000000000000000000000000000000000081526004018080602001828103825260148152602001807f546f6b656e206f776e6572206d69736d6174636800000000000000000000000081525060200191505060405180910390fd5b613b53601360008786600481101515613b2d57fe5b60200201518152602001908152602001600020600001548561481690919063ffffffff16565b93508280600101935050613a52565b846001600481101515613b7157fe5b6020020151856000600481101515613b8557fe5b602002015114151515613c00576040517f08c379a00000000000000000000000000000000000000000000000000000000081526004018080602001828103825260158152602001807f4368696c6472656e206e6f742064697374696e6374000000000000000000000081525060200191505060405180910390fd5b846002600481101515613c0f57fe5b6020020151856000600481101515613c2357fe5b602002015114151515613c9e576040517f08c379a00000000000000000000000000000000000000000000000000000000081526004018080602001828103825260158152602001807f4368696c6472656e206e6f742064697374696e6374000000000000000000000081525060200191505060405180910390fd5b846003600481101515613cad57fe5b6020020151856000600481101515613cc157fe5b602002015114151515613d3c576040517f08c379a00000000000000000000000000000000000000000000000000000000081526004018080602001828103825260158152602001807f4368696c6472656e206e6f742064697374696e6374000000000000000000000081525060200191505060405180910390fd5b846002600481101515613d4b57fe5b6020020151856001600481101515613d5f57fe5b602002015114151515613dda576040517f08c379a00000000000000000000000000000000000000000000000000000000081526004018080602001828103825260158152602001807f4368696c6472656e206e6f742064697374696e6374000000000000000000000081525060200191505060405180910390fd5b846003600481101515613de957fe5b6020020151856001600481101515613dfd57fe5b602002015114151515613e78576040517f08c379a00000000000000000000000000000000000000000000000000000000081526004018080602001828103825260158152602001807f4368696c6472656e206e6f742064697374696e6374000000000000000000000081525060200191505060405180910390fd5b846003600481101515613e8757fe5b6020020151856002600481101515613e9b57fe5b602002015114151515613f16576040517f08c379a00000000000000000000000000000000000000000000000000000000081526004018080602001828103825260158152602001807f4368696c6472656e206e6f742064697374696e6374000000000000000000000081525060200191505060405180910390fd5b613f32856000600481101515613f2857fe5b6020020151614a6b565b9150600192505b6004831015613fe05781613f5e8685600481101515613f5457fe5b6020020151614a6b565b141515613fd3576040517f08c379a00000000000000000000000000000000000000000000000000000000081526004018080602001828103825260118152602001807f506172656e74206e6f742073686172656400000000000000000000000000000081525060200191505060405180910390fd5b8280600101935050613f39565b613fe9826149f2565b1515613ff457600080fd5b61400786856143bd90919063ffffffff16565b905060008611156140935761401b82611ff7565b8110151515614092576040517f08c379a00000000000000000000000000000000000000000000000000000000081526004018080602001828103825260168152602001807f4465706f736974206e6f742073756666696369656e740000000000000000000081525060200191505060405180910390fd5b5b600092505b600483101561414e576140bd3386856004811015156140b357fe5b6020020151614837565b6013600086856004811015156140cf57fe5b602002015181526020019081526020016000206000808201600090556001820160006101000a81549060ff0219169055505081858460048110151561411057fe5b60200201517f0680f9477cd8a6cca55787c444e98cd63333f7a7a7248b46d202faeb6e0f3bda60405160405180910390a38280600101935050614098565b604080519081016040528082815260200160001515815250601360008481526020019081526020016000206000820151816000015560208201518160010160006101000a81548160ff0219169083151502179055509050506141b033836148e5565b600060146000848152602001908152602001600020819055506141de866010546143bd90919063ffffffff16565b601081905550600e60009054906101000a900473ffffffffffffffffffffffffffffffffffffffff1673ffffffffffffffffffffffffffffffffffffffff1663a9059cbb33886040518363ffffffff167c0100000000000000000000000000000000000000000000000000000000028152600401808373ffffffffffffffffffffffffffffffffffffffff1673ffffffffffffffffffffffffffffffffffffffff16815260200182815260200192505050602060405180830381600087803b1580156142a957600080fd5b505af11580156142bd573d6000803e3d6000fd5b505050506040513d60208110156142d357600080fd5b810190808051906020019092919050505015156142ef57600080fd5b50505050505050505050565b60006143068261434b565b80156143185750614316826149f2565b155b801561434457506013600083815260200190815260200160002060010160009054906101000a900460ff165b9050919050565b6000806002600084815260200190815260200160002060009054906101000a900473ffffffffffffffffffffffffffffffffffffffff169050600073ffffffffffffffffffffffffffffffffffffffff168173ffffffffffffffffffffffffffffffffffffffff161415915050919050565b6000808383111515156143cf57600080fd5b82840390508091505092915050565b6000806143ea836120f3565b90508073ffffffffffffffffffffffffffffffffffffffff168473ffffffffffffffffffffffffffffffffffffffff16148061445957508373ffffffffffffffffffffffffffffffffffffffff1661444184610fb1565b73ffffffffffffffffffffffffffffffffffffffff16145b8061446a5750614469818561381d565b5b91505092915050565b8173ffffffffffffffffffffffffffffffffffffffff16614493826120f3565b73ffffffffffffffffffffffffffffffffffffffff161415156144b557600080fd5b600073ffffffffffffffffffffffffffffffffffffffff166003600083815260200190815260200160002060009054906101000a900473ffffffffffffffffffffffffffffffffffffffff1673ffffffffffffffffffffffffffffffffffffffff161415156145725760006003600083815260200190815260200160002060006101000a81548173ffffffffffffffffffffffffffffffffffffffff021916908373ffffffffffffffffffffffffffffffffffffffff1602179055505b5050565b60008060006145858585614f32565b600760008581526020019081526020016000205492506145f16001600660008873ffffffffffffffffffffffffffffffffffffffff1673ffffffffffffffffffffffffffffffffffffffff168152602001908152602001600020805490506143bd90919063ffffffff16565b9150600660008673ffffffffffffffffffffffffffffffffffffffff1673ffffffffffffffffffffffffffffffffffffffff1681526020019081526020016000208281548110151561463f57fe5b9060005260206000200154905080600660008773ffffffffffffffffffffffffffffffffffffffff1673ffffffffffffffffffffffffffffffffffffffff1681526020019081526020016000208481548110151561469957fe5b9060005260206000200181905550600660008673ffffffffffffffffffffffffffffffffffffffff1673ffffffffffffffffffffffffffffffffffffffff1681526020019081526020016000208054809190600190036146f991906156d6565b50600060076000868152602001908152602001600020819055508260076000838152602001908152602001600020819055505050505050565b600061473e8383615061565b600660008473ffffffffffffffffffffffffffffffffffffffff1673ffffffffffffffffffffffffffffffffffffffff168152602001908152602001600020805490509050600660008473ffffffffffffffffffffffffffffffffffffffff1673ffffffffffffffffffffffffffffffffffffffff168152602001908152602001600020829080600181540180825580915050906001820390600052602060002001600090919290919091505550806007600084815260200190815260200160002081905550505050565b6000601f82169050919050565b600080828401905083811015151561482d57600080fd5b8091505092915050565b61484182826151bb565b6000600c600083815260200190815260200160002080546001816001161561010002031660029004905014151561489257600c600082815260200190815260200160002060006148919190615702565b5b5050565b6000806000831115156148a857600080fd5b82848115156148b357fe5b0490508091505092915050565b60008082141515156148d157600080fd5b81838115156148dc57fe5b06905092915050565b6148ef82826152a2565b600880549050600960008381526020019081526020016000208190555060088190806001815401808255809150509060018203906000526020600020016000909192909190915055505050565b60008060008061494b85614809565b1415614956576149ec565b6000601460008681526020019081526020016000205414156149eb5761497b84614a6b565b925061498684615348565b9150601460008481526020019081526020016000205490506149a88183615407565b156149ea576149b981836000615424565b60146000858152602001908152602001600020819055506149d98361434b565b15156149e9576149e88361493c565b5b5b5b5b50505050565b6000806149fe83614809565b905060048110158015614a125750601f8111155b915050919050565b6000614a3482601080601080601060050101010101615450565b9050919050565b600080614a4783614809565b90506004811015614a5b5760009150614a65565b6001600482030191505b50919050565b6000806000614a7984614809565b915060008214151515614a8857fe5b6001821415614aad57614aa6614a9f856000615465565b6000615483565b9250614b82565b6002821415614ad257614acb614ac48560006154a1565b6001615483565b9250614b82565b6003821415614af757614af0614ae98560006154c1565b6002615483565b9250614b82565b6004821415614b5c5761ffff8016614b0e85614a1a565b61ffff161415614b3f57614b38614b31614b2a866000806154e4565b60006154c1565b6002615483565b9250614b82565b614b55614b4e856000806154e4565b6002615483565b9250614b82565b6001614b6785614a3b565b039050614b7f614b79858360006154e4565b82615555565b92505b5050919050565b600080600080614b9885614809565b1415614ba357614c10565b614bac84614a6b565b9250614bb784615348565b915060146000848152602001908152602001600020549050614bd98183615407565b15614be357614c10565b614bef81836001615424565b6014600085815260200190815260200160002081905550614c0f83614b89565b5b50505050565b600080614c388573ffffffffffffffffffffffffffffffffffffffff1661558d565b1515614c475760019150614e2f565b8473ffffffffffffffffffffffffffffffffffffffff1663150b7a02338887876040518563ffffffff167c0100000000000000000000000000000000000000000000000000000000028152600401808573ffffffffffffffffffffffffffffffffffffffff1673ffffffffffffffffffffffffffffffffffffffff1681526020018473ffffffffffffffffffffffffffffffffffffffff1673ffffffffffffffffffffffffffffffffffffffff16815260200183815260200180602001828103825283818151815260200191508051906020019080838360005b83811015614d3c578082015181840152602081019050614d21565b50505050905090810190601f168015614d695780820380516001836020036101000a031916815260200191505b5095505050505050602060405180830381600087803b158015614d8b57600080fd5b505af1158015614d9f573d6000803e3d6000fd5b505050506040513d6020811015614db557600080fd5b8101908080519060200190929190505050905063150b7a027c0100000000000000000000000000000000000000000000000000000000027bffffffffffffffffffffffffffffffffffffffffffffffffffffffff1916817bffffffffffffffffffffffffffffffffffffffffffffffffffffffff19161491505b50949350505050565b600073ffffffffffffffffffffffffffffffffffffffff168173ffffffffffffffffffffffffffffffffffffffff1614151515614e7457600080fd5b8073ffffffffffffffffffffffffffffffffffffffff166000809054906101000a900473ffffffffffffffffffffffffffffffffffffffff1673ffffffffffffffffffffffffffffffffffffffff167f8be0079c531659141344cd1fd0a4f28419497f9722a3daafe3b4186f6b6457e060405160405180910390a3806000806101000a81548173ffffffffffffffffffffffffffffffffffffffff021916908373ffffffffffffffffffffffffffffffffffffffff16021790555050565b8173ffffffffffffffffffffffffffffffffffffffff16614f52826120f3565b73ffffffffffffffffffffffffffffffffffffffff16141515614f7457600080fd5b614fc76001600460008573ffffffffffffffffffffffffffffffffffffffff1673ffffffffffffffffffffffffffffffffffffffff168152602001908152602001600020546143bd90919063ffffffff16565b600460008473ffffffffffffffffffffffffffffffffffffffff1673ffffffffffffffffffffffffffffffffffffffff1681526020019081526020016000208190555060006002600083815260200190815260200160002060006101000a81548173ffffffffffffffffffffffffffffffffffffffff021916908373ffffffffffffffffffffffffffffffffffffffff1602179055505050565b600073ffffffffffffffffffffffffffffffffffffffff166002600083815260200190815260200160002060009054906101000a900473ffffffffffffffffffffffffffffffffffffffff1673ffffffffffffffffffffffffffffffffffffffff161415156150cf57600080fd5b816002600083815260200190815260200160002060006101000a81548173ffffffffffffffffffffffffffffffffffffffff021916908373ffffffffffffffffffffffffffffffffffffffff1602179055506151746001600460008573ffffffffffffffffffffffffffffffffffffffff1673ffffffffffffffffffffffffffffffffffffffff1681526020019081526020016000205461481690919063ffffffff16565b600460008473ffffffffffffffffffffffffffffffffffffffff1673ffffffffffffffffffffffffffffffffffffffff168152602001908152602001600020819055505050565b60008060006151ca85856155a0565b600960008581526020019081526020016000205492506151f960016008805490506143bd90919063ffffffff16565b915060088281548110151561520a57fe5b906000526020600020015490508060088481548110151561522757fe5b9060005260206000200181905550600060088381548110151561524657fe5b9060005260206000200181905550600880548091906001900361526991906156d6565b50600060096000868152602001908152602001600020819055508260096000838152602001908152602001600020819055505050505050565b600073ffffffffffffffffffffffffffffffffffffffff168273ffffffffffffffffffffffffffffffffffffffff16141515156152de57600080fd5b6152e88282614732565b808273ffffffffffffffffffffffffffffffffffffffff16600073ffffffffffffffffffffffffffffffffffffffff167fddf252ad1be2c89b69c2b068fc378daa952ba7f163c4a11628f55a4df523b3ef60405160405180910390a45050565b600080600061535684614809565b91506000821415151561536557fe5b60018214156153825761537784615614565b61ffff169250615400565b600282141561539f5761539484615630565b61ffff169250615400565b60038214156153bf5760086153b385614a1a565b61ffff16019250615400565b600482101580156153d15750601f8211155b156153f55760016153e185614a3b565b0390506153ee848261564e565b9250615400565b600015156153ff57fe5b5b5050919050565b6000808260019060020a0290506000818516141591505092915050565b6000808360019060020a0290508215615441578085179150615448565b8019851691505b509392505050565b60008160ff16839060020a9004905092915050565b600061547b83601080601060050101018461568a565b905092915050565b6000601f821115151561549257fe5b81601f19841617905092915050565b60006154b9836010806010806005010101018461568a565b905092915050565b60006154dc836010806010806010600501010101018461568a565b905092915050565b600080601b841015156154f357fe5b600084141561550d5760088310151561550857fe5b61551a565b60048310151561551957fe5b5b83600360ff1602601080601080601080600501010101010160ff1601905080839060020a028160079060020a02198616179150509392505050565b60008060008311151561556457fe5b601b831115151561557157fe5b6001836004010390506155848482615483565b91505092915050565b600080823b905060008111915050919050565b6155aa8282614473565b6155b48282614576565b80600073ffffffffffffffffffffffffffffffffffffffff168373ffffffffffffffffffffffffffffffffffffffff167fddf252ad1be2c89b69c2b068fc378daa952ba7f163c4a11628f55a4df523b3ef60405160405180910390a45050565b60006156298260108060106005010101615450565b9050919050565b600061564782601080601080600501010101615450565b9050919050565b6000601b8210151561565c57fe5b600782600360ff1602601080601080601080600501010101010160ff1601849060020a900416905092915050565b60008260ff168261ffff169060020a028360ff1661ffff9060020a021985161790509392505050565b608060405190810160405280600490602082028038833980820191505090505090565b8154818355818111156156fd578183600052602060002091820191016156fc919061574a565b5b505050565b50805460018160011615610100020316600290046000825580601f106157285750615747565b601f016020900490600052602060002090810190615746919061574a565b5b50565b61576c91905b80821115615768576000816000905550600101615750565b5090565b905600a165627a7a7230582087c5eef9c0a3467e92d84dfb5494412878282a523c7e5064962f3d309bf6e0640029",
  "source": "pragma solidity ^0.4.24;\n\nimport \"openzeppelin-solidity/contracts/ownership/Ownable.sol\";\nimport \"./HasNoEther.sol\";\nimport \"./HasNoContracts.sol\";\nimport \"openzeppelin-solidity/contracts/token/ERC721/ERC721Full.sol\";\nimport \"openzeppelin-solidity/contracts/token/ERC20/IERC20.sol\";\nimport \"openzeppelin-solidity/contracts/math/SafeMath.sol\";\n\nimport \"./MacroverseNFTUtils.sol\";\nimport \"./MacroverseExistenceChecker.sol\";\n\n/**\n * The MacroverseUniversalRegistry keeps track of who currently owns virtual\n * real estate in the Macroverse world, at all scales. It supersedes the\n * MacroverseStarRegistry.\n *\n * Ownership is based on a claim system, where unowned objects can be claimed\n * by people by putting up a deposit in MRV. The MRV deposit is returned when\n * the owner releases their claim on the corresponding object.\n *\n * The claim system is protected against front-running by a commit/reveal\n * system with a mandatory waiting period. You first commit to the claim you\n * want to make, by putting up the deposit and publishing a hash. After a\n * certain mandatory waiting period, you can reveal what it is you are trying\n * to claim, and actually take ownership of the object.\n *\n * The first person to reveal wins in case two or more people try to claim the\n * same object, or if they try to claim things that are\n * parents/children/overlapping in such a way that the claims conflict. Since\n * there's a mandatory waiting period between the commit and reveal, and since\n * a malicious front-runner cannot commit until they see a reveal they are\n * trying to front-run, then as long as malicious front-runners cannot keep\n * transactions off the chain for the duration of the mandatory wait period,\n * then they can't steal things other people are trying to claim.\n *\n * It's still possible for an organic conflict to end up getting resolved in\n * favor of whoever is willing to pay more for gas, or for people to leave many\n * un-revealed claims and grief people by revealing them when someone else\n * tries to claim the same objects.\n *\n * To further mitigate griefing, committed claims will expire after a while if\n * not revealed.\n *\n * Revealing requires demonstrating that the Macroverse object being claimed\n * actually exists, and so claiming can only be done by people who can pass the\n * Macroverse generator's AccessControl checks.\n *\n * Note that ownership of a star system does not necessarily imply ownership of\n * everything in it. Just as one person can own a condo in another person's\n * building, one person can own a planet in another person's star system.\n * Non-containment of different ownership claims is only enforced for claims of\n * land on planets and moons.\n *\n * The surface of a world is subdivided using a Hierarchical Triangular Mesh\n * approach, as described in <http://www.skyserver.org/HTM/> and in\n * <https://www.microsoft.com/en-us/research/wp-content/uploads/2005/09/tr-2005-123.pdf>\n * \"Indexing the Sphere with the Hierarchical Triangular Mesh\". At the top\n * level, the surface of a world is an octahedron of equilateral triangles.\n * Each triangle is then recursively subdivided into 4 children by inscribing\n * another equilateral triangle between the center points of its edges. Each\n * HTM \"trixel\" is a plot of virtual real estate that can be claimed. Land\n * trixels can be subdivided and merged, and ownership of a trixel implies\n * ownership of all contained trixels, because this logic can be done without\n * any reference to the AccessControl-protected Macroverse generator logic.\n *\n * The mapping from systems, planets, moons, and land trixels to token ID\n * numbers is defined in the MacroverseNFTUtils library.\n *\n * \"Planets\" which are asteroid belts and \"moons\" which are ring systems also\n * are subdivided into 8 triangles, and then recursively into nested sets of 4\n * sub-triangles. However, the initial 8 triangles are defined as wedges, with\n * the points at the central body and with the outer edges being curved. They\n * are numbered prograde, with the division from 0 to 7 corresponding to the\n * object's notional position, computed as if it were a point body with the\n * same orbital parameters. Note that this means that some ownership claims do\n * not actually overlap the orbital range (and thus do not contain anything),\n * and that any actual particles would move relative to the positions of the\n * claims over time, depending on their actual orbits. \n *\n * At the astronomical level (stars, planets, moons), tokens can be issued\n * for the children of things already claimed, if the lowest owned parent token\n * has homesteading enabled.  At the land level, only one token can cover\n * a given point at a given time, but plots can be subdivided and merged\n * according to the trixel structure.\n *\n * Internally, bookkeeping data is kept to allow the tree of all issued tokens\n * to be traversed. All issued tokens exist in the tree, as well as the\n * internal nodes of the token hierarchy necessary to connect them. The\n * presence of child nodes in the tree is tracked using a bitmap for each node.\n *\n * The deployer of this contract reserves the right to supersede it with a new\n * version at any time, for any reason, and without notice. The deployer of\n * this contract reserves the right to leave it in place as is indefinitely.\n *\n * The deployer of this contract reserves the right to claim and keep any\n * tokens or ETH or contracts sent to this contract, in excess of the MRV\n * balance that this contract thinks it is supposed to have.\n */\ncontract MacroverseUniversalRegistry is Ownable, HasNoEther, HasNoContracts, ERC721Full {\n\n    using SafeMath for uint256;\n    using MacroverseNFTUtils for uint256;\n\n    // These constants are shared with the TokenUtils library\n\n    // Define the types of tokens that can exist\n    uint256 constant TOKEN_TYPE_SECTOR = 0;\n    uint256 constant TOKEN_TYPE_SYSTEM = 1;\n    uint256 constant TOKEN_TYPE_PLANET = 2;\n    uint256 constant TOKEN_TYPE_MOON = 3;\n    // Land tokens are a range of type field values.\n    // Land tokens of the min type use one trixel field\n    uint256 constant TOKEN_TYPE_LAND_MIN = 4;\n    uint256 constant TOKEN_TYPE_LAND_MAX = 31;\n\n    // Define the packing format\n    uint8 constant TOKEN_SECTOR_X_SHIFT = 5;\n    uint8 constant TOKEN_SECTOR_X_BITS = 16;\n    uint8 constant TOKEN_SECTOR_Y_SHIFT = TOKEN_SECTOR_X_SHIFT + TOKEN_SECTOR_X_BITS;\n    uint8 constant TOKEN_SECTOR_Y_BITS = 16;\n    uint8 constant TOKEN_SECTOR_Z_SHIFT = TOKEN_SECTOR_Y_SHIFT + TOKEN_SECTOR_Y_BITS;\n    uint8 constant TOKEN_SECTOR_Z_BITS = 16;\n    uint8 constant TOKEN_SYSTEM_SHIFT = TOKEN_SECTOR_Z_SHIFT + TOKEN_SECTOR_Z_BITS;\n    uint8 constant TOKEN_SYSTEM_BITS = 16;\n    uint8 constant TOKEN_PLANET_SHIFT = TOKEN_SYSTEM_SHIFT + TOKEN_SYSTEM_BITS;\n    uint8 constant TOKEN_PLANET_BITS = 16;\n    uint8 constant TOKEN_MOON_SHIFT = TOKEN_PLANET_SHIFT + TOKEN_PLANET_BITS;\n    uint8 constant TOKEN_MOON_BITS = 16;\n    uint8 constant TOKEN_TRIXEL_SHIFT = TOKEN_MOON_SHIFT + TOKEN_MOON_BITS;\n    uint8 constant TOKEN_TRIXEL_EACH_BITS = 3;\n\n    // How many trixel fields are there\n    uint256 constant TOKEN_TRIXEL_FIELD_COUNT = 27;\n\n    // How many children does a trixel have?\n    uint256 constant CHILDREN_PER_TRIXEL = 4;\n    // And how many top level trixels does a world have?\n    uint256 constant TOP_TRIXELS = 8;\n\n    // We keep a bit mask of the high bits of all but the least specific trixel.\n    // None of these may be set in a valid token.\n    // We rely on it being left-shifted TOKEN_TRIXEL_SHIFT bits before being applied.\n    // Note that this has 26 1s, with one every 3 bits, except the last 3 bits are 0.\n    uint256 constant TOKEN_TRIXEL_HIGH_BIT_MASK = 0x124924924924924924920;\n\n    // Sentinel for no moon used (for land on a planet)\n    uint16 constant MOON_NONE = 0xFFFF; \n\n    //////////////\n    // Events for the commit/reveal system\n    //////////////\n\n    // Note that in addition to these special events, transfers to/from 0 are\n    // fired as tokens are created and destroyed.\n\n    /// Fired when an owner makes a commitment. Includes the commitment hash of token, nonce.\n    event Commit(bytes32 indexed hash, address indexed owner);\n    /// Fired when a commitment is successfully revealed and the token issued.\n    event Reveal(bytes32 indexed hash, uint256 indexed token, address indexed owner);\n    /// Fired when a commitment is canceled without being revealed.\n    event Cancel(bytes32 indexed hash, address indexed owner);\n\n    /// Fired when a token is released to be claimed by others.\n    /// Use this instead of transfers to 0, because those also happen when subdividing/merging land.\n    event Release(uint256 indexed token, address indexed former_owner);\n\n    /// Fired when homesteading under a token is enabled or disabled.\n    /// Not fired when the token is issued; it starts disabled.\n    event Homesteading(uint256 indexed token, bool indexed value);\n    /// Fired when a parcel of land is split out of another\n    /// Gets emitted once per child.\n    event LandSplit(uint256 indexed parent, uint256 indexed child);\n    /// Fired when a parcel of land is merged into another.\n    /// Gets emitted once per child.\n    event LandMerge(uint256 indexed child, uint256 indexed parent);\n\n    /// Fired when the deposit scale for the registry is updated by the administrator.\n    event DepositScaleChange(uint256 new_min_system_deposit_in_atomic_units);\n\n    //////////////\n    // Contract state\n    //////////////\n\n    /// This is the contract we check virtual real estate existence against;\n    MacroverseExistenceChecker existenceChecker;\n\n    /// This is the token in which ownership deposits have to be paid.\n    IERC20 private depositTokenContract;\n    /// This is the minimum ownership deposit in atomic token units.\n    uint public minSystemDepositInAtomicUnits;\n    \n    /// This tracks how much of the deposit token the contract is supposed to have.\n    /// If it ends up with extra (because someone incorrectly used transfer() instead of approve()), the owner can remove it.\n    uint public expectedDepositBalance;\n\n    /// How long should a commitment be required to sit before it can be revealed, in Ethereum time?\n    /// This is also the maximum delay that we can let a bad actor keep good transactions off the chain, in our front-running security model.\n    uint public commitmentMinWait;\n\n    /// How long should a commitment be allowed to sit un-revealed before it becomes invalid and can only be canceled?\n    /// This protects against unrevealed commitments being used as griefing traps.\n    /// This is a multiple of the min wait.\n    uint constant COMMITMENT_MAX_WAIT_FACTOR = 7;\n\n    /// A Commitment represents an outstanding attempt to claim a deed.\n    /// It also needs to be referenced to look up the deposit associated with an owned token when the token is destroyed.\n    /// It is identified by a \"key\", which is the hash of the committing hash and the owner address.\n    /// This is the mapping key under which it is stored.\n    /// We don't need to store the owner because the mapping key hash binds the commitment to the owner.\n    struct Commitment {\n        // Hash (keccak256) of the token we want to claim and a uint256 nonce to be revealed with it.\n        bytes32 hash;        \n        // Number of atomic token units deposited with the commitment\n        uint256 deposit;\n        // Time number at which the commitment was created.\n        uint256 creationTime;\n    }\n    \n    /// This is all the commitments that are currently outstanding.\n    /// The mapping key is keccak256(hash, owner address).\n    /// When they are revealed or canceled, they are deleted from the map.\n    mapping(bytes32 => Commitment) public commitments;\n\n    /// Tokens have some configuration info to them, beyond what the base ERC721 implementation tracks.\n    struct TokenConfig {\n        /// This holds the deposit amount associated with the token, which will be released when the token is unclaimed.\n        uint256 deposit;\n        /// True if the token allows homesteading (i.e. the claiming of child tokens by others)\n        bool homesteading;\n    }\n\n    /// This holds the TokenConfig for each token\n    mapping(uint256 => TokenConfig) tokenConfigs;\n\n    /// This maps from each hierarchical bit-packed keypath entry to a bitmap of\n    /// which of its direct children have deed tokens issued at or under them.\n    /// If all the bits would be 0, an entry need not exist (which is the\n    /// Solidity mapping default behavior).\n    mapping (uint256 => uint256) internal childTree;\n\n    /**\n     * Deploy a new copy of the Macroverse Universal Registry.\n     * The given existence checker will be used to check object existence.\n     * The given token will be used to pay deposits, and the given minimum\n     * deposit size will be required to claim a star system.\n     * Other deposit sizes will be calculated from that.\n     * The given min wait time will be the required time you must wait after committing before revealing.\n     */\n    constructor(address existence_checker_address, address deposit_token_address,\n        uint initial_min_system_deposit_in_atomic_units, uint commitment_min_wait) public ERC721Full(\"Macroverse Real Estate\", \"MRE\") {\n        // We can only use one existence checker for the lifetime of the contract.\n        existenceChecker = MacroverseExistenceChecker(existence_checker_address);\n        // We can only use one token for the lifetime of the contract.\n        depositTokenContract = IERC20(deposit_token_address);\n        // But the minimum deposit for new claims can change\n        minSystemDepositInAtomicUnits = initial_min_system_deposit_in_atomic_units;\n        // Set the wait time\n        commitmentMinWait = commitment_min_wait;\n    }\n\n    //////////////\n    // Child tree functions\n    //////////////\n\n    // First we need some bit utilities\n\n    /**\n     * Set the value of a bit by index in a uint256.\n     * Bits are counted from the LSB left.\n     */\n    function setBit(uint256 bitmap, uint256 index, bool value) internal pure returns (uint256) {\n        uint256 bit = 0x1 << index;\n        if (value) {\n            // Set it\n            return bitmap | bit;\n        } else {\n            // Clear it\n            return bitmap & (~bit);\n        }\n    }\n\n    /**\n     * Get the value of a bit by index in a uint256.\n     * Bits are counted from the LSB left.\n     */\n    function getBit(uint256 bitmap, uint256 index) internal pure returns (bool) {\n        uint256 bit = 0x1 << index;\n        return (bitmap & bit != 0);\n    }\n\n    /**\n     * Register a token/internal node and all parents as having an extant token\n     * present under them in the child tree.\n     */\n    function addChildToTree(uint256 token) internal {\n        \n        if (token.getTokenType() == TOKEN_TYPE_SECTOR) {\n            // No parent exists; we're a tree root.\n            return;\n        }\n\n        // Find the parent\n        uint256 parent = token.parentOfToken();\n\n        // Find what child index we are of the parent\n        uint256 child_index = token.childIndexOfToken();\n        \n        // Get the parent's child tree entry\n        uint256 bitmap = childTree[parent];\n\n        if (getBit(bitmap, child_index)) {\n            // Stop if the correct bit is set already\n            return;\n            // TODO: reuse the mask for the bit?\n        }\n\n        // Set the correct bit if unset\n        childTree[parent] = setBit(bitmap, child_index, true);\n\n        // Continue until we hit the top of the tree\n        addChildToTree(parent);\n    }\n\n    /**\n     * Record in the child tree that a token no longer exists. Also handles\n     * cleanup of internal nodes that now have no children.\n     */\n    function removeChildFromTree(uint256 token) internal {\n\n        if (token.getTokenType() == TOKEN_TYPE_SECTOR) {\n            // No parent exists; we're a tree root.\n            return;\n        }\n\n        // See if we have any children that still exist\n        if (childTree[token] == 0) {\n            // We are not an existing token ourselves, and we have no existing children.\n\n            // Find the parent\n            uint256 parent = token.parentOfToken();\n\n            // Find what child index we are of the parent\n            uint256 child_index = token.childIndexOfToken();\n            \n            // Getmthe parent's child tree entry\n            uint256 bitmap = childTree[parent];\n\n            if (getBit(bitmap, child_index)) {\n                // Our bit in our immediate parent is set.\n\n                // Clear it\n                childTree[parent] = setBit(bitmap, child_index, false);\n\n                if (!_exists(parent)) {\n                    // Recurse up to maybe clean up the parent, if we were the\n                    // last child and the parent doesn't exist as a token\n                    // itself.\n                    removeChildFromTree(parent);\n                }\n            }\n        }\n    }\n\n    //////////////\n    // State-aware token utility functions\n    //////////////\n\n    /**\n     * Get the lowest-in-the-hierarchy token that exists (is owned).\n     * Returns a 0-value sentinel if no parent token exists.\n     */\n    function lowestExistingParent(uint256 token) public view returns (uint256) {\n        if (token.getTokenType() == TOKEN_TYPE_SECTOR) {\n            // No parent exists, and we can't exist.\n            return 0;\n        }\n\n        uint256 parent = token.parentOfToken();\n\n        if (_exists(parent)) {\n            // We found a token that really exists\n            return parent;\n        }\n\n        // Otherwise, recurse on the parent\n        return lowestExistingParent(parent);\n\n        // Recursion depth is limited to a reasonable maximum by the maximum\n        // depth of the land hierarchy.\n    }\n\n    /**\n     * Returns true if direct children of the given token can be claimed by the given claimant.\n     * Children of land tokens can never be claimed (the plot must be subdivided).\n     * Children of system/planet/moon tokens can only be claimed if the claimer owns them or the owner allows homesteading.\n     */\n    function childrenClaimable(uint256 token, address claimant) public view returns (bool) {\n        require(_exists(token));\n        return !token.tokenIsLand() && (claimant == ownerOf(token) || tokenConfigs[token].homesteading);\n    }\n\n    /**\n     * Get the min deposit that will be required to create a claim on a token.\n     *\n     * Tokens can only exist with deposits smaller than this if they were\n     * created before the minimum deposit was raised, or if they are the result\n     * of merging other tokens whose deposits were too small.\n     */\n    function getMinDepositToCreate(uint256 token) public view returns (uint256) {\n        // Get the token's type\n        uint256 token_type = token.getTokenType();\n\n        if (token_type == TOKEN_TYPE_SECTOR) {\n            // Sectors cannot be owned.\n            return 0xFFFFFFFFFFFFFFFFFFFFFFFFFFFFFFFFFFFFFFFFFFFFFFFFFFFFFFFFFFFFFFFF;\n        } else if (token_type == TOKEN_TYPE_SYSTEM) {\n            // For systems, the deposit is set\n            return minSystemDepositInAtomicUnits;\n        } else if (token_type == TOKEN_TYPE_PLANET) {\n            // For planets, the deposit is a fraction of the system\n            return minSystemDepositInAtomicUnits.div(10);\n        } else if (token_type == TOKEN_TYPE_MOON) {\n            // For moons, the deposit is a smaller fraction\n            return minSystemDepositInAtomicUnits.div(40);\n        } else {\n            // It must be land\n            \n            // For land, the deposit is smaller and cuts in half with each level of subdivision (starting at 1).\n\n            // Base on the cost of the whole body\n            // For moons we pay this fraction of the star system cost\n            // For planets we pay more (divide less)\n            uint256 whole_cost = minSystemDepositInAtomicUnits.div((token.getTokenMoon() == MOON_NONE) ? 10 : 40);\n\n            // So all the small claims is twice as expensive as the big claim.\n            uint256 subdivisions = token.getTokenTrixelCount();\n            // Divide by an extra 2 at first because the first level has 8 trixels and not 4.\n            return whole_cost >> (subdivisions + 1);\n        }\n    }\n\n    /**\n     * Return true if the given token exists and the corresponding world object is claimed, and false otherwise.\n     * Does not account for owners of parents.\n     */\n    function exists(uint256 token) public view returns (bool) {\n        // Just wrap the private exists function\n        return _exists(token);\n    }\n\n\n    //////////////\n    // Minting and destruction logic: commit/reveal/cancel and release\n    //////////////\n    \n    /**\n     * Make a new commitment by debiting msg.sender's account for the given deposit.\n     * Returns the numerical ID of the commitment, which must be passed to\n     * reveal() together with the actual bit-packed keypath of the thing being\n     * claimed in order to finalize the claim.\n     */\n    function commit(bytes32 hash, uint256 deposit) external {\n        // Deposit size will not be checked until reveal!\n\n        // We use the 0 hash as an indication that a commitment isn't present\n        // in the mapping, so we prohibit it here as a real commitment hash.\n        require(hash != bytes32(0), \"Zero hash prohibited\");\n\n        // Record we have the deposit value\n        expectedDepositBalance = expectedDepositBalance.add(deposit);\n\n        // Make sure we can take the deposit\n        require(depositTokenContract.transferFrom(msg.sender, this, deposit), \"Deposit not approved\");\n\n        // Compute the commitment key\n        bytes32 commitment_key = keccak256(abi.encodePacked(hash, msg.sender));\n\n        // Find the record for it\n        Commitment storage commitment = commitments[commitment_key];\n\n        // Make sure it is free\n        require(commitment.hash == bytes32(0), \"Duplicate commitment prohibited\");\n\n        // Fill it in\n        commitment.hash = hash;\n        commitment.deposit = deposit;\n        commitment.creationTime = now;\n\n        // Do an event for tracking.  Nothing needs to come out of this for the\n        // reveal; you just need to know that you succeeded and about when.\n        emit Commit(hash, msg.sender);\n    }\n\n    /**\n     * Cancel a commitment that has not yet been revealed.\n     * Returns the associated deposit.\n     * ID the commitment by the committing hash passed to commit(), *not* the\n     * internal key.\n     * Must be sent from the same address that created the commitment, or the\n     * commitment cannot be addressed.\n     */\n    function cancel(bytes32 hash) external {\n        // We use the 0 hash as an indication that a commitment isn't present\n        // in the mapping, so we prohibit it here as a real commitment hash.\n        require(hash != bytes32(0), \"Zero hash prohibited\");\n\n        // Look up the right commitment for this hash and owner.\n        bytes32 commitment_key = keccak256(abi.encodePacked(hash, msg.sender));\n        Commitment storage commitment = commitments[commitment_key];\n\n        // Make sure it is present with the right nonzero hash.\n        // If it seems to have a zero hash, the commitment is gone/never existed.\n        require(commitment.hash == hash, \"Commitment not found\");\n\n        // Work out how much to refund\n        uint256 refund = commitment.deposit;\n\n        // Destroy the commitment\n        delete commitments[commitment_key];\n\n        // Record we sent the deposit value\n        expectedDepositBalance = expectedDepositBalance.sub(refund);\n\n        // Return the deposit\n        require(depositTokenContract.transfer(msg.sender, refund));\n\n        // Emit a Cancel event\n        emit Cancel(hash, msg.sender);\n    }\n\n    /**\n     * Finish a commitment by revealing the token we want to claim and the\n     * nonce to make the commitment hash. Creates the token. Fails and reverts\n     * if the preimage is incorrect, the commitment is expired, the commitment\n     * is too new, the commitment is missing, the deposit is insufficient for\n     * whatever is being claimed, the Macroverse generators cannot be accessed\n     * to prove the existence of the thing being claimed or its parents, or the\n     * thing or a child or parent is already claimed by a conflicting\n     * commitment. Otherwise issues the token for the bit-packed keypath given\n     * in preimage.\n     *\n     * Doesn't need the commitment hash: it is computed from the provided\n     * preimage.  Commitment lookup also depends on the originating address, so\n     * the function must be called by the original committer.\n     */\n    function reveal(uint256 token, uint256 nonce) external {\n        // Compute the committing hash that this is the preimage for\n        bytes32 hash = keccak256(abi.encodePacked(token, nonce));\n        \n        // Look up the right commitment for this hash and owner.\n        bytes32 commitment_key = keccak256(abi.encodePacked(hash, msg.sender));\n        Commitment storage commitment = commitments[commitment_key];\n\n        // Make sure it is present with the right nonzero hash.\n        // If it seems to have a zero hash, the commitment is gone/never existed.\n        require(commitment.hash == hash, \"Commitment not found\");\n        \n        // Make sure the commitment is not expired (max wait is in the future)\n        require(commitment.creationTime + (commitmentMinWait * COMMITMENT_MAX_WAIT_FACTOR) > now, \"Commitment expired\");\n\n        // Make sure the commitment is not too new (min wait is in the past)\n        require(commitment.creationTime + commitmentMinWait < now, \"Commitment too new\");\n\n        // Make sure the token doesn't already exists\n        require(!_exists(token), \"Token already exists\");\n\n        // Validate the token\n        require(token.tokenIsCanonical(), \"Token data mis-packed\");\n        // Make sure it refers to something real\n        require(existenceChecker.exists(token), \"Cannot claim non-existent thing\");\n\n        // Make sure that sufficient tokens have been deposited for this thing to be claimed\n        require(commitment.deposit >= getMinDepositToCreate(token), \"Deposit too small\");\n\n        // Do checks on the parent\n        uint256 extant_parent = lowestExistingParent(token);\n        if (extant_parent != 0) {\n            // A parent exists. Can this person claim its children?\n            require(childrenClaimable(extant_parent, msg.sender), \"Cannot claim children here\");\n        }\n\n        // If it's land, no children can be claimed already\n        require(!token.tokenIsLand() || childTree[token] == 0, \"Cannot claim land with claimed subplots\");\n\n        // OK, now we know the claim is valid. Execute it.\n\n        // Create the token state, with homesteading off, carrying over the deposit\n        tokenConfigs[token] = TokenConfig({\n            deposit: commitment.deposit,\n            homesteading: false\n        });\n\n        // Record it in the child tree. This informs all parent land tokens\n        // that could be created that there are child claims, and blocks them.\n        addChildToTree(token);\n\n        // Destroy the commitment\n        delete commitments[commitment_key];\n\n        // Emit a reveal event, before actually making the token\n        emit Reveal(hash, token, msg.sender);\n\n        // If we pass everything, mint the token\n        _mint(msg.sender, token);\n    }\n\n    /**\n     * Destroy a token that you own, allowing it to be claimed by someone else.\n     * Retruns the associated deposit to you.\n     */\n    function release(uint256 token) external {\n        // Burn the token IFF it exists and is owned by msg.sender\n        _burn(msg.sender, token);\n\n        // Say the token was released\n        emit Release(token, msg.sender);\n\n        // Remove it from the tree so it no longer blocks parent claims if it is land\n        removeChildFromTree(token);\n        \n        // Work out what the deposit was\n        uint256 deposit = tokenConfigs[token].deposit;\n\n        // Clean up its config\n        delete tokenConfigs[token];\n\n        // Record we sent the deposit back\n        expectedDepositBalance = expectedDepositBalance.sub(deposit);\n\n        // Return the deposit\n        require(depositTokenContract.transfer(msg.sender, deposit));\n    }\n\n    //////////////\n    // Token owner functions\n    //////////////\n\n    /**\n     * Set whether homesteading is allowed under a token. The token must be owned by you, and must not be land.\n     */\n    function setHomesteading(uint256 token, bool value) external {\n        require(ownerOf(token) == msg.sender, \"Token owner mismatch\");\n        require(!token.tokenIsLand());\n        \n        // Find the token's config\n        TokenConfig storage config = tokenConfigs[token];\n\n        if (config.homesteading != value) {\n            // The value is actually changing\n\n            // Set the homesteading flag\n            config.homesteading = value;\n\n            // Make an event so clients can find homesteading areas\n            emit Homesteading(token, value);\n        }\n    }\n\n    /**\n     * Get whether homesteading is allowed under a token.\n     * Returns false for nonexistent or invalid tokens.\n     */\n    function getHomesteading(uint256 token) external view returns (bool) {\n        // Only existing non-land tokens with homesteading on can be homesteaded.\n        return (_exists(token) && !token.tokenIsLand() && tokenConfigs[token].homesteading); \n    }\n\n    /**\n     * Get the deposit tied up in a token, in MRV atomic units.\n     * Returns 0 for nonexistent or invalid tokens.\n     * Deposits associated with claims need to be gotten by looking at the claim mapping directly.\n     */\n    function getDeposit(uint256 token) external view returns (uint256) {\n        // Only existing non-land tokens with homesteading on can be homesteaded.\n        if (!_exists(token)) {\n            return 0;\n        }\n        return tokenConfigs[token].deposit;\n    }\n\n    /**\n     * Split a trixel of land into 4 sub-trixel tokens.\n     * The new tokens will be owned by the same owner.\n     * The old token will be destroyed.\n     * Additional deposit may be required so that all subdivided tokens have at least the minimum deposit.\n     * The deposit from the original token will be re-used if possible.\n     * If the deposit available is not divisible by 4, the extra will be assigned to the first child token.\n     */\n    function subdivideLand(uint256 parent, uint256 additional_deposit) external {\n        // Make sure the parent is land owned by the caller.\n        // If a token is owned, it must be canonical.\n        require(ownerOf(parent) == msg.sender, \"Token owner mismatch\");\n\n        // Make sure the parent isn't maximally subdivided\n        require(parent.getTokenType() != TOKEN_TYPE_LAND_MAX, \"Land maximally subdivided\");\n\n        // Get the deposit from it\n        uint256 deposit = tokenConfigs[parent].deposit;\n\n        // Take the new deposit from the caller\n        // Record we have the deposit value\n        expectedDepositBalance = expectedDepositBalance.add(additional_deposit);\n\n        // Make sure we can take the deposit\n        require(depositTokenContract.transferFrom(msg.sender, this, additional_deposit), \"Deposit not approved\");\n\n        // Add in the new deposit\n        deposit = deposit.add(additional_deposit);\n\n        // Compute the token numbers for the new child tokens\n        uint256[] memory children = new uint256[](CHILDREN_PER_TRIXEL);\n        // And their deposits. In theory they might vary by token identity.\n        uint256[] memory child_deposits = new uint256[](CHILDREN_PER_TRIXEL);\n        // And the total required\n        uint256 required_deposit = 0;\n        for (uint256 i = 0; i < CHILDREN_PER_TRIXEL; i++) {\n            uint256 child = parent.childTokenAtIndex(i);\n            children[i] = child;\n            uint256 child_deposit = getMinDepositToCreate(child);\n            child_deposits[i] = child_deposit;\n            required_deposit = required_deposit.add(child_deposit);\n        }\n\n        require(required_deposit <= deposit, \"Deposit not sufficient\");\n\n        // Burn the parent\n        _burn(msg.sender, parent);\n\n        // Clean up its config\n        delete tokenConfigs[parent];\n\n        // Apportion deposit and create the children\n\n        // Now deposit will be is the remaining deposit to try and distribute evenly among the children\n        deposit = deposit.sub(required_deposit);\n        uint256 split_evenly = deposit.div(CHILDREN_PER_TRIXEL);\n        uint256 extra = deposit.mod(CHILDREN_PER_TRIXEL);\n        child_deposits[0] = child_deposits[0].add(extra);\n        for (i = 0; i < CHILDREN_PER_TRIXEL; i++) {\n            child_deposits[i] = child_deposits[i].add(split_evenly);\n\n            // Now we can make the child token config\n            tokenConfigs[children[i]] = TokenConfig({\n                deposit: child_deposits[i],\n                homesteading: false\n            });\n\n            // Say land is being split\n            emit LandSplit(parent, children[i]);\n\n            // And mint the child\n            _mint(msg.sender, children[i]);\n        }\n\n        // Set the parent's entry in the child tree to having all 4 children.\n        // Its parent will still record its presence.\n        childTree[parent] = 0xf;\n    }\n\n    /**\n     * Combine 4 land tokens with the same parent trixel into one token for the parent trixel.\n     * Tokens must all be owned by the message sender.\n     * Allows withdrawing some of the deposit of the original child tokens, as long as sufficient deposit is left to back the new parent land claim.\n     */\n    function combineLand(uint256 child1, uint256 child2, uint256 child3, uint256 child4, uint256 withdraw_deposit) external {\n        // Make a child array\n        uint256[CHILDREN_PER_TRIXEL] memory children = [child1, child2, child3, child4];\n\n        // And count up the deposit they represent\n        uint256 available_deposit = 0;\n        \n        for (uint256 i = 0; i < CHILDREN_PER_TRIXEL; i++) {\n            // Make sure all the children are owned by the caller\n            require(ownerOf(children[i]) == msg.sender, \"Token owner mismatch\");\n            // If a token is owned, it must be canonical.\n\n            // Collect the deposit\n            available_deposit = available_deposit.add(tokenConfigs[children[i]].deposit);\n        }\n        \n        // Make sure all the children are distinct\n        require(children[0] != children[1], \"Children not distinct\");\n        require(children[0] != children[2], \"Children not distinct\");\n        require(children[0] != children[3], \"Children not distinct\");\n\n        require(children[1] != children[2], \"Children not distinct\");\n        require(children[1] != children[3], \"Children not distinct\");\n\n        require(children[2] != children[3], \"Children not distinct\");\n        \n        // Make sure they are all children of the same parent\n        uint256 parent = children[0].parentOfToken();\n        for (i = 1; i < CHILDREN_PER_TRIXEL; i++) {\n            require(children[i].parentOfToken() == parent, \"Parent not shared\");\n        }\n        \n        // Make sure that that parent is land\n        require(parent.tokenIsLand());\n\n        // Compute the parent deposit\n        uint256 parent_deposit = available_deposit.sub(withdraw_deposit);\n\n        // Edge case: min deposit scale was adjusted and now the deposits for\n        // the children aren't enough for the parent.\n        // In that case, we allow the merge, but withdraw_deposit must be 0.\n        if (withdraw_deposit > 0) {\n            require(parent_deposit >= getMinDepositToCreate(parent), \"Deposit not sufficient\");\n        }\n\n        for (i = 0; i < CHILDREN_PER_TRIXEL; i++) {\n            // Burn the children\n            _burn(msg.sender, children[i]);\n\n            // Clean up the config\n            delete tokenConfigs[children[i]];\n\n            // Say land is being merged\n            emit LandSplit(children[i], parent);\n        }\n\n        // Make a parent config\n        tokenConfigs[parent] = TokenConfig({\n            deposit: parent_deposit,\n            homesteading: false\n        });\n\n        // Create the parent\n        _mint(msg.sender, parent);\n\n        // Set the parent's entry in the child tree to having no children.\n        // Its parent will still record its presence as an internal node.\n        childTree[parent] = 0;\n\n        // Return the requested amount of returned deposit.\n\n        // Record we sent the deposit back\n        expectedDepositBalance = expectedDepositBalance.sub(withdraw_deposit);\n\n        // Return the deposit\n        require(depositTokenContract.transfer(msg.sender, withdraw_deposit));\n    }\n\n    //////////////\n    // Admin functions\n    //////////////\n\n    /**\n     * Allow the contract owner to set the minimum deposit amount for granting new\n     * system ownership claims.\n     */\n    function setMinimumSystemDeposit(uint256 new_minimum_deposit_in_atomic_units) external onlyOwner {\n        minSystemDepositInAtomicUnits = new_minimum_deposit_in_atomic_units;\n        emit DepositScaleChange(minSystemDepositInAtomicUnits);\n    }\n    \n    /**\n     * Allow the owner to collect any non-MRV tokens, or any excess MRV, that ends up in this contract.\n     */\n    function reclaimToken(address otherToken) external onlyOwner {\n        IERC20 other = IERC20(otherToken);\n        \n        // We will send our whole balance\n        uint excessBalance = other.balanceOf(this);\n        \n        // Unless we're talking about the MRV token\n        if (address(other) == address(depositTokenContract)) {\n            // In which case we send only any balance that we shouldn't have\n            excessBalance = excessBalance.sub(expectedDepositBalance);\n        }\n        \n        // Make the transfer. If it doesn't work, we can try again later.\n        other.transfer(owner(), excessBalance);\n    }\n}\n",
  "sourcePath": "/Users/anovak/Documents/Workspace/macroverse/contracts/MacroverseUniversalRegistry.sol",
  "compiler": {
    "name": "solc",
    "version": "0.4.24+commit.e67f0147.Emscripten.clang"
  },
  "schemaVersion": "2.0.1",
  "updatedAt": "2019-09-20T03:20:53.953Z"
}