{
  "contractName": "MacroverseStarGeneratorPatch1",
  "abi": [
    {
      "inputs": [
        {
          "internalType": "address",
          "name": "accessControlAddress",
          "type": "address"
        }
      ],
      "stateMutability": "nonpayable",
      "type": "constructor"
    },
    {
      "anonymous": false,
      "inputs": [
        {
          "indexed": true,
          "internalType": "address",
          "name": "previousOwner",
          "type": "address"
        },
        {
          "indexed": true,
          "internalType": "address",
          "name": "newOwner",
          "type": "address"
        }
      ],
      "name": "OwnershipTransferred",
      "type": "event"
    },
    {
      "inputs": [
        {
          "internalType": "address",
          "name": "newAccessControl",
          "type": "address"
        }
      ],
      "name": "changeAccessControl",
      "outputs": [],
      "stateMutability": "nonpayable",
      "type": "function"
    },
    {
      "inputs": [],
      "name": "owner",
      "outputs": [
        {
          "internalType": "address",
          "name": "",
          "type": "address"
        }
      ],
      "stateMutability": "view",
      "type": "function"
    },
    {
      "inputs": [],
      "name": "renounceOwnership",
      "outputs": [],
      "stateMutability": "nonpayable",
      "type": "function"
    },
    {
      "inputs": [
        {
          "internalType": "address",
          "name": "newOwner",
          "type": "address"
        }
      ],
      "name": "transferOwnership",
      "outputs": [],
      "stateMutability": "nonpayable",
      "type": "function"
    },
    {
      "inputs": [
        {
          "internalType": "bytes32",
          "name": "starSeed",
          "type": "bytes32"
        },
        {
          "internalType": "enum MacroverseStarGenerator.ObjectClass",
          "name": "objectClass",
          "type": "uint8"
        },
        {
          "internalType": "enum MacroverseStarGenerator.SpectralType",
          "name": "spectralType",
          "type": "uint8"
        }
      ],
      "name": "getObjectPlanetCount",
      "outputs": [
        {
          "internalType": "uint16",
          "name": "",
          "type": "uint16"
        }
      ],
      "stateMutability": "view",
      "type": "function"
    },
    {
      "inputs": [
        {
          "internalType": "bytes32",
          "name": "starSeed",
          "type": "bytes32"
        },
        {
          "internalType": "enum MacroverseStarGenerator.ObjectClass",
          "name": "objectClass",
          "type": "uint8"
        },
        {
          "internalType": "int128",
          "name": "realObjectMass",
          "type": "int128"
        }
      ],
      "name": "getObjectLuminosity",
      "outputs": [
        {
          "internalType": "int128",
          "name": "",
          "type": "int128"
        }
      ],
      "stateMutability": "view",
      "type": "function"
    },
    {
      "inputs": [
        {
          "internalType": "int128",
          "name": "realLuminosity",
          "type": "int128"
        }
      ],
      "name": "getObjectHabitableZone",
      "outputs": [
        {
          "internalType": "int128",
          "name": "realInnerRadius",
          "type": "int128"
        },
        {
          "internalType": "int128",
          "name": "realOuterRadius",
          "type": "int128"
        }
      ],
      "stateMutability": "view",
      "type": "function"
    },
    {
      "inputs": [
        {
          "internalType": "bytes32",
          "name": "seed",
          "type": "bytes32"
        }
      ],
      "name": "getObjectYXAxisAngles",
      "outputs": [
        {
          "internalType": "int128",
          "name": "realYRadians",
          "type": "int128"
        },
        {
          "internalType": "int128",
          "name": "realXRadians",
          "type": "int128"
        }
      ],
      "stateMutability": "view",
      "type": "function"
    }
  ],
  "bytecode": "0x608060405234801561001057600080fd5b506040516123bb3803806123bb8339818101604052602081101561003357600080fd5b810190808051906020019092919050505080600061005561013b60201b60201c565b9050806000806101000a81548173ffffffffffffffffffffffffffffffffffffffff021916908373ffffffffffffffffffffffffffffffffffffffff1602179055508073ffffffffffffffffffffffffffffffffffffffff16600073ffffffffffffffffffffffffffffffffffffffff167f8be0079c531659141344cd1fd0a4f28419497f9722a3daafe3b4186f6b6457e060405160405180910390a35080600160006101000a81548173ffffffffffffffffffffffffffffffffffffffff021916908373ffffffffffffffffffffffffffffffffffffffff1602179055505050610143565b600033905090565b612269806101526000396000f3fe608060405234801561001057600080fd5b50600436106100885760003560e01c80639387730c1161005b5780639387730c14610198578063bfd4fac1146101dc578063ccae78aa14610240578063f2fde38b1461029857610088565b806350e5da7a1461008d578063715018a6146100e25780638da5cb5b146100ec578063932c1b2914610136575b600080fd5b6100b9600480360360208110156100a357600080fd5b81019080803590602001909291905050506102dc565b6040518083600f0b600f0b815260200182600f0b600f0b81526020019250505060405180910390f35b6100ea6104e9565b005b6100f4610671565b604051808273ffffffffffffffffffffffffffffffffffffffff1673ffffffffffffffffffffffffffffffffffffffff16815260200191505060405180910390f35b61017c6004803603606081101561014c57600080fd5b8101908080359060200190929190803560ff1690602001909291908035600f0b906020019092919050505061069a565b6040518082600f0b600f0b815260200191505060405180910390f35b6101da600480360360208110156101ae57600080fd5b81019080803573ffffffffffffffffffffffffffffffffffffffff16906020019092919050505061110f565b005b610222600480360360608110156101f257600080fd5b8101908080359060200190929190803560ff169060200190929190803560ff16906020019092919050505061121c565b604051808261ffff1661ffff16815260200191505060405180910390f35b61026f6004803603602081101561025657600080fd5b810190808035600f0b9060200190929190505050611541565b6040518083600f0b600f0b815260200182600f0b600f0b81526020019250505060405180910390f35b6102da600480360360208110156102ae57600080fd5b81019080803573ffffffffffffffffffffffffffffffffffffffff169060200190929190505050611961565b005b600080600160009054906101000a900473ffffffffffffffffffffffffffffffffffffffff1673ffffffffffffffffffffffffffffffffffffffff16634af5fb0f33326040518363ffffffff1660e01b8152600401808373ffffffffffffffffffffffffffffffffffffffff1673ffffffffffffffffffffffffffffffffffffffff1681526020018273ffffffffffffffffffffffffffffffffffffffff1673ffffffffffffffffffffffffffffffffffffffff1681526020019250505060206040518083038186803b1580156103b257600080fd5b505afa1580156103c6573d6000803e3d6000fd5b505050506040513d60208110156103dc57600080fd5b81019080805190602001909291905050506103f657600080fd5b61046f6503243f6a88866000036503243f6a88866104606040518060400160405280600581526020017f6178697379000000000000000000000000000000000000000000000000000000815250604051806020016040528089815250611b6e90919063ffffffff16565b611ca09092919063ffffffff16565b91506104e260006503243f6a88866104d36040518060400160405280600581526020017f6178697378000000000000000000000000000000000000000000000000000000815250604051806020016040528089815250611b6e90919063ffffffff16565b611ca09092919063ffffffff16565b9050915091565b6104f1611d5a565b73ffffffffffffffffffffffffffffffffffffffff166000809054906101000a900473ffffffffffffffffffffffffffffffffffffffff1673ffffffffffffffffffffffffffffffffffffffff16146105b2576040517f08c379a00000000000000000000000000000000000000000000000000000000081526004018080602001828103825260208152602001807f4f776e61626c653a2063616c6c6572206973206e6f7420746865206f776e657281525060200191505060405180910390fd5b600073ffffffffffffffffffffffffffffffffffffffff166000809054906101000a900473ffffffffffffffffffffffffffffffffffffffff1673ffffffffffffffffffffffffffffffffffffffff167f8be0079c531659141344cd1fd0a4f28419497f9722a3daafe3b4186f6b6457e060405160405180910390a360008060006101000a81548173ffffffffffffffffffffffffffffffffffffffff021916908373ffffffffffffffffffffffffffffffffffffffff160217905550565b60008060009054906101000a900473ffffffffffffffffffffffffffffffffffffffff16905090565b6000600160009054906101000a900473ffffffffffffffffffffffffffffffffffffffff1673ffffffffffffffffffffffffffffffffffffffff16634af5fb0f33326040518363ffffffff1660e01b8152600401808373ffffffffffffffffffffffffffffffffffffffff1673ffffffffffffffffffffffffffffffffffffffff1681526020018273ffffffffffffffffffffffffffffffffffffffff1673ffffffffffffffffffffffffffffffffffffffff1681526020019250505060206040518083038186803b15801561076f57600080fd5b505afa158015610783573d6000803e3d6000fd5b505050506040513d602081101561079957600080fd5b81019080805190602001909291905050506107b357600080fd5b6107bb6121f7565b604051806020016040528086815250905060006005808111156107da57fe5b8560058111156107e657fe5b14156109c85761083c6108376040518060400160405280600d81526020017f616363726574696f6e6469736b0000000000000000000000000000000000000081525084611b6e90919063ffffffff16565b611d62565b156109be576109b773__RealMath______________________________63f5a5d50360016040518263ffffffff1660e01b81526004018082600a0b815260200191505060206040518083038186803b15801561089757600080fd5b505af41580156108ab573d6000803e3d6000fd5b505050506040513d60208110156108c157600080fd5b810190808051906020019092919050505073__RealMath______________________________63f5a5d50360056040518263ffffffff1660e01b81526004018082600a0b815260200191505060206040518083038186803b15801561092557600080fd5b505af4158015610939573d6000803e3d6000fd5b505050506040513d602081101561094f57600080fd5b81019080805190602001909291905050506109a86040518060400160405280600a81526020017f6c756d696e6f736974790000000000000000000000000000000000000000000081525086611b6e90919063ffffffff16565b611ca09092919063ffffffff16565b90506109c3565b600090505b610ed4565b600460058111156109d557fe5b8560058111156109e157fe5b1415610b7c57610b7573__RealMath______________________________631dade0d4600160146040518363ffffffff1660e01b81526004018083600a0b815260200182600a0b81526020019250505060206040518083038186803b158015610a4957600080fd5b505af4158015610a5d573d6000803e3d6000fd5b505050506040513d6020811015610a7357600080fd5b810190808051906020019092919050505073__RealMath______________________________631dade0d46002600a6040518363ffffffff1660e01b81526004018083600a0b815260200182600a0b81526020019250505060206040518083038186803b158015610ae357600080fd5b505af4158015610af7573d6000803e3d6000fd5b505050506040513d6020811015610b0d57600080fd5b8101908080519060200190929190505050610b666040518060400160405280600a81526020017f6c756d696e6f736974790000000000000000000000000000000000000000000081525086611b6e90919063ffffffff16565b611ca09092919063ffffffff16565b9050610ed3565b60036005811115610b8957fe5b856005811115610b9557fe5b1415610d985773__RealMath______________________________634672f55585600f0b73__RealMath______________________________63b6972146909160016028600f0b6001600f0b6000821215610bec57fe5b901b600f0b901d6040518363ffffffff1660e01b81526004018083600f0b600f0b815260200182600f0b600f0b81526020019250505060206040518083038186803b158015610c3a57600080fd5b505af4158015610c4e573d6000803e3d6000fd5b505050506040513d6020811015610c6457600080fd5b810190808051906020019092919050505073__RealMath______________________________631dade0d46023600a6040518363ffffffff1660e01b81526004018083600a0b815260200182600a0b81526020019250505060206040518083038186803b158015610cd457600080fd5b505af4158015610ce8573d6000803e3d6000fd5b505050506040513d6020811015610cfe57600080fd5b81019080805190602001909291905050506040518363ffffffff1660e01b81526004018083600f0b600f0b815260200182600f0b600f0b81526020019250505060206040518083038186803b158015610d5657600080fd5b505af4158015610d6a573d6000803e3d6000fd5b505050506040513d6020811015610d8057600080fd5b81019080805190602001909291905050509050610ed2565b73__RealMath______________________________634672f5558573__RealMath______________________________631dade0d46023600a6040518363ffffffff1660e01b81526004018083600a0b815260200182600a0b81526020019250505060206040518083038186803b158015610e1257600080fd5b505af4158015610e26573d6000803e3d6000fd5b505050506040513d6020811015610e3c57600080fd5b81019080805190602001909291905050506040518363ffffffff1660e01b81526004018083600f0b600f0b815260200182600f0b600f0b81526020019250505060206040518083038186803b158015610e9457600080fd5b505af4158015610ea8573d6000803e3d6000fd5b505050506040513d6020811015610ebe57600080fd5b810190808051906020019092919050505090505b5b5b80600f0b73__RealMath______________________________63b6972146909161108273__RealMath______________________________631dade0d4605f60646040518363ffffffff1660e01b81526004018083600a0b815260200182600a0b81526020019250505060206040518083038186803b158015610f5657600080fd5b505af4158015610f6a573d6000803e3d6000fd5b505050506040513d6020811015610f8057600080fd5b810190808051906020019092919050505073__RealMath______________________________631dade0d4606960646040518363ffffffff1660e01b81526004018083600a0b815260200182600a0b81526020019250505060206040518083038186803b158015610ff057600080fd5b505af4158015611004573d6000803e3d6000fd5b505050506040513d602081101561101a57600080fd5b81019080805190602001909291905050506110736040518060400160405280600f81526020017f6c756d696e6f736974795363616c65000000000000000000000000000000000081525089611b6e90919063ffffffff16565b611ca09092919063ffffffff16565b6040518363ffffffff1660e01b81526004018083600f0b600f0b815260200182600f0b600f0b81526020019250505060206040518083038186803b1580156110c957600080fd5b505af41580156110dd573d6000803e3d6000fd5b505050506040513d60208110156110f357600080fd5b8101908080519060200190929190505050925050509392505050565b611117611d5a565b73ffffffffffffffffffffffffffffffffffffffff166000809054906101000a900473ffffffffffffffffffffffffffffffffffffffff1673ffffffffffffffffffffffffffffffffffffffff16146111d8576040517f08c379a00000000000000000000000000000000000000000000000000000000081526004018080602001828103825260208152602001807f4f776e61626c653a2063616c6c6572206973206e6f7420746865206f776e657281525060200191505060405180910390fd5b80600160006101000a81548173ffffffffffffffffffffffffffffffffffffffff021916908373ffffffffffffffffffffffffffffffffffffffff16021790555050565b6000600160009054906101000a900473ffffffffffffffffffffffffffffffffffffffff1673ffffffffffffffffffffffffffffffffffffffff16634af5fb0f33326040518363ffffffff1660e01b8152600401808373ffffffffffffffffffffffffffffffffffffffff1673ffffffffffffffffffffffffffffffffffffffff1681526020018273ffffffffffffffffffffffffffffffffffffffff1673ffffffffffffffffffffffffffffffffffffffff1681526020019250505060206040518083038186803b1580156112f157600080fd5b505afa158015611305573d6000803e3d6000fd5b505050506040513d602081101561131b57600080fd5b810190808051906020019092919050505061133557600080fd5b61133d6121f7565b6113936040518060400160405280600b81526020017f706c616e6574636f756e74000000000000000000000000000000000000000000815250604051806020016040528088815250611b6e90919063ffffffff16565b90506000600260058111156113a457fe5b8560058111156113b057fe5b14156114bd57600060078111156113c357fe5b8460078111156113cf57fe5b14806113f15750600160078111156113e357fe5b8460078111156113ef57fe5b145b156113ff57600590506114b8565b6002600781111561140c57fe5b84600781111561141857fe5b141561142757600790506114b7565b6003600781111561143457fe5b84600781111561144057fe5b148061146257506004600781111561145457fe5b84600781111561146057fe5b145b8061148357506005600781111561147557fe5b84600781111561148157fe5b145b1561149157600c90506114b6565b6006600781111561149e57fe5b8460078111156114aa57fe5b14156114b557600e90505b5b5b5b611514565b600160058111156114ca57fe5b8560058111156114d657fe5b14156114e55760029050611513565b600060058111156114f257fe5b8560058111156114fe57fe5b141561150d5760029050611512565b600290505b5b5b6000611532600180840161ffff1685611d7c9092919063ffffffff16565b90508093505050509392505050565b600080600160009054906101000a900473ffffffffffffffffffffffffffffffffffffffff1673ffffffffffffffffffffffffffffffffffffffff16634af5fb0f33326040518363ffffffff1660e01b8152600401808373ffffffffffffffffffffffffffffffffffffffff1673ffffffffffffffffffffffffffffffffffffffff1681526020018273ffffffffffffffffffffffffffffffffffffffff1673ffffffffffffffffffffffffffffffffffffffff1681526020019250505060206040518083038186803b15801561161757600080fd5b505afa15801561162b573d6000803e3d6000fd5b505050506040513d602081101561164157600080fd5b810190808051906020019092919050505061165b57600080fd5b600073__RealMath______________________________636e3daae4856040518263ffffffff1660e01b81526004018082600f0b600f0b815260200191505060206040518083038186803b1580156116b257600080fd5b505af41580156116c6573d6000803e3d6000fd5b505050506040513d60208110156116dc57600080fd5b8101908080519060200190929190505050905073__RealMath______________________________63f5a5d503641a1f8bb8006040518263ffffffff1660e01b81526004018082600a0b815260200191505060206040518083038186803b15801561174657600080fd5b505af415801561175a573d6000803e3d6000fd5b505050506040513d602081101561177057600080fd5b8101908080519060200190929190505050600f0b73__RealMath______________________________63b69721469091836040518363ffffffff1660e01b81526004018083600f0b600f0b815260200182600f0b600f0b81526020019250505060206040518083038186803b1580156117e857600080fd5b505af41580156117fc573d6000803e3d6000fd5b505050506040513d602081101561181257600080fd5b8101908080519060200190929190505050925073__RealMath______________________________63f5a5d5036445a97413206040518263ffffffff1660e01b81526004018082600a0b815260200191505060206040518083038186803b15801561187c57600080fd5b505af4158015611890573d6000803e3d6000fd5b505050506040513d60208110156118a657600080fd5b8101908080519060200190929190505050600f0b73__RealMath______________________________63b69721469091836040518363ffffffff1660e01b81526004018083600f0b600f0b815260200182600f0b600f0b81526020019250505060206040518083038186803b15801561191e57600080fd5b505af4158015611932573d6000803e3d6000fd5b505050506040513d602081101561194857600080fd5b8101908080519060200190929190505050915050915091565b611969611d5a565b73ffffffffffffffffffffffffffffffffffffffff166000809054906101000a900473ffffffffffffffffffffffffffffffffffffffff1673ffffffffffffffffffffffffffffffffffffffff1614611a2a576040517f08c379a00000000000000000000000000000000000000000000000000000000081526004018080602001828103825260208152602001807f4f776e61626c653a2063616c6c6572206973206e6f7420746865206f776e657281525060200191505060405180910390fd5b600073ffffffffffffffffffffffffffffffffffffffff168173ffffffffffffffffffffffffffffffffffffffff161415611ab0576040517f08c379a000000000000000000000000000000000000000000000000000000000815260040180806020018281038252602681526020018061220e6026913960400191505060405180910390fd5b8073ffffffffffffffffffffffffffffffffffffffff166000809054906101000a900473ffffffffffffffffffffffffffffffffffffffff1673ffffffffffffffffffffffffffffffffffffffff167f8be0079c531659141344cd1fd0a4f28419497f9722a3daafe3b4186f6b6457e060405160405180910390a3806000806101000a81548173ffffffffffffffffffffffffffffffffffffffff021916908373ffffffffffffffffffffffffffffffffffffffff16021790555050565b611b766121f7565b604051806020016040528060028560000151856040516020018083815260200182805190602001908083835b60208310611bc55780518252602082019150602081019050602083039250611ba2565b6001836020036101000a038019825116818451168082178552505050505050905001925050506040516020818303038152906040526040518082805190602001908083835b60208310611c2d5780518252602082019150602081019050602083039250611c0a565b6001836020036101000a038019825116818451168082178552505050505050905001915050602060405180830381855afa158015611c6f573d6000803e3d6000fd5b5050506040513d6020811015611c8457600080fd5b8101908080519060200190929190505050815250905092915050565b600082611cac85612072565b600f0b73__RealMath______________________________63b697214690918686036040518363ffffffff1660e01b81526004018083600f0b600f0b815260200182600f0b600f0b81526020019250505060206040518083038186803b158015611d1557600080fd5b505af4158015611d29573d6000803e3d6000fd5b505050506040513d6020811015611d3f57600080fd5b81019080805190602001909291905050500190509392505050565b600033905090565b6000806001611d7084612118565b60001c16119050919050565b600073__RealMath______________________________6315dbfe2873__RealMath______________________________63f5a5d503866040518263ffffffff1660e01b81526004018082600a0b600a0b815260200191505060206040518083038186803b158015611ded57600080fd5b505af4158015611e01573d6000803e3d6000fd5b505050506040513d6020811015611e1757600080fd5b8101908080519060200190929190505050611e3187612072565b600f0b73__RealMath______________________________63b6972146909173__RealMath______________________________63f5a5d5038a6040518263ffffffff1660e01b81526004018082600a0b600a0b815260200191505060206040518083038186803b158015611ea557600080fd5b505af4158015611eb9573d6000803e3d6000fd5b505050506040513d6020811015611ecf57600080fd5b810190808051906020019092919050505073__RealMath______________________________63f5a5d5038a6040518263ffffffff1660e01b81526004018082600a0b600a0b815260200191505060206040518083038186803b158015611f3557600080fd5b505af4158015611f49573d6000803e3d6000fd5b505050506040513d6020811015611f5f57600080fd5b8101908080519060200190929190505050036040518363ffffffff1660e01b81526004018083600f0b600f0b815260200182600f0b600f0b81526020019250505060206040518083038186803b158015611fb857600080fd5b505af4158015611fcc573d6000803e3d6000fd5b505050506040513d6020811015611fe257600080fd5b8101908080519060200190929190505050016040518263ffffffff1660e01b81526004018082600f0b600f0b815260200191505060206040518083038186803b15801561202e57600080fd5b505af4158015612042573d6000803e3d6000fd5b505050506040513d602081101561205857600080fd5b810190808051906020019092919050505090509392505050565b600061207d826121e2565b600f0b73__RealMath______________________________6384f1bd4e90916040518263ffffffff1660e01b81526004018082600f0b600f0b815260200191505060206040518083038186803b1580156120d657600080fd5b505af41580156120ea573d6000803e3d6000fd5b505050506040513d602081101561210057600080fd5b81019080805190602001909291905050509050919050565b600060028260000151604051602001808281526020019150506040516020818303038152906040526040518082805190602001908083835b602083106121735780518252602082019150602081019050602083039250612150565b6001836020036101000a038019825116818451168082178552505050505050905001915050602060405180830381855afa1580156121b5573d6000803e3d6000fd5b5050506040513d60208110156121ca57600080fd5b81019080805190602001909291905050509050919050565b60006121ed82612118565b60001c9050919050565b604051806020016040528060008019168152509056fe4f776e61626c653a206e6577206f776e657220697320746865207a65726f2061646472657373a2646970667358221220e822ab2cb16a1e18c8734e66c390a6a433efcd9ce6d4b65eda4293793586bb3864736f6c634300060a0033",
  "immutableReferences": {},
  "source": "pragma solidity ^0.6.10;\n\nimport \"./RNG.sol\";\nimport \"./RealMath.sol\";\n\nimport \"./AccessControl.sol\";\nimport \"./ControlledAccess.sol\";\n\nimport \"./MacroverseStarGenerator.sol\";\n\n/**\n * Provides extra methods not present in the original MacroverseStarGenerator\n * that generate new properties of the galaxy's stars. Meant to be deployed and\n * queried alongside the original.\n *\n * Permission to call methods on this contract is regulated by a configurable\n * AccessControl contract. One such set of terms might be to require that the\n * account initiating a transaction have a certain minimum MRV token balance.\n *\n * The owner of this contract reserves the right to supersede it with a new\n * version, and to modify the terms for accessing this contract, at any time,\n * for any reason, and without notice. This includes the right to indefinitely\n * or permanently suspend or terminate access to this contract for any person,\n * account, or other contract, or for all persons, accounts, or other\n * contracts. The owner also reserves the right to not do any of the above.\n */\ncontract MacroverseStarGeneratorPatch1 is ControlledAccess {\n    // TODO: RNG doesn't get linked against because we can't pass the struct to the library...\n    using RNG for *;\n    using RealMath for *;\n    // No SafeMath or it might confuse RealMath\n\n    /**@dev\n     * How many fractional bits are there?\n     */\n    int256 constant REAL_FBITS = 40;\n    \n    /**@dev\n     * What's the first non-fractional bit\n     */\n    int128 constant REAL_ONE = int128(1) << int128(REAL_FBITS);\n\n    /**@dev\n     * What's the last fractional bit?\n     */\n    int128 constant REAL_HALF = REAL_ONE >> 1;\n\n    /**@dev\n     * It is useful to have Pi around.\n     * We can't pull it in from the library.\n     */\n    int128 constant REAL_PI = 3454217652358;\n\n    /**\n     * Deploy a new copy of the patch generator.\n     * Use the contract at the given address to regulate access.\n     */\n    constructor(address accessControlAddress) ControlledAccess(accessControlAddress) public {\n        // Nothing to do!\n    }\n\n    /**\n     * If the object has any planets at all, get the planet count. Will return\n     * nonzero numbers always, so make sure to check getObjectHasPlanets in the\n     * Star Generator.\n     */\n    function getObjectPlanetCount(bytes32 starSeed, MacroverseStarGenerator.ObjectClass objectClass,\n        MacroverseStarGenerator.SpectralType spectralType) public view onlyControlledAccess returns (uint16) {\n        \n        RNG.RandNode memory node = RNG.RandNode(starSeed).derive(\"planetcount\");\n        \n        \n        uint16 limit;\n\n        if (objectClass == MacroverseStarGenerator.ObjectClass.MainSequence) {\n            if (spectralType == MacroverseStarGenerator.SpectralType.TypeO ||\n                spectralType == MacroverseStarGenerator.SpectralType.TypeB) {\n                \n                limit = 5;\n            } else if (spectralType == MacroverseStarGenerator.SpectralType.TypeA) {\n                limit = 7;\n            } else if (spectralType == MacroverseStarGenerator.SpectralType.TypeF ||\n                spectralType == MacroverseStarGenerator.SpectralType.TypeG ||\n                spectralType == MacroverseStarGenerator.SpectralType.TypeK) {\n                \n                limit = 12;\n            } else if (spectralType == MacroverseStarGenerator.SpectralType.TypeM) {\n                limit = 14;\n            }\n        } else if (objectClass == MacroverseStarGenerator.ObjectClass.Giant) {\n            limit = 2;\n        } else if (objectClass == MacroverseStarGenerator.ObjectClass.Supergiant) {\n            limit = 2;\n        } else {\n           // Black hole, neutron star, or white dwarf\n           limit = 2;\n        }\n        \n        uint16 roll = uint16(node.getIntBetween(1, int88(limit + 1)));\n        \n        return roll;\n    }\n\n    /**\n     * Compute the luminosity of a stellar object given its mass and class.\n     * We didn't define this in the star generator, but we need it for the planet generator.\n     *\n     * Returns luminosity in solar luminosities.\n     */\n    function getObjectLuminosity(bytes32 starSeed, MacroverseStarGenerator.ObjectClass objectClass, int128 realObjectMass) public view onlyControlledAccess returns (int128) {\n        \n        RNG.RandNode memory node = RNG.RandNode(starSeed);\n\n        int128 realBaseLuminosity;\n        if (objectClass == MacroverseStarGenerator.ObjectClass.BlackHole) {\n            // Black hole luminosity is going to be from the accretion disk.\n            // See <https://astronomy.stackexchange.com/q/12567>\n            // We'll return pretty much whatever and user code can back-fill the accretion disk if any.\n            if(node.derive(\"accretiondisk\").getBool()) {\n                // These aren't absurd masses; they're on the order of world annual food production per second.\n                realBaseLuminosity = node.derive(\"luminosity\").getRealBetween(RealMath.toReal(1), RealMath.toReal(5));\n            } else {\n                // No accretion disk\n                realBaseLuminosity = 0;\n            }\n        } else if (objectClass == MacroverseStarGenerator.ObjectClass.NeutronStar) {\n            // These will be dim and not really mass-related\n            realBaseLuminosity = node.derive(\"luminosity\").getRealBetween(RealMath.fraction(1, 20), RealMath.fraction(2, 10));\n        } else if (objectClass == MacroverseStarGenerator.ObjectClass.WhiteDwarf) {\n            // These are also dim\n            realBaseLuminosity = RealMath.pow(realObjectMass.mul(REAL_HALF), RealMath.fraction(35, 10));\n        } else {\n            // Normal stars follow a normal mass-lumoinosity relationship\n            realBaseLuminosity = RealMath.pow(realObjectMass, RealMath.fraction(35, 10));\n        }\n        \n        // Perturb the generated luminosity for fun\n        return realBaseLuminosity.mul(node.derive(\"luminosityScale\").getRealBetween(RealMath.fraction(95, 100), RealMath.fraction(105, 100)));\n    }\n\n    /**\n     * Get the inner and outer boundaries of the habitable zone for a star, in meters, based on its luminosity in solar luminosities.\n     * This is just a rule-of-thumb; actual habitability is going to depend on atmosphere (see Venus, Mars)\n     */\n    function getObjectHabitableZone(int128 realLuminosity) public view onlyControlledAccess returns (int128 realInnerRadius, int128 realOuterRadius) {\n        // Light per unit area scales with the square of the distance, so if we move twice as far out we get 1/4 the light.\n        // So if our star is half as bright as the sun, the habitable zone radius is 1/sqrt(2) = sqrt(1/2) as big\n        // So we scale this by the square root of the luminosity.\n        int128 realScale = RealMath.sqrt(realLuminosity);\n        // Wikipedia says nobody knows the bounds for Sol, but let's say 0.75 to 2.0 AU to be nice and round and also sort of average\n        realInnerRadius = RealMath.toReal(112198400000).mul(realScale);\n        realOuterRadius = RealMath.toReal(299195700000).mul(realScale);\n    }\n\n    /**\n     * Get the Y and X axis angles for the rotational axis of the object, relative to galactic up.\n     *\n     * Defines a vector normal to the XY plane for the star system's local\n     * coordinates, relative to which orbital inclinations are measured.\n     *\n     * The object's rotation axis starts straight up towards galactic +Z.\n     * Then the object is rotated in Y, around the axis by the Y angle.\n     * Then it is rotated forward (what would be toward the viewer) in the\n     * object's transformed X by the X axis angle.\n     * Both angles are in radians.\n     * The X angle is never negative, because the Y angle would just be the opposite direction.\n     * It is also never greater than Pi, because otherwise we would just measure around the other way.\n     *\n     * Most users won't need this unless they want to be able to work out\n     * directions from things in one system to other systems.\n     */\n    function getObjectYXAxisAngles(bytes32 seed) public view onlyControlledAccess returns (int128 realYRadians, int128 realXRadians) {\n        // The Y angle should be uniform over all angles.\n        realYRadians = RNG.RandNode(seed).derive(\"axisy\").getRealBetween(-REAL_PI, REAL_PI);\n\n        // The X angle will also be uniform from 0 to pi.\n        // This makes us pick a point in a flat 2d angle plane, so we will, on the sphere, have more density towards the poles.\n        // See http://corysimon.github.io/articles/uniformdistn-on-sphere/\n        // Being uniform on the sphere would require some trig, and non-uniformity makes sense since the galaxy has a preferred plane.\n        realXRadians = RNG.RandNode(seed).derive(\"axisx\").getRealBetween(0, REAL_PI);\n        \n    }\n\n    \n\n}\n\n// SPDX-License-Identifier: UNLICENSED\n",
  "sourcePath": "/z/home/anovak/workspace/macroverse/contracts/MacroverseStarGeneratorPatch1.sol",
  "compiler": {
    "name": "solc",
    "version": "0.6.10+commit.00c0fcaf.Emscripten.clang"
  },
  "schemaVersion": "3.1.0",
  "updatedAt": "2020-07-10T05:01:42.013Z",
  "devdoc": {
    "methods": {
      "owner()": {
        "details": "Returns the address of the current owner."
      },
      "renounceOwnership()": {
        "details": "Leaves the contract without owner. It will not be possible to call `onlyOwner` functions anymore. Can only be called by the current owner. NOTE: Renouncing ownership will leave the contract without an owner, thereby removing any functionality that is only available to the owner."
      },
      "transferOwnership(address)": {
        "details": "Transfers ownership of the contract to a new account (`newOwner`). Can only be called by the current owner."
      }
    },
    "stateVariables": {
      "REAL_FBITS": {
        "details": "How many fractional bits are there?"
      },
      "REAL_HALF": {
        "details": "What's the last fractional bit?"
      },
      "REAL_ONE": {
        "details": "What's the first non-fractional bit"
      },
      "REAL_PI": {
        "details": "It is useful to have Pi around. We can't pull it in from the library."
      }
    }
  },
  "userdoc": {
    "methods": {
      "changeAccessControl(address)": {
        "notice": "Change the access control strategy of the prototype."
      },
      "constructor": "Deploy a new copy of the patch generator. Use the contract at the given address to regulate access.",
      "getObjectHabitableZone(int128)": {
        "notice": "Get the inner and outer boundaries of the habitable zone for a star, in meters, based on its luminosity in solar luminosities. This is just a rule-of-thumb; actual habitability is going to depend on atmosphere (see Venus, Mars)"
      },
      "getObjectLuminosity(bytes32,uint8,int128)": {
        "notice": "Compute the luminosity of a stellar object given its mass and class. We didn't define this in the star generator, but we need it for the planet generator. Returns luminosity in solar luminosities."
      },
      "getObjectPlanetCount(bytes32,uint8,uint8)": {
        "notice": "If the object has any planets at all, get the planet count. Will return nonzero numbers always, so make sure to check getObjectHasPlanets in the Star Generator."
      },
      "getObjectYXAxisAngles(bytes32)": {
        "notice": "Get the Y and X axis angles for the rotational axis of the object, relative to galactic up. Defines a vector normal to the XY plane for the star system's local coordinates, relative to which orbital inclinations are measured. The object's rotation axis starts straight up towards galactic +Z. Then the object is rotated in Y, around the axis by the Y angle. Then it is rotated forward (what would be toward the viewer) in the object's transformed X by the X axis angle. Both angles are in radians. The X angle is never negative, because the Y angle would just be the opposite direction. It is also never greater than Pi, because otherwise we would just measure around the other way. Most users won't need this unless they want to be able to work out directions from things in one system to other systems."
      }
    },
    "notice": "Provides extra methods not present in the original MacroverseStarGenerator that generate new properties of the galaxy's stars. Meant to be deployed and queried alongside the original. Permission to call methods on this contract is regulated by a configurable AccessControl contract. One such set of terms might be to require that the account initiating a transaction have a certain minimum MRV token balance. The owner of this contract reserves the right to supersede it with a new version, and to modify the terms for accessing this contract, at any time, for any reason, and without notice. This includes the right to indefinitely or permanently suspend or terminate access to this contract for any person, account, or other contract, or for all persons, accounts, or other contracts. The owner also reserves the right to not do any of the above."
  }
}