{
  "contractName": "MacroverseMoonGenerator",
  "abi": [
    {
      "constant": false,
      "inputs": [],
      "name": "renounceOwnership",
      "outputs": [],
      "payable": false,
      "stateMutability": "nonpayable",
      "type": "function"
    },
    {
      "constant": true,
      "inputs": [],
      "name": "owner",
      "outputs": [
        {
          "name": "",
          "type": "address"
        }
      ],
      "payable": false,
      "stateMutability": "view",
      "type": "function"
    },
    {
      "constant": true,
      "inputs": [],
      "name": "isOwner",
      "outputs": [
        {
          "name": "",
          "type": "bool"
        }
      ],
      "payable": false,
      "stateMutability": "view",
      "type": "function"
    },
    {
      "constant": false,
      "inputs": [
        {
          "name": "newAccessControl",
          "type": "address"
        }
      ],
      "name": "changeAccessControl",
      "outputs": [],
      "payable": false,
      "stateMutability": "nonpayable",
      "type": "function"
    },
    {
      "constant": false,
      "inputs": [
        {
          "name": "newOwner",
          "type": "address"
        }
      ],
      "name": "transferOwnership",
      "outputs": [],
      "payable": false,
      "stateMutability": "nonpayable",
      "type": "function"
    },
    {
      "inputs": [
        {
          "name": "accessControlAddress",
          "type": "address"
        }
      ],
      "payable": false,
      "stateMutability": "nonpayable",
      "type": "constructor"
    },
    {
      "anonymous": false,
      "inputs": [
        {
          "indexed": true,
          "name": "previousOwner",
          "type": "address"
        },
        {
          "indexed": true,
          "name": "newOwner",
          "type": "address"
        }
      ],
      "name": "OwnershipTransferred",
      "type": "event"
    },
    {
      "constant": true,
      "inputs": [
        {
          "name": "planetSeed",
          "type": "bytes32"
        },
        {
          "name": "class",
          "type": "uint8"
        }
      ],
      "name": "getPlanetMoonCount",
      "outputs": [
        {
          "name": "",
          "type": "uint16"
        }
      ],
      "payable": false,
      "stateMutability": "view",
      "type": "function"
    },
    {
      "constant": true,
      "inputs": [
        {
          "name": "parent",
          "type": "uint8"
        },
        {
          "name": "moonSeed",
          "type": "bytes32"
        },
        {
          "name": "moonNumber",
          "type": "uint16"
        }
      ],
      "name": "getMoonClass",
      "outputs": [
        {
          "name": "",
          "type": "uint8"
        }
      ],
      "payable": false,
      "stateMutability": "view",
      "type": "function"
    },
    {
      "constant": true,
      "inputs": [
        {
          "name": "planetSeed",
          "type": "bytes32"
        },
        {
          "name": "planetRealMass",
          "type": "int128"
        }
      ],
      "name": "getPlanetMoonScale",
      "outputs": [
        {
          "name": "",
          "type": "int128"
        }
      ],
      "payable": false,
      "stateMutability": "view",
      "type": "function"
    },
    {
      "constant": true,
      "inputs": [
        {
          "name": "planetMoonScale",
          "type": "int128"
        },
        {
          "name": "seed",
          "type": "bytes32"
        },
        {
          "name": "class",
          "type": "uint8"
        },
        {
          "name": "realPrevClearance",
          "type": "int128"
        }
      ],
      "name": "getMoonOrbitDimensions",
      "outputs": [
        {
          "name": "realPeriapsis",
          "type": "int128"
        },
        {
          "name": "realApoapsis",
          "type": "int128"
        },
        {
          "name": "realClearance",
          "type": "int128"
        }
      ],
      "payable": false,
      "stateMutability": "view",
      "type": "function"
    },
    {
      "constant": true,
      "inputs": [
        {
          "name": "seed",
          "type": "bytes32"
        },
        {
          "name": "class",
          "type": "uint8"
        }
      ],
      "name": "getMoonInclination",
      "outputs": [
        {
          "name": "real_inclination",
          "type": "int128"
        }
      ],
      "payable": false,
      "stateMutability": "view",
      "type": "function"
    }
  ],
  "bytecode": "0x608060405234801561001057600080fd5b506040516020806133988339810180604052810190808051906020019092919050505080336000806101000a81548173ffffffffffffffffffffffffffffffffffffffff021916908373ffffffffffffffffffffffffffffffffffffffff1602179055506000809054906101000a900473ffffffffffffffffffffffffffffffffffffffff1673ffffffffffffffffffffffffffffffffffffffff16600073ffffffffffffffffffffffffffffffffffffffff167f8be0079c531659141344cd1fd0a4f28419497f9722a3daafe3b4186f6b6457e060405160405180910390a380600160006101000a81548173ffffffffffffffffffffffffffffffffffffffff021916908373ffffffffffffffffffffffffffffffffffffffff1602179055505050613256806101426000396000f3006080604052600436106100a4576000357c0100000000000000000000000000000000000000000000000000000000900463ffffffff1680632b0837b4146100a95780633330fb5114610103578063406229231461015b578063715018a6146101e75780637928f06d146101fe5780638da5cb5b146102565780638f32d59b146102ad5780639387730c146102dc578063a1ea93331461031f578063f2fde38b1461038d575b600080fd5b3480156100b557600080fd5b506100e56004803603810190808035600019169060200190929190803560ff1690602001909291905050506103d0565b604051808261ffff1661ffff16815260200191505060405180910390f35b34801561010f57600080fd5b5061013f60048036038101908080356000191690602001909291908035600f0b90602001909291905050506106e0565b6040518082600f0b600f0b815260200191505060405180910390f35b34801561016757600080fd5b506101b16004803603810190808035600f0b90602001909291908035600019169060200190929190803560ff1690602001909291908035600f0b9060200190929190505050610f46565b6040518084600f0b600f0b815260200183600f0b600f0b815260200182600f0b600f0b8152602001935050505060405180910390f35b3480156101f357600080fd5b506101fc611d88565b005b34801561020a57600080fd5b5061023a6004803603810190808035600019169060200190929190803560ff169060200190929190505050611e5a565b6040518082600f0b600f0b815260200191505060405180910390f35b34801561026257600080fd5b5061026b6123de565b604051808273ffffffffffffffffffffffffffffffffffffffff1673ffffffffffffffffffffffffffffffffffffffff16815260200191505060405180910390f35b3480156102b957600080fd5b506102c2612407565b604051808215151515815260200191505060405180910390f35b3480156102e857600080fd5b5061031d600480360381019080803573ffffffffffffffffffffffffffffffffffffffff16906020019092919050505061245e565b005b34801561032b57600080fd5b50610369600480360381019080803560ff1690602001909291908035600019169060200190929190803561ffff1690602001909291905050506124b5565b6040518082600981111561037957fe5b60ff16815260200191505060405180910390f35b34801561039957600080fd5b506103ce600480360381019080803573ffffffffffffffffffffffffffffffffffffffff169060200190929190505050612839565b005b6000806000806103de613213565b6000600160009054906101000a900473ffffffffffffffffffffffffffffffffffffffff1673ffffffffffffffffffffffffffffffffffffffff16634af5fb0f33326040518363ffffffff167c0100000000000000000000000000000000000000000000000000000000028152600401808373ffffffffffffffffffffffffffffffffffffffff1673ffffffffffffffffffffffffffffffffffffffff1681526020018273ffffffffffffffffffffffffffffffffffffffff1673ffffffffffffffffffffffffffffffffffffffff16815260200192505050602060405180830381600087803b1580156104d157600080fd5b505af11580156104e5573d6000803e3d6000fd5b505050506040513d60208110156104fb57600080fd5b8101908080519060200190929190505050151561051757600080fd5b60029350600192506001600981111561052c57fe5b87600981111561053857fe5b148061055a57506005600981111561054c57fe5b87600981111561055857fe5b145b1561056c576002945060029250610644565b6002600981111561057957fe5b87600981111561058557fe5b14806105a757506006600981111561059957fe5b8760098111156105a557fe5b145b156105b55760039450610643565b600760098111156105c257fe5b8760098111156105ce57fe5b14156105e557600894506002935060029250610642565b600360098111156105f257fe5b8760098111156105fe57fe5b141561061557600694506003935060029250610641565b60098081111561062157fe5b87600981111561062d57fe5b141561063c57600095506106d5565b600080fd5b5b5b5b61069f6040805190810160405280600981526020017f6d6f6f6e636f756e7400000000000000000000000000000000000000000000008152506020604051908101604052808b6000191681525061285890919063ffffffff16565b91508260000b600a0b6106c28587876000038661299d909392919063ffffffff16565b60010b8115156106ce57fe5b0590508095505b505050505092915050565b60006106ea613213565b600080600160009054906101000a900473ffffffffffffffffffffffffffffffffffffffff1673ffffffffffffffffffffffffffffffffffffffff16634af5fb0f33326040518363ffffffff167c0100000000000000000000000000000000000000000000000000000000028152600401808373ffffffffffffffffffffffffffffffffffffffff1673ffffffffffffffffffffffffffffffffffffffff1681526020018273ffffffffffffffffffffffffffffffffffffffff1673ffffffffffffffffffffffffffffffffffffffff16815260200192505050602060405180830381600087803b1580156107de57600080fd5b505af11580156107f2573d6000803e3d6000fd5b505050506040513d602081101561080857600080fd5b8101908080519060200190929190505050151561082457600080fd5b61087f6040805190810160405280600981526020017f6d6f6f6e7363616c650000000000000000000000000000000000000000000000815250602060405190810160405280896000191681525061285890919063ffffffff16565b925084600f0b73__RealMath______________________________63b697214690916e0143c0e7a8a2bd3025de76267000006040518363ffffffff167c01000000000000000000000000000000000000000000000000000000000281526004018083600f0b600f0b815260200182600f0b600f0b81526020019250505060206040518083038186803b15801561091457600080fd5b505af4158015610928573d6000803e3d6000fd5b505050506040513d602081101561093e57600080fd5b8101908080519060200190929190505050915081600f0b73__RealMath______________________________6325f39a6390916503243f6a8886600f0b73__RealMath______________________________63b6972146909173__RealMath______________________________631dade0d4600460036040518363ffffffff167c01000000000000000000000000000000000000000000000000000000000281526004018083600a0b815260200182600a0b81526020019250505060206040518083038186803b158015610a1257600080fd5b505af4158015610a26573d6000803e3d6000fd5b505050506040513d6020811015610a3c57600080fd5b81019080805190602001909291905050506040518363ffffffff167c01000000000000000000000000000000000000000000000000000000000281526004018083600f0b600f0b815260200182600f0b600f0b81526020019250505060206040518083038186803b158015610ab057600080fd5b505af4158015610ac4573d6000803e3d6000fd5b505050506040513d6020811015610ada57600080fd5b81019080805190602001909291905050506040518363ffffffff167c01000000000000000000000000000000000000000000000000000000000281526004018083600f0b600f0b815260200182600f0b600f0b81526020019250505060206040518083038186803b158015610b4e57600080fd5b505af4158015610b62573d6000803e3d6000fd5b505050506040513d6020811015610b7857600080fd5b8101908080519060200190929190505050600f0b73__RealMath______________________________634672f555909173__RealMath______________________________631dade0d4600160036040518363ffffffff167c01000000000000000000000000000000000000000000000000000000000281526004018083600a0b815260200182600a0b81526020019250505060206040518083038186803b158015610c2357600080fd5b505af4158015610c37573d6000803e3d6000fd5b505050506040513d6020811015610c4d57600080fd5b81019080805190602001909291905050506040518363ffffffff167c01000000000000000000000000000000000000000000000000000000000281526004018083600f0b600f0b815260200182600f0b600f0b81526020019250505060206040518083038186803b158015610cc157600080fd5b505af4158015610cd5573d6000803e3d6000fd5b505050506040513d6020811015610ceb57600080fd5b8101908080519060200190929190505050905080600f0b73__RealMath______________________________63b69721469091610e9d73__RealMath______________________________631dade0d4600560026040518363ffffffff167c01000000000000000000000000000000000000000000000000000000000281526004018083600a0b815260200182600a0b81526020019250505060206040518083038186803b158015610d9c57600080fd5b505af4158015610db0573d6000803e3d6000fd5b505050506040513d6020811015610dc657600080fd5b810190808051906020019092919050505073__RealMath______________________________631dade0d4600760026040518363ffffffff167c01000000000000000000000000000000000000000000000000000000000281526004018083600a0b815260200182600a0b81526020019250505060206040518083038186803b158015610e5257600080fd5b505af4158015610e66573d6000803e3d6000fd5b505050506040513d6020811015610e7c57600080fd5b810190808051906020019092919050505088612a1b9092919063ffffffff16565b6040518363ffffffff167c01000000000000000000000000000000000000000000000000000000000281526004018083600f0b600f0b815260200182600f0b600f0b81526020019250505060206040518083038186803b158015610f0057600080fd5b505af4158015610f14573d6000803e3d6000fd5b505050506040513d6020811015610f2a57600080fd5b8101908080519060200190929190505050935050505092915050565b6000806000610f53613213565b600160009054906101000a900473ffffffffffffffffffffffffffffffffffffffff1673ffffffffffffffffffffffffffffffffffffffff16634af5fb0f33326040518363ffffffff167c0100000000000000000000000000000000000000000000000000000000028152600401808373ffffffffffffffffffffffffffffffffffffffff1673ffffffffffffffffffffffffffffffffffffffff1681526020018273ffffffffffffffffffffffffffffffffffffffff1673ffffffffffffffffffffffffffffffffffffffff16815260200192505050602060405180830381600087803b15801561104457600080fd5b505af1158015611058573d6000803e3d6000fd5b505050506040513d602081101561106e57600080fd5b8101908080519060200190929190505050151561108a57600080fd5b60206040519081016040528088600019168152509050600860098111156110ad57fe5b8660098111156110b957fe5b14156116945787600f0b73__RealMath______________________________63b69721469091600160286001600f0b60008212156110f357fe5b9060020a02600f0b9060020a90056040518363ffffffff167c01000000000000000000000000000000000000000000000000000000000281526004018083600f0b600f0b815260200182600f0b600f0b81526020019250505060206040518083038186803b15801561116457600080fd5b505af4158015611178573d6000803e3d6000fd5b505050506040513d602081101561118e57600080fd5b8101908080519060200190929190505050600f0b73__RealMath______________________________63b6972146909161125060286001600f0b60008212156111d357fe5b9060020a02600160286001600f0b60008212156111ec57fe5b9060020a02600f0b9060020a026112416040805190810160405280600981526020017f72696e67737461727400000000000000000000000000000000000000000000008152508861285890919063ffffffff16565b612a1b9092919063ffffffff16565b6040518363ffffffff167c01000000000000000000000000000000000000000000000000000000000281526004018083600f0b600f0b815260200182600f0b600f0b81526020019250505060206040518083038186803b1580156112b357600080fd5b505af41580156112c7573d6000803e3d6000fd5b505050506040513d60208110156112dd57600080fd5b81019080805190602001909291905050508501935083600f0b73__RealMath______________________________63b697214690916113af600160286001600f0b600082121561132957fe5b9060020a02600f0b9060020a9005600160286001600f0b600082121561134b57fe5b9060020a02600f0b9060020a026113a06040805190810160405280600981526020017f72696e67776964746800000000000000000000000000000000000000000000008152508861285890919063ffffffff16565b612a1b9092919063ffffffff16565b6040518363ffffffff167c01000000000000000000000000000000000000000000000000000000000281526004018083600f0b600f0b815260200182600f0b600f0b81526020019250505060206040518083038186803b15801561141257600080fd5b505af4158015611426573d6000803e3d6000fd5b505050506040513d602081101561143c57600080fd5b81019080805190602001909291905050508401925087600f0b73__RealMath______________________________63b69721469091600160286001600f0b600082121561148557fe5b9060020a02600f0b9060020a90056040518363ffffffff167c01000000000000000000000000000000000000000000000000000000000281526004018083600f0b600f0b815260200182600f0b600f0b81526020019250505060206040518083038186803b1580156114f657600080fd5b505af415801561150a573d6000803e3d6000fd5b505050506040513d602081101561152057600080fd5b8101908080519060200190929190505050600f0b73__RealMath______________________________63b697214690916115ed600160286001600f0b600082121561156757fe5b9060020a02600f0b9060020a9005600160286001600f0b600082121561158957fe5b9060020a02600f0b9060020a026115de6040805190810160405280600981526020017f72696e67636c65617200000000000000000000000000000000000000000000008152508861285890919063ffffffff16565b612a1b9092919063ffffffff16565b6040518363ffffffff167c01000000000000000000000000000000000000000000000000000000000281526004018083600f0b600f0b815260200182600f0b600f0b81526020019250505060206040518083038186803b15801561165057600080fd5b505af4158015611664573d6000803e3d6000fd5b505050506040513d602081101561167a57600080fd5b810190808051906020019092919050505083019150611d7d565b87600f0b73__RealMath______________________________63b69721469091611747600160286001600f0b60008212156116cb57fe5b9060020a02600f0b9060020a900560286001600f0b60008212156116eb57fe5b9060020a026117386040805190810160405280600981526020017f70657269617073697300000000000000000000000000000000000000000000008152508861285890919063ffffffff16565b612a1b9092919063ffffffff16565b6040518363ffffffff167c01000000000000000000000000000000000000000000000000000000000281526004018083600f0b600f0b815260200182600f0b600f0b81526020019250505060206040518083038186803b1580156117aa57600080fd5b505af41580156117be573d6000803e3d6000fd5b505050506040513d60208110156117d457600080fd5b81019080805190602001909291905050508501935083600f0b73__RealMath______________________________63b6972146909161193060286001600f0b600082121561181e57fe5b9060020a0273__RealMath______________________________631dade0d4607860646040518363ffffffff167c01000000000000000000000000000000000000000000000000000000000281526004018083600a0b815260200182600a0b81526020019250505060206040518083038186803b15801561189e57600080fd5b505af41580156118b2573d6000803e3d6000fd5b505050506040513d60208110156118c857600080fd5b81019080805190602001909291905050506119216040805190810160405280600881526020017f61706f61707369730000000000000000000000000000000000000000000000008152508861285890919063ffffffff16565b612a1b9092919063ffffffff16565b6040518363ffffffff167c01000000000000000000000000000000000000000000000000000000000281526004018083600f0b600f0b815260200182600f0b600f0b81526020019250505060206040518083038186803b15801561199357600080fd5b505af41580156119a7573d6000803e3d6000fd5b505050506040513d60208110156119bd57600080fd5b81019080805190602001909291905050509250600060098111156119dd57fe5b8660098111156119e957fe5b1480611a0b5750600460098111156119fd57fe5b866009811115611a0957fe5b145b15611af657838303600f0b73__RealMath______________________________63b69721469091600160286001600f0b6000821215611a4657fe5b9060020a02600f0b9060020a026040518363ffffffff167c01000000000000000000000000000000000000000000000000000000000281526004018083600f0b600f0b815260200182600f0b600f0b81526020019250505060206040518083038186803b158015611ab657600080fd5b505af4158015611aca573d6000803e3d6000fd5b505050506040513d6020811015611ae057600080fd5b8101908080519060200190929190505050830192505b82600f0b73__RealMath______________________________63b69721469091611cdc73__RealMath______________________________631dade0d4606e60646040518363ffffffff167c01000000000000000000000000000000000000000000000000000000000281526004018083600a0b815260200182600a0b81526020019250505060206040518083038186803b158015611b9457600080fd5b505af4158015611ba8573d6000803e3d6000fd5b505050506040513d6020811015611bbe57600080fd5b810190808051906020019092919050505073__RealMath______________________________631dade0d4608260646040518363ffffffff167c01000000000000000000000000000000000000000000000000000000000281526004018083600a0b815260200182600a0b81526020019250505060206040518083038186803b158015611c4a57600080fd5b505af4158015611c5e573d6000803e3d6000fd5b505050506040513d6020811015611c7457600080fd5b8101908080519060200190929190505050611ccd6040805190810160405280600981526020017f636c656172616e636500000000000000000000000000000000000000000000008152508861285890919063ffffffff16565b612a1b9092919063ffffffff16565b6040518363ffffffff167c01000000000000000000000000000000000000000000000000000000000281526004018083600f0b600f0b815260200182600f0b600f0b81526020019250505060206040518083038186803b158015611d3f57600080fd5b505af4158015611d53573d6000803e3d6000fd5b505050506040513d6020811015611d6957600080fd5b810190808051906020019092919050505091505b509450945094915050565b611d90612407565b1515611d9b57600080fd5b600073ffffffffffffffffffffffffffffffffffffffff166000809054906101000a900473ffffffffffffffffffffffffffffffffffffffff1673ffffffffffffffffffffffffffffffffffffffff167f8be0079c531659141344cd1fd0a4f28419497f9722a3daafe3b4186f6b6457e060405160405180910390a360008060006101000a81548173ffffffffffffffffffffffffffffffffffffffff021916908373ffffffffffffffffffffffffffffffffffffffff160217905550565b6000611e64613213565b6000600160009054906101000a900473ffffffffffffffffffffffffffffffffffffffff1673ffffffffffffffffffffffffffffffffffffffff16634af5fb0f33326040518363ffffffff167c0100000000000000000000000000000000000000000000000000000000028152600401808373ffffffffffffffffffffffffffffffffffffffff1673ffffffffffffffffffffffffffffffffffffffff1681526020018273ffffffffffffffffffffffffffffffffffffffff1673ffffffffffffffffffffffffffffffffffffffff16815260200192505050602060405180830381600087803b158015611f5757600080fd5b505af1158015611f6b573d6000803e3d6000fd5b505050506040513d6020811015611f8157600080fd5b81019080805190602001909291905050501515611f9d57600080fd5b611ff86040805190810160405280600b81526020017f696e636c696e6174696f6e000000000000000000000000000000000000000000815250602060405190810160405280886000191681525061285890919063ffffffff16565b91506000600981111561200757fe5b84600981111561201357fe5b148061203557506004600981111561202757fe5b84600981111561203357fe5b145b15612044576103529050612130565b6001600981111561205157fe5b84600981111561205d57fe5b148061207f57506005600981111561207157fe5b84600981111561207d57fe5b145b1561208d576064905061212f565b6002600981111561209a57fe5b8460098111156120a657fe5b14806120c85750600660098111156120ba57fe5b8460098111156120c657fe5b145b156120d6576050905061212e565b600760098111156120e357fe5b8460098111156120ef57fe5b14156120fe576032905061212d565b6008600981111561210b57fe5b84600981111561211757fe5b14156121275761015e905061212c565b600080fd5b5b5b5b5b6121f1600073__RealMath______________________________63f5a5d503846040518263ffffffff167c01000000000000000000000000000000000000000000000000000000000281526004018082600a0b600a0b815260200191505060206040518083038186803b1580156121a657600080fd5b505af41580156121ba573d6000803e3d6000fd5b505050506040513d60208110156121d057600080fd5b810190808051906020019092919050505084612a1b9092919063ffffffff16565b600f0b73__RealMath______________________________6325f39a63909173__RealMath______________________________63f5a5d5036103e86040518263ffffffff167c01000000000000000000000000000000000000000000000000000000000281526004018082600a0b815260200191505060206040518083038186803b15801561228057600080fd5b505af4158015612294573d6000803e3d6000fd5b505050506040513d60208110156122aa57600080fd5b81019080805190602001909291905050506040518363ffffffff167c01000000000000000000000000000000000000000000000000000000000281526004018083600f0b600f0b815260200182600f0b600f0b81526020019250505060206040518083038186803b15801561231e57600080fd5b505af4158015612332573d6000803e3d6000fd5b505050506040513d602081101561234857600080fd5b81019080805190602001909291905050509250600a6123be6001606460006123ae6040805190810160405280600a81526020017f726574726f6772616465000000000000000000000000000000000000000000008152508861285890919063ffffffff16565b61299d909392919063ffffffff16565b60010b12156123d357826503243f6a88860392505b829250505092915050565b60008060009054906101000a900473ffffffffffffffffffffffffffffffffffffffff16905090565b60008060009054906101000a900473ffffffffffffffffffffffffffffffffffffffff1673ffffffffffffffffffffffffffffffffffffffff163373ffffffffffffffffffffffffffffffffffffffff1614905090565b612466612407565b151561247157600080fd5b80600160006101000a81548173ffffffffffffffffffffffffffffffffffffffff021916908373ffffffffffffffffffffffffffffffffffffffff16021790555050565b60006124bf613213565b6000806000806000600160009054906101000a900473ffffffffffffffffffffffffffffffffffffffff1673ffffffffffffffffffffffffffffffffffffffff16634af5fb0f33326040518363ffffffff167c0100000000000000000000000000000000000000000000000000000000028152600401808373ffffffffffffffffffffffffffffffffffffffff1673ffffffffffffffffffffffffffffffffffffffff1681526020018273ffffffffffffffffffffffffffffffffffffffff1673ffffffffffffffffffffffffffffffffffffffff16815260200192505050602060405180830381600087803b1580156125b857600080fd5b505af11580156125cc573d6000803e3d6000fd5b505050506040513d60208110156125e257600080fd5b810190808051906020019092919050505015156125fe57600080fd5b6020604051908101604052808a60001916815250955060008861ffff1614801561268b575060146126866001606460006126766040805190810160405280600481526020017f72696e67000000000000000000000000000000000000000000000000000000008152508c61285890919063ffffffff16565b61299d909392919063ffffffff16565b60010b125b15612699576008965061282c565b601e6126fc6001606460006126ec6040805190810160405280600981526020017f63726f73737479706500000000000000000000000000000000000000000000008152508c61285890919063ffffffff16565b61299d909392919063ffffffff16565b60010b12945060048a600981111561271057fe5b81151561271957fe5b04935060048a600981111561272a57fe5b81151561273357fe5b0692506003600981111561274357fe5b8a600981111561274f57fe5b1480156127595750845b156127675782806001019350505b60026127e86002857fffffffffffffffffffffffffffffffffffffffffffffffffffffffffffffffff6127d86040805190810160405280600481526020017f72616e6b000000000000000000000000000000000000000000000000000000008152508c61285890919063ffffffff16565b61299d909392919063ffffffff16565b60010b8115156127f457fe5b0560010b9150846128145760026001850181151561280e57fe5b06612816565b835b9050816004820201600981111561282957fe5b96505b5050505050509392505050565b612841612407565b151561284c57600080fd5b61285581612af1565b50565b612860613213565b602060405190810160405280600285600001518560405160200180836000191660001916815260200182805190602001908083835b6020831015156128ba5780518252602082019150602081019050602083039250612895565b6001836020036101000a038019825116818451168082178552505050505050905001925050506040516020818303038152906040526040518082805190602001908083835b60208310151561292457805182526020820191506020810190506020830392506128ff565b6001836020036101000a0380198251168184511680821785525050505050509050019150506020604051808303816000865af1158015612968573d6000803e3d6000fd5b5050506040513d602081101561297d57600080fd5b810190808051906020019092919050505060001916815250905092915050565b600080600060018660000b14156129c9578360000b6129c18860018860000b612beb565b019250612a11565b8360000b9150600090505b8560000b8160000b1215612a0d576129fc6129f2888360000b612f6d565b600187600061299d565b8201915080806001019150506129d4565b8192505b5050949350505050565b600082612a2785613065565b600f0b73__RealMath______________________________63b697214690918686036040518363ffffffff167c01000000000000000000000000000000000000000000000000000000000281526004018083600f0b600f0b815260200182600f0b600f0b81526020019250505060206040518083038186803b158015612aac57600080fd5b505af4158015612ac0573d6000803e3d6000fd5b505050506040513d6020811015612ad657600080fd5b81019080805190602001909291905050500190509392505050565b600073ffffffffffffffffffffffffffffffffffffffff168173ffffffffffffffffffffffffffffffffffffffff1614151515612b2d57600080fd5b8073ffffffffffffffffffffffffffffffffffffffff166000809054906101000a900473ffffffffffffffffffffffffffffffffffffffff1673ffffffffffffffffffffffffffffffffffffffff167f8be0079c531659141344cd1fd0a4f28419497f9722a3daafe3b4186f6b6457e060405160405180910390a3806000806101000a81548173ffffffffffffffffffffffffffffffffffffffff021916908373ffffffffffffffffffffffffffffffffffffffff16021790555050565b600073__RealMath______________________________6315dbfe2873__RealMath______________________________63f5a5d503866040518263ffffffff167c01000000000000000000000000000000000000000000000000000000000281526004018082600a0b600a0b815260200191505060206040518083038186803b158015612c7857600080fd5b505af4158015612c8c573d6000803e3d6000fd5b505050506040513d6020811015612ca257600080fd5b8101908080519060200190929190505050612cbc87613065565b600f0b73__RealMath______________________________63b6972146909173__RealMath______________________________63f5a5d5038a6040518263ffffffff167c01000000000000000000000000000000000000000000000000000000000281526004018082600a0b600a0b815260200191505060206040518083038186803b158015612d4c57600080fd5b505af4158015612d60573d6000803e3d6000fd5b505050506040513d6020811015612d7657600080fd5b810190808051906020019092919050505073__RealMath______________________________63f5a5d5038a6040518263ffffffff167c01000000000000000000000000000000000000000000000000000000000281526004018082600a0b600a0b815260200191505060206040518083038186803b158015612df857600080fd5b505af4158015612e0c573d6000803e3d6000fd5b505050506040513d6020811015612e2257600080fd5b8101908080519060200190929190505050036040518363ffffffff167c01000000000000000000000000000000000000000000000000000000000281526004018083600f0b600f0b815260200182600f0b600f0b81526020019250505060206040518083038186803b158015612e9757600080fd5b505af4158015612eab573d6000803e3d6000fd5b505050506040513d6020811015612ec157600080fd5b8101908080519060200190929190505050016040518263ffffffff167c01000000000000000000000000000000000000000000000000000000000281526004018082600f0b600f0b815260200191505060206040518083038186803b158015612f2957600080fd5b505af4158015612f3d573d6000803e3d6000fd5b505050506040513d6020811015612f5357600080fd5b810190808051906020019092919050505090509392505050565b612f75613213565b6020604051908101604052806002856000015185604051602001808360001916600019168152602001828152602001925050506040516020818303038152906040526040518082805190602001908083835b602083101515612fec5780518252602082019150602081019050602083039250612fc7565b6001836020036101000a0380198251168184511680821785525050505050509050019150506020604051808303816000865af1158015613030573d6000803e3d6000fd5b5050506040513d602081101561304557600080fd5b810190808051906020019092919050505060001916815250905092915050565b600061307082613127565b600f0b73__RealMath______________________________6384f1bd4e90916040518263ffffffff167c01000000000000000000000000000000000000000000000000000000000281526004018082600f0b600f0b815260200191505060206040518083038186803b1580156130e557600080fd5b505af41580156130f9573d6000803e3d6000fd5b505050506040513d602081101561310f57600080fd5b81019080805190602001909291905050509050919050565b60006131328261313d565b600190049050919050565b6000600282600001516040516020018082600019166000191681526020019150506040516020818303038152906040526040518082805190602001908083835b6020831015156131a2578051825260208201915060208101905060208303925061317d565b6001836020036101000a0380198251168184511680821785525050505050509050019150506020604051808303816000865af11580156131e6573d6000803e3d6000fd5b5050506040513d60208110156131fb57600080fd5b81019080805190602001909291905050509050919050565b6020604051908101604052806000801916815250905600a165627a7a72305820f203d647587b2c8cbc682406e2e8e583077d135af7fddec3539bed1184ac09d20029",
  "source": "pragma solidity ^0.4.24;\n\nimport \"./RNG.sol\";\nimport \"./RealMath.sol\";\n\nimport \"./AccessControl.sol\";\nimport \"./ControlledAccess.sol\";\n\nimport \"./MacroverseStarGenerator.sol\";\nimport \"./MacroverseSystemGenerator.sol\";\n\n/**\n * Represents a Macroverse generator for moons around planets.\n *\n * Not part of the system generator to keep it from going over the contract\n * size limit.\n *\n * Permission to call methods on this contract is regulated by a configurable\n * AccessControl contract. One such set of terms might be to require that the\n * account initiating a transaction have a certain minimum MRV token balance.\n *\n * The owner of this contract reserves the right to supersede it with a new\n * version, and to modify the terms for accessing this contract, at any time,\n * for any reason, and without notice. This includes the right to indefinitely\n * or permanently suspend or terminate access to this contract for any person,\n * account, or other contract, or for all persons, accounts, or other\n * contracts. The owner also reserves the right to not do any of the above.\n */\ncontract MacroverseMoonGenerator is ControlledAccess {\n    // TODO: RNG doesn't get linked against because we can't pass the struct to the library...\n    using RNG for *;\n    using RealMath for *;\n    // No SafeMath or it might confuse RealMath\n\n    /**\n     * It is useful to have Pi around.\n     * We can't pull it in from the library.\n     */\n    int128 constant REAL_PI = 3454217652358;\n\n    /**\n     * How many fractional bits are there?\n     */\n    int256 constant REAL_FBITS = 40;\n\n    /**\n     * What's the first non-fractional bit\n     */\n    int128 constant REAL_ONE = int128(1) << REAL_FBITS;\n    \n    /**\n     * What's the last fractional bit?\n     */\n    int128 constant REAL_HALF = REAL_ONE >> 1;\n    \n    /**\n     * What's two? Two is pretty useful.\n     */\n    int128 constant REAL_TWO = REAL_ONE << 1;\n\n    /**\n     * For having moons, we need to be able to run the orbit calculations (all\n     * specified in solar masses for the central mass) on\n     * Earth-mass-denominated planet masses.\n     * See the \"Equivalent Planetary masses\" table at https://en.wikipedia.org/wiki/Astronomical_system_of_units\n     */\n    int256 constant EARTH_MASSES_PER_SOLAR_MASS = 332950;\n\n    /**\n     * We define the number of earth masses per solar mass as a real, so we don't have to convert it always.\n     */\n    int128 constant REAL_EARTH_MASSES_PER_SOLAR_MASS = int128(EARTH_MASSES_PER_SOLAR_MASS) * REAL_ONE; \n\n    /**\n     * We also keep a \"stowage factor\" for planetary material in m^3 per earth mass, at water density, for\n     * faking planetary radii during moon orbit calculations.\n     */\n    int128 constant REAL_M3_PER_EARTH = 6566501804087548000000000000000000; // 6.566501804087548E33 as an int, 5.97219E21 m^3/earth\n\n    /**\n     * Deploy a new copy of the MacroverseMoonGenerator.\n     */\n    constructor(address accessControlAddress) ControlledAccess(AccessControl(accessControlAddress)) public {\n        // Nothing to do!\n    }\n\n    /**\n     * Get the number of moons a planet has, using its class. Will sometimes return 0; there is no hasMoons boolean flag to check.\n     * The seed of each moon is obtained from the MacroverseSystemGenerator.\n     */\n    function getPlanetMoonCount(bytes32 planetSeed, MacroverseSystemGenerator.WorldClass class) public view onlyControlledAccess returns (uint16) {\n        // We will roll n of this kind of die and subtract n to get our moon count\n        int8 die;\n        int8 n = 2;\n        // We can also divide by this\n        int8 divisor = 1;\n\n        if (class == MacroverseSystemGenerator.WorldClass.Lunar || class == MacroverseSystemGenerator.WorldClass.Europan) {\n            die = 2;\n            divisor = 2;\n            // (2d2 - 2) / 2 = 25% chance of 1, 75% chance of 0\n        } else if (class == MacroverseSystemGenerator.WorldClass.Terrestrial || class == MacroverseSystemGenerator.WorldClass.Panthalassic) {\n            die = 3;\n            // 2d3-2: https://www.wolframalpha.com/input/?i=roll+2d3\n        } else if (class == MacroverseSystemGenerator.WorldClass.Neptunian) {\n            die = 8;\n            n = 2;\n            divisor = 2;\n        } else if (class == MacroverseSystemGenerator.WorldClass.Jovian) {\n            die = 6;\n            n = 3;\n            divisor = 2;\n        } else if (class == MacroverseSystemGenerator.WorldClass.AsteroidBelt) {\n            // Just no moons here\n            return 0;\n        } else {\n            // Not real!\n            revert();\n        }\n        \n        RNG.RandNode memory node = RNG.RandNode(planetSeed).derive(\"mooncount\");\n\n        uint16 roll = uint16(node.d(n, die, -n) / int88(divisor));\n        \n        return roll;\n    }\n\n    /**\n     * Get the class of a moon, given the moon's seed and the class of its parent planet.\n     * The seed of each moon is obtained from the MacroverseSystemGenerator.\n     * The actual moon body properties (i.e. mass) are generated with the MacroverseSystemGenerator as if it were a planet.\n     */\n    function getMoonClass(MacroverseSystemGenerator.WorldClass parent, bytes32 moonSeed, uint16 moonNumber) public view onlyControlledAccess\n        returns (MacroverseSystemGenerator.WorldClass) {\n        \n        // We can have moons of smaller classes than us only.\n        // Classes are Asteroidal, Lunar, Terrestrial, Jovian, Cometary, Europan, Panthalassic, Neptunian, Ring, AsteroidBelt\n        // AsteroidBelts never have moons and never are moons.\n        // Asteroidal and Cometary planets only ever are moons.\n        // Moons of the same type (rocky or icy) should be more common than cross-type.\n        // Jovians can have Neptunian moons\n\n        RNG.RandNode memory moonNode = RNG.RandNode(moonSeed);\n\n        if (moonNumber == 0 && moonNode.derive(\"ring\").d(1, 100, 0) < 20) {\n            // This should be a ring\n            return MacroverseSystemGenerator.WorldClass.Ring;\n        }\n\n        // Should we be of the opposite ice/rock type to our parent?\n        bool crossType = moonNode.derive(\"crosstype\").d(1, 100, 0) < 30;\n\n        // What type is our parent? 0=rock, 1=ice\n        uint parentType = uint(parent) / 4;\n\n        // What number is the parent in its type? 0=Asteroidal/Cometary, 3=Jovian/Neptunian\n        // The types happen to be arranged so this works.\n        uint rankInType = uint(parent) % 4;\n\n        if (parent == MacroverseSystemGenerator.WorldClass.Jovian && crossType) {\n            // Say we can have the gas giant type (Neptunian)\n            rankInType++;\n        }\n\n        // Roll a lower rank. Bias upward by subtracting 1 instead of 2, so we more or less round up.\n        uint lowerRank = uint(moonNode.derive(\"rank\").d(2, int8(rankInType), -1) / 2);\n\n        // Determine the type of the moon (0=rock, 1=ice)\n        uint moonType = crossType ? parentType : (parentType + 1) % 2;\n\n        return MacroverseSystemGenerator.WorldClass(moonType * 4 + lowerRank);\n\n    }\n\n    /**\n     * Use the mass of a planet to compute its moon scale distance in AU. This is sort of like the Roche limit and must be bigger than the planet's radius.\n     */\n    function getPlanetMoonScale(bytes32 planetSeed, int128 planetRealMass) public view onlyControlledAccess returns (int128) {\n        // We assume a fictional inverse density of 1 cm^3/g = 5.9721986E21 cubic meters per earth mass\n        // Then we take cube root of volume / (4/3 pi) to get the radius of such a body\n        // Then we derive the scale factor from a few times that.\n\n        RNG.RandNode memory node = RNG.RandNode(planetSeed).derive(\"moonscale\");\n\n        // Get the volume. We can definitely hold Jupiter's volume in m^3\n        int128 realVolume = planetRealMass.mul(REAL_M3_PER_EARTH);\n        \n        // Get the radius in meters\n        int128 realRadius = realVolume.div(REAL_PI.mul(RealMath.fraction(4, 3))).pow(RealMath.fraction(1, 3));\n\n        // Return some useful, randomized multiple of it.\n        return realRadius.mul(node.getRealBetween(RealMath.fraction(5, 2), RealMath.fraction(7, 2)));\n    }\n\n    /**\n     * Given the parent planet's scale radius, a moon's seed, the moon's class, and the previous moon's outer clearance (or 0), return the orbit shape of the moon.\n     * Other orbit properties come from the system generator.\n     */\n    function getMoonOrbitDimensions(int128 planetMoonScale, bytes32 seed, MacroverseSystemGenerator.WorldClass class, int128 realPrevClearance)\n        public view onlyControlledAccess returns (int128 realPeriapsis, int128 realApoapsis, int128 realClearance) {\n\n        RNG.RandNode memory moonNode = RNG.RandNode(seed);\n\n        if (class == MacroverseSystemGenerator.WorldClass.Ring) {\n            // Rings are special\n            realPeriapsis = realPrevClearance + planetMoonScale.mul(REAL_HALF).mul(moonNode.derive(\"ringstart\").getRealBetween(REAL_ONE, REAL_TWO));\n            realApoapsis = realPeriapsis + realPeriapsis.mul(moonNode.derive(\"ringwidth\").getRealBetween(REAL_HALF, REAL_TWO));\n            realClearance = realApoapsis + planetMoonScale.mul(REAL_HALF).mul(moonNode.derive(\"ringclear\").getRealBetween(REAL_HALF, REAL_TWO));\n            return;\n        }\n\n        // Otherwise just roll some stuff\n        realPeriapsis = realPrevClearance + planetMoonScale.mul(moonNode.derive(\"periapsis\").getRealBetween(REAL_HALF, REAL_ONE));\n        realApoapsis = realPeriapsis.mul(moonNode.derive(\"apoapsis\").getRealBetween(REAL_ONE, RealMath.fraction(120, 100)));\n\n        if (class == MacroverseSystemGenerator.WorldClass.Asteroidal || class == MacroverseSystemGenerator.WorldClass.Cometary) {\n            // Captured tiny things should be more eccentric\n            realApoapsis = realApoapsis + (realApoapsis - realPeriapsis).mul(REAL_TWO);\n        }\n\n        realClearance = realApoapsis.mul(moonNode.derive(\"clearance\").getRealBetween(RealMath.fraction(110, 100), RealMath.fraction(130, 100)));\n    }\n\n    /**\n     * Get the inclination (angle from parent body's equatorial plane to orbital plane at the ascending node) for a moon.\n     * Inclination is always positive. If it were negative, the ascending node would really be the descending node.\n     * Result is a real in radians.\n     */ \n    function getMoonInclination(bytes32 seed, MacroverseSystemGenerator.WorldClass class) public view onlyControlledAccess returns (int128 real_inclination) {\n        \n        RNG.RandNode memory node = RNG.RandNode(seed).derive(\"inclination\");\n\n        // Define maximum inclination in milliradians\n        // 175 milliradians = ~ 10 degrees\n        int88 maximum;\n        if (class == MacroverseSystemGenerator.WorldClass.Asteroidal || class == MacroverseSystemGenerator.WorldClass.Cometary) {\n            // Tiny captured things can be pretty free\n            maximum = 850;\n        } else if (class == MacroverseSystemGenerator.WorldClass.Lunar || class == MacroverseSystemGenerator.WorldClass.Europan) {\n            maximum = 100;\n        } else if (class == MacroverseSystemGenerator.WorldClass.Terrestrial || class == MacroverseSystemGenerator.WorldClass.Panthalassic) {\n            maximum = 80;\n        } else if (class == MacroverseSystemGenerator.WorldClass.Neptunian) {\n            maximum = 50;\n        } else if (class == MacroverseSystemGenerator.WorldClass.Ring) {\n            maximum = 350;\n        } else {\n            // Not real!\n            revert();\n        }\n        \n        // Compute the inclination\n        real_inclination = node.getRealBetween(0, RealMath.toReal(maximum)).div(RealMath.toReal(1000));\n\n        if (node.derive(\"retrograde\").d(1, 100, 0) < 10) {\n            // This moon ought to move retrograde (subtract inclination from pi instead of adding it to 0)\n            real_inclination = REAL_PI - real_inclination;\n        }\n\n        return real_inclination;  \n    }\n}\n",
  "sourcePath": "/Users/anovak/Documents/Workspace/macroverse/contracts/MacroverseMoonGenerator.sol",
  "compiler": {
    "name": "solc",
    "version": "0.4.24+commit.e67f0147.Emscripten.clang"
  },
  "schemaVersion": "2.0.1",
  "updatedAt": "2019-09-20T03:20:53.863Z"
}