{
  "contractName": "MacroverseSystemGenerator",
  "abi": [
    {
      "constant": false,
      "inputs": [],
      "name": "renounceOwnership",
      "outputs": [],
      "payable": false,
      "stateMutability": "nonpayable",
      "type": "function"
    },
    {
      "constant": true,
      "inputs": [],
      "name": "owner",
      "outputs": [
        {
          "name": "",
          "type": "address"
        }
      ],
      "payable": false,
      "stateMutability": "view",
      "type": "function"
    },
    {
      "constant": true,
      "inputs": [],
      "name": "isOwner",
      "outputs": [
        {
          "name": "",
          "type": "bool"
        }
      ],
      "payable": false,
      "stateMutability": "view",
      "type": "function"
    },
    {
      "constant": false,
      "inputs": [
        {
          "name": "newAccessControl",
          "type": "address"
        }
      ],
      "name": "changeAccessControl",
      "outputs": [],
      "payable": false,
      "stateMutability": "nonpayable",
      "type": "function"
    },
    {
      "constant": false,
      "inputs": [
        {
          "name": "newOwner",
          "type": "address"
        }
      ],
      "name": "transferOwnership",
      "outputs": [],
      "payable": false,
      "stateMutability": "nonpayable",
      "type": "function"
    },
    {
      "inputs": [
        {
          "name": "accessControlAddress",
          "type": "address"
        }
      ],
      "payable": false,
      "stateMutability": "nonpayable",
      "type": "constructor"
    },
    {
      "anonymous": false,
      "inputs": [
        {
          "indexed": true,
          "name": "previousOwner",
          "type": "address"
        },
        {
          "indexed": true,
          "name": "newOwner",
          "type": "address"
        }
      ],
      "name": "OwnershipTransferred",
      "type": "event"
    },
    {
      "constant": true,
      "inputs": [
        {
          "name": "parentSeed",
          "type": "bytes32"
        },
        {
          "name": "childNumber",
          "type": "uint16"
        }
      ],
      "name": "getWorldSeed",
      "outputs": [
        {
          "name": "",
          "type": "bytes32"
        }
      ],
      "payable": false,
      "stateMutability": "view",
      "type": "function"
    },
    {
      "constant": true,
      "inputs": [
        {
          "name": "seed",
          "type": "bytes32"
        },
        {
          "name": "planetNumber",
          "type": "uint16"
        },
        {
          "name": "totalPlanets",
          "type": "uint16"
        }
      ],
      "name": "getPlanetClass",
      "outputs": [
        {
          "name": "",
          "type": "uint8"
        }
      ],
      "payable": false,
      "stateMutability": "view",
      "type": "function"
    },
    {
      "constant": true,
      "inputs": [
        {
          "name": "seed",
          "type": "bytes32"
        },
        {
          "name": "class",
          "type": "uint8"
        }
      ],
      "name": "getWorldMass",
      "outputs": [
        {
          "name": "",
          "type": "int128"
        }
      ],
      "payable": false,
      "stateMutability": "view",
      "type": "function"
    },
    {
      "constant": true,
      "inputs": [
        {
          "name": "realInnerRadius",
          "type": "int128"
        },
        {
          "name": "realOuterRadius",
          "type": "int128"
        },
        {
          "name": "seed",
          "type": "bytes32"
        },
        {
          "name": "class",
          "type": "uint8"
        },
        {
          "name": "realPrevClearance",
          "type": "int128"
        }
      ],
      "name": "getPlanetOrbitDimensions",
      "outputs": [
        {
          "name": "realPeriapsis",
          "type": "int128"
        },
        {
          "name": "realApoapsis",
          "type": "int128"
        },
        {
          "name": "realClearance",
          "type": "int128"
        }
      ],
      "payable": false,
      "stateMutability": "view",
      "type": "function"
    },
    {
      "constant": true,
      "inputs": [
        {
          "name": "realPeriapsis",
          "type": "int128"
        },
        {
          "name": "realApoapsis",
          "type": "int128"
        }
      ],
      "name": "convertOrbitShape",
      "outputs": [
        {
          "name": "realSemimajor",
          "type": "int128"
        },
        {
          "name": "realEccentricity",
          "type": "int128"
        }
      ],
      "payable": false,
      "stateMutability": "view",
      "type": "function"
    },
    {
      "constant": true,
      "inputs": [
        {
          "name": "seed",
          "type": "bytes32"
        }
      ],
      "name": "getWorldLan",
      "outputs": [
        {
          "name": "",
          "type": "int128"
        }
      ],
      "payable": false,
      "stateMutability": "view",
      "type": "function"
    },
    {
      "constant": true,
      "inputs": [
        {
          "name": "seed",
          "type": "bytes32"
        },
        {
          "name": "class",
          "type": "uint8"
        }
      ],
      "name": "getPlanetInclination",
      "outputs": [
        {
          "name": "",
          "type": "int128"
        }
      ],
      "payable": false,
      "stateMutability": "view",
      "type": "function"
    },
    {
      "constant": true,
      "inputs": [
        {
          "name": "seed",
          "type": "bytes32"
        }
      ],
      "name": "getWorldAop",
      "outputs": [
        {
          "name": "",
          "type": "int128"
        }
      ],
      "payable": false,
      "stateMutability": "view",
      "type": "function"
    },
    {
      "constant": true,
      "inputs": [
        {
          "name": "seed",
          "type": "bytes32"
        }
      ],
      "name": "getWorldMeanAnomalyAtEpoch",
      "outputs": [
        {
          "name": "",
          "type": "int128"
        }
      ],
      "payable": false,
      "stateMutability": "view",
      "type": "function"
    },
    {
      "constant": true,
      "inputs": [
        {
          "name": "seed",
          "type": "bytes32"
        },
        {
          "name": "worldNumber",
          "type": "uint16"
        }
      ],
      "name": "isTidallyLocked",
      "outputs": [
        {
          "name": "",
          "type": "bool"
        }
      ],
      "payable": false,
      "stateMutability": "view",
      "type": "function"
    },
    {
      "constant": true,
      "inputs": [
        {
          "name": "seed",
          "type": "bytes32"
        }
      ],
      "name": "getWorldYXAxisAngles",
      "outputs": [
        {
          "name": "realYRadians",
          "type": "int128"
        },
        {
          "name": "realXRadians",
          "type": "int128"
        }
      ],
      "payable": false,
      "stateMutability": "view",
      "type": "function"
    },
    {
      "constant": true,
      "inputs": [
        {
          "name": "seed",
          "type": "bytes32"
        }
      ],
      "name": "getWorldSpinRate",
      "outputs": [
        {
          "name": "",
          "type": "int128"
        }
      ],
      "payable": false,
      "stateMutability": "view",
      "type": "function"
    }
  ],
  "bytecode": "0x608060405234801561001057600080fd5b506040516020806122bc8339810180604052810190808051906020019092919050505080336000806101000a81548173ffffffffffffffffffffffffffffffffffffffff021916908373ffffffffffffffffffffffffffffffffffffffff1602179055506000809054906101000a900473ffffffffffffffffffffffffffffffffffffffff1673ffffffffffffffffffffffffffffffffffffffff16600073ffffffffffffffffffffffffffffffffffffffff167f8be0079c531659141344cd1fd0a4f28419497f9722a3daafe3b4186f6b6457e060405160405180910390a380600160006101000a81548173ffffffffffffffffffffffffffffffffffffffff021916908373ffffffffffffffffffffffffffffffffffffffff160217905550505061217a806101426000396000f3006080604052600436106100f1576000357c0100000000000000000000000000000000000000000000000000000000900463ffffffff16806303742dd4146100f65780635f2eb7b91461018f578063715018a6146101e75780638301f10e146101fe5780638da5cb5b146102495780638f32d59b146102a05780639387730c146102cf57806396ab5ec71461031257806399b64cf3146103695780639a8914bc146103b4578063a3828ebe14610418578063b081066614610463578063b8c18436146104ae578063cc841c1d14610509578063d2b4620b14610578578063e7750601146105d0578063f2fde38b14610628575b600080fd5b34801561010257600080fd5b506101596004803603810190808035600f0b90602001909291908035600f0b90602001909291908035600019169060200190929190803560ff1690602001909291908035600f0b906020019092919050505061066b565b6040518084600f0b600f0b815260200183600f0b600f0b815260200182600f0b600f0b8152602001935050505060405180910390f35b34801561019b57600080fd5b506101be60048036038101908080356000191690602001909291905050506108ba565b6040518083600f0b600f0b815260200182600f0b600f0b81526020019250505060405180910390f35b3480156101f357600080fd5b506101fc610ab4565b005b34801561020a57600080fd5b5061022d6004803603810190808035600019169060200190929190505050610b86565b6040518082600f0b600f0b815260200191505060405180910390f35b34801561025557600080fd5b5061025e610d74565b604051808273ffffffffffffffffffffffffffffffffffffffff1673ffffffffffffffffffffffffffffffffffffffff16815260200191505060405180910390f35b3480156102ac57600080fd5b506102b5610d9d565b604051808215151515815260200191505060405180910390f35b3480156102db57600080fd5b50610310600480360381019080803573ffffffffffffffffffffffffffffffffffffffff169060200190929190505050610df4565b005b34801561031e57600080fd5b5061034f6004803603810190808035600019169060200190929190803561ffff169060200190929190505050610e4b565b604051808215151515815260200191505060405180910390f35b34801561037557600080fd5b50610398600480360381019080803560001916906020019092919050505061104a565b6040518082600f0b600f0b815260200191505060405180910390f35b3480156103c057600080fd5b506103ef6004803603810190808035600f0b90602001909291908035600f0b9060200190929190505050611238565b6040518083600f0b600f0b815260200182600f0b600f0b81526020019250505060405180910390f35b34801561042457600080fd5b506104476004803603810190808035600019169060200190929190505050611440565b6040518082600f0b600f0b815260200191505060405180910390f35b34801561046f57600080fd5b50610492600480360381019080803560001916906020019092919050505061162e565b6040518082600f0b600f0b815260200191505060405180910390f35b3480156104ba57600080fd5b506104eb6004803603810190808035600019169060200190929190803561ffff16906020019092919050505061181c565b60405180826000191660001916815260200191505060405180910390f35b34801561051557600080fd5b506105546004803603810190808035600019169060200190929190803561ffff169060200190929190803561ffff169060200190929190505050611a1b565b6040518082600981111561056457fe5b60ff16815260200191505060405180910390f35b34801561058457600080fd5b506105b46004803603810190808035600019169060200190929190803560ff169060200190929190505050611c2b565b6040518082600f0b600f0b815260200191505060405180910390f35b3480156105dc57600080fd5b5061060c6004803603810190808035600019169060200190929190803560ff169060200190929190505050611e30565b6040518082600f0b600f0b815260200191505060405180910390f35b34801561063457600080fd5b50610669600480360381019080803573ffffffffffffffffffffffffffffffffffffffff169060200190929190505050612035565b005b6000806000600160009054906101000a900473ffffffffffffffffffffffffffffffffffffffff1673ffffffffffffffffffffffffffffffffffffffff16634af5fb0f33326040518363ffffffff167c0100000000000000000000000000000000000000000000000000000000028152600401808373ffffffffffffffffffffffffffffffffffffffff1673ffffffffffffffffffffffffffffffffffffffff1681526020018273ffffffffffffffffffffffffffffffffffffffff1673ffffffffffffffffffffffffffffffffffffffff16815260200192505050602060405180830381600087803b15801561076157600080fd5b505af1158015610775573d6000803e3d6000fd5b505050506040513d602081101561078b57600080fd5b810190808051906020019092919050505015156107a757600080fd5b73__MacroverseSystemGeneratorPart1________630a73a94189898989896040518663ffffffff167c01000000000000000000000000000000000000000000000000000000000281526004018086600f0b600f0b815260200185600f0b600f0b8152602001846000191660001916815260200183600981111561082757fe5b60ff16815260200182600f0b600f0b81526020019550505050505060606040518083038186803b15801561085a57600080fd5b505af415801561086e573d6000803e3d6000fd5b505050506040513d606081101561088457600080fd5b81019080805190602001909291908051906020019092919080519060200190929190505050925092509250955095509592505050565b600080600160009054906101000a900473ffffffffffffffffffffffffffffffffffffffff1673ffffffffffffffffffffffffffffffffffffffff16634af5fb0f33326040518363ffffffff167c0100000000000000000000000000000000000000000000000000000000028152600401808373ffffffffffffffffffffffffffffffffffffffff1673ffffffffffffffffffffffffffffffffffffffff1681526020018273ffffffffffffffffffffffffffffffffffffffff1673ffffffffffffffffffffffffffffffffffffffff16815260200192505050602060405180830381600087803b1580156109ae57600080fd5b505af11580156109c2573d6000803e3d6000fd5b505050506040513d60208110156109d857600080fd5b810190808051906020019092919050505015156109f457600080fd5b73__MacroverseSystemGeneratorPart2________635f2eb7b9846040518263ffffffff167c0100000000000000000000000000000000000000000000000000000000028152600401808260001916600019168152602001915050604080518083038186803b158015610a6657600080fd5b505af4158015610a7a573d6000803e3d6000fd5b505050506040513d6040811015610a9057600080fd5b81019080805190602001909291908051906020019092919050505091509150915091565b610abc610d9d565b1515610ac757600080fd5b600073ffffffffffffffffffffffffffffffffffffffff166000809054906101000a900473ffffffffffffffffffffffffffffffffffffffff1673ffffffffffffffffffffffffffffffffffffffff167f8be0079c531659141344cd1fd0a4f28419497f9722a3daafe3b4186f6b6457e060405160405180910390a360008060006101000a81548173ffffffffffffffffffffffffffffffffffffffff021916908373ffffffffffffffffffffffffffffffffffffffff160217905550565b6000600160009054906101000a900473ffffffffffffffffffffffffffffffffffffffff1673ffffffffffffffffffffffffffffffffffffffff16634af5fb0f33326040518363ffffffff167c0100000000000000000000000000000000000000000000000000000000028152600401808373ffffffffffffffffffffffffffffffffffffffff1673ffffffffffffffffffffffffffffffffffffffff1681526020018273ffffffffffffffffffffffffffffffffffffffff1673ffffffffffffffffffffffffffffffffffffffff16815260200192505050602060405180830381600087803b158015610c7957600080fd5b505af1158015610c8d573d6000803e3d6000fd5b505050506040513d6020811015610ca357600080fd5b81019080805190602001909291905050501515610cbf57600080fd5b73__MacroverseSystemGeneratorPart2________638301f10e836040518263ffffffff167c010000000000000000000000000000000000000000000000000000000002815260040180826000191660001916815260200191505060206040518083038186803b158015610d3257600080fd5b505af4158015610d46573d6000803e3d6000fd5b505050506040513d6020811015610d5c57600080fd5b81019080805190602001909291905050509050919050565b60008060009054906101000a900473ffffffffffffffffffffffffffffffffffffffff16905090565b60008060009054906101000a900473ffffffffffffffffffffffffffffffffffffffff1673ffffffffffffffffffffffffffffffffffffffff163373ffffffffffffffffffffffffffffffffffffffff1614905090565b610dfc610d9d565b1515610e0757600080fd5b80600160006101000a81548173ffffffffffffffffffffffffffffffffffffffff021916908373ffffffffffffffffffffffffffffffffffffffff16021790555050565b6000600160009054906101000a900473ffffffffffffffffffffffffffffffffffffffff1673ffffffffffffffffffffffffffffffffffffffff16634af5fb0f33326040518363ffffffff167c0100000000000000000000000000000000000000000000000000000000028152600401808373ffffffffffffffffffffffffffffffffffffffff1673ffffffffffffffffffffffffffffffffffffffff1681526020018273ffffffffffffffffffffffffffffffffffffffff1673ffffffffffffffffffffffffffffffffffffffff16815260200192505050602060405180830381600087803b158015610f3e57600080fd5b505af1158015610f52573d6000803e3d6000fd5b505050506040513d6020811015610f6857600080fd5b81019080805190602001909291905050501515610f8457600080fd5b73__MacroverseSystemGeneratorPart2________6396ab5ec784846040518363ffffffff167c01000000000000000000000000000000000000000000000000000000000281526004018083600019166000191681526020018261ffff1661ffff1681526020019250505060206040518083038186803b15801561100757600080fd5b505af415801561101b573d6000803e3d6000fd5b505050506040513d602081101561103157600080fd5b8101908080519060200190929190505050905092915050565b6000600160009054906101000a900473ffffffffffffffffffffffffffffffffffffffff1673ffffffffffffffffffffffffffffffffffffffff16634af5fb0f33326040518363ffffffff167c0100000000000000000000000000000000000000000000000000000000028152600401808373ffffffffffffffffffffffffffffffffffffffff1673ffffffffffffffffffffffffffffffffffffffff1681526020018273ffffffffffffffffffffffffffffffffffffffff1673ffffffffffffffffffffffffffffffffffffffff16815260200192505050602060405180830381600087803b15801561113d57600080fd5b505af1158015611151573d6000803e3d6000fd5b505050506040513d602081101561116757600080fd5b8101908080519060200190929190505050151561118357600080fd5b73__MacroverseSystemGeneratorPart2________6399b64cf3836040518263ffffffff167c010000000000000000000000000000000000000000000000000000000002815260040180826000191660001916815260200191505060206040518083038186803b1580156111f657600080fd5b505af415801561120a573d6000803e3d6000fd5b505050506040513d602081101561122057600080fd5b81019080805190602001909291905050509050919050565b600080600160009054906101000a900473ffffffffffffffffffffffffffffffffffffffff1673ffffffffffffffffffffffffffffffffffffffff16634af5fb0f33326040518363ffffffff167c0100000000000000000000000000000000000000000000000000000000028152600401808373ffffffffffffffffffffffffffffffffffffffff1673ffffffffffffffffffffffffffffffffffffffff1681526020018273ffffffffffffffffffffffffffffffffffffffff1673ffffffffffffffffffffffffffffffffffffffff16815260200192505050602060405180830381600087803b15801561132c57600080fd5b505af1158015611340573d6000803e3d6000fd5b505050506040513d602081101561135657600080fd5b8101908080519060200190929190505050151561137257600080fd5b73__MacroverseSystemGeneratorPart2________639a8914bc85856040518363ffffffff167c01000000000000000000000000000000000000000000000000000000000281526004018083600f0b600f0b815260200182600f0b600f0b815260200192505050604080518083038186803b1580156113f057600080fd5b505af4158015611404573d6000803e3d6000fd5b505050506040513d604081101561141a57600080fd5b810190808051906020019092919080519060200190929190505050915091509250929050565b6000600160009054906101000a900473ffffffffffffffffffffffffffffffffffffffff1673ffffffffffffffffffffffffffffffffffffffff16634af5fb0f33326040518363ffffffff167c0100000000000000000000000000000000000000000000000000000000028152600401808373ffffffffffffffffffffffffffffffffffffffff1673ffffffffffffffffffffffffffffffffffffffff1681526020018273ffffffffffffffffffffffffffffffffffffffff1673ffffffffffffffffffffffffffffffffffffffff16815260200192505050602060405180830381600087803b15801561153357600080fd5b505af1158015611547573d6000803e3d6000fd5b505050506040513d602081101561155d57600080fd5b8101908080519060200190929190505050151561157957600080fd5b73__MacroverseSystemGeneratorPart2________63a3828ebe836040518263ffffffff167c010000000000000000000000000000000000000000000000000000000002815260040180826000191660001916815260200191505060206040518083038186803b1580156115ec57600080fd5b505af4158015611600573d6000803e3d6000fd5b505050506040513d602081101561161657600080fd5b81019080805190602001909291905050509050919050565b6000600160009054906101000a900473ffffffffffffffffffffffffffffffffffffffff1673ffffffffffffffffffffffffffffffffffffffff16634af5fb0f33326040518363ffffffff167c0100000000000000000000000000000000000000000000000000000000028152600401808373ffffffffffffffffffffffffffffffffffffffff1673ffffffffffffffffffffffffffffffffffffffff1681526020018273ffffffffffffffffffffffffffffffffffffffff1673ffffffffffffffffffffffffffffffffffffffff16815260200192505050602060405180830381600087803b15801561172157600080fd5b505af1158015611735573d6000803e3d6000fd5b505050506040513d602081101561174b57600080fd5b8101908080519060200190929190505050151561176757600080fd5b73__MacroverseSystemGeneratorPart2________63b0810666836040518263ffffffff167c010000000000000000000000000000000000000000000000000000000002815260040180826000191660001916815260200191505060206040518083038186803b1580156117da57600080fd5b505af41580156117ee573d6000803e3d6000fd5b505050506040513d602081101561180457600080fd5b81019080805190602001909291905050509050919050565b6000600160009054906101000a900473ffffffffffffffffffffffffffffffffffffffff1673ffffffffffffffffffffffffffffffffffffffff16634af5fb0f33326040518363ffffffff167c0100000000000000000000000000000000000000000000000000000000028152600401808373ffffffffffffffffffffffffffffffffffffffff1673ffffffffffffffffffffffffffffffffffffffff1681526020018273ffffffffffffffffffffffffffffffffffffffff1673ffffffffffffffffffffffffffffffffffffffff16815260200192505050602060405180830381600087803b15801561190f57600080fd5b505af1158015611923573d6000803e3d6000fd5b505050506040513d602081101561193957600080fd5b8101908080519060200190929190505050151561195557600080fd5b73__MacroverseSystemGeneratorPart1________63b8c1843684846040518363ffffffff167c01000000000000000000000000000000000000000000000000000000000281526004018083600019166000191681526020018261ffff1661ffff1681526020019250505060206040518083038186803b1580156119d857600080fd5b505af41580156119ec573d6000803e3d6000fd5b505050506040513d6020811015611a0257600080fd5b8101908080519060200190929190505050905092915050565b6000600160009054906101000a900473ffffffffffffffffffffffffffffffffffffffff1673ffffffffffffffffffffffffffffffffffffffff16634af5fb0f33326040518363ffffffff167c0100000000000000000000000000000000000000000000000000000000028152600401808373ffffffffffffffffffffffffffffffffffffffff1673ffffffffffffffffffffffffffffffffffffffff1681526020018273ffffffffffffffffffffffffffffffffffffffff1673ffffffffffffffffffffffffffffffffffffffff16815260200192505050602060405180830381600087803b158015611b0e57600080fd5b505af1158015611b22573d6000803e3d6000fd5b505050506040513d6020811015611b3857600080fd5b81019080805190602001909291905050501515611b5457600080fd5b73__MacroverseSystemGeneratorPart1________63cc841c1d8585856040518463ffffffff167c01000000000000000000000000000000000000000000000000000000000281526004018084600019166000191681526020018361ffff1661ffff1681526020018261ffff1661ffff168152602001935050505060206040518083038186803b158015611be757600080fd5b505af4158015611bfb573d6000803e3d6000fd5b505050506040513d6020811015611c1157600080fd5b810190808051906020019092919050505090509392505050565b6000600160009054906101000a900473ffffffffffffffffffffffffffffffffffffffff1673ffffffffffffffffffffffffffffffffffffffff16634af5fb0f33326040518363ffffffff167c0100000000000000000000000000000000000000000000000000000000028152600401808373ffffffffffffffffffffffffffffffffffffffff1673ffffffffffffffffffffffffffffffffffffffff1681526020018273ffffffffffffffffffffffffffffffffffffffff1673ffffffffffffffffffffffffffffffffffffffff16815260200192505050602060405180830381600087803b158015611d1e57600080fd5b505af1158015611d32573d6000803e3d6000fd5b505050506040513d6020811015611d4857600080fd5b81019080805190602001909291905050501515611d6457600080fd5b73__MacroverseSystemGeneratorPart2________6350b8946584846040518363ffffffff167c0100000000000000000000000000000000000000000000000000000000028152600401808360001916600019168152602001826009811115611dc957fe5b60ff1681526020019250505060206040518083038186803b158015611ded57600080fd5b505af4158015611e01573d6000803e3d6000fd5b505050506040513d6020811015611e1757600080fd5b8101908080519060200190929190505050905092915050565b6000600160009054906101000a900473ffffffffffffffffffffffffffffffffffffffff1673ffffffffffffffffffffffffffffffffffffffff16634af5fb0f33326040518363ffffffff167c0100000000000000000000000000000000000000000000000000000000028152600401808373ffffffffffffffffffffffffffffffffffffffff1673ffffffffffffffffffffffffffffffffffffffff1681526020018273ffffffffffffffffffffffffffffffffffffffff1673ffffffffffffffffffffffffffffffffffffffff16815260200192505050602060405180830381600087803b158015611f2357600080fd5b505af1158015611f37573d6000803e3d6000fd5b505050506040513d6020811015611f4d57600080fd5b81019080805190602001909291905050501515611f6957600080fd5b73__MacroverseSystemGeneratorPart1________638ef76a0984846040518363ffffffff167c0100000000000000000000000000000000000000000000000000000000028152600401808360001916600019168152602001826009811115611fce57fe5b60ff1681526020019250505060206040518083038186803b158015611ff257600080fd5b505af4158015612006573d6000803e3d6000fd5b505050506040513d602081101561201c57600080fd5b8101908080519060200190929190505050905092915050565b61203d610d9d565b151561204857600080fd5b61205181612054565b50565b600073ffffffffffffffffffffffffffffffffffffffff168173ffffffffffffffffffffffffffffffffffffffff161415151561209057600080fd5b8073ffffffffffffffffffffffffffffffffffffffff166000809054906101000a900473ffffffffffffffffffffffffffffffffffffffff1673ffffffffffffffffffffffffffffffffffffffff167f8be0079c531659141344cd1fd0a4f28419497f9722a3daafe3b4186f6b6457e060405160405180910390a3806000806101000a81548173ffffffffffffffffffffffffffffffffffffffff021916908373ffffffffffffffffffffffffffffffffffffffff160217905550505600a165627a7a72305820bf46f3a8390e7ce1a78d19f3dc1ff2487b97d4e2529ffd24c803d636ebd413c40029",
  "source": "pragma solidity ^0.4.24;\n\nimport \"./AccessControl.sol\";\nimport \"./ControlledAccess.sol\";\n\nimport \"./Macroverse.sol\";\nimport \"./MacroverseSystemGeneratorPart1.sol\";\nimport \"./MacroverseSystemGeneratorPart2.sol\";\n\n/**\n * Represents a Macroverse generator for planetary systems around stars and\n * other stellar objects.\n *\n * Because of contract size limitations, some code in this contract is shared\n * between planets and moons, while some code is planet-specific. Moon-specific\n * code lives in the MacroverseMoonGenerator.\n *\n * Permission to call methods on this contract is regulated by a configurable\n * AccessControl contract. One such set of terms might be to require that the\n * account initiating a transaction have a certain minimum MRV token balance.\n *\n * The owner of this contract reserves the right to supersede it with a new\n * version, and to modify the terms for accessing this contract, at any time,\n * for any reason, and without notice. This includes the right to indefinitely\n * or permanently suspend or terminate access to this contract for any person,\n * account, or other contract, or for all persons, accounts, or other\n * contracts. The owner also reserves the right to not do any of the above.\n */\ncontract MacroverseSystemGenerator is ControlledAccess {\n    \n\n    /**\n     * Deploy a new copy of the MacroverseSystemGenerator.\n     */\n    constructor(address accessControlAddress) ControlledAccess(AccessControl(accessControlAddress)) public {\n        // Nothing to do!\n    }\n    \n    /**\n     * Get the seed for a planet or moon from the seed for its parent (star or planet) and its child number.\n     */\n    function getWorldSeed(bytes32 parentSeed, uint16 childNumber) public view onlyControlledAccess returns (bytes32) {\n        return MacroverseSystemGeneratorPart1.getWorldSeed(parentSeed, childNumber);\n    }\n    \n    /**\n     * Decide what kind of planet a given planet is.\n     * It depends on its place in the order.\n     * Takes the *planet*'s seed, its number, and the total planets in the system.\n     */\n    function getPlanetClass(bytes32 seed, uint16 planetNumber, uint16 totalPlanets) public view onlyControlledAccess returns (Macroverse.WorldClass) {\n        return MacroverseSystemGeneratorPart1.getPlanetClass(seed, planetNumber, totalPlanets);\n    }\n    \n    /**\n     * Decide what the mass of the planet or moon is. We can't do even the mass of\n     * Jupiter in the ~88 bits we have in a real (should we have used int256 as\n     * the backing type?) so we work in Earth masses.\n     *\n     * Also produces the masses for moons.\n     */\n    function getWorldMass(bytes32 seed, Macroverse.WorldClass class) public view onlyControlledAccess returns (int128) {\n        return MacroverseSystemGeneratorPart1.getWorldMass(seed, class);\n    }\n    \n    // Define the orbit shape\n\n    /**\n     * Given the parent star's habitable zone bounds, the planet seed, the planet class\n     * to be generated, and the \"clearance\" radius around the previous planet\n     * in meters, produces orbit statistics (periapsis, apoapsis, and\n     * clearance) in meters.\n     *\n     * The first planet uses a previous clearance of 0.\n     *\n     * TODO: realOuterRadius from the habitable zone never gets used. We should remove it.\n     */\n    function getPlanetOrbitDimensions(int128 realInnerRadius, int128 realOuterRadius, bytes32 seed, Macroverse.WorldClass class, int128 realPrevClearance)\n        public view onlyControlledAccess returns (int128 realPeriapsis, int128 realApoapsis, int128 realClearance) {\n        \n        return MacroverseSystemGeneratorPart1.getPlanetOrbitDimensions(realInnerRadius, realOuterRadius, seed, class, realPrevClearance);\n    }\n\n    /**\n     * Convert from periapsis and apoapsis to semimajor axis and eccentricity.\n     */\n    function convertOrbitShape(int128 realPeriapsis, int128 realApoapsis) public view onlyControlledAccess returns (int128 realSemimajor, int128 realEccentricity) {\n        return MacroverseSystemGeneratorPart2.convertOrbitShape(realPeriapsis, realApoapsis);\n    }\n    \n    // Define the orbital plane\n    \n    /**\n     * Get the longitude of the ascending node for a planet or moon. For\n     * planets, this is the angle from system +X to ascending node. For\n     * moons, we use system +X transformed into the planet's equatorial plane\n     * by the equatorial plane/rotation axis angles.\n     */ \n    function getWorldLan(bytes32 seed) public view onlyControlledAccess returns (int128) {\n        return MacroverseSystemGeneratorPart2.getWorldLan(seed);\n    }\n    \n    /**\n     * Get the inclination (angle from system XZ plane to orbital plane at the ascending node) for a planet.\n     * For a moon, this is done in the moon generator instead.\n     * Inclination is always positive. If it were negative, the ascending node would really be the descending node.\n     * Result is a real in radians.\n     */ \n    function getPlanetInclination(bytes32 seed, Macroverse.WorldClass class) public view onlyControlledAccess returns (int128) {\n        return MacroverseSystemGeneratorPart2.getPlanetInclination(seed, class);\n    }\n    \n    // Define the orbit's embedding in the plane (and in time)\n    \n    /**\n     * Get the argument of periapsis (angle from ascending node to periapsis position, in the orbital plane) for a planet or moon.\n     */\n    function getWorldAop(bytes32 seed) public view onlyControlledAccess returns (int128) {\n        return MacroverseSystemGeneratorPart2.getWorldAop(seed);\n    }\n    \n    /**\n     * Get the mean anomaly (which sweeps from 0 at periapsis to 2 pi at the next periapsis) at epoch (time 0) for a planet or moon.\n     */\n    function getWorldMeanAnomalyAtEpoch(bytes32 seed) public view onlyControlledAccess returns (int128) {\n        return MacroverseSystemGeneratorPart2.getWorldMeanAnomalyAtEpoch(seed);\n    }\n\n    /**\n     * Determine if the world is tidally locked, given its seed and its number\n     * out from the parent, starting with 0.\n     * Overrides getWorldZXAxisAngles and getWorldSpinRate. \n     * Not used for asteroid belts or rings.\n     */\n    function isTidallyLocked(bytes32 seed, uint16 worldNumber) public view onlyControlledAccess returns (bool) {\n        return MacroverseSystemGeneratorPart2.isTidallyLocked(seed, worldNumber);\n    }\n\n    /**\n     * Get the Y and X axis angles for a world, in radians.\n     * The world's rotation axis starts straight up in its orbital plane.\n     * Then the planet is rotated in Y, around the axis by the Y angle.\n     * Then it is rotated forward (what would be toward the viewer) in the\n     * world's transformed X by the X axis angle.\n     * Both angles are in radians.\n     * The X angle is never negative, because the Y angle would just be the opposite direction.\n     * It is also never greater than Pi, because otherwise we would just measure around the other way.\n     * Not used for asteroid belts or rings.\n     * For a tidally locked world, ignore these values and use 0 for both angles.\n     */\n    function getWorldYXAxisAngles(bytes32 seed) public view onlyControlledAccess returns (int128 realYRadians, int128 realXRadians) {\n        return MacroverseSystemGeneratorPart2.getWorldYXAxisAngles(seed); \n    }\n\n    /**\n     * Get the spin rate of the world in radians per Julian year around its axis.\n     * For a tidally locked world, ignore this value and use the mean angular\n     * motion computed by the OrbitalMechanics contract, given the orbit\n     * details.\n     * Not used for asteroid belts or rings.\n     */\n    function getWorldSpinRate(bytes32 seed) public view onlyControlledAccess returns (int128) {\n        return MacroverseSystemGeneratorPart2.getWorldSpinRate(seed);\n    }\n\n}\n \n",
  "sourcePath": "/Users/anovak/Documents/Workspace/macroverse/contracts/MacroverseSystemGenerator.sol",
  "compiler": {
    "name": "solc",
    "version": "0.4.24+commit.e67f0147.Emscripten.clang"
  },
  "schemaVersion": "2.0.1",
  "updatedAt": "2019-10-18T01:12:26.651Z"
}