{
  "contractName": "MacroverseSystemGenerator",
  "abi": [
    {
      "constant": true,
      "inputs": [],
      "name": "owner",
      "outputs": [
        {
          "name": "",
          "type": "address"
        }
      ],
      "payable": false,
      "stateMutability": "view",
      "type": "function"
    },
    {
      "constant": false,
      "inputs": [
        {
          "name": "newAccessControl",
          "type": "address"
        }
      ],
      "name": "changeAccessControl",
      "outputs": [],
      "payable": false,
      "stateMutability": "nonpayable",
      "type": "function"
    },
    {
      "constant": false,
      "inputs": [
        {
          "name": "newOwner",
          "type": "address"
        }
      ],
      "name": "transferOwnership",
      "outputs": [],
      "payable": false,
      "stateMutability": "nonpayable",
      "type": "function"
    },
    {
      "inputs": [
        {
          "name": "accessControlAddress",
          "type": "address"
        }
      ],
      "payable": false,
      "stateMutability": "nonpayable",
      "type": "constructor"
    },
    {
      "anonymous": false,
      "inputs": [
        {
          "indexed": true,
          "name": "previousOwner",
          "type": "address"
        },
        {
          "indexed": true,
          "name": "newOwner",
          "type": "address"
        }
      ],
      "name": "OwnershipTransferred",
      "type": "event"
    },
    {
      "constant": true,
      "inputs": [
        {
          "name": "parentSeed",
          "type": "bytes32"
        },
        {
          "name": "childNumber",
          "type": "uint256"
        }
      ],
      "name": "getWorldSeed",
      "outputs": [
        {
          "name": "",
          "type": "bytes32"
        }
      ],
      "payable": false,
      "stateMutability": "view",
      "type": "function"
    },
    {
      "constant": true,
      "inputs": [
        {
          "name": "seed",
          "type": "bytes32"
        },
        {
          "name": "planetNumber",
          "type": "uint256"
        },
        {
          "name": "totalPlanets",
          "type": "uint256"
        }
      ],
      "name": "getPlanetClass",
      "outputs": [
        {
          "name": "",
          "type": "uint8"
        }
      ],
      "payable": false,
      "stateMutability": "view",
      "type": "function"
    },
    {
      "constant": true,
      "inputs": [
        {
          "name": "seed",
          "type": "bytes32"
        },
        {
          "name": "class",
          "type": "uint8"
        }
      ],
      "name": "getWorldMass",
      "outputs": [
        {
          "name": "",
          "type": "int128"
        }
      ],
      "payable": false,
      "stateMutability": "view",
      "type": "function"
    },
    {
      "constant": true,
      "inputs": [
        {
          "name": "realInnerRadius",
          "type": "int128"
        },
        {
          "name": "realOuterRadius",
          "type": "int128"
        },
        {
          "name": "seed",
          "type": "bytes32"
        },
        {
          "name": "class",
          "type": "uint8"
        },
        {
          "name": "realPrevClearance",
          "type": "int128"
        }
      ],
      "name": "getPlanetOrbitDimensions",
      "outputs": [
        {
          "name": "realPeriapsis",
          "type": "int128"
        },
        {
          "name": "realApoapsis",
          "type": "int128"
        },
        {
          "name": "realClearance",
          "type": "int128"
        }
      ],
      "payable": false,
      "stateMutability": "view",
      "type": "function"
    },
    {
      "constant": true,
      "inputs": [
        {
          "name": "realPeriapsis",
          "type": "int128"
        },
        {
          "name": "realApoapsis",
          "type": "int128"
        }
      ],
      "name": "convertOrbitShape",
      "outputs": [
        {
          "name": "realSemimajor",
          "type": "int128"
        },
        {
          "name": "realEccentricity",
          "type": "int128"
        }
      ],
      "payable": false,
      "stateMutability": "view",
      "type": "function"
    },
    {
      "constant": true,
      "inputs": [
        {
          "name": "seed",
          "type": "bytes32"
        }
      ],
      "name": "getWorldLan",
      "outputs": [
        {
          "name": "",
          "type": "int128"
        }
      ],
      "payable": false,
      "stateMutability": "view",
      "type": "function"
    },
    {
      "constant": true,
      "inputs": [
        {
          "name": "seed",
          "type": "bytes32"
        },
        {
          "name": "class",
          "type": "uint8"
        }
      ],
      "name": "getPlanetInclination",
      "outputs": [
        {
          "name": "",
          "type": "int128"
        }
      ],
      "payable": false,
      "stateMutability": "view",
      "type": "function"
    },
    {
      "constant": true,
      "inputs": [
        {
          "name": "seed",
          "type": "bytes32"
        }
      ],
      "name": "getWorldAop",
      "outputs": [
        {
          "name": "",
          "type": "int128"
        }
      ],
      "payable": false,
      "stateMutability": "view",
      "type": "function"
    },
    {
      "constant": true,
      "inputs": [
        {
          "name": "seed",
          "type": "bytes32"
        }
      ],
      "name": "getWorldMeanAnomalyAtEpoch",
      "outputs": [
        {
          "name": "",
          "type": "int128"
        }
      ],
      "payable": false,
      "stateMutability": "view",
      "type": "function"
    },
    {
      "constant": true,
      "inputs": [
        {
          "name": "seed",
          "type": "bytes32"
        }
      ],
      "name": "getWorldYXAxisAngles",
      "outputs": [
        {
          "name": "realYRadians",
          "type": "int128"
        },
        {
          "name": "realXRadians",
          "type": "int128"
        }
      ],
      "payable": false,
      "stateMutability": "view",
      "type": "function"
    },
    {
      "constant": true,
      "inputs": [
        {
          "name": "seed",
          "type": "bytes32"
        }
      ],
      "name": "getWorldSpinRate",
      "outputs": [
        {
          "name": "",
          "type": "int128"
        }
      ],
      "payable": false,
      "stateMutability": "view",
      "type": "function"
    },
    {
      "constant": true,
      "inputs": [
        {
          "name": "seed",
          "type": "bytes32"
        },
        {
          "name": "worldNumber",
          "type": "uint256"
        }
      ],
      "name": "isTidallyLocked",
      "outputs": [
        {
          "name": "",
          "type": "bool"
        }
      ],
      "payable": false,
      "stateMutability": "view",
      "type": "function"
    }
  ],
  "bytecode": "0x6060604052341561000f57600080fd5b6040516020806152f48339810160405280805190602001909190505080336000806101000a81548173ffffffffffffffffffffffffffffffffffffffff021916908373ffffffffffffffffffffffffffffffffffffffff16021790555080600160006101000a81548173ffffffffffffffffffffffffffffffffffffffff021916908373ffffffffffffffffffffffffffffffffffffffff1602179055505050615236806100be6000396000f3006060604052600436106100db576000357c0100000000000000000000000000000000000000000000000000000000900463ffffffff16806303742dd4146100e05780632c99e9e81461016b5780635f2eb7b9146101c65780638301f10e146102145780638da5cb5b146102555780639387730c146102aa57806399b64cf3146102e35780639a8914bc14610324578063a13dac731461037d578063a3828ebe146103c9578063b08106661461040a578063d2b4620b1461044b578063d33c57d814610498578063e7750601146104e0578063f2fde38b1461052d575b600080fd5b34156100eb57600080fd5b6101356004808035600f0b906020019091908035600f0b9060200190919080356000191690602001909190803560ff16906020019091908035600f0b906020019091905050610566565b6040518084600f0b600f0b815260200183600f0b600f0b815260200182600f0b600f0b8152602001935050505060405180910390f35b341561017657600080fd5b6101a26004808035600019169060200190919080359060200190919080359060200190919050506106e1565b604051808260098111156101b257fe5b60ff16815260200191505060405180910390f35b34156101d157600080fd5b6101eb600480803560001916906020019091905050610a31565b6040518083600f0b600f0b815260200182600f0b600f0b81526020019250505060405180910390f35b341561021f57600080fd5b610239600480803560001916906020019091905050610d3f565b6040518082600f0b600f0b815260200191505060405180910390f35b341561026057600080fd5b6102686110aa565b604051808273ffffffffffffffffffffffffffffffffffffffff1673ffffffffffffffffffffffffffffffffffffffff16815260200191505060405180910390f35b34156102b557600080fd5b6102e1600480803573ffffffffffffffffffffffffffffffffffffffff169060200190919050506110cf565b005b34156102ee57600080fd5b61030860048080356000191690602001909190505061116e565b6040518082600f0b600f0b815260200191505060405180910390f35b341561032f57600080fd5b6103546004808035600f0b906020019091908035600f0b906020019091905050611398565b6040518083600f0b600f0b815260200182600f0b600f0b81526020019250505060405180910390f35b341561038857600080fd5b6103ab6004808035600019169060200190919080359060200190919050506116a0565b60405180826000191660001916815260200191505060405180910390f35b34156103d457600080fd5b6103ee6004808035600019169060200190919050506117f3565b6040518082600f0b600f0b815260200191505060405180910390f35b341561041557600080fd5b61042f600480803560001916906020019091905050611b5e565b6040518082600f0b600f0b815260200191505060405180910390f35b341561045657600080fd5b61047c60048080356000191690602001909190803560ff16906020019091905050611ec9565b6040518082600f0b600f0b815260200191505060405180910390f35b34156104a357600080fd5b6104c6600480803560001916906020019091908035906020019091905050612471565b604051808215151515815260200191505060405180910390f35b34156104eb57600080fd5b61051160048080356000191690602001909190803560ff169060200190919050506126a6565b6040518082600f0b600f0b815260200191505060405180910390f35b341561053857600080fd5b610564600480803573ffffffffffffffffffffffffffffffffffffffff16906020019091905050613695565b005b60008060006105736151f3565b600160009054906101000a900473ffffffffffffffffffffffffffffffffffffffff1673ffffffffffffffffffffffffffffffffffffffff16634af5fb0f33326000604051602001526040518363ffffffff167c0100000000000000000000000000000000000000000000000000000000028152600401808373ffffffffffffffffffffffffffffffffffffffff1673ffffffffffffffffffffffffffffffffffffffff1681526020018273ffffffffffffffffffffffffffffffffffffffff1673ffffffffffffffffffffffffffffffffffffffff16815260200192505050602060405180830381600087803b151561066c57600080fd5b6102c65a03f1151561067d57600080fd5b50505060405180519050151561069257600080fd5b602060405190810160405280886000191681525090506106b589898389896137ea565b93506106c48989838988613e40565b92506106d38989838987614493565b915050955095509592505050565b60006106eb6151f3565b6000600160009054906101000a900473ffffffffffffffffffffffffffffffffffffffff1673ffffffffffffffffffffffffffffffffffffffff16634af5fb0f33326000604051602001526040518363ffffffff167c0100000000000000000000000000000000000000000000000000000000028152600401808373ffffffffffffffffffffffffffffffffffffffff1673ffffffffffffffffffffffffffffffffffffffff1681526020018273ffffffffffffffffffffffffffffffffffffffff1673ffffffffffffffffffffffffffffffffffffffff16815260200192505050602060405180830381600087803b15156107e657600080fd5b6102c65a03f115156107f757600080fd5b50505060405180519050151561080c57600080fd5b6108676040805190810160405280600581526020017f636c6173730000000000000000000000000000000000000000000000000000008152506020604051908101604052808960001916815250614aea90919063ffffffff16565b91506108806000606484614bad9092919063ffffffff16565b9050600085148015610893575060018414155b1561090a57604581600a0b12156108ad5760019250610a28565b604681600a0b12156108c25760059250610a28565b604f81600a0b12156108d75760029250610a28565b605081600a0b12156108ec5760069250610a28565b605a81600a0b12156109015760079250610a28565b60039250610a28565b60028481151561091657fe5b048510156109a557600f81600a0b12156109335760019250610a28565b601481600a0b12156109485760059250610a28565b602381600a0b121561095d5760029250610a28565b602881600a0b12156109725760069250610a28565b604681600a0b12156109875760079250610a28565b605081600a0b121561099c5760039250610a28565b60099250610a28565b600581600a0b12156109ba5760019250610a28565b601481600a0b12156109cf5760059250610a28565b601681600a0b12156109e45760029250610a28565b601e81600a0b12156109f95760069250610a28565b603c81600a0b1215610a0e5760079250610a28565b605a81600a0b1215610a235760039250610a28565b600992505b50509392505050565b600080600080610a3f6151f3565b600160009054906101000a900473ffffffffffffffffffffffffffffffffffffffff1673ffffffffffffffffffffffffffffffffffffffff16634af5fb0f33326000604051602001526040518363ffffffff167c0100000000000000000000000000000000000000000000000000000000028152600401808373ffffffffffffffffffffffffffffffffffffffff1673ffffffffffffffffffffffffffffffffffffffff1681526020018273ffffffffffffffffffffffffffffffffffffffff1673ffffffffffffffffffffffffffffffffffffffff16815260200192505050602060405180830381600087803b1515610b3857600080fd5b6102c65a03f11515610b4957600080fd5b505050604051805190501515610b5e57600080fd5b610bdc6503243f6a88866000036503243f6a8886610bcd6040805190810160405280600581526020017f61786973790000000000000000000000000000000000000000000000000000008152506020604051908101604052808c60001916815250614aea90919063ffffffff16565b614eb79092919063ffffffff16565b9450610c52600160066000610c426040805190810160405280600481526020017f74696c74000000000000000000000000000000000000000000000000000000008152506020604051908101604052808d60001916815250614aea90919063ffffffff16565b614f75909392919063ffffffff16565b9250600160286001600f0b6000821215610c6857fe5b9060020a02600f0b9060020a9005915060048360010b121515610c9a5760016503243f6a8886600f0b9060020a900591505b610cf56040805190810160405280600581526020017f61786973780000000000000000000000000000000000000000000000000000008152506020604051908101604052808960001916815250614aea90919063ffffffff16565b9050610d0f826000038383614eb79092919063ffffffff16565b935060038360010b1480610d26575060048360010b145b15610d37576503243f6a8886840193505b505050915091565b6000610d496151f3565b600160009054906101000a900473ffffffffffffffffffffffffffffffffffffffff1673ffffffffffffffffffffffffffffffffffffffff16634af5fb0f33326000604051602001526040518363ffffffff167c0100000000000000000000000000000000000000000000000000000000028152600401808373ffffffffffffffffffffffffffffffffffffffff1673ffffffffffffffffffffffffffffffffffffffff1681526020018273ffffffffffffffffffffffffffffffffffffffff1673ffffffffffffffffffffffffffffffffffffffff16815260200192505050602060405180830381600087803b1515610e4257600080fd5b6102c65a03f11515610e5357600080fd5b505050604051805190501515610e6857600080fd5b610ec36040805190810160405280600381526020017f4c414e00000000000000000000000000000000000000000000000000000000008152506020604051908101604052808660001916815250614aea90919063ffffffff16565b90506110a273__RealMath______________________________63f5a5d503600080604051602001526040518263ffffffff167c01000000000000000000000000000000000000000000000000000000000281526004018082600a0b815260200191505060206040518083038186803b1515610f3e57600080fd5b6102c65a03f41515610f4f57600080fd5b5050506040518051905073__RealMath______________________________63b697214673__RealMath______________________________63f5a5d50360026000604051602001526040518263ffffffff167c01000000000000000000000000000000000000000000000000000000000281526004018082600a0b815260200191505060206040518083038186803b1515610fea57600080fd5b6102c65a03f41515610ffb57600080fd5b505050604051805190506503243f6a88866000604051602001526040518363ffffffff167c01000000000000000000000000000000000000000000000000000000000281526004018083600f0b600f0b815260200182600f0b600f0b81526020019250505060206040518083038186803b151561107757600080fd5b6102c65a03f4151561108857600080fd5b5050506040518051905083614eb79092919063ffffffff16565b915050919050565b6000809054906101000a900473ffffffffffffffffffffffffffffffffffffffff1681565b6000809054906101000a900473ffffffffffffffffffffffffffffffffffffffff1673ffffffffffffffffffffffffffffffffffffffff163373ffffffffffffffffffffffffffffffffffffffff1614151561112a57600080fd5b80600160006101000a81548173ffffffffffffffffffffffffffffffffffffffff021916908373ffffffffffffffffffffffffffffffffffffffff16021790555050565b6000600160009054906101000a900473ffffffffffffffffffffffffffffffffffffffff1673ffffffffffffffffffffffffffffffffffffffff16634af5fb0f33326000604051602001526040518363ffffffff167c0100000000000000000000000000000000000000000000000000000000028152600401808373ffffffffffffffffffffffffffffffffffffffff1673ffffffffffffffffffffffffffffffffffffffff1681526020018273ffffffffffffffffffffffffffffffffffffffff1673ffffffffffffffffffffffffffffffffffffffff16815260200192505050602060405180830381600087803b151561126957600080fd5b6102c65a03f1151561127a57600080fd5b50505060405180519050151561128f57600080fd5b611391600073__RealMath______________________________63f5a5d503611f406000604051602001526040518263ffffffff167c01000000000000000000000000000000000000000000000000000000000281526004018082600a0b815260200191505060206040518083038186803b151561130c57600080fd5b6102c65a03f4151561131d57600080fd5b505050604051805190506113826040805190810160405280600481526020017f7370696e000000000000000000000000000000000000000000000000000000008152506020604051908101604052808860001916815250614aea90919063ffffffff16565b614eb79092919063ffffffff16565b9050919050565b600080600160009054906101000a900473ffffffffffffffffffffffffffffffffffffffff1673ffffffffffffffffffffffffffffffffffffffff16634af5fb0f33326000604051602001526040518363ffffffff167c0100000000000000000000000000000000000000000000000000000000028152600401808373ffffffffffffffffffffffffffffffffffffffff1673ffffffffffffffffffffffffffffffffffffffff1681526020018273ffffffffffffffffffffffffffffffffffffffff1673ffffffffffffffffffffffffffffffffffffffff16815260200192505050602060405180830381600087803b151561149457600080fd5b6102c65a03f115156114a557600080fd5b5050506040518051905015156114ba57600080fd5b73__RealMath______________________________6325f39a6385850173__RealMath______________________________63f5a5d50360026000604051602001526040518263ffffffff167c01000000000000000000000000000000000000000000000000000000000281526004018082600a0b815260200191505060206040518083038186803b151561154e57600080fd5b6102c65a03f4151561155f57600080fd5b505050604051805190506000604051602001526040518363ffffffff167c01000000000000000000000000000000000000000000000000000000000281526004018083600f0b600f0b815260200182600f0b600f0b81526020019250505060206040518083038186803b15156115d457600080fd5b6102c65a03f415156115e557600080fd5b50505060405180519050915073__RealMath______________________________6325f39a638585038686016000604051602001526040518363ffffffff167c01000000000000000000000000000000000000000000000000000000000281526004018083600f0b600f0b815260200182600f0b600f0b81526020019250505060206040518083038186803b151561167c57600080fd5b6102c65a03f4151561168d57600080fd5b5050506040518051905090509250929050565b6000600160009054906101000a900473ffffffffffffffffffffffffffffffffffffffff1673ffffffffffffffffffffffffffffffffffffffff16634af5fb0f33326000604051602001526040518363ffffffff167c0100000000000000000000000000000000000000000000000000000000028152600401808373ffffffffffffffffffffffffffffffffffffffff1673ffffffffffffffffffffffffffffffffffffffff1681526020018273ffffffffffffffffffffffffffffffffffffffff1673ffffffffffffffffffffffffffffffffffffffff16815260200192505050602060405180830381600087803b151561179b57600080fd5b6102c65a03f115156117ac57600080fd5b5050506040518051905015156117c157600080fd5b6117e7826020604051908101604052808660001916815250614ff390919063ffffffff16565b60000151905092915050565b60006117fd6151f3565b600160009054906101000a900473ffffffffffffffffffffffffffffffffffffffff1673ffffffffffffffffffffffffffffffffffffffff16634af5fb0f33326000604051602001526040518363ffffffff167c0100000000000000000000000000000000000000000000000000000000028152600401808373ffffffffffffffffffffffffffffffffffffffff1673ffffffffffffffffffffffffffffffffffffffff1681526020018273ffffffffffffffffffffffffffffffffffffffff1673ffffffffffffffffffffffffffffffffffffffff16815260200192505050602060405180830381600087803b15156118f657600080fd5b6102c65a03f1151561190757600080fd5b50505060405180519050151561191c57600080fd5b6119776040805190810160405280600381526020017f4d414500000000000000000000000000000000000000000000000000000000008152506020604051908101604052808660001916815250614aea90919063ffffffff16565b9050611b5673__RealMath______________________________63f5a5d503600080604051602001526040518263ffffffff167c01000000000000000000000000000000000000000000000000000000000281526004018082600a0b815260200191505060206040518083038186803b15156119f257600080fd5b6102c65a03f41515611a0357600080fd5b5050506040518051905073__RealMath______________________________63b697214673__RealMath______________________________63f5a5d50360026000604051602001526040518263ffffffff167c01000000000000000000000000000000000000000000000000000000000281526004018082600a0b815260200191505060206040518083038186803b1515611a9e57600080fd5b6102c65a03f41515611aaf57600080fd5b505050604051805190506503243f6a88866000604051602001526040518363ffffffff167c01000000000000000000000000000000000000000000000000000000000281526004018083600f0b600f0b815260200182600f0b600f0b81526020019250505060206040518083038186803b1515611b2b57600080fd5b6102c65a03f41515611b3c57600080fd5b5050506040518051905083614eb79092919063ffffffff16565b915050919050565b6000611b686151f3565b600160009054906101000a900473ffffffffffffffffffffffffffffffffffffffff1673ffffffffffffffffffffffffffffffffffffffff16634af5fb0f33326000604051602001526040518363ffffffff167c0100000000000000000000000000000000000000000000000000000000028152600401808373ffffffffffffffffffffffffffffffffffffffff1673ffffffffffffffffffffffffffffffffffffffff1681526020018273ffffffffffffffffffffffffffffffffffffffff1673ffffffffffffffffffffffffffffffffffffffff16815260200192505050602060405180830381600087803b1515611c6157600080fd5b6102c65a03f11515611c7257600080fd5b505050604051805190501515611c8757600080fd5b611ce26040805190810160405280600381526020017f414f5000000000000000000000000000000000000000000000000000000000008152506020604051908101604052808660001916815250614aea90919063ffffffff16565b9050611ec173__RealMath______________________________63f5a5d503600080604051602001526040518263ffffffff167c01000000000000000000000000000000000000000000000000000000000281526004018082600a0b815260200191505060206040518083038186803b1515611d5d57600080fd5b6102c65a03f41515611d6e57600080fd5b5050506040518051905073__RealMath______________________________63b697214673__RealMath______________________________63f5a5d50360026000604051602001526040518263ffffffff167c01000000000000000000000000000000000000000000000000000000000281526004018082600a0b815260200191505060206040518083038186803b1515611e0957600080fd5b6102c65a03f41515611e1a57600080fd5b505050604051805190506503243f6a88866000604051602001526040518363ffffffff167c01000000000000000000000000000000000000000000000000000000000281526004018083600f0b600f0b815260200182600f0b600f0b81526020019250505060206040518083038186803b1515611e9657600080fd5b6102c65a03f41515611ea757600080fd5b5050506040518051905083614eb79092919063ffffffff16565b915050919050565b6000611ed36151f3565b6000806000600160009054906101000a900473ffffffffffffffffffffffffffffffffffffffff1673ffffffffffffffffffffffffffffffffffffffff16634af5fb0f33326000604051602001526040518363ffffffff167c0100000000000000000000000000000000000000000000000000000000028152600401808373ffffffffffffffffffffffffffffffffffffffff1673ffffffffffffffffffffffffffffffffffffffff1681526020018273ffffffffffffffffffffffffffffffffffffffff1673ffffffffffffffffffffffffffffffffffffffff16815260200192505050602060405180830381600087803b1515611fd157600080fd5b6102c65a03f11515611fe257600080fd5b505050604051805190501515611ff757600080fd5b6120526040805190810160405280600b81526020017f696e636c696e6174696f6e0000000000000000000000000000000000000000008152506020604051908101604052808a60001916815250614aea90919063ffffffff16565b93506001600981111561206157fe5b86600981111561206d57fe5b148061208f57506005600981111561208157fe5b86600981111561208d57fe5b145b156120a1576000925060af915061217b565b600260098111156120ae57fe5b8660098111156120ba57fe5b14806120dc5750600660098111156120ce57fe5b8660098111156120da57fe5b145b156120ee57600092506057915061217a565b600760098111156120fb57fe5b86600981111561210757fe5b141561211a576000925060239150612179565b6003600981111561212757fe5b86600981111561213357fe5b1415612146576000925060349150612178565b60098081111561215257fe5b86600981111561215e57fe5b141561217257600092506101069150612177565b600080fd5b5b5b5b5b6000905060036121e26001606460006121d26040805190810160405280600a81526020017f726574726f6772616465000000000000000000000000000000000000000000008152508a614aea90919063ffffffff16565b614f75909392919063ffffffff16565b60010b12156121f5576503243f6a888690505b73__RealMath______________________________6325f39a6361234a73__RealMath______________________________63f5a5d503876000604051602001526040518263ffffffff167c01000000000000000000000000000000000000000000000000000000000281526004018082600a0b600a0b815260200191505060206040518083038186803b151561228b57600080fd5b6102c65a03f4151561229c57600080fd5b5050506040518051905073__RealMath______________________________63f5a5d503876000604051602001526040518263ffffffff167c01000000000000000000000000000000000000000000000000000000000281526004018082600a0b600a0b815260200191505060206040518083038186803b151561231f57600080fd5b6102c65a03f4151561233057600080fd5b5050506040518051905088614eb79092919063ffffffff16565b73__RealMath______________________________63f5a5d5036103e86000604051602001526040518263ffffffff167c01000000000000000000000000000000000000000000000000000000000281526004018082600a0b815260200191505060206040518083038186803b15156123c257600080fd5b6102c65a03f415156123d357600080fd5b505050604051805190506000604051602001526040518363ffffffff167c01000000000000000000000000000000000000000000000000000000000281526004018083600f0b600f0b815260200182600f0b600f0b81526020019250505060206040518083038186803b151561244857600080fd5b6102c65a03f4151561245957600080fd5b50505060405180519050810194505050505092915050565b6000600160009054906101000a900473ffffffffffffffffffffffffffffffffffffffff1673ffffffffffffffffffffffffffffffffffffffff16634af5fb0f33326000604051602001526040518363ffffffff167c0100000000000000000000000000000000000000000000000000000000028152600401808373ffffffffffffffffffffffffffffffffffffffff1673ffffffffffffffffffffffffffffffffffffffff1681526020018273ffffffffffffffffffffffffffffffffffffffff1673ffffffffffffffffffffffffffffffffffffffff16815260200192505050602060405180830381600087803b151561256c57600080fd5b6102c65a03f1151561257d57600080fd5b50505060405180519050151561259257600080fd5b73__RealMath______________________________631dade0d460018085016000604051602001526040518363ffffffff167c01000000000000000000000000000000000000000000000000000000000281526004018083600a0b815260200182600a0b600a0b81526020019250505060206040518083038186803b151561261957600080fd5b6102c65a03f4151561262a57600080fd5b50505060405180519050600f0b61269a6126956040805190810160405280600a81526020017f746964616c5f6c6f636b000000000000000000000000000000000000000000008152506020604051908101604052808860001916815250614aea90919063ffffffff16565b615069565b600f0b12905092915050565b60006126b06151f3565b600160009054906101000a900473ffffffffffffffffffffffffffffffffffffffff1673ffffffffffffffffffffffffffffffffffffffff16634af5fb0f33326000604051602001526040518363ffffffff167c0100000000000000000000000000000000000000000000000000000000028152600401808373ffffffffffffffffffffffffffffffffffffffff1673ffffffffffffffffffffffffffffffffffffffff1681526020018273ffffffffffffffffffffffffffffffffffffffff1673ffffffffffffffffffffffffffffffffffffffff16815260200192505050602060405180830381600087803b15156127a957600080fd5b6102c65a03f115156127ba57600080fd5b5050506040518051905015156127cf57600080fd5b61282a6040805190810160405280600481526020017f6d617373000000000000000000000000000000000000000000000000000000008152506020604051908101604052808760001916815250614aea90919063ffffffff16565b90506000600981111561283957fe5b83600981111561284557fe5b14156129a7576129a073__RealMath______________________________631dade0d46001633b9aca006000604051602001526040518363ffffffff167c01000000000000000000000000000000000000000000000000000000000281526004018083600a0b815260200182600a0b81526020019250505060206040518083038186803b15156128d457600080fd5b6102c65a03f415156128e557600080fd5b5050506040518051905073__RealMath______________________________631dade0d4600a633b9aca006000604051602001526040518363ffffffff167c01000000000000000000000000000000000000000000000000000000000281526004018083600a0b815260200182600a0b81526020019250505060206040518083038186803b151561297557600080fd5b6102c65a03f4151561298657600080fd5b5050506040518051905083614eb79092919063ffffffff16565b915061368e565b600460098111156129b457fe5b8360098111156129c057fe5b1415612b2257612b1b73__RealMath______________________________631dade0d46001633b9aca006000604051602001526040518363ffffffff167c01000000000000000000000000000000000000000000000000000000000281526004018083600a0b815260200182600a0b81526020019250505060206040518083038186803b1515612a4f57600080fd5b6102c65a03f41515612a6057600080fd5b5050506040518051905073__RealMath______________________________631dade0d4600a633b9aca006000604051602001526040518363ffffffff167c01000000000000000000000000000000000000000000000000000000000281526004018083600a0b815260200182600a0b81526020019250505060206040518083038186803b1515612af057600080fd5b6102c65a03f41515612b0157600080fd5b5050506040518051905083614eb79092919063ffffffff16565b915061368e565b60016009811115612b2f57fe5b836009811115612b3b57fe5b1415612c9757612c9073__RealMath______________________________631dade0d4600160646000604051602001526040518363ffffffff167c01000000000000000000000000000000000000000000000000000000000281526004018083600a0b815260200182600a0b81526020019250505060206040518083038186803b1515612bc757600080fd5b6102c65a03f41515612bd857600080fd5b5050506040518051905073__RealMath______________________________631dade0d4600960646000604051602001526040518363ffffffff167c01000000000000000000000000000000000000000000000000000000000281526004018083600a0b815260200182600a0b81526020019250505060206040518083038186803b1515612c6557600080fd5b6102c65a03f41515612c7657600080fd5b5050506040518051905083614eb79092919063ffffffff16565b915061368e565b60056009811115612ca457fe5b836009811115612cb057fe5b1415612e0e57612e0773__RealMath______________________________631dade0d460086103e86000604051602001526040518363ffffffff167c01000000000000000000000000000000000000000000000000000000000281526004018083600a0b815260200182600a0b81526020019250505060206040518083038186803b1515612d3d57600080fd5b6102c65a03f41515612d4e57600080fd5b5050506040518051905073__RealMath______________________________631dade0d460506103e86000604051602001526040518363ffffffff167c01000000000000000000000000000000000000000000000000000000000281526004018083600a0b815260200182600a0b81526020019250505060206040518083038186803b1515612ddc57600080fd5b6102c65a03f41515612ded57600080fd5b5050506040518051905083614eb79092919063ffffffff16565b915061368e565b60026009811115612e1b57fe5b836009811115612e2757fe5b1415612f7757612f7073__RealMath______________________________631dade0d4600a60646000604051602001526040518363ffffffff167c01000000000000000000000000000000000000000000000000000000000281526004018083600a0b815260200182600a0b81526020019250505060206040518083038186803b1515612eb357600080fd5b6102c65a03f41515612ec457600080fd5b5050506040518051905073__RealMath______________________________63f5a5d50360096000604051602001526040518263ffffffff167c01000000000000000000000000000000000000000000000000000000000281526004018082600a0b815260200191505060206040518083038186803b1515612f4557600080fd5b6102c65a03f41515612f5657600080fd5b5050506040518051905083614eb79092919063ffffffff16565b915061368e565b60066009811115612f8457fe5b836009811115612f9057fe5b14156130e1576130da73__RealMath______________________________631dade0d460506103e86000604051602001526040518363ffffffff167c01000000000000000000000000000000000000000000000000000000000281526004018083600a0b815260200182600a0b81526020019250505060206040518083038186803b151561301d57600080fd5b6102c65a03f4151561302e57600080fd5b5050506040518051905073__RealMath______________________________63f5a5d50360096000604051602001526040518263ffffffff167c01000000000000000000000000000000000000000000000000000000000281526004018082600a0b815260200191505060206040518083038186803b15156130af57600080fd5b6102c65a03f415156130c057600080fd5b5050506040518051905083614eb79092919063ffffffff16565b915061368e565b600760098111156130ee57fe5b8360098111156130fa57fe5b141561323e5761323773__RealMath______________________________63f5a5d50360076000604051602001526040518263ffffffff167c01000000000000000000000000000000000000000000000000000000000281526004018082600a0b815260200191505060206040518083038186803b151561317a57600080fd5b6102c65a03f4151561318b57600080fd5b5050506040518051905073__RealMath______________________________63f5a5d50360146000604051602001526040518263ffffffff167c01000000000000000000000000000000000000000000000000000000000281526004018082600a0b815260200191505060206040518083038186803b151561320c57600080fd5b6102c65a03f4151561321d57600080fd5b5050506040518051905083614eb79092919063ffffffff16565b915061368e565b6003600981111561324b57fe5b83600981111561325757fe5b141561339c5761339573__RealMath______________________________63f5a5d50360326000604051602001526040518263ffffffff167c01000000000000000000000000000000000000000000000000000000000281526004018082600a0b815260200191505060206040518083038186803b15156132d757600080fd5b6102c65a03f415156132e857600080fd5b5050506040518051905073__RealMath______________________________63f5a5d5036101906000604051602001526040518263ffffffff167c01000000000000000000000000000000000000000000000000000000000281526004018082600a0b815260200191505060206040518083038186803b151561336a57600080fd5b6102c65a03f4151561337b57600080fd5b5050506040518051905083614eb79092919063ffffffff16565b915061368e565b6009808111156133a857fe5b8360098111156133b457fe5b14156135105761350973__RealMath______________________________631dade0d4600160646000604051602001526040518363ffffffff167c01000000000000000000000000000000000000000000000000000000000281526004018083600a0b815260200182600a0b81526020019250505060206040518083038186803b151561344057600080fd5b6102c65a03f4151561345157600080fd5b5050506040518051905073__RealMath______________________________631dade0d4601460646000604051602001526040518363ffffffff167c01000000000000000000000000000000000000000000000000000000000281526004018083600a0b815260200182600a0b81526020019250505060206040518083038186803b15156134de57600080fd5b6102c65a03f415156134ef57600080fd5b5050506040518051905083614eb79092919063ffffffff16565b915061368e565b6008600981111561351d57fe5b83600981111561352957fe5b14156136895761368273__RealMath______________________________631dade0d46001620f42406000604051602001526040518363ffffffff167c01000000000000000000000000000000000000000000000000000000000281526004018083600a0b815260200182600a0b81526020019250505060206040518083038186803b15156135b757600080fd5b6102c65a03f415156135c857600080fd5b5050506040518051905073__RealMath______________________________631dade0d46014620f42406000604051602001526040518363ffffffff167c01000000000000000000000000000000000000000000000000000000000281526004018083600a0b815260200182600a0b81526020019250505060206040518083038186803b151561365757600080fd5b6102c65a03f4151561366857600080fd5b5050506040518051905083614eb79092919063ffffffff16565b915061368e565b600080fd5b5092915050565b6000809054906101000a900473ffffffffffffffffffffffffffffffffffffffff1673ffffffffffffffffffffffffffffffffffffffff163373ffffffffffffffffffffffffffffffffffffffff161415156136f057600080fd5b600073ffffffffffffffffffffffffffffffffffffffff168173ffffffffffffffffffffffffffffffffffffffff161415151561372c57600080fd5b8073ffffffffffffffffffffffffffffffffffffffff166000809054906101000a900473ffffffffffffffffffffffffffffffffffffffff1673ffffffffffffffffffffffffffffffffffffffff167f8be0079c531659141344cd1fd0a4f28419497f9722a3daafe3b4186f6b6457e060405160405180910390a3806000806101000a81548173ffffffffffffffffffffffffffffffffffffffff021916908373ffffffffffffffffffffffffffffffffffffffff16021790555050565b60006137f46151f3565b6137fc6151f3565b600080600080600061384c6040805190810160405280600981526020017f70657269617073697300000000000000000000000000000000000000000000008152508c614aea90919063ffffffff16565b96506138966040805190810160405280600a81526020017f70657269617073697332000000000000000000000000000000000000000000008152508c614aea90919063ffffffff16565b9550600160098111156138a557fe5b8a60098111156138b157fe5b14806138d35750600560098111156138c557fe5b8a60098111156138d157fe5b145b156138e55760149450603c93506139c2565b600260098111156138f257fe5b8a60098111156138fe57fe5b148061392057506006600981111561391257fe5b8a600981111561391e57fe5b145b156139325760149450604693506139c1565b6007600981111561393f57fe5b8a600981111561394b57fe5b141561395f57603294506103e893506139c0565b6003600981111561396c57fe5b8a600981111561397857fe5b141561398d5761012c94506101f493506139bf565b60098081111561399957fe5b8a60098111156139a557fe5b14156139b957601494506101f493506139be565b600080fd5b5b5b5b5b613afd73__RealMath______________________________63f5a5d503876000604051602001526040518263ffffffff167c01000000000000000000000000000000000000000000000000000000000281526004018082600a0b600a0b815260200191505060206040518083038186803b1515613a3e57600080fd5b6102c65a03f41515613a4f57600080fd5b5050506040518051905073__RealMath______________________________63f5a5d503876000604051602001526040518263ffffffff167c01000000000000000000000000000000000000000000000000000000000281526004018082600a0b600a0b815260200191505060206040518083038186803b1515613ad257600080fd5b6102c65a03f41515613ae357600080fd5b5050506040518051905089614eb79092919063ffffffff16565b9250613c3a73__RealMath______________________________63f5a5d503876000604051602001526040518263ffffffff167c01000000000000000000000000000000000000000000000000000000000281526004018082600a0b600a0b815260200191505060206040518083038186803b1515613b7b57600080fd5b6102c65a03f41515613b8c57600080fd5b5050506040518051905073__RealMath______________________________63f5a5d503876000604051602001526040518263ffffffff167c01000000000000000000000000000000000000000000000000000000000281526004018082600a0b600a0b815260200191505060206040518083038186803b1515613c0f57600080fd5b6102c65a03f41515613c2057600080fd5b5050506040518051905088614eb79092919063ffffffff16565b915081600f0b83600f0b12613c4f5781613c51565b825b905073__RealMath______________________________63b6972146828f6000604051602001526040518363ffffffff167c01000000000000000000000000000000000000000000000000000000000281526004018083600f0b600f0b815260200182600f0b600f0b81526020019250505060206040518083038186803b1515613cda57600080fd5b6102c65a03f41515613ceb57600080fd5b50505060405180519050600f0b73__RealMath______________________________6325f39a63909173__RealMath______________________________63f5a5d50360646000604051602001526040518263ffffffff167c01000000000000000000000000000000000000000000000000000000000281526004018082600a0b815260200191505060206040518083038186803b1515613d8b57600080fd5b6102c65a03f41515613d9c57600080fd5b505050604051805190506000604051602001526040518363ffffffff167c01000000000000000000000000000000000000000000000000000000000281526004018083600f0b600f0b815260200182600f0b600f0b81526020019250505060206040518083038186803b1515613e1157600080fd5b6102c65a03f41515613e2257600080fd5b50505060405180519050890197505050505050505095945050505050565b6000613e4a6151f3565b613e526151f3565b6000806000806000613ea26040805190810160405280600881526020017f61706f61707369730000000000000000000000000000000000000000000000008152508c614aea90919063ffffffff16565b9650613eec6040805190810160405280600981526020017f61706f61707369733200000000000000000000000000000000000000000000008152508c614aea90919063ffffffff16565b955060016009811115613efb57fe5b8a6009811115613f0757fe5b1480613f29575060056009811115613f1b57fe5b8a6009811115613f2757fe5b145b15613f3b576000945060069350614015565b60026009811115613f4857fe5b8a6009811115613f5457fe5b1480613f76575060066009811115613f6857fe5b8a6009811115613f7457fe5b145b15613f885760009450600a9350614014565b60076009811115613f9557fe5b8a6009811115613fa157fe5b1415613fb557601494506101f49350614013565b60036009811115613fc257fe5b8a6009811115613fce57fe5b1415613fe157600a945060c89350614012565b600980811115613fed57fe5b8a6009811115613ff957fe5b141561400c57600a945060649350614011565b600080fd5b5b5b5b5b61415073__RealMath______________________________63f5a5d503876000604051602001526040518263ffffffff167c01000000000000000000000000000000000000000000000000000000000281526004018082600a0b600a0b815260200191505060206040518083038186803b151561409157600080fd5b6102c65a03f415156140a257600080fd5b5050506040518051905073__RealMath______________________________63f5a5d503876000604051602001526040518263ffffffff167c01000000000000000000000000000000000000000000000000000000000281526004018082600a0b600a0b815260200191505060206040518083038186803b151561412557600080fd5b6102c65a03f4151561413657600080fd5b5050506040518051905089614eb79092919063ffffffff16565b925061428d73__RealMath______________________________63f5a5d503876000604051602001526040518263ffffffff167c01000000000000000000000000000000000000000000000000000000000281526004018082600a0b600a0b815260200191505060206040518083038186803b15156141ce57600080fd5b6102c65a03f415156141df57600080fd5b5050506040518051905073__RealMath______________________________63f5a5d503876000604051602001526040518263ffffffff167c01000000000000000000000000000000000000000000000000000000000281526004018082600a0b600a0b815260200191505060206040518083038186803b151561426257600080fd5b6102c65a03f4151561427357600080fd5b5050506040518051905088614eb79092919063ffffffff16565b915081600f0b83600f0b126142a257816142a4565b825b905073__RealMath______________________________63b6972146828f6000604051602001526040518363ffffffff167c01000000000000000000000000000000000000000000000000000000000281526004018083600f0b600f0b815260200182600f0b600f0b81526020019250505060206040518083038186803b151561432d57600080fd5b6102c65a03f4151561433e57600080fd5b50505060405180519050600f0b73__RealMath______________________________6325f39a63909173__RealMath______________________________63f5a5d50360646000604051602001526040518263ffffffff167c01000000000000000000000000000000000000000000000000000000000281526004018082600a0b815260200191505060206040518083038186803b15156143de57600080fd5b6102c65a03f415156143ef57600080fd5b505050604051805190506000604051602001526040518363ffffffff167c01000000000000000000000000000000000000000000000000000000000281526004018083600f0b600f0b815260200182600f0b600f0b81526020019250505060206040518083038186803b151561446457600080fd5b6102c65a03f4151561447557600080fd5b50505060405180519050890197505050505050505095945050505050565b600061449d6151f3565b6144a56151f3565b60008060008060006144f56040805190810160405280600781526020017f636c6561726564000000000000000000000000000000000000000000000000008152508c614aea90919063ffffffff16565b965061453f6040805190810160405280600881526020017f636c6561726564320000000000000000000000000000000000000000000000008152508c614aea90919063ffffffff16565b95506001600981111561454e57fe5b8a600981111561455a57fe5b148061457c57506005600981111561456e57fe5b8a600981111561457a57fe5b145b1561458e5760149450603c935061466c565b6002600981111561459b57fe5b8a60098111156145a757fe5b14806145c95750600660098111156145bb57fe5b8a60098111156145c757fe5b145b156145db57602894506046935061466b565b600760098111156145e857fe5b8a60098111156145f457fe5b14156146095761012c94506102bc935061466a565b6003600981111561461657fe5b8a600981111561462257fe5b14156146375761012c94506101f49350614669565b60098081111561464357fe5b8a600981111561464f57fe5b141561466357601494506101f49350614668565b600080fd5b5b5b5b5b6147a773__RealMath______________________________63f5a5d503876000604051602001526040518263ffffffff167c01000000000000000000000000000000000000000000000000000000000281526004018082600a0b600a0b815260200191505060206040518083038186803b15156146e857600080fd5b6102c65a03f415156146f957600080fd5b5050506040518051905073__RealMath______________________________63f5a5d503876000604051602001526040518263ffffffff167c01000000000000000000000000000000000000000000000000000000000281526004018082600a0b600a0b815260200191505060206040518083038186803b151561477c57600080fd5b6102c65a03f4151561478d57600080fd5b5050506040518051905089614eb79092919063ffffffff16565b92506148e473__RealMath______________________________63f5a5d503876000604051602001526040518263ffffffff167c01000000000000000000000000000000000000000000000000000000000281526004018082600a0b600a0b815260200191505060206040518083038186803b151561482557600080fd5b6102c65a03f4151561483657600080fd5b5050506040518051905073__RealMath______________________________63f5a5d503876000604051602001526040518263ffffffff167c01000000000000000000000000000000000000000000000000000000000281526004018082600a0b600a0b815260200191505060206040518083038186803b15156148b957600080fd5b6102c65a03f415156148ca57600080fd5b5050506040518051905088614eb79092919063ffffffff16565b915081600f0b83600f0b126148f957816148fb565b825b905073__RealMath______________________________63b6972146828f6000604051602001526040518363ffffffff167c01000000000000000000000000000000000000000000000000000000000281526004018083600f0b600f0b815260200182600f0b600f0b81526020019250505060206040518083038186803b151561498457600080fd5b6102c65a03f4151561499557600080fd5b50505060405180519050600f0b73__RealMath______________________________6325f39a63909173__RealMath______________________________63f5a5d50360646000604051602001526040518263ffffffff167c01000000000000000000000000000000000000000000000000000000000281526004018082600a0b815260200191505060206040518083038186803b1515614a3557600080fd5b6102c65a03f41515614a4657600080fd5b505050604051805190506000604051602001526040518363ffffffff167c01000000000000000000000000000000000000000000000000000000000281526004018083600f0b600f0b815260200182600f0b600f0b81526020019250505060206040518083038186803b1515614abb57600080fd5b6102c65a03f41515614acc57600080fd5b50505060405180519050890197505050505050505095945050505050565b614af26151f3565b602060405190810160405280600285600001518560006040516020015260405180836000191660001916815260200182805190602001908083835b602083101515614b525780518252602082019150602081019050602083039250614b2d565b6001836020036101000a0380198251168184511680821785525050505050509050019250505060206040518083038160008661646e5a03f11515614b9557600080fd5b50506040518051905060001916815250905092915050565b600073__RealMath______________________________6315dbfe2873__RealMath______________________________63f5a5d503866000604051602001526040518263ffffffff167c01000000000000000000000000000000000000000000000000000000000281526004018082600a0b600a0b815260200191505060206040518083038186803b1515614c4257600080fd5b6102c65a03f41515614c5357600080fd5b50505060405180519050614c6687615069565b600f0b73__RealMath______________________________63b6972146909173__RealMath______________________________63f5a5d5038a6000604051602001526040518263ffffffff167c01000000000000000000000000000000000000000000000000000000000281526004018082600a0b600a0b815260200191505060206040518083038186803b1515614cfe57600080fd5b6102c65a03f41515614d0f57600080fd5b5050506040518051905073__RealMath______________________________63f5a5d5038a6000604051602001526040518263ffffffff167c01000000000000000000000000000000000000000000000000000000000281526004018082600a0b600a0b815260200191505060206040518083038186803b1515614d9257600080fd5b6102c65a03f41515614da357600080fd5b50505060405180519050036000604051602001526040518363ffffffff167c01000000000000000000000000000000000000000000000000000000000281526004018083600f0b600f0b815260200182600f0b600f0b81526020019250505060206040518083038186803b1515614e1957600080fd5b6102c65a03f41515614e2a57600080fd5b50505060405180519050016000604051602001526040518263ffffffff167c01000000000000000000000000000000000000000000000000000000000281526004018082600f0b600f0b815260200191505060206040518083038186803b1515614e9357600080fd5b6102c65a03f41515614ea457600080fd5b5050506040518051905090509392505050565b600082614ec385615069565b600f0b73__RealMath______________________________63b697214690918686036000604051602001526040518363ffffffff167c01000000000000000000000000000000000000000000000000000000000281526004018083600f0b600f0b815260200182600f0b600f0b81526020019250505060206040518083038186803b1515614f5057600080fd5b6102c65a03f41515614f6157600080fd5b505050604051805190500190509392505050565b600080600060018660000b1415614fa1578360000b614f998860018860000b614bad565b019250614fe9565b8360000b9150600090505b8560000b8160000b1215614fe557614fd4614fca888360000b615113565b6001876000614f75565b820191508080600101915050614fac565b8192505b5050949350505050565b614ffb6151f3565b60206040519081016040528060028560000151856000604051602001526040518083600019166000191681526020018281526020019250505060206040518083038160008661646e5a03f1151561505157600080fd5b50506040518051905060001916815250905092915050565b600061507482615189565b600f0b73__RealMath______________________________6384f1bd4e90916000604051602001526040518263ffffffff167c01000000000000000000000000000000000000000000000000000000000281526004018082600f0b600f0b815260200191505060206040518083038186803b15156150f157600080fd5b6102c65a03f4151561510257600080fd5b505050604051805190509050919050565b61511b6151f3565b60206040519081016040528060028560000151856000604051602001526040518083600019166000191681526020018281526020019250505060206040518083038160008661646e5a03f1151561517157600080fd5b50506040518051905060001916815250905092915050565b60006151948261519f565b600190049050919050565b60006002826000015160006040516020015260405180826000191660001916815260200191505060206040518083038160008661646e5a03f115156151e357600080fd5b5050604051805190509050919050565b6020604051908101604052806000801916815250905600a165627a7a723058204a58a402f41e068ded18ddb7c2972c3a05f5137c408881ca824574b781a2a7210029",
  "source": "pragma solidity ^0.4.18;\n\nimport \"./RNG.sol\";\nimport \"./RealMath.sol\";\n\nimport \"./AccessControl.sol\";\nimport \"./ControlledAccess.sol\";\n\n/**\n * Represents a Macroverse generator for planetary systems around stars and\n * other stellar objects.\n *\n * Because of contract size limitations, some code in this contract is shared\n * between planets and moons, while some code is planet-specific. Moon-specific\n * code lives in the MacroverseMoonGenerator.\n *\n * Permission to call methods on this contract is regulated by a configurable\n * AccessControl contract. One such set of terms might be to require that the\n * account initiating a transaction have a certain minimum MRV token balance.\n *\n * The owner of this contract reserves the right to supersede it with a new\n * version, and to modify the terms for accessing this contract, at any time,\n * for any reason, and without notice. This includes the right to indefinitely\n * or permanently suspend or terminate access to this contract for any person,\n * account, or other contract, or for all persons, accounts, or other\n * contracts. The owner also reserves the right to not do any of the above.\n */\ncontract MacroverseSystemGenerator is ControlledAccess {\n    // TODO: RNG doesn't get linked against because we can't pass the struct to the library...\n    using RNG for *;\n    using RealMath for *;\n    // No SafeMath or it might confuse RealMath\n\n    /**\n     * It is useful to have Pi around.\n     * We can't pull it in from the library.\n     */\n    int128 constant REAL_PI = 3454217652358;\n\n    /**\n     * Also perpare pi/2\n     */\n    int128 constant REAL_HALF_PI = REAL_PI >> 1;\n\n    /**\n     * How many fractional bits are there?\n     */\n    int256 constant REAL_FBITS = 40;\n    \n    /**\n     * What's the first non-fractional bit\n     */\n    int128 constant REAL_ONE = int128(1) << REAL_FBITS;\n    \n    /**\n     * What's the last fractional bit?\n     */\n    int128 constant REAL_HALF = REAL_ONE >> 1;\n    \n    /**\n     * What's two? Two is pretty useful.\n     */\n    int128 constant REAL_TWO = REAL_ONE << 1;\n\n    /**\n     * And zero\n     */\n    int128 constant REAL_ZERO = 0;\n\n    /**\n     * Define different types of planet or moon.\n     * \n     * There are two main progressions:\n     * Asteroidal, Lunar, Terrestrial, Jovian are rocky things.\n     * Cometary, Europan, Panthalassic, Neptunian are icy/watery things, depending on temperature.\n     * The last thing in each series is the gas/ice giant.\n     *\n     * Asteroidal and Cometary are only valid for moons; we don't track such tiny bodies at system scale.\n     *\n     * We also have rings and asteroid belts. Rings can only be around planets, and we fake the Roche limit math we really should do.\n     * \n     */\n    enum WorldClass {Asteroidal, Lunar, Terrestrial, Jovian, Cometary, Europan, Panthalassic, Neptunian, Ring, AsteroidBelt}\n\n    /**\n     * Deploy a new copy of the MacroverseSystemGenerator.\n     */\n    function MacroverseSystemGenerator(address accessControlAddress) ControlledAccess(AccessControl(accessControlAddress)) public {\n        // Nothing to do!\n    }\n    \n    /**\n     * Get the seed for a planet or moon from the seed for its parent (star or planet) and its child number.\n     */\n    function getWorldSeed(bytes32 parentSeed, uint childNumber) public view onlyControlledAccess returns (bytes32) {\n        return RNG.RandNode(parentSeed).derive(childNumber)._hash;\n    }\n    \n    /**\n     * Decide what kind of planet a given planet is.\n     * It depends on its place in the order.\n     * Takes the *planet*'s seed, its number, and the total planets in the system.\n     */\n    function getPlanetClass(bytes32 seed, uint planetNumber, uint totalPlanets) public view onlyControlledAccess returns (WorldClass) {\n        // TODO: do something based on metallicity?\n        var node = RNG.RandNode(seed).derive(\"class\");\n        \n        var roll = node.getIntBetween(0, 100);\n        \n        // Inner planets should be more planet-y, ideally smaller\n        // Asteroid belts shouldn't be first that often\n        \n        if (planetNumber == 0 && totalPlanets != 1) {\n            // Innermost planet of a multi-planet system\n            // No asteroid belts allowed!\n            // Also avoid too much watery stuff here because we don't want to deal with the water having been supposed to boil off.\n            if (roll < 69) {\n                return WorldClass.Lunar;\n            } else if (roll < 70) {\n                return WorldClass.Europan;\n            } else if (roll < 79) {\n                return WorldClass.Terrestrial;\n            } else if (roll < 80) {\n                return WorldClass.Panthalassic;\n            } else if (roll < 90) {\n                return WorldClass.Neptunian;\n            } else {\n                return WorldClass.Jovian;\n            }\n        } else if (planetNumber < totalPlanets / 2) {\n            // Inner system\n            if (roll < 15) {\n                return WorldClass.Lunar;\n            } else if (roll < 20) {\n                return WorldClass.Europan;\n            } else if (roll < 35) {\n                return WorldClass.Terrestrial;\n            } else if (roll < 40) {\n                return WorldClass.Panthalassic;\n            } else if (roll < 70) {\n                return WorldClass.Neptunian;\n            } else if (roll < 80) {\n                return WorldClass.Jovian;\n            } else {\n                return WorldClass.AsteroidBelt;\n            }\n        } else {\n            // Outer system\n            if (roll < 5) {\n                return WorldClass.Lunar;\n            } else if (roll < 20) {\n                return WorldClass.Europan;\n            } else if (roll < 22) {\n                return WorldClass.Terrestrial;\n            } else if (roll < 30) {\n                return WorldClass.Panthalassic;\n            } else if (roll < 60) {\n                return WorldClass.Neptunian;\n            } else if (roll < 90) {\n                return WorldClass.Jovian;\n            } else {\n                return WorldClass.AsteroidBelt;\n            }\n        }\n    }\n    \n    /**\n     * Decide what the mass of the planet or moon is. We can't do even the mass of\n     * Jupiter in the ~88 bits we have in a real (should we have used int256 as\n     * the backing type?) so we work in Earth masses.\n     *\n     * Also produces the masses for moons.\n     */\n    function getWorldMass(bytes32 seed, WorldClass class) public view onlyControlledAccess returns (int128) {\n        var node = RNG.RandNode(seed).derive(\"mass\");\n        \n        if (class == WorldClass.Asteroidal) {\n            // For tiny bodies like this we work in nano-earths\n            return node.getRealBetween(RealMath.fraction(1, 1000000000), RealMath.fraction(10, 1000000000));\n        } else if (class == WorldClass.Cometary) {\n            return node.getRealBetween(RealMath.fraction(1, 1000000000), RealMath.fraction(10, 1000000000));\n        } else if (class == WorldClass.Lunar) {\n            return node.getRealBetween(RealMath.fraction(1, 100), RealMath.fraction(9, 100));\n        } else if (class == WorldClass.Europan) {\n            return node.getRealBetween(RealMath.fraction(8, 1000), RealMath.fraction(80, 1000));\n        } else if (class == WorldClass.Terrestrial) {\n            return node.getRealBetween(RealMath.fraction(10, 100), RealMath.toReal(9));\n        } else if (class == WorldClass.Panthalassic) {\n            return node.getRealBetween(RealMath.fraction(80, 1000), RealMath.toReal(9));\n        } else if (class == WorldClass.Neptunian) {\n            return node.getRealBetween(RealMath.toReal(7), RealMath.toReal(20));\n        } else if (class == WorldClass.Jovian) {\n            return node.getRealBetween(RealMath.toReal(50), RealMath.toReal(400));\n        } else if (class == WorldClass.AsteroidBelt) {\n            return node.getRealBetween(RealMath.fraction(1, 100), RealMath.fraction(20, 100));\n        } else if (class == WorldClass.Ring) {\n            // Saturn's rings are maybe about 5-15 micro-earths\n            return node.getRealBetween(RealMath.fraction(1, 1000000), RealMath.fraction(20, 1000000));\n        } else {\n            // Not real!\n            revert();\n        }\n    }\n    \n    // Define the orbit shape\n\n    /**\n     * Given the parent star's habitable zone bounds, the planet seed, the planet class\n     * to be generated, and the \"clearance\" radius around the previous planet\n     * in meters, produces orbit statistics (periapsis, apoapsis, and\n     * clearance) in meters.\n     *\n     * The first planet uses a previous clearance of 0.\n     */\n    function getPlanetOrbitDimensions(int128 realInnerRadius, int128 realOuterRadius, bytes32 seed, WorldClass class, int128 realPrevClearance)\n        public view onlyControlledAccess returns (int128 realPeriapsis, int128 realApoapsis, int128 realClearance) {\n\n        // We scale all the random generation around the habitable zone distance.\n\n        // Make the planet RNG node to use for all the computations\n        var node = RNG.RandNode(seed);\n        \n        // Compute the statistics with their own functions\n        realPeriapsis = getPlanetPeriapsis(realInnerRadius, realOuterRadius, node, class, realPrevClearance);\n        realApoapsis = getPlanetApoapsis(realInnerRadius, realOuterRadius, node, class, realPeriapsis);\n        realClearance = getPlanetClearance(realInnerRadius, realOuterRadius, node, class, realApoapsis);\n    }\n\n    /**\n     * Decide what the planet's orbit's periapsis is, in meters.\n     * This is the first statistic about the orbit to be generated.\n     *\n     * For the first planet, realPrevClearance is 0. For others, it is the\n     * clearance (i.e. distance from star that the planet has cleared out) of\n     * the previous planet.\n     */\n    function getPlanetPeriapsis(int128 realInnerRadius, int128 realOuterRadius, RNG.RandNode planetNode, WorldClass class, int128 realPrevClearance)\n        internal pure returns (int128) {\n        \n        // We're going to sample 2 values and take the minimum, to get a nicer distribution than uniform.\n        // We really kind of want a log scale but that's expensive.\n        var node1 = planetNode.derive(\"periapsis\");\n        var node2 = planetNode.derive(\"periapsis2\");\n        \n        // Define minimum and maximum periapsis distance above previous planet's\n        // cleared band. Work in % of the habitable zone inner radius.\n        int88 minimum;\n        int88 maximum;\n        if (class == WorldClass.Lunar || class == WorldClass.Europan) {\n            minimum = 20;\n            maximum = 60;\n        } else if (class == WorldClass.Terrestrial || class == WorldClass.Panthalassic) {\n            minimum = 20;\n            maximum = 70;\n        } else if (class == WorldClass.Neptunian) {\n            minimum = 50;\n            maximum = 1000;\n        } else if (class == WorldClass.Jovian) {\n            minimum = 300;\n            maximum = 500;\n        } else if (class == WorldClass.AsteroidBelt) {\n            minimum = 20;\n            maximum = 500;\n        } else {\n            // Not real!\n            revert();\n        }\n        \n        int128 realSeparation1 = node1.getRealBetween(RealMath.toReal(minimum), RealMath.toReal(maximum));\n        int128 realSeparation2 = node2.getRealBetween(RealMath.toReal(minimum), RealMath.toReal(maximum));\n        int128 realSeparation = realSeparation1 < realSeparation2 ? realSeparation1 : realSeparation2;\n        return realPrevClearance + RealMath.mul(realSeparation, realInnerRadius).div(RealMath.toReal(100)); \n    }\n    \n    /**\n     * Decide what the planet's orbit's apoapsis is, in meters.\n     * This is the second statistic about the orbit to be generated.\n     */\n    function getPlanetApoapsis(int128 realInnerRadius, int128 realOuterRadius, RNG.RandNode planetNode, WorldClass class, int128 realPeriapsis)\n        internal pure returns (int128) {\n        \n        var node1 = planetNode.derive(\"apoapsis\");\n        var node2 = planetNode.derive(\"apoapsis2\");\n        \n        // Define minimum and maximum apoapsis distance above planet's periapsis.\n        // Work in % of the habitable zone inner radius.\n        int88 minimum;\n        int88 maximum;\n        if (class == WorldClass.Lunar || class == WorldClass.Europan) {\n            minimum = 0;\n            maximum = 6;\n        } else if (class == WorldClass.Terrestrial || class == WorldClass.Panthalassic) {\n            minimum = 0;\n            maximum = 10;\n        } else if (class == WorldClass.Neptunian) {\n            minimum = 20;\n            maximum = 500;\n        } else if (class == WorldClass.Jovian) {\n            minimum = 10;\n            maximum = 200;\n        } else if (class == WorldClass.AsteroidBelt) {\n            minimum = 10;\n            maximum = 100;\n        } else {\n            // Not real!\n            revert();\n        }\n        \n        int128 realWidth1 = node1.getRealBetween(RealMath.toReal(minimum), RealMath.toReal(maximum));\n        int128 realWidth2 = node2.getRealBetween(RealMath.toReal(minimum), RealMath.toReal(maximum));\n        int128 realWidth = realWidth1 < realWidth2 ? realWidth1 : realWidth2; \n        return realPeriapsis + RealMath.mul(realWidth, realInnerRadius).div(RealMath.toReal(100)); \n    }\n    \n    /**\n     * Decide how far out the cleared band after the planet's orbit is.\n     */\n    function getPlanetClearance(int128 realInnerRadius, int128 realOuterRadius, RNG.RandNode planetNode, WorldClass class, int128 realApoapsis)\n        internal pure returns (int128) {\n        \n        var node1 = planetNode.derive(\"cleared\");\n        var node2 = planetNode.derive(\"cleared2\");\n        \n        // Define minimum and maximum clearance.\n        // Work in % of the habitable zone inner radius.\n        int88 minimum;\n        int88 maximum;\n        if (class == WorldClass.Lunar || class == WorldClass.Europan) {\n            minimum = 20;\n            maximum = 60;\n        } else if (class == WorldClass.Terrestrial || class == WorldClass.Panthalassic) {\n            minimum = 40;\n            maximum = 70;\n        } else if (class == WorldClass.Neptunian) {\n            minimum = 300;\n            maximum = 700;\n        } else if (class == WorldClass.Jovian) {\n            minimum = 300;\n            maximum = 500;\n        } else if (class == WorldClass.AsteroidBelt) {\n            minimum = 20;\n            maximum = 500;\n        } else {\n            // Not real!\n            revert();\n        }\n        \n        int128 realSeparation1 = node1.getRealBetween(RealMath.toReal(minimum), RealMath.toReal(maximum));\n        int128 realSeparation2 = node2.getRealBetween(RealMath.toReal(minimum), RealMath.toReal(maximum));\n        int128 realSeparation = realSeparation1 < realSeparation2 ? realSeparation1 : realSeparation2;\n        return realApoapsis + RealMath.mul(realSeparation, realInnerRadius).div(RealMath.toReal(100)); \n    }\n    \n    /**\n     * Convert from periapsis and apoapsis to semimajor axis and eccentricity.\n     */\n    function convertOrbitShape(int128 realPeriapsis, int128 realApoapsis) public view onlyControlledAccess returns (int128 realSemimajor, int128 realEccentricity) {\n        // Semimajor axis is average of apoapsis and periapsis\n        realSemimajor = RealMath.div(realApoapsis + realPeriapsis, RealMath.toReal(2));\n        \n        // Eccentricity is ratio of difference and sum\n        realEccentricity = RealMath.div(realApoapsis - realPeriapsis, realApoapsis + realPeriapsis);\n    }\n    \n    // Define the orbital plane\n    \n    /**\n     * Get the longitude of the ascending node for a planet or moon. For\n     * planets, this is the angle from galactic +X to ascending node. For\n     * moons, we use galactic +X transformed into the planet's equatorial plane\n     * by the equatorial plane/rotation axis angles.\n     */ \n    function getWorldLan(bytes32 seed) public view onlyControlledAccess returns (int128) {\n        var node = RNG.RandNode(seed).derive(\"LAN\");\n        // Angles should be uniform from 0 to 2 PI\n        return node.getRealBetween(RealMath.toReal(0), RealMath.mul(RealMath.toReal(2), REAL_PI));\n    }\n    \n    /**\n     * Get the inclination (angle from galactic XZ plane to orbital plane at the ascending node) for a planet.\n     * For a moon, this is done in the moon generator instead.\n     * Inclination is always positive. If it were negative, the ascending node would really be the descending node.\n     * Result is a real in radians.\n     */ \n    function getPlanetInclination(bytes32 seed, WorldClass class) public view onlyControlledAccess returns (int128) {\n        var node = RNG.RandNode(seed).derive(\"inclination\");\n    \n        // Define minimum and maximum inclinations in milliradians\n        // 175 milliradians = ~ 10 degrees\n        int88 minimum;\n        int88 maximum;\n        if (class == WorldClass.Lunar || class == WorldClass.Europan) {\n            minimum = 0;\n            maximum = 175;\n        } else if (class == WorldClass.Terrestrial || class == WorldClass.Panthalassic) {\n            minimum = 0;\n            maximum = 87;\n        } else if (class == WorldClass.Neptunian) {\n            minimum = 0;\n            maximum = 35;\n        } else if (class == WorldClass.Jovian) {\n            minimum = 0;\n            maximum = 52;\n        } else if (class == WorldClass.AsteroidBelt) {\n            minimum = 0;\n            maximum = 262;\n        } else {\n            // Not real!\n            revert();\n        }\n        \n        // Decide if we should be retrograde (PI-ish inclination)\n        int128 real_retrograde_offset = 0;\n        if (node.derive(\"retrograde\").d(1, 100, 0) < 3) {\n            // This planet ought to move retrograde\n            real_retrograde_offset = REAL_PI;\n        }\n\n        return real_retrograde_offset + RealMath.div(node.getRealBetween(RealMath.toReal(minimum), RealMath.toReal(maximum)), RealMath.toReal(1000));    \n    }\n    \n    // Define the orbit's embedding in the plane (and in time)\n    \n    /**\n     * Get the argument of periapsis (angle from ascending node to periapsis position, in the orbital plane) for a planet or moon.\n     */\n    function getWorldAop(bytes32 seed) public view onlyControlledAccess returns (int128) {\n        var node = RNG.RandNode(seed).derive(\"AOP\");\n        // Angles should be uniform from 0 to 2 PI.\n        // We already made sure planets/moons wouldn't get too close together when laying out the orbits.\n        return node.getRealBetween(RealMath.toReal(0), RealMath.mul(RealMath.toReal(2), REAL_PI));\n    }\n    \n    /**\n     * Get the mean anomaly (which sweeps from 0 at periapsis to 2 pi at the next periapsis) at epoch (time 0) for a planet or moon.\n     */\n    function getWorldMeanAnomalyAtEpoch(bytes32 seed) public view onlyControlledAccess returns (int128) {\n        var node = RNG.RandNode(seed).derive(\"MAE\");\n        // Angles should be uniform from 0 to 2 PI.\n        return node.getRealBetween(RealMath.toReal(0), RealMath.mul(RealMath.toReal(2), REAL_PI));\n    }\n\n    /**\n     * Get the Y and X axis angles for a world, in radians.\n     * The world's rotation axis starts straight up in its orbital plane.\n     * Then the planet is rotated in Y, around the axis by the Y angle.\n     * Then it is rotated forward (what would be toward the viewer) in the\n     * world's transformed X by the X axis angle.\n     * Both angles are in radians.\n     * Not used for asteroid belts or rings.\n     * For a tidally locked world, ignore these values and use 0 for both angles.\n     */\n    function getWorldYXAxisAngles(bytes32 seed) public view onlyControlledAccess returns (int128 realYRadians, int128 realXRadians) {\n       \n        // The Y angle should be uniform over all angles.\n        realYRadians = RNG.RandNode(seed).derive(\"axisy\").getRealBetween(-REAL_PI, REAL_PI);\n\n        // The Z angle will be mostly small positive or negative, with some sideways and some near Pi/2 (meaning retrograde rotation)\n        var tilt_die = RNG.RandNode(seed).derive(\"tilt\").d(1, 6, 0);\n        \n        // Start with low tilt, right side up\n        // Earth is like 0.38 radians overall\n        int128 real_tilt_limit = REAL_HALF;\n        if (tilt_die >= 4) {\n            // Be high tilt\n            real_tilt_limit = REAL_HALF_PI;\n        }\n    \n        var x_node = RNG.RandNode(seed).derive(\"axisx\");\n        realXRadians = x_node.getRealBetween(-real_tilt_limit, real_tilt_limit);\n\n        if (tilt_die == 3 || tilt_die == 4) {\n            // Flip so the tilt we have is relative to upside_down\n            realXRadians += REAL_PI;\n        }\n    }\n\n    /**\n     * Get the spin rate of the world in radians per Julian year around its axis.\n     * For a tidally locked world, ignore this value and use the mean angular\n     * motion computed by the OrbitalMechanics contract, given the orbit\n     * details.\n     * Not used for asteroid belts or rings.\n     */\n    function getWorldSpinRate(bytes32 seed) public view onlyControlledAccess returns (int128) {\n        // Earth is something like 2k radians per Julian year.\n        return RNG.RandNode(seed).derive(\"spin\").getRealBetween(REAL_ZERO, RealMath.toReal(8000)); \n    }\n\n    /**\n     * Determine if the world is tidally locked, given its seed and its number\n     * out from the parent, starting with 0.\n     * Overrides getWorldZXAxisAngles and getWorldSpinRate. \n     * Not used for asteroid belts or rings.\n     */\n    function isTidallyLocked(bytes32 seed, uint worldNumber) public view onlyControlledAccess returns (bool) {\n        // Tidal lock should be common near the parent and less common further out.\n        return RNG.RandNode(seed).derive(\"tidal_lock\").getReal() < RealMath.fraction(1, int88(worldNumber + 1));\n    }\n\n\n}\n \n",
  "sourcePath": "/Users/anovak/Documents/Workspace/macroverse/contracts/MacroverseSystemGenerator.sol",
  "compiler": {
    "name": "solc",
    "version": "0.4.19+commit.c4cbbb05.Emscripten.clang"
  },
  "schemaVersion": "2.0.0",
  "updatedAt": "2018-11-16T02:40:31.317Z"
}