{
  "contractName": "MacroverseSystemGeneratorPart2",
  "abi": [
    {
      "constant": true,
      "inputs": [
        {
          "name": "realPeriapsis",
          "type": "int128"
        },
        {
          "name": "realApoapsis",
          "type": "int128"
        }
      ],
      "name": "convertOrbitShape",
      "outputs": [
        {
          "name": "realSemimajor",
          "type": "int128"
        },
        {
          "name": "realEccentricity",
          "type": "int128"
        }
      ],
      "payable": false,
      "stateMutability": "pure",
      "type": "function"
    },
    {
      "constant": true,
      "inputs": [
        {
          "name": "seed",
          "type": "bytes32"
        }
      ],
      "name": "getWorldLan",
      "outputs": [
        {
          "name": "",
          "type": "int128"
        }
      ],
      "payable": false,
      "stateMutability": "pure",
      "type": "function"
    },
    {
      "constant": true,
      "inputs": [
        {
          "name": "seed",
          "type": "bytes32"
        },
        {
          "name": "class",
          "type": "Macroverse.WorldClass"
        }
      ],
      "name": "getPlanetInclination",
      "outputs": [
        {
          "name": "",
          "type": "int128"
        }
      ],
      "payable": false,
      "stateMutability": "pure",
      "type": "function"
    },
    {
      "constant": true,
      "inputs": [
        {
          "name": "seed",
          "type": "bytes32"
        }
      ],
      "name": "getWorldAop",
      "outputs": [
        {
          "name": "",
          "type": "int128"
        }
      ],
      "payable": false,
      "stateMutability": "pure",
      "type": "function"
    },
    {
      "constant": true,
      "inputs": [
        {
          "name": "seed",
          "type": "bytes32"
        }
      ],
      "name": "getWorldMeanAnomalyAtEpoch",
      "outputs": [
        {
          "name": "",
          "type": "int128"
        }
      ],
      "payable": false,
      "stateMutability": "pure",
      "type": "function"
    },
    {
      "constant": true,
      "inputs": [
        {
          "name": "seed",
          "type": "bytes32"
        },
        {
          "name": "worldNumber",
          "type": "uint16"
        }
      ],
      "name": "isTidallyLocked",
      "outputs": [
        {
          "name": "",
          "type": "bool"
        }
      ],
      "payable": false,
      "stateMutability": "pure",
      "type": "function"
    },
    {
      "constant": true,
      "inputs": [
        {
          "name": "seed",
          "type": "bytes32"
        }
      ],
      "name": "getWorldYXAxisAngles",
      "outputs": [
        {
          "name": "realYRadians",
          "type": "int128"
        },
        {
          "name": "realXRadians",
          "type": "int128"
        }
      ],
      "payable": false,
      "stateMutability": "pure",
      "type": "function"
    },
    {
      "constant": true,
      "inputs": [
        {
          "name": "seed",
          "type": "bytes32"
        }
      ],
      "name": "getWorldSpinRate",
      "outputs": [
        {
          "name": "",
          "type": "int128"
        }
      ],
      "payable": false,
      "stateMutability": "pure",
      "type": "function"
    }
  ],
  "bytecode": "0x611c11610026600b82828239805160001a60731461001957fe5b30600052607381538281f3fe73000000000000000000000000000000000000000030146080604052600436106100925760003560e01c806399b64cf31161006557806399b64cf3146101dd5780639a8914bc14610225578063a3828ebe1461028a578063b0810666146102d257610092565b806350b89465146100975780635f2eb7b9146100ec5780638301f10e1461014157806396ab5ec714610189575b600080fd5b6100d0600480360360408110156100ad57600080fd5b8101908080359060200190929190803560ff16906020019092919050505061031a565b6040518082600f0b600f0b815260200191505060405180910390f35b6101186004803603602081101561010257600080fd5b810190808035906020019092919050505061078d565b6040518083600f0b600f0b815260200182600f0b600f0b81526020019250505060405180910390f35b61016d6004803603602081101561015757600080fd5b810190808035906020019092919050505061095f565b6040518082600f0b600f0b815260200191505060405180910390f35b6101c36004803603604081101561019f57600080fd5b8101908080359060200190929190803561ffff169060200190929190505050610b9b565b604051808215151515815260200191505060405180910390f35b610209600480360360208110156101f357600080fd5b8101908080359060200190929190505050610cac565b6040518082600f0b600f0b815260200191505060405180910390f35b6102616004803603604081101561023b57600080fd5b810190808035600f0b90602001909291908035600f0b9060200190929190505050610dae565b6040518083600f0b600f0b815260200182600f0b600f0b81526020019250505060405180910390f35b6102b6600480360360208110156102a057600080fd5b8101908080359060200190929190505050610f8b565b6040518082600f0b600f0b815260200191505060405180910390f35b6102fe600480360360208110156102e857600080fd5b81019080803590602001909291905050506111c7565b6040518082600f0b600f0b815260200191505060405180910390f35b6000610324611bcf565b61037a6040518060400160405280600b81526020017f696e636c696e6174696f6e00000000000000000000000000000000000000000081525060405180602001604052808781525061140390919063ffffffff16565b90506000806001600981111561038c57fe5b85600981111561039857fe5b14806103ba5750600560098111156103ac57fe5b8560098111156103b857fe5b145b156103cc576000915060af90506104a6565b600260098111156103d957fe5b8560098111156103e557fe5b14806104075750600660098111156103f957fe5b85600981111561040557fe5b145b156104195760009150605790506104a5565b6007600981111561042657fe5b85600981111561043257fe5b14156104455760009150602390506104a4565b6003600981111561045257fe5b85600981111561045e57fe5b14156104715760009150603490506104a3565b60098081111561047d57fe5b85600981111561048957fe5b141561049d576000915061010690506104a2565b600080fd5b5b5b5b5b6000809050600361050e6001606460006104fe6040518060400160405280600a81526020017f726574726f6772616465000000000000000000000000000000000000000000008152508a61140390919063ffffffff16565b611535909392919063ffffffff16565b60010b1215610521576503243f6a888690505b73__RealMath______________________________6325f39a6361066e73__RealMath______________________________63f5a5d503876040518263ffffffff1660e01b81526004018082600a0b600a0b815260200191505060206040518083038186803b15801561059357600080fd5b505af41580156105a7573d6000803e3d6000fd5b505050506040513d60208110156105bd57600080fd5b810190808051906020019092919050505073__RealMath______________________________63f5a5d503876040518263ffffffff1660e01b81526004018082600a0b600a0b815260200191505060206040518083038186803b15801561062357600080fd5b505af4158015610637573d6000803e3d6000fd5b505050506040513d602081101561064d57600080fd5b8101908080519060200190929190505050886115b39092919063ffffffff16565b73__RealMath______________________________63f5a5d5036103e86040518263ffffffff1660e01b81526004018082600a0b815260200191505060206040518083038186803b1580156106c257600080fd5b505af41580156106d6573d6000803e3d6000fd5b505050506040513d60208110156106ec57600080fd5b81019080805190602001909291905050506040518363ffffffff1660e01b81526004018083600f0b600f0b815260200182600f0b600f0b81526020019250505060206040518083038186803b15801561074457600080fd5b505af4158015610758573d6000803e3d6000fd5b505050506040513d602081101561076e57600080fd5b8101908080519060200190929190505050810194505050505092915050565b6000806108096503243f6a88866000036503243f6a88866107fa6040518060400160405280600581526020017f617869737900000000000000000000000000000000000000000000000000000081525060405180602001604052808981525061140390919063ffffffff16565b6115b39092919063ffffffff16565b9150600061087c60016006600061086c6040518060400160405280600481526020017f74696c740000000000000000000000000000000000000000000000000000000081525060405180602001604052808b81525061140390919063ffffffff16565b611535909392919063ffffffff16565b90506000600160286001600f0b600082121561089457fe5b901b600f0b901d905060058260010b126108b95760016503243f6a8886600f0b901d90505b6108c1611bcf565b6109176040518060400160405280600581526020017f617869737800000000000000000000000000000000000000000000000000000081525060405180602001604052808981525061140390919063ffffffff16565b905061092f600083836115b39092919063ffffffff16565b935060048360010b1480610946575060058360010b145b1561095757836503243f6a88860393505b505050915091565b6000610969611bcf565b6109bf6040518060400160405280600381526020017f4c414e000000000000000000000000000000000000000000000000000000000081525060405180602001604052808681525061140390919063ffffffff16565b9050610b9373__RealMath______________________________63f5a5d50360006040518263ffffffff1660e01b81526004018082600a0b815260200191505060206040518083038186803b158015610a1757600080fd5b505af4158015610a2b573d6000803e3d6000fd5b505050506040513d6020811015610a4157600080fd5b810190808051906020019092919050505073__RealMath______________________________63b697214673__RealMath______________________________63f5a5d50360026040518263ffffffff1660e01b81526004018082600a0b815260200191505060206040518083038186803b158015610abf57600080fd5b505af4158015610ad3573d6000803e3d6000fd5b505050506040513d6020811015610ae957600080fd5b81019080805190602001909291905050506503243f6a88866040518363ffffffff1660e01b81526004018083600f0b600f0b815260200182600f0b600f0b81526020019250505060206040518083038186803b158015610b4857600080fd5b505af4158015610b5c573d6000803e3d6000fd5b505050506040513d6020811015610b7257600080fd5b8101908080519060200190929190505050836115b39092919063ffffffff16565b915050919050565b600073__RealMath______________________________631dade0d4600180850161ffff166040518363ffffffff1660e01b81526004018083600a0b815260200182600a0b600a0b81526020019250505060206040518083038186803b158015610c0457600080fd5b505af4158015610c18573d6000803e3d6000fd5b505050506040513d6020811015610c2e57600080fd5b8101908080519060200190929190505050600f0b610ca0610c9b6040518060400160405280600a81526020017f746964616c5f6c6f636b0000000000000000000000000000000000000000000081525060405180602001604052808881525061140390919063ffffffff16565b61166d565b600f0b12905092915050565b6000610da7600073__RealMath______________________________63f5a5d503611f406040518263ffffffff1660e01b81526004018082600a0b815260200191505060206040518083038186803b158015610d0757600080fd5b505af4158015610d1b573d6000803e3d6000fd5b505050506040513d6020811015610d3157600080fd5b8101908080519060200190929190505050610d986040518060400160405280600481526020017f7370696e0000000000000000000000000000000000000000000000000000000081525060405180602001604052808881525061140390919063ffffffff16565b6115b39092919063ffffffff16565b9050919050565b60008073__RealMath______________________________6325f39a6385850173__RealMath______________________________63f5a5d50360026040518263ffffffff1660e01b81526004018082600a0b815260200191505060206040518083038186803b158015610e2157600080fd5b505af4158015610e35573d6000803e3d6000fd5b505050506040513d6020811015610e4b57600080fd5b81019080805190602001909291905050506040518363ffffffff1660e01b81526004018083600f0b600f0b815260200182600f0b600f0b81526020019250505060206040518083038186803b158015610ea357600080fd5b505af4158015610eb7573d6000803e3d6000fd5b505050506040513d6020811015610ecd57600080fd5b8101908080519060200190929190505050915073__RealMath______________________________6325f39a638585038686016040518363ffffffff1660e01b81526004018083600f0b600f0b815260200182600f0b600f0b81526020019250505060206040518083038186803b158015610f4757600080fd5b505af4158015610f5b573d6000803e3d6000fd5b505050506040513d6020811015610f7157600080fd5b810190808051906020019092919050505090509250929050565b6000610f95611bcf565b610feb6040518060400160405280600381526020017f4d4145000000000000000000000000000000000000000000000000000000000081525060405180602001604052808681525061140390919063ffffffff16565b90506111bf73__RealMath______________________________63f5a5d50360006040518263ffffffff1660e01b81526004018082600a0b815260200191505060206040518083038186803b15801561104357600080fd5b505af4158015611057573d6000803e3d6000fd5b505050506040513d602081101561106d57600080fd5b810190808051906020019092919050505073__RealMath______________________________63b697214673__RealMath______________________________63f5a5d50360026040518263ffffffff1660e01b81526004018082600a0b815260200191505060206040518083038186803b1580156110eb57600080fd5b505af41580156110ff573d6000803e3d6000fd5b505050506040513d602081101561111557600080fd5b81019080805190602001909291905050506503243f6a88866040518363ffffffff1660e01b81526004018083600f0b600f0b815260200182600f0b600f0b81526020019250505060206040518083038186803b15801561117457600080fd5b505af4158015611188573d6000803e3d6000fd5b505050506040513d602081101561119e57600080fd5b8101908080519060200190929190505050836115b39092919063ffffffff16565b915050919050565b60006111d1611bcf565b6112276040518060400160405280600381526020017f414f50000000000000000000000000000000000000000000000000000000000081525060405180602001604052808681525061140390919063ffffffff16565b90506113fb73__RealMath______________________________63f5a5d50360006040518263ffffffff1660e01b81526004018082600a0b815260200191505060206040518083038186803b15801561127f57600080fd5b505af4158015611293573d6000803e3d6000fd5b505050506040513d60208110156112a957600080fd5b810190808051906020019092919050505073__RealMath______________________________63b697214673__RealMath______________________________63f5a5d50360026040518263ffffffff1660e01b81526004018082600a0b815260200191505060206040518083038186803b15801561132757600080fd5b505af415801561133b573d6000803e3d6000fd5b505050506040513d602081101561135157600080fd5b81019080805190602001909291905050506503243f6a88866040518363ffffffff1660e01b81526004018083600f0b600f0b815260200182600f0b600f0b81526020019250505060206040518083038186803b1580156113b057600080fd5b505af41580156113c4573d6000803e3d6000fd5b505050506040513d60208110156113da57600080fd5b8101908080519060200190929190505050836115b39092919063ffffffff16565b915050919050565b61140b611bcf565b604051806020016040528060028560000151856040516020018083815260200182805190602001908083835b6020831061145a5780518252602082019150602081019050602083039250611437565b6001836020036101000a038019825116818451168082178552505050505050905001925050506040516020818303038152906040526040518082805190602001908083835b602083106114c2578051825260208201915060208101905060208303925061149f565b6001836020036101000a038019825116818451168082178552505050505050905001915050602060405180830381855afa158015611504573d6000803e3d6000fd5b5050506040513d602081101561151957600080fd5b8101908080519060200190929190505050815250905092915050565b600060018460000b141561155e578160000b6115568660018660000b611713565b0190506115ab565b60008260000b905060008090505b8560000b8160000b12156115a55761159461158a888360000b611a09565b6001876000611535565b82019150808060010191505061156c565b50809150505b949350505050565b6000826115bf8561166d565b600f0b73__RealMath______________________________63b697214690918686036040518363ffffffff1660e01b81526004018083600f0b600f0b815260200182600f0b600f0b81526020019250505060206040518083038186803b15801561162857600080fd5b505af415801561163c573d6000803e3d6000fd5b505050506040513d602081101561165257600080fd5b81019080805190602001909291905050500190509392505050565b600061167882611af0565b600f0b73__RealMath______________________________6384f1bd4e90916040518263ffffffff1660e01b81526004018082600f0b600f0b815260200191505060206040518083038186803b1580156116d157600080fd5b505af41580156116e5573d6000803e3d6000fd5b505050506040513d60208110156116fb57600080fd5b81019080805190602001909291905050509050919050565b600073__RealMath______________________________6315dbfe2873__RealMath______________________________63f5a5d503866040518263ffffffff1660e01b81526004018082600a0b600a0b815260200191505060206040518083038186803b15801561178457600080fd5b505af4158015611798573d6000803e3d6000fd5b505050506040513d60208110156117ae57600080fd5b81019080805190602001909291905050506117c88761166d565b600f0b73__RealMath______________________________63b6972146909173__RealMath______________________________63f5a5d5038a6040518263ffffffff1660e01b81526004018082600a0b600a0b815260200191505060206040518083038186803b15801561183c57600080fd5b505af4158015611850573d6000803e3d6000fd5b505050506040513d602081101561186657600080fd5b810190808051906020019092919050505073__RealMath______________________________63f5a5d5038a6040518263ffffffff1660e01b81526004018082600a0b600a0b815260200191505060206040518083038186803b1580156118cc57600080fd5b505af41580156118e0573d6000803e3d6000fd5b505050506040513d60208110156118f657600080fd5b8101908080519060200190929190505050036040518363ffffffff1660e01b81526004018083600f0b600f0b815260200182600f0b600f0b81526020019250505060206040518083038186803b15801561194f57600080fd5b505af4158015611963573d6000803e3d6000fd5b505050506040513d602081101561197957600080fd5b8101908080519060200190929190505050016040518263ffffffff1660e01b81526004018082600f0b600f0b815260200191505060206040518083038186803b1580156119c557600080fd5b505af41580156119d9573d6000803e3d6000fd5b505050506040513d60208110156119ef57600080fd5b810190808051906020019092919050505090509392505050565b611a11611bcf565b6040518060200160405280600285600001518560405160200180838152602001828152602001925050506040516020818303038152906040526040518082805190602001908083835b60208310611a7d5780518252602082019150602081019050602083039250611a5a565b6001836020036101000a038019825116818451168082178552505050505050905001915050602060405180830381855afa158015611abf573d6000803e3d6000fd5b5050506040513d6020811015611ad457600080fd5b8101908080519060200190929190505050815250905092915050565b6000611afb82611b05565b60001c9050919050565b600060028260000151604051602001808281526020019150506040516020818303038152906040526040518082805190602001908083835b60208310611b605780518252602082019150602081019050602083039250611b3d565b6001836020036101000a038019825116818451168082178552505050505050905001915050602060405180830381855afa158015611ba2573d6000803e3d6000fd5b5050506040513d6020811015611bb757600080fd5b81019080805190602001909291905050509050919050565b604051806020016040528060008019168152509056fea165627a7a723058209f62768456126572fa57d1905101cd7a5f359b0fe6fd161cab573719e1faf85f0029",
  "source": "pragma solidity ^0.5.2;\n\nimport \"./RNG.sol\";\nimport \"./RealMath.sol\";\n\nimport \"./AccessControl.sol\";\nimport \"./ControlledAccess.sol\";\n\nimport \"./Macroverse.sol\";\n\n\n/**\n * Contains a portion of the MacroverseStstemGenerator implementation code.\n * The contract is split up due to contract size limitations.\n * We can't do access control here sadly.\n */\nlibrary MacroverseSystemGeneratorPart2 {\n    using RNG for *;\n    using RealMath for *;\n    // No SafeMath or it might confuse RealMath\n\n    /**\n     * It is useful to have Pi around.\n     * We can't pull it in from the library.\n     */\n    int128 constant REAL_PI = 3454217652358;\n\n    /**\n     * Also perpare pi/2\n     */\n    int128 constant REAL_HALF_PI = REAL_PI >> 1;\n\n    /**\n     * How many fractional bits are there?\n     */\n    int256 constant REAL_FBITS = 40;\n    \n    /**\n     * What's the first non-fractional bit\n     */\n    int128 constant REAL_ONE = int128(1) << REAL_FBITS;\n    \n    /**\n     * What's the last fractional bit?\n     */\n    int128 constant REAL_HALF = REAL_ONE >> 1;\n    \n    /**\n     * What's two? Two is pretty useful.\n     */\n    int128 constant REAL_TWO = REAL_ONE << 1;\n\n    /**\n     * And zero\n     */\n    int128 constant REAL_ZERO = 0;\n    \n    /**\n     * Convert from periapsis and apoapsis to semimajor axis and eccentricity.\n     */\n    function convertOrbitShape(int128 realPeriapsis, int128 realApoapsis) public pure returns (int128 realSemimajor, int128 realEccentricity) {\n        // Semimajor axis is average of apoapsis and periapsis\n        realSemimajor = RealMath.div(realApoapsis + realPeriapsis, RealMath.toReal(2));\n        \n        // Eccentricity is ratio of difference and sum\n        realEccentricity = RealMath.div(realApoapsis - realPeriapsis, realApoapsis + realPeriapsis);\n    }\n    \n    // Define the orbital plane\n    \n    /**\n     * Get the longitude of the ascending node for a planet or moon. For\n     * planets, this is the angle from system +X to ascending node. For\n     * moons, we use system +X transformed into the planet's equatorial plane\n     * by the equatorial plane/rotation axis angles.\n     */ \n    function getWorldLan(bytes32 seed) public pure returns (int128) {\n        RNG.RandNode memory node = RNG.RandNode(seed).derive(\"LAN\");\n        // Angles should be uniform from 0 to 2 PI\n        return node.getRealBetween(RealMath.toReal(0), RealMath.mul(RealMath.toReal(2), REAL_PI));\n    }\n    \n    /**\n     * Get the inclination (angle from system XZ plane to orbital plane at the ascending node) for a planet.\n     * For a moon, this is done in the moon generator instead.\n     * Inclination is always positive. If it were negative, the ascending node would really be the descending node.\n     * Result is a real in radians.\n     */ \n    function getPlanetInclination(bytes32 seed, Macroverse.WorldClass class) public pure returns (int128) {\n        RNG.RandNode memory node = RNG.RandNode(seed).derive(\"inclination\");\n    \n        // Define minimum and maximum inclinations in milliradians\n        // 175 milliradians = ~ 10 degrees\n        int88 minimum;\n        int88 maximum;\n        if (class == Macroverse.WorldClass.Lunar || class == Macroverse.WorldClass.Europan) {\n            minimum = 0;\n            maximum = 175;\n        } else if (class == Macroverse.WorldClass.Terrestrial || class == Macroverse.WorldClass.Panthalassic) {\n            minimum = 0;\n            maximum = 87;\n        } else if (class == Macroverse.WorldClass.Neptunian) {\n            minimum = 0;\n            maximum = 35;\n        } else if (class == Macroverse.WorldClass.Jovian) {\n            minimum = 0;\n            maximum = 52;\n        } else if (class == Macroverse.WorldClass.AsteroidBelt) {\n            minimum = 0;\n            maximum = 262;\n        } else {\n            // Not real!\n            revert();\n        }\n        \n        // Decide if we should be retrograde (PI-ish inclination)\n        int128 real_retrograde_offset = 0;\n        if (node.derive(\"retrograde\").d(1, 100, 0) < 3) {\n            // This planet ought to move retrograde\n            real_retrograde_offset = REAL_PI;\n        }\n\n        return real_retrograde_offset + RealMath.div(node.getRealBetween(RealMath.toReal(minimum), RealMath.toReal(maximum)), RealMath.toReal(1000));    \n    }\n    \n    // Define the orbit's embedding in the plane (and in time)\n    \n    /**\n     * Get the argument of periapsis (angle from ascending node to periapsis position, in the orbital plane) for a planet or moon.\n     */\n    function getWorldAop(bytes32 seed) public pure returns (int128) {\n        RNG.RandNode memory node = RNG.RandNode(seed).derive(\"AOP\");\n        // Angles should be uniform from 0 to 2 PI.\n        // We already made sure planets/moons wouldn't get too close together when laying out the orbits.\n        return node.getRealBetween(RealMath.toReal(0), RealMath.mul(RealMath.toReal(2), REAL_PI));\n    }\n    \n    /**\n     * Get the mean anomaly (which sweeps from 0 at periapsis to 2 pi at the next periapsis) at epoch (time 0) for a planet or moon.\n     */\n    function getWorldMeanAnomalyAtEpoch(bytes32 seed) public pure returns (int128) {\n        RNG.RandNode memory node = RNG.RandNode(seed).derive(\"MAE\");\n        // Angles should be uniform from 0 to 2 PI.\n        return node.getRealBetween(RealMath.toReal(0), RealMath.mul(RealMath.toReal(2), REAL_PI));\n    }\n\n    /**\n     * Determine if the world is tidally locked, given its seed and its number\n     * out from the parent, starting with 0.\n     * Overrides getWorldZXAxisAngles and getWorldSpinRate. \n     * Not used for asteroid belts or rings.\n     */\n    function isTidallyLocked(bytes32 seed, uint16 worldNumber) public pure returns (bool) {\n        // Tidal lock should be common near the parent and less common further out.\n        return RNG.RandNode(seed).derive(\"tidal_lock\").getReal() < RealMath.fraction(1, int88(worldNumber + 1));\n    }\n\n    /**\n     * Get the Y and X axis angles for a world, in radians.\n     * The world's rotation axis starts straight up in its orbital plane.\n     * Then the planet is rotated in Y, around the axis by the Y angle.\n     * Then it is rotated forward (what would be toward the pureer) in the\n     * world's transformed X by the X axis angle.\n     * Both angles are in radians.\n     * The X angle is never negative, because the Y angle would just be the opposite direction.\n     * It is also never greater than Pi, because otherwise we would just measure around the other way.\n     * Not used for asteroid belts or rings.\n     * For a tidally locked world, ignore these values and use 0 for both angles.\n     */\n    function getWorldYXAxisAngles(bytes32 seed) public pure returns (int128 realYRadians, int128 realXRadians) {\n       \n        // The Y angle should be uniform over all angles.\n        realYRadians = RNG.RandNode(seed).derive(\"axisy\").getRealBetween(-REAL_PI, REAL_PI);\n\n        // The X angle will be mostly small positive or negative, with some sideways and some near Pi/2 (meaning retrograde rotation)\n        int16 tilt_die = RNG.RandNode(seed).derive(\"tilt\").d(1, 6, 0);\n        \n        // Start with low tilt, right side up\n        // Earth is like 0.38 radians overall\n        int128 real_tilt_limit = REAL_HALF;\n        if (tilt_die >= 5) {\n            // Be high tilt\n            real_tilt_limit = REAL_HALF_PI;\n        }\n    \n        RNG.RandNode memory x_node = RNG.RandNode(seed).derive(\"axisx\");\n        realXRadians = x_node.getRealBetween(0, real_tilt_limit);\n\n        if (tilt_die == 4 || tilt_die == 5) {\n            // Flip so the tilt we have is relative to upside-down\n            realXRadians = REAL_PI - realXRadians;\n        }\n\n        // So we should have 1/2 low tilt prograde, 1/6 low tilt retrograde, 1/6 high tilt retrograde, and 1/6 high tilt prograde\n    }\n\n    /**\n     * Get the spin rate of the world in radians per Julian year around its axis.\n     * For a tidally locked world, ignore this value and use the mean angular\n     * motion computed by the OrbitalMechanics contract, given the orbit\n     * details.\n     * Not used for asteroid belts or rings.\n     */\n    function getWorldSpinRate(bytes32 seed) public pure returns (int128) {\n        // Earth is something like 2k radians per Julian year.\n        return RNG.RandNode(seed).derive(\"spin\").getRealBetween(REAL_ZERO, RealMath.toReal(8000)); \n    }\n\n}\n \n",
  "sourcePath": "/Users/anovak/Documents/Workspace/macroverse/contracts/MacroverseSystemGeneratorPart2.sol",
  "compiler": {
    "name": "solc",
    "version": "0.5.8+commit.23d335f2.Emscripten.clang"
  },
  "schemaVersion": "3.0.16",
  "updatedAt": "2020-01-10T05:17:25.391Z",
  "devdoc": {
    "methods": {}
  },
  "userdoc": {
    "methods": {
      "convertOrbitShape(int128,int128)": {
        "notice": "Convert from periapsis and apoapsis to semimajor axis and eccentricity."
      },
      "getPlanetInclination(bytes32,Macroverse.WorldClass)": {
        "notice": "Get the inclination (angle from system XZ plane to orbital plane at the ascending node) for a planet. For a moon, this is done in the moon generator instead. Inclination is always positive. If it were negative, the ascending node would really be the descending node. Result is a real in radians."
      },
      "getWorldAop(bytes32)": {
        "notice": "Get the argument of periapsis (angle from ascending node to periapsis position, in the orbital plane) for a planet or moon."
      },
      "getWorldLan(bytes32)": {
        "notice": "Get the longitude of the ascending node for a planet or moon. For planets, this is the angle from system +X to ascending node. For moons, we use system +X transformed into the planet's equatorial plane by the equatorial plane/rotation axis angles."
      },
      "getWorldMeanAnomalyAtEpoch(bytes32)": {
        "notice": "Get the mean anomaly (which sweeps from 0 at periapsis to 2 pi at the next periapsis) at epoch (time 0) for a planet or moon."
      },
      "getWorldSpinRate(bytes32)": {
        "notice": "Get the spin rate of the world in radians per Julian year around its axis. For a tidally locked world, ignore this value and use the mean angular motion computed by the OrbitalMechanics contract, given the orbit details. Not used for asteroid belts or rings."
      },
      "getWorldYXAxisAngles(bytes32)": {
        "notice": "Get the Y and X axis angles for a world, in radians. The world's rotation axis starts straight up in its orbital plane. Then the planet is rotated in Y, around the axis by the Y angle. Then it is rotated forward (what would be toward the pureer) in the world's transformed X by the X axis angle. Both angles are in radians. The X angle is never negative, because the Y angle would just be the opposite direction. It is also never greater than Pi, because otherwise we would just measure around the other way. Not used for asteroid belts or rings. For a tidally locked world, ignore these values and use 0 for both angles."
      },
      "isTidallyLocked(bytes32,uint16)": {
        "notice": "Determine if the world is tidally locked, given its seed and its number out from the parent, starting with 0. Overrides getWorldZXAxisAngles and getWorldSpinRate.  Not used for asteroid belts or rings."
      }
    },
    "notice": "Contains a portion of the MacroverseStstemGenerator implementation code. The contract is split up due to contract size limitations. We can't do access control here sadly."
  }
}