{
  "contractName": "MacroverseUniversalRegistry",
  "abi": [
    {
      "constant": true,
      "inputs": [],
      "name": "expectedDepositBalance",
      "outputs": [
        {
          "name": "",
          "type": "uint256"
        }
      ],
      "payable": false,
      "stateMutability": "view",
      "type": "function"
    },
    {
      "constant": false,
      "inputs": [
        {
          "name": "contractAddr",
          "type": "address"
        }
      ],
      "name": "reclaimContract",
      "outputs": [],
      "payable": false,
      "stateMutability": "nonpayable",
      "type": "function"
    },
    {
      "constant": true,
      "inputs": [],
      "name": "minSystemDepositInAtomicUnits",
      "outputs": [
        {
          "name": "",
          "type": "uint256"
        }
      ],
      "payable": false,
      "stateMutability": "view",
      "type": "function"
    },
    {
      "constant": false,
      "inputs": [],
      "name": "renounceOwnership",
      "outputs": [],
      "payable": false,
      "stateMutability": "nonpayable",
      "type": "function"
    },
    {
      "constant": true,
      "inputs": [
        {
          "name": "",
          "type": "bytes32"
        }
      ],
      "name": "commitments",
      "outputs": [
        {
          "name": "hash",
          "type": "bytes32"
        },
        {
          "name": "deposit",
          "type": "uint256"
        },
        {
          "name": "creationTime",
          "type": "uint256"
        }
      ],
      "payable": false,
      "stateMutability": "view",
      "type": "function"
    },
    {
      "constant": true,
      "inputs": [],
      "name": "owner",
      "outputs": [
        {
          "name": "",
          "type": "address"
        }
      ],
      "payable": false,
      "stateMutability": "view",
      "type": "function"
    },
    {
      "constant": true,
      "inputs": [],
      "name": "isOwner",
      "outputs": [
        {
          "name": "",
          "type": "bool"
        }
      ],
      "payable": false,
      "stateMutability": "view",
      "type": "function"
    },
    {
      "constant": false,
      "inputs": [],
      "name": "reclaimEther",
      "outputs": [],
      "payable": false,
      "stateMutability": "nonpayable",
      "type": "function"
    },
    {
      "constant": true,
      "inputs": [],
      "name": "commitmentMinWait",
      "outputs": [
        {
          "name": "",
          "type": "uint256"
        }
      ],
      "payable": false,
      "stateMutability": "view",
      "type": "function"
    },
    {
      "constant": false,
      "inputs": [
        {
          "name": "newOwner",
          "type": "address"
        }
      ],
      "name": "transferOwnership",
      "outputs": [],
      "payable": false,
      "stateMutability": "nonpayable",
      "type": "function"
    },
    {
      "inputs": [
        {
          "name": "backend_address",
          "type": "address"
        },
        {
          "name": "existence_checker_address",
          "type": "address"
        },
        {
          "name": "deposit_token_address",
          "type": "address"
        },
        {
          "name": "initial_min_system_deposit_in_atomic_units",
          "type": "uint256"
        },
        {
          "name": "commitment_min_wait",
          "type": "uint256"
        }
      ],
      "payable": false,
      "stateMutability": "nonpayable",
      "type": "constructor"
    },
    {
      "payable": false,
      "stateMutability": "nonpayable",
      "type": "fallback"
    },
    {
      "anonymous": false,
      "inputs": [
        {
          "indexed": true,
          "name": "hash",
          "type": "bytes32"
        },
        {
          "indexed": true,
          "name": "owner",
          "type": "address"
        }
      ],
      "name": "Commit",
      "type": "event"
    },
    {
      "anonymous": false,
      "inputs": [
        {
          "indexed": true,
          "name": "hash",
          "type": "bytes32"
        },
        {
          "indexed": true,
          "name": "token",
          "type": "uint256"
        },
        {
          "indexed": true,
          "name": "owner",
          "type": "address"
        }
      ],
      "name": "Reveal",
      "type": "event"
    },
    {
      "anonymous": false,
      "inputs": [
        {
          "indexed": true,
          "name": "hash",
          "type": "bytes32"
        },
        {
          "indexed": true,
          "name": "owner",
          "type": "address"
        }
      ],
      "name": "Cancel",
      "type": "event"
    },
    {
      "anonymous": false,
      "inputs": [
        {
          "indexed": true,
          "name": "token",
          "type": "uint256"
        },
        {
          "indexed": true,
          "name": "former_owner",
          "type": "address"
        }
      ],
      "name": "Release",
      "type": "event"
    },
    {
      "anonymous": false,
      "inputs": [
        {
          "indexed": true,
          "name": "token",
          "type": "uint256"
        },
        {
          "indexed": true,
          "name": "value",
          "type": "bool"
        }
      ],
      "name": "Homesteading",
      "type": "event"
    },
    {
      "anonymous": false,
      "inputs": [
        {
          "indexed": true,
          "name": "parent",
          "type": "uint256"
        },
        {
          "indexed": true,
          "name": "child",
          "type": "uint256"
        }
      ],
      "name": "LandSplit",
      "type": "event"
    },
    {
      "anonymous": false,
      "inputs": [
        {
          "indexed": true,
          "name": "child",
          "type": "uint256"
        },
        {
          "indexed": true,
          "name": "parent",
          "type": "uint256"
        }
      ],
      "name": "LandMerge",
      "type": "event"
    },
    {
      "anonymous": false,
      "inputs": [
        {
          "indexed": false,
          "name": "new_min_system_deposit_in_atomic_units",
          "type": "uint256"
        }
      ],
      "name": "DepositScaleChange",
      "type": "event"
    },
    {
      "anonymous": false,
      "inputs": [
        {
          "indexed": true,
          "name": "previousOwner",
          "type": "address"
        },
        {
          "indexed": true,
          "name": "newOwner",
          "type": "address"
        }
      ],
      "name": "OwnershipTransferred",
      "type": "event"
    },
    {
      "constant": true,
      "inputs": [
        {
          "name": "token",
          "type": "uint256"
        }
      ],
      "name": "lowestExistingParent",
      "outputs": [
        {
          "name": "",
          "type": "uint256"
        }
      ],
      "payable": false,
      "stateMutability": "view",
      "type": "function"
    },
    {
      "constant": true,
      "inputs": [
        {
          "name": "token",
          "type": "uint256"
        },
        {
          "name": "claimant",
          "type": "address"
        }
      ],
      "name": "childrenClaimable",
      "outputs": [
        {
          "name": "",
          "type": "bool"
        }
      ],
      "payable": false,
      "stateMutability": "view",
      "type": "function"
    },
    {
      "constant": true,
      "inputs": [
        {
          "name": "token",
          "type": "uint256"
        }
      ],
      "name": "getMinDepositToCreate",
      "outputs": [
        {
          "name": "",
          "type": "uint256"
        }
      ],
      "payable": false,
      "stateMutability": "view",
      "type": "function"
    },
    {
      "constant": true,
      "inputs": [
        {
          "name": "token",
          "type": "uint256"
        }
      ],
      "name": "exists",
      "outputs": [
        {
          "name": "",
          "type": "bool"
        }
      ],
      "payable": false,
      "stateMutability": "view",
      "type": "function"
    },
    {
      "constant": false,
      "inputs": [
        {
          "name": "hash",
          "type": "bytes32"
        },
        {
          "name": "deposit",
          "type": "uint256"
        }
      ],
      "name": "commit",
      "outputs": [],
      "payable": false,
      "stateMutability": "nonpayable",
      "type": "function"
    },
    {
      "constant": false,
      "inputs": [
        {
          "name": "hash",
          "type": "bytes32"
        }
      ],
      "name": "cancel",
      "outputs": [],
      "payable": false,
      "stateMutability": "nonpayable",
      "type": "function"
    },
    {
      "constant": false,
      "inputs": [
        {
          "name": "token",
          "type": "uint256"
        },
        {
          "name": "nonce",
          "type": "uint256"
        }
      ],
      "name": "reveal",
      "outputs": [],
      "payable": false,
      "stateMutability": "nonpayable",
      "type": "function"
    },
    {
      "constant": false,
      "inputs": [
        {
          "name": "token",
          "type": "uint256"
        }
      ],
      "name": "release",
      "outputs": [],
      "payable": false,
      "stateMutability": "nonpayable",
      "type": "function"
    },
    {
      "constant": false,
      "inputs": [
        {
          "name": "token",
          "type": "uint256"
        },
        {
          "name": "value",
          "type": "bool"
        }
      ],
      "name": "setHomesteading",
      "outputs": [],
      "payable": false,
      "stateMutability": "nonpayable",
      "type": "function"
    },
    {
      "constant": true,
      "inputs": [
        {
          "name": "token",
          "type": "uint256"
        }
      ],
      "name": "getHomesteading",
      "outputs": [
        {
          "name": "",
          "type": "bool"
        }
      ],
      "payable": false,
      "stateMutability": "view",
      "type": "function"
    },
    {
      "constant": true,
      "inputs": [
        {
          "name": "token",
          "type": "uint256"
        }
      ],
      "name": "getDeposit",
      "outputs": [
        {
          "name": "",
          "type": "uint256"
        }
      ],
      "payable": false,
      "stateMutability": "view",
      "type": "function"
    },
    {
      "constant": false,
      "inputs": [
        {
          "name": "parent",
          "type": "uint256"
        },
        {
          "name": "additional_deposit",
          "type": "uint256"
        }
      ],
      "name": "subdivideLand",
      "outputs": [],
      "payable": false,
      "stateMutability": "nonpayable",
      "type": "function"
    },
    {
      "constant": false,
      "inputs": [
        {
          "name": "child1",
          "type": "uint256"
        },
        {
          "name": "child2",
          "type": "uint256"
        },
        {
          "name": "child3",
          "type": "uint256"
        },
        {
          "name": "child4",
          "type": "uint256"
        },
        {
          "name": "withdraw_deposit",
          "type": "uint256"
        }
      ],
      "name": "combineLand",
      "outputs": [],
      "payable": false,
      "stateMutability": "nonpayable",
      "type": "function"
    },
    {
      "constant": false,
      "inputs": [
        {
          "name": "new_minimum_deposit_in_atomic_units",
          "type": "uint256"
        }
      ],
      "name": "setMinimumSystemDeposit",
      "outputs": [],
      "payable": false,
      "stateMutability": "nonpayable",
      "type": "function"
    },
    {
      "constant": false,
      "inputs": [
        {
          "name": "otherToken",
          "type": "address"
        }
      ],
      "name": "reclaimToken",
      "outputs": [],
      "payable": false,
      "stateMutability": "nonpayable",
      "type": "function"
    }
  ],
  "bytecode": "0x608060405234801561001057600080fd5b5060405160a08062004a238339810180604052810190808051906020019092919080519060200190929190805190602001909291908051906020019092919080519060200190929190505050336000806101000a81548173ffffffffffffffffffffffffffffffffffffffff021916908373ffffffffffffffffffffffffffffffffffffffff1602179055506000809054906101000a900473ffffffffffffffffffffffffffffffffffffffff1673ffffffffffffffffffffffffffffffffffffffff16600073ffffffffffffffffffffffffffffffffffffffff167f8be0079c531659141344cd1fd0a4f28419497f9722a3daafe3b4186f6b6457e060405160405180910390a360003414151561012757600080fd5b84600160006101000a81548173ffffffffffffffffffffffffffffffffffffffff021916908373ffffffffffffffffffffffffffffffffffffffff16021790555083600260006101000a81548173ffffffffffffffffffffffffffffffffffffffff021916908373ffffffffffffffffffffffffffffffffffffffff16021790555082600360006101000a81548173ffffffffffffffffffffffffffffffffffffffff021916908373ffffffffffffffffffffffffffffffffffffffff16021790555081600481905550806006819055505050505050614816806200020d6000396000f300608060405260043610610149576000357c0100000000000000000000000000000000000000000000000000000000900463ffffffff1680630758e2ed1461015857806317ffc320146101835780632aed7f3f146101c65780632ecca5b4146102095780633081be161461023457806337bdc99b1461026b5780634948d8e5146102985780634f558e79146102fd5780635231183914610342578063715018a61461038357806373cf9f831461039a578063839df945146103db5780638da5cb5b146104365780638f32d59b1461048d5780639348cef7146104bc5780639f727c27146104f35780639f9fb9681461050a578063b0c706f01461054b578063c4d252f514610578578063db6711e3146105a9578063e900ead8146105d4578063f2fde38b1461060f578063f315966514610652578063f637cfd41461068b578063fc1dcfe7146106e0575b34801561015557600080fd5b50005b34801561016457600080fd5b5061016d610725565b6040518082815260200191505060405180910390f35b34801561018f57600080fd5b506101c4600480360381019080803573ffffffffffffffffffffffffffffffffffffffff16906020019092919050505061072b565b005b3480156101d257600080fd5b50610207600480360381019080803573ffffffffffffffffffffffffffffffffffffffff169060200190929190505050610975565b005b34801561021557600080fd5b5061021e610a4b565b6040518082815260200191505060405180910390f35b34801561024057600080fd5b506102696004803603810190808035906020019092919080359060200190929190505050610a51565b005b34801561027757600080fd5b5061029660048036038101908080359060200190929190505050611426565b005b3480156102a457600080fd5b506102e360048036038101908080359060200190929190803573ffffffffffffffffffffffffffffffffffffffff1690602001909291905050506116c7565b604051808215151515815260200191505060405180910390f35b34801561030957600080fd5b50610328600480360381019080803590602001909291905050506118df565b604051808215151515815260200191505060405180910390f35b34801561034e57600080fd5b5061036d600480360381019080803590602001909291905050506119b4565b6040518082815260200191505060405180910390f35b34801561038f57600080fd5b50610398611ab0565b005b3480156103a657600080fd5b506103c560048036038101908080359060200190929190505050611b82565b6040518082815260200191505060405180910390f35b3480156103e757600080fd5b5061040a6004803603810190808035600019169060200190929190505050611c95565b604051808460001916600019168152602001838152602001828152602001935050505060405180910390f35b34801561044257600080fd5b5061044b611cbf565b604051808273ffffffffffffffffffffffffffffffffffffffff1673ffffffffffffffffffffffffffffffffffffffff16815260200191505060405180910390f35b34801561049957600080fd5b506104a2611ce8565b604051808215151515815260200191505060405180910390f35b3480156104c857600080fd5b506104f16004803603810190808035906020019092919080359060200190929190505050611d3f565b005b3480156104ff57600080fd5b50610508612781565b005b34801561051657600080fd5b50610535600480360381019080803590602001909291905050506127fb565b6040518082815260200191505060405180910390f35b34801561055757600080fd5b50610576600480360381019080803590602001909291905050506128f7565b005b34801561058457600080fd5b506105a7600480360381019080803560001916906020019092919050505061294d565b005b3480156105b557600080fd5b506105be612cf5565b6040518082815260200191505060405180910390f35b3480156105e057600080fd5b5061060d600480360381019080803560001916906020019092919080359060200190929190505050612cfb565b005b34801561061b57600080fd5b50610650600480360381019080803573ffffffffffffffffffffffffffffffffffffffff169060200190929190505050613125565b005b34801561065e57600080fd5b5061068960048036038101908080359060200190929190803515159060200190929190505050613144565b005b34801561069757600080fd5b506106de600480360381019080803590602001909291908035906020019092919080359060200190929190803590602001909291908035906020019092919050505061334e565b005b3480156106ec57600080fd5b5061070b60048036038101908080359060200190929190505050613e9b565b604051808215151515815260200191505060405180910390f35b60055481565b600080610736611ce8565b151561074157600080fd5b8291508173ffffffffffffffffffffffffffffffffffffffff166370a08231306040518263ffffffff167c0100000000000000000000000000000000000000000000000000000000028152600401808273ffffffffffffffffffffffffffffffffffffffff1673ffffffffffffffffffffffffffffffffffffffff168152602001915050602060405180830381600087803b1580156107df57600080fd5b505af11580156107f3573d6000803e3d6000fd5b505050506040513d602081101561080957600080fd5b81019080805190602001909291905050509050600360009054906101000a900473ffffffffffffffffffffffffffffffffffffffff1673ffffffffffffffffffffffffffffffffffffffff168273ffffffffffffffffffffffffffffffffffffffff16141561088a5761088760055482613fae90919063ffffffff16565b90505b8173ffffffffffffffffffffffffffffffffffffffff1663a9059cbb6108ae611cbf565b836040518363ffffffff167c0100000000000000000000000000000000000000000000000000000000028152600401808373ffffffffffffffffffffffffffffffffffffffff1673ffffffffffffffffffffffffffffffffffffffff16815260200182815260200192505050602060405180830381600087803b15801561093457600080fd5b505af1158015610948573d6000803e3d6000fd5b505050506040513d602081101561095e57600080fd5b810190808051906020019092919050505050505050565b600061097f611ce8565b151561098a57600080fd5b8190508073ffffffffffffffffffffffffffffffffffffffff1663f2fde38b6109b1611cbf565b6040518263ffffffff167c0100000000000000000000000000000000000000000000000000000000028152600401808273ffffffffffffffffffffffffffffffffffffffff1673ffffffffffffffffffffffffffffffffffffffff168152602001915050600060405180830381600087803b158015610a2f57600080fd5b505af1158015610a43573d6000803e3d6000fd5b505050505050565b60045481565b60006060806000806000806000803373ffffffffffffffffffffffffffffffffffffffff16600160009054906101000a900473ffffffffffffffffffffffffffffffffffffffff1673ffffffffffffffffffffffffffffffffffffffff16636352211e8d6040518263ffffffff167c010000000000000000000000000000000000000000000000000000000002815260040180828152602001915050602060405180830381600087803b158015610b0757600080fd5b505af1158015610b1b573d6000803e3d6000fd5b505050506040513d6020811015610b3157600080fd5b810190808051906020019092919050505073ffffffffffffffffffffffffffffffffffffffff16141515610bcd576040517f08c379a00000000000000000000000000000000000000000000000000000000081526004018080602001828103825260148152602001807f546f6b656e206f776e6572206d69736d6174636800000000000000000000000081525060200191505060405180910390fd5b601f610bd88c613fcf565b14151515610c4e576040517f08c379a00000000000000000000000000000000000000000000000000000000081526004018080602001828103825260198152602001807f4c616e64206d6178696d616c6c7920737562646976696465640000000000000081525060200191505060405180910390fd5b600860008c8152602001908152602001600020600001549850610c7c8a600554613fdc90919063ffffffff16565b600581905550600360009054906101000a900473ffffffffffffffffffffffffffffffffffffffff1673ffffffffffffffffffffffffffffffffffffffff166323b872dd33308d6040518463ffffffff167c0100000000000000000000000000000000000000000000000000000000028152600401808473ffffffffffffffffffffffffffffffffffffffff1673ffffffffffffffffffffffffffffffffffffffff1681526020018373ffffffffffffffffffffffffffffffffffffffff1673ffffffffffffffffffffffffffffffffffffffff1681526020018281526020019350505050602060405180830381600087803b158015610d7b57600080fd5b505af1158015610d8f573d6000803e3d6000fd5b505050506040513d6020811015610da557600080fd5b81019080805190602001909291905050501515610e2a576040517f08c379a00000000000000000000000000000000000000000000000000000000081526004018080602001828103825260148152602001807f4465706f736974206e6f7420617070726f76656400000000000000000000000081525060200191505060405180910390fd5b610e3d8a8a613fdc90919063ffffffff16565b98506004604051908082528060200260200182016040528015610e6f5781602001602082028038833980820191505090505b5097506004604051908082528060200260200182016040528015610ea25781602001602082028038833980820191505090505b50965060009550600094505b6004851015610fd0578a73__MacroverseNFTUtils____________________630240446c9091876040518363ffffffff167c0100000000000000000000000000000000000000000000000000000000028152600401808381526020018281526020019250505060206040518083038186803b158015610f2c57600080fd5b505af4158015610f40573d6000803e3d6000fd5b505050506040513d6020811015610f5657600080fd5b81019080805190602001909291905050509350838886815181101515610f7857fe5b9060200190602002018181525050610f8f846119b4565b9250828786815181101515610fa057fe5b9060200190602002018181525050610fc18387613fdc90919063ffffffff16565b95508480600101955050610eae565b888611151515611048576040517f08c379a00000000000000000000000000000000000000000000000000000000081526004018080602001828103825260168152602001807f4465706f736974206e6f742073756666696369656e740000000000000000000081525060200191505060405180910390fd5b600160009054906101000a900473ffffffffffffffffffffffffffffffffffffffff1673ffffffffffffffffffffffffffffffffffffffff16639dc29fac338d6040518363ffffffff167c0100000000000000000000000000000000000000000000000000000000028152600401808373ffffffffffffffffffffffffffffffffffffffff1673ffffffffffffffffffffffffffffffffffffffff16815260200182815260200192505050600060405180830381600087803b15801561110d57600080fd5b505af1158015611121573d6000803e3d6000fd5b50505050600860008c81526020019081526020016000206000808201600090556001820160006101000a81549060ff0219169055505061116a868a613fae90919063ffffffff16565b985061118060048a613ffd90919063ffffffff16565b915061119660048a61402790919063ffffffff16565b90506111c3818860008151811015156111ab57fe5b90602001906020020151613fdc90919063ffffffff16565b8760008151811015156111d257fe5b9060200190602002018181525050600094505b60048510156114005761121882888781518110151561120057fe5b90602001906020020151613fdc90919063ffffffff16565b878681518110151561122657fe5b90602001906020020181815250506040805190810160405280888781518110151561124d57fe5b90602001906020020151815260200160001515815250600860008a8881518110151561127557fe5b9060200190602002015181526020019081526020016000206000820151816000015560208201518160010160006101000a81548160ff02191690831515021790555090505087858151811015156112c857fe5b906020019060200201518b7f0680f9477cd8a6cca55787c444e98cd63333f7a7a7248b46d202faeb6e0f3bda60405160405180910390a3600160009054906101000a900473ffffffffffffffffffffffffffffffffffffffff1673ffffffffffffffffffffffffffffffffffffffff166340c10f19338a8881518110151561134c57fe5b906020019060200201516040518363ffffffff167c0100000000000000000000000000000000000000000000000000000000028152600401808373ffffffffffffffffffffffffffffffffffffffff1673ffffffffffffffffffffffffffffffffffffffff16815260200182815260200192505050600060405180830381600087803b1580156113db57600080fd5b505af11580156113ef573d6000803e3d6000fd5b5050505084806001019550506111e5565b600f600960008d8152602001908152602001600020819055505050505050505050505050565b6000600160009054906101000a900473ffffffffffffffffffffffffffffffffffffffff1673ffffffffffffffffffffffffffffffffffffffff16639dc29fac33846040518363ffffffff167c0100000000000000000000000000000000000000000000000000000000028152600401808373ffffffffffffffffffffffffffffffffffffffff1673ffffffffffffffffffffffffffffffffffffffff16815260200182815260200192505050600060405180830381600087803b1580156114ed57600080fd5b505af1158015611501573d6000803e3d6000fd5b505050503373ffffffffffffffffffffffffffffffffffffffff16827f32013bfacb93ebe85c135ce33c603934b756eb1e4b9d552305fbd24adec3617a60405160405180910390a36115528261404c565b60086000838152602001908152602001600020600001549050600860008381526020019081526020016000206000808201600090556001820160006101000a81549060ff021916905550506115b281600554613fae90919063ffffffff16565b600581905550600360009054906101000a900473ffffffffffffffffffffffffffffffffffffffff1673ffffffffffffffffffffffffffffffffffffffff1663a9059cbb33836040518363ffffffff167c0100000000000000000000000000000000000000000000000000000000028152600401808373ffffffffffffffffffffffffffffffffffffffff1673ffffffffffffffffffffffffffffffffffffffff16815260200182815260200192505050602060405180830381600087803b15801561167d57600080fd5b505af1158015611691573d6000803e3d6000fd5b505050506040513d60208110156116a757600080fd5b810190808051906020019092919050505015156116c357600080fd5b5050565b6000600160009054906101000a900473ffffffffffffffffffffffffffffffffffffffff1673ffffffffffffffffffffffffffffffffffffffff16634f558e79846040518263ffffffff167c010000000000000000000000000000000000000000000000000000000002815260040180828152602001915050602060405180830381600087803b15801561175a57600080fd5b505af115801561176e573d6000803e3d6000fd5b505050506040513d602081101561178457600080fd5b810190808051906020019092919050505015156117a057600080fd5b6117a9836141c5565b1580156118d75750600160009054906101000a900473ffffffffffffffffffffffffffffffffffffffff1673ffffffffffffffffffffffffffffffffffffffff16636352211e846040518263ffffffff167c010000000000000000000000000000000000000000000000000000000002815260040180828152602001915050602060405180830381600087803b15801561184257600080fd5b505af1158015611856573d6000803e3d6000fd5b505050506040513d602081101561186c57600080fd5b810190808051906020019092919050505073ffffffffffffffffffffffffffffffffffffffff168273ffffffffffffffffffffffffffffffffffffffff1614806118d657506008600084815260200190815260200160002060010160009054906101000a900460ff165b5b905092915050565b6000600160009054906101000a900473ffffffffffffffffffffffffffffffffffffffff1673ffffffffffffffffffffffffffffffffffffffff16634f558e79836040518263ffffffff167c010000000000000000000000000000000000000000000000000000000002815260040180828152602001915050602060405180830381600087803b15801561197257600080fd5b505af1158015611986573d6000803e3d6000fd5b505050506040513d602081101561199c57600080fd5b81019080805190602001909291905050509050919050565b6000806000806119c385613fcf565b925060008314156119f6577fffffffffffffffffffffffffffffffffffffffffffffffffffffffffffffffff9350611aa8565b6001831415611a09576004549350611aa8565b6002831415611a2f57611a28600a600454613ffd90919063ffffffff16565b9350611aa8565b6003831415611a5557611a4e6028600454613ffd90919063ffffffff16565b9350611aa8565b611a8d61ffff8016611a66876141ed565b61ffff1614611a76576028611a79565b600a5b60ff16600454613ffd90919063ffffffff16565b9150611a988561420e565b905060018101829060020a900493505b505050919050565b611ab8611ce8565b1515611ac357600080fd5b600073ffffffffffffffffffffffffffffffffffffffff166000809054906101000a900473ffffffffffffffffffffffffffffffffffffffff1673ffffffffffffffffffffffffffffffffffffffff167f8be0079c531659141344cd1fd0a4f28419497f9722a3daafe3b4186f6b6457e060405160405180910390a360008060006101000a81548173ffffffffffffffffffffffffffffffffffffffff021916908373ffffffffffffffffffffffffffffffffffffffff160217905550565b6000806000611b9084613fcf565b1415611b9f5760009150611c8f565b611ba88361423e565b9050600160009054906101000a900473ffffffffffffffffffffffffffffffffffffffff1673ffffffffffffffffffffffffffffffffffffffff16634f558e79826040518263ffffffff167c010000000000000000000000000000000000000000000000000000000002815260040180828152602001915050602060405180830381600087803b158015611c3b57600080fd5b505af1158015611c4f573d6000803e3d6000fd5b505050506040513d6020811015611c6557600080fd5b810190808051906020019092919050505015611c8357809150611c8f565b611c8c81611b82565b91505b50919050565b60076020528060005260406000206000915090508060000154908060010154908060020154905083565b60008060009054906101000a900473ffffffffffffffffffffffffffffffffffffffff16905090565b60008060009054906101000a900473ffffffffffffffffffffffffffffffffffffffff1673ffffffffffffffffffffffffffffffffffffffff163373ffffffffffffffffffffffffffffffffffffffff1614905090565b600080600080858560405160200180838152602001828152602001925050506040516020818303038152906040526040518082805190602001908083835b602083101515611da25780518252602082019150602081019050602083039250611d7d565b6001836020036101000a0380198251168184511680821785525050505050509050019150506040518091039020935083336040516020018083600019166000191681526020018273ffffffffffffffffffffffffffffffffffffffff1673ffffffffffffffffffffffffffffffffffffffff166c01000000000000000000000000028152601401925050506040516020818303038152906040526040518082805190602001908083835b602083101515611e715780518252602082019150602081019050602083039250611e4c565b6001836020036101000a0380198251168184511680821785525050505050509050019150506040518091039020925060076000846000191660001916815260200190815260200160002091508360001916826000015460001916141515611f40576040517f08c379a00000000000000000000000000000000000000000000000000000000081526004018080602001828103825260148152602001807f436f6d6d69746d656e74206e6f7420666f756e6400000000000000000000000081525060200191505060405180910390fd5b42600760065402836002015401111515611fc2576040517f08c379a00000000000000000000000000000000000000000000000000000000081526004018080602001828103825260128152602001807f436f6d6d69746d656e742065787069726564000000000000000000000000000081525060200191505060405180910390fd5b42600654836002015401101515612041576040517f08c379a00000000000000000000000000000000000000000000000000000000081526004018080602001828103825260128152602001807f436f6d6d69746d656e7420746f6f206e6577000000000000000000000000000081525060200191505060405180910390fd5b600160009054906101000a900473ffffffffffffffffffffffffffffffffffffffff1673ffffffffffffffffffffffffffffffffffffffff16634f558e79876040518263ffffffff167c010000000000000000000000000000000000000000000000000000000002815260040180828152602001915050602060405180830381600087803b1580156120d257600080fd5b505af11580156120e6573d6000803e3d6000fd5b505050506040513d60208110156120fc57600080fd5b8101908080519060200190929190505050151515612182576040517f08c379a00000000000000000000000000000000000000000000000000000000081526004018080602001828103825260148152602001807f546f6b656e20616c72656164792065786973747300000000000000000000000081525060200191505060405180910390fd5b8573__MacroverseNFTUtils____________________6328f0b3df90916040518263ffffffff167c01000000000000000000000000000000000000000000000000000000000281526004018082815260200191505060206040518083038186803b1580156121ef57600080fd5b505af4158015612203573d6000803e3d6000fd5b505050506040513d602081101561221957600080fd5b8101908080519060200190929190505050151561229e576040517f08c379a00000000000000000000000000000000000000000000000000000000081526004018080602001828103825260158152602001807f546f6b656e2064617461206d69732d7061636b6564000000000000000000000081525060200191505060405180910390fd5b600260009054906101000a900473ffffffffffffffffffffffffffffffffffffffff1673ffffffffffffffffffffffffffffffffffffffff16634f558e79876040518263ffffffff167c010000000000000000000000000000000000000000000000000000000002815260040180828152602001915050602060405180830381600087803b15801561232f57600080fd5b505af1158015612343573d6000803e3d6000fd5b505050506040513d602081101561235957600080fd5b810190808051906020019092919050505015156123de576040517f08c379a000000000000000000000000000000000000000000000000000000000815260040180806020018281038252601f8152602001807f43616e6e6f7420636c61696d206e6f6e2d6578697374656e74207468696e670081525060200191505060405180910390fd5b6123e7866119b4565b826001015410151515612462576040517f08c379a00000000000000000000000000000000000000000000000000000000081526004018080602001828103825260118152602001807f4465706f73697420746f6f20736d616c6c00000000000000000000000000000081525060200191505060405180910390fd5b61246b86611b82565b90506000811415156124f65761248181336116c7565b15156124f5576040517f08c379a000000000000000000000000000000000000000000000000000000000815260040180806020018281038252601a8152602001807f43616e6e6f7420636c61696d206368696c6472656e206865726500000000000081525060200191505060405180910390fd5b5b6124ff866141c5565b158061251e575060006009600088815260200190815260200160002054145b15156125b8576040517f08c379a00000000000000000000000000000000000000000000000000000000081526004018080602001828103825260278152602001807f43616e6e6f7420636c61696d206c616e64207769746820636c61696d6564207381526020017f7562706c6f74730000000000000000000000000000000000000000000000000081525060400191505060405180910390fd5b60408051908101604052808360010154815260200160001515815250600860008881526020019081526020016000206000820151816000015560208201518160010160006101000a81548160ff02191690831515021790555090505061261d8661435c565b6007600084600019166000191681526020019081526020016000206000808201600090556001820160009055600282016000905550503373ffffffffffffffffffffffffffffffffffffffff168685600019167f7f10e24a6522bbac4d453beb2dcf75f1c54e235677b2a3d136c257f777b2bc9060405160405180910390a4600160009054906101000a900473ffffffffffffffffffffffffffffffffffffffff1673ffffffffffffffffffffffffffffffffffffffff166340c10f1933886040518363ffffffff167c0100000000000000000000000000000000000000000000000000000000028152600401808373ffffffffffffffffffffffffffffffffffffffff1673ffffffffffffffffffffffffffffffffffffffff16815260200182815260200192505050600060405180830381600087803b15801561276157600080fd5b505af1158015612775573d6000803e3d6000fd5b50505050505050505050565b612789611ce8565b151561279457600080fd5b61279c611cbf565b73ffffffffffffffffffffffffffffffffffffffff166108fc3073ffffffffffffffffffffffffffffffffffffffff16319081150290604051600060405180830381858888f193505050501580156127f8573d6000803e3d6000fd5b50565b6000600160009054906101000a900473ffffffffffffffffffffffffffffffffffffffff1673ffffffffffffffffffffffffffffffffffffffff16634f558e79836040518263ffffffff167c010000000000000000000000000000000000000000000000000000000002815260040180828152602001915050602060405180830381600087803b15801561288e57600080fd5b505af11580156128a2573d6000803e3d6000fd5b505050506040513d60208110156128b857600080fd5b810190808051906020019092919050505015156128d857600090506128f2565b600860008381526020019081526020016000206000015490505b919050565b6128ff611ce8565b151561290a57600080fd5b806004819055507f6202478fec10331b8abbcf1169a16c03e315dc45d28669598f271b131a023a286004546040518082815260200191505060405180910390a150565b600080600080600102600019168460001916141515156129d5576040517f08c379a00000000000000000000000000000000000000000000000000000000081526004018080602001828103825260148152602001807f5a65726f20686173682070726f6869626974656400000000000000000000000081525060200191505060405180910390fd5b83336040516020018083600019166000191681526020018273ffffffffffffffffffffffffffffffffffffffff1673ffffffffffffffffffffffffffffffffffffffff166c01000000000000000000000000028152601401925050506040516020818303038152906040526040518082805190602001908083835b602083101515612a755780518252602082019150602081019050602083039250612a50565b6001836020036101000a0380198251168184511680821785525050505050509050019150506040518091039020925060076000846000191660001916815260200190815260200160002091508360001916826000015460001916141515612b44576040517f08c379a00000000000000000000000000000000000000000000000000000000081526004018080602001828103825260148152602001807f436f6d6d69746d656e74206e6f7420666f756e6400000000000000000000000081525060200191505060405180910390fd5b81600101549050600760008460001916600019168152602001908152602001600020600080820160009055600182016000905560028201600090555050612b9681600554613fae90919063ffffffff16565b600581905550600360009054906101000a900473ffffffffffffffffffffffffffffffffffffffff1673ffffffffffffffffffffffffffffffffffffffff1663a9059cbb33836040518363ffffffff167c0100000000000000000000000000000000000000000000000000000000028152600401808373ffffffffffffffffffffffffffffffffffffffff1673ffffffffffffffffffffffffffffffffffffffff16815260200182815260200192505050602060405180830381600087803b158015612c6157600080fd5b505af1158015612c75573d6000803e3d6000fd5b505050506040513d6020811015612c8b57600080fd5b81019080805190602001909291905050501515612ca757600080fd5b3373ffffffffffffffffffffffffffffffffffffffff1684600019167f383447dfd40b32b73af346d8a498d4f50e93188330a1901d6c2add893d520e3260405160405180910390a350505050565b60065481565b600080600060010260001916846000191614151515612d82576040517f08c379a00000000000000000000000000000000000000000000000000000000081526004018080602001828103825260148152602001807f5a65726f20686173682070726f6869626974656400000000000000000000000081525060200191505060405180910390fd5b612d9783600554613fdc90919063ffffffff16565b600581905550600360009054906101000a900473ffffffffffffffffffffffffffffffffffffffff1673ffffffffffffffffffffffffffffffffffffffff166323b872dd3330866040518463ffffffff167c0100000000000000000000000000000000000000000000000000000000028152600401808473ffffffffffffffffffffffffffffffffffffffff1673ffffffffffffffffffffffffffffffffffffffff1681526020018373ffffffffffffffffffffffffffffffffffffffff1673ffffffffffffffffffffffffffffffffffffffff1681526020018281526020019350505050602060405180830381600087803b158015612e9657600080fd5b505af1158015612eaa573d6000803e3d6000fd5b505050506040513d6020811015612ec057600080fd5b81019080805190602001909291905050501515612f45576040517f08c379a00000000000000000000000000000000000000000000000000000000081526004018080602001828103825260148152602001807f4465706f736974206e6f7420617070726f76656400000000000000000000000081525060200191505060405180910390fd5b83336040516020018083600019166000191681526020018273ffffffffffffffffffffffffffffffffffffffff1673ffffffffffffffffffffffffffffffffffffffff166c01000000000000000000000000028152601401925050506040516020818303038152906040526040518082805190602001908083835b602083101515612fe55780518252602082019150602081019050602083039250612fc0565b6001836020036101000a0380198251168184511680821785525050505050509050019150506040518091039020915060076000836000191660001916815260200190815260200160002090506000600102600019168160000154600019161415156130b8576040517f08c379a000000000000000000000000000000000000000000000000000000000815260040180806020018281038252601f8152602001807f4475706c696361746520636f6d6d69746d656e742070726f686962697465640081525060200191505060405180910390fd5b838160000181600019169055508281600101819055504281600201819055503373ffffffffffffffffffffffffffffffffffffffff1684600019167f06993d49ee122769a3c0ef60e9862b93d411b169b222fac05276d82abf11c9e760405160405180910390a350505050565b61312d611ce8565b151561313857600080fd5b613141816143e9565b50565b60003373ffffffffffffffffffffffffffffffffffffffff16600160009054906101000a900473ffffffffffffffffffffffffffffffffffffffff1673ffffffffffffffffffffffffffffffffffffffff16636352211e856040518263ffffffff167c010000000000000000000000000000000000000000000000000000000002815260040180828152602001915050602060405180830381600087803b1580156131ee57600080fd5b505af1158015613202573d6000803e3d6000fd5b505050506040513d602081101561321857600080fd5b810190808051906020019092919050505073ffffffffffffffffffffffffffffffffffffffff161415156132b4576040517f08c379a00000000000000000000000000000000000000000000000000000000081526004018080602001828103825260148152602001807f546f6b656e206f776e6572206d69736d6174636800000000000000000000000081525060200191505060405180910390fd5b6132bd836141c5565b1515156132c957600080fd5b6008600084815260200190815260200160002090508115158160010160009054906101000a900460ff16151514151561334957818160010160006101000a81548160ff021916908315150217905550811515837f0da0a9bb596ddd85dfa72c9cbcfe8816ed96436e9efc8862a9e861183a274c1060405160405180910390a35b505050565b6133566147c7565b6000806000806080604051908101604052808b81526020018a815260200189815260200188815250945060009350600092505b600483101561355c573373ffffffffffffffffffffffffffffffffffffffff16600160009054906101000a900473ffffffffffffffffffffffffffffffffffffffff1673ffffffffffffffffffffffffffffffffffffffff16636352211e87866004811015156133f557fe5b60200201516040518263ffffffff167c010000000000000000000000000000000000000000000000000000000002815260040180828152602001915050602060405180830381600087803b15801561344c57600080fd5b505af1158015613460573d6000803e3d6000fd5b505050506040513d602081101561347657600080fd5b810190808051906020019092919050505073ffffffffffffffffffffffffffffffffffffffff16141515613512576040517f08c379a00000000000000000000000000000000000000000000000000000000081526004018080602001828103825260148152602001807f546f6b656e206f776e6572206d69736d6174636800000000000000000000000081525060200191505060405180910390fd5b61354d60086000878660048110151561352757fe5b602002015181526020019081526020016000206000015485613fdc90919063ffffffff16565b93508280600101935050613389565b84600160048110151561356b57fe5b602002015185600060048110151561357f57fe5b6020020151141515156135fa576040517f08c379a00000000000000000000000000000000000000000000000000000000081526004018080602001828103825260158152602001807f4368696c6472656e206e6f742064697374696e6374000000000000000000000081525060200191505060405180910390fd5b84600260048110151561360957fe5b602002015185600060048110151561361d57fe5b602002015114151515613698576040517f08c379a00000000000000000000000000000000000000000000000000000000081526004018080602001828103825260158152602001807f4368696c6472656e206e6f742064697374696e6374000000000000000000000081525060200191505060405180910390fd5b8460036004811015156136a757fe5b60200201518560006004811015156136bb57fe5b602002015114151515613736576040517f08c379a00000000000000000000000000000000000000000000000000000000081526004018080602001828103825260158152602001807f4368696c6472656e206e6f742064697374696e6374000000000000000000000081525060200191505060405180910390fd5b84600260048110151561374557fe5b602002015185600160048110151561375957fe5b6020020151141515156137d4576040517f08c379a00000000000000000000000000000000000000000000000000000000081526004018080602001828103825260158152602001807f4368696c6472656e206e6f742064697374696e6374000000000000000000000081525060200191505060405180910390fd5b8460036004811015156137e357fe5b60200201518560016004811015156137f757fe5b602002015114151515613872576040517f08c379a00000000000000000000000000000000000000000000000000000000081526004018080602001828103825260158152602001807f4368696c6472656e206e6f742064697374696e6374000000000000000000000081525060200191505060405180910390fd5b84600360048110151561388157fe5b602002015185600260048110151561389557fe5b602002015114151515613910576040517f08c379a00000000000000000000000000000000000000000000000000000000081526004018080602001828103825260158152602001807f4368696c6472656e206e6f742064697374696e6374000000000000000000000081525060200191505060405180910390fd5b61392c85600060048110151561392257fe5b602002015161423e565b9150600192505b60048310156139da5781613958868560048110151561394e57fe5b602002015161423e565b1415156139cd576040517f08c379a00000000000000000000000000000000000000000000000000000000081526004018080602001828103825260118152602001807f506172656e74206e6f742073686172656400000000000000000000000000000081525060200191505060405180910390fd5b8280600101935050613933565b6139e3826141c5565b15156139ee57600080fd5b613a018685613fae90919063ffffffff16565b90506000861115613a8d57613a15826119b4565b8110151515613a8c576040517f08c379a00000000000000000000000000000000000000000000000000000000081526004018080602001828103825260168152602001807f4465706f736974206e6f742073756666696369656e740000000000000000000081525060200191505060405180910390fd5b5b600092505b6004831015613c1b57600160009054906101000a900473ffffffffffffffffffffffffffffffffffffffff1673ffffffffffffffffffffffffffffffffffffffff16639dc29fac338786600481101515613ae857fe5b60200201516040518363ffffffff167c0100000000000000000000000000000000000000000000000000000000028152600401808373ffffffffffffffffffffffffffffffffffffffff1673ffffffffffffffffffffffffffffffffffffffff16815260200182815260200192505050600060405180830381600087803b158015613b7257600080fd5b505af1158015613b86573d6000803e3d6000fd5b50505050600860008685600481101515613b9c57fe5b602002015181526020019081526020016000206000808201600090556001820160006101000a81549060ff02191690555050818584600481101515613bdd57fe5b60200201517f0680f9477cd8a6cca55787c444e98cd63333f7a7a7248b46d202faeb6e0f3bda60405160405180910390a38280600101935050613a92565b604080519081016040528082815260200160001515815250600860008481526020019081526020016000206000820151816000015560208201518160010160006101000a81548160ff021916908315150217905550905050600160009054906101000a900473ffffffffffffffffffffffffffffffffffffffff1673ffffffffffffffffffffffffffffffffffffffff166340c10f1933846040518363ffffffff167c0100000000000000000000000000000000000000000000000000000000028152600401808373ffffffffffffffffffffffffffffffffffffffff1673ffffffffffffffffffffffffffffffffffffffff16815260200182815260200192505050600060405180830381600087803b158015613d3857600080fd5b505af1158015613d4c573d6000803e3d6000fd5b5050505060006009600084815260200190815260200160002081905550613d7e86600554613fae90919063ffffffff16565b600581905550600360009054906101000a900473ffffffffffffffffffffffffffffffffffffffff1673ffffffffffffffffffffffffffffffffffffffff1663a9059cbb33886040518363ffffffff167c0100000000000000000000000000000000000000000000000000000000028152600401808373ffffffffffffffffffffffffffffffffffffffff1673ffffffffffffffffffffffffffffffffffffffff16815260200182815260200192505050602060405180830381600087803b158015613e4957600080fd5b505af1158015613e5d573d6000803e3d6000fd5b505050506040513d6020811015613e7357600080fd5b81019080805190602001909291905050501515613e8f57600080fd5b50505050505050505050565b6000600160009054906101000a900473ffffffffffffffffffffffffffffffffffffffff1673ffffffffffffffffffffffffffffffffffffffff16634f558e79836040518263ffffffff167c010000000000000000000000000000000000000000000000000000000002815260040180828152602001915050602060405180830381600087803b158015613f2e57600080fd5b505af1158015613f42573d6000803e3d6000fd5b505050506040513d6020811015613f5857600080fd5b81019080805190602001909291905050508015613f7b5750613f79826141c5565b155b8015613fa757506008600083815260200190815260200160002060010160009054906101000a900460ff165b9050919050565b600080838311151515613fc057600080fd5b82840390508091505092915050565b6000601f82169050919050565b6000808284019050838110151515613ff357600080fd5b8091505092915050565b60008060008311151561400f57600080fd5b828481151561401a57fe5b0490508091505092915050565b600080821415151561403857600080fd5b818381151561404357fe5b06905092915050565b60008060008061405b85613fcf565b1415614066576141bf565b6000600960008681526020019081526020016000205414156141be5761408b8461423e565b9250614096846144e3565b9150600960008481526020019081526020016000205490506140b881836145a2565b156141bd576140c9818360006145bf565b6009600085815260200190815260200160002081905550600160009054906101000a900473ffffffffffffffffffffffffffffffffffffffff1673ffffffffffffffffffffffffffffffffffffffff16634f558e79846040518263ffffffff167c010000000000000000000000000000000000000000000000000000000002815260040180828152602001915050602060405180830381600087803b15801561417157600080fd5b505af1158015614185573d6000803e3d6000fd5b505050506040513d602081101561419b57600080fd5b810190808051906020019092919050505015156141bc576141bb8361404c565b5b5b5b5b50505050565b6000806141d183613fcf565b9050600481101580156141e55750601f8111155b915050919050565b6000614207826010806010806010600501010101016145eb565b9050919050565b60008061421a83613fcf565b9050600481101561422e5760009150614238565b6001600482030191505b50919050565b600080600061424c84613fcf565b91506000821415151561425b57fe5b600182141561428057614279614272856000614600565b600061461e565b9250614355565b60028214156142a55761429e61429785600061463c565b600161461e565b9250614355565b60038214156142ca576142c36142bc85600061465c565b600261461e565b9250614355565b600482141561432f5761ffff80166142e1856141ed565b61ffff1614156143125761430b6143046142fd8660008061467f565b600061465c565b600261461e565b9250614355565b6143286143218560008061467f565b600261461e565b9250614355565b600161433a8561420e565b03905061435261434c8583600061467f565b826146f0565b92505b5050919050565b60008060008061436b85613fcf565b1415614376576143e3565b61437f8461423e565b925061438a846144e3565b9150600960008481526020019081526020016000205490506143ac81836145a2565b156143b6576143e3565b6143c2818360016145bf565b60096000858152602001908152602001600020819055506143e28361435c565b5b50505050565b600073ffffffffffffffffffffffffffffffffffffffff168173ffffffffffffffffffffffffffffffffffffffff161415151561442557600080fd5b8073ffffffffffffffffffffffffffffffffffffffff166000809054906101000a900473ffffffffffffffffffffffffffffffffffffffff1673ffffffffffffffffffffffffffffffffffffffff167f8be0079c531659141344cd1fd0a4f28419497f9722a3daafe3b4186f6b6457e060405160405180910390a3806000806101000a81548173ffffffffffffffffffffffffffffffffffffffff021916908373ffffffffffffffffffffffffffffffffffffffff16021790555050565b60008060006144f184613fcf565b91506000821415151561450057fe5b600182141561451d5761451284614728565b61ffff16925061459b565b600282141561453a5761452f84614744565b61ffff16925061459b565b600382141561455a57600861454e856141ed565b61ffff1601925061459b565b6004821015801561456c5750601f8211155b1561459057600161457c8561420e565b0390506145898482614762565b925061459b565b6000151561459a57fe5b5b5050919050565b6000808260019060020a0290506000818516141591505092915050565b6000808360019060020a02905082156145dc5780851791506145e3565b8019851691505b509392505050565b60008160ff16839060020a9004905092915050565b600061461683601080601060050101018461479e565b905092915050565b6000601f821115151561462d57fe5b81601f19841617905092915050565b6000614654836010806010806005010101018461479e565b905092915050565b6000614677836010806010806010600501010101018461479e565b905092915050565b600080601b8410151561468e57fe5b60008414156146a8576008831015156146a357fe5b6146b5565b6004831015156146b457fe5b5b83600360ff1602601080601080601080600501010101010160ff1601905080839060020a028160079060020a02198616179150509392505050565b6000806000831115156146ff57fe5b601b831115151561470c57fe5b60018360040103905061471f848261461e565b91505092915050565b600061473d82601080601060050101016145eb565b9050919050565b600061475b826010806010806005010101016145eb565b9050919050565b6000601b8210151561477057fe5b600782600360ff1602601080601080601080600501010101010160ff1601849060020a900416905092915050565b60008260ff168261ffff169060020a028360ff1661ffff9060020a021985161790509392505050565b6080604051908101604052806004906020820280388339808201915050905050905600a165627a7a7230582011565f2ba77080432b7834d72f27c1a7f44a8c1aaed0735a90692bf25b630ec10029",
  "source": "pragma solidity ^0.4.24;\n\nimport \"openzeppelin-solidity/contracts/ownership/Ownable.sol\";\nimport \"./HasNoEther.sol\";\nimport \"./HasNoContracts.sol\";\nimport \"openzeppelin-solidity/contracts/token/ERC20/IERC20.sol\";\n\nimport \"openzeppelin-solidity/contracts/math/SafeMath.sol\";\n\nimport \"./MacroverseNFTUtils.sol\";\nimport \"./MacroverseExistenceChecker.sol\";\nimport \"./MacroverseRealEstate.sol\";\n\n/**\n * The MacroverseUniversalRegistry manages the creation and Macroverse-specific\n * manipulation of non-fungible tokens (NFTs) representing virtual real estate,\n * which are tracked by the MacroverseRealEstate contract.\n *\n * Ownership is based on a claim system, where unowned objects can be claimed\n * by people by putting up a deposit in MRV. The MRV deposit is returned when\n * the owner releases their claim on the corresponding object.\n *\n * The claim system is protected against front-running by a commit/reveal\n * system with a mandatory waiting period. You first commit to the claim you\n * want to make, by putting up the deposit and publishing a hash. After a\n * certain mandatory waiting period, you can reveal what it is you are trying\n * to claim, and actually take ownership of the object.\n *\n * The first person to reveal wins in case two or more people try to claim the\n * same object, or if they try to claim things that are\n * parents/children/overlapping in such a way that the claims conflict. Since\n * there's a mandatory waiting period between the commit and reveal, and since\n * a malicious front-runner cannot commit until they see a reveal they are\n * trying to front-run, then as long as malicious front-runners cannot keep\n * transactions off the chain for the duration of the mandatory wait period,\n * then they can't steal things other people are trying to claim.\n *\n * It's still possible for an organic conflict to end up getting resolved in\n * favor of whoever is willing to pay more for gas, or for people to leave many\n * un-revealed claims and grief people by revealing them when someone else\n * tries to claim the same objects.\n *\n * To further mitigate griefing, committed claims will expire after a while if\n * not revealed.\n *\n * Revealing requires demonstrating that the Macroverse object being claimed\n * actually exists, and so claiming can only be done by people who can pass the\n * Macroverse generator's AccessControl checks.\n *\n * Note that ownership of a star system does not necessarily imply ownership of\n * everything in it. Just as one person can own a condo in another person's\n * building, one person can own a planet in another person's star system.\n * Non-containment of different ownership claims is only enforced for claims of\n * land on planets and moons.\n *\n * The surface of a world is subdivided using a Hierarchical Triangular Mesh\n * approach, as described in <http://www.skyserver.org/HTM/> and in\n * <https://www.microsoft.com/en-us/research/wp-content/uploads/2005/09/tr-2005-123.pdf>\n * \"Indexing the Sphere with the Hierarchical Triangular Mesh\". At the top\n * level, the surface of a world is an octahedron of equilateral triangles.\n * Each triangle is then recursively subdivided into 4 children by inscribing\n * another equilateral triangle between the center points of its edges. Each\n * HTM \"trixel\" is a plot of virtual real estate that can be claimed. Land\n * trixels can be subdivided and merged, and ownership of a trixel implies\n * ownership of all contained trixels, because this logic can be done without\n * any reference to the AccessControl-protected Macroverse generator logic.\n *\n * The mapping from systems, planets, moons, and land trixels to token ID\n * numbers is defined in the MacroverseNFTUtils library.\n *\n * \"Planets\" which are asteroid belts and \"moons\" which are ring systems also\n * are subdivided into 8 triangles, and then recursively into nested sets of 4\n * sub-triangles. However, the initial 8 triangles are defined as wedges, with\n * the points at the central body and with the outer edges being curved. They\n * are numbered prograde, with the division from 0 to 7 corresponding to the\n * object's notional position, computed as if it were a point body with the\n * same orbital parameters. Note that this means that some ownership claims do\n * not actually overlap the orbital range (and thus do not contain anything),\n * and that any actual particles would move relative to the positions of the\n * claims over time, depending on their actual orbits. \n *\n * At the astronomical level (stars, planets, moons), tokens can be issued\n * for the children of things already claimed, if the lowest owned parent token\n * has homesteading enabled.  At the land level, only one token can cover\n * a given point at a given time, but plots can be subdivided and merged\n * according to the trixel structure.\n *\n * Internally, bookkeeping data is kept to allow the tree of all issued tokens\n * to be traversed. All issued tokens exist in the tree, as well as the\n * internal nodes of the token hierarchy necessary to connect them. The\n * presence of child nodes in the tree is tracked using a bitmap for each node.\n *\n * The deployer of this contract reserves the right to supersede it with a new\n * version at any time, for any reason, and without notice. The deployer of\n * this contract reserves the right to leave it in place as is indefinitely.\n *\n * The deployer of this contract reserves the right to claim and keep any\n * tokens or ETH or contracts sent to this contract, in excess of the MRV\n * balance that this contract thinks it is supposed to have.\n */\ncontract MacroverseUniversalRegistry is Ownable, HasNoEther, HasNoContracts {\n\n    using SafeMath for uint256;\n    using MacroverseNFTUtils for uint256;\n\n    // These constants are shared with the TokenUtils library\n\n    // Define the types of tokens that can exist\n    uint256 constant TOKEN_TYPE_SECTOR = 0;\n    uint256 constant TOKEN_TYPE_SYSTEM = 1;\n    uint256 constant TOKEN_TYPE_PLANET = 2;\n    uint256 constant TOKEN_TYPE_MOON = 3;\n    // Land tokens are a range of type field values.\n    // Land tokens of the min type use one trixel field\n    uint256 constant TOKEN_TYPE_LAND_MIN = 4;\n    uint256 constant TOKEN_TYPE_LAND_MAX = 31;\n\n    // Define the packing format\n    uint8 constant TOKEN_SECTOR_X_SHIFT = 5;\n    uint8 constant TOKEN_SECTOR_X_BITS = 16;\n    uint8 constant TOKEN_SECTOR_Y_SHIFT = TOKEN_SECTOR_X_SHIFT + TOKEN_SECTOR_X_BITS;\n    uint8 constant TOKEN_SECTOR_Y_BITS = 16;\n    uint8 constant TOKEN_SECTOR_Z_SHIFT = TOKEN_SECTOR_Y_SHIFT + TOKEN_SECTOR_Y_BITS;\n    uint8 constant TOKEN_SECTOR_Z_BITS = 16;\n    uint8 constant TOKEN_SYSTEM_SHIFT = TOKEN_SECTOR_Z_SHIFT + TOKEN_SECTOR_Z_BITS;\n    uint8 constant TOKEN_SYSTEM_BITS = 16;\n    uint8 constant TOKEN_PLANET_SHIFT = TOKEN_SYSTEM_SHIFT + TOKEN_SYSTEM_BITS;\n    uint8 constant TOKEN_PLANET_BITS = 16;\n    uint8 constant TOKEN_MOON_SHIFT = TOKEN_PLANET_SHIFT + TOKEN_PLANET_BITS;\n    uint8 constant TOKEN_MOON_BITS = 16;\n    uint8 constant TOKEN_TRIXEL_SHIFT = TOKEN_MOON_SHIFT + TOKEN_MOON_BITS;\n    uint8 constant TOKEN_TRIXEL_EACH_BITS = 3;\n\n    // How many trixel fields are there\n    uint256 constant TOKEN_TRIXEL_FIELD_COUNT = 27;\n\n    // How many children does a trixel have?\n    uint256 constant CHILDREN_PER_TRIXEL = 4;\n    // And how many top level trixels does a world have?\n    uint256 constant TOP_TRIXELS = 8;\n\n    // We keep a bit mask of the high bits of all but the least specific trixel.\n    // None of these may be set in a valid token.\n    // We rely on it being left-shifted TOKEN_TRIXEL_SHIFT bits before being applied.\n    // Note that this has 26 1s, with one every 3 bits, except the last 3 bits are 0.\n    uint256 constant TOKEN_TRIXEL_HIGH_BIT_MASK = 0x124924924924924924920;\n\n    // Sentinel for no moon used (for land on a planet)\n    uint16 constant MOON_NONE = 0xFFFF; \n\n    //////////////\n    // Events for the commit/reveal system\n    //////////////\n\n    // Note that in addition to these special events, transfers to/from 0 are\n    // fired as tokens are created and destroyed.\n\n    /// Fired when an owner makes a commitment. Includes the commitment hash of token, nonce.\n    event Commit(bytes32 indexed hash, address indexed owner);\n    /// Fired when a commitment is successfully revealed and the token issued.\n    event Reveal(bytes32 indexed hash, uint256 indexed token, address indexed owner);\n    /// Fired when a commitment is canceled without being revealed.\n    event Cancel(bytes32 indexed hash, address indexed owner);\n\n    /// Fired when a token is released to be claimed by others.\n    /// Use this instead of transfers to 0, because those also happen when subdividing/merging land.\n    event Release(uint256 indexed token, address indexed former_owner);\n\n    /// Fired when homesteading under a token is enabled or disabled.\n    /// Not fired when the token is issued; it starts disabled.\n    event Homesteading(uint256 indexed token, bool indexed value);\n    /// Fired when a parcel of land is split out of another\n    /// Gets emitted once per child.\n    event LandSplit(uint256 indexed parent, uint256 indexed child);\n    /// Fired when a parcel of land is merged into another.\n    /// Gets emitted once per child.\n    event LandMerge(uint256 indexed child, uint256 indexed parent);\n\n    /// Fired when the deposit scale for the registry is updated by the administrator.\n    event DepositScaleChange(uint256 new_min_system_deposit_in_atomic_units);\n\n    //////////////\n    // Contract state\n    //////////////\n\n    // This is the backend contract that actually has the machinery to track token ownership\n    MacroverseRealEstate backend;\n\n    /// This is the contract we check virtual real estate existence against;\n    MacroverseExistenceChecker existenceChecker;\n\n    /// This is the token in which ownership deposits have to be paid.\n    IERC20 private depositTokenContract;\n    /// This is the minimum ownership deposit in atomic token units.\n    uint public minSystemDepositInAtomicUnits;\n    \n    /// This tracks how much of the deposit token the contract is supposed to have.\n    /// If it ends up with extra (because someone incorrectly used transfer() instead of approve()), the owner can remove it.\n    uint public expectedDepositBalance;\n\n    /// How long should a commitment be required to sit before it can be revealed, in Ethereum time?\n    /// This is also the maximum delay that we can let a bad actor keep good transactions off the chain, in our front-running security model.\n    uint public commitmentMinWait;\n\n    /// How long should a commitment be allowed to sit un-revealed before it becomes invalid and can only be canceled?\n    /// This protects against unrevealed commitments being used as griefing traps.\n    /// This is a multiple of the min wait.\n    uint constant COMMITMENT_MAX_WAIT_FACTOR = 7;\n\n    /// A Commitment represents an outstanding attempt to claim a deed.\n    /// It also needs to be referenced to look up the deposit associated with an owned token when the token is destroyed.\n    /// It is identified by a \"key\", which is the hash of the committing hash and the owner address.\n    /// This is the mapping key under which it is stored.\n    /// We don't need to store the owner because the mapping key hash binds the commitment to the owner.\n    struct Commitment {\n        // Hash (keccak256) of the token we want to claim and a uint256 nonce to be revealed with it.\n        bytes32 hash;        \n        // Number of atomic token units deposited with the commitment\n        uint256 deposit;\n        // Time number at which the commitment was created.\n        uint256 creationTime;\n    }\n    \n    /// This is all the commitments that are currently outstanding.\n    /// The mapping key is keccak256(hash, owner address).\n    /// When they are revealed or canceled, they are deleted from the map.\n    mapping(bytes32 => Commitment) public commitments;\n\n    /// Tokens have some configuration info to them, beyond what the base ERC721 implementation tracks.\n    struct TokenConfig {\n        /// This holds the deposit amount associated with the token, which will be released when the token is unclaimed.\n        uint256 deposit;\n        /// True if the token allows homesteading (i.e. the claiming of child tokens by others)\n        bool homesteading;\n    }\n\n    /// This holds the TokenConfig for each token\n    mapping(uint256 => TokenConfig) tokenConfigs;\n\n    /// This maps from each hierarchical bit-packed keypath entry to a bitmap of\n    /// which of its direct children have deed tokens issued at or under them.\n    /// If all the bits would be 0, an entry need not exist (which is the\n    /// Solidity mapping default behavior).\n    mapping (uint256 => uint256) internal childTree;\n\n    /**\n     * Deploy a new copy of the Macroverse Universal Registry.\n     * The given existence checker will be used to check object existence.\n     * The given token will be used to pay deposits, and the given minimum\n     * deposit size will be required to claim a star system.\n     * Other deposit sizes will be calculated from that.\n     * The given min wait time will be the required time you must wait after committing before revealing.\n     */\n    constructor(address backend_address, address existence_checker_address, address deposit_token_address,\n        uint initial_min_system_deposit_in_atomic_units, uint commitment_min_wait) {\n        // We can only use one backend for the lifetime of the contract, and we have to own it before it will work.\n        backend = MacroverseRealEstate(backend_address);\n        // We can only use one existence checker for the lifetime of the contract.\n        existenceChecker = MacroverseExistenceChecker(existence_checker_address);\n        // We can only use one token for the lifetime of the contract.\n        depositTokenContract = IERC20(deposit_token_address);\n        // But the minimum deposit for new claims can change\n        minSystemDepositInAtomicUnits = initial_min_system_deposit_in_atomic_units;\n        // Set the wait time\n        commitmentMinWait = commitment_min_wait;\n    }\n\n    //////////////\n    // Child tree functions\n    //////////////\n\n    // First we need some bit utilities\n\n    /**\n     * Set the value of a bit by index in a uint256.\n     * Bits are counted from the LSB left.\n     */\n    function setBit(uint256 bitmap, uint256 index, bool value) internal pure returns (uint256) {\n        uint256 bit = 0x1 << index;\n        if (value) {\n            // Set it\n            return bitmap | bit;\n        } else {\n            // Clear it\n            return bitmap & (~bit);\n        }\n    }\n\n    /**\n     * Get the value of a bit by index in a uint256.\n     * Bits are counted from the LSB left.\n     */\n    function getBit(uint256 bitmap, uint256 index) internal pure returns (bool) {\n        uint256 bit = 0x1 << index;\n        return (bitmap & bit != 0);\n    }\n\n    /**\n     * Register a token/internal node and all parents as having an extant token\n     * present under them in the child tree.\n     */\n    function addChildToTree(uint256 token) internal {\n        \n        if (token.getTokenType() == TOKEN_TYPE_SECTOR) {\n            // No parent exists; we're a tree root.\n            return;\n        }\n\n        // Find the parent\n        uint256 parent = token.parentOfToken();\n\n        // Find what child index we are of the parent\n        uint256 child_index = token.childIndexOfToken();\n        \n        // Get the parent's child tree entry\n        uint256 bitmap = childTree[parent];\n\n        if (getBit(bitmap, child_index)) {\n            // Stop if the correct bit is set already\n            return;\n            // TODO: reuse the mask for the bit?\n        }\n\n        // Set the correct bit if unset\n        childTree[parent] = setBit(bitmap, child_index, true);\n\n        // Continue until we hit the top of the tree\n        addChildToTree(parent);\n    }\n\n    /**\n     * Record in the child tree that a token no longer exists. Also handles\n     * cleanup of internal nodes that now have no children.\n     */\n    function removeChildFromTree(uint256 token) internal {\n\n        if (token.getTokenType() == TOKEN_TYPE_SECTOR) {\n            // No parent exists; we're a tree root.\n            return;\n        }\n\n        // See if we have any children that still exist\n        if (childTree[token] == 0) {\n            // We are not an existing token ourselves, and we have no existing children.\n\n            // Find the parent\n            uint256 parent = token.parentOfToken();\n\n            // Find what child index we are of the parent\n            uint256 child_index = token.childIndexOfToken();\n            \n            // Getmthe parent's child tree entry\n            uint256 bitmap = childTree[parent];\n\n            if (getBit(bitmap, child_index)) {\n                // Our bit in our immediate parent is set.\n\n                // Clear it\n                childTree[parent] = setBit(bitmap, child_index, false);\n\n                if (!backend.exists(parent)) {\n                    // Recurse up to maybe clean up the parent, if we were the\n                    // last child and the parent doesn't exist as a token\n                    // itself.\n                    removeChildFromTree(parent);\n                }\n            }\n        }\n    }\n\n    //////////////\n    // State-aware token utility functions\n    //////////////\n\n    /**\n     * Get the lowest-in-the-hierarchy token that exists (is owned).\n     * Returns a 0-value sentinel if no parent token exists.\n     */\n    function lowestExistingParent(uint256 token) public view returns (uint256) {\n        if (token.getTokenType() == TOKEN_TYPE_SECTOR) {\n            // No parent exists, and we can't exist.\n            return 0;\n        }\n\n        uint256 parent = token.parentOfToken();\n\n        if (backend.exists(parent)) {\n            // We found a token that really exists\n            return parent;\n        }\n\n        // Otherwise, recurse on the parent\n        return lowestExistingParent(parent);\n\n        // Recursion depth is limited to a reasonable maximum by the maximum\n        // depth of the land hierarchy.\n    }\n\n    /**\n     * Returns true if direct children of the given token can be claimed by the given claimant.\n     * Children of land tokens can never be claimed (the plot must be subdivided).\n     * Children of system/planet/moon tokens can only be claimed if the claimer owns them or the owner allows homesteading.\n     */\n    function childrenClaimable(uint256 token, address claimant) public view returns (bool) {\n        require(backend.exists(token));\n        return !token.tokenIsLand() && (claimant == backend.ownerOf(token) || tokenConfigs[token].homesteading);\n    }\n\n    /**\n     * Get the min deposit that will be required to create a claim on a token.\n     *\n     * Tokens can only exist with deposits smaller than this if they were\n     * created before the minimum deposit was raised, or if they are the result\n     * of merging other tokens whose deposits were too small.\n     */\n    function getMinDepositToCreate(uint256 token) public view returns (uint256) {\n        // Get the token's type\n        uint256 token_type = token.getTokenType();\n\n        if (token_type == TOKEN_TYPE_SECTOR) {\n            // Sectors cannot be owned.\n            return 0xFFFFFFFFFFFFFFFFFFFFFFFFFFFFFFFFFFFFFFFFFFFFFFFFFFFFFFFFFFFFFFFF;\n        } else if (token_type == TOKEN_TYPE_SYSTEM) {\n            // For systems, the deposit is set\n            return minSystemDepositInAtomicUnits;\n        } else if (token_type == TOKEN_TYPE_PLANET) {\n            // For planets, the deposit is a fraction of the system\n            return minSystemDepositInAtomicUnits.div(10);\n        } else if (token_type == TOKEN_TYPE_MOON) {\n            // For moons, the deposit is a smaller fraction\n            return minSystemDepositInAtomicUnits.div(40);\n        } else {\n            // It must be land\n            \n            // For land, the deposit is smaller and cuts in half with each level of subdivision (starting at 1).\n\n            // Base on the cost of the whole body\n            // For moons we pay this fraction of the star system cost\n            // For planets we pay more (divide less)\n            uint256 whole_cost = minSystemDepositInAtomicUnits.div((token.getTokenMoon() == MOON_NONE) ? 10 : 40);\n\n            // So all the small claims is twice as expensive as the big claim.\n            uint256 subdivisions = token.getTokenTrixelCount();\n            // Divide by an extra 2 at first because the first level has 8 trixels and not 4.\n            return whole_cost >> (subdivisions + 1);\n        }\n    }\n\n    /**\n     * Return true if the given token exists and the corresponding world object is claimed, and false otherwise.\n     * Does not account for owners of parents.\n     */\n    function exists(uint256 token) public view returns (bool) {\n        // Just wrap the private exists function\n        return backend.exists(token);\n    }\n\n\n    //////////////\n    // Minting and destruction logic: commit/reveal/cancel and release\n    //////////////\n    \n    /**\n     * Make a new commitment by debiting msg.sender's account for the given deposit.\n     * Returns the numerical ID of the commitment, which must be passed to\n     * reveal() together with the actual bit-packed keypath of the thing being\n     * claimed in order to finalize the claim.\n     */\n    function commit(bytes32 hash, uint256 deposit) external {\n        // Deposit size will not be checked until reveal!\n\n        // We use the 0 hash as an indication that a commitment isn't present\n        // in the mapping, so we prohibit it here as a real commitment hash.\n        require(hash != bytes32(0), \"Zero hash prohibited\");\n\n        // Record we have the deposit value\n        expectedDepositBalance = expectedDepositBalance.add(deposit);\n\n        // Make sure we can take the deposit\n        require(depositTokenContract.transferFrom(msg.sender, this, deposit), \"Deposit not approved\");\n\n        // Compute the commitment key\n        bytes32 commitment_key = keccak256(abi.encodePacked(hash, msg.sender));\n\n        // Find the record for it\n        Commitment storage commitment = commitments[commitment_key];\n\n        // Make sure it is free\n        require(commitment.hash == bytes32(0), \"Duplicate commitment prohibited\");\n\n        // Fill it in\n        commitment.hash = hash;\n        commitment.deposit = deposit;\n        commitment.creationTime = now;\n\n        // Do an event for tracking.  Nothing needs to come out of this for the\n        // reveal; you just need to know that you succeeded and about when.\n        emit Commit(hash, msg.sender);\n    }\n\n    /**\n     * Cancel a commitment that has not yet been revealed.\n     * Returns the associated deposit.\n     * ID the commitment by the committing hash passed to commit(), *not* the\n     * internal key.\n     * Must be sent from the same address that created the commitment, or the\n     * commitment cannot be addressed.\n     */\n    function cancel(bytes32 hash) external {\n        // We use the 0 hash as an indication that a commitment isn't present\n        // in the mapping, so we prohibit it here as a real commitment hash.\n        require(hash != bytes32(0), \"Zero hash prohibited\");\n\n        // Look up the right commitment for this hash and owner.\n        bytes32 commitment_key = keccak256(abi.encodePacked(hash, msg.sender));\n        Commitment storage commitment = commitments[commitment_key];\n\n        // Make sure it is present with the right nonzero hash.\n        // If it seems to have a zero hash, the commitment is gone/never existed.\n        require(commitment.hash == hash, \"Commitment not found\");\n\n        // Work out how much to refund\n        uint256 refund = commitment.deposit;\n\n        // Destroy the commitment\n        delete commitments[commitment_key];\n\n        // Record we sent the deposit value\n        expectedDepositBalance = expectedDepositBalance.sub(refund);\n\n        // Return the deposit\n        require(depositTokenContract.transfer(msg.sender, refund));\n\n        // Emit a Cancel event\n        emit Cancel(hash, msg.sender);\n    }\n\n    /**\n     * Finish a commitment by revealing the token we want to claim and the\n     * nonce to make the commitment hash. Creates the token. Fails and reverts\n     * if the preimage is incorrect, the commitment is expired, the commitment\n     * is too new, the commitment is missing, the deposit is insufficient for\n     * whatever is being claimed, the Macroverse generators cannot be accessed\n     * to prove the existence of the thing being claimed or its parents, or the\n     * thing or a child or parent is already claimed by a conflicting\n     * commitment. Otherwise issues the token for the bit-packed keypath given\n     * in preimage.\n     *\n     * Doesn't need the commitment hash: it is computed from the provided\n     * preimage.  Commitment lookup also depends on the originating address, so\n     * the function must be called by the original committer.\n     */\n    function reveal(uint256 token, uint256 nonce) external {\n        // Compute the committing hash that this is the preimage for\n        bytes32 hash = keccak256(abi.encodePacked(token, nonce));\n        \n        // Look up the right commitment for this hash and owner.\n        bytes32 commitment_key = keccak256(abi.encodePacked(hash, msg.sender));\n        Commitment storage commitment = commitments[commitment_key];\n\n        // Make sure it is present with the right nonzero hash.\n        // If it seems to have a zero hash, the commitment is gone/never existed.\n        require(commitment.hash == hash, \"Commitment not found\");\n        \n        // Make sure the commitment is not expired (max wait is in the future)\n        require(commitment.creationTime + (commitmentMinWait * COMMITMENT_MAX_WAIT_FACTOR) > now, \"Commitment expired\");\n\n        // Make sure the commitment is not too new (min wait is in the past)\n        require(commitment.creationTime + commitmentMinWait < now, \"Commitment too new\");\n\n        // Make sure the token doesn't already exists\n        require(!backend.exists(token), \"Token already exists\");\n\n        // Validate the token\n        require(token.tokenIsCanonical(), \"Token data mis-packed\");\n        // Make sure it refers to something real\n        require(existenceChecker.exists(token), \"Cannot claim non-existent thing\");\n\n        // Make sure that sufficient tokens have been deposited for this thing to be claimed\n        require(commitment.deposit >= getMinDepositToCreate(token), \"Deposit too small\");\n\n        // Do checks on the parent\n        uint256 extant_parent = lowestExistingParent(token);\n        if (extant_parent != 0) {\n            // A parent exists. Can this person claim its children?\n            require(childrenClaimable(extant_parent, msg.sender), \"Cannot claim children here\");\n        }\n\n        // If it's land, no children can be claimed already\n        require(!token.tokenIsLand() || childTree[token] == 0, \"Cannot claim land with claimed subplots\");\n\n        // OK, now we know the claim is valid. Execute it.\n\n        // Create the token state, with homesteading off, carrying over the deposit\n        tokenConfigs[token] = TokenConfig({\n            deposit: commitment.deposit,\n            homesteading: false\n        });\n\n        // Record it in the child tree. This informs all parent land tokens\n        // that could be created that there are child claims, and blocks them.\n        addChildToTree(token);\n\n        // Destroy the commitment\n        delete commitments[commitment_key];\n\n        // Emit a reveal event, before actually making the token\n        emit Reveal(hash, token, msg.sender);\n\n        // If we pass everything, mint the token\n        backend.mint(msg.sender, token);\n    }\n\n    /**\n     * Destroy a token that you own, allowing it to be claimed by someone else.\n     * Retruns the associated deposit to you.\n     */\n    function release(uint256 token) external {\n        // Burn the token IFF it exists and is owned by msg.sender\n        backend.burn(msg.sender, token);\n\n        // Say the token was released\n        emit Release(token, msg.sender);\n\n        // Remove it from the tree so it no longer blocks parent claims if it is land\n        removeChildFromTree(token);\n        \n        // Work out what the deposit was\n        uint256 deposit = tokenConfigs[token].deposit;\n\n        // Clean up its config\n        delete tokenConfigs[token];\n\n        // Record we sent the deposit back\n        expectedDepositBalance = expectedDepositBalance.sub(deposit);\n\n        // Return the deposit\n        require(depositTokenContract.transfer(msg.sender, deposit));\n    }\n\n    //////////////\n    // Token owner functions\n    //////////////\n\n    /**\n     * Set whether homesteading is allowed under a token. The token must be owned by you, and must not be land.\n     */\n    function setHomesteading(uint256 token, bool value) external {\n        require(backend.ownerOf(token) == msg.sender, \"Token owner mismatch\");\n        require(!token.tokenIsLand());\n        \n        // Find the token's config\n        TokenConfig storage config = tokenConfigs[token];\n\n        if (config.homesteading != value) {\n            // The value is actually changing\n\n            // Set the homesteading flag\n            config.homesteading = value;\n\n            // Make an event so clients can find homesteading areas\n            emit Homesteading(token, value);\n        }\n    }\n\n    /**\n     * Get whether homesteading is allowed under a token.\n     * Returns false for nonexistent or invalid tokens.\n     */\n    function getHomesteading(uint256 token) external view returns (bool) {\n        // Only existing non-land tokens with homesteading on can be homesteaded.\n        return (backend.exists(token) && !token.tokenIsLand() && tokenConfigs[token].homesteading); \n    }\n\n    /**\n     * Get the deposit tied up in a token, in MRV atomic units.\n     * Returns 0 for nonexistent or invalid tokens.\n     * Deposits associated with claims need to be gotten by looking at the claim mapping directly.\n     */\n    function getDeposit(uint256 token) external view returns (uint256) {\n        // Only existing non-land tokens with homesteading on can be homesteaded.\n        if (!backend.exists(token)) {\n            return 0;\n        }\n        return tokenConfigs[token].deposit;\n    }\n\n    /**\n     * Split a trixel of land into 4 sub-trixel tokens.\n     * The new tokens will be owned by the same owner.\n     * The old token will be destroyed.\n     * Additional deposit may be required so that all subdivided tokens have at least the minimum deposit.\n     * The deposit from the original token will be re-used if possible.\n     * If the deposit available is not divisible by 4, the extra will be assigned to the first child token.\n     */\n    function subdivideLand(uint256 parent, uint256 additional_deposit) external {\n        // Make sure the parent is land owned by the caller.\n        // If a token is owned, it must be canonical.\n        require(backend.ownerOf(parent) == msg.sender, \"Token owner mismatch\");\n\n        // Make sure the parent isn't maximally subdivided\n        require(parent.getTokenType() != TOKEN_TYPE_LAND_MAX, \"Land maximally subdivided\");\n\n        // Get the deposit from it\n        uint256 deposit = tokenConfigs[parent].deposit;\n\n        // Take the new deposit from the caller\n        // Record we have the deposit value\n        expectedDepositBalance = expectedDepositBalance.add(additional_deposit);\n\n        // Make sure we can take the deposit\n        require(depositTokenContract.transferFrom(msg.sender, this, additional_deposit), \"Deposit not approved\");\n\n        // Add in the new deposit\n        deposit = deposit.add(additional_deposit);\n\n        // Compute the token numbers for the new child tokens\n        uint256[] memory children = new uint256[](CHILDREN_PER_TRIXEL);\n        // And their deposits. In theory they might vary by token identity.\n        uint256[] memory child_deposits = new uint256[](CHILDREN_PER_TRIXEL);\n        // And the total required\n        uint256 required_deposit = 0;\n        for (uint256 i = 0; i < CHILDREN_PER_TRIXEL; i++) {\n            uint256 child = parent.childTokenAtIndex(i);\n            children[i] = child;\n            uint256 child_deposit = getMinDepositToCreate(child);\n            child_deposits[i] = child_deposit;\n            required_deposit = required_deposit.add(child_deposit);\n        }\n\n        require(required_deposit <= deposit, \"Deposit not sufficient\");\n\n        // Burn the parent\n        backend.burn(msg.sender, parent);\n\n        // Clean up its config\n        delete tokenConfigs[parent];\n\n        // Apportion deposit and create the children\n\n        // Now deposit will be is the remaining deposit to try and distribute evenly among the children\n        deposit = deposit.sub(required_deposit);\n        uint256 split_evenly = deposit.div(CHILDREN_PER_TRIXEL);\n        uint256 extra = deposit.mod(CHILDREN_PER_TRIXEL);\n        child_deposits[0] = child_deposits[0].add(extra);\n        for (i = 0; i < CHILDREN_PER_TRIXEL; i++) {\n            child_deposits[i] = child_deposits[i].add(split_evenly);\n\n            // Now we can make the child token config\n            tokenConfigs[children[i]] = TokenConfig({\n                deposit: child_deposits[i],\n                homesteading: false\n            });\n\n            // Say land is being split\n            emit LandSplit(parent, children[i]);\n\n            // And mint the child\n            backend.mint(msg.sender, children[i]);\n        }\n\n        // Set the parent's entry in the child tree to having all 4 children.\n        // Its parent will still record its presence.\n        childTree[parent] = 0xf;\n    }\n\n    /**\n     * Combine 4 land tokens with the same parent trixel into one token for the parent trixel.\n     * Tokens must all be owned by the message sender.\n     * Allows withdrawing some of the deposit of the original child tokens, as long as sufficient deposit is left to back the new parent land claim.\n     */\n    function combineLand(uint256 child1, uint256 child2, uint256 child3, uint256 child4, uint256 withdraw_deposit) external {\n        // Make a child array\n        uint256[CHILDREN_PER_TRIXEL] memory children = [child1, child2, child3, child4];\n\n        // And count up the deposit they represent\n        uint256 available_deposit = 0;\n        \n        for (uint256 i = 0; i < CHILDREN_PER_TRIXEL; i++) {\n            // Make sure all the children are owned by the caller\n            require(backend.ownerOf(children[i]) == msg.sender, \"Token owner mismatch\");\n            // If a token is owned, it must be canonical.\n\n            // Collect the deposit\n            available_deposit = available_deposit.add(tokenConfigs[children[i]].deposit);\n        }\n        \n        // Make sure all the children are distinct\n        require(children[0] != children[1], \"Children not distinct\");\n        require(children[0] != children[2], \"Children not distinct\");\n        require(children[0] != children[3], \"Children not distinct\");\n\n        require(children[1] != children[2], \"Children not distinct\");\n        require(children[1] != children[3], \"Children not distinct\");\n\n        require(children[2] != children[3], \"Children not distinct\");\n        \n        // Make sure they are all children of the same parent\n        uint256 parent = children[0].parentOfToken();\n        for (i = 1; i < CHILDREN_PER_TRIXEL; i++) {\n            require(children[i].parentOfToken() == parent, \"Parent not shared\");\n        }\n        \n        // Make sure that that parent is land\n        require(parent.tokenIsLand());\n\n        // Compute the parent deposit\n        uint256 parent_deposit = available_deposit.sub(withdraw_deposit);\n\n        // Edge case: min deposit scale was adjusted and now the deposits for\n        // the children aren't enough for the parent.\n        // In that case, we allow the merge, but withdraw_deposit must be 0.\n        if (withdraw_deposit > 0) {\n            require(parent_deposit >= getMinDepositToCreate(parent), \"Deposit not sufficient\");\n        }\n\n        for (i = 0; i < CHILDREN_PER_TRIXEL; i++) {\n            // Burn the children\n            backend.burn(msg.sender, children[i]);\n\n            // Clean up the config\n            delete tokenConfigs[children[i]];\n\n            // Say land is being merged\n            emit LandSplit(children[i], parent);\n        }\n\n        // Make a parent config\n        tokenConfigs[parent] = TokenConfig({\n            deposit: parent_deposit,\n            homesteading: false\n        });\n\n        // Create the parent\n        backend.mint(msg.sender, parent);\n\n        // Set the parent's entry in the child tree to having no children.\n        // Its parent will still record its presence as an internal node.\n        childTree[parent] = 0;\n\n        // Return the requested amount of returned deposit.\n\n        // Record we sent the deposit back\n        expectedDepositBalance = expectedDepositBalance.sub(withdraw_deposit);\n\n        // Return the deposit\n        require(depositTokenContract.transfer(msg.sender, withdraw_deposit));\n    }\n\n    //////////////\n    // Admin functions\n    //////////////\n\n    /**\n     * Allow the contract owner to set the minimum deposit amount for granting new\n     * system ownership claims.\n     */\n    function setMinimumSystemDeposit(uint256 new_minimum_deposit_in_atomic_units) external onlyOwner {\n        minSystemDepositInAtomicUnits = new_minimum_deposit_in_atomic_units;\n        emit DepositScaleChange(minSystemDepositInAtomicUnits);\n    }\n    \n    /**\n     * Allow the owner to collect any non-MRV tokens, or any excess MRV, that ends up in this contract.\n     */\n    function reclaimToken(address otherToken) external onlyOwner {\n        IERC20 other = IERC20(otherToken);\n        \n        // We will send our whole balance\n        uint excessBalance = other.balanceOf(this);\n        \n        // Unless we're talking about the MRV token\n        if (address(other) == address(depositTokenContract)) {\n            // In which case we send only any balance that we shouldn't have\n            excessBalance = excessBalance.sub(expectedDepositBalance);\n        }\n        \n        // Make the transfer. If it doesn't work, we can try again later.\n        other.transfer(owner(), excessBalance);\n    }\n}\n",
  "sourcePath": "/Users/anovak/Documents/Workspace/macroverse/contracts/MacroverseUniversalRegistry.sol",
  "compiler": {
    "name": "solc",
    "version": "0.4.24+commit.e67f0147.Emscripten.clang"
  },
  "schemaVersion": "2.0.1",
  "updatedAt": "2019-10-18T01:13:42.297Z"
}