{
  "contractName": "MacroverseSystemGeneratorPart1",
  "abi": [
    {
      "inputs": [
        {
          "internalType": "bytes32",
          "name": "parentSeed",
          "type": "bytes32"
        },
        {
          "internalType": "uint16",
          "name": "childNumber",
          "type": "uint16"
        }
      ],
      "name": "getWorldSeed",
      "outputs": [
        {
          "internalType": "bytes32",
          "name": "",
          "type": "bytes32"
        }
      ],
      "stateMutability": "pure",
      "type": "function"
    },
    {
      "inputs": [
        {
          "internalType": "bytes32",
          "name": "seed",
          "type": "bytes32"
        },
        {
          "internalType": "uint16",
          "name": "planetNumber",
          "type": "uint16"
        },
        {
          "internalType": "uint16",
          "name": "totalPlanets",
          "type": "uint16"
        }
      ],
      "name": "getPlanetClass",
      "outputs": [
        {
          "internalType": "enum Macroverse.WorldClass",
          "name": "",
          "type": "Macroverse.WorldClass"
        }
      ],
      "stateMutability": "pure",
      "type": "function"
    },
    {
      "inputs": [
        {
          "internalType": "bytes32",
          "name": "seed",
          "type": "bytes32"
        },
        {
          "internalType": "enum Macroverse.WorldClass",
          "name": "class",
          "type": "Macroverse.WorldClass"
        }
      ],
      "name": "getWorldMass",
      "outputs": [
        {
          "internalType": "int128",
          "name": "",
          "type": "int128"
        }
      ],
      "stateMutability": "pure",
      "type": "function"
    },
    {
      "inputs": [
        {
          "internalType": "int128",
          "name": "realInnerRadius",
          "type": "int128"
        },
        {
          "internalType": "int128",
          "name": "realOuterRadius",
          "type": "int128"
        },
        {
          "internalType": "bytes32",
          "name": "seed",
          "type": "bytes32"
        },
        {
          "internalType": "enum Macroverse.WorldClass",
          "name": "class",
          "type": "Macroverse.WorldClass"
        },
        {
          "internalType": "int128",
          "name": "realPrevClearance",
          "type": "int128"
        }
      ],
      "name": "getPlanetOrbitDimensions",
      "outputs": [
        {
          "internalType": "int128",
          "name": "realPeriapsis",
          "type": "int128"
        },
        {
          "internalType": "int128",
          "name": "realApoapsis",
          "type": "int128"
        },
        {
          "internalType": "int128",
          "name": "realClearance",
          "type": "int128"
        }
      ],
      "stateMutability": "pure",
      "type": "function"
    }
  ],
  "bytecode": "0x611b20610026600b82828239805160001a60731461001957fe5b30600052607381538281f3fe73000000000000000000000000000000000000000030146080604052600436106100565760003560e01c80630a73a9411461005b5780638ef76a09146100cb578063b8c184361461010a578063cc841c1d14610143575b600080fd5b61009e600480360360a081101561007157600080fd5b508035600f90810b916020810135820b9160408201359160ff60608201351691608090910135900b610196565b60408051600f94850b850b815292840b840b602084015290830b90920b8183015290519081900360600190f35b6100f1600480360360408110156100e157600080fd5b508035906020013560ff166101eb565b60408051600f92830b90920b8252519081900360200190f35b6101316004803603604081101561012057600080fd5b508035906020013561ffff16610b04565b60408051918252519081900360200190f35b6101726004803603606081101561015957600080fd5b5080359061ffff60208201358116916040013516610b31565b6040518082600981111561018257fe5b60ff16815260200191505060405180910390f35b60008060006101a3611ad8565b5060408051602081019091528681526101bf8989838989610d64565b93506101ce8989838988611266565b92506101dd89898389876113ad565b915050955095509592505050565b60006101f5611ad8565b610232604051806040016040528060048152602001636d61737360e01b8152506040518060200160405280878152506114b390919063ffffffff16565b9050600083600981111561024257fe5b1415610373576040805163076b783560e21b815260016004820152633b9aca006024820152905161036b9173__RealMath______________________________91631dade0d491604480820192602092909190829003018186803b1580156102a957600080fd5b505af41580156102bd573d6000803e3d6000fd5b505050506040513d60208110156102d357600080fd5b50516040805163076b783560e21b8152600a6004820152633b9aca006024820152905173__RealMath______________________________91631dade0d4916044808301926020929190829003018186803b15801561033157600080fd5b505af4158015610345573d6000803e3d6000fd5b505050506040513d602081101561035b57600080fd5b505183919063ffffffff6115c916565b915050610afe565b600483600981111561038157fe5b14156103e8576040805163076b783560e21b815260016004820152633b9aca006024820152905161036b9173__RealMath______________________________91631dade0d491604480820192602092909190829003018186803b1580156102a957600080fd5b60018360098111156103f657fe5b14156104df576040805163076b783560e21b81526001600482015260646024820152905161036b9173__RealMath______________________________91631dade0d491604480820192602092909190829003018186803b15801561045a57600080fd5b505af415801561046e573d6000803e3d6000fd5b505050506040513d602081101561048457600080fd5b50516040805163076b783560e21b81526009600482015260646024820152905173__RealMath______________________________91631dade0d4916044808301926020929190829003018186803b15801561033157600080fd5b60058360098111156104ed57fe5b14156105d8576040805163076b783560e21b8152600860048201526103e86024820152905161036b9173__RealMath______________________________91631dade0d491604480820192602092909190829003018186803b15801561055257600080fd5b505af4158015610566573d6000803e3d6000fd5b505050506040513d602081101561057c57600080fd5b50516040805163076b783560e21b8152605060048201526103e86024820152905173__RealMath______________________________91631dade0d4916044808301926020929190829003018186803b15801561033157600080fd5b60028360098111156105e657fe5b14156106c8576040805163076b783560e21b8152600a600482015260646024820152905161036b9173__RealMath______________________________91631dade0d491604480820192602092909190829003018186803b15801561064a57600080fd5b505af415801561065e573d6000803e3d6000fd5b505050506040513d602081101561067457600080fd5b50516040805163f5a5d50360e01b815260096004820152905173__RealMath______________________________9163f5a5d503916024808301926020929190829003018186803b15801561033157600080fd5b60068360098111156106d657fe5b141561073b576040805163076b783560e21b8152605060048201526103e86024820152905161036b9173__RealMath______________________________91631dade0d491604480820192602092909190829003018186803b15801561064a57600080fd5b600783600981111561074957fe5b14156108235761036b73__RealMath______________________________63f5a5d50360076040518263ffffffff1660e01b81526004018082600a0b815260200191505060206040518083038186803b1580156107a557600080fd5b505af41580156107b9573d6000803e3d6000fd5b505050506040513d60208110156107cf57600080fd5b50516040805163f5a5d50360e01b815260146004820152905173__RealMath______________________________9163f5a5d503916024808301926020929190829003018186803b15801561033157600080fd5b600383600981111561083157fe5b141561090c5761036b73__RealMath______________________________63f5a5d50360326040518263ffffffff1660e01b81526004018082600a0b815260200191505060206040518083038186803b15801561088d57600080fd5b505af41580156108a1573d6000803e3d6000fd5b505050506040513d60208110156108b757600080fd5b50516040805163f5a5d50360e01b81526101906004820152905173__RealMath______________________________9163f5a5d503916024808301926020929190829003018186803b15801561033157600080fd5b600983600981111561091a57fe5b1415610a03576040805163076b783560e21b81526001600482015260646024820152905161036b9173__RealMath______________________________91631dade0d491604480820192602092909190829003018186803b15801561097e57600080fd5b505af4158015610992573d6000803e3d6000fd5b505050506040513d60208110156109a857600080fd5b50516040805163076b783560e21b81526014600482015260646024820152905173__RealMath______________________________91631dade0d4916044808301926020929190829003018186803b15801561033157600080fd5b6008836009811115610a1157fe5b1415610056576040805163076b783560e21b815260016004820152620f42406024820152905161036b9173__RealMath______________________________91631dade0d491604480820192602092909190829003018186803b158015610a7757600080fd5b505af4158015610a8b573d6000803e3d6000fd5b505050506040513d6020811015610aa157600080fd5b50516040805163076b783560e21b815260146004820152620f42406024820152905173__RealMath______________________________91631dade0d4916044808301926020929190829003018186803b15801561033157600080fd5b92915050565b6040805160208101909152828152600090610b299061ffff841663ffffffff61166f16565b519392505050565b6000610b3b611ad8565b610b7960405180604001604052806005815260200164636c61737360d81b8152506040518060200160405280888152506114b390919063ffffffff16565b90506000610b8f8282606463ffffffff6116d316565b905061ffff8516158015610ba857508361ffff16600114155b15610c2b57604581600a0b1215610bc457600192505050610d5d565b604681600a0b1215610bdb57600592505050610d5d565b604f81600a0b1215610bf257600292505050610d5d565b605081600a0b1215610c0957600692505050610d5d565b605a81600a0b1215610c2057600792505050610d5d565b600392505050610d5d565b600261ffff85160461ffff168561ffff161015610cd757600f81600a0b1215610c5957600192505050610d5d565b601481600a0b1215610c7057600592505050610d5d565b602381600a0b1215610c8757600292505050610d5d565b602881600a0b1215610c9e57600692505050610d5d565b604681600a0b1215610cb557600792505050610d5d565b605081600a0b1215610ccc57600392505050610d5d565b600992505050610d5d565b600581600a0b1215610cee57600192505050610d5d565b601481600a0b1215610d0557600592505050610d5d565b601681600a0b1215610d1c57600292505050610d5d565b601e81600a0b1215610d3357600692505050610d5d565b603c81600a0b1215610d4a57600792505050610d5d565b605a81600a0b1215610ccc576003925050505b9392505050565b6000610d6e611ad8565b60408051808201909152600981526870657269617073697360b81b6020820152610d9f90869063ffffffff6114b316565b9050610da9611ad8565b60408051808201909152600a8152693832b934b0b839b4b99960b11b6020820152610ddb90879063ffffffff6114b316565b90506000806001876009811115610dee57fe5b1480610e0557506005876009811115610e0357fe5b145b15610e16575060149050603c610eac565b6002876009811115610e2457fe5b1480610e3b57506006876009811115610e3957fe5b145b15610e4c5750601490506046610eac565b6007876009811115610e5a57fe5b1415610e6d5750603290506103e8610eac565b6003876009811115610e7b57fe5b1415610e8f575061012c90506101f4610eac565b6009876009811115610e9d57fe5b14156100565750601490506101f45b6000610fc373__RealMath______________________________63f5a5d503856040518263ffffffff1660e01b81526004018082600a0b600a0b815260200191505060206040518083038186803b158015610f0657600080fd5b505af4158015610f1a573d6000803e3d6000fd5b505050506040513d6020811015610f3057600080fd5b50516040805163f5a5d50360e01b8152600a86810b900b6004820152905173__RealMath______________________________9163f5a5d503916024808301926020929190829003018186803b158015610f8957600080fd5b505af4158015610f9d573d6000803e3d6000fd5b505050506040513d6020811015610fb357600080fd5b505187919063ffffffff6115c916565b905060006110a273__RealMath______________________________63f5a5d503866040518263ffffffff1660e01b81526004018082600a0b600a0b815260200191505060206040518083038186803b15801561101f57600080fd5b505af4158015611033573d6000803e3d6000fd5b505050506040513d602081101561104957600080fd5b50516040805163f5a5d50360e01b8152600a87810b900b6004820152905173__RealMath______________________________9163f5a5d503916024808301926020929190829003018186803b158015610f8957600080fd5b9050600081600f0b83600f0b126110b957816110bb565b825b905073__RealMath______________________________63b6972146828f6040518363ffffffff1660e01b81526004018083600f0b600f0b815260200182600f0b600f0b81526020019250505060206040518083038186803b15801561112057600080fd5b505af4158015611134573d6000803e3d6000fd5b505050506040513d602081101561114a57600080fd5b50516040805163f5a5d50360e01b815260646004820152905173__RealMath______________________________926325f39a6392600f9190910b91849163f5a5d503916024808301926020929190829003018186803b1580156111ad57600080fd5b505af41580156111c1573d6000803e3d6000fd5b505050506040513d60208110156111d757600080fd5b5051604080516001600160e01b031960e086901b168152600f93840b840b600482015291830b90920b602482015290516044808301926020929190829003018186803b15801561122657600080fd5b505af415801561123a573d6000803e3d6000fd5b505050506040513d602081101561125057600080fd5b5051890197505050505050505095945050505050565b6000611270611ad8565b60408051808201909152600881526761706f617073697360c01b60208201526112a090869063ffffffff6114b316565b90506112aa611ad8565b60408051808201909152600981526830b837b0b839b4b99960b91b60208201526112db90879063ffffffff6114b316565b905060008060018760098111156112ee57fe5b14806113055750600587600981111561130357fe5b145b156113165750600090506006610eac565b600287600981111561132457fe5b148061133b5750600687600981111561133957fe5b145b1561134c575060009050600a610eac565b600787600981111561135a57fe5b141561136d5750601490506101f4610eac565b600387600981111561137b57fe5b141561138d5750600a905060c8610eac565b600987600981111561139b57fe5b14156100565750600a90506064610eac565b60006113b7611ad8565b60408051808201909152600781526618db19585c995960ca1b60208201526113e690869063ffffffff6114b316565b90506113f0611ad8565b60408051808201909152600881526731b632b0b932b21960c11b602082015261142090879063ffffffff6114b316565b9050600080600187600981111561143357fe5b148061144a5750600587600981111561144857fe5b145b1561145b575060149050603c610eac565b600287600981111561146957fe5b14806114805750600687600981111561147e57fe5b145b156114915750602890506046610eac565b600787600981111561149f57fe5b1415610e6d575061012c90506102bc610eac565b6114bb611ad8565b604051806020016040528060028560000151856040516020018083815260200182805190602001908083835b602083106115065780518252601f1990920191602091820191016114e7565b6001836020036101000a038019825116818451168082178552505050505050905001925050506040516020818303038152906040526040518082805190602001908083835b6020831061156a5780518252601f19909201916020918201910161154b565b51815160209384036101000a60001901801990921691161790526040519190930194509192505080830381855afa1580156115a9573d6000803e3d6000fd5b5050506040513d60208110156115be57600080fd5b505190529392505050565b6000826115d585611991565b60408051635b4b90a360e11b8152600f92830b830b830b6004820152868603830b90920b60248301525173__RealMath______________________________9163b6972146916044808301926020929190829003018186803b15801561163a57600080fd5b505af415801561164e573d6000803e3d6000fd5b505050506040513d602081101561166457600080fd5b505101949350505050565b611677611ad8565b604080516020808201835285518284015260608083018690528351808403909101815260808301938490528051929384936002938291908401908083836020831061156a5780518252601f19909201916020918201910161154b565b600073__RealMath______________________________6315dbfe2873__RealMath______________________________63f5a5d503866040518263ffffffff1660e01b81526004018082600a0b600a0b815260200191505060206040518083038186803b15801561174457600080fd5b505af4158015611758573d6000803e3d6000fd5b505050506040513d602081101561176e57600080fd5b505161177987611991565b600f0b73__RealMath______________________________63b6972146909173__RealMath______________________________63f5a5d5038a6040518263ffffffff1660e01b81526004018082600a0b600a0b815260200191505060206040518083038186803b1580156117ed57600080fd5b505af4158015611801573d6000803e3d6000fd5b505050506040513d602081101561181757600080fd5b50516040805163f5a5d50360e01b8152600a8b810b900b6004820152905173__RealMath______________________________9163f5a5d503916024808301926020929190829003018186803b15801561187057600080fd5b505af4158015611884573d6000803e3d6000fd5b505050506040513d602081101561189a57600080fd5b5051604080516001600160e01b031960e087901b168152600f94850b850b600482015292909103830b90920b602482015290516044808301926020929190829003018186803b1580156118ec57600080fd5b505af4158015611900573d6000803e3d6000fd5b505050506040513d602081101561191657600080fd5b5051604080516001600160e01b031960e086901b16815292909101600f90810b900b6004830152516024808301926020929190829003018186803b15801561195d57600080fd5b505af4158015611971573d6000803e3d6000fd5b505050506040513d602081101561198757600080fd5b5051949350505050565b600061199c82611a27565b600f0b73__RealMath______________________________6384f1bd4e90916040518263ffffffff1660e01b81526004018082600f0b600f0b815260200191505060206040518083038186803b1580156119f557600080fd5b505af4158015611a09573d6000803e3d6000fd5b505050506040513d6020811015611a1f57600080fd5b505192915050565b6000610afe82600060028260000151604051602001808281526020019150506040516020818303038152906040526040518082805190602001908083835b60208310611a845780518252601f199092019160209182019101611a65565b51815160209384036101000a60001901801990921691161790526040519190930194509192505080830381855afa158015611ac3573d6000803e3d6000fd5b5050506040513d6020811015611a1f57600080fd5b6040805160208101909152600081529056fea26469706673582212201161eee4903275afa16f0e90bb953dca639aa2efdfcca7d494a688e33725035d64736f6c634300060a0033",
  "immutableReferences": {},
  "source": "pragma solidity ^0.6.10;\n\nimport \"./RNG.sol\";\nimport \"./RealMath.sol\";\n\nimport \"./AccessControl.sol\";\nimport \"./ControlledAccess.sol\";\n\nimport \"./Macroverse.sol\";\n\n\n/**\n * Contains a portion of the MacroverseStstemGenerator implementation code.\n * The contract is split up due to contract size limitations.\n * We can't do access control here sadly.\n */\nlibrary MacroverseSystemGeneratorPart1 {\n    // TODO: RNG doesn't get linked against because we can't pass the struct to the library...\n    using RNG for *;\n    using RealMath for *;\n    // No SafeMath or it might confuse RealMath\n\n    /**@dev\n     * It is useful to have Pi around.\n     * We can't pull it in from the library.\n     */\n    int128 constant REAL_PI = 3454217652358;\n\n    /**@dev\n     * Also perpare pi/2\n     */\n    int128 constant REAL_HALF_PI = REAL_PI >> 1;\n\n    /**@dev\n     * How many fractional bits are there?\n     */\n    int256 constant REAL_FBITS = 40;\n    \n    /**@dev\n     * What's the first non-fractional bit\n     */\n    int128 constant REAL_ONE = int128(1) << int128(REAL_FBITS);\n    \n    /**@dev\n     * What's the last fractional bit?\n     */\n    int128 constant REAL_HALF = REAL_ONE >> 1;\n    \n    /**@dev\n     * What's two? Two is pretty useful.\n     */\n    int128 constant REAL_TWO = REAL_ONE << int128(1);\n\n    /**@dev\n     * And zero\n     */\n    int128 constant REAL_ZERO = 0;\n\n    /**\n     * Get the seed for a planet or moon from the seed for its parent (star or planet) and its child number.\n     */\n    function getWorldSeed(bytes32 parentSeed, uint16 childNumber) public pure returns (bytes32) {\n        return RNG.RandNode(parentSeed).derive(uint(childNumber))._hash;\n    }\n    \n    /**\n     * Decide what kind of planet a given planet is.\n     * It depends on its place in the order.\n     * Takes the *planet*'s seed, its number, and the total planets in the system.\n     */\n    function getPlanetClass(bytes32 seed, uint16 planetNumber, uint16 totalPlanets) public pure returns (Macroverse.WorldClass) {\n        // TODO: do something based on metallicity?\n        RNG.RandNode memory node = RNG.RandNode(seed).derive(\"class\");\n        \n        int88 roll = node.getIntBetween(0, 100);\n        \n        // Inner planets should be more planet-y, ideally smaller\n        // Asteroid belts shouldn't be first that often\n        \n        if (planetNumber == 0 && totalPlanets != 1) {\n            // Innermost planet of a multi-planet system\n            // No asteroid belts allowed!\n            // Also avoid too much watery stuff here because we don't want to deal with the water having been supposed to boil off.\n            if (roll < 69) {\n                return Macroverse.WorldClass.Lunar;\n            } else if (roll < 70) {\n                return Macroverse.WorldClass.Europan;\n            } else if (roll < 79) {\n                return Macroverse.WorldClass.Terrestrial;\n            } else if (roll < 80) {\n                return Macroverse.WorldClass.Panthalassic;\n            } else if (roll < 90) {\n                return Macroverse.WorldClass.Neptunian;\n            } else {\n                return Macroverse.WorldClass.Jovian;\n            }\n        } else if (planetNumber < totalPlanets / 2) {\n            // Inner system\n            if (roll < 15) {\n                return Macroverse.WorldClass.Lunar;\n            } else if (roll < 20) {\n                return Macroverse.WorldClass.Europan;\n            } else if (roll < 35) {\n                return Macroverse.WorldClass.Terrestrial;\n            } else if (roll < 40) {\n                return Macroverse.WorldClass.Panthalassic;\n            } else if (roll < 70) {\n                return Macroverse.WorldClass.Neptunian;\n            } else if (roll < 80) {\n                return Macroverse.WorldClass.Jovian;\n            } else {\n                return Macroverse.WorldClass.AsteroidBelt;\n            }\n        } else {\n            // Outer system\n            if (roll < 5) {\n                return Macroverse.WorldClass.Lunar;\n            } else if (roll < 20) {\n                return Macroverse.WorldClass.Europan;\n            } else if (roll < 22) {\n                return Macroverse.WorldClass.Terrestrial;\n            } else if (roll < 30) {\n                return Macroverse.WorldClass.Panthalassic;\n            } else if (roll < 60) {\n                return Macroverse.WorldClass.Neptunian;\n            } else if (roll < 90) {\n                return Macroverse.WorldClass.Jovian;\n            } else {\n                return Macroverse.WorldClass.AsteroidBelt;\n            }\n        }\n    }\n    \n    /**\n     * Decide what the mass of the planet or moon is. We can't do even the mass of\n     * Jupiter in the ~88 bits we have in a real (should we have used int256 as\n     * the backing type?) so we work in Earth masses.\n     *\n     * Also produces the masses for moons.\n     */\n    function getWorldMass(bytes32 seed, Macroverse.WorldClass class) public pure returns (int128) {\n        RNG.RandNode memory node = RNG.RandNode(seed).derive(\"mass\");\n        \n        if (class == Macroverse.WorldClass.Asteroidal) {\n            // For tiny bodies like this we work in nano-earths\n            return node.getRealBetween(RealMath.fraction(1, 1000000000), RealMath.fraction(10, 1000000000));\n        } else if (class == Macroverse.WorldClass.Cometary) {\n            return node.getRealBetween(RealMath.fraction(1, 1000000000), RealMath.fraction(10, 1000000000));\n        } else if (class == Macroverse.WorldClass.Lunar) {\n            return node.getRealBetween(RealMath.fraction(1, 100), RealMath.fraction(9, 100));\n        } else if (class == Macroverse.WorldClass.Europan) {\n            return node.getRealBetween(RealMath.fraction(8, 1000), RealMath.fraction(80, 1000));\n        } else if (class == Macroverse.WorldClass.Terrestrial) {\n            return node.getRealBetween(RealMath.fraction(10, 100), RealMath.toReal(9));\n        } else if (class == Macroverse.WorldClass.Panthalassic) {\n            return node.getRealBetween(RealMath.fraction(80, 1000), RealMath.toReal(9));\n        } else if (class == Macroverse.WorldClass.Neptunian) {\n            return node.getRealBetween(RealMath.toReal(7), RealMath.toReal(20));\n        } else if (class == Macroverse.WorldClass.Jovian) {\n            return node.getRealBetween(RealMath.toReal(50), RealMath.toReal(400));\n        } else if (class == Macroverse.WorldClass.AsteroidBelt) {\n            return node.getRealBetween(RealMath.fraction(1, 100), RealMath.fraction(20, 100));\n        } else if (class == Macroverse.WorldClass.Ring) {\n            // Saturn's rings are maybe about 5-15 micro-earths\n            return node.getRealBetween(RealMath.fraction(1, 1000000), RealMath.fraction(20, 1000000));\n        } else {\n            // Not real!\n            revert();\n        }\n    }\n    \n    // Define the orbit shape\n\n    /**\n     * Given the parent star's habitable zone bounds, the planet seed, the planet class\n     * to be generated, and the \"clearance\" radius around the previous planet\n     * in meters, produces orbit statistics (periapsis, apoapsis, and\n     * clearance) in meters.\n     *\n     * The first planet uses a previous clearance of 0.\n     *\n     * TODO: realOuterRadius from the habitable zone never gets used. We should remove it.\n     */\n    function getPlanetOrbitDimensions(int128 realInnerRadius, int128 realOuterRadius, bytes32 seed, Macroverse.WorldClass class, int128 realPrevClearance)\n        public pure returns (int128 realPeriapsis, int128 realApoapsis, int128 realClearance) {\n\n        // We scale all the random generation around the habitable zone distance.\n\n        // Make the planet RNG node to use for all the computations\n        RNG.RandNode memory node = RNG.RandNode(seed);\n        \n        // Compute the statistics with their own functions\n        realPeriapsis = getPlanetPeriapsis(realInnerRadius, realOuterRadius, node, class, realPrevClearance);\n        realApoapsis = getPlanetApoapsis(realInnerRadius, realOuterRadius, node, class, realPeriapsis);\n        realClearance = getPlanetClearance(realInnerRadius, realOuterRadius, node, class, realApoapsis);\n    }\n\n    /**\n     * Decide what the planet's orbit's periapsis is, in meters.\n     * This is the first statistic about the orbit to be generated.\n     *\n     * For the first planet, realPrevClearance is 0. For others, it is the\n     * clearance (i.e. distance from star that the planet has cleared out) of\n     * the previous planet.\n     */\n    function getPlanetPeriapsis(int128 realInnerRadius, int128 /* realOuterRadius */, RNG.RandNode memory planetNode, Macroverse.WorldClass class, int128 realPrevClearance)\n        internal pure returns (int128) {\n        \n        // We're going to sample 2 values and take the minimum, to get a nicer distribution than uniform.\n        // We really kind of want a log scale but that's expensive.\n        RNG.RandNode memory node1 = planetNode.derive(\"periapsis\");\n        RNG.RandNode memory node2 = planetNode.derive(\"periapsis2\");\n        \n        // Define minimum and maximum periapsis distance above previous planet's\n        // cleared band. Work in % of the habitable zone inner radius.\n        int88 minimum;\n        int88 maximum;\n        if (class == Macroverse.WorldClass.Lunar || class == Macroverse.WorldClass.Europan) {\n            minimum = 20;\n            maximum = 60;\n        } else if (class == Macroverse.WorldClass.Terrestrial || class == Macroverse.WorldClass.Panthalassic) {\n            minimum = 20;\n            maximum = 70;\n        } else if (class == Macroverse.WorldClass.Neptunian) {\n            minimum = 50;\n            maximum = 1000;\n        } else if (class == Macroverse.WorldClass.Jovian) {\n            minimum = 300;\n            maximum = 500;\n        } else if (class == Macroverse.WorldClass.AsteroidBelt) {\n            minimum = 20;\n            maximum = 500;\n        } else {\n            // Not real!\n            revert();\n        }\n        \n        int128 realSeparation1 = node1.getRealBetween(RealMath.toReal(minimum), RealMath.toReal(maximum));\n        int128 realSeparation2 = node2.getRealBetween(RealMath.toReal(minimum), RealMath.toReal(maximum));\n        int128 realSeparation = realSeparation1 < realSeparation2 ? realSeparation1 : realSeparation2;\n        return realPrevClearance + RealMath.mul(realSeparation, realInnerRadius).div(RealMath.toReal(100)); \n    }\n    \n    /**\n     * Decide what the planet's orbit's apoapsis is, in meters.\n     * This is the second statistic about the orbit to be generated.\n     */\n    function getPlanetApoapsis(int128 realInnerRadius, int128 /* realOuterRadius */, RNG.RandNode memory planetNode, Macroverse.WorldClass class, int128 realPeriapsis)\n        internal pure returns (int128) {\n        \n        RNG.RandNode memory node1 = planetNode.derive(\"apoapsis\");\n        RNG.RandNode memory node2 = planetNode.derive(\"apoapsis2\");\n        \n        // Define minimum and maximum apoapsis distance above planet's periapsis.\n        // Work in % of the habitable zone inner radius.\n        int88 minimum;\n        int88 maximum;\n        if (class == Macroverse.WorldClass.Lunar || class == Macroverse.WorldClass.Europan) {\n            minimum = 0;\n            maximum = 6;\n        } else if (class == Macroverse.WorldClass.Terrestrial || class == Macroverse.WorldClass.Panthalassic) {\n            minimum = 0;\n            maximum = 10;\n        } else if (class == Macroverse.WorldClass.Neptunian) {\n            minimum = 20;\n            maximum = 500;\n        } else if (class == Macroverse.WorldClass.Jovian) {\n            minimum = 10;\n            maximum = 200;\n        } else if (class == Macroverse.WorldClass.AsteroidBelt) {\n            minimum = 10;\n            maximum = 100;\n        } else {\n            // Not real!\n            revert();\n        }\n        \n        int128 realWidth1 = node1.getRealBetween(RealMath.toReal(minimum), RealMath.toReal(maximum));\n        int128 realWidth2 = node2.getRealBetween(RealMath.toReal(minimum), RealMath.toReal(maximum));\n        int128 realWidth = realWidth1 < realWidth2 ? realWidth1 : realWidth2; \n        return realPeriapsis + RealMath.mul(realWidth, realInnerRadius).div(RealMath.toReal(100)); \n    }\n    \n    /**\n     * Decide how far out the cleared band after the planet's orbit is.\n     */\n    function getPlanetClearance(int128 realInnerRadius, int128 /* realOuterRadius */, RNG.RandNode memory planetNode, Macroverse.WorldClass class, int128 realApoapsis)\n        internal pure returns (int128) {\n        \n        RNG.RandNode memory node1 = planetNode.derive(\"cleared\");\n        RNG.RandNode memory node2 = planetNode.derive(\"cleared2\");\n        \n        // Define minimum and maximum clearance.\n        // Work in % of the habitable zone inner radius.\n        int88 minimum;\n        int88 maximum;\n        if (class == Macroverse.WorldClass.Lunar || class == Macroverse.WorldClass.Europan) {\n            minimum = 20;\n            maximum = 60;\n        } else if (class == Macroverse.WorldClass.Terrestrial || class == Macroverse.WorldClass.Panthalassic) {\n            minimum = 40;\n            maximum = 70;\n        } else if (class == Macroverse.WorldClass.Neptunian) {\n            minimum = 300;\n            maximum = 700;\n        } else if (class == Macroverse.WorldClass.Jovian) {\n            minimum = 300;\n            maximum = 500;\n        } else if (class == Macroverse.WorldClass.AsteroidBelt) {\n            minimum = 20;\n            maximum = 500;\n        } else {\n            // Not real!\n            revert();\n        }\n        \n        int128 realSeparation1 = node1.getRealBetween(RealMath.toReal(minimum), RealMath.toReal(maximum));\n        int128 realSeparation2 = node2.getRealBetween(RealMath.toReal(minimum), RealMath.toReal(maximum));\n        int128 realSeparation = realSeparation1 < realSeparation2 ? realSeparation1 : realSeparation2;\n        return realApoapsis + RealMath.mul(realSeparation, realInnerRadius).div(RealMath.toReal(100)); \n    }\n}\n\n// SPDX-License-Identifier: UNLICENSED\n",
  "sourcePath": "/home/anovak/workspace/macroverse/contracts/MacroverseSystemGeneratorPart1.sol",
  "compiler": {
    "name": "solc",
    "version": "0.6.10+commit.00c0fcaf.Emscripten.clang"
  },
  "schemaVersion": "3.3.1",
  "updatedAt": "2020-12-11T02:46:40.890Z",
  "devdoc": {
    "methods": {},
    "stateVariables": {
      "REAL_FBITS": {
        "details": "How many fractional bits are there?"
      },
      "REAL_HALF": {
        "details": "What's the last fractional bit?"
      },
      "REAL_HALF_PI": {
        "details": "Also perpare pi/2"
      },
      "REAL_ONE": {
        "details": "What's the first non-fractional bit"
      },
      "REAL_PI": {
        "details": "It is useful to have Pi around. We can't pull it in from the library."
      },
      "REAL_TWO": {
        "details": "What's two? Two is pretty useful."
      },
      "REAL_ZERO": {
        "details": "And zero"
      }
    }
  },
  "userdoc": {
    "methods": {
      "getPlanetClass(bytes32,uint16,uint16)": {
        "notice": "Decide what kind of planet a given planet is. It depends on its place in the order. Takes the *planet*'s seed, its number, and the total planets in the system."
      },
      "getPlanetOrbitDimensions(int128,int128,bytes32,Macroverse.WorldClass,int128)": {
        "notice": "Given the parent star's habitable zone bounds, the planet seed, the planet class to be generated, and the \"clearance\" radius around the previous planet in meters, produces orbit statistics (periapsis, apoapsis, and clearance) in meters. The first planet uses a previous clearance of 0. TODO: realOuterRadius from the habitable zone never gets used. We should remove it."
      },
      "getWorldMass(bytes32,Macroverse.WorldClass)": {
        "notice": "Decide what the mass of the planet or moon is. We can't do even the mass of Jupiter in the ~88 bits we have in a real (should we have used int256 as the backing type?) so we work in Earth masses. Also produces the masses for moons."
      },
      "getWorldSeed(bytes32,uint16)": {
        "notice": "Get the seed for a planet or moon from the seed for its parent (star or planet) and its child number."
      }
    },
    "notice": "Contains a portion of the MacroverseStstemGenerator implementation code. The contract is split up due to contract size limitations. We can't do access control here sadly."
  }
}