{
  "contractName": "MacroverseUniversalRegistry",
  "abi": [
    {
      "inputs": [
        {
          "internalType": "address",
          "name": "backend_address",
          "type": "address"
        },
        {
          "internalType": "address",
          "name": "existence_checker_address",
          "type": "address"
        },
        {
          "internalType": "address",
          "name": "deposit_token_address",
          "type": "address"
        },
        {
          "internalType": "uint256",
          "name": "initial_min_system_deposit_in_atomic_units",
          "type": "uint256"
        },
        {
          "internalType": "uint256",
          "name": "commitment_min_wait",
          "type": "uint256"
        }
      ],
      "payable": false,
      "stateMutability": "nonpayable",
      "type": "constructor"
    },
    {
      "anonymous": false,
      "inputs": [
        {
          "indexed": true,
          "internalType": "bytes32",
          "name": "hash",
          "type": "bytes32"
        },
        {
          "indexed": true,
          "internalType": "address",
          "name": "owner",
          "type": "address"
        }
      ],
      "name": "Cancel",
      "type": "event"
    },
    {
      "anonymous": false,
      "inputs": [
        {
          "indexed": true,
          "internalType": "bytes32",
          "name": "hash",
          "type": "bytes32"
        },
        {
          "indexed": true,
          "internalType": "address",
          "name": "owner",
          "type": "address"
        }
      ],
      "name": "Commit",
      "type": "event"
    },
    {
      "anonymous": false,
      "inputs": [
        {
          "indexed": false,
          "internalType": "uint256",
          "name": "new_commitment_min_wait_in_seconds",
          "type": "uint256"
        }
      ],
      "name": "CommitmentMinWaitChange",
      "type": "event"
    },
    {
      "anonymous": false,
      "inputs": [
        {
          "indexed": false,
          "internalType": "uint256",
          "name": "new_min_system_deposit_in_atomic_units",
          "type": "uint256"
        }
      ],
      "name": "DepositScaleChange",
      "type": "event"
    },
    {
      "anonymous": false,
      "inputs": [
        {
          "indexed": true,
          "internalType": "uint256",
          "name": "token",
          "type": "uint256"
        },
        {
          "indexed": true,
          "internalType": "bool",
          "name": "value",
          "type": "bool"
        }
      ],
      "name": "Homesteading",
      "type": "event"
    },
    {
      "anonymous": false,
      "inputs": [
        {
          "indexed": true,
          "internalType": "uint256",
          "name": "child",
          "type": "uint256"
        },
        {
          "indexed": true,
          "internalType": "uint256",
          "name": "parent",
          "type": "uint256"
        }
      ],
      "name": "LandMerge",
      "type": "event"
    },
    {
      "anonymous": false,
      "inputs": [
        {
          "indexed": true,
          "internalType": "uint256",
          "name": "parent",
          "type": "uint256"
        },
        {
          "indexed": true,
          "internalType": "uint256",
          "name": "child",
          "type": "uint256"
        }
      ],
      "name": "LandSplit",
      "type": "event"
    },
    {
      "anonymous": false,
      "inputs": [
        {
          "indexed": true,
          "internalType": "address",
          "name": "previousOwner",
          "type": "address"
        },
        {
          "indexed": true,
          "internalType": "address",
          "name": "newOwner",
          "type": "address"
        }
      ],
      "name": "OwnershipTransferred",
      "type": "event"
    },
    {
      "anonymous": false,
      "inputs": [
        {
          "indexed": true,
          "internalType": "uint256",
          "name": "token",
          "type": "uint256"
        },
        {
          "indexed": true,
          "internalType": "address",
          "name": "former_owner",
          "type": "address"
        }
      ],
      "name": "Release",
      "type": "event"
    },
    {
      "anonymous": false,
      "inputs": [
        {
          "indexed": true,
          "internalType": "bytes32",
          "name": "hash",
          "type": "bytes32"
        },
        {
          "indexed": true,
          "internalType": "uint256",
          "name": "token",
          "type": "uint256"
        },
        {
          "indexed": true,
          "internalType": "address",
          "name": "owner",
          "type": "address"
        }
      ],
      "name": "Reveal",
      "type": "event"
    },
    {
      "payable": false,
      "stateMutability": "nonpayable",
      "type": "fallback"
    },
    {
      "constant": true,
      "inputs": [],
      "name": "commitmentMinWait",
      "outputs": [
        {
          "internalType": "uint256",
          "name": "",
          "type": "uint256"
        }
      ],
      "payable": false,
      "stateMutability": "view",
      "type": "function"
    },
    {
      "constant": true,
      "inputs": [
        {
          "internalType": "bytes32",
          "name": "",
          "type": "bytes32"
        }
      ],
      "name": "commitments",
      "outputs": [
        {
          "internalType": "bytes32",
          "name": "hash",
          "type": "bytes32"
        },
        {
          "internalType": "uint256",
          "name": "deposit",
          "type": "uint256"
        },
        {
          "internalType": "uint256",
          "name": "creationTime",
          "type": "uint256"
        }
      ],
      "payable": false,
      "stateMutability": "view",
      "type": "function"
    },
    {
      "constant": true,
      "inputs": [],
      "name": "expectedDepositBalance",
      "outputs": [
        {
          "internalType": "uint256",
          "name": "",
          "type": "uint256"
        }
      ],
      "payable": false,
      "stateMutability": "view",
      "type": "function"
    },
    {
      "constant": true,
      "inputs": [],
      "name": "isOwner",
      "outputs": [
        {
          "internalType": "bool",
          "name": "",
          "type": "bool"
        }
      ],
      "payable": false,
      "stateMutability": "view",
      "type": "function"
    },
    {
      "constant": true,
      "inputs": [],
      "name": "minSystemDepositInAtomicUnits",
      "outputs": [
        {
          "internalType": "uint256",
          "name": "",
          "type": "uint256"
        }
      ],
      "payable": false,
      "stateMutability": "view",
      "type": "function"
    },
    {
      "constant": true,
      "inputs": [],
      "name": "owner",
      "outputs": [
        {
          "internalType": "address",
          "name": "",
          "type": "address"
        }
      ],
      "payable": false,
      "stateMutability": "view",
      "type": "function"
    },
    {
      "constant": false,
      "inputs": [
        {
          "internalType": "address",
          "name": "contractAddr",
          "type": "address"
        }
      ],
      "name": "reclaimContract",
      "outputs": [],
      "payable": false,
      "stateMutability": "nonpayable",
      "type": "function"
    },
    {
      "constant": false,
      "inputs": [],
      "name": "reclaimEther",
      "outputs": [],
      "payable": false,
      "stateMutability": "nonpayable",
      "type": "function"
    },
    {
      "constant": false,
      "inputs": [],
      "name": "renounceOwnership",
      "outputs": [],
      "payable": false,
      "stateMutability": "nonpayable",
      "type": "function"
    },
    {
      "constant": false,
      "inputs": [
        {
          "internalType": "address",
          "name": "newOwner",
          "type": "address"
        }
      ],
      "name": "transferOwnership",
      "outputs": [],
      "payable": false,
      "stateMutability": "nonpayable",
      "type": "function"
    },
    {
      "constant": true,
      "inputs": [
        {
          "internalType": "uint256",
          "name": "token",
          "type": "uint256"
        }
      ],
      "name": "lowestExistingParent",
      "outputs": [
        {
          "internalType": "uint256",
          "name": "",
          "type": "uint256"
        }
      ],
      "payable": false,
      "stateMutability": "view",
      "type": "function"
    },
    {
      "constant": true,
      "inputs": [
        {
          "internalType": "uint256",
          "name": "token",
          "type": "uint256"
        },
        {
          "internalType": "address",
          "name": "claimant",
          "type": "address"
        }
      ],
      "name": "childrenClaimable",
      "outputs": [
        {
          "internalType": "bool",
          "name": "",
          "type": "bool"
        }
      ],
      "payable": false,
      "stateMutability": "view",
      "type": "function"
    },
    {
      "constant": true,
      "inputs": [
        {
          "internalType": "uint256",
          "name": "token",
          "type": "uint256"
        }
      ],
      "name": "getMinDepositToCreate",
      "outputs": [
        {
          "internalType": "uint256",
          "name": "",
          "type": "uint256"
        }
      ],
      "payable": false,
      "stateMutability": "view",
      "type": "function"
    },
    {
      "constant": true,
      "inputs": [
        {
          "internalType": "uint256",
          "name": "token",
          "type": "uint256"
        }
      ],
      "name": "exists",
      "outputs": [
        {
          "internalType": "bool",
          "name": "",
          "type": "bool"
        }
      ],
      "payable": false,
      "stateMutability": "view",
      "type": "function"
    },
    {
      "constant": false,
      "inputs": [
        {
          "internalType": "bytes32",
          "name": "hash",
          "type": "bytes32"
        },
        {
          "internalType": "uint256",
          "name": "deposit",
          "type": "uint256"
        }
      ],
      "name": "commit",
      "outputs": [],
      "payable": false,
      "stateMutability": "nonpayable",
      "type": "function"
    },
    {
      "constant": false,
      "inputs": [
        {
          "internalType": "bytes32",
          "name": "hash",
          "type": "bytes32"
        }
      ],
      "name": "cancel",
      "outputs": [],
      "payable": false,
      "stateMutability": "nonpayable",
      "type": "function"
    },
    {
      "constant": false,
      "inputs": [
        {
          "internalType": "uint256",
          "name": "token",
          "type": "uint256"
        },
        {
          "internalType": "uint256",
          "name": "nonce",
          "type": "uint256"
        }
      ],
      "name": "reveal",
      "outputs": [],
      "payable": false,
      "stateMutability": "nonpayable",
      "type": "function"
    },
    {
      "constant": false,
      "inputs": [
        {
          "internalType": "uint256",
          "name": "token",
          "type": "uint256"
        }
      ],
      "name": "release",
      "outputs": [],
      "payable": false,
      "stateMutability": "nonpayable",
      "type": "function"
    },
    {
      "constant": false,
      "inputs": [
        {
          "internalType": "uint256",
          "name": "token",
          "type": "uint256"
        },
        {
          "internalType": "bool",
          "name": "value",
          "type": "bool"
        }
      ],
      "name": "setHomesteading",
      "outputs": [],
      "payable": false,
      "stateMutability": "nonpayable",
      "type": "function"
    },
    {
      "constant": true,
      "inputs": [
        {
          "internalType": "uint256",
          "name": "token",
          "type": "uint256"
        }
      ],
      "name": "getHomesteading",
      "outputs": [
        {
          "internalType": "bool",
          "name": "",
          "type": "bool"
        }
      ],
      "payable": false,
      "stateMutability": "view",
      "type": "function"
    },
    {
      "constant": true,
      "inputs": [
        {
          "internalType": "uint256",
          "name": "token",
          "type": "uint256"
        }
      ],
      "name": "getDeposit",
      "outputs": [
        {
          "internalType": "uint256",
          "name": "",
          "type": "uint256"
        }
      ],
      "payable": false,
      "stateMutability": "view",
      "type": "function"
    },
    {
      "constant": false,
      "inputs": [
        {
          "internalType": "uint256",
          "name": "parent",
          "type": "uint256"
        },
        {
          "internalType": "uint256",
          "name": "additional_deposit",
          "type": "uint256"
        }
      ],
      "name": "subdivideLand",
      "outputs": [],
      "payable": false,
      "stateMutability": "nonpayable",
      "type": "function"
    },
    {
      "constant": false,
      "inputs": [
        {
          "internalType": "uint256",
          "name": "child1",
          "type": "uint256"
        },
        {
          "internalType": "uint256",
          "name": "child2",
          "type": "uint256"
        },
        {
          "internalType": "uint256",
          "name": "child3",
          "type": "uint256"
        },
        {
          "internalType": "uint256",
          "name": "child4",
          "type": "uint256"
        },
        {
          "internalType": "uint256",
          "name": "withdraw_deposit",
          "type": "uint256"
        }
      ],
      "name": "combineLand",
      "outputs": [],
      "payable": false,
      "stateMutability": "nonpayable",
      "type": "function"
    },
    {
      "constant": false,
      "inputs": [
        {
          "internalType": "uint256",
          "name": "new_minimum_deposit_in_atomic_units",
          "type": "uint256"
        }
      ],
      "name": "setMinimumSystemDeposit",
      "outputs": [],
      "payable": false,
      "stateMutability": "nonpayable",
      "type": "function"
    },
    {
      "constant": false,
      "inputs": [
        {
          "internalType": "uint256",
          "name": "new_commitment_min_wait_in_seconds",
          "type": "uint256"
        }
      ],
      "name": "setCommitmentMinWait",
      "outputs": [],
      "payable": false,
      "stateMutability": "nonpayable",
      "type": "function"
    },
    {
      "constant": false,
      "inputs": [
        {
          "internalType": "address",
          "name": "otherToken",
          "type": "address"
        }
      ],
      "name": "reclaimToken",
      "outputs": [],
      "payable": false,
      "stateMutability": "nonpayable",
      "type": "function"
    }
  ],
  "bytecode": "0x60806040523480156200001157600080fd5b5060405162004afe38038062004afe833981810160405260a08110156200003757600080fd5b8101908080519060200190929190805190602001909291908051906020019092919080519060200190929190805190602001909291905050506000620000826200020a60201b60201c565b9050806000806101000a81548173ffffffffffffffffffffffffffffffffffffffff021916908373ffffffffffffffffffffffffffffffffffffffff1602179055508073ffffffffffffffffffffffffffffffffffffffff16600073ffffffffffffffffffffffffffffffffffffffff167f8be0079c531659141344cd1fd0a4f28419497f9722a3daafe3b4186f6b6457e060405160405180910390a350600034146200012e57600080fd5b84600160006101000a81548173ffffffffffffffffffffffffffffffffffffffff021916908373ffffffffffffffffffffffffffffffffffffffff16021790555083600260006101000a81548173ffffffffffffffffffffffffffffffffffffffff021916908373ffffffffffffffffffffffffffffffffffffffff16021790555082600360006101000a81548173ffffffffffffffffffffffffffffffffffffffff021916908373ffffffffffffffffffffffffffffffffffffffff1602179055508160048190555080600681905550505050505062000212565b600033905090565b6148dc80620002226000396000f3fe608060405234801561001057600080fd5b506004361061018e5760003560e01c80638da5cb5b116100de578063c4d252f511610097578063f2fde38b11610071578063f2fde38b14610614578063f315966514610658578063f637cfd414610692578063fc1dcfe7146106e85761018e565b8063c4d252f514610590578063db6711e3146105be578063e900ead8146105dc5761018e565b80638da5cb5b146104725780638f32d59b146104bc5780639348cef7146104de5780639f727c27146105165780639f9fb96814610520578063b0c706f0146105625761018e565b80634948d8e51161014b578063715018a611610125578063715018a6146103a857806373cf9f83146103b2578063839df945146103f45780638954c966146104445761018e565b80634948d8e5146102ba5780634f558e791461032057806352311839146103665761018e565b80630758e2ed1461019057806317ffc320146101ae5780632aed7f3f146101f25780632ecca5b4146102365780633081be161461025457806337bdc99b1461028c575b005b61019861072e565b6040518082815260200191505060405180910390f35b6101f0600480360360208110156101c457600080fd5b81019080803573ffffffffffffffffffffffffffffffffffffffff169060200190929190505050610734565b005b6102346004803603602081101561020857600080fd5b81019080803573ffffffffffffffffffffffffffffffffffffffff1690602001909291905050506109ac565b005b61023e610acd565b6040518082815260200191505060405180910390f35b61028a6004803603604081101561026a57600080fd5b810190808035906020019092919080359060200190929190505050610ad3565b005b6102b8600480360360208110156102a257600080fd5b81019080803590602001909291905050506113ee565b005b610306600480360360408110156102d057600080fd5b8101908080359060200190929190803573ffffffffffffffffffffffffffffffffffffffff169060200190929190505050611655565b604051808215151515815260200191505060405180910390f35b61034c6004803603602081101561033657600080fd5b810190808035906020019092919050505061182f565b604051808215151515815260200191505060405180910390f35b6103926004803603602081101561037c57600080fd5b81019080803590602001909291905050506118e6565b6040518082815260200191505060405180910390f35b6103b06119e3565b005b6103de600480360360208110156103c857600080fd5b8101908080359060200190929190505050611b1c565b6040518082815260200191505060405180910390f35b6104206004803603602081101561040a57600080fd5b8101908080359060200190929190505050611c12565b60405180848152602001838152602001828152602001935050505060405180910390f35b6104706004803603602081101561045a57600080fd5b8101908080359060200190929190505050611c3c565b005b61047a611cf9565b604051808273ffffffffffffffffffffffffffffffffffffffff1673ffffffffffffffffffffffffffffffffffffffff16815260200191505060405180910390f35b6104c4611d22565b604051808215151515815260200191505060405180910390f35b610514600480360360408110156104f457600080fd5b810190808035906020019092919080359060200190929190505050611d80565b005b61051e612613565b005b61054c6004803603602081101561053657600080fd5b81019080803590602001909291905050506126dd565b6040518082815260200191505060405180910390f35b61058e6004803603602081101561057857600080fd5b81019080803590602001909291905050506127b9565b005b6105bc600480360360208110156105a657600080fd5b8101908080359060200190929190505050612876565b005b6105c6612b6a565b6040518082815260200191505060405180910390f35b610612600480360360408110156105f257600080fd5b810190808035906020019092919080359060200190929190505050612b70565b005b6106566004803603602081101561062a57600080fd5b81019080803573ffffffffffffffffffffffffffffffffffffffff169060200190929190505050612ee8565b005b6106906004803603604081101561066e57600080fd5b8101908080359060200190929190803515159060200190929190505050612f6e565b005b6106e6600480360360a08110156106a857600080fd5b810190808035906020019092919080359060200190929190803590602001909291908035906020019092919080359060200190929190505050613154565b005b610714600480360360208110156106fe57600080fd5b8101908080359060200190929190505050613bf7565b604051808215151515815260200191505060405180910390f35b60055481565b61073c611d22565b6107ae576040517f08c379a00000000000000000000000000000000000000000000000000000000081526004018080602001828103825260208152602001807f4f776e61626c653a2063616c6c6572206973206e6f7420746865206f776e657281525060200191505060405180910390fd5b600081905060008173ffffffffffffffffffffffffffffffffffffffff166370a08231306040518263ffffffff1660e01b8152600401808273ffffffffffffffffffffffffffffffffffffffff1673ffffffffffffffffffffffffffffffffffffffff16815260200191505060206040518083038186803b15801561083257600080fd5b505afa158015610846573d6000803e3d6000fd5b505050506040513d602081101561085c57600080fd5b81019080805190602001909291905050509050600360009054906101000a900473ffffffffffffffffffffffffffffffffffffffff1673ffffffffffffffffffffffffffffffffffffffff168273ffffffffffffffffffffffffffffffffffffffff1614156108dd576108da60055482613cec90919063ffffffff16565b90505b8173ffffffffffffffffffffffffffffffffffffffff1663a9059cbb610901611cf9565b836040518363ffffffff1660e01b8152600401808373ffffffffffffffffffffffffffffffffffffffff1673ffffffffffffffffffffffffffffffffffffffff16815260200182815260200192505050602060405180830381600087803b15801561096b57600080fd5b505af115801561097f573d6000803e3d6000fd5b505050506040513d602081101561099557600080fd5b810190808051906020019092919050505050505050565b6109b4611d22565b610a26576040517f08c379a00000000000000000000000000000000000000000000000000000000081526004018080602001828103825260208152602001807f4f776e61626c653a2063616c6c6572206973206e6f7420746865206f776e657281525060200191505060405180910390fd5b60008190508073ffffffffffffffffffffffffffffffffffffffff1663f2fde38b610a4f611cf9565b6040518263ffffffff1660e01b8152600401808273ffffffffffffffffffffffffffffffffffffffff1673ffffffffffffffffffffffffffffffffffffffff168152602001915050600060405180830381600087803b158015610ab157600080fd5b505af1158015610ac5573d6000803e3d6000fd5b505050505050565b60045481565b3373ffffffffffffffffffffffffffffffffffffffff16600160009054906101000a900473ffffffffffffffffffffffffffffffffffffffff1673ffffffffffffffffffffffffffffffffffffffff16636352211e846040518263ffffffff1660e01b81526004018082815260200191505060206040518083038186803b158015610b5d57600080fd5b505afa158015610b71573d6000803e3d6000fd5b505050506040513d6020811015610b8757600080fd5b810190808051906020019092919050505073ffffffffffffffffffffffffffffffffffffffff1614610c21576040517f08c379a00000000000000000000000000000000000000000000000000000000081526004018080602001828103825260148152602001807f546f6b656e206f776e6572206d69736d6174636800000000000000000000000081525060200191505060405180910390fd5b601f610c2c83613d36565b1415610ca0576040517f08c379a00000000000000000000000000000000000000000000000000000000081526004018080602001828103825260198152602001807f4c616e64206d6178696d616c6c7920737562646976696465640000000000000081525060200191505060405180910390fd5b600060086000848152602001908152602001600020600001549050610cd082600554613d4390919063ffffffff16565b600581905550600360009054906101000a900473ffffffffffffffffffffffffffffffffffffffff1673ffffffffffffffffffffffffffffffffffffffff166323b872dd3330856040518463ffffffff1660e01b8152600401808473ffffffffffffffffffffffffffffffffffffffff1673ffffffffffffffffffffffffffffffffffffffff1681526020018373ffffffffffffffffffffffffffffffffffffffff1673ffffffffffffffffffffffffffffffffffffffff1681526020018281526020019350505050602060405180830381600087803b158015610db357600080fd5b505af1158015610dc7573d6000803e3d6000fd5b505050506040513d6020811015610ddd57600080fd5b8101908080519060200190929190505050610e60576040517f08c379a00000000000000000000000000000000000000000000000000000000081526004018080602001828103825260148152602001807f4465706f736974206e6f7420617070726f76656400000000000000000000000081525060200191505060405180910390fd5b610e738282613d4390919063ffffffff16565b905060606004604051908082528060200260200182016040528015610ea75781602001602082028038833980820191505090505b50905060606004604051908082528060200260200182016040528015610edc5781602001602082028038833980820191505090505b509050600080905060008090505b6004811015610fee5760008773__MacroverseNFTUtils____________________630240446c9091846040518363ffffffff1660e01b8152600401808381526020018281526020019250505060206040518083038186803b158015610f4e57600080fd5b505af4158015610f62573d6000803e3d6000fd5b505050506040513d6020811015610f7857600080fd5b8101908080519060200190929190505050905080858381518110610f9857fe5b6020026020010181815250506000610faf826118e6565b905080858481518110610fbe57fe5b602002602001018181525050610fdd8185613d4390919063ffffffff16565b935050508080600101915050610eea565b5083811115611065576040517f08c379a00000000000000000000000000000000000000000000000000000000081526004018080602001828103825260168152602001807f4465706f736974206e6f742073756666696369656e740000000000000000000081525060200191505060405180910390fd5b600160009054906101000a900473ffffffffffffffffffffffffffffffffffffffff1673ffffffffffffffffffffffffffffffffffffffff16639dc29fac33886040518363ffffffff1660e01b8152600401808373ffffffffffffffffffffffffffffffffffffffff1673ffffffffffffffffffffffffffffffffffffffff16815260200182815260200192505050600060405180830381600087803b15801561110e57600080fd5b505af1158015611122573d6000803e3d6000fd5b50505050600860008781526020019081526020016000206000808201600090556001820160006101000a81549060ff0219169055505061116b8185613cec90919063ffffffff16565b93506000611183600486613dcb90919063ffffffff16565b9050600061119b600487613e1590919063ffffffff16565b90506111c481856000815181106111ae57fe5b6020026020010151613d4390919063ffffffff16565b846000815181106111d157fe5b60200260200101818152505060008090505b60048110156113ca57611212838683815181106111fc57fe5b6020026020010151613d4390919063ffffffff16565b85828151811061121e57fe5b602002602001018181525050604051806040016040528086838151811061124157fe5b60200260200101518152602001600015158152506008600088848151811061126557fe5b602002602001015181526020019081526020016000206000820151816000015560208201518160010160006101000a81548160ff0219169083151502179055509050508581815181106112b457fe5b6020026020010151897f0680f9477cd8a6cca55787c444e98cd63333f7a7a7248b46d202faeb6e0f3bda60405160405180910390a3600160009054906101000a900473ffffffffffffffffffffffffffffffffffffffff1673ffffffffffffffffffffffffffffffffffffffff166340c10f193388848151811061133457fe5b60200260200101516040518363ffffffff1660e01b8152600401808373ffffffffffffffffffffffffffffffffffffffff1673ffffffffffffffffffffffffffffffffffffffff16815260200182815260200192505050600060405180830381600087803b1580156113a557600080fd5b505af11580156113b9573d6000803e3d6000fd5b5050505080806001019150506111e3565b50600f600960008a8152602001908152602001600020819055505050505050505050565b600160009054906101000a900473ffffffffffffffffffffffffffffffffffffffff1673ffffffffffffffffffffffffffffffffffffffff16639dc29fac33836040518363ffffffff1660e01b8152600401808373ffffffffffffffffffffffffffffffffffffffff1673ffffffffffffffffffffffffffffffffffffffff16815260200182815260200192505050600060405180830381600087803b15801561149757600080fd5b505af11580156114ab573d6000803e3d6000fd5b505050503373ffffffffffffffffffffffffffffffffffffffff16817f32013bfacb93ebe85c135ce33c603934b756eb1e4b9d552305fbd24adec3617a60405160405180910390a36114fc81613e5f565b600060086000838152602001908152602001600020600001549050600860008381526020019081526020016000206000808201600090556001820160006101000a81549060ff0219169055505061155e81600554613cec90919063ffffffff16565b600581905550600360009054906101000a900473ffffffffffffffffffffffffffffffffffffffff1673ffffffffffffffffffffffffffffffffffffffff1663a9059cbb33836040518363ffffffff1660e01b8152600401808373ffffffffffffffffffffffffffffffffffffffff1673ffffffffffffffffffffffffffffffffffffffff16815260200182815260200192505050602060405180830381600087803b15801561160d57600080fd5b505af1158015611621573d6000803e3d6000fd5b505050506040513d602081101561163757600080fd5b810190808051906020019092919050505061165157600080fd5b5050565b6000600160009054906101000a900473ffffffffffffffffffffffffffffffffffffffff1673ffffffffffffffffffffffffffffffffffffffff16634f558e79846040518263ffffffff1660e01b81526004018082815260200191505060206040518083038186803b1580156116ca57600080fd5b505afa1580156116de573d6000803e3d6000fd5b505050506040513d60208110156116f457600080fd5b810190808051906020019092919050505061170e57600080fd5b61171783613fba565b1580156118275750600160009054906101000a900473ffffffffffffffffffffffffffffffffffffffff1673ffffffffffffffffffffffffffffffffffffffff16636352211e846040518263ffffffff1660e01b81526004018082815260200191505060206040518083038186803b15801561179257600080fd5b505afa1580156117a6573d6000803e3d6000fd5b505050506040513d60208110156117bc57600080fd5b810190808051906020019092919050505073ffffffffffffffffffffffffffffffffffffffff168273ffffffffffffffffffffffffffffffffffffffff16148061182657506008600084815260200190815260200160002060010160009054906101000a900460ff165b5b905092915050565b6000600160009054906101000a900473ffffffffffffffffffffffffffffffffffffffff1673ffffffffffffffffffffffffffffffffffffffff16634f558e79836040518263ffffffff1660e01b81526004018082815260200191505060206040518083038186803b1580156118a457600080fd5b505afa1580156118b8573d6000803e3d6000fd5b505050506040513d60208110156118ce57600080fd5b81019080805190602001909291905050509050919050565b6000806118f283613d36565b90506000811415611926577fffffffffffffffffffffffffffffffffffffffffffffffffffffffffffffffff9150506119de565b600181141561193a576004549150506119de565b600281141561196157611959600a600454613dcb90919063ffffffff16565b9150506119de565b6003811415611988576119806028600454613dcb90919063ffffffff16565b9150506119de565b60006119c261ffff801661199b86613fe2565b61ffff16146119ab5760286119ae565b600a5b60ff16600454613dcb90919063ffffffff16565b905060006119cf85614003565b90506001810182901c93505050505b919050565b6119eb611d22565b611a5d576040517f08c379a00000000000000000000000000000000000000000000000000000000081526004018080602001828103825260208152602001807f4f776e61626c653a2063616c6c6572206973206e6f7420746865206f776e657281525060200191505060405180910390fd5b600073ffffffffffffffffffffffffffffffffffffffff166000809054906101000a900473ffffffffffffffffffffffffffffffffffffffff1673ffffffffffffffffffffffffffffffffffffffff167f8be0079c531659141344cd1fd0a4f28419497f9722a3daafe3b4186f6b6457e060405160405180910390a360008060006101000a81548173ffffffffffffffffffffffffffffffffffffffff021916908373ffffffffffffffffffffffffffffffffffffffff160217905550565b600080611b2883613d36565b1415611b375760009050611c0d565b6000611b4283614034565b9050600160009054906101000a900473ffffffffffffffffffffffffffffffffffffffff1673ffffffffffffffffffffffffffffffffffffffff16634f558e79826040518263ffffffff1660e01b81526004018082815260200191505060206040518083038186803b158015611bb757600080fd5b505afa158015611bcb573d6000803e3d6000fd5b505050506040513d6020811015611be157600080fd5b810190808051906020019092919050505015611c005780915050611c0d565b611c0981611b1c565b9150505b919050565b60076020528060005260406000206000915090508060000154908060010154908060020154905083565b611c44611d22565b611cb6576040517f08c379a00000000000000000000000000000000000000000000000000000000081526004018080602001828103825260208152602001807f4f776e61626c653a2063616c6c6572206973206e6f7420746865206f776e657281525060200191505060405180910390fd5b806006819055507f3b927ec805e818a21628a75988dc3d8ad71ea01c78f849f715213c046a5d4fad6006546040518082815260200191505060405180910390a150565b60008060009054906101000a900473ffffffffffffffffffffffffffffffffffffffff16905090565b60008060009054906101000a900473ffffffffffffffffffffffffffffffffffffffff1673ffffffffffffffffffffffffffffffffffffffff16611d64614155565b73ffffffffffffffffffffffffffffffffffffffff1614905090565b60008282604051602001808381526020018281526020019250505060405160208183030381529060405280519060200120905060008133604051602001808381526020018273ffffffffffffffffffffffffffffffffffffffff1673ffffffffffffffffffffffffffffffffffffffff1660601b815260140192505050604051602081830303815290604052805190602001209050600060076000838152602001908152602001600020905082816000015414611ea5576040517f08c379a00000000000000000000000000000000000000000000000000000000081526004018080602001828103825260148152602001807f436f6d6d69746d656e74206e6f7420666f756e6400000000000000000000000081525060200191505060405180910390fd5b4260076006540282600201540111611f25576040517f08c379a00000000000000000000000000000000000000000000000000000000081526004018080602001828103825260128152602001807f436f6d6d69746d656e742065787069726564000000000000000000000000000081525060200191505060405180910390fd5b4260065482600201540110611fa2576040517f08c379a00000000000000000000000000000000000000000000000000000000081526004018080602001828103825260128152602001807f436f6d6d69746d656e7420746f6f206e6577000000000000000000000000000081525060200191505060405180910390fd5b600160009054906101000a900473ffffffffffffffffffffffffffffffffffffffff1673ffffffffffffffffffffffffffffffffffffffff16634f558e79866040518263ffffffff1660e01b81526004018082815260200191505060206040518083038186803b15801561201557600080fd5b505afa158015612029573d6000803e3d6000fd5b505050506040513d602081101561203f57600080fd5b8101908080519060200190929190505050156120c3576040517f08c379a00000000000000000000000000000000000000000000000000000000081526004018080602001828103825260148152602001807f546f6b656e20616c72656164792065786973747300000000000000000000000081525060200191505060405180910390fd5b8473__MacroverseNFTUtils____________________6328f0b3df90916040518263ffffffff1660e01b81526004018082815260200191505060206040518083038186803b15801561211457600080fd5b505af4158015612128573d6000803e3d6000fd5b505050506040513d602081101561213e57600080fd5b81019080805190602001909291905050506121c1576040517f08c379a00000000000000000000000000000000000000000000000000000000081526004018080602001828103825260158152602001807f546f6b656e2064617461206d69732d7061636b6564000000000000000000000081525060200191505060405180910390fd5b600260009054906101000a900473ffffffffffffffffffffffffffffffffffffffff1673ffffffffffffffffffffffffffffffffffffffff16634f558e79866040518263ffffffff1660e01b81526004018082815260200191505060206040518083038186803b15801561223457600080fd5b505afa158015612248573d6000803e3d6000fd5b505050506040513d602081101561225e57600080fd5b81019080805190602001909291905050506122e1576040517f08c379a000000000000000000000000000000000000000000000000000000000815260040180806020018281038252601f8152602001807f43616e6e6f7420636c61696d206e6f6e2d6578697374656e74207468696e670081525060200191505060405180910390fd5b6122ea856118e6565b81600101541015612363576040517f08c379a00000000000000000000000000000000000000000000000000000000081526004018080602001828103825260118152602001807f4465706f73697420746f6f20736d616c6c00000000000000000000000000000081525060200191505060405180910390fd5b600061236e86611b1c565b9050600081146123f5576123828133611655565b6123f4576040517f08c379a000000000000000000000000000000000000000000000000000000000815260040180806020018281038252601a8152602001807f43616e6e6f7420636c61696d206368696c6472656e206865726500000000000081525060200191505060405180910390fd5b5b6123fe86613fba565b158061241d575060006009600088815260200190815260200160002054145b612472576040517f08c379a00000000000000000000000000000000000000000000000000000000081526004018080602001828103825260278152602001806148816027913960400191505060405180910390fd5b60405180604001604052808360010154815260200160001515815250600860008881526020019081526020016000206000820151816000015560208201518160010160006101000a81548160ff0219169083151502179055509050506124d78661415d565b600760008481526020019081526020016000206000808201600090556001820160009055600282016000905550503373ffffffffffffffffffffffffffffffffffffffff1686857f7f10e24a6522bbac4d453beb2dcf75f1c54e235677b2a3d136c257f777b2bc9060405160405180910390a4600160009054906101000a900473ffffffffffffffffffffffffffffffffffffffff1673ffffffffffffffffffffffffffffffffffffffff166340c10f1933886040518363ffffffff1660e01b8152600401808373ffffffffffffffffffffffffffffffffffffffff1673ffffffffffffffffffffffffffffffffffffffff16815260200182815260200192505050600060405180830381600087803b1580156125f357600080fd5b505af1158015612607573d6000803e3d6000fd5b50505050505050505050565b61261b611d22565b61268d576040517f08c379a00000000000000000000000000000000000000000000000000000000081526004018080602001828103825260208152602001807f4f776e61626c653a2063616c6c6572206973206e6f7420746865206f776e657281525060200191505060405180910390fd5b612695611cf9565b73ffffffffffffffffffffffffffffffffffffffff166108fc479081150290604051600060405180830381858888f193505050501580156126da573d6000803e3d6000fd5b50565b6000600160009054906101000a900473ffffffffffffffffffffffffffffffffffffffff1673ffffffffffffffffffffffffffffffffffffffff16634f558e79836040518263ffffffff1660e01b81526004018082815260200191505060206040518083038186803b15801561275257600080fd5b505afa158015612766573d6000803e3d6000fd5b505050506040513d602081101561277c57600080fd5b810190808051906020019092919050505061279a57600090506127b4565b600860008381526020019081526020016000206000015490505b919050565b6127c1611d22565b612833576040517f08c379a00000000000000000000000000000000000000000000000000000000081526004018080602001828103825260208152602001807f4f776e61626c653a2063616c6c6572206973206e6f7420746865206f776e657281525060200191505060405180910390fd5b806004819055507f6202478fec10331b8abbcf1169a16c03e315dc45d28669598f271b131a023a286004546040518082815260200191505060405180910390a150565b6000801b8114156128ef576040517f08c379a00000000000000000000000000000000000000000000000000000000081526004018080602001828103825260148152602001807f5a65726f20686173682070726f6869626974656400000000000000000000000081525060200191505060405180910390fd5b60008133604051602001808381526020018273ffffffffffffffffffffffffffffffffffffffff1673ffffffffffffffffffffffffffffffffffffffff1660601b8152601401925050506040516020818303038152906040528051906020012090506000600760008381526020019081526020016000209050828160000154146129e1576040517f08c379a00000000000000000000000000000000000000000000000000000000081526004018080602001828103825260148152602001807f436f6d6d69746d656e74206e6f7420666f756e6400000000000000000000000081525060200191505060405180910390fd5b60008160010154905060076000848152602001908152602001600020600080820160009055600182016000905560028201600090555050612a2d81600554613cec90919063ffffffff16565b600581905550600360009054906101000a900473ffffffffffffffffffffffffffffffffffffffff1673ffffffffffffffffffffffffffffffffffffffff1663a9059cbb33836040518363ffffffff1660e01b8152600401808373ffffffffffffffffffffffffffffffffffffffff1673ffffffffffffffffffffffffffffffffffffffff16815260200182815260200192505050602060405180830381600087803b158015612adc57600080fd5b505af1158015612af0573d6000803e3d6000fd5b505050506040513d6020811015612b0657600080fd5b8101908080519060200190929190505050612b2057600080fd5b3373ffffffffffffffffffffffffffffffffffffffff16847f383447dfd40b32b73af346d8a498d4f50e93188330a1901d6c2add893d520e3260405160405180910390a350505050565b60065481565b6000801b821415612be9576040517f08c379a00000000000000000000000000000000000000000000000000000000081526004018080602001828103825260148152602001807f5a65726f20686173682070726f6869626974656400000000000000000000000081525060200191505060405180910390fd5b612bfe81600554613d4390919063ffffffff16565b600581905550600360009054906101000a900473ffffffffffffffffffffffffffffffffffffffff1673ffffffffffffffffffffffffffffffffffffffff166323b872dd3330846040518463ffffffff1660e01b8152600401808473ffffffffffffffffffffffffffffffffffffffff1673ffffffffffffffffffffffffffffffffffffffff1681526020018373ffffffffffffffffffffffffffffffffffffffff1673ffffffffffffffffffffffffffffffffffffffff1681526020018281526020019350505050602060405180830381600087803b158015612ce157600080fd5b505af1158015612cf5573d6000803e3d6000fd5b505050506040513d6020811015612d0b57600080fd5b8101908080519060200190929190505050612d8e576040517f08c379a00000000000000000000000000000000000000000000000000000000081526004018080602001828103825260148152602001807f4465706f736974206e6f7420617070726f76656400000000000000000000000081525060200191505060405180910390fd5b60008233604051602001808381526020018273ffffffffffffffffffffffffffffffffffffffff1673ffffffffffffffffffffffffffffffffffffffff1660601b81526014019250505060405160208183030381529060405280519060200120905060006007600083815260200190815260200160002090506000801b816000015414612e83576040517f08c379a000000000000000000000000000000000000000000000000000000000815260040180806020018281038252601f8152602001807f4475706c696361746520636f6d6d69746d656e742070726f686962697465640081525060200191505060405180910390fd5b8381600001819055508281600101819055504281600201819055503373ffffffffffffffffffffffffffffffffffffffff16847f06993d49ee122769a3c0ef60e9862b93d411b169b222fac05276d82abf11c9e760405160405180910390a350505050565b612ef0611d22565b612f62576040517f08c379a00000000000000000000000000000000000000000000000000000000081526004018080602001828103825260208152602001807f4f776e61626c653a2063616c6c6572206973206e6f7420746865206f776e657281525060200191505060405180910390fd5b612f6b816141ef565b50565b3373ffffffffffffffffffffffffffffffffffffffff16600160009054906101000a900473ffffffffffffffffffffffffffffffffffffffff1673ffffffffffffffffffffffffffffffffffffffff16636352211e846040518263ffffffff1660e01b81526004018082815260200191505060206040518083038186803b158015612ff857600080fd5b505afa15801561300c573d6000803e3d6000fd5b505050506040513d602081101561302257600080fd5b810190808051906020019092919050505073ffffffffffffffffffffffffffffffffffffffff16146130bc576040517f08c379a00000000000000000000000000000000000000000000000000000000081526004018080602001828103825260148152602001807f546f6b656e206f776e6572206d69736d6174636800000000000000000000000081525060200191505060405180910390fd5b6130c582613fba565b156130cf57600080fd5b60006008600084815260200190815260200160002090508115158160010160009054906101000a900460ff1615151461314f57818160010160006101000a81548160ff021916908315150217905550811515837f0da0a9bb596ddd85dfa72c9cbcfe8816ed96436e9efc8862a9e861183a274c1060405160405180910390a35b505050565b61315c614838565b6040518060800160405280878152602001868152602001858152602001848152509050600080905060008090505b6004811015613339573373ffffffffffffffffffffffffffffffffffffffff16600160009054906101000a900473ffffffffffffffffffffffffffffffffffffffff1673ffffffffffffffffffffffffffffffffffffffff16636352211e8584600481106131f457fe5b60200201516040518263ffffffff1660e01b81526004018082815260200191505060206040518083038186803b15801561322d57600080fd5b505afa158015613241573d6000803e3d6000fd5b505050506040513d602081101561325757600080fd5b810190808051906020019092919050505073ffffffffffffffffffffffffffffffffffffffff16146132f1576040517f08c379a00000000000000000000000000000000000000000000000000000000081526004018080602001828103825260148152602001807f546f6b656e206f776e6572206d69736d6174636800000000000000000000000081525060200191505060405180910390fd5b61332a6008600085846004811061330457fe5b602002015181526020019081526020016000206000015483613d4390919063ffffffff16565b9150808060010191505061318a565b508160016004811061334757fe5b60200201518260006004811061335957fe5b602002015114156133d2576040517f08c379a00000000000000000000000000000000000000000000000000000000081526004018080602001828103825260158152602001807f4368696c6472656e206e6f742064697374696e6374000000000000000000000081525060200191505060405180910390fd5b816002600481106133df57fe5b6020020151826000600481106133f157fe5b6020020151141561346a576040517f08c379a00000000000000000000000000000000000000000000000000000000081526004018080602001828103825260158152602001807f4368696c6472656e206e6f742064697374696e6374000000000000000000000081525060200191505060405180910390fd5b8160036004811061347757fe5b60200201518260006004811061348957fe5b60200201511415613502576040517f08c379a00000000000000000000000000000000000000000000000000000000081526004018080602001828103825260158152602001807f4368696c6472656e206e6f742064697374696e6374000000000000000000000081525060200191505060405180910390fd5b8160026004811061350f57fe5b60200201518260016004811061352157fe5b6020020151141561359a576040517f08c379a00000000000000000000000000000000000000000000000000000000081526004018080602001828103825260158152602001807f4368696c6472656e206e6f742064697374696e6374000000000000000000000081525060200191505060405180910390fd5b816003600481106135a757fe5b6020020151826001600481106135b957fe5b60200201511415613632576040517f08c379a00000000000000000000000000000000000000000000000000000000081526004018080602001828103825260158152602001807f4368696c6472656e206e6f742064697374696e6374000000000000000000000081525060200191505060405180910390fd5b8160036004811061363f57fe5b60200201518260026004811061365157fe5b602002015114156136ca576040517f08c379a00000000000000000000000000000000000000000000000000000000081526004018080602001828103825260158152602001807f4368696c6472656e206e6f742064697374696e6374000000000000000000000081525060200191505060405180910390fd5b60006136e6836000600481106136dc57fe5b6020020151614034565b90506000600190505b6004811015613792578161371285836004811061370857fe5b6020020151614034565b14613785576040517f08c379a00000000000000000000000000000000000000000000000000000000081526004018080602001828103825260118152602001807f506172656e74206e6f742073686172656400000000000000000000000000000081525060200191505060405180910390fd5b80806001019150506136ef565b5061379c81613fba565b6137a557600080fd5b60006137ba8584613cec90919063ffffffff16565b90506000851115613844576137ce826118e6565b811015613843576040517f08c379a00000000000000000000000000000000000000000000000000000000081526004018080602001828103825260168152602001807f4465706f736974206e6f742073756666696369656e740000000000000000000081525060200191505060405180910390fd5b5b60008090505b60048110156139b157600160009054906101000a900473ffffffffffffffffffffffffffffffffffffffff1673ffffffffffffffffffffffffffffffffffffffff16639dc29fac3387846004811061389e57fe5b60200201516040518363ffffffff1660e01b8152600401808373ffffffffffffffffffffffffffffffffffffffff1673ffffffffffffffffffffffffffffffffffffffff16815260200182815260200192505050600060405180830381600087803b15801561390c57600080fd5b505af1158015613920573d6000803e3d6000fd5b505050506008600086836004811061393457fe5b602002015181526020019081526020016000206000808201600090556001820160006101000a81549060ff021916905550508285826004811061397357fe5b60200201517f0680f9477cd8a6cca55787c444e98cd63333f7a7a7248b46d202faeb6e0f3bda60405160405180910390a3808060010191505061384a565b50604051806040016040528082815260200160001515815250600860008481526020019081526020016000206000820151816000015560208201518160010160006101000a81548160ff021916908315150217905550905050600160009054906101000a900473ffffffffffffffffffffffffffffffffffffffff1673ffffffffffffffffffffffffffffffffffffffff166340c10f1933846040518363ffffffff1660e01b8152600401808373ffffffffffffffffffffffffffffffffffffffff1673ffffffffffffffffffffffffffffffffffffffff16815260200182815260200192505050600060405180830381600087803b158015613ab357600080fd5b505af1158015613ac7573d6000803e3d6000fd5b5050505060006009600084815260200190815260200160002081905550613af985600554613cec90919063ffffffff16565b600581905550600360009054906101000a900473ffffffffffffffffffffffffffffffffffffffff1673ffffffffffffffffffffffffffffffffffffffff1663a9059cbb33876040518363ffffffff1660e01b8152600401808373ffffffffffffffffffffffffffffffffffffffff1673ffffffffffffffffffffffffffffffffffffffff16815260200182815260200192505050602060405180830381600087803b158015613ba857600080fd5b505af1158015613bbc573d6000803e3d6000fd5b505050506040513d6020811015613bd257600080fd5b8101908080519060200190929190505050613bec57600080fd5b505050505050505050565b6000600160009054906101000a900473ffffffffffffffffffffffffffffffffffffffff1673ffffffffffffffffffffffffffffffffffffffff16634f558e79836040518263ffffffff1660e01b81526004018082815260200191505060206040518083038186803b158015613c6c57600080fd5b505afa158015613c80573d6000803e3d6000fd5b505050506040513d6020811015613c9657600080fd5b81019080805190602001909291905050508015613cb95750613cb782613fba565b155b8015613ce557506008600083815260200190815260200160002060010160009054906101000a900460ff165b9050919050565b6000613d2e83836040518060400160405280601e81526020017f536166654d6174683a207375627472616374696f6e206f766572666c6f770000815250614333565b905092915050565b6000601f82169050919050565b600080828401905083811015613dc1576040517f08c379a000000000000000000000000000000000000000000000000000000000815260040180806020018281038252601b8152602001807f536166654d6174683a206164646974696f6e206f766572666c6f77000000000081525060200191505060405180910390fd5b8091505092915050565b6000613e0d83836040518060400160405280601a81526020017f536166654d6174683a206469766973696f6e206279207a65726f0000000000008152506143f3565b905092915050565b6000613e5783836040518060400160405280601881526020017f536166654d6174683a206d6f64756c6f206279207a65726f00000000000000008152506144b9565b905092915050565b6000613e6a82613d36565b1415613e7557613fb7565b600060096000838152602001908152602001600020541415613fb6576000613e9c82614034565b90506000613ea98361457a565b9050600060096000848152602001908152602001600020549050613ecd8183614639565b15613fb257613ede81836000614653565b6009600085815260200190815260200160002081905550600160009054906101000a900473ffffffffffffffffffffffffffffffffffffffff1673ffffffffffffffffffffffffffffffffffffffff16634f558e79846040518263ffffffff1660e01b81526004018082815260200191505060206040518083038186803b158015613f6857600080fd5b505afa158015613f7c573d6000803e3d6000fd5b505050506040513d6020811015613f9257600080fd5b8101908080519060200190929190505050613fb157613fb083613e5f565b5b5b5050505b5b50565b600080613fc683613d36565b905060048110158015613fda5750601f8111155b915050919050565b6000613ffc8260108060108060106005010101010161467d565b9050919050565b60008061400f83613d36565b9050600481101561402457600091505061402f565b600160048203019150505b919050565b60008061404083613d36565b9050600081141561404d57fe5b60018114156140735761406b61406484600061468e565b60006146ac565b915050614150565b60028114156140995761409161408a8460006146c8565b60016146ac565b915050614150565b60038114156140bf576140b76140b08460006146e8565b60026146ac565b915050614150565b60048114156141265761ffff80166140d684613fe2565b61ffff161415614108576141006140f96140f28560008061470b565b60006146e8565b60026146ac565b915050614150565b61411e6141178460008061470b565b60026146ac565b915050614150565b6000600161413385614003565b03905061414b6141458583600061470b565b82614771565b925050505b919050565b600033905090565b600061416882613d36565b1415614173576141ec565b600061417e82614034565b9050600061418b8361457a565b90506000600960008481526020019081526020016000205490506141af8183614639565b156141bc575050506141ec565b6141c881836001614653565b60096000858152602001908152602001600020819055506141e88361415d565b5050505b50565b600073ffffffffffffffffffffffffffffffffffffffff168173ffffffffffffffffffffffffffffffffffffffff161415614275576040517f08c379a000000000000000000000000000000000000000000000000000000000815260040180806020018281038252602681526020018061485b6026913960400191505060405180910390fd5b8073ffffffffffffffffffffffffffffffffffffffff166000809054906101000a900473ffffffffffffffffffffffffffffffffffffffff1673ffffffffffffffffffffffffffffffffffffffff167f8be0079c531659141344cd1fd0a4f28419497f9722a3daafe3b4186f6b6457e060405160405180910390a3806000806101000a81548173ffffffffffffffffffffffffffffffffffffffff021916908373ffffffffffffffffffffffffffffffffffffffff16021790555050565b60008383111582906143e0576040517f08c379a00000000000000000000000000000000000000000000000000000000081526004018080602001828103825283818151815260200191508051906020019080838360005b838110156143a557808201518184015260208101905061438a565b50505050905090810190601f1680156143d25780820380516001836020036101000a031916815260200191505b509250505060405180910390fd5b5060008385039050809150509392505050565b6000808311829061449f576040517f08c379a00000000000000000000000000000000000000000000000000000000081526004018080602001828103825283818151815260200191508051906020019080838360005b83811015614464578082015181840152602081019050614449565b50505050905090810190601f1680156144915780820380516001836020036101000a031916815260200191505b509250505060405180910390fd5b5060008385816144ab57fe5b049050809150509392505050565b6000808314158290614566576040517f08c379a00000000000000000000000000000000000000000000000000000000081526004018080602001828103825283818151815260200191508051906020019080838360005b8381101561452b578082015181840152602081019050614510565b50505050905090810190601f1680156145585780820380516001836020036101000a031916815260200191505b509250505060405180910390fd5b5082848161457057fe5b0690509392505050565b60008061458683613d36565b9050600081141561459357fe5b60018114156145b1576145a5836147a5565b61ffff16915050614634565b60028114156145cf576145c3836147c1565b61ffff16915050614634565b60038114156145f05760086145e384613fe2565b61ffff1601915050614634565b600481101580156146025750601f8111155b1561462a576000600161461485614003565b03905061462184826147df565b92505050614634565b600061463257fe5b505b919050565b600080826001901b90506000818516141591505092915050565b600080836001901b9050821561466e57808517915050614676565b801985169150505b9392505050565b60008160ff1683901c905092915050565b60006146a4836010806010600501010184614815565b905092915050565b6000601f8211156146b957fe5b81601f19841617905092915050565b60006146e08360108060108060050101010184614815565b905092915050565b60006147038360108060108060106005010101010184614815565b905092915050565b6000601b831061471757fe5b600083141561472f576008821061472a57fe5b61473a565b6004821061473957fe5b5b600083600360ff1602601080601080601080600501010101010160ff160190508083901b816007901b198616179150509392505050565b600080821161477c57fe5b601b82111561478757fe5b600060018360040103905061479c84826146ac565b91505092915050565b60006147ba826010806010600501010161467d565b9050919050565b60006147d88260108060108060050101010161467d565b9050919050565b6000601b82106147eb57fe5b600782600360ff1602601080601080601080600501010101010160ff160184901c16905092915050565b60008260ff168261ffff16901b8360ff1661ffff901b1985161790509392505050565b604051806080016040528060049060208202803883398082019150509050509056fe4f776e61626c653a206e6577206f776e657220697320746865207a65726f206164647265737343616e6e6f7420636c61696d206c616e64207769746820636c61696d656420737562706c6f7473a265627a7a7231582032eb4ba249a0a0fe9c1ffa187ed3d4e77342546c85335d6d532f03e6d80daac264736f6c634300050e0032",
  "source": "pragma solidity ^0.5.2;\n\nimport \"openzeppelin-solidity/contracts/ownership/Ownable.sol\";\nimport \"./HasNoEther.sol\";\nimport \"./HasNoContracts.sol\";\nimport \"openzeppelin-solidity/contracts/token/ERC20/IERC20.sol\";\n\nimport \"openzeppelin-solidity/contracts/math/SafeMath.sol\";\n\nimport \"./MacroverseNFTUtils.sol\";\nimport \"./MacroverseExistenceChecker.sol\";\nimport \"./MacroverseRealEstate.sol\";\n\n/**\n * The MacroverseUniversalRegistry manages the creation and Macroverse-specific\n * manipulation of non-fungible tokens (NFTs) representing virtual real estate,\n * which are tracked by the MacroverseRealEstate contract.\n *\n * Ownership is based on a claim system, where unowned objects can be claimed\n * by people by putting up a deposit in MRV. The MRV deposit is returned when\n * the owner releases their claim on the corresponding object.\n *\n * The claim system is protected against front-running by a commit/reveal\n * system with a mandatory waiting period. You first commit to the claim you\n * want to make, by putting up the deposit and publishing a hash. After a\n * certain mandatory waiting period, you can reveal what it is you are trying\n * to claim, and actually take ownership of the object.\n *\n * The first person to reveal wins in case two or more people try to claim the\n * same object, or if they try to claim things that are\n * parents/children/overlapping in such a way that the claims conflict. Since\n * there's a mandatory waiting period between the commit and reveal, and since\n * a malicious front-runner cannot commit until they see a reveal they are\n * trying to front-run, then as long as malicious front-runners cannot keep\n * transactions off the chain for the duration of the mandatory wait period,\n * then they can't steal things other people are trying to claim.\n *\n * It's still possible for an organic conflict to end up getting resolved in\n * favor of whoever is willing to pay more for gas, or for people to leave many\n * un-revealed claims and grief people by revealing them when someone else\n * tries to claim the same objects.\n *\n * To further mitigate griefing, committed claims will expire after a while if\n * not revealed.\n *\n * Revealing requires demonstrating that the Macroverse object being claimed\n * actually exists, and so claiming can only be done by people who can pass the\n * Macroverse generator's AccessControl checks.\n *\n * Note that ownership of a star system does not necessarily imply ownership of\n * everything in it. Just as one person can own a condo in another person's\n * building, one person can own a planet in another person's star system.\n * Non-containment of different ownership claims is only enforced for claims of\n * land on planets and moons.\n *\n * The surface of a world is subdivided using a Hierarchical Triangular Mesh\n * approach, as described in <http://www.skyserver.org/HTM/> and in\n * <https://www.microsoft.com/en-us/research/wp-content/uploads/2005/09/tr-2005-123.pdf>\n * \"Indexing the Sphere with the Hierarchical Triangular Mesh\". At the top\n * level, the surface of a world is an octahedron of equilateral triangles.\n * Each triangle is then recursively subdivided into 4 children by inscribing\n * another equilateral triangle between the center points of its edges. Each\n * HTM \"trixel\" is a plot of virtual real estate that can be claimed. Land\n * trixels can be subdivided and merged, and ownership of a trixel implies\n * ownership of all contained trixels, because this logic can be done without\n * any reference to the AccessControl-protected Macroverse generator logic.\n *\n * The mapping from systems, planets, moons, and land trixels to token ID\n * numbers is defined in the MacroverseNFTUtils library.\n *\n * \"Planets\" which are asteroid belts and \"moons\" which are ring systems also\n * are subdivided into 8 triangles, and then recursively into nested sets of 4\n * sub-triangles. However, the initial 8 triangles are defined as wedges, with\n * the points at the central body and with the outer edges being curved. They\n * are numbered prograde, with the division from 0 to 7 corresponding to the\n * object's notional position, computed as if it were a point body with the\n * same orbital parameters. Note that this means that some ownership claims do\n * not actually overlap the orbital range (and thus do not contain anything),\n * and that any actual particles would move relative to the positions of the\n * claims over time, depending on their actual orbits. \n *\n * At the astronomical level (stars, planets, moons), tokens can be issued\n * for the children of things already claimed, if the lowest owned parent token\n * has homesteading enabled.  At the land level, only one token can cover\n * a given point at a given time, but plots can be subdivided and merged\n * according to the trixel structure.\n *\n * Internally, bookkeeping data is kept to allow the tree of all issued tokens\n * to be traversed. All issued tokens exist in the tree, as well as the\n * internal nodes of the token hierarchy necessary to connect them. The\n * presence of child nodes in the tree is tracked using a bitmap for each node.\n *\n * The deployer of this contract reserves the right to supersede it with a new\n * version at any time, for any reason, and without notice. The deployer of\n * this contract reserves the right to leave it in place as is indefinitely.\n *\n * The deployer of this contract reserves the right to claim and keep any\n * tokens or ETH or contracts sent to this contract, in excess of the MRV\n * balance that this contract thinks it is supposed to have.\n */\ncontract MacroverseUniversalRegistry is Ownable, HasNoEther, HasNoContracts {\n\n    using SafeMath for uint256;\n    using MacroverseNFTUtils for uint256;\n\n    // These constants are shared with the TokenUtils library\n\n    // Define the types of tokens that can exist\n    uint256 constant TOKEN_TYPE_SECTOR = 0;\n    uint256 constant TOKEN_TYPE_SYSTEM = 1;\n    uint256 constant TOKEN_TYPE_PLANET = 2;\n    uint256 constant TOKEN_TYPE_MOON = 3;\n    // Land tokens are a range of type field values.\n    // Land tokens of the min type use one trixel field\n    uint256 constant TOKEN_TYPE_LAND_MIN = 4;\n    uint256 constant TOKEN_TYPE_LAND_MAX = 31;\n\n    // Define the packing format\n    uint8 constant TOKEN_SECTOR_X_SHIFT = 5;\n    uint8 constant TOKEN_SECTOR_X_BITS = 16;\n    uint8 constant TOKEN_SECTOR_Y_SHIFT = TOKEN_SECTOR_X_SHIFT + TOKEN_SECTOR_X_BITS;\n    uint8 constant TOKEN_SECTOR_Y_BITS = 16;\n    uint8 constant TOKEN_SECTOR_Z_SHIFT = TOKEN_SECTOR_Y_SHIFT + TOKEN_SECTOR_Y_BITS;\n    uint8 constant TOKEN_SECTOR_Z_BITS = 16;\n    uint8 constant TOKEN_SYSTEM_SHIFT = TOKEN_SECTOR_Z_SHIFT + TOKEN_SECTOR_Z_BITS;\n    uint8 constant TOKEN_SYSTEM_BITS = 16;\n    uint8 constant TOKEN_PLANET_SHIFT = TOKEN_SYSTEM_SHIFT + TOKEN_SYSTEM_BITS;\n    uint8 constant TOKEN_PLANET_BITS = 16;\n    uint8 constant TOKEN_MOON_SHIFT = TOKEN_PLANET_SHIFT + TOKEN_PLANET_BITS;\n    uint8 constant TOKEN_MOON_BITS = 16;\n    uint8 constant TOKEN_TRIXEL_SHIFT = TOKEN_MOON_SHIFT + TOKEN_MOON_BITS;\n    uint8 constant TOKEN_TRIXEL_EACH_BITS = 3;\n\n    // How many trixel fields are there\n    uint256 constant TOKEN_TRIXEL_FIELD_COUNT = 27;\n\n    // How many children does a trixel have?\n    uint256 constant CHILDREN_PER_TRIXEL = 4;\n    // And how many top level trixels does a world have?\n    uint256 constant TOP_TRIXELS = 8;\n\n    // We keep a bit mask of the high bits of all but the least specific trixel.\n    // None of these may be set in a valid token.\n    // We rely on it being left-shifted TOKEN_TRIXEL_SHIFT bits before being applied.\n    // Note that this has 26 1s, with one every 3 bits, except the last 3 bits are 0.\n    uint256 constant TOKEN_TRIXEL_HIGH_BIT_MASK = 0x124924924924924924920;\n\n    // Sentinel for no moon used (for land on a planet)\n    uint16 constant MOON_NONE = 0xFFFF; \n\n    //////////////\n    // Events for the commit/reveal system\n    //////////////\n\n    // Note that in addition to these special events, transfers to/from 0 are\n    // fired as tokens are created and destroyed.\n\n    /// Fired when an owner makes a commitment. Includes the commitment hash of token, nonce.\n    event Commit(bytes32 indexed hash, address indexed owner);\n    /// Fired when a commitment is successfully revealed and the token issued.\n    event Reveal(bytes32 indexed hash, uint256 indexed token, address indexed owner);\n    /// Fired when a commitment is canceled without being revealed.\n    event Cancel(bytes32 indexed hash, address indexed owner);\n\n    /// Fired when a token is released to be claimed by others.\n    /// Use this instead of transfers to 0, because those also happen when subdividing/merging land.\n    event Release(uint256 indexed token, address indexed former_owner);\n\n    /// Fired when homesteading under a token is enabled or disabled.\n    /// Not fired when the token is issued; it starts disabled.\n    event Homesteading(uint256 indexed token, bool indexed value);\n    /// Fired when a parcel of land is split out of another\n    /// Gets emitted once per child.\n    event LandSplit(uint256 indexed parent, uint256 indexed child);\n    /// Fired when a parcel of land is merged into another.\n    /// Gets emitted once per child.\n    event LandMerge(uint256 indexed child, uint256 indexed parent);\n\n    /// Fired when the deposit scale for the registry is updated by the administrator.\n    event DepositScaleChange(uint256 new_min_system_deposit_in_atomic_units);\n    /// Fired when the commitment min wait time is updated by the administrator.\n    event CommitmentMinWaitChange(uint256 new_commitment_min_wait_in_seconds);\n\n    //////////////\n    // Contract state\n    //////////////\n\n    // This is the backend contract that actually has the machinery to track token ownership\n    MacroverseRealEstate backend;\n\n    /// This is the contract we check virtual real estate existence against;\n    MacroverseExistenceChecker existenceChecker;\n\n    /// This is the token in which ownership deposits have to be paid.\n    IERC20 private depositTokenContract;\n    /// This is the minimum ownership deposit in atomic token units.\n    uint public minSystemDepositInAtomicUnits;\n    \n    /// This tracks how much of the deposit token the contract is supposed to have.\n    /// If it ends up with extra (because someone incorrectly used transfer() instead of approve()), the owner can remove it.\n    uint public expectedDepositBalance;\n\n    /// How long should a commitment be required to sit before it can be revealed, in Ethereum time?\n    /// This is also the maximum delay that we can let a bad actor keep good transactions off the chain, in our front-running security model.\n    uint public commitmentMinWait;\n\n    /// How long should a commitment be allowed to sit un-revealed before it becomes invalid and can only be canceled?\n    /// This protects against unrevealed commitments being used as griefing traps.\n    /// This is a multiple of the min wait.\n    uint constant COMMITMENT_MAX_WAIT_FACTOR = 7;\n\n    /// A Commitment represents an outstanding attempt to claim a deed.\n    /// It also needs to be referenced to look up the deposit associated with an owned token when the token is destroyed.\n    /// It is identified by a \"key\", which is the hash of the committing hash and the owner address.\n    /// This is the mapping key under which it is stored.\n    /// We don't need to store the owner because the mapping key hash binds the commitment to the owner.\n    struct Commitment {\n        // Hash (keccak256) of the token we want to claim and a uint256 nonce to be revealed with it.\n        bytes32 hash;        \n        // Number of atomic token units deposited with the commitment\n        uint256 deposit;\n        // Time number at which the commitment was created.\n        uint256 creationTime;\n    }\n    \n    /// This is all the commitments that are currently outstanding.\n    /// The mapping key is keccak256(hash, owner address).\n    /// When they are revealed or canceled, they are deleted from the map.\n    mapping(bytes32 => Commitment) public commitments;\n\n    /// Tokens have some configuration info to them, beyond what the base ERC721 implementation tracks.\n    struct TokenConfig {\n        /// This holds the deposit amount associated with the token, which will be released when the token is unclaimed.\n        uint256 deposit;\n        /// True if the token allows homesteading (i.e. the claiming of child tokens by others)\n        bool homesteading;\n    }\n\n    /// This holds the TokenConfig for each token\n    mapping(uint256 => TokenConfig) tokenConfigs;\n\n    /// This maps from each hierarchical bit-packed keypath entry to a bitmap of\n    /// which of its direct children have deed tokens issued at or under them.\n    /// If all the bits would be 0, an entry need not exist (which is the\n    /// Solidity mapping default behavior).\n    mapping (uint256 => uint256) internal childTree;\n\n    /**\n     * Deploy a new copy of the Macroverse Universal Registry.\n     * The given existence checker will be used to check object existence.\n     * The given token will be used to pay deposits, and the given minimum\n     * deposit size will be required to claim a star system.\n     * Other deposit sizes will be calculated from that.\n     * The given min wait time will be the required time you must wait after committing before revealing.\n     */\n    constructor(address backend_address, address existence_checker_address, address deposit_token_address,\n        uint initial_min_system_deposit_in_atomic_units, uint commitment_min_wait) public {\n        // We can only use one backend for the lifetime of the contract, and we have to own it before it will work.\n        backend = MacroverseRealEstate(backend_address);\n        // We can only use one existence checker for the lifetime of the contract.\n        existenceChecker = MacroverseExistenceChecker(existence_checker_address);\n        // We can only use one token for the lifetime of the contract.\n        depositTokenContract = IERC20(deposit_token_address);\n        // But the minimum deposit for new claims can change\n        minSystemDepositInAtomicUnits = initial_min_system_deposit_in_atomic_units;\n        // Set the wait time\n        commitmentMinWait = commitment_min_wait;\n    }\n\n    //////////////\n    // Child tree functions\n    //////////////\n\n    // First we need some bit utilities\n\n    /**\n     * Set the value of a bit by index in a uint256.\n     * Bits are counted from the LSB left.\n     */\n    function setBit(uint256 bitmap, uint256 index, bool value) internal pure returns (uint256) {\n        uint256 bit = 0x1 << index;\n        if (value) {\n            // Set it\n            return bitmap | bit;\n        } else {\n            // Clear it\n            return bitmap & (~bit);\n        }\n    }\n\n    /**\n     * Get the value of a bit by index in a uint256.\n     * Bits are counted from the LSB left.\n     */\n    function getBit(uint256 bitmap, uint256 index) internal pure returns (bool) {\n        uint256 bit = 0x1 << index;\n        return (bitmap & bit != 0);\n    }\n\n    /**\n     * Register a token/internal node and all parents as having an extant token\n     * present under them in the child tree.\n     */\n    function addChildToTree(uint256 token) internal {\n        \n        if (token.getTokenType() == TOKEN_TYPE_SECTOR) {\n            // No parent exists; we're a tree root.\n            return;\n        }\n\n        // Find the parent\n        uint256 parent = token.parentOfToken();\n\n        // Find what child index we are of the parent\n        uint256 child_index = token.childIndexOfToken();\n        \n        // Get the parent's child tree entry\n        uint256 bitmap = childTree[parent];\n\n        if (getBit(bitmap, child_index)) {\n            // Stop if the correct bit is set already\n            return;\n            // TODO: reuse the mask for the bit?\n        }\n\n        // Set the correct bit if unset\n        childTree[parent] = setBit(bitmap, child_index, true);\n\n        // Continue until we hit the top of the tree\n        addChildToTree(parent);\n    }\n\n    /**\n     * Record in the child tree that a token no longer exists. Also handles\n     * cleanup of internal nodes that now have no children.\n     */\n    function removeChildFromTree(uint256 token) internal {\n\n        if (token.getTokenType() == TOKEN_TYPE_SECTOR) {\n            // No parent exists; we're a tree root.\n            return;\n        }\n\n        // See if we have any children that still exist\n        if (childTree[token] == 0) {\n            // We are not an existing token ourselves, and we have no existing children.\n\n            // Find the parent\n            uint256 parent = token.parentOfToken();\n\n            // Find what child index we are of the parent\n            uint256 child_index = token.childIndexOfToken();\n            \n            // Getmthe parent's child tree entry\n            uint256 bitmap = childTree[parent];\n\n            if (getBit(bitmap, child_index)) {\n                // Our bit in our immediate parent is set.\n\n                // Clear it\n                childTree[parent] = setBit(bitmap, child_index, false);\n\n                if (!backend.exists(parent)) {\n                    // Recurse up to maybe clean up the parent, if we were the\n                    // last child and the parent doesn't exist as a token\n                    // itself.\n                    removeChildFromTree(parent);\n                }\n            }\n        }\n    }\n\n    //////////////\n    // State-aware token utility functions\n    //////////////\n\n    /**\n     * Get the lowest-in-the-hierarchy token that exists (is owned).\n     * Returns a 0-value sentinel if no parent token exists.\n     */\n    function lowestExistingParent(uint256 token) public view returns (uint256) {\n        if (token.getTokenType() == TOKEN_TYPE_SECTOR) {\n            // No parent exists, and we can't exist.\n            return 0;\n        }\n\n        uint256 parent = token.parentOfToken();\n\n        if (backend.exists(parent)) {\n            // We found a token that really exists\n            return parent;\n        }\n\n        // Otherwise, recurse on the parent\n        return lowestExistingParent(parent);\n\n        // Recursion depth is limited to a reasonable maximum by the maximum\n        // depth of the land hierarchy.\n    }\n\n    /**\n     * Returns true if direct children of the given token can be claimed by the given claimant.\n     * Children of land tokens can never be claimed (the plot must be subdivided).\n     * Children of system/planet/moon tokens can only be claimed if the claimer owns them or the owner allows homesteading.\n     */\n    function childrenClaimable(uint256 token, address claimant) public view returns (bool) {\n        require(backend.exists(token));\n        return !token.tokenIsLand() && (claimant == backend.ownerOf(token) || tokenConfigs[token].homesteading);\n    }\n\n    /**\n     * Get the min deposit that will be required to create a claim on a token.\n     *\n     * Tokens can only exist with deposits smaller than this if they were\n     * created before the minimum deposit was raised, or if they are the result\n     * of merging other tokens whose deposits were too small.\n     */\n    function getMinDepositToCreate(uint256 token) public view returns (uint256) {\n        // Get the token's type\n        uint256 token_type = token.getTokenType();\n\n        if (token_type == TOKEN_TYPE_SECTOR) {\n            // Sectors cannot be owned.\n            return 0xFFFFFFFFFFFFFFFFFFFFFFFFFFFFFFFFFFFFFFFFFFFFFFFFFFFFFFFFFFFFFFFF;\n        } else if (token_type == TOKEN_TYPE_SYSTEM) {\n            // For systems, the deposit is set\n            return minSystemDepositInAtomicUnits;\n        } else if (token_type == TOKEN_TYPE_PLANET) {\n            // For planets, the deposit is a fraction of the system\n            return minSystemDepositInAtomicUnits.div(10);\n        } else if (token_type == TOKEN_TYPE_MOON) {\n            // For moons, the deposit is a smaller fraction\n            return minSystemDepositInAtomicUnits.div(40);\n        } else {\n            // It must be land\n            \n            // For land, the deposit is smaller and cuts in half with each level of subdivision (starting at 1).\n\n            // Base on the cost of the whole body\n            // For moons we pay this fraction of the star system cost\n            // For planets we pay more (divide less)\n            uint256 whole_cost = minSystemDepositInAtomicUnits.div((token.getTokenMoon() == MOON_NONE) ? 10 : 40);\n\n            // So all the small claims is twice as expensive as the big claim.\n            uint256 subdivisions = token.getTokenTrixelCount();\n            // Divide by an extra 2 at first because the first level has 8 trixels and not 4.\n            return whole_cost >> (subdivisions + 1);\n        }\n    }\n\n    /**\n     * Return true if the given token exists and the corresponding world object is claimed, and false otherwise.\n     * Does not account for owners of parents.\n     */\n    function exists(uint256 token) public view returns (bool) {\n        // Just wrap the private exists function\n        return backend.exists(token);\n    }\n\n\n    //////////////\n    // Minting and destruction logic: commit/reveal/cancel and release\n    //////////////\n    \n    /**\n     * Make a new commitment by debiting msg.sender's account for the given deposit.\n     * Returns the numerical ID of the commitment, which must be passed to\n     * reveal() together with the actual bit-packed keypath of the thing being\n     * claimed in order to finalize the claim.\n     */\n    function commit(bytes32 hash, uint256 deposit) external {\n        // Deposit size will not be checked until reveal!\n\n        // We use the 0 hash as an indication that a commitment isn't present\n        // in the mapping, so we prohibit it here as a real commitment hash.\n        require(hash != bytes32(0), \"Zero hash prohibited\");\n\n        // Record we have the deposit value\n        expectedDepositBalance = expectedDepositBalance.add(deposit);\n\n        // Make sure we can take the deposit\n        require(depositTokenContract.transferFrom(msg.sender, address(this), deposit), \"Deposit not approved\");\n\n        // Compute the commitment key\n        bytes32 commitment_key = keccak256(abi.encodePacked(hash, msg.sender));\n\n        // Find the record for it\n        Commitment storage commitment = commitments[commitment_key];\n\n        // Make sure it is free\n        require(commitment.hash == bytes32(0), \"Duplicate commitment prohibited\");\n\n        // Fill it in\n        commitment.hash = hash;\n        commitment.deposit = deposit;\n        commitment.creationTime = now;\n\n        // Do an event for tracking.  Nothing needs to come out of this for the\n        // reveal; you just need to know that you succeeded and about when.\n        emit Commit(hash, msg.sender);\n    }\n\n    /**\n     * Cancel a commitment that has not yet been revealed.\n     * Returns the associated deposit.\n     * ID the commitment by the committing hash passed to commit(), *not* the\n     * internal key.\n     * Must be sent from the same address that created the commitment, or the\n     * commitment cannot be addressed.\n     */\n    function cancel(bytes32 hash) external {\n        // We use the 0 hash as an indication that a commitment isn't present\n        // in the mapping, so we prohibit it here as a real commitment hash.\n        require(hash != bytes32(0), \"Zero hash prohibited\");\n\n        // Look up the right commitment for this hash and owner.\n        bytes32 commitment_key = keccak256(abi.encodePacked(hash, msg.sender));\n        Commitment storage commitment = commitments[commitment_key];\n\n        // Make sure it is present with the right nonzero hash.\n        // If it seems to have a zero hash, the commitment is gone/never existed.\n        require(commitment.hash == hash, \"Commitment not found\");\n\n        // Work out how much to refund\n        uint256 refund = commitment.deposit;\n\n        // Destroy the commitment\n        delete commitments[commitment_key];\n\n        // Record we sent the deposit value\n        expectedDepositBalance = expectedDepositBalance.sub(refund);\n\n        // Return the deposit\n        require(depositTokenContract.transfer(msg.sender, refund));\n\n        // Emit a Cancel event\n        emit Cancel(hash, msg.sender);\n    }\n\n    /**\n     * Finish a commitment by revealing the token we want to claim and the\n     * nonce to make the commitment hash. Creates the token. Fails and reverts\n     * if the preimage is incorrect, the commitment is expired, the commitment\n     * is too new, the commitment is missing, the deposit is insufficient for\n     * whatever is being claimed, the Macroverse generators cannot be accessed\n     * to prove the existence of the thing being claimed or its parents, or the\n     * thing or a child or parent is already claimed by a conflicting\n     * commitment. Otherwise issues the token for the bit-packed keypath given\n     * in preimage.\n     *\n     * Doesn't need the commitment hash: it is computed from the provided\n     * preimage.  Commitment lookup also depends on the originating address, so\n     * the function must be called by the original committer.\n     */\n    function reveal(uint256 token, uint256 nonce) external {\n        // Compute the committing hash that this is the preimage for\n        bytes32 hash = keccak256(abi.encodePacked(token, nonce));\n        \n        // Look up the right commitment for this hash and owner.\n        bytes32 commitment_key = keccak256(abi.encodePacked(hash, msg.sender));\n        Commitment storage commitment = commitments[commitment_key];\n\n        // Make sure it is present with the right nonzero hash.\n        // If it seems to have a zero hash, the commitment is gone/never existed.\n        require(commitment.hash == hash, \"Commitment not found\");\n        \n        // Make sure the commitment is not expired (max wait is in the future)\n        require(commitment.creationTime + (commitmentMinWait * COMMITMENT_MAX_WAIT_FACTOR) > now, \"Commitment expired\");\n\n        // Make sure the commitment is not too new (min wait is in the past)\n        require(commitment.creationTime + commitmentMinWait < now, \"Commitment too new\");\n\n        // Make sure the token doesn't already exists\n        require(!backend.exists(token), \"Token already exists\");\n\n        // Validate the token\n        require(token.tokenIsCanonical(), \"Token data mis-packed\");\n        // Make sure it refers to something real\n        require(existenceChecker.exists(token), \"Cannot claim non-existent thing\");\n\n        // Make sure that sufficient tokens have been deposited for this thing to be claimed\n        require(commitment.deposit >= getMinDepositToCreate(token), \"Deposit too small\");\n\n        // Do checks on the parent\n        uint256 extant_parent = lowestExistingParent(token);\n        if (extant_parent != 0) {\n            // A parent exists. Can this person claim its children?\n            require(childrenClaimable(extant_parent, msg.sender), \"Cannot claim children here\");\n        }\n\n        // If it's land, no children can be claimed already\n        require(!token.tokenIsLand() || childTree[token] == 0, \"Cannot claim land with claimed subplots\");\n\n        // OK, now we know the claim is valid. Execute it.\n\n        // Create the token state, with homesteading off, carrying over the deposit\n        tokenConfigs[token] = TokenConfig({\n            deposit: commitment.deposit,\n            homesteading: false\n        });\n\n        // Record it in the child tree. This informs all parent land tokens\n        // that could be created that there are child claims, and blocks them.\n        addChildToTree(token);\n\n        // Destroy the commitment\n        delete commitments[commitment_key];\n\n        // Emit a reveal event, before actually making the token\n        emit Reveal(hash, token, msg.sender);\n\n        // If we pass everything, mint the token\n        backend.mint(msg.sender, token);\n    }\n\n    /**\n     * Destroy a token that you own, allowing it to be claimed by someone else.\n     * Retruns the associated deposit to you.\n     */\n    function release(uint256 token) external {\n        // Burn the token IFF it exists and is owned by msg.sender\n        backend.burn(msg.sender, token);\n\n        // Say the token was released\n        emit Release(token, msg.sender);\n\n        // Remove it from the tree so it no longer blocks parent claims if it is land\n        removeChildFromTree(token);\n        \n        // Work out what the deposit was\n        uint256 deposit = tokenConfigs[token].deposit;\n\n        // Clean up its config\n        delete tokenConfigs[token];\n\n        // Record we sent the deposit back\n        expectedDepositBalance = expectedDepositBalance.sub(deposit);\n\n        // Return the deposit\n        require(depositTokenContract.transfer(msg.sender, deposit));\n    }\n\n    //////////////\n    // Token owner functions\n    //////////////\n\n    /**\n     * Set whether homesteading is allowed under a token. The token must be owned by you, and must not be land.\n     */\n    function setHomesteading(uint256 token, bool value) external {\n        require(backend.ownerOf(token) == msg.sender, \"Token owner mismatch\");\n        require(!token.tokenIsLand());\n        \n        // Find the token's config\n        TokenConfig storage config = tokenConfigs[token];\n\n        if (config.homesteading != value) {\n            // The value is actually changing\n\n            // Set the homesteading flag\n            config.homesteading = value;\n\n            // Make an event so clients can find homesteading areas\n            emit Homesteading(token, value);\n        }\n    }\n\n    /**\n     * Get whether homesteading is allowed under a token.\n     * Returns false for nonexistent or invalid tokens.\n     */\n    function getHomesteading(uint256 token) external view returns (bool) {\n        // Only existing non-land tokens with homesteading on can be homesteaded.\n        return (backend.exists(token) && !token.tokenIsLand() && tokenConfigs[token].homesteading); \n    }\n\n    /**\n     * Get the deposit tied up in a token, in MRV atomic units.\n     * Returns 0 for nonexistent or invalid tokens.\n     * Deposits associated with claims need to be gotten by looking at the claim mapping directly.\n     */\n    function getDeposit(uint256 token) external view returns (uint256) {\n        // Only existing non-land tokens with homesteading on can be homesteaded.\n        if (!backend.exists(token)) {\n            return 0;\n        }\n        return tokenConfigs[token].deposit;\n    }\n\n    /**\n     * Split a trixel of land into 4 sub-trixel tokens.\n     * The new tokens will be owned by the same owner.\n     * The old token will be destroyed.\n     * Additional deposit may be required so that all subdivided tokens have at least the minimum deposit.\n     * The deposit from the original token will be re-used if possible.\n     * If the deposit available is not divisible by 4, the extra will be assigned to the first child token.\n     */\n    function subdivideLand(uint256 parent, uint256 additional_deposit) external {\n        // Make sure the parent is land owned by the caller.\n        // If a token is owned, it must be canonical.\n        require(backend.ownerOf(parent) == msg.sender, \"Token owner mismatch\");\n\n        // Make sure the parent isn't maximally subdivided\n        require(parent.getTokenType() != TOKEN_TYPE_LAND_MAX, \"Land maximally subdivided\");\n\n        // Get the deposit from it\n        uint256 deposit = tokenConfigs[parent].deposit;\n\n        // Take the new deposit from the caller\n        // Record we have the deposit value\n        expectedDepositBalance = expectedDepositBalance.add(additional_deposit);\n\n        // Make sure we can take the deposit\n        require(depositTokenContract.transferFrom(msg.sender, address(this), additional_deposit), \"Deposit not approved\");\n\n        // Add in the new deposit\n        deposit = deposit.add(additional_deposit);\n\n        // Compute the token numbers for the new child tokens\n        uint256[] memory children = new uint256[](CHILDREN_PER_TRIXEL);\n        // And their deposits. In theory they might vary by token identity.\n        uint256[] memory child_deposits = new uint256[](CHILDREN_PER_TRIXEL);\n        // And the total required\n        uint256 required_deposit = 0;\n        for (uint256 i = 0; i < CHILDREN_PER_TRIXEL; i++) {\n            uint256 child = parent.childTokenAtIndex(i);\n            children[i] = child;\n            uint256 child_deposit = getMinDepositToCreate(child);\n            child_deposits[i] = child_deposit;\n            required_deposit = required_deposit.add(child_deposit);\n        }\n\n        require(required_deposit <= deposit, \"Deposit not sufficient\");\n\n        // Burn the parent\n        backend.burn(msg.sender, parent);\n\n        // Clean up its config\n        delete tokenConfigs[parent];\n\n        // Apportion deposit and create the children\n\n        // Now deposit will be is the remaining deposit to try and distribute evenly among the children\n        deposit = deposit.sub(required_deposit);\n        uint256 split_evenly = deposit.div(CHILDREN_PER_TRIXEL);\n        uint256 extra = deposit.mod(CHILDREN_PER_TRIXEL);\n        child_deposits[0] = child_deposits[0].add(extra);\n        for (uint256 i = 0; i < CHILDREN_PER_TRIXEL; i++) {\n            child_deposits[i] = child_deposits[i].add(split_evenly);\n\n            // Now we can make the child token config\n            tokenConfigs[children[i]] = TokenConfig({\n                deposit: child_deposits[i],\n                homesteading: false\n            });\n\n            // Say land is being split\n            emit LandSplit(parent, children[i]);\n\n            // And mint the child\n            backend.mint(msg.sender, children[i]);\n        }\n\n        // Set the parent's entry in the child tree to having all 4 children.\n        // Its parent will still record its presence.\n        childTree[parent] = 0xf;\n    }\n\n    /**\n     * Combine 4 land tokens with the same parent trixel into one token for the parent trixel.\n     * Tokens must all be owned by the message sender.\n     * Allows withdrawing some of the deposit of the original child tokens, as long as sufficient deposit is left to back the new parent land claim.\n     */\n    function combineLand(uint256 child1, uint256 child2, uint256 child3, uint256 child4, uint256 withdraw_deposit) external {\n        // Make a child array\n        uint256[CHILDREN_PER_TRIXEL] memory children = [child1, child2, child3, child4];\n\n        // And count up the deposit they represent\n        uint256 available_deposit = 0;\n        \n        for (uint256 i = 0; i < CHILDREN_PER_TRIXEL; i++) {\n            // Make sure all the children are owned by the caller\n            require(backend.ownerOf(children[i]) == msg.sender, \"Token owner mismatch\");\n            // If a token is owned, it must be canonical.\n\n            // Collect the deposit\n            available_deposit = available_deposit.add(tokenConfigs[children[i]].deposit);\n        }\n        \n        // Make sure all the children are distinct\n        require(children[0] != children[1], \"Children not distinct\");\n        require(children[0] != children[2], \"Children not distinct\");\n        require(children[0] != children[3], \"Children not distinct\");\n\n        require(children[1] != children[2], \"Children not distinct\");\n        require(children[1] != children[3], \"Children not distinct\");\n\n        require(children[2] != children[3], \"Children not distinct\");\n        \n        // Make sure they are all children of the same parent\n        uint256 parent = children[0].parentOfToken();\n        for (uint256 i = 1; i < CHILDREN_PER_TRIXEL; i++) {\n            require(children[i].parentOfToken() == parent, \"Parent not shared\");\n        }\n        \n        // Make sure that that parent is land\n        require(parent.tokenIsLand());\n\n        // Compute the parent deposit\n        uint256 parent_deposit = available_deposit.sub(withdraw_deposit);\n\n        // Edge case: min deposit scale was adjusted and now the deposits for\n        // the children aren't enough for the parent.\n        // In that case, we allow the merge, but withdraw_deposit must be 0.\n        if (withdraw_deposit > 0) {\n            require(parent_deposit >= getMinDepositToCreate(parent), \"Deposit not sufficient\");\n        }\n\n        for (uint256 i = 0; i < CHILDREN_PER_TRIXEL; i++) {\n            // Burn the children\n            backend.burn(msg.sender, children[i]);\n\n            // Clean up the config\n            delete tokenConfigs[children[i]];\n\n            // Say land is being merged\n            emit LandSplit(children[i], parent);\n        }\n\n        // Make a parent config\n        tokenConfigs[parent] = TokenConfig({\n            deposit: parent_deposit,\n            homesteading: false\n        });\n\n        // Create the parent\n        backend.mint(msg.sender, parent);\n\n        // Set the parent's entry in the child tree to having no children.\n        // Its parent will still record its presence as an internal node.\n        childTree[parent] = 0;\n\n        // Return the requested amount of returned deposit.\n\n        // Record we sent the deposit back\n        expectedDepositBalance = expectedDepositBalance.sub(withdraw_deposit);\n\n        // Return the deposit\n        require(depositTokenContract.transfer(msg.sender, withdraw_deposit));\n    }\n\n    //////////////\n    // Admin functions\n    //////////////\n\n    /**\n     * Allow the contract owner to set the minimum deposit amount for granting new\n     * system ownership claims.\n     */\n    function setMinimumSystemDeposit(uint256 new_minimum_deposit_in_atomic_units) external onlyOwner {\n        minSystemDepositInAtomicUnits = new_minimum_deposit_in_atomic_units;\n        emit DepositScaleChange(minSystemDepositInAtomicUnits);\n    }\n\n    /**\n     * Set the minimum wait time in seconds for waiting for commitments to\n     * mature and become revealable. The maximum time commitments have before\n     * they expire is also adjusted, as it is a multiple of this value.\n     */\n    function setCommitmentMinWait(uint256 new_commitment_min_wait_in_seconds) external onlyOwner {\n        commitmentMinWait = new_commitment_min_wait_in_seconds;\n        emit CommitmentMinWaitChange(commitmentMinWait);\n    }\n\n    /**\n     * Allow the owner to collect any non-MRV tokens, or any excess MRV, that ends up in this contract.\n     */\n    function reclaimToken(address otherToken) external onlyOwner {\n        IERC20 other = IERC20(otherToken);\n        \n        // We will send our whole balance\n        uint excessBalance = other.balanceOf(address(this));\n        \n        // Unless we're talking about the MRV token\n        if (address(other) == address(depositTokenContract)) {\n            // In which case we send only any balance that we shouldn't have\n            excessBalance = excessBalance.sub(expectedDepositBalance);\n        }\n        \n        // Make the transfer. If it doesn't work, we can try again later.\n        other.transfer(owner(), excessBalance);\n    }\n}\n",
  "sourcePath": "/z/home/anovak/workspace/macroverse/contracts/MacroverseUniversalRegistry.sol",
  "compiler": {
    "name": "solc",
    "version": "0.5.14+commit.01f1aaa4.Emscripten.clang"
  },
  "schemaVersion": "3.1.0",
  "updatedAt": "2020-05-22T04:32:06.070Z",
  "networkType": "ethereum",
  "devdoc": {
    "methods": {
      "isOwner()": {
        "details": "Returns true if the caller is the current owner."
      },
      "owner()": {
        "details": "Returns the address of the current owner."
      },
      "reclaimContract(address)": {
        "details": "Reclaim ownership of Ownable contracts",
        "params": {
          "contractAddr": "The address of the Ownable to be reclaimed."
        }
      },
      "reclaimEther()": {
        "details": "Transfer all Ether held by the contract to the owner."
      },
      "renounceOwnership()": {
        "details": "Leaves the contract without owner. It will not be possible to call `onlyOwner` functions anymore. Can only be called by the current owner.     * NOTE: Renouncing ownership will leave the contract without an owner, thereby removing any functionality that is only available to the owner."
      },
      "transferOwnership(address)": {
        "details": "Transfers ownership of the contract to a new account (`newOwner`). Can only be called by the current owner."
      }
    }
  },
  "userdoc": {
    "methods": {
      "cancel(bytes32)": {
        "notice": "Cancel a commitment that has not yet been revealed. Returns the associated deposit. ID the commitment by the committing hash passed to commit(), *not* the internal key. Must be sent from the same address that created the commitment, or the commitment cannot be addressed."
      },
      "childrenClaimable(uint256,address)": {
        "notice": "Returns true if direct children of the given token can be claimed by the given claimant. Children of land tokens can never be claimed (the plot must be subdivided). Children of system/planet/moon tokens can only be claimed if the claimer owns them or the owner allows homesteading."
      },
      "combineLand(uint256,uint256,uint256,uint256,uint256)": {
        "notice": "Combine 4 land tokens with the same parent trixel into one token for the parent trixel. Tokens must all be owned by the message sender. Allows withdrawing some of the deposit of the original child tokens, as long as sufficient deposit is left to back the new parent land claim."
      },
      "commit(bytes32,uint256)": {
        "notice": "Make a new commitment by debiting msg.sender's account for the given deposit. Returns the numerical ID of the commitment, which must be passed to reveal() together with the actual bit-packed keypath of the thing being claimed in order to finalize the claim."
      },
      "constructor": "Deploy a new copy of the Macroverse Universal Registry. The given existence checker will be used to check object existence. The given token will be used to pay deposits, and the given minimum deposit size will be required to claim a star system. Other deposit sizes will be calculated from that. The given min wait time will be the required time you must wait after committing before revealing.",
      "exists(uint256)": {
        "notice": "Return true if the given token exists and the corresponding world object is claimed, and false otherwise. Does not account for owners of parents."
      },
      "getDeposit(uint256)": {
        "notice": "Get the deposit tied up in a token, in MRV atomic units. Returns 0 for nonexistent or invalid tokens. Deposits associated with claims need to be gotten by looking at the claim mapping directly."
      },
      "getHomesteading(uint256)": {
        "notice": "Get whether homesteading is allowed under a token. Returns false for nonexistent or invalid tokens."
      },
      "getMinDepositToCreate(uint256)": {
        "notice": "Get the min deposit that will be required to create a claim on a token.     * Tokens can only exist with deposits smaller than this if they were created before the minimum deposit was raised, or if they are the result of merging other tokens whose deposits were too small."
      },
      "lowestExistingParent(uint256)": {
        "notice": "Get the lowest-in-the-hierarchy token that exists (is owned). Returns a 0-value sentinel if no parent token exists."
      },
      "reclaimToken(address)": {
        "notice": "Allow the owner to collect any non-MRV tokens, or any excess MRV, that ends up in this contract."
      },
      "release(uint256)": {
        "notice": "Destroy a token that you own, allowing it to be claimed by someone else. Retruns the associated deposit to you."
      },
      "reveal(uint256,uint256)": {
        "notice": "Finish a commitment by revealing the token we want to claim and the nonce to make the commitment hash. Creates the token. Fails and reverts if the preimage is incorrect, the commitment is expired, the commitment is too new, the commitment is missing, the deposit is insufficient for whatever is being claimed, the Macroverse generators cannot be accessed to prove the existence of the thing being claimed or its parents, or the thing or a child or parent is already claimed by a conflicting commitment. Otherwise issues the token for the bit-packed keypath given in preimage.     * Doesn't need the commitment hash: it is computed from the provided preimage.  Commitment lookup also depends on the originating address, so the function must be called by the original committer."
      },
      "setCommitmentMinWait(uint256)": {
        "notice": "Set the minimum wait time in seconds for waiting for commitments to mature and become revealable. The maximum time commitments have before they expire is also adjusted, as it is a multiple of this value."
      },
      "setHomesteading(uint256,bool)": {
        "notice": "Set whether homesteading is allowed under a token. The token must be owned by you, and must not be land."
      },
      "setMinimumSystemDeposit(uint256)": {
        "notice": "Allow the contract owner to set the minimum deposit amount for granting new system ownership claims."
      },
      "subdivideLand(uint256,uint256)": {
        "notice": "Split a trixel of land into 4 sub-trixel tokens. The new tokens will be owned by the same owner. The old token will be destroyed. Additional deposit may be required so that all subdivided tokens have at least the minimum deposit. The deposit from the original token will be re-used if possible. If the deposit available is not divisible by 4, the extra will be assigned to the first child token."
      }
    },
    "notice": "The MacroverseUniversalRegistry manages the creation and Macroverse-specific manipulation of non-fungible tokens (NFTs) representing virtual real estate, which are tracked by the MacroverseRealEstate contract. * Ownership is based on a claim system, where unowned objects can be claimed by people by putting up a deposit in MRV. The MRV deposit is returned when the owner releases their claim on the corresponding object. * The claim system is protected against front-running by a commit/reveal system with a mandatory waiting period. You first commit to the claim you want to make, by putting up the deposit and publishing a hash. After a certain mandatory waiting period, you can reveal what it is you are trying to claim, and actually take ownership of the object. * The first person to reveal wins in case two or more people try to claim the same object, or if they try to claim things that are parents/children/overlapping in such a way that the claims conflict. Since there's a mandatory waiting period between the commit and reveal, and since a malicious front-runner cannot commit until they see a reveal they are trying to front-run, then as long as malicious front-runners cannot keep transactions off the chain for the duration of the mandatory wait period, then they can't steal things other people are trying to claim. * It's still possible for an organic conflict to end up getting resolved in favor of whoever is willing to pay more for gas, or for people to leave many un-revealed claims and grief people by revealing them when someone else tries to claim the same objects. * To further mitigate griefing, committed claims will expire after a while if not revealed. * Revealing requires demonstrating that the Macroverse object being claimed actually exists, and so claiming can only be done by people who can pass the Macroverse generator's AccessControl checks. * Note that ownership of a star system does not necessarily imply ownership of everything in it. Just as one person can own a condo in another person's building, one person can own a planet in another person's star system. Non-containment of different ownership claims is only enforced for claims of land on planets and moons. * The surface of a world is subdivided using a Hierarchical Triangular Mesh approach, as described in <http://www.skyserver.org/HTM/> and in <https://www.microsoft.com/en-us/research/wp-content/uploads/2005/09/tr-2005-123.pdf> \"Indexing the Sphere with the Hierarchical Triangular Mesh\". At the top level, the surface of a world is an octahedron of equilateral triangles. Each triangle is then recursively subdivided into 4 children by inscribing another equilateral triangle between the center points of its edges. Each HTM \"trixel\" is a plot of virtual real estate that can be claimed. Land trixels can be subdivided and merged, and ownership of a trixel implies ownership of all contained trixels, because this logic can be done without any reference to the AccessControl-protected Macroverse generator logic. * The mapping from systems, planets, moons, and land trixels to token ID numbers is defined in the MacroverseNFTUtils library. * \"Planets\" which are asteroid belts and \"moons\" which are ring systems also are subdivided into 8 triangles, and then recursively into nested sets of 4 sub-triangles. However, the initial 8 triangles are defined as wedges, with the points at the central body and with the outer edges being curved. They are numbered prograde, with the division from 0 to 7 corresponding to the object's notional position, computed as if it were a point body with the same orbital parameters. Note that this means that some ownership claims do not actually overlap the orbital range (and thus do not contain anything), and that any actual particles would move relative to the positions of the claims over time, depending on their actual orbits.  * At the astronomical level (stars, planets, moons), tokens can be issued for the children of things already claimed, if the lowest owned parent token has homesteading enabled.  At the land level, only one token can cover a given point at a given time, but plots can be subdivided and merged according to the trixel structure. * Internally, bookkeeping data is kept to allow the tree of all issued tokens to be traversed. All issued tokens exist in the tree, as well as the internal nodes of the token hierarchy necessary to connect them. The presence of child nodes in the tree is tracked using a bitmap for each node. * The deployer of this contract reserves the right to supersede it with a new version at any time, for any reason, and without notice. The deployer of this contract reserves the right to leave it in place as is indefinitely. * The deployer of this contract reserves the right to claim and keep any tokens or ETH or contracts sent to this contract, in excess of the MRV balance that this contract thinks it is supposed to have."
  }
}