{
  "contractName": "MacroverseStarGeneratorPatch1",
  "abi": [
    {
      "constant": false,
      "inputs": [],
      "name": "renounceOwnership",
      "outputs": [],
      "payable": false,
      "stateMutability": "nonpayable",
      "type": "function"
    },
    {
      "constant": true,
      "inputs": [],
      "name": "owner",
      "outputs": [
        {
          "name": "",
          "type": "address"
        }
      ],
      "payable": false,
      "stateMutability": "view",
      "type": "function"
    },
    {
      "constant": true,
      "inputs": [],
      "name": "isOwner",
      "outputs": [
        {
          "name": "",
          "type": "bool"
        }
      ],
      "payable": false,
      "stateMutability": "view",
      "type": "function"
    },
    {
      "constant": false,
      "inputs": [
        {
          "name": "newAccessControl",
          "type": "address"
        }
      ],
      "name": "changeAccessControl",
      "outputs": [],
      "payable": false,
      "stateMutability": "nonpayable",
      "type": "function"
    },
    {
      "constant": false,
      "inputs": [
        {
          "name": "newOwner",
          "type": "address"
        }
      ],
      "name": "transferOwnership",
      "outputs": [],
      "payable": false,
      "stateMutability": "nonpayable",
      "type": "function"
    },
    {
      "inputs": [
        {
          "name": "accessControlAddress",
          "type": "address"
        }
      ],
      "payable": false,
      "stateMutability": "nonpayable",
      "type": "constructor"
    },
    {
      "anonymous": false,
      "inputs": [
        {
          "indexed": true,
          "name": "previousOwner",
          "type": "address"
        },
        {
          "indexed": true,
          "name": "newOwner",
          "type": "address"
        }
      ],
      "name": "OwnershipTransferred",
      "type": "event"
    },
    {
      "constant": true,
      "inputs": [
        {
          "name": "starSeed",
          "type": "bytes32"
        },
        {
          "name": "objectClass",
          "type": "uint8"
        },
        {
          "name": "spectralType",
          "type": "uint8"
        }
      ],
      "name": "getObjectPlanetCount",
      "outputs": [
        {
          "name": "",
          "type": "uint16"
        }
      ],
      "payable": false,
      "stateMutability": "view",
      "type": "function"
    },
    {
      "constant": true,
      "inputs": [
        {
          "name": "starSeed",
          "type": "bytes32"
        },
        {
          "name": "objectClass",
          "type": "uint8"
        },
        {
          "name": "realObjectMass",
          "type": "int128"
        }
      ],
      "name": "getObjectLuminosity",
      "outputs": [
        {
          "name": "",
          "type": "int128"
        }
      ],
      "payable": false,
      "stateMutability": "view",
      "type": "function"
    },
    {
      "constant": true,
      "inputs": [
        {
          "name": "realLuminosity",
          "type": "int128"
        }
      ],
      "name": "getObjectHabitableZone",
      "outputs": [
        {
          "name": "realInnerRadius",
          "type": "int128"
        },
        {
          "name": "realOuterRadius",
          "type": "int128"
        }
      ],
      "payable": false,
      "stateMutability": "view",
      "type": "function"
    },
    {
      "constant": true,
      "inputs": [
        {
          "name": "seed",
          "type": "bytes32"
        }
      ],
      "name": "getObjectYXAxisAngles",
      "outputs": [
        {
          "name": "realYRadians",
          "type": "int128"
        },
        {
          "name": "realXRadians",
          "type": "int128"
        }
      ],
      "payable": false,
      "stateMutability": "view",
      "type": "function"
    }
  ],
  "bytecode": "0x608060405234801561001057600080fd5b506040516020806125288339810180604052810190808051906020019092919050505080336000806101000a81548173ffffffffffffffffffffffffffffffffffffffff021916908373ffffffffffffffffffffffffffffffffffffffff1602179055506000809054906101000a900473ffffffffffffffffffffffffffffffffffffffff1673ffffffffffffffffffffffffffffffffffffffff16600073ffffffffffffffffffffffffffffffffffffffff167f8be0079c531659141344cd1fd0a4f28419497f9722a3daafe3b4186f6b6457e060405160405180910390a380600160006101000a81548173ffffffffffffffffffffffffffffffffffffffff021916908373ffffffffffffffffffffffffffffffffffffffff16021790555050506123e6806101426000396000f300608060405260043610610099576000357c0100000000000000000000000000000000000000000000000000000000900463ffffffff16806350e5da7a1461009e578063715018a6146100f65780638da5cb5b1461010d5780638f32d59b14610164578063932c1b29146101935780639387730c146101f8578063bfd4fac11461023b578063ccae78aa146102a2578063f2fde38b146102f9575b600080fd5b3480156100aa57600080fd5b506100cd600480360381019080803560001916906020019092919050505061033c565b6040518083600f0b600f0b815260200182600f0b600f0b81526020019250505060405180910390f35b34801561010257600080fd5b5061010b610573565b005b34801561011957600080fd5b50610122610645565b604051808273ffffffffffffffffffffffffffffffffffffffff1673ffffffffffffffffffffffffffffffffffffffff16815260200191505060405180910390f35b34801561017057600080fd5b5061017961066e565b604051808215151515815260200191505060405180910390f35b34801561019f57600080fd5b506101dc6004803603810190808035600019169060200190929190803560ff1690602001909291908035600f0b90602001909291905050506106c5565b6040518082600f0b600f0b815260200191505060405180910390f35b34801561020457600080fd5b50610239600480360381019080803573ffffffffffffffffffffffffffffffffffffffff1690602001909291905050506112b3565b005b34801561024757600080fd5b506102846004803603810190808035600019169060200190929190803560ff169060200190929190803560ff16906020019092919050505061130a565b604051808261ffff1661ffff16815260200191505060405180910390f35b3480156102ae57600080fd5b506102d06004803603810190808035600f0b9060200190929190505050611653565b6040518083600f0b600f0b815260200182600f0b600f0b81526020019250505060405180910390f35b34801561030557600080fd5b5061033a600480360381019080803573ffffffffffffffffffffffffffffffffffffffff169060200190929190505050611b1f565b005b600080600160009054906101000a900473ffffffffffffffffffffffffffffffffffffffff1673ffffffffffffffffffffffffffffffffffffffff16634af5fb0f33326040518363ffffffff167c0100000000000000000000000000000000000000000000000000000000028152600401808373ffffffffffffffffffffffffffffffffffffffff1673ffffffffffffffffffffffffffffffffffffffff1681526020018273ffffffffffffffffffffffffffffffffffffffff1673ffffffffffffffffffffffffffffffffffffffff16815260200192505050602060405180830381600087803b15801561043057600080fd5b505af1158015610444573d6000803e3d6000fd5b505050506040513d602081101561045a57600080fd5b8101908080519060200190929190505050151561047657600080fd5b6104f46503243f6a88866000036503243f6a88866104e56040805190810160405280600581526020017f61786973790000000000000000000000000000000000000000000000000000008152506020604051908101604052808960001916815250611b3e90919063ffffffff16565b611c839092919063ffffffff16565b915061056c60006503243f6a888661055d6040805190810160405280600581526020017f61786973780000000000000000000000000000000000000000000000000000008152506020604051908101604052808960001916815250611b3e90919063ffffffff16565b611c839092919063ffffffff16565b9050915091565b61057b61066e565b151561058657600080fd5b600073ffffffffffffffffffffffffffffffffffffffff166000809054906101000a900473ffffffffffffffffffffffffffffffffffffffff1673ffffffffffffffffffffffffffffffffffffffff167f8be0079c531659141344cd1fd0a4f28419497f9722a3daafe3b4186f6b6457e060405160405180910390a360008060006101000a81548173ffffffffffffffffffffffffffffffffffffffff021916908373ffffffffffffffffffffffffffffffffffffffff160217905550565b60008060009054906101000a900473ffffffffffffffffffffffffffffffffffffffff16905090565b60008060009054906101000a900473ffffffffffffffffffffffffffffffffffffffff1673ffffffffffffffffffffffffffffffffffffffff163373ffffffffffffffffffffffffffffffffffffffff1614905090565b60006106cf6123a3565b6000600160009054906101000a900473ffffffffffffffffffffffffffffffffffffffff1673ffffffffffffffffffffffffffffffffffffffff16634af5fb0f33326040518363ffffffff167c0100000000000000000000000000000000000000000000000000000000028152600401808373ffffffffffffffffffffffffffffffffffffffff1673ffffffffffffffffffffffffffffffffffffffff1681526020018273ffffffffffffffffffffffffffffffffffffffff1673ffffffffffffffffffffffffffffffffffffffff16815260200192505050602060405180830381600087803b1580156107c257600080fd5b505af11580156107d6573d6000803e3d6000fd5b505050506040513d60208110156107ec57600080fd5b8101908080519060200190929190505050151561080857600080fd5b6020604051908101604052808760001916815250915060058081111561082a57fe5b85600581111561083657fe5b1415610a505761088c6108876040805190810160405280600d81526020017f616363726574696f6e6469736b0000000000000000000000000000000000000081525084611b3e90919063ffffffff16565b611d59565b15610a4657610a3f73__RealMath______________________________63f5a5d50360016040518263ffffffff167c01000000000000000000000000000000000000000000000000000000000281526004018082600a0b815260200191505060206040518083038186803b15801561090357600080fd5b505af4158015610917573d6000803e3d6000fd5b505050506040513d602081101561092d57600080fd5b810190808051906020019092919050505073__RealMath______________________________63f5a5d50360056040518263ffffffff167c01000000000000000000000000000000000000000000000000000000000281526004018082600a0b815260200191505060206040518083038186803b1580156109ad57600080fd5b505af41580156109c1573d6000803e3d6000fd5b505050506040513d60208110156109d757600080fd5b8101908080519060200190929190505050610a306040805190810160405280600a81526020017f6c756d696e6f736974790000000000000000000000000000000000000000000081525086611b3e90919063ffffffff16565b611c839092919063ffffffff16565b9050610a4b565b600090505b611024565b60046005811115610a5d57fe5b856005811115610a6957fe5b1415610c3c57610c3573__RealMath______________________________631dade0d4600160146040518363ffffffff167c01000000000000000000000000000000000000000000000000000000000281526004018083600a0b815260200182600a0b81526020019250505060206040518083038186803b158015610aed57600080fd5b505af4158015610b01573d6000803e3d6000fd5b505050506040513d6020811015610b1757600080fd5b810190808051906020019092919050505073__RealMath______________________________631dade0d46002600a6040518363ffffffff167c01000000000000000000000000000000000000000000000000000000000281526004018083600a0b815260200182600a0b81526020019250505060206040518083038186803b158015610ba357600080fd5b505af4158015610bb7573d6000803e3d6000fd5b505050506040513d6020811015610bcd57600080fd5b8101908080519060200190929190505050610c266040805190810160405280600a81526020017f6c756d696e6f736974790000000000000000000000000000000000000000000081525086611b3e90919063ffffffff16565b611c839092919063ffffffff16565b9050611023565b60036005811115610c4957fe5b856005811115610c5557fe5b1415610eb05773__RealMath______________________________634672f55585600f0b73__RealMath______________________________63b69721469091600160286001600f0b6000821215610ca957fe5b9060020a02600f0b9060020a90056040518363ffffffff167c01000000000000000000000000000000000000000000000000000000000281526004018083600f0b600f0b815260200182600f0b600f0b81526020019250505060206040518083038186803b158015610d1a57600080fd5b505af4158015610d2e573d6000803e3d6000fd5b505050506040513d6020811015610d4457600080fd5b810190808051906020019092919050505073__RealMath______________________________631dade0d46023600a6040518363ffffffff167c01000000000000000000000000000000000000000000000000000000000281526004018083600a0b815260200182600a0b81526020019250505060206040518083038186803b158015610dd057600080fd5b505af4158015610de4573d6000803e3d6000fd5b505050506040513d6020811015610dfa57600080fd5b81019080805190602001909291905050506040518363ffffffff167c01000000000000000000000000000000000000000000000000000000000281526004018083600f0b600f0b815260200182600f0b600f0b81526020019250505060206040518083038186803b158015610e6e57600080fd5b505af4158015610e82573d6000803e3d6000fd5b505050506040513d6020811015610e9857600080fd5b81019080805190602001909291905050509050611022565b73__RealMath______________________________634672f5558573__RealMath______________________________631dade0d46023600a6040518363ffffffff167c01000000000000000000000000000000000000000000000000000000000281526004018083600a0b815260200182600a0b81526020019250505060206040518083038186803b158015610f4657600080fd5b505af4158015610f5a573d6000803e3d6000fd5b505050506040513d6020811015610f7057600080fd5b81019080805190602001909291905050506040518363ffffffff167c01000000000000000000000000000000000000000000000000000000000281526004018083600f0b600f0b815260200182600f0b600f0b81526020019250505060206040518083038186803b158015610fe457600080fd5b505af4158015610ff8573d6000803e3d6000fd5b505050506040513d602081101561100e57600080fd5b810190808051906020019092919050505090505b5b5b80600f0b73__RealMath______________________________63b6972146909161120a73__RealMath______________________________631dade0d4605f60646040518363ffffffff167c01000000000000000000000000000000000000000000000000000000000281526004018083600a0b815260200182600a0b81526020019250505060206040518083038186803b1580156110c257600080fd5b505af41580156110d6573d6000803e3d6000fd5b505050506040513d60208110156110ec57600080fd5b810190808051906020019092919050505073__RealMath______________________________631dade0d4606960646040518363ffffffff167c01000000000000000000000000000000000000000000000000000000000281526004018083600a0b815260200182600a0b81526020019250505060206040518083038186803b15801561117857600080fd5b505af415801561118c573d6000803e3d6000fd5b505050506040513d60208110156111a257600080fd5b81019080805190602001909291905050506111fb6040805190810160405280600f81526020017f6c756d696e6f736974795363616c65000000000000000000000000000000000081525089611b3e90919063ffffffff16565b611c839092919063ffffffff16565b6040518363ffffffff167c01000000000000000000000000000000000000000000000000000000000281526004018083600f0b600f0b815260200182600f0b600f0b81526020019250505060206040518083038186803b15801561126d57600080fd5b505af4158015611281573d6000803e3d6000fd5b505050506040513d602081101561129757600080fd5b8101908080519060200190929190505050925050509392505050565b6112bb61066e565b15156112c657600080fd5b80600160006101000a81548173ffffffffffffffffffffffffffffffffffffffff021916908373ffffffffffffffffffffffffffffffffffffffff16021790555050565b60006113146123a3565b600080600160009054906101000a900473ffffffffffffffffffffffffffffffffffffffff1673ffffffffffffffffffffffffffffffffffffffff16634af5fb0f33326040518363ffffffff167c0100000000000000000000000000000000000000000000000000000000028152600401808373ffffffffffffffffffffffffffffffffffffffff1673ffffffffffffffffffffffffffffffffffffffff1681526020018273ffffffffffffffffffffffffffffffffffffffff1673ffffffffffffffffffffffffffffffffffffffff16815260200192505050602060405180830381600087803b15801561140857600080fd5b505af115801561141c573d6000803e3d6000fd5b505050506040513d602081101561143257600080fd5b8101908080519060200190929190505050151561144e57600080fd5b6114a96040805190810160405280600b81526020017f706c616e6574636f756e740000000000000000000000000000000000000000008152506020604051908101604052808a60001916815250611b3e90919063ffffffff16565b9250600260058111156114b857fe5b8660058111156114c457fe5b14156115d157600060078111156114d757fe5b8560078111156114e357fe5b14806115055750600160078111156114f757fe5b85600781111561150357fe5b145b1561151357600591506115cc565b6002600781111561152057fe5b85600781111561152c57fe5b141561153b57600791506115cb565b6003600781111561154857fe5b85600781111561155457fe5b148061157657506004600781111561156857fe5b85600781111561157457fe5b145b8061159757506005600781111561158957fe5b85600781111561159557fe5b145b156115a557600c91506115ca565b600660078111156115b257fe5b8560078111156115be57fe5b14156115c957600e91505b5b5b5b611628565b600160058111156115de57fe5b8660058111156115ea57fe5b14156115f95760029150611627565b6000600581111561160657fe5b86600581111561161257fe5b14156116215760029150611626565b600291505b5b5b611644600180840161ffff1685611d799092919063ffffffff16565b90508093505050509392505050565b6000806000600160009054906101000a900473ffffffffffffffffffffffffffffffffffffffff1673ffffffffffffffffffffffffffffffffffffffff16634af5fb0f33326040518363ffffffff167c0100000000000000000000000000000000000000000000000000000000028152600401808373ffffffffffffffffffffffffffffffffffffffff1673ffffffffffffffffffffffffffffffffffffffff1681526020018273ffffffffffffffffffffffffffffffffffffffff1673ffffffffffffffffffffffffffffffffffffffff16815260200192505050602060405180830381600087803b15801561174957600080fd5b505af115801561175d573d6000803e3d6000fd5b505050506040513d602081101561177357600080fd5b8101908080519060200190929190505050151561178f57600080fd5b73__RealMath______________________________636e3daae4856040518263ffffffff167c01000000000000000000000000000000000000000000000000000000000281526004018082600f0b600f0b815260200191505060206040518083038186803b15801561180057600080fd5b505af4158015611814573d6000803e3d6000fd5b505050506040513d602081101561182a57600080fd5b8101908080519060200190929190505050905073__RealMath______________________________63f5a5d503641a1f8bb8006040518263ffffffff167c01000000000000000000000000000000000000000000000000000000000281526004018082600a0b815260200191505060206040518083038186803b1580156118b057600080fd5b505af41580156118c4573d6000803e3d6000fd5b505050506040513d60208110156118da57600080fd5b8101908080519060200190929190505050600f0b73__RealMath______________________________63b69721469091836040518363ffffffff167c01000000000000000000000000000000000000000000000000000000000281526004018083600f0b600f0b815260200182600f0b600f0b81526020019250505060206040518083038186803b15801561196e57600080fd5b505af4158015611982573d6000803e3d6000fd5b505050506040513d602081101561199857600080fd5b8101908080519060200190929190505050925073__RealMath______________________________63f5a5d5036445a97413206040518263ffffffff167c01000000000000000000000000000000000000000000000000000000000281526004018082600a0b815260200191505060206040518083038186803b158015611a1e57600080fd5b505af4158015611a32573d6000803e3d6000fd5b505050506040513d6020811015611a4857600080fd5b8101908080519060200190929190505050600f0b73__RealMath______________________________63b69721469091836040518363ffffffff167c01000000000000000000000000000000000000000000000000000000000281526004018083600f0b600f0b815260200182600f0b600f0b81526020019250505060206040518083038186803b158015611adc57600080fd5b505af4158015611af0573d6000803e3d6000fd5b505050506040513d6020811015611b0657600080fd5b8101908080519060200190929190505050915050915091565b611b2761066e565b1515611b3257600080fd5b611b3b816120fb565b50565b611b466123a3565b602060405190810160405280600285600001518560405160200180836000191660001916815260200182805190602001908083835b602083101515611ba05780518252602082019150602081019050602083039250611b7b565b6001836020036101000a038019825116818451168082178552505050505050905001925050506040516020818303038152906040526040518082805190602001908083835b602083101515611c0a5780518252602082019150602081019050602083039250611be5565b6001836020036101000a0380198251168184511680821785525050505050509050019150506020604051808303816000865af1158015611c4e573d6000803e3d6000fd5b5050506040513d6020811015611c6357600080fd5b810190808051906020019092919050505060001916815250905092915050565b600082611c8f856121f5565b600f0b73__RealMath______________________________63b697214690918686036040518363ffffffff167c01000000000000000000000000000000000000000000000000000000000281526004018083600f0b600f0b815260200182600f0b600f0b81526020019250505060206040518083038186803b158015611d1457600080fd5b505af4158015611d28573d6000803e3d6000fd5b505050506040513d6020811015611d3e57600080fd5b81019080805190602001909291905050500190509392505050565b60008060010260018002611d6c846122b7565b1660001916119050919050565b600073__RealMath______________________________6315dbfe2873__RealMath______________________________63f5a5d503866040518263ffffffff167c01000000000000000000000000000000000000000000000000000000000281526004018082600a0b600a0b815260200191505060206040518083038186803b158015611e0657600080fd5b505af4158015611e1a573d6000803e3d6000fd5b505050506040513d6020811015611e3057600080fd5b8101908080519060200190929190505050611e4a876121f5565b600f0b73__RealMath______________________________63b6972146909173__RealMath______________________________63f5a5d5038a6040518263ffffffff167c01000000000000000000000000000000000000000000000000000000000281526004018082600a0b600a0b815260200191505060206040518083038186803b158015611eda57600080fd5b505af4158015611eee573d6000803e3d6000fd5b505050506040513d6020811015611f0457600080fd5b810190808051906020019092919050505073__RealMath______________________________63f5a5d5038a6040518263ffffffff167c01000000000000000000000000000000000000000000000000000000000281526004018082600a0b600a0b815260200191505060206040518083038186803b158015611f8657600080fd5b505af4158015611f9a573d6000803e3d6000fd5b505050506040513d6020811015611fb057600080fd5b8101908080519060200190929190505050036040518363ffffffff167c01000000000000000000000000000000000000000000000000000000000281526004018083600f0b600f0b815260200182600f0b600f0b81526020019250505060206040518083038186803b15801561202557600080fd5b505af4158015612039573d6000803e3d6000fd5b505050506040513d602081101561204f57600080fd5b8101908080519060200190929190505050016040518263ffffffff167c01000000000000000000000000000000000000000000000000000000000281526004018082600f0b600f0b815260200191505060206040518083038186803b1580156120b757600080fd5b505af41580156120cb573d6000803e3d6000fd5b505050506040513d60208110156120e157600080fd5b810190808051906020019092919050505090509392505050565b600073ffffffffffffffffffffffffffffffffffffffff168173ffffffffffffffffffffffffffffffffffffffff161415151561213757600080fd5b8073ffffffffffffffffffffffffffffffffffffffff166000809054906101000a900473ffffffffffffffffffffffffffffffffffffffff1673ffffffffffffffffffffffffffffffffffffffff167f8be0079c531659141344cd1fd0a4f28419497f9722a3daafe3b4186f6b6457e060405160405180910390a3806000806101000a81548173ffffffffffffffffffffffffffffffffffffffff021916908373ffffffffffffffffffffffffffffffffffffffff16021790555050565b60006122008261238d565b600f0b73__RealMath______________________________6384f1bd4e90916040518263ffffffff167c01000000000000000000000000000000000000000000000000000000000281526004018082600f0b600f0b815260200191505060206040518083038186803b15801561227557600080fd5b505af4158015612289573d6000803e3d6000fd5b505050506040513d602081101561229f57600080fd5b81019080805190602001909291905050509050919050565b6000600282600001516040516020018082600019166000191681526020019150506040516020818303038152906040526040518082805190602001908083835b60208310151561231c57805182526020820191506020810190506020830392506122f7565b6001836020036101000a0380198251168184511680821785525050505050509050019150506020604051808303816000865af1158015612360573d6000803e3d6000fd5b5050506040513d602081101561237557600080fd5b81019080805190602001909291905050509050919050565b6000612398826122b7565b600190049050919050565b6020604051908101604052806000801916815250905600a165627a7a72305820e2b2f9eef88a0ecf3ce5d0700217aaf04a5d95258780cbe711da91cca7075e5d0029",
  "source": "pragma solidity ^0.4.24;\n\nimport \"./RNG.sol\";\nimport \"./RealMath.sol\";\n\nimport \"./AccessControl.sol\";\nimport \"./ControlledAccess.sol\";\n\nimport \"./MacroverseStarGenerator.sol\";\n\n/**\n * Provides extra methods not present in the original MacroverseStarGenerator\n * that generate new properties of the galaxy's stars. Meant to be deployed and\n * queried alongside the original.\n *\n * Permission to call methods on this contract is regulated by a configurable\n * AccessControl contract. One such set of terms might be to require that the\n * account initiating a transaction have a certain minimum MRV token balance.\n *\n * The owner of this contract reserves the right to supersede it with a new\n * version, and to modify the terms for accessing this contract, at any time,\n * for any reason, and without notice. This includes the right to indefinitely\n * or permanently suspend or terminate access to this contract for any person,\n * account, or other contract, or for all persons, accounts, or other\n * contracts. The owner also reserves the right to not do any of the above.\n */\ncontract MacroverseStarGeneratorPatch1 is ControlledAccess {\n    // TODO: RNG doesn't get linked against because we can't pass the struct to the library...\n    using RNG for *;\n    using RealMath for *;\n    // No SafeMath or it might confuse RealMath\n\n    /**\n     * How many fractional bits are there?\n     */\n    int256 constant REAL_FBITS = 40;\n    \n    /**\n     * What's the first non-fractional bit\n     */\n    int128 constant REAL_ONE = int128(1) << REAL_FBITS;\n\n    /**\n     * What's the last fractional bit?\n     */\n    int128 constant REAL_HALF = REAL_ONE >> 1;\n\n    /**\n     * It is useful to have Pi around.\n     * We can't pull it in from the library.\n     */\n    int128 constant REAL_PI = 3454217652358;\n\n    /**\n     * Deploy a new copy of the patch generator.\n     * Use the contract at the given address to regulate access.\n     */\n    constructor(address accessControlAddress) ControlledAccess(AccessControl(accessControlAddress)) public {\n        // Nothing to do!\n    }\n\n    /**\n     * If the object has any planets at all, get the planet count. Will return\n     * nonzero numbers always, so make sure to check getObjectHasPlanets in the\n     * Star Generator.\n     */\n    function getObjectPlanetCount(bytes32 starSeed, MacroverseStarGenerator.ObjectClass objectClass,\n        MacroverseStarGenerator.SpectralType spectralType) public view onlyControlledAccess returns (uint16) {\n        \n        RNG.RandNode memory node = RNG.RandNode(starSeed).derive(\"planetcount\");\n        \n        \n        uint16 limit;\n\n        if (objectClass == MacroverseStarGenerator.ObjectClass.MainSequence) {\n            if (spectralType == MacroverseStarGenerator.SpectralType.TypeO ||\n                spectralType == MacroverseStarGenerator.SpectralType.TypeB) {\n                \n                limit = 5;\n            } else if (spectralType == MacroverseStarGenerator.SpectralType.TypeA) {\n                limit = 7;\n            } else if (spectralType == MacroverseStarGenerator.SpectralType.TypeF ||\n                spectralType == MacroverseStarGenerator.SpectralType.TypeG ||\n                spectralType == MacroverseStarGenerator.SpectralType.TypeK) {\n                \n                limit = 12;\n            } else if (spectralType == MacroverseStarGenerator.SpectralType.TypeM) {\n                limit = 14;\n            }\n        } else if (objectClass == MacroverseStarGenerator.ObjectClass.Giant) {\n            limit = 2;\n        } else if (objectClass == MacroverseStarGenerator.ObjectClass.Supergiant) {\n            limit = 2;\n        } else {\n           // Black hole, neutron star, or white dwarf\n           limit = 2;\n        }\n        \n        uint16 roll = uint16(node.getIntBetween(1, int88(limit + 1)));\n        \n        return roll;\n    }\n\n    /**\n     * Compute the luminosity of a stellar object given its mass and class.\n     * We didn't define this in the star generator, but we need it for the planet generator.\n     *\n     * Returns luminosity in solar luminosities.\n     */\n    function getObjectLuminosity(bytes32 starSeed, MacroverseStarGenerator.ObjectClass objectClass, int128 realObjectMass) public view onlyControlledAccess returns (int128) {\n        \n        RNG.RandNode memory node = RNG.RandNode(starSeed);\n\n        int128 realBaseLuminosity;\n        if (objectClass == MacroverseStarGenerator.ObjectClass.BlackHole) {\n            // Black hole luminosity is going to be from the accretion disk.\n            // See <https://astronomy.stackexchange.com/q/12567>\n            // We'll return pretty much whatever and user code can back-fill the accretion disk if any.\n            if(node.derive(\"accretiondisk\").getBool()) {\n                // These aren't absurd masses; they're on the order of world annual food production per second.\n                realBaseLuminosity = node.derive(\"luminosity\").getRealBetween(RealMath.toReal(1), RealMath.toReal(5));\n            } else {\n                // No accretion disk\n                realBaseLuminosity = 0;\n            }\n        } else if (objectClass == MacroverseStarGenerator.ObjectClass.NeutronStar) {\n            // These will be dim and not really mass-related\n            realBaseLuminosity = node.derive(\"luminosity\").getRealBetween(RealMath.fraction(1, 20), RealMath.fraction(2, 10));\n        } else if (objectClass == MacroverseStarGenerator.ObjectClass.WhiteDwarf) {\n            // These are also dim\n            realBaseLuminosity = RealMath.pow(realObjectMass.mul(REAL_HALF), RealMath.fraction(35, 10));\n        } else {\n            // Normal stars follow a normal mass-lumoinosity relationship\n            realBaseLuminosity = RealMath.pow(realObjectMass, RealMath.fraction(35, 10));\n        }\n        \n        // Perturb the generated luminosity for fun\n        return realBaseLuminosity.mul(node.derive(\"luminosityScale\").getRealBetween(RealMath.fraction(95, 100), RealMath.fraction(105, 100)));\n    }\n\n    /**\n     * Get the inner and outer boundaries of the habitable zone for a star, in meters, based on its luminosity in solar luminosities.\n     * This is just a rule-of-thumb; actual habitability is going to depend on atmosphere (see Venus, Mars)\n     */\n    function getObjectHabitableZone(int128 realLuminosity) public view onlyControlledAccess returns (int128 realInnerRadius, int128 realOuterRadius) {\n        // Light per unit area scales with the square of the distance, so if we move twice as far out we get 1/4 the light.\n        // So if our star is half as bright as the sun, the habitable zone radius is 1/sqrt(2) = sqrt(1/2) as big\n        // So we scale this by the square root of the luminosity.\n        int128 realScale = RealMath.sqrt(realLuminosity);\n        // Wikipedia says nobody knows the bounds for Sol, but let's say 0.75 to 2.0 AU to be nice and round and also sort of average\n        realInnerRadius = RealMath.toReal(112198400000).mul(realScale);\n        realOuterRadius = RealMath.toReal(299195700000).mul(realScale);\n    }\n\n    /**\n     * Get the Y and X axis angles for the rotational axis of the object, relative to galactic up.\n     *\n     * Defines a vector normal to the XY plane for the star system's local\n     * coordinates, relative to which orbital inclinations are measured.\n     *\n     * The object's rotation axis starts straight up towards galactic +Z.\n     * Then the object is rotated in Y, around the axis by the Y angle.\n     * Then it is rotated forward (what would be toward the viewer) in the\n     * object's transformed X by the X axis angle.\n     * Both angles are in radians.\n     * The X angle is never negative, because the Y angle would just be the opposite direction.\n     * It is also never greater than Pi, because otherwise we would just measure around the other way.\n     *\n     * Most users won't need this unless they want to be able to work out\n     * directions from things in one system to other systems.\n     */\n    function getObjectYXAxisAngles(bytes32 seed) public view onlyControlledAccess returns (int128 realYRadians, int128 realXRadians) {\n        // The Y angle should be uniform over all angles.\n        realYRadians = RNG.RandNode(seed).derive(\"axisy\").getRealBetween(-REAL_PI, REAL_PI);\n\n        // The X angle will also be uniform from 0 to pi.\n        // This makes us pick a point in a flat 2d angle plane, so we will, on the sphere, have more density towards the poles.\n        // See http://corysimon.github.io/articles/uniformdistn-on-sphere/\n        // Being uniform on the sphere would require some trig, and non-uniformity makes sense since the galaxy has a preferred plane.\n        realXRadians = RNG.RandNode(seed).derive(\"axisx\").getRealBetween(0, REAL_PI);\n        \n    }\n\n    \n\n}\n \n",
  "sourcePath": "/Users/anovak/Documents/Workspace/macroverse/contracts/MacroverseStarGeneratorPatch1.sol",
  "compiler": {
    "name": "solc",
    "version": "0.4.24+commit.e67f0147.Emscripten.clang"
  },
  "schemaVersion": "2.0.1",
  "updatedAt": "2019-10-18T01:12:26.692Z"
}