{
  "contractName": "MacroverseExistenceChecker",
  "abi": [
    {
      "inputs": [
        {
          "name": "starGeneratorAddress",
          "type": "address"
        },
        {
          "name": "starGeneratorPatchAddress",
          "type": "address"
        },
        {
          "name": "systemGeneratorAddress",
          "type": "address"
        },
        {
          "name": "moonGeneratorAddress",
          "type": "address"
        }
      ],
      "payable": false,
      "stateMutability": "nonpayable",
      "type": "constructor"
    },
    {
      "constant": true,
      "inputs": [
        {
          "name": "sectorX",
          "type": "int16"
        },
        {
          "name": "sectorY",
          "type": "int16"
        },
        {
          "name": "sectorZ",
          "type": "int16"
        }
      ],
      "name": "sectorExists",
      "outputs": [
        {
          "name": "",
          "type": "bool"
        }
      ],
      "payable": false,
      "stateMutability": "pure",
      "type": "function"
    },
    {
      "constant": true,
      "inputs": [
        {
          "name": "sectorX",
          "type": "int16"
        },
        {
          "name": "sectorY",
          "type": "int16"
        },
        {
          "name": "sectorZ",
          "type": "int16"
        },
        {
          "name": "system",
          "type": "uint16"
        }
      ],
      "name": "systemExists",
      "outputs": [
        {
          "name": "",
          "type": "bool"
        }
      ],
      "payable": false,
      "stateMutability": "view",
      "type": "function"
    },
    {
      "constant": true,
      "inputs": [
        {
          "name": "sectorX",
          "type": "int16"
        },
        {
          "name": "sectorY",
          "type": "int16"
        },
        {
          "name": "sectorZ",
          "type": "int16"
        },
        {
          "name": "system",
          "type": "uint16"
        },
        {
          "name": "planet",
          "type": "uint16"
        },
        {
          "name": "moon",
          "type": "uint16"
        }
      ],
      "name": "moonExistsVerbose",
      "outputs": [
        {
          "name": "exists",
          "type": "bool"
        },
        {
          "name": "planetSeed",
          "type": "bytes32"
        },
        {
          "name": "planetClass",
          "type": "uint8"
        }
      ],
      "payable": false,
      "stateMutability": "view",
      "type": "function"
    },
    {
      "constant": true,
      "inputs": [
        {
          "name": "sectorX",
          "type": "int16"
        },
        {
          "name": "sectorY",
          "type": "int16"
        },
        {
          "name": "sectorZ",
          "type": "int16"
        },
        {
          "name": "system",
          "type": "uint16"
        },
        {
          "name": "planet",
          "type": "uint16"
        }
      ],
      "name": "planetExists",
      "outputs": [
        {
          "name": "",
          "type": "bool"
        }
      ],
      "payable": false,
      "stateMutability": "view",
      "type": "function"
    },
    {
      "constant": true,
      "inputs": [
        {
          "name": "sectorX",
          "type": "int16"
        },
        {
          "name": "sectorY",
          "type": "int16"
        },
        {
          "name": "sectorZ",
          "type": "int16"
        },
        {
          "name": "system",
          "type": "uint16"
        },
        {
          "name": "planet",
          "type": "uint16"
        },
        {
          "name": "moon",
          "type": "uint16"
        }
      ],
      "name": "moonExists",
      "outputs": [
        {
          "name": "",
          "type": "bool"
        }
      ],
      "payable": false,
      "stateMutability": "view",
      "type": "function"
    },
    {
      "constant": true,
      "inputs": [
        {
          "name": "token",
          "type": "uint256"
        }
      ],
      "name": "exists",
      "outputs": [
        {
          "name": "",
          "type": "bool"
        }
      ],
      "payable": false,
      "stateMutability": "view",
      "type": "function"
    }
  ],
  "bytecode": "0x608060405234801561001057600080fd5b5060405160808061152b83398101806040528101908080519060200190929190805190602001909291908051906020019092919080519060200190929190505050836000806101000a81548173ffffffffffffffffffffffffffffffffffffffff021916908373ffffffffffffffffffffffffffffffffffffffff16021790555082600160006101000a81548173ffffffffffffffffffffffffffffffffffffffff021916908373ffffffffffffffffffffffffffffffffffffffff16021790555081600260006101000a81548173ffffffffffffffffffffffffffffffffffffffff021916908373ffffffffffffffffffffffffffffffffffffffff16021790555080600360006101000a81548173ffffffffffffffffffffffffffffffffffffffff021916908373ffffffffffffffffffffffffffffffffffffffff160217905550505050506113c4806101676000396000f300608060405260043610610078576000357c0100000000000000000000000000000000000000000000000000000000900463ffffffff168063433b6c451461007d5780634d063587146100ed5780634f558e791461014f5780635bb5a2da14610194578063718501f114610220578063dab38782146102d0575b600080fd5b34801561008957600080fd5b506100d3600480360381019080803560010b9060200190929190803560010b9060200190929190803560010b9060200190929190803561ffff16906020019092919050505061034e565b604051808215151515815260200191505060405180910390f35b3480156100f957600080fd5b50610135600480360381019080803560010b9060200190929190803560010b9060200190929190803560010b906020019092919050505061046c565b604051808215151515815260200191505060405180910390f35b34801561015b57600080fd5b5061017a60048036038101908080359060200190929190505050610519565b604051808215151515815260200191505060405180910390f35b3480156101a057600080fd5b50610206600480360381019080803560010b9060200190929190803560010b9060200190929190803560010b9060200190929190803561ffff169060200190929190803561ffff169060200190929190803561ffff169060200190929190505050610a53565b604051808215151515815260200191505060405180910390f35b34801561022c57600080fd5b50610292600480360381019080803560010b9060200190929190803560010b9060200190929190803560010b9060200190929190803561ffff169060200190929190803561ffff169060200190929190803561ffff169060200190929190505050610a76565b604051808415151515815260200183600019166000191681526020018260098111156102ba57fe5b60ff168152602001935050505060405180910390f35b3480156102dc57600080fd5b50610334600480360381019080803560010b9060200190929190803560010b9060200190929190803560010b9060200190929190803561ffff169060200190929190803561ffff169060200190929190505050610d8a565b604051808215151515815260200191505060405180910390f35b600061035b85858561046c565b151561036a5760009050610464565b6000809054906101000a900473ffffffffffffffffffffffffffffffffffffffff1673ffffffffffffffffffffffffffffffffffffffff1663591b5a888686866040518463ffffffff167c0100000000000000000000000000000000000000000000000000000000028152600401808460010b60010b81526020018360010b60010b81526020018260010b60010b81526020019350505050602060405180830381600087803b15801561041c57600080fd5b505af1158015610430573d6000803e3d6000fd5b505050506040513d602081101561044657600080fd5b810190808051906020019092919050505061ffff168261ffff161090505b949350505050565b600061271060010b8460010b13156104875760009050610512565b61271060010b8360010b13156104a05760009050610512565b61271060010b8260010b13156104b95760009050610512565b61271060000360010b8460010b12156104d55760009050610512565b61271060000360010b8360010b12156104f15760009050610512565b61271060000360010b8260010b121561050d5760009050610512565b600190505b9392505050565b6000806000806000806000806000806000806105348d610dab565b9a5061053f8d610db8565b99509950995060008b1415610560576105598a8a8a61046c565b9b50610a43565b6105698d610df3565b965060018b1415610587576105808a8a8a8a61034e565b9b50610a43565b6105908d610e0f565b955061059b8d610e2d565b945060028b14156105ba576105b38a8a8a8a8a610d8a565b9b50610a43565b60038b14156105d8576105d18a8a8a8a8a8a610a53565b9b50610a43565b6105e18d610e4e565b15156105e957fe5b61ffff80168561ffff16141561081c576106068a8a8a8a8a610e76565b8094508195508296505050508315156106225760009b50610a43565b600260009054906101000a900473ffffffffffffffffffffffffffffffffffffffff1673ffffffffffffffffffffffffffffffffffffffff1663b8c1843684886040518363ffffffff167c01000000000000000000000000000000000000000000000000000000000281526004018083600019166000191681526020018261ffff1661ffff16815260200192505050602060405180830381600087803b1580156106cb57600080fd5b505af11580156106df573d6000803e3d6000fd5b505050506040513d60208110156106f557600080fd5b8101908080519060200190929190505050925060098081111561071457fe5b600260009054906101000a900473ffffffffffffffffffffffffffffffffffffffff1673ffffffffffffffffffffffffffffffffffffffff1663cc841c1d8589866040518463ffffffff167c01000000000000000000000000000000000000000000000000000000000281526004018084600019166000191681526020018361ffff1661ffff1681526020018261ffff1661ffff1681526020019350505050602060405180830381600087803b1580156107cd57600080fd5b505af11580156107e1573d6000803e3d6000fd5b505050506040513d60208110156107f757600080fd5b8101908080519060200190929190505050600981111561081357fe5b14159b50610a43565b61082a8a8a8a8a8a8a610a76565b8093508195508296505050508315156108465760009b50610a43565b600260009054906101000a900473ffffffffffffffffffffffffffffffffffffffff1673ffffffffffffffffffffffffffffffffffffffff1663b8c1843684876040518363ffffffff167c01000000000000000000000000000000000000000000000000000000000281526004018083600019166000191681526020018261ffff1661ffff16815260200192505050602060405180830381600087803b1580156108ef57600080fd5b505af1158015610903573d6000803e3d6000fd5b505050506040513d602081101561091957600080fd5b810190808051906020019092919050505092506008600981111561093957fe5b600360009054906101000a900473ffffffffffffffffffffffffffffffffffffffff1673ffffffffffffffffffffffffffffffffffffffff1663a1ea93338386896040518463ffffffff167c0100000000000000000000000000000000000000000000000000000000028152600401808460098111156109b557fe5b60ff16815260200183600019166000191681526020018261ffff1661ffff1681526020019350505050602060405180830381600087803b1580156109f857600080fd5b505af1158015610a0c573d6000803e3d6000fd5b505050506040513d6020811015610a2257600080fd5b81019080805190602001909291905050506009811115610a3e57fe5b14159b505b5050505050505050505050919050565b600080610a64888888888888610a76565b50509050809150509695505050505050565b6000806000806000806000610a8e8d8d8d8d8d610e76565b935093509350831515610aa45760009650610d7a565b600260009054906101000a900473ffffffffffffffffffffffffffffffffffffffff1673ffffffffffffffffffffffffffffffffffffffff1663b8c18436848b6040518363ffffffff167c01000000000000000000000000000000000000000000000000000000000281526004018083600019166000191681526020018261ffff1661ffff16815260200192505050602060405180830381600087803b158015610b4d57600080fd5b505af1158015610b61573d6000803e3d6000fd5b505050506040513d6020811015610b7757600080fd5b81019080805190602001909291905050509550600260009054906101000a900473ffffffffffffffffffffffffffffffffffffffff1673ffffffffffffffffffffffffffffffffffffffff1663cc841c1d878b856040518463ffffffff167c01000000000000000000000000000000000000000000000000000000000281526004018084600019166000191681526020018361ffff1661ffff1681526020018261ffff1661ffff1681526020019350505050602060405180830381600087803b158015610c4357600080fd5b505af1158015610c57573d6000803e3d6000fd5b505050506040513d6020811015610c6d57600080fd5b81019080805190602001909291905050509450600360009054906101000a900473ffffffffffffffffffffffffffffffffffffffff1673ffffffffffffffffffffffffffffffffffffffff16632b0837b487876040518363ffffffff167c0100000000000000000000000000000000000000000000000000000000028152600401808360001916600019168152602001826009811115610d0957fe5b60ff16815260200192505050602060405180830381600087803b158015610d2f57600080fd5b505af1158015610d43573d6000803e3d6000fd5b505050506040513d6020811015610d5957600080fd5b810190808051906020019092919050505090508061ffff168861ffff161096505b5050505096509650969350505050565b600080610d9a8787878787610e76565b505090508091505095945050505050565b6000601f82169050919050565b6000806000610dc8846005611383565b9250610dd8846010600501611383565b9150610dea8460108060050101611383565b90509193909250565b6000610e088260108060106005010101611383565b9050919050565b6000610e2682601080601080600501010101611383565b9050919050565b6000610e4782601080601080601060050101010101611383565b9050919050565b600080610e5a83610dab565b905060048110158015610e6e5750601f8111155b915050919050565b6000806000806000610e8a8a8a8a8a61034e565b1515610e995760009450611376565b6000809054906101000a900473ffffffffffffffffffffffffffffffffffffffff1673ffffffffffffffffffffffffffffffffffffffff1663ee8f56818b8b8b8b6040518563ffffffff167c0100000000000000000000000000000000000000000000000000000000028152600401808560010b60010b81526020018460010b60010b81526020018360010b60010b81526020018261ffff1661ffff168152602001945050505050602060405180830381600087803b158015610f5b57600080fd5b505af1158015610f6f573d6000803e3d6000fd5b505050506040513d6020811015610f8557600080fd5b810190808051906020019092919050505093506000809054906101000a900473ffffffffffffffffffffffffffffffffffffffff1673ffffffffffffffffffffffffffffffffffffffff16632b3a3d0a856040518263ffffffff167c0100000000000000000000000000000000000000000000000000000000028152600401808260001916600019168152602001915050602060405180830381600087803b15801561103057600080fd5b505af1158015611044573d6000803e3d6000fd5b505050506040513d602081101561105a57600080fd5b810190808051906020019092919050505091506000809054906101000a900473ffffffffffffffffffffffffffffffffffffffff1673ffffffffffffffffffffffffffffffffffffffff1663541a9fc185846040518363ffffffff167c01000000000000000000000000000000000000000000000000000000000281526004018083600019166000191681526020018260058111156110f557fe5b60ff16815260200192505050602060405180830381600087803b15801561111b57600080fd5b505af115801561112f573d6000803e3d6000fd5b505050506040513d602081101561114557600080fd5b810190808051906020019092919050505090506000809054906101000a900473ffffffffffffffffffffffffffffffffffffffff1673ffffffffffffffffffffffffffffffffffffffff1663718909fd8584846040518463ffffffff167c01000000000000000000000000000000000000000000000000000000000281526004018084600019166000191681526020018360058111156111e157fe5b60ff1681526020018260078111156111f557fe5b60ff1681526020019350505050602060405180830381600087803b15801561121c57600080fd5b505af1158015611230573d6000803e3d6000fd5b505050506040513d602081101561124657600080fd5b81019080805190602001909291905050501561137057600160009054906101000a900473ffffffffffffffffffffffffffffffffffffffff1673ffffffffffffffffffffffffffffffffffffffff1663bfd4fac18584846040518463ffffffff167c01000000000000000000000000000000000000000000000000000000000281526004018084600019166000191681526020018360058111156112e657fe5b60ff1681526020018260078111156112fa57fe5b60ff1681526020019350505050602060405180830381600087803b15801561132157600080fd5b505af1158015611335573d6000803e3d6000fd5b505050506040513d602081101561134b57600080fd5b810190808051906020019092919050505092508261ffff168661ffff16109450611375565b600094505b5b5050955095509592505050565b60008160ff16839060020a90049050929150505600a165627a7a72305820e9663e1481be41e165e141ad7df14a876f103dab6b2dbb110edeea08fd88345f0029",
  "source": "pragma solidity ^0.4.24;\n\nimport \"openzeppelin-solidity/contracts/ownership/Ownable.sol\";\nimport \"./HasNoEther.sol\";\nimport \"./HasNoContracts.sol\";\n\nimport \"./MacroverseNFTUtils.sol\";\nimport \"./MacroverseStarGenerator.sol\";\nimport \"./MacroverseStarGeneratorPatch1.sol\";\nimport \"./MacroverseSystemGenerator.sol\";\nimport \"./MacroverseMoonGenerator.sol\";\nimport \"./Macroverse.sol\";\n\n/**\n * The MacroverseExistenceChecker queries Macroverse generator contracts to\n * determine if a particular thing (e.g. the nth planet of such-and-such a\n * star) exists in the Macroverse world.\n *\n * It does not need to be ControlledAccess because the Macroverse contracts it\n * calls into are. It does not have defenses against receiving stuck Ether and\n * tokens because it is not intended to be involved in end-user token\n * transactions in any capacity.\n *\n * Serves as an example for how Macroverse can be queried from on-chain logic.\n */\ncontract MacroverseExistenceChecker {\n\n    using MacroverseNFTUtils for uint256;\n\n    // These constants are shared with the TokenUtils library\n\n    // Define the types of tokens that can exist\n    uint256 constant TOKEN_TYPE_SECTOR = 0;\n    uint256 constant TOKEN_TYPE_SYSTEM = 1;\n    uint256 constant TOKEN_TYPE_PLANET = 2;\n    uint256 constant TOKEN_TYPE_MOON = 3;\n    // Land tokens are a range of type field values.\n    // Land tokens of the min type use one trixel field\n    uint256 constant TOKEN_TYPE_LAND_MIN = 4;\n    uint256 constant TOKEN_TYPE_LAND_MAX = 31;\n\n    // Sentinel for no moon used (for land on a planet)\n    uint16 constant MOON_NONE = 0xFFFF;\n\n    // These constants are shared with the generator contracts\n\n    // How far out does the sector system extend?\n    int16 constant MAX_SECTOR = 10000;\n\n    //////////////\n    // Contract state\n    //////////////\n\n    // Keep track of all of the generator contract addresses\n    MacroverseStarGenerator private starGenerator;\n    MacroverseStarGeneratorPatch1 private starGeneratorPatch;\n    MacroverseSystemGenerator private systemGenerator;\n    MacroverseMoonGenerator private moonGenerator;\n\n    /**\n     * Deploy a new copy of the Macroverse Existence Checker.\n     *\n     * The given generator contracts will be queried.\n     */\n    constructor(address starGeneratorAddress, address starGeneratorPatchAddress,\n        address systemGeneratorAddress, address moonGeneratorAddress) public {\n\n        // Remember where all the generators are\n        starGenerator = MacroverseStarGenerator(starGeneratorAddress);\n        starGeneratorPatch = MacroverseStarGeneratorPatch1(starGeneratorPatchAddress);\n        systemGenerator = MacroverseSystemGenerator(systemGeneratorAddress);\n        moonGenerator = MacroverseMoonGenerator(moonGeneratorAddress);\n        \n    }\n\n    /**\n     * Return true if a sector with the given coordinates exists in the\n     * Macroverse universe, and false otherwise.\n     */\n    function sectorExists(int16 sectorX, int16 sectorY, int16 sectorZ) public pure returns (bool) {\n        // Enforce absolute bounds.\n        if (sectorX > MAX_SECTOR) return false;\n        if (sectorY > MAX_SECTOR) return false;\n        if (sectorZ > MAX_SECTOR) return false;\n        if (sectorX < -MAX_SECTOR) return false;\n        if (sectorY < -MAX_SECTOR) return false;\n        if (sectorZ < -MAX_SECTOR) return false;\n\n        return true;\n    }\n\n    /**\n     * Determine if the given system (which might be a star, black hole, etc.)\n     * exists in the given sector. If the sector doesn't exist, returns false.\n     */\n    function systemExists(int16 sectorX, int16 sectorY, int16 sectorZ, uint16 system) public view returns (bool) {\n        if (!sectorExists(sectorX, sectorY, sectorZ)) {\n            // The system can't exist if the sector doesn't.\n            return false;\n        }\n\n        // If the sector does exist, the system exists if it is in bounds\n        return (system < starGenerator.getSectorObjectCount(sectorX, sectorY, sectorZ));\n    }\n\n\n    /**\n     * Determine if the given planet exists, and if so returns some information\n     * generated about it for re-use.\n     */\n    function planetExistsVerbose(int16 sectorX, int16 sectorY, int16 sectorZ, uint16 system, uint16 planet) internal view returns (bool exists,\n        bytes32 systemSeed, uint16 totalPlanets) {\n\n        if (!systemExists(sectorX, sectorY, sectorZ, system)) {\n            // The planet can't exist if the parent system doesn't.\n            exists = false;\n        } else {\n            // Get the system seed for the parent star/black hole/whatever\n            // TODO: unify with above to save on derives?\n            systemSeed = starGenerator.getSectorObjectSeed(sectorX, sectorY, sectorZ, system);\n\n            // Get class and spectral type\n            MacroverseStarGenerator.ObjectClass systemClass = starGenerator.getObjectClass(systemSeed);\n            MacroverseStarGenerator.SpectralType systemType = starGenerator.getObjectSpectralType(systemSeed, systemClass);\n\n            if (starGenerator.getObjectHasPlanets(systemSeed, systemClass, systemType)) {\n                // There are some planets. Are there enough?\n                totalPlanets = starGeneratorPatch.getObjectPlanetCount(systemSeed, systemClass, systemType);\n                exists = (planet < totalPlanets);\n            } else {\n                // This system doesn't actually have planets\n                exists = false;\n            }\n        }\n    }\n\n    /**\n     * Determine if the given moon exists, and if so returns some information\n     * generated about it for re-use.\n     */\n    function moonExistsVerbose(int16 sectorX, int16 sectorY, int16 sectorZ, uint16 system, uint16 planet, uint16 moon) public view returns (bool exists,\n        bytes32 planetSeed, Macroverse.WorldClass planetClass) {\n        \n        (bool havePlanet, bytes32 systemSeed, uint16 totalPlanets) = planetExistsVerbose(sectorX, sectorY, sectorZ, system, planet);\n\n        if (!havePlanet) {\n            // Moon can't exist without its planet\n            exists = false;\n        } else {\n\n            // Otherwise, work out the seed of the planet.\n            planetSeed = systemGenerator.getWorldSeed(systemSeed, planet);\n            \n            // Use it to get the class of the planet, which is important for knowing if there is a moon\n            planetClass = systemGenerator.getPlanetClass(planetSeed, planet, totalPlanets);\n\n            // Count its moons\n            uint16 moonCount = moonGenerator.getPlanetMoonCount(planetSeed, planetClass);\n\n            // This moon exists if it is less than the count\n            exists = (moon < moonCount);\n        }\n    }\n\n    /**\n     * Determine if the given planet exists.\n     */\n    function planetExists(int16 sectorX, int16 sectorY, int16 sectorZ, uint16 system, uint16 planet) public view returns (bool) {\n        // Get only one return value. Ignore the others with these extra commas\n        (bool exists, , ) = planetExistsVerbose(sectorX, sectorY, sectorZ, system, planet);\n\n        // Caller only cares about existence\n        return exists;\n    }\n\n    /**\n     * Determine if the given moon exists.\n     */\n    function moonExists(int16 sectorX, int16 sectorY, int16 sectorZ, uint16 system, uint16 planet, uint16 moon) public view returns (bool) {\n        // Get only the existence flag\n        (bool exists, , ) = moonExistsVerbose(sectorX, sectorY, sectorZ, system, planet, moon);\n    \n        // Return it\n        return exists;\n    }\n\n    /**\n     * Determine if the thing referred to by the given packed NFT token number\n     * exists.\n     *\n     * Token is assumed to be canonical/valid. Use MacroverseNFTUtils\n     * tokenIsCanonical() to validate it first.\n     */\n    function exists(uint256 token) public view returns (bool) {\n        // Get the type\n        uint256 tokenType = token.getTokenType();\n\n        // Unpack the sector. There's always a sector.\n        (int16 sectorX, int16 sectorY, int16 sectorZ) = token.getTokenSector();\n\n        if (tokenType == TOKEN_TYPE_SECTOR) {\n            // Check if the requested sector exists\n            return sectorExists(sectorX, sectorY, sectorZ);\n        }\n\n        // There must be a system number\n        uint16 system = token.getTokenSystem();\n\n        if (tokenType == TOKEN_TYPE_SYSTEM) {\n            // Check if the requested system exists\n            return systemExists(sectorX, sectorY, sectorZ, system);\n        }\n\n        // There must be a planet number\n        uint16 planet = token.getTokenPlanet();\n\n        // And there may be a moon\n        uint16 moon = token.getTokenMoon();\n\n        if (tokenType == TOKEN_TYPE_PLANET) {\n            // We exist if the planet exists.\n            // TODO: maybe check for ring/asteroid field types and don't let their land exist at all?\n            return planetExists(sectorX, sectorY, sectorZ, system, planet);\n        }\n\n        if (tokenType == TOKEN_TYPE_MOON) {\n             // We exist if the moon exists\n            return moonExists(sectorX, sectorY, sectorZ, system, planet, moon);\n        }\n\n        // Otherwise it must be land.\n        assert(token.tokenIsLand());\n\n        // We exist if the planet or moon exists and isn't a ring or asteroid belt\n        // We need the parent existence flag\n        bool haveParent;\n        // We will need a seed scratch.\n        bytes32 seed;\n\n        if (moon == MOON_NONE) {\n            // Make sure the planet exists and isn't a ring\n            uint16 totalPlanets;\n            (haveParent, seed, totalPlanets) = planetExistsVerbose(sectorX, sectorY, sectorZ, system, planet);\n\n            if (!haveParent) {\n                return false;\n            }\n\n            // Get the planet's seed\n            seed = systemGenerator.getWorldSeed(seed, planet);\n\n            // Land exists if the planet isn't an AsteroidBelt\n            return systemGenerator.getPlanetClass(seed, planet, totalPlanets) != Macroverse.WorldClass.AsteroidBelt;\n\n        } else {\n            // Make sure the moon exists and isn't a ring\n            Macroverse.WorldClass planetClass;\n            (haveParent, seed, planetClass) = moonExistsVerbose(sectorX, sectorY, sectorZ, system, planet, moon);\n\n            if (!haveParent) {\n                return false;\n            }\n\n            // Get the moon's seed\n            seed = systemGenerator.getWorldSeed(seed, moon);\n\n            // Land exists if the moon isn't a Ring\n            return moonGenerator.getMoonClass(planetClass, seed, moon) != Macroverse.WorldClass.Ring;\n        }\n    }\n\n}\n",
  "sourcePath": "/Users/anovak/Documents/Workspace/macroverse/contracts/MacroverseExistenceChecker.sol",
  "compiler": {
    "name": "solc",
    "version": "0.4.24+commit.e67f0147.Emscripten.clang"
  },
  "schemaVersion": "2.0.1",
  "updatedAt": "2019-10-18T01:13:42.252Z"
}