{
  "contractName": "MacroverseSystemGenerator",
  "abi": [
    {
      "constant": true,
      "inputs": [],
      "name": "owner",
      "outputs": [
        {
          "name": "",
          "type": "address"
        }
      ],
      "payable": false,
      "stateMutability": "view",
      "type": "function"
    },
    {
      "constant": false,
      "inputs": [
        {
          "name": "newAccessControl",
          "type": "address"
        }
      ],
      "name": "changeAccessControl",
      "outputs": [],
      "payable": false,
      "stateMutability": "nonpayable",
      "type": "function"
    },
    {
      "constant": false,
      "inputs": [
        {
          "name": "newOwner",
          "type": "address"
        }
      ],
      "name": "transferOwnership",
      "outputs": [],
      "payable": false,
      "stateMutability": "nonpayable",
      "type": "function"
    },
    {
      "inputs": [
        {
          "name": "accessControlAddress",
          "type": "address"
        }
      ],
      "payable": false,
      "stateMutability": "nonpayable",
      "type": "constructor"
    },
    {
      "anonymous": false,
      "inputs": [
        {
          "indexed": true,
          "name": "previousOwner",
          "type": "address"
        },
        {
          "indexed": true,
          "name": "newOwner",
          "type": "address"
        }
      ],
      "name": "OwnershipTransferred",
      "type": "event"
    },
    {
      "constant": true,
      "inputs": [
        {
          "name": "starSeed",
          "type": "bytes32"
        },
        {
          "name": "objectClass",
          "type": "uint8"
        },
        {
          "name": "spectralType",
          "type": "uint8"
        }
      ],
      "name": "getObjectPlanetCount",
      "outputs": [
        {
          "name": "",
          "type": "int16"
        }
      ],
      "payable": false,
      "stateMutability": "view",
      "type": "function"
    },
    {
      "constant": true,
      "inputs": [
        {
          "name": "starSeed",
          "type": "bytes32"
        },
        {
          "name": "planetNumber",
          "type": "int16"
        }
      ],
      "name": "getPlanetSeed",
      "outputs": [
        {
          "name": "",
          "type": "bytes32"
        }
      ],
      "payable": false,
      "stateMutability": "view",
      "type": "function"
    },
    {
      "constant": true,
      "inputs": [
        {
          "name": "seed",
          "type": "bytes32"
        },
        {
          "name": "planetNumber",
          "type": "int16"
        },
        {
          "name": "totalPlanets",
          "type": "int16"
        }
      ],
      "name": "getPlanetClass",
      "outputs": [
        {
          "name": "",
          "type": "uint8"
        }
      ],
      "payable": false,
      "stateMutability": "view",
      "type": "function"
    },
    {
      "constant": true,
      "inputs": [
        {
          "name": "seed",
          "type": "bytes32"
        },
        {
          "name": "class",
          "type": "uint8"
        }
      ],
      "name": "getPlanetMass",
      "outputs": [
        {
          "name": "",
          "type": "int128"
        }
      ],
      "payable": false,
      "stateMutability": "view",
      "type": "function"
    },
    {
      "constant": true,
      "inputs": [
        {
          "name": "seed",
          "type": "bytes32"
        },
        {
          "name": "class",
          "type": "uint8"
        },
        {
          "name": "realPrevClearance",
          "type": "int128"
        }
      ],
      "name": "getPlanetPeriapsis",
      "outputs": [
        {
          "name": "",
          "type": "int128"
        }
      ],
      "payable": false,
      "stateMutability": "view",
      "type": "function"
    },
    {
      "constant": true,
      "inputs": [
        {
          "name": "seed",
          "type": "bytes32"
        },
        {
          "name": "class",
          "type": "uint8"
        },
        {
          "name": "realPeriapsis",
          "type": "int128"
        }
      ],
      "name": "getPlanetApoapsis",
      "outputs": [
        {
          "name": "",
          "type": "int128"
        }
      ],
      "payable": false,
      "stateMutability": "view",
      "type": "function"
    },
    {
      "constant": true,
      "inputs": [
        {
          "name": "seed",
          "type": "bytes32"
        },
        {
          "name": "class",
          "type": "uint8"
        },
        {
          "name": "realApoapsis",
          "type": "int128"
        }
      ],
      "name": "getPlanetClearance",
      "outputs": [
        {
          "name": "",
          "type": "int128"
        }
      ],
      "payable": false,
      "stateMutability": "view",
      "type": "function"
    },
    {
      "constant": true,
      "inputs": [
        {
          "name": "realPeriapsis",
          "type": "int128"
        },
        {
          "name": "realApoapsis",
          "type": "int128"
        }
      ],
      "name": "convertOrbitShape",
      "outputs": [
        {
          "name": "realSemimajor",
          "type": "int128"
        },
        {
          "name": "realEccentricity",
          "type": "int128"
        }
      ],
      "payable": false,
      "stateMutability": "view",
      "type": "function"
    },
    {
      "constant": true,
      "inputs": [
        {
          "name": "seed",
          "type": "bytes32"
        }
      ],
      "name": "getPlanetLan",
      "outputs": [
        {
          "name": "",
          "type": "int128"
        }
      ],
      "payable": false,
      "stateMutability": "view",
      "type": "function"
    },
    {
      "constant": true,
      "inputs": [
        {
          "name": "seed",
          "type": "bytes32"
        },
        {
          "name": "class",
          "type": "uint8"
        }
      ],
      "name": "getPlanetInclination",
      "outputs": [
        {
          "name": "",
          "type": "int128"
        }
      ],
      "payable": false,
      "stateMutability": "view",
      "type": "function"
    },
    {
      "constant": true,
      "inputs": [
        {
          "name": "seed",
          "type": "bytes32"
        }
      ],
      "name": "getPlanetAop",
      "outputs": [
        {
          "name": "",
          "type": "int128"
        }
      ],
      "payable": false,
      "stateMutability": "view",
      "type": "function"
    },
    {
      "constant": true,
      "inputs": [
        {
          "name": "seed",
          "type": "bytes32"
        }
      ],
      "name": "getPlanetMeanAnomalyAtEpoch",
      "outputs": [
        {
          "name": "",
          "type": "int128"
        }
      ],
      "payable": false,
      "stateMutability": "view",
      "type": "function"
    }
  ],
  "bytecode": "0x6060604052341561000f57600080fd5b604051602080613fb28339810160405280805190602001909190505080336000806101000a81548173ffffffffffffffffffffffffffffffffffffffff021916908373ffffffffffffffffffffffffffffffffffffffff16021790555080600160006101000a81548173ffffffffffffffffffffffffffffffffffffffff021916908373ffffffffffffffffffffffffffffffffffffffff1602179055505050613ef4806100be6000396000f3006060604052600436106100db576000357c0100000000000000000000000000000000000000000000000000000000900463ffffffff1680630b87090b146100e057806310dfa4b314610139578063158712e61461017a5780631f6fcf8e146101bb5780634cc57e561461020a5780635433f7641461026357806363e68c81146102b05780638da5cb5b146102f15780639387730c146103465780639a8914bc1461037f5780639e19642f146103d8578063bfd4fac114610439578063d0a8e83614610492578063d2b4620b146104eb578063f2fde38b14610538575b600080fd5b34156100eb57600080fd5b61011d60048080356000191690602001909190803560ff16906020019091908035600f0b906020019091905050610571565b6040518082600f0b600f0b815260200191505060405180910390f35b341561014457600080fd5b61015e600480803560001916906020019091905050610a63565b6040518082600f0b600f0b815260200191505060405180910390f35b341561018557600080fd5b61019f600480803560001916906020019091905050610dce565b6040518082600f0b600f0b815260200191505060405180910390f35b34156101c657600080fd5b6101ec60048080356000191690602001909190803560010b906020019091905050611139565b60405180826000191660001916815260200191505060405180910390f35b341561021557600080fd5b61024760048080356000191690602001909190803560ff16906020019091908035600f0b90602001909190505061128f565b6040518082600f0b600f0b815260200191505060405180910390f35b341561026e57600080fd5b61029460048080356000191690602001909190803560ff16906020019091905050611785565b6040518082600f0b600f0b815260200191505060405180910390f35b34156102bb57600080fd5b6102d5600480803560001916906020019091905050612024565b6040518082600f0b600f0b815260200191505060405180910390f35b34156102fc57600080fd5b61030461238f565b604051808273ffffffffffffffffffffffffffffffffffffffff1673ffffffffffffffffffffffffffffffffffffffff16815260200191505060405180910390f35b341561035157600080fd5b61037d600480803573ffffffffffffffffffffffffffffffffffffffff169060200190919050506123b4565b005b341561038a57600080fd5b6103af6004808035600f0b906020019091908035600f0b906020019091905050612453565b6040518083600f0b600f0b815260200182600f0b600f0b81526020019250505060405180910390f35b34156103e357600080fd5b61041560048080356000191690602001909190803560010b90602001909190803560010b90602001909190505061275b565b6040518082600481111561042557fe5b60ff16815260200191505060405180910390f35b341561044457600080fd5b61047660048080356000191690602001909190803560ff1690602001909190803560ff16906020019091905050612a3c565b604051808260010b60010b815260200191505060405180910390f35b341561049d57600080fd5b6104cf60048080356000191690602001909190803560ff16906020019091908035600f0b906020019091905050612d6a565b6040518082600f0b600f0b815260200191505060405180910390f35b34156104f657600080fd5b61051c60048080356000191690602001909190803560ff16906020019091905050613260565b6040518082600f0b600f0b815260200191505060405180910390f35b341561054357600080fd5b61056f600480803573ffffffffffffffffffffffffffffffffffffffff16906020019091905050613747565b005b600061057b613eb1565b6000806000600160009054906101000a900473ffffffffffffffffffffffffffffffffffffffff1673ffffffffffffffffffffffffffffffffffffffff16634af5fb0f33326000604051602001526040518363ffffffff167c0100000000000000000000000000000000000000000000000000000000028152600401808373ffffffffffffffffffffffffffffffffffffffff1673ffffffffffffffffffffffffffffffffffffffff1681526020018273ffffffffffffffffffffffffffffffffffffffff1673ffffffffffffffffffffffffffffffffffffffff16815260200192505050602060405180830381600087803b151561067957600080fd5b6102c65a03f1151561068a57600080fd5b50505060405180519050151561069f57600080fd5b6106fa6040805190810160405280600881526020017f61706f61707369730000000000000000000000000000000000000000000000008152506020604051908101604052808b6000191681525061389c90919063ffffffff16565b93506000600481111561070957fe5b87600481111561071557fe5b14156107285760009250600391506107e1565b6001600481111561073557fe5b87600481111561074157fe5b14156107545760009250600591506107e0565b6002600481111561076157fe5b87600481111561076d57fe5b141561078157601492506101f491506107df565b6003600481111561078e57fe5b87600481111561079a57fe5b14156107ad57600a9250606491506107de565b6004808111156107b957fe5b8760048111156107c557fe5b14156107d857600a9250603291506107dd565b600080fd5b5b5b5b5b61091c73__RealMath______________________________63f5a5d503856000604051602001526040518263ffffffff167c01000000000000000000000000000000000000000000000000000000000281526004018082600a0b600a0b815260200191505060206040518083038186803b151561085d57600080fd5b6102c65a03f4151561086e57600080fd5b5050506040518051905073__RealMath______________________________63f5a5d503856000604051602001526040518263ffffffff167c01000000000000000000000000000000000000000000000000000000000281526004018082600a0b600a0b815260200191505060206040518083038186803b15156108f157600080fd5b6102c65a03f4151561090257600080fd5b505050604051805190508661395f9092919063ffffffff16565b905073__RealMath______________________________63b69721468273__RealMath______________________________63f5a5d503633b9aca006000604051602001526040518263ffffffff167c01000000000000000000000000000000000000000000000000000000000281526004018082600a0b815260200191505060206040518083038186803b15156109b357600080fd5b6102c65a03f415156109c457600080fd5b505050604051805190506000604051602001526040518363ffffffff167c01000000000000000000000000000000000000000000000000000000000281526004018083600f0b600f0b815260200182600f0b600f0b81526020019250505060206040518083038186803b1515610a3957600080fd5b6102c65a03f41515610a4a57600080fd5b5050506040518051905086019450505050509392505050565b6000610a6d613eb1565b600160009054906101000a900473ffffffffffffffffffffffffffffffffffffffff1673ffffffffffffffffffffffffffffffffffffffff16634af5fb0f33326000604051602001526040518363ffffffff167c0100000000000000000000000000000000000000000000000000000000028152600401808373ffffffffffffffffffffffffffffffffffffffff1673ffffffffffffffffffffffffffffffffffffffff1681526020018273ffffffffffffffffffffffffffffffffffffffff1673ffffffffffffffffffffffffffffffffffffffff16815260200192505050602060405180830381600087803b1515610b6657600080fd5b6102c65a03f11515610b7757600080fd5b505050604051805190501515610b8c57600080fd5b610be76040805190810160405280600381526020017f414f500000000000000000000000000000000000000000000000000000000000815250602060405190810160405280866000191681525061389c90919063ffffffff16565b9050610dc673__RealMath______________________________63f5a5d503600080604051602001526040518263ffffffff167c01000000000000000000000000000000000000000000000000000000000281526004018082600a0b815260200191505060206040518083038186803b1515610c6257600080fd5b6102c65a03f41515610c7357600080fd5b5050506040518051905073__RealMath______________________________63b697214673__RealMath______________________________63f5a5d50360026000604051602001526040518263ffffffff167c01000000000000000000000000000000000000000000000000000000000281526004018082600a0b815260200191505060206040518083038186803b1515610d0e57600080fd5b6102c65a03f41515610d1f57600080fd5b505050604051805190506503243f6a88866000604051602001526040518363ffffffff167c01000000000000000000000000000000000000000000000000000000000281526004018083600f0b600f0b815260200182600f0b600f0b81526020019250505060206040518083038186803b1515610d9b57600080fd5b6102c65a03f41515610dac57600080fd5b505050604051805190508361395f9092919063ffffffff16565b915050919050565b6000610dd8613eb1565b600160009054906101000a900473ffffffffffffffffffffffffffffffffffffffff1673ffffffffffffffffffffffffffffffffffffffff16634af5fb0f33326000604051602001526040518363ffffffff167c0100000000000000000000000000000000000000000000000000000000028152600401808373ffffffffffffffffffffffffffffffffffffffff1673ffffffffffffffffffffffffffffffffffffffff1681526020018273ffffffffffffffffffffffffffffffffffffffff1673ffffffffffffffffffffffffffffffffffffffff16815260200192505050602060405180830381600087803b1515610ed157600080fd5b6102c65a03f11515610ee257600080fd5b505050604051805190501515610ef757600080fd5b610f526040805190810160405280600381526020017f4c414e0000000000000000000000000000000000000000000000000000000000815250602060405190810160405280866000191681525061389c90919063ffffffff16565b905061113173__RealMath______________________________63f5a5d503600080604051602001526040518263ffffffff167c01000000000000000000000000000000000000000000000000000000000281526004018082600a0b815260200191505060206040518083038186803b1515610fcd57600080fd5b6102c65a03f41515610fde57600080fd5b5050506040518051905073__RealMath______________________________63b697214673__RealMath______________________________63f5a5d50360026000604051602001526040518263ffffffff167c01000000000000000000000000000000000000000000000000000000000281526004018082600a0b815260200191505060206040518083038186803b151561107957600080fd5b6102c65a03f4151561108a57600080fd5b505050604051805190506503243f6a88866000604051602001526040518363ffffffff167c01000000000000000000000000000000000000000000000000000000000281526004018083600f0b600f0b815260200182600f0b600f0b81526020019250505060206040518083038186803b151561110657600080fd5b6102c65a03f4151561111757600080fd5b505050604051805190508361395f9092919063ffffffff16565b915050919050565b6000600160009054906101000a900473ffffffffffffffffffffffffffffffffffffffff1673ffffffffffffffffffffffffffffffffffffffff16634af5fb0f33326000604051602001526040518363ffffffff167c0100000000000000000000000000000000000000000000000000000000028152600401808373ffffffffffffffffffffffffffffffffffffffff1673ffffffffffffffffffffffffffffffffffffffff1681526020018273ffffffffffffffffffffffffffffffffffffffff1673ffffffffffffffffffffffffffffffffffffffff16815260200192505050602060405180830381600087803b151561123457600080fd5b6102c65a03f1151561124557600080fd5b50505060405180519050151561125a57600080fd5b6112838260010b6020604051908101604052808660001916815250613a1d90919063ffffffff16565b60000151905092915050565b6000611299613eb1565b6000806000600160009054906101000a900473ffffffffffffffffffffffffffffffffffffffff1673ffffffffffffffffffffffffffffffffffffffff16634af5fb0f33326000604051602001526040518363ffffffff167c0100000000000000000000000000000000000000000000000000000000028152600401808373ffffffffffffffffffffffffffffffffffffffff1673ffffffffffffffffffffffffffffffffffffffff1681526020018273ffffffffffffffffffffffffffffffffffffffff1673ffffffffffffffffffffffffffffffffffffffff16815260200192505050602060405180830381600087803b151561139757600080fd5b6102c65a03f115156113a857600080fd5b5050506040518051905015156113bd57600080fd5b6114186040805190810160405280600781526020017f636c6561726564000000000000000000000000000000000000000000000000008152506020604051908101604052808b6000191681525061389c90919063ffffffff16565b93506000600481111561142757fe5b87600481111561143357fe5b14156114465760149250603c9150611503565b6001600481111561145357fe5b87600481111561145f57fe5b1415611472576028925060469150611502565b6002600481111561147f57fe5b87600481111561148b57fe5b14156114a0576103e892506107d09150611501565b600360048111156114ad57fe5b8760048111156114b957fe5b14156114ce5761012c92506101f49150611500565b6004808111156114da57fe5b8760048111156114e657fe5b14156114fa57601492506101f491506114ff565b600080fd5b5b5b5b5b61163e73__RealMath______________________________63f5a5d503856000604051602001526040518263ffffffff167c01000000000000000000000000000000000000000000000000000000000281526004018082600a0b600a0b815260200191505060206040518083038186803b151561157f57600080fd5b6102c65a03f4151561159057600080fd5b5050506040518051905073__RealMath______________________________63f5a5d503856000604051602001526040518263ffffffff167c01000000000000000000000000000000000000000000000000000000000281526004018082600a0b600a0b815260200191505060206040518083038186803b151561161357600080fd5b6102c65a03f4151561162457600080fd5b505050604051805190508661395f9092919063ffffffff16565b905073__RealMath______________________________63b69721468273__RealMath______________________________63f5a5d503633b9aca006000604051602001526040518263ffffffff167c01000000000000000000000000000000000000000000000000000000000281526004018082600a0b815260200191505060206040518083038186803b15156116d557600080fd5b6102c65a03f415156116e657600080fd5b505050604051805190506000604051602001526040518363ffffffff167c01000000000000000000000000000000000000000000000000000000000281526004018083600f0b600f0b815260200182600f0b600f0b81526020019250505060206040518083038186803b151561175b57600080fd5b6102c65a03f4151561176c57600080fd5b5050506040518051905086019450505050509392505050565b600061178f613eb1565b600160009054906101000a900473ffffffffffffffffffffffffffffffffffffffff1673ffffffffffffffffffffffffffffffffffffffff16634af5fb0f33326000604051602001526040518363ffffffff167c0100000000000000000000000000000000000000000000000000000000028152600401808373ffffffffffffffffffffffffffffffffffffffff1673ffffffffffffffffffffffffffffffffffffffff1681526020018273ffffffffffffffffffffffffffffffffffffffff1673ffffffffffffffffffffffffffffffffffffffff16815260200192505050602060405180830381600087803b151561188857600080fd5b6102c65a03f1151561189957600080fd5b5050506040518051905015156118ae57600080fd5b6119096040805190810160405280600481526020017f6d61737300000000000000000000000000000000000000000000000000000000815250602060405190810160405280876000191681525061389c90919063ffffffff16565b90506000600481111561191857fe5b83600481111561192457fe5b1415611a8057611a7973__RealMath______________________________631dade0d4600160646000604051602001526040518363ffffffff167c01000000000000000000000000000000000000000000000000000000000281526004018083600a0b815260200182600a0b81526020019250505060206040518083038186803b15156119b057600080fd5b6102c65a03f415156119c157600080fd5b5050506040518051905073__RealMath______________________________631dade0d4600960646000604051602001526040518363ffffffff167c01000000000000000000000000000000000000000000000000000000000281526004018083600a0b815260200182600a0b81526020019250505060206040518083038186803b1515611a4e57600080fd5b6102c65a03f41515611a5f57600080fd5b505050604051805190508361395f9092919063ffffffff16565b915061201d565b60016004811115611a8d57fe5b836004811115611a9957fe5b1415611be957611be273__RealMath______________________________631dade0d4600a60646000604051602001526040518363ffffffff167c01000000000000000000000000000000000000000000000000000000000281526004018083600a0b815260200182600a0b81526020019250505060206040518083038186803b1515611b2557600080fd5b6102c65a03f41515611b3657600080fd5b5050506040518051905073__RealMath______________________________63f5a5d50360096000604051602001526040518263ffffffff167c01000000000000000000000000000000000000000000000000000000000281526004018082600a0b815260200191505060206040518083038186803b1515611bb757600080fd5b6102c65a03f41515611bc857600080fd5b505050604051805190508361395f9092919063ffffffff16565b915061201d565b60026004811115611bf657fe5b836004811115611c0257fe5b1415611d4657611d3f73__RealMath______________________________63f5a5d50360096000604051602001526040518263ffffffff167c01000000000000000000000000000000000000000000000000000000000281526004018082600a0b815260200191505060206040518083038186803b1515611c8257600080fd5b6102c65a03f41515611c9357600080fd5b5050506040518051905073__RealMath______________________________63f5a5d50360146000604051602001526040518263ffffffff167c01000000000000000000000000000000000000000000000000000000000281526004018082600a0b815260200191505060206040518083038186803b1515611d1457600080fd5b6102c65a03f41515611d2557600080fd5b505050604051805190508361395f9092919063ffffffff16565b915061201d565b60036004811115611d5357fe5b836004811115611d5f57fe5b1415611ea457611e9d73__RealMath______________________________63f5a5d50360326000604051602001526040518263ffffffff167c01000000000000000000000000000000000000000000000000000000000281526004018082600a0b815260200191505060206040518083038186803b1515611ddf57600080fd5b6102c65a03f41515611df057600080fd5b5050506040518051905073__RealMath______________________________63f5a5d5036101906000604051602001526040518263ffffffff167c01000000000000000000000000000000000000000000000000000000000281526004018082600a0b815260200191505060206040518083038186803b1515611e7257600080fd5b6102c65a03f41515611e8357600080fd5b505050604051805190508361395f9092919063ffffffff16565b915061201d565b600480811115611eb057fe5b836004811115611ebc57fe5b14156120185761201173__RealMath______________________________631dade0d4600160646000604051602001526040518363ffffffff167c01000000000000000000000000000000000000000000000000000000000281526004018083600a0b815260200182600a0b81526020019250505060206040518083038186803b1515611f4857600080fd5b6102c65a03f41515611f5957600080fd5b5050506040518051905073__RealMath______________________________631dade0d4601460646000604051602001526040518363ffffffff167c01000000000000000000000000000000000000000000000000000000000281526004018083600a0b815260200182600a0b81526020019250505060206040518083038186803b1515611fe657600080fd5b6102c65a03f41515611ff757600080fd5b505050604051805190508361395f9092919063ffffffff16565b915061201d565b600080fd5b5092915050565b600061202e613eb1565b600160009054906101000a900473ffffffffffffffffffffffffffffffffffffffff1673ffffffffffffffffffffffffffffffffffffffff16634af5fb0f33326000604051602001526040518363ffffffff167c0100000000000000000000000000000000000000000000000000000000028152600401808373ffffffffffffffffffffffffffffffffffffffff1673ffffffffffffffffffffffffffffffffffffffff1681526020018273ffffffffffffffffffffffffffffffffffffffff1673ffffffffffffffffffffffffffffffffffffffff16815260200192505050602060405180830381600087803b151561212757600080fd5b6102c65a03f1151561213857600080fd5b50505060405180519050151561214d57600080fd5b6121a86040805190810160405280600381526020017f4d41450000000000000000000000000000000000000000000000000000000000815250602060405190810160405280866000191681525061389c90919063ffffffff16565b905061238773__RealMath______________________________63f5a5d503600080604051602001526040518263ffffffff167c01000000000000000000000000000000000000000000000000000000000281526004018082600a0b815260200191505060206040518083038186803b151561222357600080fd5b6102c65a03f4151561223457600080fd5b5050506040518051905073__RealMath______________________________63b697214673__RealMath______________________________63f5a5d50360026000604051602001526040518263ffffffff167c01000000000000000000000000000000000000000000000000000000000281526004018082600a0b815260200191505060206040518083038186803b15156122cf57600080fd5b6102c65a03f415156122e057600080fd5b505050604051805190506503243f6a88866000604051602001526040518363ffffffff167c01000000000000000000000000000000000000000000000000000000000281526004018083600f0b600f0b815260200182600f0b600f0b81526020019250505060206040518083038186803b151561235c57600080fd5b6102c65a03f4151561236d57600080fd5b505050604051805190508361395f9092919063ffffffff16565b915050919050565b6000809054906101000a900473ffffffffffffffffffffffffffffffffffffffff1681565b6000809054906101000a900473ffffffffffffffffffffffffffffffffffffffff1673ffffffffffffffffffffffffffffffffffffffff163373ffffffffffffffffffffffffffffffffffffffff1614151561240f57600080fd5b80600160006101000a81548173ffffffffffffffffffffffffffffffffffffffff021916908373ffffffffffffffffffffffffffffffffffffffff16021790555050565b600080600160009054906101000a900473ffffffffffffffffffffffffffffffffffffffff1673ffffffffffffffffffffffffffffffffffffffff16634af5fb0f33326000604051602001526040518363ffffffff167c0100000000000000000000000000000000000000000000000000000000028152600401808373ffffffffffffffffffffffffffffffffffffffff1673ffffffffffffffffffffffffffffffffffffffff1681526020018273ffffffffffffffffffffffffffffffffffffffff1673ffffffffffffffffffffffffffffffffffffffff16815260200192505050602060405180830381600087803b151561254f57600080fd5b6102c65a03f1151561256057600080fd5b50505060405180519050151561257557600080fd5b73__RealMath______________________________6325f39a6385850173__RealMath______________________________63f5a5d50360026000604051602001526040518263ffffffff167c01000000000000000000000000000000000000000000000000000000000281526004018082600a0b815260200191505060206040518083038186803b151561260957600080fd5b6102c65a03f4151561261a57600080fd5b505050604051805190506000604051602001526040518363ffffffff167c01000000000000000000000000000000000000000000000000000000000281526004018083600f0b600f0b815260200182600f0b600f0b81526020019250505060206040518083038186803b151561268f57600080fd5b6102c65a03f415156126a057600080fd5b50505060405180519050915073__RealMath______________________________6325f39a638585038686016000604051602001526040518363ffffffff167c01000000000000000000000000000000000000000000000000000000000281526004018083600f0b600f0b815260200182600f0b600f0b81526020019250505060206040518083038186803b151561273757600080fd5b6102c65a03f4151561274857600080fd5b5050506040518051905090509250929050565b6000612765613eb1565b6000600160009054906101000a900473ffffffffffffffffffffffffffffffffffffffff1673ffffffffffffffffffffffffffffffffffffffff16634af5fb0f33326000604051602001526040518363ffffffff167c0100000000000000000000000000000000000000000000000000000000028152600401808373ffffffffffffffffffffffffffffffffffffffff1673ffffffffffffffffffffffffffffffffffffffff1681526020018273ffffffffffffffffffffffffffffffffffffffff1673ffffffffffffffffffffffffffffffffffffffff16815260200192505050602060405180830381600087803b151561286057600080fd5b6102c65a03f1151561287157600080fd5b50505060405180519050151561288657600080fd5b6128e16040805190810160405280600581526020017f636c617373000000000000000000000000000000000000000000000000000000815250602060405190810160405280896000191681525061389c90919063ffffffff16565b91506128fa6001606484613a939092919063ffffffff16565b905060008560010b148015612913575060018460010b14155b1561296057604681600a0b121561292d5760009250612a33565b605081600a0b12156129425760019250612a33565b605a81600a0b12156129575760029250612a33565b60039250612a33565b60028460010b81151561296f57fe5b0560010b8560010b12156129da57601481600a0b12156129925760009250612a33565b602881600a0b12156129a75760019250612a33565b604681600a0b12156129bc5760029250612a33565b605081600a0b12156129d15760039250612a33565b60049250612a33565b601481600a0b12156129ef5760009250612a33565b601e81600a0b1215612a045760019250612a33565b603c81600a0b1215612a195760029250612a33565b605a81600a0b1215612a2e5760039250612a33565b600492505b50509392505050565b6000612a46613eb1565b600080600160009054906101000a900473ffffffffffffffffffffffffffffffffffffffff1673ffffffffffffffffffffffffffffffffffffffff16634af5fb0f33326000604051602001526040518363ffffffff167c0100000000000000000000000000000000000000000000000000000000028152600401808373ffffffffffffffffffffffffffffffffffffffff1673ffffffffffffffffffffffffffffffffffffffff1681526020018273ffffffffffffffffffffffffffffffffffffffff1673ffffffffffffffffffffffffffffffffffffffff16815260200192505050602060405180830381600087803b1515612b4257600080fd5b6102c65a03f11515612b5357600080fd5b505050604051805190501515612b6857600080fd5b612bc36040805190810160405280600b81526020017f706c616e6574636f756e740000000000000000000000000000000000000000008152506020604051908101604052808a6000191681525061389c90919063ffffffff16565b925060026005811115612bd257fe5b866005811115612bde57fe5b1415612ceb5760006007811115612bf157fe5b856007811115612bfd57fe5b1480612c1f575060016007811115612c1157fe5b856007811115612c1d57fe5b145b15612c2d5760059150612ce6565b60026007811115612c3a57fe5b856007811115612c4657fe5b1415612c555760079150612ce5565b60036007811115612c6257fe5b856007811115612c6e57fe5b1480612c90575060046007811115612c8257fe5b856007811115612c8e57fe5b145b80612cb1575060056007811115612ca357fe5b856007811115612caf57fe5b145b15612cbf57600c9150612ce4565b60066007811115612ccc57fe5b856007811115612cd857fe5b1415612ce357600e91505b5b5b5b612d42565b60016005811115612cf857fe5b866005811115612d0457fe5b1415612d135760029150612d41565b60006005811115612d2057fe5b866005811115612d2c57fe5b1415612d3b5760029150612d40565b600291505b5b5b612d5b60018360010b85613a939092919063ffffffff16565b90508093505050509392505050565b6000612d74613eb1565b6000806000600160009054906101000a900473ffffffffffffffffffffffffffffffffffffffff1673ffffffffffffffffffffffffffffffffffffffff16634af5fb0f33326000604051602001526040518363ffffffff167c0100000000000000000000000000000000000000000000000000000000028152600401808373ffffffffffffffffffffffffffffffffffffffff1673ffffffffffffffffffffffffffffffffffffffff1681526020018273ffffffffffffffffffffffffffffffffffffffff1673ffffffffffffffffffffffffffffffffffffffff16815260200192505050602060405180830381600087803b1515612e7257600080fd5b6102c65a03f11515612e8357600080fd5b505050604051805190501515612e9857600080fd5b612ef36040805190810160405280600981526020017f70657269617073697300000000000000000000000000000000000000000000008152506020604051908101604052808b6000191681525061389c90919063ffffffff16565b935060006004811115612f0257fe5b876004811115612f0e57fe5b1415612f215760149250603c9150612fde565b60016004811115612f2e57fe5b876004811115612f3a57fe5b1415612f4d576028925060469150612fdd565b60026004811115612f5a57fe5b876004811115612f6657fe5b1415612f7b576103e892506107d09150612fdc565b60036004811115612f8857fe5b876004811115612f9457fe5b1415612fa95761012c92506101f49150612fdb565b600480811115612fb557fe5b876004811115612fc157fe5b1415612fd557601492506101f49150612fda565b600080fd5b5b5b5b5b61311973__RealMath______________________________63f5a5d503856000604051602001526040518263ffffffff167c01000000000000000000000000000000000000000000000000000000000281526004018082600a0b600a0b815260200191505060206040518083038186803b151561305a57600080fd5b6102c65a03f4151561306b57600080fd5b5050506040518051905073__RealMath______________________________63f5a5d503856000604051602001526040518263ffffffff167c01000000000000000000000000000000000000000000000000000000000281526004018082600a0b600a0b815260200191505060206040518083038186803b15156130ee57600080fd5b6102c65a03f415156130ff57600080fd5b505050604051805190508661395f9092919063ffffffff16565b905073__RealMath______________________________63b69721468273__RealMath______________________________63f5a5d503633b9aca006000604051602001526040518263ffffffff167c01000000000000000000000000000000000000000000000000000000000281526004018082600a0b815260200191505060206040518083038186803b15156131b057600080fd5b6102c65a03f415156131c157600080fd5b505050604051805190506000604051602001526040518363ffffffff167c01000000000000000000000000000000000000000000000000000000000281526004018083600f0b600f0b815260200182600f0b600f0b81526020019250505060206040518083038186803b151561323657600080fd5b6102c65a03f4151561324757600080fd5b5050506040518051905086019450505050509392505050565b600061326a613eb1565b600080600160009054906101000a900473ffffffffffffffffffffffffffffffffffffffff1673ffffffffffffffffffffffffffffffffffffffff16634af5fb0f33326000604051602001526040518363ffffffff167c0100000000000000000000000000000000000000000000000000000000028152600401808373ffffffffffffffffffffffffffffffffffffffff1673ffffffffffffffffffffffffffffffffffffffff1681526020018273ffffffffffffffffffffffffffffffffffffffff1673ffffffffffffffffffffffffffffffffffffffff16815260200192505050602060405180830381600087803b151561336657600080fd5b6102c65a03f1151561337757600080fd5b50505060405180519050151561338c57600080fd5b6133e76040805190810160405280600b81526020017f696e636c696e6174696f6e000000000000000000000000000000000000000000815250602060405190810160405280896000191681525061389c90919063ffffffff16565b9250600060048111156133f657fe5b85600481111561340257fe5b1415613415576000915060af90506134ce565b6001600481111561342257fe5b85600481111561342e57fe5b14156134415760009150605790506134cd565b6002600481111561344e57fe5b85600481111561345a57fe5b141561346d5760009150602390506134cc565b6003600481111561347a57fe5b85600481111561348657fe5b14156134995760009150603490506134cb565b6004808111156134a557fe5b8560048111156134b157fe5b14156134c5576000915061010690506134ca565b600080fd5b5b5b5b5b73__RealMath______________________________6325f39a6361362373__RealMath______________________________63f5a5d503866000604051602001526040518263ffffffff167c01000000000000000000000000000000000000000000000000000000000281526004018082600a0b600a0b815260200191505060206040518083038186803b151561356457600080fd5b6102c65a03f4151561357557600080fd5b5050506040518051905073__RealMath______________________________63f5a5d503866000604051602001526040518263ffffffff167c01000000000000000000000000000000000000000000000000000000000281526004018082600a0b600a0b815260200191505060206040518083038186803b15156135f857600080fd5b6102c65a03f4151561360957600080fd5b505050604051805190508761395f9092919063ffffffff16565b73__RealMath______________________________63f5a5d5036103e86000604051602001526040518263ffffffff167c01000000000000000000000000000000000000000000000000000000000281526004018082600a0b815260200191505060206040518083038186803b151561369b57600080fd5b6102c65a03f415156136ac57600080fd5b505050604051805190506000604051602001526040518363ffffffff167c01000000000000000000000000000000000000000000000000000000000281526004018083600f0b600f0b815260200182600f0b600f0b81526020019250505060206040518083038186803b151561372157600080fd5b6102c65a03f4151561373257600080fd5b50505060405180519050935050505092915050565b6000809054906101000a900473ffffffffffffffffffffffffffffffffffffffff1673ffffffffffffffffffffffffffffffffffffffff163373ffffffffffffffffffffffffffffffffffffffff161415156137a257600080fd5b600073ffffffffffffffffffffffffffffffffffffffff168173ffffffffffffffffffffffffffffffffffffffff16141515156137de57600080fd5b8073ffffffffffffffffffffffffffffffffffffffff166000809054906101000a900473ffffffffffffffffffffffffffffffffffffffff1673ffffffffffffffffffffffffffffffffffffffff167f8be0079c531659141344cd1fd0a4f28419497f9722a3daafe3b4186f6b6457e060405160405180910390a3806000806101000a81548173ffffffffffffffffffffffffffffffffffffffff021916908373ffffffffffffffffffffffffffffffffffffffff16021790555050565b6138a4613eb1565b602060405190810160405280600285600001518560006040516020015260405180836000191660001916815260200182805190602001908083835b60208310151561390457805182526020820191506020810190506020830392506138df565b6001836020036101000a0380198251168184511680821785525050505050509050019250505060206040518083038160008661646e5a03f1151561394757600080fd5b50506040518051905060001916815250905092915050565b60008261396b85613d9d565b600f0b73__RealMath______________________________63b697214690918686036000604051602001526040518363ffffffff167c01000000000000000000000000000000000000000000000000000000000281526004018083600f0b600f0b815260200182600f0b600f0b81526020019250505060206040518083038186803b15156139f857600080fd5b6102c65a03f41515613a0957600080fd5b505050604051805190500190509392505050565b613a25613eb1565b60206040519081016040528060028560000151856000604051602001526040518083600019166000191681526020018281526020019250505060206040518083038160008661646e5a03f11515613a7b57600080fd5b50506040518051905060001916815250905092915050565b600073__RealMath______________________________6315dbfe2873__RealMath______________________________63f5a5d503866000604051602001526040518263ffffffff167c01000000000000000000000000000000000000000000000000000000000281526004018082600a0b600a0b815260200191505060206040518083038186803b1515613b2857600080fd5b6102c65a03f41515613b3957600080fd5b50505060405180519050613b4c87613d9d565b600f0b73__RealMath______________________________63b6972146909173__RealMath______________________________63f5a5d5038a6000604051602001526040518263ffffffff167c01000000000000000000000000000000000000000000000000000000000281526004018082600a0b600a0b815260200191505060206040518083038186803b1515613be457600080fd5b6102c65a03f41515613bf557600080fd5b5050506040518051905073__RealMath______________________________63f5a5d5038a6000604051602001526040518263ffffffff167c01000000000000000000000000000000000000000000000000000000000281526004018082600a0b600a0b815260200191505060206040518083038186803b1515613c7857600080fd5b6102c65a03f41515613c8957600080fd5b50505060405180519050036000604051602001526040518363ffffffff167c01000000000000000000000000000000000000000000000000000000000281526004018083600f0b600f0b815260200182600f0b600f0b81526020019250505060206040518083038186803b1515613cff57600080fd5b6102c65a03f41515613d1057600080fd5b50505060405180519050016000604051602001526040518263ffffffff167c01000000000000000000000000000000000000000000000000000000000281526004018082600f0b600f0b815260200191505060206040518083038186803b1515613d7957600080fd5b6102c65a03f41515613d8a57600080fd5b5050506040518051905090509392505050565b6000613da882613e47565b600f0b73__RealMath______________________________6384f1bd4e90916000604051602001526040518263ffffffff167c01000000000000000000000000000000000000000000000000000000000281526004018082600f0b600f0b815260200191505060206040518083038186803b1515613e2557600080fd5b6102c65a03f41515613e3657600080fd5b505050604051805190509050919050565b6000613e5282613e5d565b600190049050919050565b60006002826000015160006040516020015260405180826000191660001916815260200191505060206040518083038160008661646e5a03f11515613ea157600080fd5b5050604051805190509050919050565b6020604051908101604052806000801916815250905600a165627a7a72305820ff6c6b820055e6e44935ca7324a4eed246999134fa8610c207182d22ae7fcf730029",
  "source": "pragma solidity ^0.4.18;\n\nimport \"./RNG.sol\";\nimport \"./RealMath.sol\";\n\nimport \"./AccessControl.sol\";\nimport \"./ControlledAccess.sol\";\n\nimport \"./MacroverseStarGenerator.sol\";\n\n/**\n * Represents a Macroverse generator for planetary systems around stars and\n * other stellar objects.\n *\n * Permission to call methods on this contract is regulated by a configurable\n * AccessControl contract. One such set of terms might be to require that the\n * account initiating a transaction have a certain minimum MRV token balance.\n *\n * The owner of this contract reserves the right to supersede it with a new\n * version, and to modify the terms for accessing this contract, at any time,\n * for any reason, and without notice. This includes the right to indefinitely\n * or permanently suspend or terminate access to this contract for any person,\n * account, or other contract, or for all persons, accounts, or other\n * contracts. The owner also reserves the right to not do any of the above.\n */\ncontract MacroverseSystemGenerator is ControlledAccess {\n    // TODO: RNG doesn't get linked against because we can't pass the struct to the library...\n    using RNG for *;\n    using RealMath for *;\n    // No SafeMath or it might confuse RealMath\n\n    /**\n     * It is also useful to have Pi around.\n     * We can't pull it in from the library.\n     */\n    int128 constant REAL_PI = 3454217652358;\n\n    /**\n     * Define different types of planet.\n     */\n    enum PlanetClass {Lunar, Terrestrial, Uranian, Jovian, AsteroidBelt}\n\n    /**\n     * Deploy a new copy of the MacroverseSystemGenerator.\n     */\n    function MacroverseSystemGenerator(address accessControlAddress) ControlledAccess(AccessControl(accessControlAddress)) public {\n        // Nothing to do!\n    }\n    \n    /**\n     * If the object has any planets at all, get the planet count. Will return\n     * nonzero numbers always, so make sure to check getObjectHasPlanets in the\n     * Star Generator.\n     */\n    function getObjectPlanetCount(bytes32 starSeed, MacroverseStarGenerator.ObjectClass objectClass,\n        MacroverseStarGenerator.SpectralType spectralType) public view onlyControlledAccess returns (int16) {\n        \n        var node = RNG.RandNode(starSeed).derive(\"planetcount\");\n        \n        \n        int16 limit;\n\n        if (objectClass == MacroverseStarGenerator.ObjectClass.MainSequence) {\n            if (spectralType == MacroverseStarGenerator.SpectralType.TypeO ||\n                spectralType == MacroverseStarGenerator.SpectralType.TypeB) {\n                \n                limit = 5;\n            } else if (spectralType == MacroverseStarGenerator.SpectralType.TypeA) {\n                limit = 7;\n            } else if (spectralType == MacroverseStarGenerator.SpectralType.TypeF ||\n                spectralType == MacroverseStarGenerator.SpectralType.TypeG ||\n                spectralType == MacroverseStarGenerator.SpectralType.TypeK) {\n                \n                limit = 12;\n            } else if (spectralType == MacroverseStarGenerator.SpectralType.TypeM) {\n                limit = 14;\n            }\n        } else if (objectClass == MacroverseStarGenerator.ObjectClass.Giant) {\n            limit = 2;\n        } else if (objectClass == MacroverseStarGenerator.ObjectClass.Supergiant) {\n            limit = 2;\n        } else {\n           // Black hole, neutron star, or white dwarf\n           limit = 2;\n        }\n        \n        var roll = int16(node.getIntBetween(1, limit));\n        \n        return roll;\n    }\n    \n    /**\n     * Get the seed for a planet from the seed for the star and its number.\n     */\n    function getPlanetSeed(bytes32 starSeed, int16 planetNumber) public view onlyControlledAccess returns (bytes32) {\n        return RNG.RandNode(starSeed).derive(planetNumber)._hash;\n    }\n    \n    /**\n     * Decide what kind of planet a given planet is.\n     * It depends on its place in the order.\n     * Takes the *planet*'s seed, its number, and the total planets in the system.\n     */\n    function getPlanetClass(bytes32 seed, int16 planetNumber, int16 totalPlanets) public view onlyControlledAccess returns (PlanetClass) {\n        // TODO: do something based on metallicity?\n        var node = RNG.RandNode(seed).derive(\"class\");\n        \n        var roll = node.getIntBetween(1, 100);\n        \n        // Inner planets should be more planet-y, ideally smaller\n        // Asteroid belts shouldn't be first that often\n        \n        if (planetNumber == 0 && totalPlanets != 1) {\n            // Innermost planet of a multi-planet system\n            // No asteroid belts allowed!\n            if (roll < 70) {\n                return PlanetClass.Lunar;\n            } else if (roll < 80) {\n                return PlanetClass.Terrestrial;\n            } else if (roll < 90) {\n                return PlanetClass.Uranian;\n            } else {\n                return PlanetClass.Jovian;\n            }\n        } else if (planetNumber < totalPlanets / 2) {\n            // Inner system\n            if (roll < 20) {\n                return PlanetClass.Lunar;\n            } else if (roll < 40) {\n                return PlanetClass.Terrestrial;\n            } else if (roll < 70) {\n                return PlanetClass.Uranian;\n            } else if (roll < 80) {\n                return PlanetClass.Jovian;\n            } else {\n                return PlanetClass.AsteroidBelt;\n            }\n        } else {\n            // Outer system\n            if (roll < 20) {\n                return PlanetClass.Lunar;\n            } else if (roll < 30) {\n                return PlanetClass.Terrestrial;\n            } else if (roll < 60) {\n                return PlanetClass.Uranian;\n            } else if (roll < 90) {\n                return PlanetClass.Jovian;\n            } else {\n                return PlanetClass.AsteroidBelt;\n            }\n        }\n    }\n    \n    /**\n     * Decide what the mass of the planet is. We can't do even the mass of\n     * Jupiter in the ~88 bits we have in a real (should we have used int256 as\n     * the backing type?) so we work in Earth masses.\n     */\n    function getPlanetMass(bytes32 seed, PlanetClass class) public view onlyControlledAccess returns (int128) {\n        var node = RNG.RandNode(seed).derive(\"mass\");\n        \n        if (class == PlanetClass.Lunar) {\n            return node.getRealBetween(RealMath.fraction(1, 100), RealMath.fraction(9, 100));\n        } else if (class == PlanetClass.Terrestrial) {\n            return node.getRealBetween(RealMath.fraction(10, 100), RealMath.toReal(9));\n        } else if (class == PlanetClass.Uranian) {\n            return node.getRealBetween(RealMath.toReal(9), RealMath.toReal(20));\n        } else if (class == PlanetClass.Jovian) {\n            return node.getRealBetween(RealMath.toReal(50), RealMath.toReal(400));\n        } else if (class == PlanetClass.AsteroidBelt) {\n            return node.getRealBetween(RealMath.fraction(1, 100), RealMath.fraction(20, 100));\n        } else {\n            // Not real!\n            revert();\n        }\n    }\n    \n    // Define the orbit shape\n    \n    /**\n     * Decide what the planet's orbit's periapsis is, in meters.\n     * This is the first statistic about the orbit to be generated.\n     *\n     * For the first planet, realPrevClearance is 0. For others, it is the\n     * clearance (i.e. distance from star that the planet has cleared out) of\n     * the previous planet.\n     */\n    function getPlanetPeriapsis(bytes32 seed, PlanetClass class, int128 realPrevClearance) public view onlyControlledAccess returns (int128) {\n        \n        var node = RNG.RandNode(seed).derive(\"periapsis\");\n        \n        // Define minimum and maximum periapsis distance above previous planet's\n        // cleared band in millions of km\n        int88 minimum;\n        int88 maximum;\n        if (class == PlanetClass.Lunar) {\n            minimum = 20;\n            maximum = 60;\n        } else if (class == PlanetClass.Terrestrial) {\n            minimum = 40;\n            maximum = 70;\n        } else if (class == PlanetClass.Uranian) {\n            minimum = 1000;\n            maximum = 2000;\n        } else if (class == PlanetClass.Jovian) {\n            minimum = 300;\n            maximum = 500;\n        } else if (class == PlanetClass.AsteroidBelt) {\n            minimum = 20;\n            maximum = 500;\n        } else {\n            // Not real!\n            revert();\n        }\n        \n        int128 realSeparation = node.getRealBetween(RealMath.toReal(minimum), RealMath.toReal(maximum));\n        return realPrevClearance + RealMath.mul(realSeparation, RealMath.toReal(1000000000)); \n    }\n    \n    /**\n     * Decide what the planet's orbit's apoapsis is, in meters.\n     * This is the second statistic about the orbit to be generated.\n     */\n    function getPlanetApoapsis(bytes32 seed, PlanetClass class, int128 realPeriapsis) public view onlyControlledAccess returns (int128) {\n        \n        var node = RNG.RandNode(seed).derive(\"apoapsis\");\n        \n        // Define minimum and maximum apoapsis distance above planet's periapsis\n        // Think in gigameters (millions of km)\n        int88 minimum;\n        int88 maximum;\n        if (class == PlanetClass.Lunar) {\n            minimum = 0;\n            maximum = 3;\n        } else if (class == PlanetClass.Terrestrial) {\n            minimum = 0;\n            maximum = 5;\n        } else if (class == PlanetClass.Uranian) {\n            minimum = 20;\n            maximum = 500;\n        } else if (class == PlanetClass.Jovian) {\n            minimum = 10;\n            maximum = 100;\n        } else if (class == PlanetClass.AsteroidBelt) {\n            minimum = 10;\n            maximum = 50;\n        } else {\n            // Not real!\n            revert();\n        }\n        \n        int128 realWidth = node.getRealBetween(RealMath.toReal(minimum), RealMath.toReal(maximum));\n        return realPeriapsis + RealMath.mul(realWidth, RealMath.toReal(1000000000)); \n    }\n    \n    /**\n     * Decide how far out the cleared band after the planet's orbit is.\n     */\n    function getPlanetClearance(bytes32 seed, PlanetClass class, int128 realApoapsis) public view onlyControlledAccess returns (int128) {\n        \n        var node = RNG.RandNode(seed).derive(\"cleared\");\n        \n        // Define minimum and maximum clearance in millions of km.\n        // TODO: Constants should be sort of like the periapsis constants I think? But maybe not identical.\n        // Think in gigameters (millions of km)\n        int88 minimum;\n        int88 maximum;\n        if (class == PlanetClass.Lunar) {\n            minimum = 20;\n            maximum = 60;\n        } else if (class == PlanetClass.Terrestrial) {\n            minimum = 40;\n            maximum = 70;\n        } else if (class == PlanetClass.Uranian) {\n            minimum = 1000;\n            maximum = 2000;\n        } else if (class == PlanetClass.Jovian) {\n            minimum = 300;\n            maximum = 500;\n        } else if (class == PlanetClass.AsteroidBelt) {\n            minimum = 20;\n            maximum = 500;\n        } else {\n            // Not real!\n            revert();\n        }\n        \n        int128 realSeparation = node.getRealBetween(RealMath.toReal(minimum), RealMath.toReal(maximum));\n        return realApoapsis + RealMath.mul(realSeparation, RealMath.toReal(1000000000)); \n    }\n    \n    /**\n     * Convert from periapsis and apoapsis to semimajor axis and eccentricity.\n     */\n    function convertOrbitShape(int128 realPeriapsis, int128 realApoapsis) public view onlyControlledAccess returns (int128 realSemimajor, int128 realEccentricity) {\n        // Semimajor axis is average of apoapsis and periapsis\n        realSemimajor = RealMath.div(realApoapsis + realPeriapsis, RealMath.toReal(2));\n        \n        // Eccentricity is ratio of difference and sum\n        realEccentricity = RealMath.div(realApoapsis - realPeriapsis, realApoapsis + realPeriapsis);\n    }\n    \n    // Define the orbital plane\n    \n    /**\n     * Get the longitude of the ascending node (angle from galactic +X to ascending node) for a planet.\n     */ \n    function getPlanetLan(bytes32 seed) public view onlyControlledAccess returns (int128) {\n        var node = RNG.RandNode(seed).derive(\"LAN\");\n        // Angles should be uniform from 0 to 2 PI\n        return node.getRealBetween(RealMath.toReal(0), RealMath.mul(RealMath.toReal(2), REAL_PI));\n    }\n    \n    /**\n     * Get the inclination (angle from galactic XZ plane to orbital plane at the ascending node) for a planet.\n     * Inclination is always positive. If it were negative, the ascending node would really be the descending node.\n     * Result is a real in radians.\n     */ \n    function getPlanetInclination(bytes32 seed, PlanetClass class) public view onlyControlledAccess returns (int128) {\n        var node = RNG.RandNode(seed).derive(\"inclination\");\n    \n        // Define minimum and maximum inclinations in milliradians\n        // 175 milliradians = ~ 10 degrees\n        int88 minimum;\n        int88 maximum;\n        if (class == PlanetClass.Lunar) {\n            minimum = 0;\n            maximum = 175;\n        } else if (class == PlanetClass.Terrestrial) {\n            minimum = 0;\n            maximum = 87;\n        } else if (class == PlanetClass.Uranian) {\n            minimum = 0;\n            maximum = 35;\n        } else if (class == PlanetClass.Jovian) {\n            minimum = 0;\n            maximum = 52;\n        } else if (class == PlanetClass.AsteroidBelt) {\n            minimum = 0;\n            maximum = 262;\n        } else {\n            // Not real!\n            revert();\n        }\n        \n        return RealMath.div(node.getRealBetween(RealMath.toReal(minimum), RealMath.toReal(maximum)), RealMath.toReal(1000));    \n    }\n    \n    // Define the orbit's embedding in the plane (and in time)\n    \n    /**\n     * Get the argument of periapsis (angle from ascending node to periapsis position, in the orbital plane) for a planet.\n     */\n    function getPlanetAop(bytes32 seed) public view onlyControlledAccess returns (int128) {\n        var node = RNG.RandNode(seed).derive(\"AOP\");\n        // Angles should be uniform from 0 to 2 PI.\n        // We already made sure planets wouldn't get too close together when laying out the orbits.\n        return node.getRealBetween(RealMath.toReal(0), RealMath.mul(RealMath.toReal(2), REAL_PI));\n    }\n    \n    /**\n     * Get the mean anomaly (which sweeps from 0 at periapsis to 2 pi at the next periapsis) at epoch (time 0) for a planet.\n     */\n    function getPlanetMeanAnomalyAtEpoch(bytes32 seed) public view onlyControlledAccess returns (int128) {\n        var node = RNG.RandNode(seed).derive(\"MAE\");\n        // Angles should be uniform from 0 to 2 PI.\n        return node.getRealBetween(RealMath.toReal(0), RealMath.mul(RealMath.toReal(2), REAL_PI));\n    }  \n}\n \n",
  "sourcePath": "/Users/anovak/Documents/Workspace/macroverse/contracts/MacroverseSystemGenerator.sol",
  "compiler": {
    "name": "solc",
    "version": "0.4.19+commit.c4cbbb05.Emscripten.clang"
  },
  "schemaVersion": "2.0.0",
  "updatedAt": "2018-05-03T03:20:21.884Z"
}