{
  "contractName": "MacroverseStarGenerator",
  "abi": [
    {
      "inputs": [
        {
          "internalType": "bytes32",
          "name": "baseSeed",
          "type": "bytes32"
        },
        {
          "internalType": "address",
          "name": "accessControlAddress",
          "type": "address"
        }
      ],
      "stateMutability": "nonpayable",
      "type": "constructor"
    },
    {
      "anonymous": false,
      "inputs": [
        {
          "indexed": true,
          "internalType": "address",
          "name": "previousOwner",
          "type": "address"
        },
        {
          "indexed": true,
          "internalType": "address",
          "name": "newOwner",
          "type": "address"
        }
      ],
      "name": "OwnershipTransferred",
      "type": "event"
    },
    {
      "inputs": [
        {
          "internalType": "address",
          "name": "newAccessControl",
          "type": "address"
        }
      ],
      "name": "changeAccessControl",
      "outputs": [],
      "stateMutability": "nonpayable",
      "type": "function"
    },
    {
      "inputs": [],
      "name": "owner",
      "outputs": [
        {
          "internalType": "address",
          "name": "",
          "type": "address"
        }
      ],
      "stateMutability": "view",
      "type": "function"
    },
    {
      "inputs": [],
      "name": "renounceOwnership",
      "outputs": [],
      "stateMutability": "nonpayable",
      "type": "function"
    },
    {
      "inputs": [
        {
          "internalType": "address",
          "name": "newOwner",
          "type": "address"
        }
      ],
      "name": "transferOwnership",
      "outputs": [],
      "stateMutability": "nonpayable",
      "type": "function"
    },
    {
      "inputs": [
        {
          "internalType": "int16",
          "name": "sectorX",
          "type": "int16"
        },
        {
          "internalType": "int16",
          "name": "sectorY",
          "type": "int16"
        },
        {
          "internalType": "int16",
          "name": "sectorZ",
          "type": "int16"
        }
      ],
      "name": "getGalaxyDensity",
      "outputs": [
        {
          "internalType": "int128",
          "name": "realDensity",
          "type": "int128"
        }
      ],
      "stateMutability": "view",
      "type": "function"
    },
    {
      "inputs": [
        {
          "internalType": "int16",
          "name": "sectorX",
          "type": "int16"
        },
        {
          "internalType": "int16",
          "name": "sectorY",
          "type": "int16"
        },
        {
          "internalType": "int16",
          "name": "sectorZ",
          "type": "int16"
        }
      ],
      "name": "getSectorObjectCount",
      "outputs": [
        {
          "internalType": "uint16",
          "name": "",
          "type": "uint16"
        }
      ],
      "stateMutability": "view",
      "type": "function"
    },
    {
      "inputs": [
        {
          "internalType": "int16",
          "name": "sectorX",
          "type": "int16"
        },
        {
          "internalType": "int16",
          "name": "sectorY",
          "type": "int16"
        },
        {
          "internalType": "int16",
          "name": "sectorZ",
          "type": "int16"
        },
        {
          "internalType": "uint16",
          "name": "object",
          "type": "uint16"
        }
      ],
      "name": "getSectorObjectSeed",
      "outputs": [
        {
          "internalType": "bytes32",
          "name": "",
          "type": "bytes32"
        }
      ],
      "stateMutability": "view",
      "type": "function"
    },
    {
      "inputs": [
        {
          "internalType": "bytes32",
          "name": "seed",
          "type": "bytes32"
        }
      ],
      "name": "getObjectClass",
      "outputs": [
        {
          "internalType": "enum MacroverseStarGenerator.ObjectClass",
          "name": "",
          "type": "uint8"
        }
      ],
      "stateMutability": "view",
      "type": "function"
    },
    {
      "inputs": [
        {
          "internalType": "bytes32",
          "name": "seed",
          "type": "bytes32"
        },
        {
          "internalType": "enum MacroverseStarGenerator.ObjectClass",
          "name": "objectClass",
          "type": "uint8"
        }
      ],
      "name": "getObjectSpectralType",
      "outputs": [
        {
          "internalType": "enum MacroverseStarGenerator.SpectralType",
          "name": "",
          "type": "uint8"
        }
      ],
      "stateMutability": "view",
      "type": "function"
    },
    {
      "inputs": [
        {
          "internalType": "bytes32",
          "name": "seed",
          "type": "bytes32"
        }
      ],
      "name": "getObjectPosition",
      "outputs": [
        {
          "internalType": "int128",
          "name": "realX",
          "type": "int128"
        },
        {
          "internalType": "int128",
          "name": "realY",
          "type": "int128"
        },
        {
          "internalType": "int128",
          "name": "realZ",
          "type": "int128"
        }
      ],
      "stateMutability": "view",
      "type": "function"
    },
    {
      "inputs": [
        {
          "internalType": "bytes32",
          "name": "seed",
          "type": "bytes32"
        },
        {
          "internalType": "enum MacroverseStarGenerator.ObjectClass",
          "name": "objectClass",
          "type": "uint8"
        },
        {
          "internalType": "enum MacroverseStarGenerator.SpectralType",
          "name": "spectralType",
          "type": "uint8"
        }
      ],
      "name": "getObjectMass",
      "outputs": [
        {
          "internalType": "int128",
          "name": "",
          "type": "int128"
        }
      ],
      "stateMutability": "view",
      "type": "function"
    },
    {
      "inputs": [
        {
          "internalType": "bytes32",
          "name": "seed",
          "type": "bytes32"
        },
        {
          "internalType": "enum MacroverseStarGenerator.ObjectClass",
          "name": "objectClass",
          "type": "uint8"
        },
        {
          "internalType": "enum MacroverseStarGenerator.SpectralType",
          "name": "spectralType",
          "type": "uint8"
        }
      ],
      "name": "getObjectHasPlanets",
      "outputs": [
        {
          "internalType": "bool",
          "name": "",
          "type": "bool"
        }
      ],
      "stateMutability": "view",
      "type": "function"
    }
  ],
  "bytecode": "0x60806040523480156200001157600080fd5b5060405162003f2e38038062003f2e833981810160405260408110156200003757600080fd5b810190808051906020019092919080519060200190929190505050806000620000656200016b60201b60201c565b9050806000806101000a81548173ffffffffffffffffffffffffffffffffffffffff021916908373ffffffffffffffffffffffffffffffffffffffff1602179055508073ffffffffffffffffffffffffffffffffffffffff16600073ffffffffffffffffffffffffffffffffffffffff167f8be0079c531659141344cd1fd0a4f28419497f9722a3daafe3b4186f6b6457e060405160405180910390a35080600160006101000a81548173ffffffffffffffffffffffffffffffffffffffff021916908373ffffffffffffffffffffffffffffffffffffffff16021790555050604051806020016040528083815250600260008201518160000155905050505062000173565b600033905090565b613dab80620001836000396000f3fe608060405234801561001057600080fd5b50600436106100b45760003560e01c80638da5cb5b116100715780638da5cb5b1461029957806391e55035146102e35780639387730c14610348578063c28624301461038c578063ee8f5681146103ee578063f2fde38b1461045b576100b4565b80632b3a3d0a146100b95780632e0d883114610109578063541a9fc11461016b578063591b5a88146101c8578063715018a61461022f578063718909fd14610239575b600080fd5b6100e5600480360360208110156100cf57600080fd5b810190808035906020019092919050505061049f565b604051808260058111156100f557fe5b60ff16815260200191505060405180910390f35b61014f6004803603606081101561011f57600080fd5b8101908080359060200190929190803560ff169060200190929190803560ff1690602001909291905050506106b2565b6040518082600f0b600f0b815260200191505060405180910390f35b6101a46004803603604081101561018157600080fd5b8101908080359060200190929190803560ff169060200190929190505050611908565b604051808260078111156101b457fe5b60ff16815260200191505060405180910390f35b610211600480360360608110156101de57600080fd5b81019080803560010b9060200190929190803560010b9060200190929190803560010b9060200190929190505050611c76565b604051808261ffff1661ffff16815260200191505060405180910390f35b6102376120bf565b005b61027f6004803603606081101561024f57600080fd5b8101908080359060200190929190803560ff169060200190929190803560ff169060200190929190505050612247565b604051808215151515815260200191505060405180910390f35b6102a16125a1565b604051808273ffffffffffffffffffffffffffffffffffffffff1673ffffffffffffffffffffffffffffffffffffffff16815260200191505060405180910390f35b61032c600480360360608110156102f957600080fd5b81019080803560010b9060200190929190803560010b9060200190929190803560010b90602001909291905050506125ca565b6040518082600f0b600f0b815260200191505060405180910390f35b61038a6004803603602081101561035e57600080fd5b81019080803573ffffffffffffffffffffffffffffffffffffffff1690602001909291905050506129e5565b005b6103b8600480360360208110156103a257600080fd5b8101908080359060200190929190505050612af2565b6040518084600f0b600f0b815260200183600f0b600f0b815260200182600f0b600f0b8152602001935050505060405180910390f35b6104456004803603608081101561040457600080fd5b81019080803560010b9060200190929190803560010b9060200190929190803560010b9060200190929190803561ffff1690602001909291905050506130de565b6040518082815260200191505060405180910390f35b61049d6004803603602081101561047157600080fd5b81019080803573ffffffffffffffffffffffffffffffffffffffff169060200190929190505050613271565b005b6000600160009054906101000a900473ffffffffffffffffffffffffffffffffffffffff1673ffffffffffffffffffffffffffffffffffffffff16634af5fb0f33326040518363ffffffff1660e01b8152600401808373ffffffffffffffffffffffffffffffffffffffff1673ffffffffffffffffffffffffffffffffffffffff1681526020018273ffffffffffffffffffffffffffffffffffffffff1673ffffffffffffffffffffffffffffffffffffffff1681526020019250505060206040518083038186803b15801561057457600080fd5b505afa158015610588573d6000803e3d6000fd5b505050506040513d602081101561059e57600080fd5b81019080805190602001909291905050506105b857600080fd5b6105c0613d39565b6106166040518060400160405280600581526020017f636c61737300000000000000000000000000000000000000000000000000000081525060405180602001604052808681525061347e90919063ffffffff16565b905060006106326001612710846135b09092919063ffffffff16565b9050600181600a0b141561064b576005925050506106ad565b600381600a0b13610661576004925050506106ad565b6102bc81600a0b13610678576003925050506106ad565b6126ac81600a0b1361068f576002925050506106ad565b61270681600a0b136106a6576001925050506106ad565b6000925050505b919050565b6000600160009054906101000a900473ffffffffffffffffffffffffffffffffffffffff1673ffffffffffffffffffffffffffffffffffffffff16634af5fb0f33326040518363ffffffff1660e01b8152600401808373ffffffffffffffffffffffffffffffffffffffff1673ffffffffffffffffffffffffffffffffffffffff1681526020018273ffffffffffffffffffffffffffffffffffffffff1673ffffffffffffffffffffffffffffffffffffffff1681526020019250505060206040518083038186803b15801561078757600080fd5b505afa15801561079b573d6000803e3d6000fd5b505050506040513d60208110156107b157600080fd5b81019080805190602001909291905050506107cb57600080fd5b6107d3613d39565b6108296040518060400160405280600481526020017f6d6173730000000000000000000000000000000000000000000000000000000081525060405180602001604052808881525061347e90919063ffffffff16565b905060058081111561083757fe5b84600581111561084357fe5b14156109805761097873__RealMath______________________________63f5a5d50360056040518263ffffffff1660e01b81526004018082600a0b815260200191505060206040518083038186803b15801561089f57600080fd5b505af41580156108b3573d6000803e3d6000fd5b505050506040513d60208110156108c957600080fd5b810190808051906020019092919050505073__RealMath______________________________63f5a5d50360326040518263ffffffff1660e01b81526004018082600a0b815260200191505060206040518083038186803b15801561092d57600080fd5b505af4158015610941573d6000803e3d6000fd5b505050506040513d602081101561095757600080fd5b8101908080519060200190929190505050836138a69092919063ffffffff16565b915050611901565b6004600581111561098d57fe5b84600581111561099957fe5b1415610ae257610ada73__RealMath______________________________631dade0d4600b600a6040518363ffffffff1660e01b81526004018083600a0b815260200182600a0b81526020019250505060206040518083038186803b158015610a0157600080fd5b505af4158015610a15573d6000803e3d6000fd5b505050506040513d6020811015610a2b57600080fd5b810190808051906020019092919050505073__RealMath______________________________63f5a5d50360026040518263ffffffff1660e01b81526004018082600a0b815260200191505060206040518083038186803b158015610a8f57600080fd5b505af4158015610aa3573d6000803e3d6000fd5b505050506040513d6020811015610ab957600080fd5b8101908080519060200190929190505050836138a69092919063ffffffff16565b915050611901565b60036005811115610aef57fe5b846005811115610afb57fe5b1415610c5057610c4873__RealMath______________________________631dade0d46003600a6040518363ffffffff1660e01b81526004018083600a0b815260200182600a0b81526020019250505060206040518083038186803b158015610b6357600080fd5b505af4158015610b77573d6000803e3d6000fd5b505050506040513d6020811015610b8d57600080fd5b810190808051906020019092919050505073__RealMath______________________________631dade0d4600b600a6040518363ffffffff1660e01b81526004018083600a0b815260200182600a0b81526020019250505060206040518083038186803b158015610bfd57600080fd5b505af4158015610c11573d6000803e3d6000fd5b505050506040513d6020811015610c2757600080fd5b8101908080519060200190929190505050836138a69092919063ffffffff16565b915050611901565b60026005811115610c5d57fe5b846005811115610c6957fe5b14156116525760006007811115610c7c57fe5b836007811115610c8857fe5b1415610dc557610dbd73__RealMath______________________________63f5a5d50360106040518263ffffffff1660e01b81526004018082600a0b815260200191505060206040518083038186803b158015610ce457600080fd5b505af4158015610cf8573d6000803e3d6000fd5b505050506040513d6020811015610d0e57600080fd5b810190808051906020019092919050505073__RealMath______________________________63f5a5d50360286040518263ffffffff1660e01b81526004018082600a0b815260200191505060206040518083038186803b158015610d7257600080fd5b505af4158015610d86573d6000803e3d6000fd5b505050506040513d6020811015610d9c57600080fd5b8101908080519060200190929190505050836138a69092919063ffffffff16565b915050611901565b60016007811115610dd257fe5b836007811115610dde57fe5b1415610f2757610f1f73__RealMath______________________________631dade0d46015600a6040518363ffffffff1660e01b81526004018083600a0b815260200182600a0b81526020019250505060206040518083038186803b158015610e4657600080fd5b505af4158015610e5a573d6000803e3d6000fd5b505050506040513d6020811015610e7057600080fd5b810190808051906020019092919050505073__RealMath______________________________63f5a5d50360106040518263ffffffff1660e01b81526004018082600a0b815260200191505060206040518083038186803b158015610ed457600080fd5b505af4158015610ee8573d6000803e3d6000fd5b505050506040513d6020811015610efe57600080fd5b8101908080519060200190929190505050836138a69092919063ffffffff16565b915050611901565b60026007811115610f3457fe5b836007811115610f4057fe5b14156110955761108d73__RealMath______________________________631dade0d4600e600a6040518363ffffffff1660e01b81526004018083600a0b815260200182600a0b81526020019250505060206040518083038186803b158015610fa857600080fd5b505af4158015610fbc573d6000803e3d6000fd5b505050506040513d6020811015610fd257600080fd5b810190808051906020019092919050505073__RealMath______________________________631dade0d46015600a6040518363ffffffff1660e01b81526004018083600a0b815260200182600a0b81526020019250505060206040518083038186803b15801561104257600080fd5b505af4158015611056573d6000803e3d6000fd5b505050506040513d602081101561106c57600080fd5b8101908080519060200190929190505050836138a69092919063ffffffff16565b915050611901565b600360078111156110a257fe5b8360078111156110ae57fe5b1415611203576111fb73__RealMath______________________________631dade0d4606860646040518363ffffffff1660e01b81526004018083600a0b815260200182600a0b81526020019250505060206040518083038186803b15801561111657600080fd5b505af415801561112a573d6000803e3d6000fd5b505050506040513d602081101561114057600080fd5b810190808051906020019092919050505073__RealMath______________________________631dade0d4600e600a6040518363ffffffff1660e01b81526004018083600a0b815260200182600a0b81526020019250505060206040518083038186803b1580156111b057600080fd5b505af41580156111c4573d6000803e3d6000fd5b505050506040513d60208110156111da57600080fd5b8101908080519060200190929190505050836138a69092919063ffffffff16565b915050611901565b6004600781111561121057fe5b83600781111561121c57fe5b14156113715761136973__RealMath______________________________631dade0d4605060646040518363ffffffff1660e01b81526004018083600a0b815260200182600a0b81526020019250505060206040518083038186803b15801561128457600080fd5b505af4158015611298573d6000803e3d6000fd5b505050506040513d60208110156112ae57600080fd5b810190808051906020019092919050505073__RealMath______________________________631dade0d4606860646040518363ffffffff1660e01b81526004018083600a0b815260200182600a0b81526020019250505060206040518083038186803b15801561131e57600080fd5b505af4158015611332573d6000803e3d6000fd5b505050506040513d602081101561134857600080fd5b8101908080519060200190929190505050836138a69092919063ffffffff16565b915050611901565b6005600781111561137e57fe5b83600781111561138a57fe5b14156114df576114d773__RealMath______________________________631dade0d4602d60646040518363ffffffff1660e01b81526004018083600a0b815260200182600a0b81526020019250505060206040518083038186803b1580156113f257600080fd5b505af4158015611406573d6000803e3d6000fd5b505050506040513d602081101561141c57600080fd5b810190808051906020019092919050505073__RealMath______________________________631dade0d4605060646040518363ffffffff1660e01b81526004018083600a0b815260200182600a0b81526020019250505060206040518083038186803b15801561148c57600080fd5b505af41580156114a0573d6000803e3d6000fd5b505050506040513d60208110156114b657600080fd5b8101908080519060200190929190505050836138a69092919063ffffffff16565b915050611901565b600660078111156114ec57fe5b8360078111156114f857fe5b141561164d5761164573__RealMath______________________________631dade0d4600860646040518363ffffffff1660e01b81526004018083600a0b815260200182600a0b81526020019250505060206040518083038186803b15801561156057600080fd5b505af4158015611574573d6000803e3d6000fd5b505050506040513d602081101561158a57600080fd5b810190808051906020019092919050505073__RealMath______________________________631dade0d4602d60646040518363ffffffff1660e01b81526004018083600a0b815260200182600a0b81526020019250505060206040518083038186803b1580156115fa57600080fd5b505af415801561160e573d6000803e3d6000fd5b505050506040513d602081101561162457600080fd5b8101908080519060200190929190505050836138a69092919063ffffffff16565b915050611901565b6118ff565b6001600581111561165f57fe5b84600581111561166b57fe5b14156117a8576117a073__RealMath______________________________63f5a5d50360286040518263ffffffff1660e01b81526004018082600a0b815260200191505060206040518083038186803b1580156116c757600080fd5b505af41580156116db573d6000803e3d6000fd5b505050506040513d60208110156116f157600080fd5b810190808051906020019092919050505073__RealMath______________________________63f5a5d50360326040518263ffffffff1660e01b81526004018082600a0b815260200191505060206040518083038186803b15801561175557600080fd5b505af4158015611769573d6000803e3d6000fd5b505050506040513d602081101561177f57600080fd5b8101908080519060200190929190505050836138a69092919063ffffffff16565b915050611901565b600060058111156117b557fe5b8460058111156117c157fe5b14156118fe576118f673__RealMath______________________________63f5a5d50360326040518263ffffffff1660e01b81526004018082600a0b815260200191505060206040518083038186803b15801561181d57600080fd5b505af4158015611831573d6000803e3d6000fd5b505050506040513d602081101561184757600080fd5b810190808051906020019092919050505073__RealMath______________________________63f5a5d50360466040518263ffffffff1660e01b81526004018082600a0b815260200191505060206040518083038186803b1580156118ab57600080fd5b505af41580156118bf573d6000803e3d6000fd5b505050506040513d60208110156118d557600080fd5b8101908080519060200190929190505050836138a69092919063ffffffff16565b915050611901565b5b505b9392505050565b6000600160009054906101000a900473ffffffffffffffffffffffffffffffffffffffff1673ffffffffffffffffffffffffffffffffffffffff16634af5fb0f33326040518363ffffffff1660e01b8152600401808373ffffffffffffffffffffffffffffffffffffffff1673ffffffffffffffffffffffffffffffffffffffff1681526020018273ffffffffffffffffffffffffffffffffffffffff1673ffffffffffffffffffffffffffffffffffffffff1681526020019250505060206040518083038186803b1580156119dd57600080fd5b505afa1580156119f1573d6000803e3d6000fd5b505050506040513d6020811015611a0757600080fd5b8101908080519060200190929190505050611a2157600080fd5b611a29613d39565b611a7f6040518060400160405280600481526020017f747970650000000000000000000000000000000000000000000000000000000081525060405180602001604052808781525061347e90919063ffffffff16565b90506000611a9c600162989680846135b09092919063ffffffff16565b905060026005811115611aab57fe5b846005811115611ab757fe5b1415611b5557600381600a0b13611ad357600092505050611c70565b6132cb81600a0b13611aea57600192505050611c70565b62011d2b81600a0b13611b0257600292505050611c70565b6205b10b81600a0b13611b1a57600392505050611c70565b621149cb81600a0b13611b3257600492505050611c70565b6223c05b81600a0b13611b4a57600592505050611c70565b600692505050611c70565b60016005811115611b6257fe5b846005811115611b6e57fe5b1415611bc7576207a12081600a0b13611b8c57600392505050611c70565b620f424081600a0b13611ba457600492505050611c70565b6253ec6081600a0b13611bbc57600592505050611c70565b600692505050611c70565b60006005811115611bd457fe5b846005811115611be057fe5b1415611c6957620f424081600a0b13611bfe57600192505050611c70565b621e848081600a0b13611c1657600292505050611c70565b623d090081600a0b13611c2e57600392505050611c70565b625b8d8081600a0b13611c4657600492505050611c70565b627a120081600a0b13611c5e57600592505050611c70565b600692505050611c70565b6007925050505b92915050565b6000600160009054906101000a900473ffffffffffffffffffffffffffffffffffffffff1673ffffffffffffffffffffffffffffffffffffffff16634af5fb0f33326040518363ffffffff1660e01b8152600401808373ffffffffffffffffffffffffffffffffffffffff1673ffffffffffffffffffffffffffffffffffffffff1681526020018273ffffffffffffffffffffffffffffffffffffffff1673ffffffffffffffffffffffffffffffffffffffff1681526020019250505060206040518083038186803b158015611d4b57600080fd5b505afa158015611d5f573d6000803e3d6000fd5b505050506040513d6020811015611d7557600080fd5b8101908080519060200190929190505050611d8f57600080fd5b611d97613d39565b611ded8360010b611ddf8660010b611dd18960010b600260405180602001604052908160008201548152505061396090919063ffffffff16565b61396090919063ffffffff16565b61396090919063ffffffff16565b90506000611e52600360146000611e426040518060400160405280600581526020017f636f756e740000000000000000000000000000000000000000000000000000008152508761347e90919063ffffffff16565b613a47909392919063ffffffff16565b9050600073__RealMath______________________________63f5a5d503836040518263ffffffff1660e01b8152600401808260010b600a0b815260200191505060206040518083038186803b158015611eab57600080fd5b505af4158015611ebf573d6000803e3d6000fd5b505050506040513d6020811015611ed557600080fd5b8101908080519060200190929190505050600f0b73__RealMath______________________________63b69721469091611f108a8a8a6125ca565b6040518363ffffffff1660e01b81526004018083600f0b600f0b815260200182600f0b600f0b81526020019250505060206040518083038186803b158015611f5757600080fd5b505af4158015611f6b573d6000803e3d6000fd5b505050506040513d6020811015611f8157600080fd5b8101908080519060200190929190505050905073__RealMath______________________________6315dbfe2873__RealMath______________________________63bf93961c846040518263ffffffff1660e01b81526004018082600f0b600f0b815260200191505060206040518083038186803b15801561200357600080fd5b505af4158015612017573d6000803e3d6000fd5b505050506040513d602081101561202d57600080fd5b81019080805190602001909291905050506040518263ffffffff1660e01b81526004018082600f0b600f0b815260200191505060206040518083038186803b15801561207857600080fd5b505af415801561208c573d6000803e3d6000fd5b505050506040513d60208110156120a257600080fd5b810190808051906020019092919050505093505050509392505050565b6120c7613ac5565b73ffffffffffffffffffffffffffffffffffffffff166000809054906101000a900473ffffffffffffffffffffffffffffffffffffffff1673ffffffffffffffffffffffffffffffffffffffff1614612188576040517f08c379a00000000000000000000000000000000000000000000000000000000081526004018080602001828103825260208152602001807f4f776e61626c653a2063616c6c6572206973206e6f7420746865206f776e657281525060200191505060405180910390fd5b600073ffffffffffffffffffffffffffffffffffffffff166000809054906101000a900473ffffffffffffffffffffffffffffffffffffffff1673ffffffffffffffffffffffffffffffffffffffff167f8be0079c531659141344cd1fd0a4f28419497f9722a3daafe3b4186f6b6457e060405160405180910390a360008060006101000a81548173ffffffffffffffffffffffffffffffffffffffff021916908373ffffffffffffffffffffffffffffffffffffffff160217905550565b6000600160009054906101000a900473ffffffffffffffffffffffffffffffffffffffff1673ffffffffffffffffffffffffffffffffffffffff16634af5fb0f33326040518363ffffffff1660e01b8152600401808373ffffffffffffffffffffffffffffffffffffffff1673ffffffffffffffffffffffffffffffffffffffff1681526020018273ffffffffffffffffffffffffffffffffffffffff1673ffffffffffffffffffffffffffffffffffffffff1681526020019250505060206040518083038186803b15801561231c57600080fd5b505afa158015612330573d6000803e3d6000fd5b505050506040513d602081101561234657600080fd5b810190808051906020019092919050505061236057600080fd5b612368613d39565b6123be6040518060400160405280600a81526020017f686173706c616e6574730000000000000000000000000000000000000000000081525060405180602001604052808881525061347e90919063ffffffff16565b905060006123da60016103e8846135b09092919063ffffffff16565b9050600260058111156123e957fe5b8560058111156123f557fe5b1415612526576000600781111561240857fe5b84600781111561241457fe5b148061243657506001600781111561242857fe5b84600781111561243457fe5b145b1561244c57600181600a0b13159250505061259a565b6002600781111561245957fe5b84600781111561246557fe5b141561247d576101f481600a0b13159250505061259a565b6003600781111561248a57fe5b84600781111561249657fe5b14806124b85750600460078111156124aa57fe5b8460078111156124b657fe5b145b806124d95750600560078111156124cb57fe5b8460078111156124d757fe5b145b156124f0576103de81600a0b13159250505061259a565b600660078111156124fd57fe5b84600781111561250957fe5b14156125215761027a81600a0b13159250505061259a565b612597565b6001600581111561253357fe5b85600581111561253f57fe5b141561255657605a81600a0b13159250505061259a565b6000600581111561256357fe5b85600581111561256f57fe5b141561258657603281600a0b13159250505061259a565b604681600a0b13159250505061259a565b50505b9392505050565b60008060009054906101000a900473ffffffffffffffffffffffffffffffffffffffff16905090565b6000600160009054906101000a900473ffffffffffffffffffffffffffffffffffffffff1673ffffffffffffffffffffffffffffffffffffffff16634af5fb0f33326040518363ffffffff1660e01b8152600401808373ffffffffffffffffffffffffffffffffffffffff1673ffffffffffffffffffffffffffffffffffffffff1681526020018273ffffffffffffffffffffffffffffffffffffffff1673ffffffffffffffffffffffffffffffffffffffff1681526020019250505060206040518083038186803b15801561269f57600080fd5b505afa1580156126b3573d6000803e3d6000fd5b505050506040513d60208110156126c957600080fd5b81019080805190602001909291905050506126e357600080fd5b61271060010b8460010b13156126fc57600090506129de565b61271060010b8360010b131561271557600090506129de565b61271060010b8260010b131561272e57600090506129de565b61271060000360010b8460010b121561274a57600090506129de565b61271060000360010b8360010b121561276657600090506129de565b61271060000360010b8260010b121561278257600090506129de565b6103e860010b6103e860010b028260010b8360010b028460010b8560010b028660010b8760010b02010112156128535773__RealMath______________________________631dade0d46009600a6040518363ffffffff1660e01b81526004018083600a0b815260200182600a0b81526020019250505060206040518083038186803b15801561281157600080fd5b505af4158015612825573d6000803e3d6000fd5b505050506040513d602081101561283b57600080fd5b810190808051906020019092919050505090506129de565b611a9060010b611a9060010b028260010b8360010b028560010b8660010b02011280156128865750602860010b8360010b125b801561289b5750602860000360010b8360010b135b156129415773__RealMath______________________________631dade0d4600160026040518363ffffffff1660e01b81526004018083600a0b815260200182600a0b81526020019250505060206040518083038186803b1580156128ff57600080fd5b505af4158015612913573d6000803e3d6000fd5b505050506040513d602081101561292957600080fd5b810190808051906020019092919050505090506129de565b73__RealMath______________________________631dade0d46001603c6040518363ffffffff1660e01b81526004018083600a0b815260200182600a0b81526020019250505060206040518083038186803b1580156129a057600080fd5b505af41580156129b4573d6000803e3d6000fd5b505050506040513d60208110156129ca57600080fd5b810190808051906020019092919050505090505b9392505050565b6129ed613ac5565b73ffffffffffffffffffffffffffffffffffffffff166000809054906101000a900473ffffffffffffffffffffffffffffffffffffffff1673ffffffffffffffffffffffffffffffffffffffff1614612aae576040517f08c379a00000000000000000000000000000000000000000000000000000000081526004018080602001828103825260208152602001807f4f776e61626c653a2063616c6c6572206973206e6f7420746865206f776e657281525060200191505060405180910390fd5b80600160006101000a81548173ffffffffffffffffffffffffffffffffffffffff021916908373ffffffffffffffffffffffffffffffffffffffff16021790555050565b6000806000600160009054906101000a900473ffffffffffffffffffffffffffffffffffffffff1673ffffffffffffffffffffffffffffffffffffffff16634af5fb0f33326040518363ffffffff1660e01b8152600401808373ffffffffffffffffffffffffffffffffffffffff1673ffffffffffffffffffffffffffffffffffffffff1681526020018273ffffffffffffffffffffffffffffffffffffffff1673ffffffffffffffffffffffffffffffffffffffff1681526020019250505060206040518083038186803b158015612bca57600080fd5b505afa158015612bde573d6000803e3d6000fd5b505050506040513d6020811015612bf457600080fd5b8101908080519060200190929190505050612c0e57600080fd5b612c16613d39565b612c6c6040518060400160405280600881526020017f706f736974696f6e00000000000000000000000000000000000000000000000081525060405180602001604052808881525061347e90919063ffffffff16565b9050612de473__RealMath______________________________63f5a5d50360006040518263ffffffff1660e01b81526004018082600a0b815260200191505060206040518083038186803b158015612cc457600080fd5b505af4158015612cd8573d6000803e3d6000fd5b505050506040513d6020811015612cee57600080fd5b810190808051906020019092919050505073__RealMath______________________________63f5a5d50360196040518263ffffffff1660e01b81526004018082600a0b815260200191505060206040518083038186803b158015612d5257600080fd5b505af4158015612d66573d6000803e3d6000fd5b505050506040513d6020811015612d7c57600080fd5b8101908080519060200190929190505050612dd56040518060400160405280600181526020017f78000000000000000000000000000000000000000000000000000000000000008152508561347e90919063ffffffff16565b6138a69092919063ffffffff16565b9350612f5c73__RealMath______________________________63f5a5d50360006040518263ffffffff1660e01b81526004018082600a0b815260200191505060206040518083038186803b158015612e3c57600080fd5b505af4158015612e50573d6000803e3d6000fd5b505050506040513d6020811015612e6657600080fd5b810190808051906020019092919050505073__RealMath______________________________63f5a5d50360196040518263ffffffff1660e01b81526004018082600a0b815260200191505060206040518083038186803b158015612eca57600080fd5b505af4158015612ede573d6000803e3d6000fd5b505050506040513d6020811015612ef457600080fd5b8101908080519060200190929190505050612f4d6040518060400160405280600181526020017f79000000000000000000000000000000000000000000000000000000000000008152508561347e90919063ffffffff16565b6138a69092919063ffffffff16565b92506130d473__RealMath______________________________63f5a5d50360006040518263ffffffff1660e01b81526004018082600a0b815260200191505060206040518083038186803b158015612fb457600080fd5b505af4158015612fc8573d6000803e3d6000fd5b505050506040513d6020811015612fde57600080fd5b810190808051906020019092919050505073__RealMath______________________________63f5a5d50360196040518263ffffffff1660e01b81526004018082600a0b815260200191505060206040518083038186803b15801561304257600080fd5b505af4158015613056573d6000803e3d6000fd5b505050506040513d602081101561306c57600080fd5b81019080805190602001909291905050506130c56040518060400160405280600181526020017f7a000000000000000000000000000000000000000000000000000000000000008152508561347e90919063ffffffff16565b6138a69092919063ffffffff16565b9150509193909250565b6000600160009054906101000a900473ffffffffffffffffffffffffffffffffffffffff1673ffffffffffffffffffffffffffffffffffffffff16634af5fb0f33326040518363ffffffff1660e01b8152600401808373ffffffffffffffffffffffffffffffffffffffff1673ffffffffffffffffffffffffffffffffffffffff1681526020018273ffffffffffffffffffffffffffffffffffffffff1673ffffffffffffffffffffffffffffffffffffffff1681526020019250505060206040518083038186803b1580156131b357600080fd5b505afa1580156131c7573d6000803e3d6000fd5b505050506040513d60208110156131dd57600080fd5b81019080805190602001909291905050506131f757600080fd5b6132638261ffff166132558560010b6132478860010b6132398b60010b600260405180602001604052908160008201548152505061396090919063ffffffff16565b61396090919063ffffffff16565b61396090919063ffffffff16565b613acd90919063ffffffff16565b600001519050949350505050565b613279613ac5565b73ffffffffffffffffffffffffffffffffffffffff166000809054906101000a900473ffffffffffffffffffffffffffffffffffffffff1673ffffffffffffffffffffffffffffffffffffffff161461333a576040517f08c379a00000000000000000000000000000000000000000000000000000000081526004018080602001828103825260208152602001807f4f776e61626c653a2063616c6c6572206973206e6f7420746865206f776e657281525060200191505060405180910390fd5b600073ffffffffffffffffffffffffffffffffffffffff168173ffffffffffffffffffffffffffffffffffffffff1614156133c0576040517f08c379a0000000000000000000000000000000000000000000000000000000008152600401808060200182810382526026815260200180613d506026913960400191505060405180910390fd5b8073ffffffffffffffffffffffffffffffffffffffff166000809054906101000a900473ffffffffffffffffffffffffffffffffffffffff1673ffffffffffffffffffffffffffffffffffffffff167f8be0079c531659141344cd1fd0a4f28419497f9722a3daafe3b4186f6b6457e060405160405180910390a3806000806101000a81548173ffffffffffffffffffffffffffffffffffffffff021916908373ffffffffffffffffffffffffffffffffffffffff16021790555050565b613486613d39565b604051806020016040528060028560000151856040516020018083815260200182805190602001908083835b602083106134d557805182526020820191506020810190506020830392506134b2565b6001836020036101000a038019825116818451168082178552505050505050905001925050506040516020818303038152906040526040518082805190602001908083835b6020831061353d578051825260208201915060208101905060208303925061351a565b6001836020036101000a038019825116818451168082178552505050505050905001915050602060405180830381855afa15801561357f573d6000803e3d6000fd5b5050506040513d602081101561359457600080fd5b8101908080519060200190929190505050815250905092915050565b600073__RealMath______________________________6315dbfe2873__RealMath______________________________63f5a5d503866040518263ffffffff1660e01b81526004018082600a0b600a0b815260200191505060206040518083038186803b15801561362157600080fd5b505af4158015613635573d6000803e3d6000fd5b505050506040513d602081101561364b57600080fd5b810190808051906020019092919050505061366587613bb4565b600f0b73__RealMath______________________________63b6972146909173__RealMath______________________________63f5a5d5038a6040518263ffffffff1660e01b81526004018082600a0b600a0b815260200191505060206040518083038186803b1580156136d957600080fd5b505af41580156136ed573d6000803e3d6000fd5b505050506040513d602081101561370357600080fd5b810190808051906020019092919050505073__RealMath______________________________63f5a5d5038a6040518263ffffffff1660e01b81526004018082600a0b600a0b815260200191505060206040518083038186803b15801561376957600080fd5b505af415801561377d573d6000803e3d6000fd5b505050506040513d602081101561379357600080fd5b8101908080519060200190929190505050036040518363ffffffff1660e01b81526004018083600f0b600f0b815260200182600f0b600f0b81526020019250505060206040518083038186803b1580156137ec57600080fd5b505af4158015613800573d6000803e3d6000fd5b505050506040513d602081101561381657600080fd5b8101908080519060200190929190505050016040518263ffffffff1660e01b81526004018082600f0b600f0b815260200191505060206040518083038186803b15801561386257600080fd5b505af4158015613876573d6000803e3d6000fd5b505050506040513d602081101561388c57600080fd5b810190808051906020019092919050505090509392505050565b6000826138b285613bb4565b600f0b73__RealMath______________________________63b697214690918686036040518363ffffffff1660e01b81526004018083600f0b600f0b815260200182600f0b600f0b81526020019250505060206040518083038186803b15801561391b57600080fd5b505af415801561392f573d6000803e3d6000fd5b505050506040513d602081101561394557600080fd5b81019080805190602001909291905050500190509392505050565b613968613d39565b6040518060200160405280600285600001518560405160200180838152602001828152602001925050506040516020818303038152906040526040518082805190602001908083835b602083106139d457805182526020820191506020810190506020830392506139b1565b6001836020036101000a038019825116818451168082178552505050505050905001915050602060405180830381855afa158015613a16573d6000803e3d6000fd5b5050506040513d6020811015613a2b57600080fd5b8101908080519060200190929190505050815250905092915050565b600060018460000b1415613a70578160000b613a688660018660000b6135b0565b019050613abd565b60008260000b905060008090505b8560000b8160000b1215613ab757613aa6613a9c888360000b613960565b6001876000613a47565b820191508080600101915050613a7e565b50809150505b949350505050565b600033905090565b613ad5613d39565b6040518060200160405280600285600001518560405160200180838152602001828152602001925050506040516020818303038152906040526040518082805190602001908083835b60208310613b415780518252602082019150602081019050602083039250613b1e565b6001836020036101000a038019825116818451168082178552505050505050905001915050602060405180830381855afa158015613b83573d6000803e3d6000fd5b5050506040513d6020811015613b9857600080fd5b8101908080519060200190929190505050815250905092915050565b6000613bbf82613c5a565b600f0b73__RealMath______________________________6384f1bd4e90916040518263ffffffff1660e01b81526004018082600f0b600f0b815260200191505060206040518083038186803b158015613c1857600080fd5b505af4158015613c2c573d6000803e3d6000fd5b505050506040513d6020811015613c4257600080fd5b81019080805190602001909291905050509050919050565b6000613c6582613c6f565b60001c9050919050565b600060028260000151604051602001808281526020019150506040516020818303038152906040526040518082805190602001908083835b60208310613cca5780518252602082019150602081019050602083039250613ca7565b6001836020036101000a038019825116818451168082178552505050505050905001915050602060405180830381855afa158015613d0c573d6000803e3d6000fd5b5050506040513d6020811015613d2157600080fd5b81019080805190602001909291905050509050919050565b604051806020016040528060008019168152509056fe4f776e61626c653a206e6577206f776e657220697320746865207a65726f2061646472657373a26469706673582212209d2b4db5f093f924ef8c4d27d2fa8fb39c5593199b5d25076878f86da52c9ef864736f6c634300060a0033",
  "immutableReferences": {},
  "source": "pragma solidity ^0.6.10;\n\nimport \"./RNG.sol\";\nimport \"./RealMath.sol\";\n\nimport \"./AccessControl.sol\";\nimport \"./ControlledAccess.sol\";\n\n/**\n * Represents a Macroverse Generator for a galaxy.\n *\n * Permission to call methods on this contract is regulated by a configurable\n * AccessControl contract. One such set of terms might be to require that the\n * account initiating a transaction have a certain minimum MRV token balance.\n *\n * The owner of this contract reserves the right to supersede it with a new\n * version, and to modify the terms for accessing this contract, at any time,\n * for any reason, and without notice. This includes the right to indefinitely\n * or permanently suspend or terminate access to this contract for any person,\n * account, or other contract, or for all persons, accounts, or other\n * contracts. The owner also reserves the right to not do any of the above.\n */\ncontract MacroverseStarGenerator is ControlledAccess {\n    // TODO: RNG doesn't get linked against because we can't pass the struct to the library...\n    using RNG for *;\n    using RealMath for *;\n    // No SafeMath or it might confuse RealMath\n\n    // How big is a sector on a side in LY?\n    int16 constant SECTOR_SIZE = 25;\n    // How far out does the sector system extend?\n    int16 constant MAX_SECTOR = 10000;\n    // How big is the galaxy?\n    int16 constant DISK_RADIUS_IN_SECTORS = 6800;\n    // How thick is its disk?\n    int16 constant DISK_HALFHEIGHT_IN_SECTORS = 40;\n    // How big is the central sphere?\n    int16 constant CORE_RADIUS_IN_SECTORS = 1000;\n    \n    // There are kinds of stars.\n    // We can add more later; these are from http://www.mit.edu/afs.new/sipb/user/sekullbe/furble/planet.txt\n    //                 0           1      2             3           4            5\n    enum ObjectClass { Supergiant, Giant, MainSequence, WhiteDwarf, NeutronStar, BlackHole }\n    // Actual stars have a spectral type\n    //                  0      1      2      3      4      5      6      7\n    enum SpectralType { TypeO, TypeB, TypeA, TypeF, TypeG, TypeK, TypeM, NotApplicable }\n    // Each type has subtypes 0-9, except O which only has 5-9\n    \n    // This root RandNode provides the seed for the universe.\n    RNG.RandNode root;\n    \n    /**\n     * Deploy a new copy of the Macroverse generator contract. Use the given seed to generate a galaxy, down to the star level.\n     * Use the contract at the given address to regulate access.\n     */\n    constructor(bytes32 baseSeed, address accessControlAddress) ControlledAccess(accessControlAddress) public {\n        root = RNG.RandNode(baseSeed);\n    }\n    \n    /**\n     * Get the density (between 0 and 1 as a fixed-point real88x40) of stars in the given sector. Sector 0,0,0 is centered on the galactic origin.\n     * +Y is upwards.\n     */\n    function getGalaxyDensity(int16 sectorX, int16 sectorY, int16 sectorZ) public view onlyControlledAccess returns (int128 realDensity) {\n        // We have a central sphere and a surrounding disk.\n        \n        // Enforce absolute bounds.\n        if (sectorX > MAX_SECTOR) return 0;\n        if (sectorY > MAX_SECTOR) return 0;\n        if (sectorZ > MAX_SECTOR) return 0;\n        if (sectorX < -MAX_SECTOR) return 0;\n        if (sectorY < -MAX_SECTOR) return 0;\n        if (sectorZ < -MAX_SECTOR) return 0;\n        \n        if (int(sectorX) * int(sectorX) + int(sectorY) * int(sectorY) + int(sectorZ) * int(sectorZ) < int(CORE_RADIUS_IN_SECTORS) * int(CORE_RADIUS_IN_SECTORS)) {\n            // Central sphere\n            return RealMath.fraction(9, 10);\n        } else if (int(sectorX) * int(sectorX) + int(sectorZ) * int(sectorZ) < int(DISK_RADIUS_IN_SECTORS) * int(DISK_RADIUS_IN_SECTORS) && sectorY < DISK_HALFHEIGHT_IN_SECTORS && sectorY > -DISK_HALFHEIGHT_IN_SECTORS) {\n            // Disk\n            return RealMath.fraction(1, 2);\n        } else {\n            // General background object rate\n            // Set so that some background sectors do indeed have an object in them.\n            return RealMath.fraction(1, 60);\n        }\n    }\n    \n    /**\n     * Get the number of objects in the sector at the given coordinates.\n     */\n    function getSectorObjectCount(int16 sectorX, int16 sectorY, int16 sectorZ) public view onlyControlledAccess returns (uint16) {\n        // Decide on a base item count\n        RNG.RandNode memory sectorNode = root.derive(sectorX).derive(sectorY).derive(sectorZ);\n        int16 maxObjects = sectorNode.derive(\"count\").d(3, 20, 0);\n        \n        // Multiply by the density function\n        int128 presentObjects = RealMath.toReal(maxObjects).mul(getGalaxyDensity(sectorX, sectorY, sectorZ));\n        \n        return uint16(RealMath.fromReal(RealMath.round(presentObjects)));\n    }\n    \n    /**\n     * Get the seed for an object in a sector.\n     */\n    function getSectorObjectSeed(int16 sectorX, int16 sectorY, int16 sectorZ, uint16 object) public view onlyControlledAccess returns (bytes32) {\n        return root.derive(sectorX).derive(sectorY).derive(sectorZ).derive(uint(object))._hash;\n    }\n    \n    /**\n     * Get the class of the star system with the given seed.\n     */\n    function getObjectClass(bytes32 seed) public view onlyControlledAccess returns (ObjectClass) {\n        // Make a node for rolling for the class.\n        RNG.RandNode memory node = RNG.RandNode(seed).derive(\"class\");\n        // Roll an impractical d10,000\n        int88 roll = node.getIntBetween(1, 10000);\n        \n        if (roll == 1) {\n            // Should be a black hole\n            return ObjectClass.BlackHole;\n        } else if (roll <= 3) {\n            // Should be a neutron star\n            return ObjectClass.NeutronStar;\n        } else if (roll <= 700) {\n            // Should be a white dwarf\n            return ObjectClass.WhiteDwarf;\n        } else if (roll <= 9900) {\n            // Most things are main sequence\n            return ObjectClass.MainSequence;\n        } else if (roll <= 9990) {\n            return ObjectClass.Giant;\n        } else {\n            return ObjectClass.Supergiant;\n        }\n    }\n    \n    /**\n     * Get the spectral type for an object with the given seed of the given class.\n     */\n    function getObjectSpectralType(bytes32 seed, ObjectClass objectClass) public view onlyControlledAccess returns (SpectralType) {\n        RNG.RandNode memory node = RNG.RandNode(seed).derive(\"type\");\n        int88 roll = node.getIntBetween(1, 10000000); // Even more implausible dice\n\n        if (objectClass == ObjectClass.MainSequence) {\n            if (roll <= 3) {\n                return SpectralType.TypeO;\n            } else if (roll <= 13003) {\n                return SpectralType.TypeB;\n            } else if (roll <= 73003) {\n                return SpectralType.TypeA;\n            } else if (roll <= 373003) {\n                return SpectralType.TypeF;\n            } else if (roll <= 1133003) {\n                return SpectralType.TypeG;\n            } else if (roll <= 2343003) {\n                return SpectralType.TypeK;\n            } else {\n                return SpectralType.TypeM;\n            }\n        } else if (objectClass == ObjectClass.Giant) {\n            if (roll <= 500000) {\n                return SpectralType.TypeF;\n            } else if (roll <= 1000000) {\n                return SpectralType.TypeG;\n            } else if (roll <= 5500000) {\n                return SpectralType.TypeK;\n            } else {\n                return SpectralType.TypeM;\n            }\n        } else if (objectClass == ObjectClass.Supergiant) {\n            if (roll <= 1000000) {\n                return SpectralType.TypeB;\n            } else if (roll <= 2000000) {\n                return SpectralType.TypeA;\n            } else if (roll <= 4000000) {\n                return SpectralType.TypeF;\n            } else if (roll <= 6000000) {\n                return SpectralType.TypeG;\n            } else if (roll <= 8000000) {\n                return SpectralType.TypeK;\n            } else {\n                return SpectralType.TypeM;\n            }\n        } else {\n            // TODO: No spectral class for anyone else.\n            return SpectralType.NotApplicable;\n        }\n        \n    }\n    \n    /**\n     * Get the position of a star within its sector, as reals from 0 to 25.\n     * Note that stars may end up implausibly close together. Such is life in the Macroverse.\n     */\n    function getObjectPosition(bytes32 seed) public view onlyControlledAccess returns (int128 realX, int128 realY, int128 realZ) {\n        RNG.RandNode memory node = RNG.RandNode(seed).derive(\"position\");\n        \n        realX = node.derive(\"x\").getRealBetween(RealMath.toReal(0), RealMath.toReal(25));\n        realY = node.derive(\"y\").getRealBetween(RealMath.toReal(0), RealMath.toReal(25));\n        realZ = node.derive(\"z\").getRealBetween(RealMath.toReal(0), RealMath.toReal(25));\n    }\n    \n    /**\n     * Get the mass of a star, in solar masses as a real, given its seed and class and spectral type.\n     */\n    function getObjectMass(bytes32 seed, ObjectClass objectClass, SpectralType spectralType) public view onlyControlledAccess returns (int128) {\n        RNG.RandNode memory node = RNG.RandNode(seed).derive(\"mass\");\n         \n        if (objectClass == ObjectClass.BlackHole) {\n            return node.getRealBetween(RealMath.toReal(5), RealMath.toReal(50));\n        } else if (objectClass == ObjectClass.NeutronStar) {\n            return node.getRealBetween(RealMath.fraction(11, 10), RealMath.toReal(2));\n        } else if (objectClass == ObjectClass.WhiteDwarf) {\n            return node.getRealBetween(RealMath.fraction(3, 10), RealMath.fraction(11, 10));\n        } else if (objectClass == ObjectClass.MainSequence) {\n            if (spectralType == SpectralType.TypeO) {\n                return node.getRealBetween(RealMath.toReal(16), RealMath.toReal(40));\n            } else if (spectralType == SpectralType.TypeB) {\n                return node.getRealBetween(RealMath.fraction(21, 10), RealMath.toReal(16));\n            } else if (spectralType == SpectralType.TypeA) {\n                return node.getRealBetween(RealMath.fraction(14, 10), RealMath.fraction(21, 10));\n            } else if (spectralType == SpectralType.TypeF) {\n                return node.getRealBetween(RealMath.fraction(104, 100), RealMath.fraction(14, 10));\n            } else if (spectralType == SpectralType.TypeG) {\n                return node.getRealBetween(RealMath.fraction(80, 100), RealMath.fraction(104, 100));\n            } else if (spectralType == SpectralType.TypeK) {\n                return node.getRealBetween(RealMath.fraction(45, 100), RealMath.fraction(80, 100));\n            } else if (spectralType == SpectralType.TypeM) {\n                return node.getRealBetween(RealMath.fraction(8, 100), RealMath.fraction(45, 100));\n            }\n        } else if (objectClass == ObjectClass.Giant) {\n            // Just make it really big\n            return node.getRealBetween(RealMath.toReal(40), RealMath.toReal(50));\n        } else if (objectClass == ObjectClass.Supergiant) {\n            // Just make it really, really big\n            return node.getRealBetween(RealMath.toReal(50), RealMath.toReal(70));\n        }\n    }\n    \n    /**\n     * Determine if the given star has any orbiting planets or not.\n     */\n    function getObjectHasPlanets(bytes32 seed, ObjectClass objectClass, SpectralType spectralType) public view onlyControlledAccess returns (bool) {\n        RNG.RandNode memory node = RNG.RandNode(seed).derive(\"hasplanets\");\n        int88 roll = node.getIntBetween(1, 1000);\n\n        if (objectClass == ObjectClass.MainSequence) {\n            if (spectralType == SpectralType.TypeO || spectralType == SpectralType.TypeB) {\n                return (roll <= 1);\n            } else if (spectralType == SpectralType.TypeA) {\n                return (roll <= 500);\n            } else if (spectralType == SpectralType.TypeF || spectralType == SpectralType.TypeG || spectralType == SpectralType.TypeK) {\n                return (roll <= 990);\n            } else if (spectralType == SpectralType.TypeM) {\n                return (roll <= 634);\n            }\n        } else if (objectClass == ObjectClass.Giant) {\n            return (roll <= 90);\n        } else if (objectClass == ObjectClass.Supergiant) {\n            return (roll <= 50);\n        } else {\n           // Black hole, neutron star, or white dwarf\n           return (roll <= 70);\n        }\n    }\n    \n\n}\n\n// SPDX-License-Identifier: UNLICENSED\n",
  "sourcePath": "/z/home/anovak/workspace/macroverse/contracts/MacroverseStarGenerator.sol",
  "compiler": {
    "name": "solc",
    "version": "0.6.10+commit.00c0fcaf.Emscripten.clang"
  },
  "schemaVersion": "3.1.0",
  "updatedAt": "2020-06-12T02:44:30.282Z",
  "devdoc": {
    "methods": {
      "owner()": {
        "details": "Returns the address of the current owner."
      },
      "renounceOwnership()": {
        "details": "Leaves the contract without owner. It will not be possible to call `onlyOwner` functions anymore. Can only be called by the current owner. NOTE: Renouncing ownership will leave the contract without an owner, thereby removing any functionality that is only available to the owner."
      },
      "transferOwnership(address)": {
        "details": "Transfers ownership of the contract to a new account (`newOwner`). Can only be called by the current owner."
      }
    }
  },
  "userdoc": {
    "methods": {
      "changeAccessControl(address)": {
        "notice": "Change the access control strategy of the prototype."
      },
      "constructor": "Deploy a new copy of the Macroverse generator contract. Use the given seed to generate a galaxy, down to the star level. Use the contract at the given address to regulate access.",
      "getGalaxyDensity(int16,int16,int16)": {
        "notice": "Get the density (between 0 and 1 as a fixed-point real88x40) of stars in the given sector. Sector 0,0,0 is centered on the galactic origin. +Y is upwards."
      },
      "getObjectClass(bytes32)": {
        "notice": "Get the class of the star system with the given seed."
      },
      "getObjectHasPlanets(bytes32,uint8,uint8)": {
        "notice": "Determine if the given star has any orbiting planets or not."
      },
      "getObjectMass(bytes32,uint8,uint8)": {
        "notice": "Get the mass of a star, in solar masses as a real, given its seed and class and spectral type."
      },
      "getObjectPosition(bytes32)": {
        "notice": "Get the position of a star within its sector, as reals from 0 to 25. Note that stars may end up implausibly close together. Such is life in the Macroverse."
      },
      "getObjectSpectralType(bytes32,uint8)": {
        "notice": "Get the spectral type for an object with the given seed of the given class."
      },
      "getSectorObjectCount(int16,int16,int16)": {
        "notice": "Get the number of objects in the sector at the given coordinates."
      },
      "getSectorObjectSeed(int16,int16,int16,uint16)": {
        "notice": "Get the seed for an object in a sector."
      }
    },
    "notice": "Represents a Macroverse Generator for a galaxy. Permission to call methods on this contract is regulated by a configurable AccessControl contract. One such set of terms might be to require that the account initiating a transaction have a certain minimum MRV token balance. The owner of this contract reserves the right to supersede it with a new version, and to modify the terms for accessing this contract, at any time, for any reason, and without notice. This includes the right to indefinitely or permanently suspend or terminate access to this contract for any person, account, or other contract, or for all persons, accounts, or other contracts. The owner also reserves the right to not do any of the above."
  }
}