{
  "contractName": "MacroverseSystemGenerator",
  "abi": [
    {
      "constant": false,
      "inputs": [],
      "name": "renounceOwnership",
      "outputs": [],
      "payable": false,
      "stateMutability": "nonpayable",
      "type": "function"
    },
    {
      "constant": true,
      "inputs": [],
      "name": "owner",
      "outputs": [
        {
          "name": "",
          "type": "address"
        }
      ],
      "payable": false,
      "stateMutability": "view",
      "type": "function"
    },
    {
      "constant": true,
      "inputs": [],
      "name": "isOwner",
      "outputs": [
        {
          "name": "",
          "type": "bool"
        }
      ],
      "payable": false,
      "stateMutability": "view",
      "type": "function"
    },
    {
      "constant": false,
      "inputs": [
        {
          "name": "newAccessControl",
          "type": "address"
        }
      ],
      "name": "changeAccessControl",
      "outputs": [],
      "payable": false,
      "stateMutability": "nonpayable",
      "type": "function"
    },
    {
      "constant": false,
      "inputs": [
        {
          "name": "newOwner",
          "type": "address"
        }
      ],
      "name": "transferOwnership",
      "outputs": [],
      "payable": false,
      "stateMutability": "nonpayable",
      "type": "function"
    },
    {
      "inputs": [
        {
          "name": "accessControlAddress",
          "type": "address"
        }
      ],
      "payable": false,
      "stateMutability": "nonpayable",
      "type": "constructor"
    },
    {
      "anonymous": false,
      "inputs": [
        {
          "indexed": true,
          "name": "previousOwner",
          "type": "address"
        },
        {
          "indexed": true,
          "name": "newOwner",
          "type": "address"
        }
      ],
      "name": "OwnershipTransferred",
      "type": "event"
    },
    {
      "constant": true,
      "inputs": [
        {
          "name": "parentSeed",
          "type": "bytes32"
        },
        {
          "name": "childNumber",
          "type": "uint256"
        }
      ],
      "name": "getWorldSeed",
      "outputs": [
        {
          "name": "",
          "type": "bytes32"
        }
      ],
      "payable": false,
      "stateMutability": "view",
      "type": "function"
    },
    {
      "constant": true,
      "inputs": [
        {
          "name": "seed",
          "type": "bytes32"
        },
        {
          "name": "planetNumber",
          "type": "uint256"
        },
        {
          "name": "totalPlanets",
          "type": "uint256"
        }
      ],
      "name": "getPlanetClass",
      "outputs": [
        {
          "name": "",
          "type": "uint8"
        }
      ],
      "payable": false,
      "stateMutability": "view",
      "type": "function"
    },
    {
      "constant": true,
      "inputs": [
        {
          "name": "seed",
          "type": "bytes32"
        },
        {
          "name": "class",
          "type": "uint8"
        }
      ],
      "name": "getWorldMass",
      "outputs": [
        {
          "name": "",
          "type": "int128"
        }
      ],
      "payable": false,
      "stateMutability": "view",
      "type": "function"
    },
    {
      "constant": true,
      "inputs": [
        {
          "name": "realInnerRadius",
          "type": "int128"
        },
        {
          "name": "realOuterRadius",
          "type": "int128"
        },
        {
          "name": "seed",
          "type": "bytes32"
        },
        {
          "name": "class",
          "type": "uint8"
        },
        {
          "name": "realPrevClearance",
          "type": "int128"
        }
      ],
      "name": "getPlanetOrbitDimensions",
      "outputs": [
        {
          "name": "realPeriapsis",
          "type": "int128"
        },
        {
          "name": "realApoapsis",
          "type": "int128"
        },
        {
          "name": "realClearance",
          "type": "int128"
        }
      ],
      "payable": false,
      "stateMutability": "view",
      "type": "function"
    },
    {
      "constant": true,
      "inputs": [
        {
          "name": "realPeriapsis",
          "type": "int128"
        },
        {
          "name": "realApoapsis",
          "type": "int128"
        }
      ],
      "name": "convertOrbitShape",
      "outputs": [
        {
          "name": "realSemimajor",
          "type": "int128"
        },
        {
          "name": "realEccentricity",
          "type": "int128"
        }
      ],
      "payable": false,
      "stateMutability": "view",
      "type": "function"
    },
    {
      "constant": true,
      "inputs": [
        {
          "name": "seed",
          "type": "bytes32"
        }
      ],
      "name": "getWorldLan",
      "outputs": [
        {
          "name": "",
          "type": "int128"
        }
      ],
      "payable": false,
      "stateMutability": "view",
      "type": "function"
    },
    {
      "constant": true,
      "inputs": [
        {
          "name": "seed",
          "type": "bytes32"
        },
        {
          "name": "class",
          "type": "uint8"
        }
      ],
      "name": "getPlanetInclination",
      "outputs": [
        {
          "name": "",
          "type": "int128"
        }
      ],
      "payable": false,
      "stateMutability": "view",
      "type": "function"
    },
    {
      "constant": true,
      "inputs": [
        {
          "name": "seed",
          "type": "bytes32"
        }
      ],
      "name": "getWorldAop",
      "outputs": [
        {
          "name": "",
          "type": "int128"
        }
      ],
      "payable": false,
      "stateMutability": "view",
      "type": "function"
    },
    {
      "constant": true,
      "inputs": [
        {
          "name": "seed",
          "type": "bytes32"
        }
      ],
      "name": "getWorldMeanAnomalyAtEpoch",
      "outputs": [
        {
          "name": "",
          "type": "int128"
        }
      ],
      "payable": false,
      "stateMutability": "view",
      "type": "function"
    },
    {
      "constant": true,
      "inputs": [
        {
          "name": "seed",
          "type": "bytes32"
        },
        {
          "name": "worldNumber",
          "type": "uint256"
        }
      ],
      "name": "isTidallyLocked",
      "outputs": [
        {
          "name": "",
          "type": "bool"
        }
      ],
      "payable": false,
      "stateMutability": "view",
      "type": "function"
    },
    {
      "constant": true,
      "inputs": [
        {
          "name": "seed",
          "type": "bytes32"
        }
      ],
      "name": "getWorldYXAxisAngles",
      "outputs": [
        {
          "name": "realYRadians",
          "type": "int128"
        },
        {
          "name": "realXRadians",
          "type": "int128"
        }
      ],
      "payable": false,
      "stateMutability": "view",
      "type": "function"
    },
    {
      "constant": true,
      "inputs": [
        {
          "name": "seed",
          "type": "bytes32"
        }
      ],
      "name": "getWorldSpinRate",
      "outputs": [
        {
          "name": "",
          "type": "int128"
        }
      ],
      "payable": false,
      "stateMutability": "view",
      "type": "function"
    }
  ],
  "bytecode": "0x608060405234801561001057600080fd5b5060405160208062005e718339810180604052810190808051906020019092919050505080336000806101000a81548173ffffffffffffffffffffffffffffffffffffffff021916908373ffffffffffffffffffffffffffffffffffffffff1602179055506000809054906101000a900473ffffffffffffffffffffffffffffffffffffffff1673ffffffffffffffffffffffffffffffffffffffff16600073ffffffffffffffffffffffffffffffffffffffff167f8be0079c531659141344cd1fd0a4f28419497f9722a3daafe3b4186f6b6457e060405160405180910390a380600160006101000a81548173ffffffffffffffffffffffffffffffffffffffff021916908373ffffffffffffffffffffffffffffffffffffffff1602179055505050615d2d80620001446000396000f3006080604052600436106100f1576000357c0100000000000000000000000000000000000000000000000000000000900463ffffffff16806303742dd4146100f65780632c99e9e81461018f5780635f2eb7b9146101f6578063715018a61461024e5780638301f10e146102655780638da5cb5b146102b05780638f32d59b146103075780639387730c1461033657806399b64cf3146103795780639a8914bc146103c4578063a13dac7314610428578063a3828ebe1461047f578063b0810666146104ca578063d2b4620b14610515578063d33c57d81461056d578063e7750601146105c0578063f2fde38b14610618575b600080fd5b34801561010257600080fd5b506101596004803603810190808035600f0b90602001909291908035600f0b90602001909291908035600019169060200190929190803560ff1690602001909291908035600f0b906020019092919050505061065b565b6040518084600f0b600f0b815260200183600f0b600f0b815260200182600f0b600f0b8152602001935050505060405180910390f35b34801561019b57600080fd5b506101d2600480360381019080803560001916906020019092919080359060200190929190803590602001909291905050506107ee565b604051808260098111156101e257fe5b60ff16815260200191505060405180910390f35b34801561020257600080fd5b506102256004803603810190808035600019169060200190929190505050610b56565b6040518083600f0b600f0b815260200182600f0b600f0b81526020019250505060405180910390f35b34801561025a57600080fd5b50610263610e7a565b005b34801561027157600080fd5b506102946004803603810190808035600019169060200190929190505050610f4c565b6040518082600f0b600f0b815260200191505060405180910390f35b3480156102bc57600080fd5b506102c5611318565b604051808273ffffffffffffffffffffffffffffffffffffffff1673ffffffffffffffffffffffffffffffffffffffff16815260200191505060405180910390f35b34801561031357600080fd5b5061031c611341565b604051808215151515815260200191505060405180910390f35b34801561034257600080fd5b50610377600480360381019080803573ffffffffffffffffffffffffffffffffffffffff169060200190929190505050611398565b005b34801561038557600080fd5b506103a860048036038101908080356000191690602001909291905050506113ef565b6040518082600f0b600f0b815260200191505060405180910390f35b3480156103d057600080fd5b506103ff6004803603810190808035600f0b90602001909291908035600f0b9060200190929190505050611649565b6040518083600f0b600f0b815260200182600f0b600f0b81526020019250505060405180910390f35b34801561043457600080fd5b506104616004803603810190808035600019169060200190929190803590602001909291905050506119b1565b60405180826000191660001916815260200191505060405180910390f35b34801561048b57600080fd5b506104ae6004803603810190808035600019169060200190929190505050611b1c565b6040518082600f0b600f0b815260200191505060405180910390f35b3480156104d657600080fd5b506104f96004803603810190808035600019169060200190929190505050611ee8565b6040518082600f0b600f0b815260200191505060405180910390f35b34801561052157600080fd5b506105516004803603810190808035600019169060200190929190803560ff1690602001909291905050506122b4565b6040518082600f0b600f0b815260200191505060405180910390f35b34801561057957600080fd5b506105a66004803603810190808035600019169060200190929190803590602001909291905050506128d4565b604051808215151515815260200191505060405180910390f35b3480156105cc57600080fd5b506105fc6004803603810190808035600019169060200190929190803560ff169060200190929190505050612b39565b6040518082600f0b600f0b815260200191505060405180910390f35b34801561062457600080fd5b50610659600480360381019080803573ffffffffffffffffffffffffffffffffffffffff169060200190929190505050613d20565b005b6000806000610668615cea565b600160009054906101000a900473ffffffffffffffffffffffffffffffffffffffff1673ffffffffffffffffffffffffffffffffffffffff16634af5fb0f33326040518363ffffffff167c0100000000000000000000000000000000000000000000000000000000028152600401808373ffffffffffffffffffffffffffffffffffffffff1673ffffffffffffffffffffffffffffffffffffffff1681526020018273ffffffffffffffffffffffffffffffffffffffff1673ffffffffffffffffffffffffffffffffffffffff16815260200192505050602060405180830381600087803b15801561075957600080fd5b505af115801561076d573d6000803e3d6000fd5b505050506040513d602081101561078357600080fd5b8101908080519060200190929190505050151561079f57600080fd5b602060405190810160405280886000191681525090506107c28989838989613d3f565b93506107d1898983898861443d565b92506107e08989838987614b38565b915050955095509592505050565b60006107f8615cea565b6000600160009054906101000a900473ffffffffffffffffffffffffffffffffffffffff1673ffffffffffffffffffffffffffffffffffffffff16634af5fb0f33326040518363ffffffff167c0100000000000000000000000000000000000000000000000000000000028152600401808373ffffffffffffffffffffffffffffffffffffffff1673ffffffffffffffffffffffffffffffffffffffff1681526020018273ffffffffffffffffffffffffffffffffffffffff1673ffffffffffffffffffffffffffffffffffffffff16815260200192505050602060405180830381600087803b1580156108eb57600080fd5b505af11580156108ff573d6000803e3d6000fd5b505050506040513d602081101561091557600080fd5b8101908080519060200190929190505050151561093157600080fd5b61098c6040805190810160405280600581526020017f636c617373000000000000000000000000000000000000000000000000000000815250602060405190810160405280896000191681525061523790919063ffffffff16565b91506109a5600060648461537c9092919063ffffffff16565b90506000851480156109b8575060018414155b15610a2f57604581600a0b12156109d25760019250610b4d565b604681600a0b12156109e75760059250610b4d565b604f81600a0b12156109fc5760029250610b4d565b605081600a0b1215610a115760069250610b4d565b605a81600a0b1215610a265760079250610b4d565b60039250610b4d565b600284811515610a3b57fe5b04851015610aca57600f81600a0b1215610a585760019250610b4d565b601481600a0b1215610a6d5760059250610b4d565b602381600a0b1215610a825760029250610b4d565b602881600a0b1215610a975760069250610b4d565b604681600a0b1215610aac5760079250610b4d565b605081600a0b1215610ac15760039250610b4d565b60099250610b4d565b600581600a0b1215610adf5760019250610b4d565b601481600a0b1215610af45760059250610b4d565b601681600a0b1215610b095760029250610b4d565b601e81600a0b1215610b1e5760069250610b4d565b603c81600a0b1215610b335760079250610b4d565b605a81600a0b1215610b485760039250610b4d565b600992505b50509392505050565b600080600080610b64615cea565b600160009054906101000a900473ffffffffffffffffffffffffffffffffffffffff1673ffffffffffffffffffffffffffffffffffffffff16634af5fb0f33326040518363ffffffff167c0100000000000000000000000000000000000000000000000000000000028152600401808373ffffffffffffffffffffffffffffffffffffffff1673ffffffffffffffffffffffffffffffffffffffff1681526020018273ffffffffffffffffffffffffffffffffffffffff1673ffffffffffffffffffffffffffffffffffffffff16815260200192505050602060405180830381600087803b158015610c5557600080fd5b505af1158015610c69573d6000803e3d6000fd5b505050506040513d6020811015610c7f57600080fd5b81019080805190602001909291905050501515610c9b57600080fd5b610d196503243f6a88866000036503243f6a8886610d0a6040805190810160405280600581526020017f61786973790000000000000000000000000000000000000000000000000000008152506020604051908101604052808c6000191681525061523790919063ffffffff16565b6156fe9092919063ffffffff16565b9450610d8f600160066000610d7f6040805190810160405280600481526020017f74696c74000000000000000000000000000000000000000000000000000000008152506020604051908101604052808d6000191681525061523790919063ffffffff16565b6157d4909392919063ffffffff16565b9250600160286001600f0b6000821215610da557fe5b9060020a02600f0b9060020a9005915060058360010b121515610dd75760016503243f6a8886600f0b9060020a900591505b610e326040805190810160405280600581526020017f6178697378000000000000000000000000000000000000000000000000000000815250602060405190810160405280896000191681525061523790919063ffffffff16565b9050610e4a600083836156fe9092919063ffffffff16565b935060048360010b1480610e61575060058360010b145b15610e7257836503243f6a88860393505b505050915091565b610e82611341565b1515610e8d57600080fd5b600073ffffffffffffffffffffffffffffffffffffffff166000809054906101000a900473ffffffffffffffffffffffffffffffffffffffff1673ffffffffffffffffffffffffffffffffffffffff167f8be0079c531659141344cd1fd0a4f28419497f9722a3daafe3b4186f6b6457e060405160405180910390a360008060006101000a81548173ffffffffffffffffffffffffffffffffffffffff021916908373ffffffffffffffffffffffffffffffffffffffff160217905550565b6000610f56615cea565b600160009054906101000a900473ffffffffffffffffffffffffffffffffffffffff1673ffffffffffffffffffffffffffffffffffffffff16634af5fb0f33326040518363ffffffff167c0100000000000000000000000000000000000000000000000000000000028152600401808373ffffffffffffffffffffffffffffffffffffffff1673ffffffffffffffffffffffffffffffffffffffff1681526020018273ffffffffffffffffffffffffffffffffffffffff1673ffffffffffffffffffffffffffffffffffffffff16815260200192505050602060405180830381600087803b15801561104757600080fd5b505af115801561105b573d6000803e3d6000fd5b505050506040513d602081101561107157600080fd5b8101908080519060200190929190505050151561108d57600080fd5b6110e86040805190810160405280600381526020017f4c414e0000000000000000000000000000000000000000000000000000000000815250602060405190810160405280866000191681525061523790919063ffffffff16565b905061131073__RealMath______________________________63f5a5d50360006040518263ffffffff167c01000000000000000000000000000000000000000000000000000000000281526004018082600a0b815260200191505060206040518083038186803b15801561115c57600080fd5b505af4158015611170573d6000803e3d6000fd5b505050506040513d602081101561118657600080fd5b810190808051906020019092919050505073__RealMath______________________________63b697214673__RealMath______________________________63f5a5d50360026040518263ffffffff167c01000000000000000000000000000000000000000000000000000000000281526004018082600a0b815260200191505060206040518083038186803b15801561122057600080fd5b505af4158015611234573d6000803e3d6000fd5b505050506040513d602081101561124a57600080fd5b81019080805190602001909291905050506503243f6a88866040518363ffffffff167c01000000000000000000000000000000000000000000000000000000000281526004018083600f0b600f0b815260200182600f0b600f0b81526020019250505060206040518083038186803b1580156112c557600080fd5b505af41580156112d9573d6000803e3d6000fd5b505050506040513d60208110156112ef57600080fd5b8101908080519060200190929190505050836156fe9092919063ffffffff16565b915050919050565b60008060009054906101000a900473ffffffffffffffffffffffffffffffffffffffff16905090565b60008060009054906101000a900473ffffffffffffffffffffffffffffffffffffffff1673ffffffffffffffffffffffffffffffffffffffff163373ffffffffffffffffffffffffffffffffffffffff1614905090565b6113a0611341565b15156113ab57600080fd5b80600160006101000a81548173ffffffffffffffffffffffffffffffffffffffff021916908373ffffffffffffffffffffffffffffffffffffffff16021790555050565b6000600160009054906101000a900473ffffffffffffffffffffffffffffffffffffffff1673ffffffffffffffffffffffffffffffffffffffff16634af5fb0f33326040518363ffffffff167c0100000000000000000000000000000000000000000000000000000000028152600401808373ffffffffffffffffffffffffffffffffffffffff1673ffffffffffffffffffffffffffffffffffffffff1681526020018273ffffffffffffffffffffffffffffffffffffffff1673ffffffffffffffffffffffffffffffffffffffff16815260200192505050602060405180830381600087803b1580156114e257600080fd5b505af11580156114f6573d6000803e3d6000fd5b505050506040513d602081101561150c57600080fd5b8101908080519060200190929190505050151561152857600080fd5b611642600073__RealMath______________________________63f5a5d503611f406040518263ffffffff167c01000000000000000000000000000000000000000000000000000000000281526004018082600a0b815260200191505060206040518083038186803b15801561159d57600080fd5b505af41580156115b1573d6000803e3d6000fd5b505050506040513d60208110156115c757600080fd5b81019080805190602001909291905050506116336040805190810160405280600481526020017f7370696e00000000000000000000000000000000000000000000000000000000815250602060405190810160405280886000191681525061523790919063ffffffff16565b6156fe9092919063ffffffff16565b9050919050565b600080600160009054906101000a900473ffffffffffffffffffffffffffffffffffffffff1673ffffffffffffffffffffffffffffffffffffffff16634af5fb0f33326040518363ffffffff167c0100000000000000000000000000000000000000000000000000000000028152600401808373ffffffffffffffffffffffffffffffffffffffff1673ffffffffffffffffffffffffffffffffffffffff1681526020018273ffffffffffffffffffffffffffffffffffffffff1673ffffffffffffffffffffffffffffffffffffffff16815260200192505050602060405180830381600087803b15801561173d57600080fd5b505af1158015611751573d6000803e3d6000fd5b505050506040513d602081101561176757600080fd5b8101908080519060200190929190505050151561178357600080fd5b73__RealMath______________________________6325f39a6385850173__RealMath______________________________63f5a5d50360026040518263ffffffff167c01000000000000000000000000000000000000000000000000000000000281526004018082600a0b815260200191505060206040518083038186803b15801561180f57600080fd5b505af4158015611823573d6000803e3d6000fd5b505050506040513d602081101561183957600080fd5b81019080805190602001909291905050506040518363ffffffff167c01000000000000000000000000000000000000000000000000000000000281526004018083600f0b600f0b815260200182600f0b600f0b81526020019250505060206040518083038186803b1580156118ad57600080fd5b505af41580156118c1573d6000803e3d6000fd5b505050506040513d60208110156118d757600080fd5b8101908080519060200190929190505050915073__RealMath______________________________6325f39a638585038686016040518363ffffffff167c01000000000000000000000000000000000000000000000000000000000281526004018083600f0b600f0b815260200182600f0b600f0b81526020019250505060206040518083038186803b15801561196d57600080fd5b505af4158015611981573d6000803e3d6000fd5b505050506040513d602081101561199757600080fd5b810190808051906020019092919050505090509250929050565b6000600160009054906101000a900473ffffffffffffffffffffffffffffffffffffffff1673ffffffffffffffffffffffffffffffffffffffff16634af5fb0f33326040518363ffffffff167c0100000000000000000000000000000000000000000000000000000000028152600401808373ffffffffffffffffffffffffffffffffffffffff1673ffffffffffffffffffffffffffffffffffffffff1681526020018273ffffffffffffffffffffffffffffffffffffffff1673ffffffffffffffffffffffffffffffffffffffff16815260200192505050602060405180830381600087803b158015611aa457600080fd5b505af1158015611ab8573d6000803e3d6000fd5b505050506040513d6020811015611ace57600080fd5b81019080805190602001909291905050501515611aea57600080fd5b611b1082602060405190810160405280866000191681525061585290919063ffffffff16565b60000151905092915050565b6000611b26615cea565b600160009054906101000a900473ffffffffffffffffffffffffffffffffffffffff1673ffffffffffffffffffffffffffffffffffffffff16634af5fb0f33326040518363ffffffff167c0100000000000000000000000000000000000000000000000000000000028152600401808373ffffffffffffffffffffffffffffffffffffffff1673ffffffffffffffffffffffffffffffffffffffff1681526020018273ffffffffffffffffffffffffffffffffffffffff1673ffffffffffffffffffffffffffffffffffffffff16815260200192505050602060405180830381600087803b158015611c1757600080fd5b505af1158015611c2b573d6000803e3d6000fd5b505050506040513d6020811015611c4157600080fd5b81019080805190602001909291905050501515611c5d57600080fd5b611cb86040805190810160405280600381526020017f4d41450000000000000000000000000000000000000000000000000000000000815250602060405190810160405280866000191681525061523790919063ffffffff16565b9050611ee073__RealMath______________________________63f5a5d50360006040518263ffffffff167c01000000000000000000000000000000000000000000000000000000000281526004018082600a0b815260200191505060206040518083038186803b158015611d2c57600080fd5b505af4158015611d40573d6000803e3d6000fd5b505050506040513d6020811015611d5657600080fd5b810190808051906020019092919050505073__RealMath______________________________63b697214673__RealMath______________________________63f5a5d50360026040518263ffffffff167c01000000000000000000000000000000000000000000000000000000000281526004018082600a0b815260200191505060206040518083038186803b158015611df057600080fd5b505af4158015611e04573d6000803e3d6000fd5b505050506040513d6020811015611e1a57600080fd5b81019080805190602001909291905050506503243f6a88866040518363ffffffff167c01000000000000000000000000000000000000000000000000000000000281526004018083600f0b600f0b815260200182600f0b600f0b81526020019250505060206040518083038186803b158015611e9557600080fd5b505af4158015611ea9573d6000803e3d6000fd5b505050506040513d6020811015611ebf57600080fd5b8101908080519060200190929190505050836156fe9092919063ffffffff16565b915050919050565b6000611ef2615cea565b600160009054906101000a900473ffffffffffffffffffffffffffffffffffffffff1673ffffffffffffffffffffffffffffffffffffffff16634af5fb0f33326040518363ffffffff167c0100000000000000000000000000000000000000000000000000000000028152600401808373ffffffffffffffffffffffffffffffffffffffff1673ffffffffffffffffffffffffffffffffffffffff1681526020018273ffffffffffffffffffffffffffffffffffffffff1673ffffffffffffffffffffffffffffffffffffffff16815260200192505050602060405180830381600087803b158015611fe357600080fd5b505af1158015611ff7573d6000803e3d6000fd5b505050506040513d602081101561200d57600080fd5b8101908080519060200190929190505050151561202957600080fd5b6120846040805190810160405280600381526020017f414f500000000000000000000000000000000000000000000000000000000000815250602060405190810160405280866000191681525061523790919063ffffffff16565b90506122ac73__RealMath______________________________63f5a5d50360006040518263ffffffff167c01000000000000000000000000000000000000000000000000000000000281526004018082600a0b815260200191505060206040518083038186803b1580156120f857600080fd5b505af415801561210c573d6000803e3d6000fd5b505050506040513d602081101561212257600080fd5b810190808051906020019092919050505073__RealMath______________________________63b697214673__RealMath______________________________63f5a5d50360026040518263ffffffff167c01000000000000000000000000000000000000000000000000000000000281526004018082600a0b815260200191505060206040518083038186803b1580156121bc57600080fd5b505af41580156121d0573d6000803e3d6000fd5b505050506040513d60208110156121e657600080fd5b81019080805190602001909291905050506503243f6a88866040518363ffffffff167c01000000000000000000000000000000000000000000000000000000000281526004018083600f0b600f0b815260200182600f0b600f0b81526020019250505060206040518083038186803b15801561226157600080fd5b505af4158015612275573d6000803e3d6000fd5b505050506040513d602081101561228b57600080fd5b8101908080519060200190929190505050836156fe9092919063ffffffff16565b915050919050565b60006122be615cea565b6000806000600160009054906101000a900473ffffffffffffffffffffffffffffffffffffffff1673ffffffffffffffffffffffffffffffffffffffff16634af5fb0f33326040518363ffffffff167c0100000000000000000000000000000000000000000000000000000000028152600401808373ffffffffffffffffffffffffffffffffffffffff1673ffffffffffffffffffffffffffffffffffffffff1681526020018273ffffffffffffffffffffffffffffffffffffffff1673ffffffffffffffffffffffffffffffffffffffff16815260200192505050602060405180830381600087803b1580156123b457600080fd5b505af11580156123c8573d6000803e3d6000fd5b505050506040513d60208110156123de57600080fd5b810190808051906020019092919050505015156123fa57600080fd5b6124556040805190810160405280600b81526020017f696e636c696e6174696f6e0000000000000000000000000000000000000000008152506020604051908101604052808a6000191681525061523790919063ffffffff16565b93506001600981111561246457fe5b86600981111561247057fe5b148061249257506005600981111561248457fe5b86600981111561249057fe5b145b156124a4576000925060af915061257e565b600260098111156124b157fe5b8660098111156124bd57fe5b14806124df5750600660098111156124d157fe5b8660098111156124dd57fe5b145b156124f157600092506057915061257d565b600760098111156124fe57fe5b86600981111561250a57fe5b141561251d57600092506023915061257c565b6003600981111561252a57fe5b86600981111561253657fe5b141561254957600092506034915061257b565b60098081111561255557fe5b86600981111561256157fe5b14156125755760009250610106915061257a565b600080fd5b5b5b5b5b6000905060036125e56001606460006125d56040805190810160405280600a81526020017f726574726f6772616465000000000000000000000000000000000000000000008152508a61523790919063ffffffff16565b6157d4909392919063ffffffff16565b60010b12156125f8576503243f6a888690505b73__RealMath______________________________6325f39a6361277d73__RealMath______________________________63f5a5d503876040518263ffffffff167c01000000000000000000000000000000000000000000000000000000000281526004018082600a0b600a0b815260200191505060206040518083038186803b15801561268657600080fd5b505af415801561269a573d6000803e3d6000fd5b505050506040513d60208110156126b057600080fd5b810190808051906020019092919050505073__RealMath______________________________63f5a5d503876040518263ffffffff167c01000000000000000000000000000000000000000000000000000000000281526004018082600a0b600a0b815260200191505060206040518083038186803b15801561273257600080fd5b505af4158015612746573d6000803e3d6000fd5b505050506040513d602081101561275c57600080fd5b8101908080519060200190929190505050886156fe9092919063ffffffff16565b73__RealMath______________________________63f5a5d5036103e86040518263ffffffff167c01000000000000000000000000000000000000000000000000000000000281526004018082600a0b815260200191505060206040518083038186803b1580156127ed57600080fd5b505af4158015612801573d6000803e3d6000fd5b505050506040513d602081101561281757600080fd5b81019080805190602001909291905050506040518363ffffffff167c01000000000000000000000000000000000000000000000000000000000281526004018083600f0b600f0b815260200182600f0b600f0b81526020019250505060206040518083038186803b15801561288b57600080fd5b505af415801561289f573d6000803e3d6000fd5b505050506040513d60208110156128b557600080fd5b8101908080519060200190929190505050810194505050505092915050565b6000600160009054906101000a900473ffffffffffffffffffffffffffffffffffffffff1673ffffffffffffffffffffffffffffffffffffffff16634af5fb0f33326040518363ffffffff167c0100000000000000000000000000000000000000000000000000000000028152600401808373ffffffffffffffffffffffffffffffffffffffff1673ffffffffffffffffffffffffffffffffffffffff1681526020018273ffffffffffffffffffffffffffffffffffffffff1673ffffffffffffffffffffffffffffffffffffffff16815260200192505050602060405180830381600087803b1580156129c757600080fd5b505af11580156129db573d6000803e3d6000fd5b505050506040513d60208110156129f157600080fd5b81019080805190602001909291905050501515612a0d57600080fd5b73__RealMath______________________________631dade0d460018085016040518363ffffffff167c01000000000000000000000000000000000000000000000000000000000281526004018083600a0b815260200182600a0b600a0b81526020019250505060206040518083038186803b158015612a8c57600080fd5b505af4158015612aa0573d6000803e3d6000fd5b505050506040513d6020811015612ab657600080fd5b8101908080519060200190929190505050600f0b612b2d612b286040805190810160405280600a81526020017f746964616c5f6c6f636b00000000000000000000000000000000000000000000815250602060405190810160405280886000191681525061523790919063ffffffff16565b61594a565b600f0b12905092915050565b6000612b43615cea565b600160009054906101000a900473ffffffffffffffffffffffffffffffffffffffff1673ffffffffffffffffffffffffffffffffffffffff16634af5fb0f33326040518363ffffffff167c0100000000000000000000000000000000000000000000000000000000028152600401808373ffffffffffffffffffffffffffffffffffffffff1673ffffffffffffffffffffffffffffffffffffffff1681526020018273ffffffffffffffffffffffffffffffffffffffff1673ffffffffffffffffffffffffffffffffffffffff16815260200192505050602060405180830381600087803b158015612c3457600080fd5b505af1158015612c48573d6000803e3d6000fd5b505050506040513d6020811015612c5e57600080fd5b81019080805190602001909291905050501515612c7a57600080fd5b612cd56040805190810160405280600481526020017f6d61737300000000000000000000000000000000000000000000000000000000815250602060405190810160405280876000191681525061523790919063ffffffff16565b905060006009811115612ce457fe5b836009811115612cf057fe5b1415612e8257612e7b73__RealMath______________________________631dade0d46001633b9aca006040518363ffffffff167c01000000000000000000000000000000000000000000000000000000000281526004018083600a0b815260200182600a0b81526020019250505060206040518083038186803b158015612d7757600080fd5b505af4158015612d8b573d6000803e3d6000fd5b505050506040513d6020811015612da157600080fd5b810190808051906020019092919050505073__RealMath______________________________631dade0d4600a633b9aca006040518363ffffffff167c01000000000000000000000000000000000000000000000000000000000281526004018083600a0b815260200182600a0b81526020019250505060206040518083038186803b158015612e3057600080fd5b505af4158015612e44573d6000803e3d6000fd5b505050506040513d6020811015612e5a57600080fd5b8101908080519060200190929190505050836156fe9092919063ffffffff16565b9150613d19565b60046009811115612e8f57fe5b836009811115612e9b57fe5b141561302d5761302673__RealMath______________________________631dade0d46001633b9aca006040518363ffffffff167c01000000000000000000000000000000000000000000000000000000000281526004018083600a0b815260200182600a0b81526020019250505060206040518083038186803b158015612f2257600080fd5b505af4158015612f36573d6000803e3d6000fd5b505050506040513d6020811015612f4c57600080fd5b810190808051906020019092919050505073__RealMath______________________________631dade0d4600a633b9aca006040518363ffffffff167c01000000000000000000000000000000000000000000000000000000000281526004018083600a0b815260200182600a0b81526020019250505060206040518083038186803b158015612fdb57600080fd5b505af4158015612fef573d6000803e3d6000fd5b505050506040513d602081101561300557600080fd5b8101908080519060200190929190505050836156fe9092919063ffffffff16565b9150613d19565b6001600981111561303a57fe5b83600981111561304657fe5b14156131d2576131cb73__RealMath______________________________631dade0d4600160646040518363ffffffff167c01000000000000000000000000000000000000000000000000000000000281526004018083600a0b815260200182600a0b81526020019250505060206040518083038186803b1580156130ca57600080fd5b505af41580156130de573d6000803e3d6000fd5b505050506040513d60208110156130f457600080fd5b810190808051906020019092919050505073__RealMath______________________________631dade0d4600960646040518363ffffffff167c01000000000000000000000000000000000000000000000000000000000281526004018083600a0b815260200182600a0b81526020019250505060206040518083038186803b15801561318057600080fd5b505af4158015613194573d6000803e3d6000fd5b505050506040513d60208110156131aa57600080fd5b8101908080519060200190929190505050836156fe9092919063ffffffff16565b9150613d19565b600560098111156131df57fe5b8360098111156131eb57fe5b14156133795761337273__RealMath______________________________631dade0d460086103e86040518363ffffffff167c01000000000000000000000000000000000000000000000000000000000281526004018083600a0b815260200182600a0b81526020019250505060206040518083038186803b15801561327057600080fd5b505af4158015613284573d6000803e3d6000fd5b505050506040513d602081101561329a57600080fd5b810190808051906020019092919050505073__RealMath______________________________631dade0d460506103e86040518363ffffffff167c01000000000000000000000000000000000000000000000000000000000281526004018083600a0b815260200182600a0b81526020019250505060206040518083038186803b15801561332757600080fd5b505af415801561333b573d6000803e3d6000fd5b505050506040513d602081101561335157600080fd5b8101908080519060200190929190505050836156fe9092919063ffffffff16565b9150613d19565b6002600981111561338657fe5b83600981111561339257fe5b14156135125761350b73__RealMath______________________________631dade0d4600a60646040518363ffffffff167c01000000000000000000000000000000000000000000000000000000000281526004018083600a0b815260200182600a0b81526020019250505060206040518083038186803b15801561341657600080fd5b505af415801561342a573d6000803e3d6000fd5b505050506040513d602081101561344057600080fd5b810190808051906020019092919050505073__RealMath______________________________63f5a5d50360096040518263ffffffff167c01000000000000000000000000000000000000000000000000000000000281526004018082600a0b815260200191505060206040518083038186803b1580156134c057600080fd5b505af41580156134d4573d6000803e3d6000fd5b505050506040513d60208110156134ea57600080fd5b8101908080519060200190929190505050836156fe9092919063ffffffff16565b9150613d19565b6006600981111561351f57fe5b83600981111561352b57fe5b14156136ac576136a573__RealMath______________________________631dade0d460506103e86040518363ffffffff167c01000000000000000000000000000000000000000000000000000000000281526004018083600a0b815260200182600a0b81526020019250505060206040518083038186803b1580156135b057600080fd5b505af41580156135c4573d6000803e3d6000fd5b505050506040513d60208110156135da57600080fd5b810190808051906020019092919050505073__RealMath______________________________63f5a5d50360096040518263ffffffff167c01000000000000000000000000000000000000000000000000000000000281526004018082600a0b815260200191505060206040518083038186803b15801561365a57600080fd5b505af415801561366e573d6000803e3d6000fd5b505050506040513d602081101561368457600080fd5b8101908080519060200190929190505050836156fe9092919063ffffffff16565b9150613d19565b600760098111156136b957fe5b8360098111156136c557fe5b14156138395761383273__RealMath______________________________63f5a5d50360076040518263ffffffff167c01000000000000000000000000000000000000000000000000000000000281526004018082600a0b815260200191505060206040518083038186803b15801561373d57600080fd5b505af4158015613751573d6000803e3d6000fd5b505050506040513d602081101561376757600080fd5b810190808051906020019092919050505073__RealMath______________________________63f5a5d50360146040518263ffffffff167c01000000000000000000000000000000000000000000000000000000000281526004018082600a0b815260200191505060206040518083038186803b1580156137e757600080fd5b505af41580156137fb573d6000803e3d6000fd5b505050506040513d602081101561381157600080fd5b8101908080519060200190929190505050836156fe9092919063ffffffff16565b9150613d19565b6003600981111561384657fe5b83600981111561385257fe5b14156139c7576139c073__RealMath______________________________63f5a5d50360326040518263ffffffff167c01000000000000000000000000000000000000000000000000000000000281526004018082600a0b815260200191505060206040518083038186803b1580156138ca57600080fd5b505af41580156138de573d6000803e3d6000fd5b505050506040513d60208110156138f457600080fd5b810190808051906020019092919050505073__RealMath______________________________63f5a5d5036101906040518263ffffffff167c01000000000000000000000000000000000000000000000000000000000281526004018082600a0b815260200191505060206040518083038186803b15801561397557600080fd5b505af4158015613989573d6000803e3d6000fd5b505050506040513d602081101561399f57600080fd5b8101908080519060200190929190505050836156fe9092919063ffffffff16565b9150613d19565b6009808111156139d357fe5b8360098111156139df57fe5b1415613b6b57613b6473__RealMath______________________________631dade0d4600160646040518363ffffffff167c01000000000000000000000000000000000000000000000000000000000281526004018083600a0b815260200182600a0b81526020019250505060206040518083038186803b158015613a6357600080fd5b505af4158015613a77573d6000803e3d6000fd5b505050506040513d6020811015613a8d57600080fd5b810190808051906020019092919050505073__RealMath______________________________631dade0d4601460646040518363ffffffff167c01000000000000000000000000000000000000000000000000000000000281526004018083600a0b815260200182600a0b81526020019250505060206040518083038186803b158015613b1957600080fd5b505af4158015613b2d573d6000803e3d6000fd5b505050506040513d6020811015613b4357600080fd5b8101908080519060200190929190505050836156fe9092919063ffffffff16565b9150613d19565b60086009811115613b7857fe5b836009811115613b8457fe5b1415613d1457613d0d73__RealMath______________________________631dade0d46001620f42406040518363ffffffff167c01000000000000000000000000000000000000000000000000000000000281526004018083600a0b815260200182600a0b81526020019250505060206040518083038186803b158015613c0a57600080fd5b505af4158015613c1e573d6000803e3d6000fd5b505050506040513d6020811015613c3457600080fd5b810190808051906020019092919050505073__RealMath______________________________631dade0d46014620f42406040518363ffffffff167c01000000000000000000000000000000000000000000000000000000000281526004018083600a0b815260200182600a0b81526020019250505060206040518083038186803b158015613cc257600080fd5b505af4158015613cd6573d6000803e3d6000fd5b505050506040513d6020811015613cec57600080fd5b8101908080519060200190929190505050836156fe9092919063ffffffff16565b9150613d19565b600080fd5b5092915050565b613d28611341565b1515613d3357600080fd5b613d3c81615a0c565b50565b6000613d49615cea565b613d51615cea565b6000806000806000613da16040805190810160405280600981526020017f70657269617073697300000000000000000000000000000000000000000000008152508c61523790919063ffffffff16565b9650613deb6040805190810160405280600a81526020017f70657269617073697332000000000000000000000000000000000000000000008152508c61523790919063ffffffff16565b955060016009811115613dfa57fe5b8a6009811115613e0657fe5b1480613e28575060056009811115613e1a57fe5b8a6009811115613e2657fe5b145b15613e3a5760149450603c9350613f17565b60026009811115613e4757fe5b8a6009811115613e5357fe5b1480613e75575060066009811115613e6757fe5b8a6009811115613e7357fe5b145b15613e87576014945060469350613f16565b60076009811115613e9457fe5b8a6009811115613ea057fe5b1415613eb457603294506103e89350613f15565b60036009811115613ec157fe5b8a6009811115613ecd57fe5b1415613ee25761012c94506101f49350613f14565b600980811115613eee57fe5b8a6009811115613efa57fe5b1415613f0e57601494506101f49350613f13565b600080fd5b5b5b5b5b61408273__RealMath______________________________63f5a5d503876040518263ffffffff167c01000000000000000000000000000000000000000000000000000000000281526004018082600a0b600a0b815260200191505060206040518083038186803b158015613f8b57600080fd5b505af4158015613f9f573d6000803e3d6000fd5b505050506040513d6020811015613fb557600080fd5b810190808051906020019092919050505073__RealMath______________________________63f5a5d503876040518263ffffffff167c01000000000000000000000000000000000000000000000000000000000281526004018082600a0b600a0b815260200191505060206040518083038186803b15801561403757600080fd5b505af415801561404b573d6000803e3d6000fd5b505050506040513d602081101561406157600080fd5b8101908080519060200190929190505050896156fe9092919063ffffffff16565b92506141ef73__RealMath______________________________63f5a5d503876040518263ffffffff167c01000000000000000000000000000000000000000000000000000000000281526004018082600a0b600a0b815260200191505060206040518083038186803b1580156140f857600080fd5b505af415801561410c573d6000803e3d6000fd5b505050506040513d602081101561412257600080fd5b810190808051906020019092919050505073__RealMath______________________________63f5a5d503876040518263ffffffff167c01000000000000000000000000000000000000000000000000000000000281526004018082600a0b600a0b815260200191505060206040518083038186803b1580156141a457600080fd5b505af41580156141b8573d6000803e3d6000fd5b505050506040513d60208110156141ce57600080fd5b8101908080519060200190929190505050886156fe9092919063ffffffff16565b915081600f0b83600f0b126142045781614206565b825b905073__RealMath______________________________63b6972146828f6040518363ffffffff167c01000000000000000000000000000000000000000000000000000000000281526004018083600f0b600f0b815260200182600f0b600f0b81526020019250505060206040518083038186803b15801561428757600080fd5b505af415801561429b573d6000803e3d6000fd5b505050506040513d60208110156142b157600080fd5b8101908080519060200190929190505050600f0b73__RealMath______________________________6325f39a63909173__RealMath______________________________63f5a5d50360646040518263ffffffff167c01000000000000000000000000000000000000000000000000000000000281526004018082600a0b815260200191505060206040518083038186803b15801561435057600080fd5b505af4158015614364573d6000803e3d6000fd5b505050506040513d602081101561437a57600080fd5b81019080805190602001909291905050506040518363ffffffff167c01000000000000000000000000000000000000000000000000000000000281526004018083600f0b600f0b815260200182600f0b600f0b81526020019250505060206040518083038186803b1580156143ee57600080fd5b505af4158015614402573d6000803e3d6000fd5b505050506040513d602081101561441857600080fd5b8101908080519060200190929190505050890197505050505050505095945050505050565b6000614447615cea565b61444f615cea565b600080600080600061449f6040805190810160405280600881526020017f61706f61707369730000000000000000000000000000000000000000000000008152508c61523790919063ffffffff16565b96506144e96040805190810160405280600981526020017f61706f61707369733200000000000000000000000000000000000000000000008152508c61523790919063ffffffff16565b9550600160098111156144f857fe5b8a600981111561450457fe5b148061452657506005600981111561451857fe5b8a600981111561452457fe5b145b15614538576000945060069350614612565b6002600981111561454557fe5b8a600981111561455157fe5b148061457357506006600981111561456557fe5b8a600981111561457157fe5b145b156145855760009450600a9350614611565b6007600981111561459257fe5b8a600981111561459e57fe5b14156145b257601494506101f49350614610565b600360098111156145bf57fe5b8a60098111156145cb57fe5b14156145de57600a945060c8935061460f565b6009808111156145ea57fe5b8a60098111156145f657fe5b141561460957600a94506064935061460e565b600080fd5b5b5b5b5b61477d73__RealMath______________________________63f5a5d503876040518263ffffffff167c01000000000000000000000000000000000000000000000000000000000281526004018082600a0b600a0b815260200191505060206040518083038186803b15801561468657600080fd5b505af415801561469a573d6000803e3d6000fd5b505050506040513d60208110156146b057600080fd5b810190808051906020019092919050505073__RealMath______________________________63f5a5d503876040518263ffffffff167c01000000000000000000000000000000000000000000000000000000000281526004018082600a0b600a0b815260200191505060206040518083038186803b15801561473257600080fd5b505af4158015614746573d6000803e3d6000fd5b505050506040513d602081101561475c57600080fd5b8101908080519060200190929190505050896156fe9092919063ffffffff16565b92506148ea73__RealMath______________________________63f5a5d503876040518263ffffffff167c01000000000000000000000000000000000000000000000000000000000281526004018082600a0b600a0b815260200191505060206040518083038186803b1580156147f357600080fd5b505af4158015614807573d6000803e3d6000fd5b505050506040513d602081101561481d57600080fd5b810190808051906020019092919050505073__RealMath______________________________63f5a5d503876040518263ffffffff167c01000000000000000000000000000000000000000000000000000000000281526004018082600a0b600a0b815260200191505060206040518083038186803b15801561489f57600080fd5b505af41580156148b3573d6000803e3d6000fd5b505050506040513d60208110156148c957600080fd5b8101908080519060200190929190505050886156fe9092919063ffffffff16565b915081600f0b83600f0b126148ff5781614901565b825b905073__RealMath______________________________63b6972146828f6040518363ffffffff167c01000000000000000000000000000000000000000000000000000000000281526004018083600f0b600f0b815260200182600f0b600f0b81526020019250505060206040518083038186803b15801561498257600080fd5b505af4158015614996573d6000803e3d6000fd5b505050506040513d60208110156149ac57600080fd5b8101908080519060200190929190505050600f0b73__RealMath______________________________6325f39a63909173__RealMath______________________________63f5a5d50360646040518263ffffffff167c01000000000000000000000000000000000000000000000000000000000281526004018082600a0b815260200191505060206040518083038186803b158015614a4b57600080fd5b505af4158015614a5f573d6000803e3d6000fd5b505050506040513d6020811015614a7557600080fd5b81019080805190602001909291905050506040518363ffffffff167c01000000000000000000000000000000000000000000000000000000000281526004018083600f0b600f0b815260200182600f0b600f0b81526020019250505060206040518083038186803b158015614ae957600080fd5b505af4158015614afd573d6000803e3d6000fd5b505050506040513d6020811015614b1357600080fd5b8101908080519060200190929190505050890197505050505050505095945050505050565b6000614b42615cea565b614b4a615cea565b6000806000806000614b9a6040805190810160405280600781526020017f636c6561726564000000000000000000000000000000000000000000000000008152508c61523790919063ffffffff16565b9650614be46040805190810160405280600881526020017f636c6561726564320000000000000000000000000000000000000000000000008152508c61523790919063ffffffff16565b955060016009811115614bf357fe5b8a6009811115614bff57fe5b1480614c21575060056009811115614c1357fe5b8a6009811115614c1f57fe5b145b15614c335760149450603c9350614d11565b60026009811115614c4057fe5b8a6009811115614c4c57fe5b1480614c6e575060066009811115614c6057fe5b8a6009811115614c6c57fe5b145b15614c80576028945060469350614d10565b60076009811115614c8d57fe5b8a6009811115614c9957fe5b1415614cae5761012c94506102bc9350614d0f565b60036009811115614cbb57fe5b8a6009811115614cc757fe5b1415614cdc5761012c94506101f49350614d0e565b600980811115614ce857fe5b8a6009811115614cf457fe5b1415614d0857601494506101f49350614d0d565b600080fd5b5b5b5b5b614e7c73__RealMath______________________________63f5a5d503876040518263ffffffff167c01000000000000000000000000000000000000000000000000000000000281526004018082600a0b600a0b815260200191505060206040518083038186803b158015614d8557600080fd5b505af4158015614d99573d6000803e3d6000fd5b505050506040513d6020811015614daf57600080fd5b810190808051906020019092919050505073__RealMath______________________________63f5a5d503876040518263ffffffff167c01000000000000000000000000000000000000000000000000000000000281526004018082600a0b600a0b815260200191505060206040518083038186803b158015614e3157600080fd5b505af4158015614e45573d6000803e3d6000fd5b505050506040513d6020811015614e5b57600080fd5b8101908080519060200190929190505050896156fe9092919063ffffffff16565b9250614fe973__RealMath______________________________63f5a5d503876040518263ffffffff167c01000000000000000000000000000000000000000000000000000000000281526004018082600a0b600a0b815260200191505060206040518083038186803b158015614ef257600080fd5b505af4158015614f06573d6000803e3d6000fd5b505050506040513d6020811015614f1c57600080fd5b810190808051906020019092919050505073__RealMath______________________________63f5a5d503876040518263ffffffff167c01000000000000000000000000000000000000000000000000000000000281526004018082600a0b600a0b815260200191505060206040518083038186803b158015614f9e57600080fd5b505af4158015614fb2573d6000803e3d6000fd5b505050506040513d6020811015614fc857600080fd5b8101908080519060200190929190505050886156fe9092919063ffffffff16565b915081600f0b83600f0b12614ffe5781615000565b825b905073__RealMath______________________________63b6972146828f6040518363ffffffff167c01000000000000000000000000000000000000000000000000000000000281526004018083600f0b600f0b815260200182600f0b600f0b81526020019250505060206040518083038186803b15801561508157600080fd5b505af4158015615095573d6000803e3d6000fd5b505050506040513d60208110156150ab57600080fd5b8101908080519060200190929190505050600f0b73__RealMath______________________________6325f39a63909173__RealMath______________________________63f5a5d50360646040518263ffffffff167c01000000000000000000000000000000000000000000000000000000000281526004018082600a0b815260200191505060206040518083038186803b15801561514a57600080fd5b505af415801561515e573d6000803e3d6000fd5b505050506040513d602081101561517457600080fd5b81019080805190602001909291905050506040518363ffffffff167c01000000000000000000000000000000000000000000000000000000000281526004018083600f0b600f0b815260200182600f0b600f0b81526020019250505060206040518083038186803b1580156151e857600080fd5b505af41580156151fc573d6000803e3d6000fd5b505050506040513d602081101561521257600080fd5b8101908080519060200190929190505050890197505050505050505095945050505050565b61523f615cea565b602060405190810160405280600285600001518560405160200180836000191660001916815260200182805190602001908083835b6020831015156152995780518252602082019150602081019050602083039250615274565b6001836020036101000a038019825116818451168082178552505050505050905001925050506040516020818303038152906040526040518082805190602001908083835b60208310151561530357805182526020820191506020810190506020830392506152de565b6001836020036101000a0380198251168184511680821785525050505050509050019150506020604051808303816000865af1158015615347573d6000803e3d6000fd5b5050506040513d602081101561535c57600080fd5b810190808051906020019092919050505060001916815250905092915050565b600073__RealMath______________________________6315dbfe2873__RealMath______________________________63f5a5d503866040518263ffffffff167c01000000000000000000000000000000000000000000000000000000000281526004018082600a0b600a0b815260200191505060206040518083038186803b15801561540957600080fd5b505af415801561541d573d6000803e3d6000fd5b505050506040513d602081101561543357600080fd5b810190808051906020019092919050505061544d8761594a565b600f0b73__RealMath______________________________63b6972146909173__RealMath______________________________63f5a5d5038a6040518263ffffffff167c01000000000000000000000000000000000000000000000000000000000281526004018082600a0b600a0b815260200191505060206040518083038186803b1580156154dd57600080fd5b505af41580156154f1573d6000803e3d6000fd5b505050506040513d602081101561550757600080fd5b810190808051906020019092919050505073__RealMath______________________________63f5a5d5038a6040518263ffffffff167c01000000000000000000000000000000000000000000000000000000000281526004018082600a0b600a0b815260200191505060206040518083038186803b15801561558957600080fd5b505af415801561559d573d6000803e3d6000fd5b505050506040513d60208110156155b357600080fd5b8101908080519060200190929190505050036040518363ffffffff167c01000000000000000000000000000000000000000000000000000000000281526004018083600f0b600f0b815260200182600f0b600f0b81526020019250505060206040518083038186803b15801561562857600080fd5b505af415801561563c573d6000803e3d6000fd5b505050506040513d602081101561565257600080fd5b8101908080519060200190929190505050016040518263ffffffff167c01000000000000000000000000000000000000000000000000000000000281526004018082600f0b600f0b815260200191505060206040518083038186803b1580156156ba57600080fd5b505af41580156156ce573d6000803e3d6000fd5b505050506040513d60208110156156e457600080fd5b810190808051906020019092919050505090509392505050565b60008261570a8561594a565b600f0b73__RealMath______________________________63b697214690918686036040518363ffffffff167c01000000000000000000000000000000000000000000000000000000000281526004018083600f0b600f0b815260200182600f0b600f0b81526020019250505060206040518083038186803b15801561578f57600080fd5b505af41580156157a3573d6000803e3d6000fd5b505050506040513d60208110156157b957600080fd5b81019080805190602001909291905050500190509392505050565b600080600060018660000b1415615800578360000b6157f88860018860000b61537c565b019250615848565b8360000b9150600090505b8560000b8160000b121561584457615833615829888360000b615b06565b60018760006157d4565b82019150808060010191505061580b565b8192505b5050949350505050565b61585a615cea565b6020604051908101604052806002856000015185604051602001808360001916600019168152602001828152602001925050506040516020818303038152906040526040518082805190602001908083835b6020831015156158d157805182526020820191506020810190506020830392506158ac565b6001836020036101000a0380198251168184511680821785525050505050509050019150506020604051808303816000865af1158015615915573d6000803e3d6000fd5b5050506040513d602081101561592a57600080fd5b810190808051906020019092919050505060001916815250905092915050565b600061595582615bfe565b600f0b73__RealMath______________________________6384f1bd4e90916040518263ffffffff167c01000000000000000000000000000000000000000000000000000000000281526004018082600f0b600f0b815260200191505060206040518083038186803b1580156159ca57600080fd5b505af41580156159de573d6000803e3d6000fd5b505050506040513d60208110156159f457600080fd5b81019080805190602001909291905050509050919050565b600073ffffffffffffffffffffffffffffffffffffffff168173ffffffffffffffffffffffffffffffffffffffff1614151515615a4857600080fd5b8073ffffffffffffffffffffffffffffffffffffffff166000809054906101000a900473ffffffffffffffffffffffffffffffffffffffff1673ffffffffffffffffffffffffffffffffffffffff167f8be0079c531659141344cd1fd0a4f28419497f9722a3daafe3b4186f6b6457e060405160405180910390a3806000806101000a81548173ffffffffffffffffffffffffffffffffffffffff021916908373ffffffffffffffffffffffffffffffffffffffff16021790555050565b615b0e615cea565b6020604051908101604052806002856000015185604051602001808360001916600019168152602001828152602001925050506040516020818303038152906040526040518082805190602001908083835b602083101515615b855780518252602082019150602081019050602083039250615b60565b6001836020036101000a0380198251168184511680821785525050505050509050019150506020604051808303816000865af1158015615bc9573d6000803e3d6000fd5b5050506040513d6020811015615bde57600080fd5b810190808051906020019092919050505060001916815250905092915050565b6000615c0982615c14565b600190049050919050565b6000600282600001516040516020018082600019166000191681526020019150506040516020818303038152906040526040518082805190602001908083835b602083101515615c795780518252602082019150602081019050602083039250615c54565b6001836020036101000a0380198251168184511680821785525050505050509050019150506020604051808303816000865af1158015615cbd573d6000803e3d6000fd5b5050506040513d6020811015615cd257600080fd5b81019080805190602001909291905050509050919050565b6020604051908101604052806000801916815250905600a165627a7a723058208be4fea8880b5536e622b4a644655ddeb40eed4a6057c3dcdbb419b7f155467e0029",
  "source": "pragma solidity ^0.4.24;\n\nimport \"./RNG.sol\";\nimport \"./RealMath.sol\";\n\nimport \"./AccessControl.sol\";\nimport \"./ControlledAccess.sol\";\n\n/**\n * Represents a Macroverse generator for planetary systems around stars and\n * other stellar objects.\n *\n * Because of contract size limitations, some code in this contract is shared\n * between planets and moons, while some code is planet-specific. Moon-specific\n * code lives in the MacroverseMoonGenerator.\n *\n * Permission to call methods on this contract is regulated by a configurable\n * AccessControl contract. One such set of terms might be to require that the\n * account initiating a transaction have a certain minimum MRV token balance.\n *\n * The owner of this contract reserves the right to supersede it with a new\n * version, and to modify the terms for accessing this contract, at any time,\n * for any reason, and without notice. This includes the right to indefinitely\n * or permanently suspend or terminate access to this contract for any person,\n * account, or other contract, or for all persons, accounts, or other\n * contracts. The owner also reserves the right to not do any of the above.\n */\ncontract MacroverseSystemGenerator is ControlledAccess {\n    // TODO: RNG doesn't get linked against because we can't pass the struct to the library...\n    using RNG for *;\n    using RealMath for *;\n    // No SafeMath or it might confuse RealMath\n\n    /**\n     * It is useful to have Pi around.\n     * We can't pull it in from the library.\n     */\n    int128 constant REAL_PI = 3454217652358;\n\n    /**\n     * Also perpare pi/2\n     */\n    int128 constant REAL_HALF_PI = REAL_PI >> 1;\n\n    /**\n     * How many fractional bits are there?\n     */\n    int256 constant REAL_FBITS = 40;\n    \n    /**\n     * What's the first non-fractional bit\n     */\n    int128 constant REAL_ONE = int128(1) << REAL_FBITS;\n    \n    /**\n     * What's the last fractional bit?\n     */\n    int128 constant REAL_HALF = REAL_ONE >> 1;\n    \n    /**\n     * What's two? Two is pretty useful.\n     */\n    int128 constant REAL_TWO = REAL_ONE << 1;\n\n    /**\n     * And zero\n     */\n    int128 constant REAL_ZERO = 0;\n\n    /**\n     * Define different types of planet or moon.\n     * \n     * There are two main progressions:\n     * Asteroidal, Lunar, Terrestrial, Jovian are rocky things.\n     * Cometary, Europan, Panthalassic, Neptunian are icy/watery things, depending on temperature.\n     * The last thing in each series is the gas/ice giant.\n     *\n     * Asteroidal and Cometary are only valid for moons; we don't track such tiny bodies at system scale.\n     *\n     * We also have rings and asteroid belts. Rings can only be around planets, and we fake the Roche limit math we really should do.\n     * \n     */\n    enum WorldClass {Asteroidal, Lunar, Terrestrial, Jovian, Cometary, Europan, Panthalassic, Neptunian, Ring, AsteroidBelt}\n\n    /**\n     * Deploy a new copy of the MacroverseSystemGenerator.\n     */\n    constructor(address accessControlAddress) ControlledAccess(AccessControl(accessControlAddress)) public {\n        // Nothing to do!\n    }\n    \n    /**\n     * Get the seed for a planet or moon from the seed for its parent (star or planet) and its child number.\n     */\n    function getWorldSeed(bytes32 parentSeed, uint childNumber) public view onlyControlledAccess returns (bytes32) {\n        return RNG.RandNode(parentSeed).derive(childNumber)._hash;\n    }\n    \n    /**\n     * Decide what kind of planet a given planet is.\n     * It depends on its place in the order.\n     * Takes the *planet*'s seed, its number, and the total planets in the system.\n     */\n    function getPlanetClass(bytes32 seed, uint planetNumber, uint totalPlanets) public view onlyControlledAccess returns (WorldClass) {\n        // TODO: do something based on metallicity?\n        RNG.RandNode memory node = RNG.RandNode(seed).derive(\"class\");\n        \n        int88 roll = node.getIntBetween(0, 100);\n        \n        // Inner planets should be more planet-y, ideally smaller\n        // Asteroid belts shouldn't be first that often\n        \n        if (planetNumber == 0 && totalPlanets != 1) {\n            // Innermost planet of a multi-planet system\n            // No asteroid belts allowed!\n            // Also avoid too much watery stuff here because we don't want to deal with the water having been supposed to boil off.\n            if (roll < 69) {\n                return WorldClass.Lunar;\n            } else if (roll < 70) {\n                return WorldClass.Europan;\n            } else if (roll < 79) {\n                return WorldClass.Terrestrial;\n            } else if (roll < 80) {\n                return WorldClass.Panthalassic;\n            } else if (roll < 90) {\n                return WorldClass.Neptunian;\n            } else {\n                return WorldClass.Jovian;\n            }\n        } else if (planetNumber < totalPlanets / 2) {\n            // Inner system\n            if (roll < 15) {\n                return WorldClass.Lunar;\n            } else if (roll < 20) {\n                return WorldClass.Europan;\n            } else if (roll < 35) {\n                return WorldClass.Terrestrial;\n            } else if (roll < 40) {\n                return WorldClass.Panthalassic;\n            } else if (roll < 70) {\n                return WorldClass.Neptunian;\n            } else if (roll < 80) {\n                return WorldClass.Jovian;\n            } else {\n                return WorldClass.AsteroidBelt;\n            }\n        } else {\n            // Outer system\n            if (roll < 5) {\n                return WorldClass.Lunar;\n            } else if (roll < 20) {\n                return WorldClass.Europan;\n            } else if (roll < 22) {\n                return WorldClass.Terrestrial;\n            } else if (roll < 30) {\n                return WorldClass.Panthalassic;\n            } else if (roll < 60) {\n                return WorldClass.Neptunian;\n            } else if (roll < 90) {\n                return WorldClass.Jovian;\n            } else {\n                return WorldClass.AsteroidBelt;\n            }\n        }\n    }\n    \n    /**\n     * Decide what the mass of the planet or moon is. We can't do even the mass of\n     * Jupiter in the ~88 bits we have in a real (should we have used int256 as\n     * the backing type?) so we work in Earth masses.\n     *\n     * Also produces the masses for moons.\n     */\n    function getWorldMass(bytes32 seed, WorldClass class) public view onlyControlledAccess returns (int128) {\n        RNG.RandNode memory node = RNG.RandNode(seed).derive(\"mass\");\n        \n        if (class == WorldClass.Asteroidal) {\n            // For tiny bodies like this we work in nano-earths\n            return node.getRealBetween(RealMath.fraction(1, 1000000000), RealMath.fraction(10, 1000000000));\n        } else if (class == WorldClass.Cometary) {\n            return node.getRealBetween(RealMath.fraction(1, 1000000000), RealMath.fraction(10, 1000000000));\n        } else if (class == WorldClass.Lunar) {\n            return node.getRealBetween(RealMath.fraction(1, 100), RealMath.fraction(9, 100));\n        } else if (class == WorldClass.Europan) {\n            return node.getRealBetween(RealMath.fraction(8, 1000), RealMath.fraction(80, 1000));\n        } else if (class == WorldClass.Terrestrial) {\n            return node.getRealBetween(RealMath.fraction(10, 100), RealMath.toReal(9));\n        } else if (class == WorldClass.Panthalassic) {\n            return node.getRealBetween(RealMath.fraction(80, 1000), RealMath.toReal(9));\n        } else if (class == WorldClass.Neptunian) {\n            return node.getRealBetween(RealMath.toReal(7), RealMath.toReal(20));\n        } else if (class == WorldClass.Jovian) {\n            return node.getRealBetween(RealMath.toReal(50), RealMath.toReal(400));\n        } else if (class == WorldClass.AsteroidBelt) {\n            return node.getRealBetween(RealMath.fraction(1, 100), RealMath.fraction(20, 100));\n        } else if (class == WorldClass.Ring) {\n            // Saturn's rings are maybe about 5-15 micro-earths\n            return node.getRealBetween(RealMath.fraction(1, 1000000), RealMath.fraction(20, 1000000));\n        } else {\n            // Not real!\n            revert();\n        }\n    }\n    \n    // Define the orbit shape\n\n    /**\n     * Given the parent star's habitable zone bounds, the planet seed, the planet class\n     * to be generated, and the \"clearance\" radius around the previous planet\n     * in meters, produces orbit statistics (periapsis, apoapsis, and\n     * clearance) in meters.\n     *\n     * The first planet uses a previous clearance of 0.\n     *\n     * TODO: realOuterRadius from the habitable zone never gets used. We should remove it.\n     */\n    function getPlanetOrbitDimensions(int128 realInnerRadius, int128 realOuterRadius, bytes32 seed, WorldClass class, int128 realPrevClearance)\n        public view onlyControlledAccess returns (int128 realPeriapsis, int128 realApoapsis, int128 realClearance) {\n\n        // We scale all the random generation around the habitable zone distance.\n\n        // Make the planet RNG node to use for all the computations\n        RNG.RandNode memory node = RNG.RandNode(seed);\n        \n        // Compute the statistics with their own functions\n        realPeriapsis = getPlanetPeriapsis(realInnerRadius, realOuterRadius, node, class, realPrevClearance);\n        realApoapsis = getPlanetApoapsis(realInnerRadius, realOuterRadius, node, class, realPeriapsis);\n        realClearance = getPlanetClearance(realInnerRadius, realOuterRadius, node, class, realApoapsis);\n    }\n\n    /**\n     * Decide what the planet's orbit's periapsis is, in meters.\n     * This is the first statistic about the orbit to be generated.\n     *\n     * For the first planet, realPrevClearance is 0. For others, it is the\n     * clearance (i.e. distance from star that the planet has cleared out) of\n     * the previous planet.\n     */\n    function getPlanetPeriapsis(int128 realInnerRadius, int128 /* realOuterRadius */, RNG.RandNode planetNode, WorldClass class, int128 realPrevClearance)\n        internal pure returns (int128) {\n        \n        // We're going to sample 2 values and take the minimum, to get a nicer distribution than uniform.\n        // We really kind of want a log scale but that's expensive.\n        RNG.RandNode memory node1 = planetNode.derive(\"periapsis\");\n        RNG.RandNode memory node2 = planetNode.derive(\"periapsis2\");\n        \n        // Define minimum and maximum periapsis distance above previous planet's\n        // cleared band. Work in % of the habitable zone inner radius.\n        int88 minimum;\n        int88 maximum;\n        if (class == WorldClass.Lunar || class == WorldClass.Europan) {\n            minimum = 20;\n            maximum = 60;\n        } else if (class == WorldClass.Terrestrial || class == WorldClass.Panthalassic) {\n            minimum = 20;\n            maximum = 70;\n        } else if (class == WorldClass.Neptunian) {\n            minimum = 50;\n            maximum = 1000;\n        } else if (class == WorldClass.Jovian) {\n            minimum = 300;\n            maximum = 500;\n        } else if (class == WorldClass.AsteroidBelt) {\n            minimum = 20;\n            maximum = 500;\n        } else {\n            // Not real!\n            revert();\n        }\n        \n        int128 realSeparation1 = node1.getRealBetween(RealMath.toReal(minimum), RealMath.toReal(maximum));\n        int128 realSeparation2 = node2.getRealBetween(RealMath.toReal(minimum), RealMath.toReal(maximum));\n        int128 realSeparation = realSeparation1 < realSeparation2 ? realSeparation1 : realSeparation2;\n        return realPrevClearance + RealMath.mul(realSeparation, realInnerRadius).div(RealMath.toReal(100)); \n    }\n    \n    /**\n     * Decide what the planet's orbit's apoapsis is, in meters.\n     * This is the second statistic about the orbit to be generated.\n     */\n    function getPlanetApoapsis(int128 realInnerRadius, int128 /* realOuterRadius */, RNG.RandNode planetNode, WorldClass class, int128 realPeriapsis)\n        internal pure returns (int128) {\n        \n        RNG.RandNode memory node1 = planetNode.derive(\"apoapsis\");\n        RNG.RandNode memory node2 = planetNode.derive(\"apoapsis2\");\n        \n        // Define minimum and maximum apoapsis distance above planet's periapsis.\n        // Work in % of the habitable zone inner radius.\n        int88 minimum;\n        int88 maximum;\n        if (class == WorldClass.Lunar || class == WorldClass.Europan) {\n            minimum = 0;\n            maximum = 6;\n        } else if (class == WorldClass.Terrestrial || class == WorldClass.Panthalassic) {\n            minimum = 0;\n            maximum = 10;\n        } else if (class == WorldClass.Neptunian) {\n            minimum = 20;\n            maximum = 500;\n        } else if (class == WorldClass.Jovian) {\n            minimum = 10;\n            maximum = 200;\n        } else if (class == WorldClass.AsteroidBelt) {\n            minimum = 10;\n            maximum = 100;\n        } else {\n            // Not real!\n            revert();\n        }\n        \n        int128 realWidth1 = node1.getRealBetween(RealMath.toReal(minimum), RealMath.toReal(maximum));\n        int128 realWidth2 = node2.getRealBetween(RealMath.toReal(minimum), RealMath.toReal(maximum));\n        int128 realWidth = realWidth1 < realWidth2 ? realWidth1 : realWidth2; \n        return realPeriapsis + RealMath.mul(realWidth, realInnerRadius).div(RealMath.toReal(100)); \n    }\n    \n    /**\n     * Decide how far out the cleared band after the planet's orbit is.\n     */\n    function getPlanetClearance(int128 realInnerRadius, int128 /* realOuterRadius */, RNG.RandNode planetNode, WorldClass class, int128 realApoapsis)\n        internal pure returns (int128) {\n        \n        RNG.RandNode memory node1 = planetNode.derive(\"cleared\");\n        RNG.RandNode memory node2 = planetNode.derive(\"cleared2\");\n        \n        // Define minimum and maximum clearance.\n        // Work in % of the habitable zone inner radius.\n        int88 minimum;\n        int88 maximum;\n        if (class == WorldClass.Lunar || class == WorldClass.Europan) {\n            minimum = 20;\n            maximum = 60;\n        } else if (class == WorldClass.Terrestrial || class == WorldClass.Panthalassic) {\n            minimum = 40;\n            maximum = 70;\n        } else if (class == WorldClass.Neptunian) {\n            minimum = 300;\n            maximum = 700;\n        } else if (class == WorldClass.Jovian) {\n            minimum = 300;\n            maximum = 500;\n        } else if (class == WorldClass.AsteroidBelt) {\n            minimum = 20;\n            maximum = 500;\n        } else {\n            // Not real!\n            revert();\n        }\n        \n        int128 realSeparation1 = node1.getRealBetween(RealMath.toReal(minimum), RealMath.toReal(maximum));\n        int128 realSeparation2 = node2.getRealBetween(RealMath.toReal(minimum), RealMath.toReal(maximum));\n        int128 realSeparation = realSeparation1 < realSeparation2 ? realSeparation1 : realSeparation2;\n        return realApoapsis + RealMath.mul(realSeparation, realInnerRadius).div(RealMath.toReal(100)); \n    }\n    \n    /**\n     * Convert from periapsis and apoapsis to semimajor axis and eccentricity.\n     */\n    function convertOrbitShape(int128 realPeriapsis, int128 realApoapsis) public view onlyControlledAccess returns (int128 realSemimajor, int128 realEccentricity) {\n        // Semimajor axis is average of apoapsis and periapsis\n        realSemimajor = RealMath.div(realApoapsis + realPeriapsis, RealMath.toReal(2));\n        \n        // Eccentricity is ratio of difference and sum\n        realEccentricity = RealMath.div(realApoapsis - realPeriapsis, realApoapsis + realPeriapsis);\n    }\n    \n    // Define the orbital plane\n    \n    /**\n     * Get the longitude of the ascending node for a planet or moon. For\n     * planets, this is the angle from galactic +X to ascending node. For\n     * moons, we use galactic +X transformed into the planet's equatorial plane\n     * by the equatorial plane/rotation axis angles.\n     */ \n    function getWorldLan(bytes32 seed) public view onlyControlledAccess returns (int128) {\n        RNG.RandNode memory node = RNG.RandNode(seed).derive(\"LAN\");\n        // Angles should be uniform from 0 to 2 PI\n        return node.getRealBetween(RealMath.toReal(0), RealMath.mul(RealMath.toReal(2), REAL_PI));\n    }\n    \n    /**\n     * Get the inclination (angle from galactic XZ plane to orbital plane at the ascending node) for a planet.\n     * For a moon, this is done in the moon generator instead.\n     * Inclination is always positive. If it were negative, the ascending node would really be the descending node.\n     * Result is a real in radians.\n     */ \n    function getPlanetInclination(bytes32 seed, WorldClass class) public view onlyControlledAccess returns (int128) {\n        RNG.RandNode memory node = RNG.RandNode(seed).derive(\"inclination\");\n    \n        // Define minimum and maximum inclinations in milliradians\n        // 175 milliradians = ~ 10 degrees\n        int88 minimum;\n        int88 maximum;\n        if (class == WorldClass.Lunar || class == WorldClass.Europan) {\n            minimum = 0;\n            maximum = 175;\n        } else if (class == WorldClass.Terrestrial || class == WorldClass.Panthalassic) {\n            minimum = 0;\n            maximum = 87;\n        } else if (class == WorldClass.Neptunian) {\n            minimum = 0;\n            maximum = 35;\n        } else if (class == WorldClass.Jovian) {\n            minimum = 0;\n            maximum = 52;\n        } else if (class == WorldClass.AsteroidBelt) {\n            minimum = 0;\n            maximum = 262;\n        } else {\n            // Not real!\n            revert();\n        }\n        \n        // Decide if we should be retrograde (PI-ish inclination)\n        int128 real_retrograde_offset = 0;\n        if (node.derive(\"retrograde\").d(1, 100, 0) < 3) {\n            // This planet ought to move retrograde\n            real_retrograde_offset = REAL_PI;\n        }\n\n        return real_retrograde_offset + RealMath.div(node.getRealBetween(RealMath.toReal(minimum), RealMath.toReal(maximum)), RealMath.toReal(1000));    \n    }\n    \n    // Define the orbit's embedding in the plane (and in time)\n    \n    /**\n     * Get the argument of periapsis (angle from ascending node to periapsis position, in the orbital plane) for a planet or moon.\n     */\n    function getWorldAop(bytes32 seed) public view onlyControlledAccess returns (int128) {\n        RNG.RandNode memory node = RNG.RandNode(seed).derive(\"AOP\");\n        // Angles should be uniform from 0 to 2 PI.\n        // We already made sure planets/moons wouldn't get too close together when laying out the orbits.\n        return node.getRealBetween(RealMath.toReal(0), RealMath.mul(RealMath.toReal(2), REAL_PI));\n    }\n    \n    /**\n     * Get the mean anomaly (which sweeps from 0 at periapsis to 2 pi at the next periapsis) at epoch (time 0) for a planet or moon.\n     */\n    function getWorldMeanAnomalyAtEpoch(bytes32 seed) public view onlyControlledAccess returns (int128) {\n        RNG.RandNode memory node = RNG.RandNode(seed).derive(\"MAE\");\n        // Angles should be uniform from 0 to 2 PI.\n        return node.getRealBetween(RealMath.toReal(0), RealMath.mul(RealMath.toReal(2), REAL_PI));\n    }\n\n    /**\n     * Determine if the world is tidally locked, given its seed and its number\n     * out from the parent, starting with 0.\n     * Overrides getWorldZXAxisAngles and getWorldSpinRate. \n     * Not used for asteroid belts or rings.\n     */\n    function isTidallyLocked(bytes32 seed, uint worldNumber) public view onlyControlledAccess returns (bool) {\n        // Tidal lock should be common near the parent and less common further out.\n        return RNG.RandNode(seed).derive(\"tidal_lock\").getReal() < RealMath.fraction(1, int88(worldNumber + 1));\n    }\n\n    /**\n     * Get the Y and X axis angles for a world, in radians.\n     * The world's rotation axis starts straight up in its orbital plane.\n     * Then the planet is rotated in Y, around the axis by the Y angle.\n     * Then it is rotated forward (what would be toward the viewer) in the\n     * world's transformed X by the X axis angle.\n     * Both angles are in radians.\n     * The X angle is never negative, because the Y angle would just be the opposite direction.\n     * It is also never greater than Pi, because otherwise we would just measure around the other way.\n     * Not used for asteroid belts or rings.\n     * For a tidally locked world, ignore these values and use 0 for both angles.\n     */\n    function getWorldYXAxisAngles(bytes32 seed) public view onlyControlledAccess returns (int128 realYRadians, int128 realXRadians) {\n       \n        // The Y angle should be uniform over all angles.\n        realYRadians = RNG.RandNode(seed).derive(\"axisy\").getRealBetween(-REAL_PI, REAL_PI);\n\n        // The Z angle will be mostly small positive or negative, with some sideways and some near Pi/2 (meaning retrograde rotation)\n        int16 tilt_die = RNG.RandNode(seed).derive(\"tilt\").d(1, 6, 0);\n        \n        // Start with low tilt, right side up\n        // Earth is like 0.38 radians overall\n        int128 real_tilt_limit = REAL_HALF;\n        if (tilt_die >= 5) {\n            // Be high tilt\n            real_tilt_limit = REAL_HALF_PI;\n        }\n    \n        RNG.RandNode memory x_node = RNG.RandNode(seed).derive(\"axisx\");\n        realXRadians = x_node.getRealBetween(0, real_tilt_limit);\n\n        if (tilt_die == 4 || tilt_die == 5) {\n            // Flip so the tilt we have is relative to upside-down\n            realXRadians = REAL_PI - realXRadians;\n        }\n\n        // So we should have 1/2 low tilt prograde, 1/6 low tilt retrograde, 1/6 high tilt retrograde, and 1/6 high tilt prograde\n    }\n\n    /**\n     * Get the spin rate of the world in radians per Julian year around its axis.\n     * For a tidally locked world, ignore this value and use the mean angular\n     * motion computed by the OrbitalMechanics contract, given the orbit\n     * details.\n     * Not used for asteroid belts or rings.\n     */\n    function getWorldSpinRate(bytes32 seed) public view onlyControlledAccess returns (int128) {\n        // Earth is something like 2k radians per Julian year.\n        return RNG.RandNode(seed).derive(\"spin\").getRealBetween(REAL_ZERO, RealMath.toReal(8000)); \n    }\n\n}\n \n",
  "sourcePath": "/Users/anovak/Documents/Workspace/macroverse/contracts/MacroverseSystemGenerator.sol",
  "compiler": {
    "name": "solc",
    "version": "0.4.24+commit.e67f0147.Emscripten.clang"
  },
  "schemaVersion": "2.0.1",
  "updatedAt": "2019-03-01T05:58:00.527Z"
}