{
  "contractName": "MacroverseRealEstate",
  "abi": [
    {
      "inputs": [
        {
          "internalType": "string",
          "name": "domain",
          "type": "string"
        }
      ],
      "stateMutability": "nonpayable",
      "type": "constructor"
    },
    {
      "anonymous": false,
      "inputs": [
        {
          "indexed": true,
          "internalType": "address",
          "name": "owner",
          "type": "address"
        },
        {
          "indexed": true,
          "internalType": "address",
          "name": "approved",
          "type": "address"
        },
        {
          "indexed": true,
          "internalType": "uint256",
          "name": "tokenId",
          "type": "uint256"
        }
      ],
      "name": "Approval",
      "type": "event"
    },
    {
      "anonymous": false,
      "inputs": [
        {
          "indexed": true,
          "internalType": "address",
          "name": "owner",
          "type": "address"
        },
        {
          "indexed": true,
          "internalType": "address",
          "name": "operator",
          "type": "address"
        },
        {
          "indexed": false,
          "internalType": "bool",
          "name": "approved",
          "type": "bool"
        }
      ],
      "name": "ApprovalForAll",
      "type": "event"
    },
    {
      "anonymous": false,
      "inputs": [
        {
          "indexed": true,
          "internalType": "address",
          "name": "previousOwner",
          "type": "address"
        },
        {
          "indexed": true,
          "internalType": "address",
          "name": "newOwner",
          "type": "address"
        }
      ],
      "name": "OwnershipTransferred",
      "type": "event"
    },
    {
      "anonymous": false,
      "inputs": [
        {
          "indexed": true,
          "internalType": "address",
          "name": "from",
          "type": "address"
        },
        {
          "indexed": true,
          "internalType": "address",
          "name": "to",
          "type": "address"
        },
        {
          "indexed": true,
          "internalType": "uint256",
          "name": "tokenId",
          "type": "uint256"
        }
      ],
      "name": "Transfer",
      "type": "event"
    },
    {
      "inputs": [
        {
          "internalType": "address",
          "name": "to",
          "type": "address"
        },
        {
          "internalType": "uint256",
          "name": "tokenId",
          "type": "uint256"
        }
      ],
      "name": "approve",
      "outputs": [],
      "stateMutability": "nonpayable",
      "type": "function"
    },
    {
      "inputs": [
        {
          "internalType": "address",
          "name": "owner",
          "type": "address"
        }
      ],
      "name": "balanceOf",
      "outputs": [
        {
          "internalType": "uint256",
          "name": "",
          "type": "uint256"
        }
      ],
      "stateMutability": "view",
      "type": "function"
    },
    {
      "inputs": [],
      "name": "baseURI",
      "outputs": [
        {
          "internalType": "string",
          "name": "",
          "type": "string"
        }
      ],
      "stateMutability": "view",
      "type": "function"
    },
    {
      "inputs": [
        {
          "internalType": "uint256",
          "name": "tokenId",
          "type": "uint256"
        }
      ],
      "name": "getApproved",
      "outputs": [
        {
          "internalType": "address",
          "name": "",
          "type": "address"
        }
      ],
      "stateMutability": "view",
      "type": "function"
    },
    {
      "inputs": [
        {
          "internalType": "address",
          "name": "owner",
          "type": "address"
        },
        {
          "internalType": "address",
          "name": "operator",
          "type": "address"
        }
      ],
      "name": "isApprovedForAll",
      "outputs": [
        {
          "internalType": "bool",
          "name": "",
          "type": "bool"
        }
      ],
      "stateMutability": "view",
      "type": "function"
    },
    {
      "inputs": [],
      "name": "name",
      "outputs": [
        {
          "internalType": "string",
          "name": "",
          "type": "string"
        }
      ],
      "stateMutability": "view",
      "type": "function"
    },
    {
      "inputs": [],
      "name": "owner",
      "outputs": [
        {
          "internalType": "address",
          "name": "",
          "type": "address"
        }
      ],
      "stateMutability": "view",
      "type": "function"
    },
    {
      "inputs": [
        {
          "internalType": "uint256",
          "name": "tokenId",
          "type": "uint256"
        }
      ],
      "name": "ownerOf",
      "outputs": [
        {
          "internalType": "address",
          "name": "",
          "type": "address"
        }
      ],
      "stateMutability": "view",
      "type": "function"
    },
    {
      "inputs": [],
      "name": "renounceOwnership",
      "outputs": [],
      "stateMutability": "nonpayable",
      "type": "function"
    },
    {
      "inputs": [
        {
          "internalType": "address",
          "name": "from",
          "type": "address"
        },
        {
          "internalType": "address",
          "name": "to",
          "type": "address"
        },
        {
          "internalType": "uint256",
          "name": "tokenId",
          "type": "uint256"
        }
      ],
      "name": "safeTransferFrom",
      "outputs": [],
      "stateMutability": "nonpayable",
      "type": "function"
    },
    {
      "inputs": [
        {
          "internalType": "address",
          "name": "from",
          "type": "address"
        },
        {
          "internalType": "address",
          "name": "to",
          "type": "address"
        },
        {
          "internalType": "uint256",
          "name": "tokenId",
          "type": "uint256"
        },
        {
          "internalType": "bytes",
          "name": "_data",
          "type": "bytes"
        }
      ],
      "name": "safeTransferFrom",
      "outputs": [],
      "stateMutability": "nonpayable",
      "type": "function"
    },
    {
      "inputs": [
        {
          "internalType": "address",
          "name": "operator",
          "type": "address"
        },
        {
          "internalType": "bool",
          "name": "approved",
          "type": "bool"
        }
      ],
      "name": "setApprovalForAll",
      "outputs": [],
      "stateMutability": "nonpayable",
      "type": "function"
    },
    {
      "inputs": [
        {
          "internalType": "bytes4",
          "name": "interfaceId",
          "type": "bytes4"
        }
      ],
      "name": "supportsInterface",
      "outputs": [
        {
          "internalType": "bool",
          "name": "",
          "type": "bool"
        }
      ],
      "stateMutability": "view",
      "type": "function"
    },
    {
      "inputs": [],
      "name": "symbol",
      "outputs": [
        {
          "internalType": "string",
          "name": "",
          "type": "string"
        }
      ],
      "stateMutability": "view",
      "type": "function"
    },
    {
      "inputs": [
        {
          "internalType": "uint256",
          "name": "index",
          "type": "uint256"
        }
      ],
      "name": "tokenByIndex",
      "outputs": [
        {
          "internalType": "uint256",
          "name": "",
          "type": "uint256"
        }
      ],
      "stateMutability": "view",
      "type": "function"
    },
    {
      "inputs": [
        {
          "internalType": "address",
          "name": "owner",
          "type": "address"
        },
        {
          "internalType": "uint256",
          "name": "index",
          "type": "uint256"
        }
      ],
      "name": "tokenOfOwnerByIndex",
      "outputs": [
        {
          "internalType": "uint256",
          "name": "",
          "type": "uint256"
        }
      ],
      "stateMutability": "view",
      "type": "function"
    },
    {
      "inputs": [
        {
          "internalType": "uint256",
          "name": "tokenId",
          "type": "uint256"
        }
      ],
      "name": "tokenURI",
      "outputs": [
        {
          "internalType": "string",
          "name": "",
          "type": "string"
        }
      ],
      "stateMutability": "view",
      "type": "function"
    },
    {
      "inputs": [],
      "name": "totalSupply",
      "outputs": [
        {
          "internalType": "uint256",
          "name": "",
          "type": "uint256"
        }
      ],
      "stateMutability": "view",
      "type": "function"
    },
    {
      "inputs": [
        {
          "internalType": "address",
          "name": "from",
          "type": "address"
        },
        {
          "internalType": "address",
          "name": "to",
          "type": "address"
        },
        {
          "internalType": "uint256",
          "name": "tokenId",
          "type": "uint256"
        }
      ],
      "name": "transferFrom",
      "outputs": [],
      "stateMutability": "nonpayable",
      "type": "function"
    },
    {
      "inputs": [
        {
          "internalType": "address",
          "name": "newOwner",
          "type": "address"
        }
      ],
      "name": "transferOwnership",
      "outputs": [],
      "stateMutability": "nonpayable",
      "type": "function"
    },
    {
      "inputs": [
        {
          "internalType": "string",
          "name": "domain",
          "type": "string"
        }
      ],
      "name": "setTokenMetadataDomain",
      "outputs": [],
      "stateMutability": "nonpayable",
      "type": "function"
    },
    {
      "inputs": [
        {
          "internalType": "address",
          "name": "to",
          "type": "address"
        },
        {
          "internalType": "uint256",
          "name": "tokenId",
          "type": "uint256"
        }
      ],
      "name": "mint",
      "outputs": [],
      "stateMutability": "nonpayable",
      "type": "function"
    },
    {
      "inputs": [
        {
          "internalType": "uint256",
          "name": "tokenId",
          "type": "uint256"
        }
      ],
      "name": "burn",
      "outputs": [],
      "stateMutability": "nonpayable",
      "type": "function"
    },
    {
      "inputs": [
        {
          "internalType": "uint256",
          "name": "tokenId",
          "type": "uint256"
        }
      ],
      "name": "exists",
      "outputs": [
        {
          "internalType": "bool",
          "name": "",
          "type": "bool"
        }
      ],
      "stateMutability": "view",
      "type": "function"
    }
  ],
  "bytecode": "0x60806040523480156200001157600080fd5b506040516200295338038062002953833981810160405260208110156200003757600080fd5b81019080805160405193929190846401000000008211156200005857600080fd5b9083019060208201858111156200006e57600080fd5b82516401000000008111828201881017156200008957600080fd5b82525081516020918201929091019080838360005b83811015620000b85781810151838201526020016200009e565b50505050905090810190601f168015620000e65780820380516001836020036101000a031916815260200191505b5060408181018152601682527f4d6163726f7665727365205265616c2045737461746500000000000000000000602080840191909152815180830190925260038252624d524560e81b9082015290935091506200015590506301ffc9a760e01b6001600160e01b036200025316565b81516200016a906006906020850190620004f1565b50805162000180906007906020840190620004f1565b506200019c6380ac58cd60e01b6001600160e01b036200025316565b620001b7635b5e139f60e01b6001600160e01b036200025316565b620001d263780e9d6360e01b6001600160e01b036200025316565b5060009050620001ea6001600160e01b03620002d816565b600a80546001600160a01b0319166001600160a01b038316908117909155604051919250906000907f8be0079c531659141344cd1fd0a4f28419497f9722a3daafe3b4186f6b6457e0908290a3506200024c816001600160e01b03620002dd16565b5062000593565b6001600160e01b03198082161415620002b3576040805162461bcd60e51b815260206004820152601c60248201527f4552433136353a20696e76616c696420696e7465726661636520696400000000604482015290519081900360640190fd5b6001600160e01b0319166000908152602081905260409020805460ff19166001179055565b335b90565b46620003f882620002fa83620003fc602090811b6200115617901c565b60405160200180806768747470733a2f2f60c01b81525060080183805190602001908083835b60208310620003415780518252601f19909201916020918201910162000320565b51815160209384036101000a60001901801990921691161790526d2f7672652f76312f636861696e2f60901b919093019081528451600e90910192850191508083835b60208310620003a55780518252601f19909201916020918201910162000384565b6001836020036101000a03801982511681845116808217855250505050505090500180662f746f6b656e2f60c81b81525060070192505050604051602081830303815290604052620004e160201b60201c565b5050565b6060816200042357506040805180820190915260018152600360fc1b6020820152620004dc565b8160005b81156200043d57600101600a8204915062000427565b6060816001600160401b03811180156200045657600080fd5b506040519080825280601f01601f19166020018201604052801562000482576020820181803683370190505b50859350905060001982015b8315620004d657600a840660300160f81b82828060019003935081518110620004b357fe5b60200101906001600160f81b031916908160001a905350600a840493506200048e565b50925050505b919050565b8051620003f89060099060208401905b828054600181600116156101000203166002900490600052602060002090601f016020900481019282601f106200053457805160ff191683800117855562000564565b8280016001018555821562000564579182015b828111156200056457825182559160200191906001019062000547565b506200057292915062000576565b5090565b620002da91905b808211156200057257600081556001016200057d565b6123b080620005a36000396000f3fe608060405234801561001057600080fd5b50600436106101585760003560e01c80636352211e116100c357806395d89b411161007c57806395d89b41146104b2578063a22cb465146104ba578063b88d4fde146104e8578063c87b56dd146105ae578063e985e9c5146105cb578063f2fde38b146105f957610158565b80636352211e146103b15780636c0360eb146103ce57806370a08231146103d6578063715018a6146103fc578063839dc732146104045780638da5cb5b146104aa57610158565b80632f745c59116101155780632f745c59146102cc57806340c10f19146102f857806342842e0e1461032457806342966c681461035a5780634f558e79146103775780634f6ccce71461039457610158565b806301ffc9a71461015d57806306fdde0314610198578063081812fc14610215578063095ea7b31461024e57806318160ddd1461027c57806323b872dd14610296575b600080fd5b6101846004803603602081101561017357600080fd5b50356001600160e01b03191661061f565b604080519115158252519081900360200190f35b6101a0610642565b6040805160208082528351818301528351919283929083019185019080838360005b838110156101da5781810151838201526020016101c2565b50505050905090810190601f1680156102075780820380516001836020036101000a031916815260200191505b509250505060405180910390f35b6102326004803603602081101561022b57600080fd5b50356106d9565b604080516001600160a01b039092168252519081900360200190f35b61027a6004803603604081101561026457600080fd5b506001600160a01b03813516906020013561073b565b005b610284610816565b60408051918252519081900360200190f35b61027a600480360360608110156102ac57600080fd5b506001600160a01b03813581169160208101359091169060400135610827565b610284600480360360408110156102e257600080fd5b506001600160a01b03813516906020013561087e565b61027a6004803603604081101561030e57600080fd5b506001600160a01b0381351690602001356108af565b61027a6004803603606081101561033a57600080fd5b506001600160a01b03813581169160208101359091169060400135610915565b61027a6004803603602081101561037057600080fd5b5035610930565b6101846004803603602081101561038d57600080fd5b5035610994565b610284600480360360208110156103aa57600080fd5b503561099f565b610232600480360360208110156103c757600080fd5b50356109bb565b6101a06109e9565b610284600480360360208110156103ec57600080fd5b50356001600160a01b0316610a4a565b61027a610ab2565b61027a6004803603602081101561041a57600080fd5b81019060208101813564010000000081111561043557600080fd5b82018360208201111561044757600080fd5b8035906020019184600183028401116401000000008311171561046957600080fd5b91908080601f016020809104026020016040519081016040528093929190818152602001838380828437600092019190915250929550610b54945050505050565b610232610bb5565b6101a0610bc4565b61027a600480360360408110156104d057600080fd5b506001600160a01b0381351690602001351515610c25565b61027a600480360360808110156104fe57600080fd5b6001600160a01b0382358116926020810135909116916040820135919081019060808101606082013564010000000081111561053957600080fd5b82018360208201111561054b57600080fd5b8035906020019184600183028401116401000000008311171561056d57600080fd5b91908080601f016020809104026020016040519081016040528093929190818152602001838380828437600092019190915250929550610d2a945050505050565b6101a0600480360360208110156105c457600080fd5b5035610d88565b610184600480360360408110156105e157600080fd5b506001600160a01b038135811691602001351661102f565b61027a6004803603602081101561060f57600080fd5b50356001600160a01b031661105d565b6001600160e01b0319811660009081526020819052604090205460ff165b919050565b60068054604080516020601f60026000196101006001881615020190951694909404938401819004810282018101909252828152606093909290918301828280156106ce5780601f106106a3576101008083540402835291602001916106ce565b820191906000526020600020905b8154815290600101906020018083116106b157829003601f168201915b505050505090505b90565b60006106e482611231565b61071f5760405162461bcd60e51b815260040180806020018281038252602c815260200180612285602c913960400191505060405180910390fd5b506000908152600460205260409020546001600160a01b031690565b6000610746826109bb565b9050806001600160a01b0316836001600160a01b031614156107995760405162461bcd60e51b81526004018080602001828103825260218152602001806123296021913960400191505060405180910390fd5b806001600160a01b03166107ab611244565b6001600160a01b031614806107cc57506107cc816107c7611244565b61102f565b6108075760405162461bcd60e51b81526004018080602001828103825260388152602001806121d86038913960400191505060405180910390fd5b6108118383611248565b505050565b600061082260026112b6565b905090565b610838610832611244565b826112c1565b6108735760405162461bcd60e51b815260040180806020018281038252603181526020018061234a6031913960400191505060405180910390fd5b610811838383611365565b6001600160a01b03821660009081526001602052604081206108a6908363ffffffff6114c316565b90505b92915050565b6108b7611244565b600a546001600160a01b03908116911614610907576040805162461bcd60e51b815260206004820181905260248201526000805160206122b1833981519152604482015290519081900360640190fd5b61091182826114cf565b5050565b61081183838360405180602001604052806000815250610d2a565b610938611244565b600a546001600160a01b03908116911614610988576040805162461bcd60e51b815260206004820181905260248201526000805160206122b1833981519152604482015290519081900360640190fd5b61099181611609565b50565b60006108a982611231565b6000806109b360028463ffffffff6116e216565b509392505050565b60006108a98260405180606001604052806029815260200161223a602991396002919063ffffffff6116fe16565b60098054604080516020601f60026000196101006001881615020190951694909404938401819004810282018101909252828152606093909290918301828280156106ce5780601f106106a3576101008083540402835291602001916106ce565b60006001600160a01b038216610a915760405162461bcd60e51b815260040180806020018281038252602a815260200180612210602a913960400191505060405180910390fd5b6001600160a01b03821660009081526001602052604090206108a9906112b6565b610aba611244565b600a546001600160a01b03908116911614610b0a576040805162461bcd60e51b815260206004820181905260248201526000805160206122b1833981519152604482015290519081900360640190fd5b600a546040516000916001600160a01b0316907f8be0079c531659141344cd1fd0a4f28419497f9722a3daafe3b4186f6b6457e0908390a3600a80546001600160a01b0319169055565b610b5c611244565b600a546001600160a01b03908116911614610bac576040805162461bcd60e51b815260206004820181905260248201526000805160206122b1833981519152604482015290519081900360640190fd5b61099181611715565b600a546001600160a01b031690565b60078054604080516020601f60026000196101006001881615020190951694909404938401819004810282018101909252828152606093909290918301828280156106ce5780601f106106a3576101008083540402835291602001916106ce565b610c2d611244565b6001600160a01b0316826001600160a01b03161415610c93576040805162461bcd60e51b815260206004820152601960248201527f4552433732313a20617070726f766520746f2063616c6c657200000000000000604482015290519081900360640190fd5b8060056000610ca0611244565b6001600160a01b03908116825260208083019390935260409182016000908120918716808252919093529120805460ff191692151592909217909155610ce4611244565b60408051841515815290516001600160a01b0392909216917f17307eab39ab6107e8899845ad3d59bd9653f200f220920489ca2b5937696c319181900360200190a35050565b610d3b610d35611244565b836112c1565b610d765760405162461bcd60e51b815260040180806020018281038252603181526020018061234a6031913960400191505060405180910390fd5b610d8284848484611816565b50505050565b6060610d9382611231565b610dce5760405162461bcd60e51b815260040180806020018281038252602f8152602001806122fa602f913960400191505060405180910390fd5b60008281526008602090815260409182902080548351601f6002600019610100600186161502019093169290920491820184900484028101840190945280845260609392830182828015610e635780601f10610e3857610100808354040283529160200191610e63565b820191906000526020600020905b815481529060010190602001808311610e4657829003601f168201915b505060095493945050505060026000196101006001841615020190911604610e8c57905061063d565b805115610f5d576009816040516020018083805460018160011615610100020316600290048015610ef45780601f10610ed2576101008083540402835291820191610ef4565b820191906000526020600020905b815481529060010190602001808311610ee0575b5050825160208401908083835b60208310610f205780518252601f199092019160209182019101610f01565b6001836020036101000a0380198251168184511680821785525050505050509050019250505060405160208183030381529060405291505061063d565b6009610f6884611156565b6040516020018083805460018160011615610100020316600290048015610fc65780601f10610fa4576101008083540402835291820191610fc6565b820191906000526020600020905b815481529060010190602001808311610fb2575b5050825160208401908083835b60208310610ff25780518252601f199092019160209182019101610fd3565b6001836020036101000a03801982511681845116808217855250505050505090500192505050604051602081830303815290604052915050919050565b6001600160a01b03918216600090815260056020908152604080832093909416825291909152205460ff1690565b611065611244565b600a546001600160a01b039081169116146110b5576040805162461bcd60e51b815260206004820181905260248201526000805160206122b1833981519152604482015290519081900360640190fd5b6001600160a01b0381166110fa5760405162461bcd60e51b81526004018080602001828103825260268152602001806121626026913960400191505060405180910390fd5b600a546040516001600160a01b038084169216907f8be0079c531659141344cd1fd0a4f28419497f9722a3daafe3b4186f6b6457e090600090a3600a80546001600160a01b0319166001600160a01b0392909216919091179055565b60608161117b57506040805180820190915260018152600360fc1b602082015261063d565b8160005b811561119357600101600a8204915061117f565b60608167ffffffffffffffff811180156111ac57600080fd5b506040519080825280601f01601f1916602001820160405280156111d7576020820181803683370190505b50859350905060001982015b831561122857600a840660300160f81b8282806001900393508151811061120657fe5b60200101906001600160f81b031916908160001a905350600a840493506111e3565b50949350505050565b60006108a960028363ffffffff61186816565b3390565b600081815260046020526040902080546001600160a01b0319166001600160a01b038416908117909155819061127d826109bb565b6001600160a01b03167f8c5be1e5ebec7d5bd14f71427d1e84f3dd0314c0f7b2291e5b200ac8c7c3b92560405160405180910390a45050565b60006108a982611874565b60006112cc82611231565b6113075760405162461bcd60e51b815260040180806020018281038252602c8152602001806121ac602c913960400191505060405180910390fd5b6000611312836109bb565b9050806001600160a01b0316846001600160a01b0316148061134d5750836001600160a01b0316611342846106d9565b6001600160a01b0316145b8061135d575061135d818561102f565b949350505050565b826001600160a01b0316611378826109bb565b6001600160a01b0316146113bd5760405162461bcd60e51b81526004018080602001828103825260298152602001806122d16029913960400191505060405180910390fd5b6001600160a01b0382166114025760405162461bcd60e51b81526004018080602001828103825260248152602001806121886024913960400191505060405180910390fd5b61140d838383610811565b611418600082611248565b6001600160a01b0383166000908152600160205260409020611440908263ffffffff61187816565b506001600160a01b0382166000908152600160205260409020611469908263ffffffff61188416565b5061147c6002828463ffffffff61189016565b5080826001600160a01b0316846001600160a01b03167fddf252ad1be2c89b69c2b068fc378daa952ba7f163c4a11628f55a4df523b3ef60405160405180910390a4505050565b60006108a683836118a6565b6001600160a01b03821661152a576040805162461bcd60e51b815260206004820181905260248201527f4552433732313a206d696e7420746f20746865207a65726f2061646472657373604482015290519081900360640190fd5b61153381611231565b15611585576040805162461bcd60e51b815260206004820152601c60248201527f4552433732313a20746f6b656e20616c7265616479206d696e74656400000000604482015290519081900360640190fd5b61159160008383610811565b6001600160a01b03821660009081526001602052604090206115b9908263ffffffff61188416565b506115cc6002828463ffffffff61189016565b5060405181906001600160a01b038416906000907fddf252ad1be2c89b69c2b068fc378daa952ba7f163c4a11628f55a4df523b3ef908290a45050565b6000611614826109bb565b905061162281600084610811565b61162d600083611248565b600082815260086020526040902054600260001961010060018416150201909116041561166b57600082815260086020526040812061166b91612031565b6001600160a01b0381166000908152600160205260409020611693908363ffffffff61187816565b506116a560028363ffffffff61190a16565b5060405182906000906001600160a01b038416907fddf252ad1be2c89b69c2b068fc378daa952ba7f163c4a11628f55a4df523b3ef908390a45050565b60008080806116f18686611916565b9097909650945050505050565b600061170b848484611991565b90505b9392505050565b466109118261172383611156565b60405160200180806768747470733a2f2f60c01b81525060080183805190602001908083835b602083106117685780518252601f199092019160209182019101611749565b51815160209384036101000a60001901801990921691161790526d2f7672652f76312f636861696e2f60901b919093019081528451600e90910192850191508083835b602083106117ca5780518252601f1990920191602091820191016117ab565b6001836020036101000a03801982511681845116808217855250505050505090500180662f746f6b656e2f60c81b81525060070192505050604051602081830303815290604052611a5b565b611821848484611365565b61182d84848484611a6e565b610d825760405162461bcd60e51b81526004018080602001828103825260328152602001806121306032913960400191505060405180910390fd5b60006108a68383611bee565b5490565b60006108a68383611c06565b60006108a68383611ccc565b600061170b84846001600160a01b038516611d16565b815460009082106118e85760405162461bcd60e51b815260040180806020018281038252602281526020018061210e6022913960400191505060405180910390fd5b8260000182815481106118f757fe5b9060005260206000200154905092915050565b60006108a68383611dad565b81546000908190831061195a5760405162461bcd60e51b81526004018080602001828103825260228152602001806122636022913960400191505060405180910390fd5b600084600001848154811061196b57fe5b906000526020600020906002020190508060000154816001015492509250509250929050565b60008281526001840160205260408120548281611a2c5760405162461bcd60e51b81526004018080602001828103825283818151815260200191508051906020019080838360005b838110156119f15781810151838201526020016119d9565b50505050905090810190601f168015611a1e5780820380516001836020036101000a031916815260200191505b509250505060405180910390fd5b50846000016001820381548110611a3f57fe5b9060005260206000209060020201600101549150509392505050565b8051610911906009906020840190612075565b6000611a82846001600160a01b0316611e81565b611a8e5750600161135d565b6060611bb4630a85bd0160e11b611aa3611244565b88878760405160240180856001600160a01b03166001600160a01b03168152602001846001600160a01b03166001600160a01b0316815260200183815260200180602001828103825283818151815260200191508051906020019080838360005b83811015611b1c578181015183820152602001611b04565b50505050905090810190601f168015611b495780820380516001836020036101000a031916815260200191505b5095505050505050604051602081830303815290604052906001600160e01b0319166020820180516001600160e01b038381831617835250505050604051806060016040528060328152602001612130603291396001600160a01b038816919063ffffffff611eba16565b90506000818060200190516020811015611bcd57600080fd5b50516001600160e01b031916630a85bd0160e11b1492505050949350505050565b60009081526001919091016020526040902054151590565b60008181526001830160205260408120548015611cc25783546000198083019190810190600090879083908110611c3957fe5b9060005260206000200154905080876000018481548110611c5657fe5b600091825260208083209091019290925582815260018981019092526040902090840190558654879080611c8657fe5b600190038181906000526020600020016000905590558660010160008781526020019081526020016000206000905560019450505050506108a9565b60009150506108a9565b6000611cd88383611bee565b611d0e575081546001818101845560008481526020808220909301849055845484825282860190935260409020919091556108a9565b5060006108a9565b600082815260018401602052604081205480611d7b57505060408051808201825283815260208082018481528654600181810189556000898152848120955160029093029095019182559151908201558654868452818801909252929091205561170e565b82856000016001830381548110611d8e57fe5b906000526020600020906002020160010181905550600091505061170e565b60008181526001830160205260408120548015611cc25783546000198083019190810190600090879083908110611de057fe5b9060005260206000209060020201905080876000018481548110611e0057fe5b600091825260208083208454600290930201918255600193840154918401919091558354825289830190526040902090840190558654879080611e3f57fe5b60008281526020808220600260001990940193840201828155600190810183905592909355888152898201909252604082209190915594506108a99350505050565b6000813f7fc5d2460186f7233c927e7db2dcc703c0e500b653ca82273b7bfad8045d85a47081811480159061135d575050151592915050565b606061170b84846000856060611ecf85611e81565b611f20576040805162461bcd60e51b815260206004820152601d60248201527f416464726573733a2063616c6c20746f206e6f6e2d636f6e7472616374000000604482015290519081900360640190fd5b60006060866001600160a01b031685876040518082805190602001908083835b60208310611f5f5780518252601f199092019160209182019101611f40565b6001836020036101000a03801982511681845116808217855250505050505090500191505060006040518083038185875af1925050503d8060008114611fc1576040519150601f19603f3d011682016040523d82523d6000602084013e611fc6565b606091505b50915091508115611fda57915061135d9050565b805115611fea5780518082602001fd5b60405162461bcd60e51b81526020600482018181528651602484015286518793919283926044019190850190808383600083156119f15781810151838201526020016119d9565b50805460018160011615610100020316600290046000825580601f106120575750610991565b601f01602090049060005260206000209081019061099191906120f3565b828054600181600116156101000203166002900490600052602060002090601f016020900481019282601f106120b657805160ff19168380011785556120e3565b828001600101855582156120e3579182015b828111156120e35782518255916020019190600101906120c8565b506120ef9291506120f3565b5090565b6106d691905b808211156120ef57600081556001016120f956fe456e756d657261626c655365743a20696e646578206f7574206f6620626f756e64734552433732313a207472616e7366657220746f206e6f6e20455243373231526563656976657220696d706c656d656e7465724f776e61626c653a206e6577206f776e657220697320746865207a65726f20616464726573734552433732313a207472616e7366657220746f20746865207a65726f20616464726573734552433732313a206f70657261746f7220717565727920666f72206e6f6e6578697374656e7420746f6b656e4552433732313a20617070726f76652063616c6c6572206973206e6f74206f776e6572206e6f7220617070726f76656420666f7220616c6c4552433732313a2062616c616e636520717565727920666f7220746865207a65726f20616464726573734552433732313a206f776e657220717565727920666f72206e6f6e6578697374656e7420746f6b656e456e756d657261626c654d61703a20696e646578206f7574206f6620626f756e64734552433732313a20617070726f76656420717565727920666f72206e6f6e6578697374656e7420746f6b656e4f776e61626c653a2063616c6c6572206973206e6f7420746865206f776e65724552433732313a207472616e73666572206f6620746f6b656e2074686174206973206e6f74206f776e4552433732314d657461646174613a2055524920717565727920666f72206e6f6e6578697374656e7420746f6b656e4552433732313a20617070726f76616c20746f2063757272656e74206f776e65724552433732313a207472616e736665722063616c6c6572206973206e6f74206f776e6572206e6f7220617070726f766564a264697066735822122054808e75e6caaa0781287fd7d8b8b620d7170d420584d2bc8f752ae794bb984a64736f6c634300060a0033",
  "immutableReferences": {},
  "source": "pragma solidity ^0.6.10;\n\nimport \"openzeppelin-solidity/contracts/token/ERC721/ERC721.sol\";\n\nimport \"openzeppelin-solidity/contracts/access/Ownable.sol\";\n\nimport \"openzeppelin-solidity/contracts/utils/Strings.sol\";\n\n/**\n * The MacroverseRealEstate contract keeps track of who currently owns virtual\n * real estate in the Macroverse world, at all scales. It supersedes the\n * MacroverseStarRegistry. Registration and Macroverse-specific manipulation of\n * tokens is accomplished through the MacroverseUniversalRegistry, which owns\n * this contract.\n *\n * The split between this contract and the MacroverseUniversalRegistry exists\n * to keep contract size under the limit. \n */\ncontract MacroverseRealEstate is ERC721, Ownable {\n\n    \n    /**\n     * Deploy the backend, taking mint, burn, and set-user commands from the deployer.\n     * Use the given domain as the domain for token URIs.\n     */\n    constructor(string memory domain) public ERC721(\"Macroverse Real Estate\", \"MRE\") {\n        _setTokenMetadataDomain(domain);\n    }\n    \n    /**\n     * Allow this contract to change the ERC721 metadata URI domain.\n     */\n    function _setTokenMetadataDomain(string memory domain) internal {\n        // Set up new OpenZeppelin 3.0 automatic token URI system.\n        // Good thing we match their format or we'd have to fork OZ.\n        uint chainId = 0;\n        assembly {\n            chainId := chainid()\n        }\n        _setBaseURI(string(abi.encodePacked(\"https://\", domain, \"/vre/v1/chain/\", Strings.toString(chainId), \"/token/\")));\n    }\n    \n    /**\n     * Allow this the owner to change the ERC721 metadata URI domain.\n     */\n    function setTokenMetadataDomain(string memory domain) external onlyOwner {\n        _setTokenMetadataDomain(domain);\n    }\n\n    /**\n     * Mint tokens at the direction of the owning contract.\n     */\n    function mint(address to, uint256 tokenId) external onlyOwner {\n        _mint(to, tokenId);\n    }\n\n    /**\n     * Burn tokens at the direction of the owning contract.\n     */\n    function burn(uint256 tokenId) external onlyOwner {\n        _burn(tokenId);\n    }\n\n    /**\n     * Publically expose a token existence test. Returns true if the given\n     * token is owned by someone, and false otherwise. Note that tokens sent to\n     * 0x0 but not burned may still exist.\n     */\n    function exists(uint256 tokenId) external view returns (bool) {\n        return _exists(tokenId);\n    }\n}\n\n// This code is part of Macroverse and is licensed: UNLICENSED\n",
  "sourcePath": "/home/anovak/workspace/macroverse/contracts/MacroverseRealEstate.sol",
  "compiler": {
    "name": "solc",
    "version": "0.6.10+commit.00c0fcaf.Emscripten.clang"
  },
  "schemaVersion": "3.3.1",
  "updatedAt": "2020-12-06T06:13:58.631Z",
  "devdoc": {
    "methods": {
      "approve(address,uint256)": {
        "details": "See {IERC721-approve}."
      },
      "balanceOf(address)": {
        "details": "See {IERC721-balanceOf}."
      },
      "baseURI()": {
        "details": "Returns the base URI set via {_setBaseURI}. This will be automatically added as a prefix in {tokenURI} to each token's URI, or to the token ID if no specific URI is set for that token ID."
      },
      "getApproved(uint256)": {
        "details": "See {IERC721-getApproved}."
      },
      "isApprovedForAll(address,address)": {
        "details": "See {IERC721-isApprovedForAll}."
      },
      "name()": {
        "details": "See {IERC721Metadata-name}."
      },
      "owner()": {
        "details": "Returns the address of the current owner."
      },
      "ownerOf(uint256)": {
        "details": "See {IERC721-ownerOf}."
      },
      "renounceOwnership()": {
        "details": "Leaves the contract without owner. It will not be possible to call `onlyOwner` functions anymore. Can only be called by the current owner. NOTE: Renouncing ownership will leave the contract without an owner, thereby removing any functionality that is only available to the owner."
      },
      "safeTransferFrom(address,address,uint256)": {
        "details": "See {IERC721-safeTransferFrom}."
      },
      "safeTransferFrom(address,address,uint256,bytes)": {
        "details": "See {IERC721-safeTransferFrom}."
      },
      "setApprovalForAll(address,bool)": {
        "details": "See {IERC721-setApprovalForAll}."
      },
      "supportsInterface(bytes4)": {
        "details": "See {IERC165-supportsInterface}. Time complexity O(1), guaranteed to always use less than 30 000 gas."
      },
      "symbol()": {
        "details": "See {IERC721Metadata-symbol}."
      },
      "tokenByIndex(uint256)": {
        "details": "See {IERC721Enumerable-tokenByIndex}."
      },
      "tokenOfOwnerByIndex(address,uint256)": {
        "details": "See {IERC721Enumerable-tokenOfOwnerByIndex}."
      },
      "tokenURI(uint256)": {
        "details": "See {IERC721Metadata-tokenURI}."
      },
      "totalSupply()": {
        "details": "See {IERC721Enumerable-totalSupply}."
      },
      "transferFrom(address,address,uint256)": {
        "details": "See {IERC721-transferFrom}."
      },
      "transferOwnership(address)": {
        "details": "Transfers ownership of the contract to a new account (`newOwner`). Can only be called by the current owner."
      }
    }
  },
  "userdoc": {
    "methods": {
      "burn(uint256)": {
        "notice": "Burn tokens at the direction of the owning contract."
      },
      "constructor": "Deploy the backend, taking mint, burn, and set-user commands from the deployer. Use the given domain as the domain for token URIs.",
      "exists(uint256)": {
        "notice": "Publically expose a token existence test. Returns true if the given token is owned by someone, and false otherwise. Note that tokens sent to 0x0 but not burned may still exist."
      },
      "mint(address,uint256)": {
        "notice": "Mint tokens at the direction of the owning contract."
      },
      "setTokenMetadataDomain(string)": {
        "notice": "Allow this the owner to change the ERC721 metadata URI domain."
      }
    },
    "notice": "The MacroverseRealEstate contract keeps track of who currently owns virtual real estate in the Macroverse world, at all scales. It supersedes the MacroverseStarRegistry. Registration and Macroverse-specific manipulation of tokens is accomplished through the MacroverseUniversalRegistry, which owns this contract. The split between this contract and the MacroverseUniversalRegistry exists to keep contract size under the limit. "
  }
}