{
  "contractName": "MacroverseSystemGenerator",
  "abi": [
    {
      "constant": true,
      "inputs": [],
      "name": "owner",
      "outputs": [
        {
          "name": "",
          "type": "address"
        }
      ],
      "payable": false,
      "stateMutability": "view",
      "type": "function"
    },
    {
      "constant": false,
      "inputs": [
        {
          "name": "newAccessControl",
          "type": "address"
        }
      ],
      "name": "changeAccessControl",
      "outputs": [],
      "payable": false,
      "stateMutability": "nonpayable",
      "type": "function"
    },
    {
      "constant": false,
      "inputs": [
        {
          "name": "newOwner",
          "type": "address"
        }
      ],
      "name": "transferOwnership",
      "outputs": [],
      "payable": false,
      "stateMutability": "nonpayable",
      "type": "function"
    },
    {
      "inputs": [
        {
          "name": "accessControlAddress",
          "type": "address"
        }
      ],
      "payable": false,
      "stateMutability": "nonpayable",
      "type": "constructor"
    },
    {
      "anonymous": false,
      "inputs": [
        {
          "indexed": true,
          "name": "previousOwner",
          "type": "address"
        },
        {
          "indexed": true,
          "name": "newOwner",
          "type": "address"
        }
      ],
      "name": "OwnershipTransferred",
      "type": "event"
    },
    {
      "constant": true,
      "inputs": [
        {
          "name": "starSeed",
          "type": "bytes32"
        },
        {
          "name": "objectClass",
          "type": "uint8"
        },
        {
          "name": "spectralType",
          "type": "uint8"
        }
      ],
      "name": "getObjectPlanetCount",
      "outputs": [
        {
          "name": "",
          "type": "int16"
        }
      ],
      "payable": false,
      "stateMutability": "view",
      "type": "function"
    },
    {
      "constant": true,
      "inputs": [
        {
          "name": "starSeed",
          "type": "bytes32"
        },
        {
          "name": "objectClass",
          "type": "uint8"
        },
        {
          "name": "realObjectMass",
          "type": "int128"
        }
      ],
      "name": "getObjectLuminosity",
      "outputs": [
        {
          "name": "",
          "type": "int128"
        }
      ],
      "payable": false,
      "stateMutability": "view",
      "type": "function"
    },
    {
      "constant": true,
      "inputs": [
        {
          "name": "realLuminosity",
          "type": "int128"
        }
      ],
      "name": "getObjectHabitableZone",
      "outputs": [
        {
          "name": "realInnerRadius",
          "type": "int128"
        },
        {
          "name": "realOuterRadius",
          "type": "int128"
        }
      ],
      "payable": false,
      "stateMutability": "view",
      "type": "function"
    },
    {
      "constant": true,
      "inputs": [
        {
          "name": "starSeed",
          "type": "bytes32"
        },
        {
          "name": "planetNumber",
          "type": "int16"
        }
      ],
      "name": "getPlanetSeed",
      "outputs": [
        {
          "name": "",
          "type": "bytes32"
        }
      ],
      "payable": false,
      "stateMutability": "view",
      "type": "function"
    },
    {
      "constant": true,
      "inputs": [
        {
          "name": "seed",
          "type": "bytes32"
        },
        {
          "name": "planetNumber",
          "type": "int16"
        },
        {
          "name": "totalPlanets",
          "type": "int16"
        }
      ],
      "name": "getPlanetClass",
      "outputs": [
        {
          "name": "",
          "type": "uint8"
        }
      ],
      "payable": false,
      "stateMutability": "view",
      "type": "function"
    },
    {
      "constant": true,
      "inputs": [
        {
          "name": "seed",
          "type": "bytes32"
        },
        {
          "name": "class",
          "type": "uint8"
        }
      ],
      "name": "getPlanetMass",
      "outputs": [
        {
          "name": "",
          "type": "int128"
        }
      ],
      "payable": false,
      "stateMutability": "view",
      "type": "function"
    },
    {
      "constant": true,
      "inputs": [
        {
          "name": "realInnerRadius",
          "type": "int128"
        },
        {
          "name": "realOuterRadius",
          "type": "int128"
        },
        {
          "name": "seed",
          "type": "bytes32"
        },
        {
          "name": "class",
          "type": "uint8"
        },
        {
          "name": "realPrevClearance",
          "type": "int128"
        }
      ],
      "name": "getPlanetOrbitDimensions",
      "outputs": [
        {
          "name": "realPeriapsis",
          "type": "int128"
        },
        {
          "name": "realApoapsis",
          "type": "int128"
        },
        {
          "name": "realClearance",
          "type": "int128"
        }
      ],
      "payable": false,
      "stateMutability": "view",
      "type": "function"
    },
    {
      "constant": true,
      "inputs": [
        {
          "name": "realPeriapsis",
          "type": "int128"
        },
        {
          "name": "realApoapsis",
          "type": "int128"
        }
      ],
      "name": "convertOrbitShape",
      "outputs": [
        {
          "name": "realSemimajor",
          "type": "int128"
        },
        {
          "name": "realEccentricity",
          "type": "int128"
        }
      ],
      "payable": false,
      "stateMutability": "view",
      "type": "function"
    },
    {
      "constant": true,
      "inputs": [
        {
          "name": "seed",
          "type": "bytes32"
        }
      ],
      "name": "getPlanetLan",
      "outputs": [
        {
          "name": "",
          "type": "int128"
        }
      ],
      "payable": false,
      "stateMutability": "view",
      "type": "function"
    },
    {
      "constant": true,
      "inputs": [
        {
          "name": "seed",
          "type": "bytes32"
        },
        {
          "name": "class",
          "type": "uint8"
        }
      ],
      "name": "getPlanetInclination",
      "outputs": [
        {
          "name": "",
          "type": "int128"
        }
      ],
      "payable": false,
      "stateMutability": "view",
      "type": "function"
    },
    {
      "constant": true,
      "inputs": [
        {
          "name": "seed",
          "type": "bytes32"
        }
      ],
      "name": "getPlanetAop",
      "outputs": [
        {
          "name": "",
          "type": "int128"
        }
      ],
      "payable": false,
      "stateMutability": "view",
      "type": "function"
    },
    {
      "constant": true,
      "inputs": [
        {
          "name": "seed",
          "type": "bytes32"
        }
      ],
      "name": "getPlanetMeanAnomalyAtEpoch",
      "outputs": [
        {
          "name": "",
          "type": "int128"
        }
      ],
      "payable": false,
      "stateMutability": "view",
      "type": "function"
    }
  ],
  "bytecode": "0x6060604052341561000f57600080fd5b604051602080614fbc8339810160405280805190602001909190505080336000806101000a81548173ffffffffffffffffffffffffffffffffffffffff021916908373ffffffffffffffffffffffffffffffffffffffff16021790555080600160006101000a81548173ffffffffffffffffffffffffffffffffffffffff021916908373ffffffffffffffffffffffffffffffffffffffff1602179055505050614efe806100be6000396000f3006060604052600436106100db576000357c0100000000000000000000000000000000000000000000000000000000900463ffffffff16806303742dd4146100e057806310dfa4b31461016b578063158712e6146101ac5780631f6fcf8e146101ed5780635433f7641461023c57806363e68c81146102895780638da5cb5b146102ca578063932c1b291461031f5780639387730c146103785780639a8914bc146103b15780639e19642f1461040a578063bfd4fac11461046b578063ccae78aa146104c4578063d2b4620b14610511578063f2fde38b1461055e575b600080fd5b34156100eb57600080fd5b6101356004808035600f0b906020019091908035600f0b9060200190919080356000191690602001909190803560ff16906020019091908035600f0b906020019091905050610597565b6040518084600f0b600f0b815260200183600f0b600f0b815260200182600f0b600f0b8152602001935050505060405180910390f35b341561017657600080fd5b610190600480803560001916906020019091905050610712565b6040518082600f0b600f0b815260200191505060405180910390f35b34156101b757600080fd5b6101d1600480803560001916906020019091905050610a7d565b6040518082600f0b600f0b815260200191505060405180910390f35b34156101f857600080fd5b61021e60048080356000191690602001909190803560010b906020019091905050610de8565b60405180826000191660001916815260200191505060405180910390f35b341561024757600080fd5b61026d60048080356000191690602001909190803560ff16906020019091905050610f3e565b6040518082600f0b600f0b815260200191505060405180910390f35b341561029457600080fd5b6102ae6004808035600019169060200190919050506117dd565b6040518082600f0b600f0b815260200191505060405180910390f35b34156102d557600080fd5b6102dd611b48565b604051808273ffffffffffffffffffffffffffffffffffffffff1673ffffffffffffffffffffffffffffffffffffffff16815260200191505060405180910390f35b341561032a57600080fd5b61035c60048080356000191690602001909190803560ff16906020019091908035600f0b906020019091905050611b6d565b6040518082600f0b600f0b815260200191505060405180910390f35b341561038357600080fd5b6103af600480803573ffffffffffffffffffffffffffffffffffffffff16906020019091905050612623565b005b34156103bc57600080fd5b6103e16004808035600f0b906020019091908035600f0b9060200190919050506126c2565b6040518083600f0b600f0b815260200182600f0b600f0b81526020019250505060405180910390f35b341561041557600080fd5b61044760048080356000191690602001909190803560010b90602001909190803560010b9060200190919050506129ca565b6040518082600481111561045757fe5b60ff16815260200191505060405180910390f35b341561047657600080fd5b6104a860048080356000191690602001909190803560ff1690602001909190803560ff16906020019091905050612cab565b604051808260010b60010b815260200191505060405180910390f35b34156104cf57600080fd5b6104e86004808035600f0b906020019091905050612fdb565b6040518083600f0b600f0b815260200182600f0b600f0b81526020019250505060405180910390f35b341561051c57600080fd5b61054260048080356000191690602001909190803560ff16906020019091905050613417565b6040518082600f0b600f0b815260200191505060405180910390f35b341561056957600080fd5b610595600480803573ffffffffffffffffffffffffffffffffffffffff1690602001909190505061397d565b005b60008060006105a4614ebb565b600160009054906101000a900473ffffffffffffffffffffffffffffffffffffffff1673ffffffffffffffffffffffffffffffffffffffff16634af5fb0f33326000604051602001526040518363ffffffff167c0100000000000000000000000000000000000000000000000000000000028152600401808373ffffffffffffffffffffffffffffffffffffffff1673ffffffffffffffffffffffffffffffffffffffff1681526020018273ffffffffffffffffffffffffffffffffffffffff1673ffffffffffffffffffffffffffffffffffffffff16815260200192505050602060405180830381600087803b151561069d57600080fd5b6102c65a03f115156106ae57600080fd5b5050506040518051905015156106c357600080fd5b602060405190810160405280886000191681525090506106e68989838989613ad2565b93506106f58989838988613f3a565b9250610704898983898761439f565b915050955095509592505050565b600061071c614ebb565b600160009054906101000a900473ffffffffffffffffffffffffffffffffffffffff1673ffffffffffffffffffffffffffffffffffffffff16634af5fb0f33326000604051602001526040518363ffffffff167c0100000000000000000000000000000000000000000000000000000000028152600401808373ffffffffffffffffffffffffffffffffffffffff1673ffffffffffffffffffffffffffffffffffffffff1681526020018273ffffffffffffffffffffffffffffffffffffffff1673ffffffffffffffffffffffffffffffffffffffff16815260200192505050602060405180830381600087803b151561081557600080fd5b6102c65a03f1151561082657600080fd5b50505060405180519050151561083b57600080fd5b6108966040805190810160405280600381526020017f414f500000000000000000000000000000000000000000000000000000000000815250602060405190810160405280866000191681525061480890919063ffffffff16565b9050610a7573__RealMath______________________________63f5a5d503600080604051602001526040518263ffffffff167c01000000000000000000000000000000000000000000000000000000000281526004018082600a0b815260200191505060206040518083038186803b151561091157600080fd5b6102c65a03f4151561092257600080fd5b5050506040518051905073__RealMath______________________________63b697214673__RealMath______________________________63f5a5d50360026000604051602001526040518263ffffffff167c01000000000000000000000000000000000000000000000000000000000281526004018082600a0b815260200191505060206040518083038186803b15156109bd57600080fd5b6102c65a03f415156109ce57600080fd5b505050604051805190506503243f6a88866000604051602001526040518363ffffffff167c01000000000000000000000000000000000000000000000000000000000281526004018083600f0b600f0b815260200182600f0b600f0b81526020019250505060206040518083038186803b1515610a4a57600080fd5b6102c65a03f41515610a5b57600080fd5b50505060405180519050836148cb9092919063ffffffff16565b915050919050565b6000610a87614ebb565b600160009054906101000a900473ffffffffffffffffffffffffffffffffffffffff1673ffffffffffffffffffffffffffffffffffffffff16634af5fb0f33326000604051602001526040518363ffffffff167c0100000000000000000000000000000000000000000000000000000000028152600401808373ffffffffffffffffffffffffffffffffffffffff1673ffffffffffffffffffffffffffffffffffffffff1681526020018273ffffffffffffffffffffffffffffffffffffffff1673ffffffffffffffffffffffffffffffffffffffff16815260200192505050602060405180830381600087803b1515610b8057600080fd5b6102c65a03f11515610b9157600080fd5b505050604051805190501515610ba657600080fd5b610c016040805190810160405280600381526020017f4c414e0000000000000000000000000000000000000000000000000000000000815250602060405190810160405280866000191681525061480890919063ffffffff16565b9050610de073__RealMath______________________________63f5a5d503600080604051602001526040518263ffffffff167c01000000000000000000000000000000000000000000000000000000000281526004018082600a0b815260200191505060206040518083038186803b1515610c7c57600080fd5b6102c65a03f41515610c8d57600080fd5b5050506040518051905073__RealMath______________________________63b697214673__RealMath______________________________63f5a5d50360026000604051602001526040518263ffffffff167c01000000000000000000000000000000000000000000000000000000000281526004018082600a0b815260200191505060206040518083038186803b1515610d2857600080fd5b6102c65a03f41515610d3957600080fd5b505050604051805190506503243f6a88866000604051602001526040518363ffffffff167c01000000000000000000000000000000000000000000000000000000000281526004018083600f0b600f0b815260200182600f0b600f0b81526020019250505060206040518083038186803b1515610db557600080fd5b6102c65a03f41515610dc657600080fd5b50505060405180519050836148cb9092919063ffffffff16565b915050919050565b6000600160009054906101000a900473ffffffffffffffffffffffffffffffffffffffff1673ffffffffffffffffffffffffffffffffffffffff16634af5fb0f33326000604051602001526040518363ffffffff167c0100000000000000000000000000000000000000000000000000000000028152600401808373ffffffffffffffffffffffffffffffffffffffff1673ffffffffffffffffffffffffffffffffffffffff1681526020018273ffffffffffffffffffffffffffffffffffffffff1673ffffffffffffffffffffffffffffffffffffffff16815260200192505050602060405180830381600087803b1515610ee357600080fd5b6102c65a03f11515610ef457600080fd5b505050604051805190501515610f0957600080fd5b610f328260010b602060405190810160405280866000191681525061498990919063ffffffff16565b60000151905092915050565b6000610f48614ebb565b600160009054906101000a900473ffffffffffffffffffffffffffffffffffffffff1673ffffffffffffffffffffffffffffffffffffffff16634af5fb0f33326000604051602001526040518363ffffffff167c0100000000000000000000000000000000000000000000000000000000028152600401808373ffffffffffffffffffffffffffffffffffffffff1673ffffffffffffffffffffffffffffffffffffffff1681526020018273ffffffffffffffffffffffffffffffffffffffff1673ffffffffffffffffffffffffffffffffffffffff16815260200192505050602060405180830381600087803b151561104157600080fd5b6102c65a03f1151561105257600080fd5b50505060405180519050151561106757600080fd5b6110c26040805190810160405280600481526020017f6d61737300000000000000000000000000000000000000000000000000000000815250602060405190810160405280876000191681525061480890919063ffffffff16565b9050600060048111156110d157fe5b8360048111156110dd57fe5b14156112395761123273__RealMath______________________________631dade0d4600160646000604051602001526040518363ffffffff167c01000000000000000000000000000000000000000000000000000000000281526004018083600a0b815260200182600a0b81526020019250505060206040518083038186803b151561116957600080fd5b6102c65a03f4151561117a57600080fd5b5050506040518051905073__RealMath______________________________631dade0d4600960646000604051602001526040518363ffffffff167c01000000000000000000000000000000000000000000000000000000000281526004018083600a0b815260200182600a0b81526020019250505060206040518083038186803b151561120757600080fd5b6102c65a03f4151561121857600080fd5b50505060405180519050836148cb9092919063ffffffff16565b91506117d6565b6001600481111561124657fe5b83600481111561125257fe5b14156113a25761139b73__RealMath______________________________631dade0d4600a60646000604051602001526040518363ffffffff167c01000000000000000000000000000000000000000000000000000000000281526004018083600a0b815260200182600a0b81526020019250505060206040518083038186803b15156112de57600080fd5b6102c65a03f415156112ef57600080fd5b5050506040518051905073__RealMath______________________________63f5a5d50360096000604051602001526040518263ffffffff167c01000000000000000000000000000000000000000000000000000000000281526004018082600a0b815260200191505060206040518083038186803b151561137057600080fd5b6102c65a03f4151561138157600080fd5b50505060405180519050836148cb9092919063ffffffff16565b91506117d6565b600260048111156113af57fe5b8360048111156113bb57fe5b14156114ff576114f873__RealMath______________________________63f5a5d50360096000604051602001526040518263ffffffff167c01000000000000000000000000000000000000000000000000000000000281526004018082600a0b815260200191505060206040518083038186803b151561143b57600080fd5b6102c65a03f4151561144c57600080fd5b5050506040518051905073__RealMath______________________________63f5a5d50360146000604051602001526040518263ffffffff167c01000000000000000000000000000000000000000000000000000000000281526004018082600a0b815260200191505060206040518083038186803b15156114cd57600080fd5b6102c65a03f415156114de57600080fd5b50505060405180519050836148cb9092919063ffffffff16565b91506117d6565b6003600481111561150c57fe5b83600481111561151857fe5b141561165d5761165673__RealMath______________________________63f5a5d50360326000604051602001526040518263ffffffff167c01000000000000000000000000000000000000000000000000000000000281526004018082600a0b815260200191505060206040518083038186803b151561159857600080fd5b6102c65a03f415156115a957600080fd5b5050506040518051905073__RealMath______________________________63f5a5d5036101906000604051602001526040518263ffffffff167c01000000000000000000000000000000000000000000000000000000000281526004018082600a0b815260200191505060206040518083038186803b151561162b57600080fd5b6102c65a03f4151561163c57600080fd5b50505060405180519050836148cb9092919063ffffffff16565b91506117d6565b60048081111561166957fe5b83600481111561167557fe5b14156117d1576117ca73__RealMath______________________________631dade0d4600160646000604051602001526040518363ffffffff167c01000000000000000000000000000000000000000000000000000000000281526004018083600a0b815260200182600a0b81526020019250505060206040518083038186803b151561170157600080fd5b6102c65a03f4151561171257600080fd5b5050506040518051905073__RealMath______________________________631dade0d4601460646000604051602001526040518363ffffffff167c01000000000000000000000000000000000000000000000000000000000281526004018083600a0b815260200182600a0b81526020019250505060206040518083038186803b151561179f57600080fd5b6102c65a03f415156117b057600080fd5b50505060405180519050836148cb9092919063ffffffff16565b91506117d6565b600080fd5b5092915050565b60006117e7614ebb565b600160009054906101000a900473ffffffffffffffffffffffffffffffffffffffff1673ffffffffffffffffffffffffffffffffffffffff16634af5fb0f33326000604051602001526040518363ffffffff167c0100000000000000000000000000000000000000000000000000000000028152600401808373ffffffffffffffffffffffffffffffffffffffff1673ffffffffffffffffffffffffffffffffffffffff1681526020018273ffffffffffffffffffffffffffffffffffffffff1673ffffffffffffffffffffffffffffffffffffffff16815260200192505050602060405180830381600087803b15156118e057600080fd5b6102c65a03f115156118f157600080fd5b50505060405180519050151561190657600080fd5b6119616040805190810160405280600381526020017f4d41450000000000000000000000000000000000000000000000000000000000815250602060405190810160405280866000191681525061480890919063ffffffff16565b9050611b4073__RealMath______________________________63f5a5d503600080604051602001526040518263ffffffff167c01000000000000000000000000000000000000000000000000000000000281526004018082600a0b815260200191505060206040518083038186803b15156119dc57600080fd5b6102c65a03f415156119ed57600080fd5b5050506040518051905073__RealMath______________________________63b697214673__RealMath______________________________63f5a5d50360026000604051602001526040518263ffffffff167c01000000000000000000000000000000000000000000000000000000000281526004018082600a0b815260200191505060206040518083038186803b1515611a8857600080fd5b6102c65a03f41515611a9957600080fd5b505050604051805190506503243f6a88866000604051602001526040518363ffffffff167c01000000000000000000000000000000000000000000000000000000000281526004018083600f0b600f0b815260200182600f0b600f0b81526020019250505060206040518083038186803b1515611b1557600080fd5b6102c65a03f41515611b2657600080fd5b50505060405180519050836148cb9092919063ffffffff16565b915050919050565b6000809054906101000a900473ffffffffffffffffffffffffffffffffffffffff1681565b6000611b77614ebb565b6000600160009054906101000a900473ffffffffffffffffffffffffffffffffffffffff1673ffffffffffffffffffffffffffffffffffffffff16634af5fb0f33326000604051602001526040518363ffffffff167c0100000000000000000000000000000000000000000000000000000000028152600401808373ffffffffffffffffffffffffffffffffffffffff1673ffffffffffffffffffffffffffffffffffffffff1681526020018273ffffffffffffffffffffffffffffffffffffffff1673ffffffffffffffffffffffffffffffffffffffff16815260200192505050602060405180830381600087803b1515611c7257600080fd5b6102c65a03f11515611c8357600080fd5b505050604051805190501515611c9857600080fd5b60206040519081016040528087600019168152509150600580811115611cba57fe5b856005811115611cc657fe5b1415611eb057611d1c611d176040805190810160405280600d81526020017f616363726574696f6e6469736b000000000000000000000000000000000000008152508461480890919063ffffffff16565b6149ff565b15611ea657611e9f73__RealMath______________________________63f5a5d50360016000604051602001526040518263ffffffff167c01000000000000000000000000000000000000000000000000000000000281526004018082600a0b815260200191505060206040518083038186803b1515611d9b57600080fd5b6102c65a03f41515611dac57600080fd5b5050506040518051905073__RealMath______________________________63f5a5d50360056000604051602001526040518263ffffffff167c01000000000000000000000000000000000000000000000000000000000281526004018082600a0b815260200191505060206040518083038186803b1515611e2d57600080fd5b6102c65a03f41515611e3e57600080fd5b50505060405180519050611e906040805190810160405280600a81526020017f6c756d696e6f73697479000000000000000000000000000000000000000000008152508661480890919063ffffffff16565b6148cb9092919063ffffffff16565b9050611eab565b600090505b6123dc565b60046005811115611ebd57fe5b856005811115611ec957fe5b141561206c5761206573__RealMath______________________________631dade0d4600160146000604051602001526040518363ffffffff167c01000000000000000000000000000000000000000000000000000000000281526004018083600a0b815260200182600a0b81526020019250505060206040518083038186803b1515611f5557600080fd5b6102c65a03f41515611f6657600080fd5b5050506040518051905073__RealMath______________________________631dade0d46002600a6000604051602001526040518363ffffffff167c01000000000000000000000000000000000000000000000000000000000281526004018083600a0b815260200182600a0b81526020019250505060206040518083038186803b1515611ff357600080fd5b6102c65a03f4151561200457600080fd5b505050604051805190506120566040805190810160405280600a81526020017f6c756d696e6f73697479000000000000000000000000000000000000000000008152508661480890919063ffffffff16565b6148cb9092919063ffffffff16565b90506123db565b6003600581111561207957fe5b85600581111561208557fe5b14156122985773__RealMath______________________________634672f55585600f0b73__RealMath______________________________63b69721469091600160286001600f0b60008212156120d957fe5b9060020a02600f0b9060020a90056000604051602001526040518363ffffffff167c01000000000000000000000000000000000000000000000000000000000281526004018083600f0b600f0b815260200182600f0b600f0b81526020019250505060206040518083038186803b151561215257600080fd5b6102c65a03f4151561216357600080fd5b5050506040518051905073__RealMath______________________________631dade0d46023600a6000604051602001526040518363ffffffff167c01000000000000000000000000000000000000000000000000000000000281526004018083600a0b815260200182600a0b81526020019250505060206040518083038186803b15156121f057600080fd5b6102c65a03f4151561220157600080fd5b505050604051805190506000604051602001526040518363ffffffff167c01000000000000000000000000000000000000000000000000000000000281526004018083600f0b600f0b815260200182600f0b600f0b81526020019250505060206040518083038186803b151561227657600080fd5b6102c65a03f4151561228757600080fd5b5050506040518051905090506123da565b73__RealMath______________________________634672f5558573__RealMath______________________________631dade0d46023600a6000604051602001526040518363ffffffff167c01000000000000000000000000000000000000000000000000000000000281526004018083600a0b815260200182600a0b81526020019250505060206040518083038186803b151561233657600080fd5b6102c65a03f4151561234757600080fd5b505050604051805190506000604051602001526040518363ffffffff167c01000000000000000000000000000000000000000000000000000000000281526004018083600f0b600f0b815260200182600f0b600f0b81526020019250505060206040518083038186803b15156123bc57600080fd5b6102c65a03f415156123cd57600080fd5b5050506040518051905090505b5b5b80600f0b73__RealMath______________________________63b6972146909161259273__RealMath______________________________631dade0d4605f60646000604051602001526040518363ffffffff167c01000000000000000000000000000000000000000000000000000000000281526004018083600a0b815260200182600a0b81526020019250505060206040518083038186803b151561248257600080fd5b6102c65a03f4151561249357600080fd5b5050506040518051905073__RealMath______________________________631dade0d4606960646000604051602001526040518363ffffffff167c01000000000000000000000000000000000000000000000000000000000281526004018083600a0b815260200182600a0b81526020019250505060206040518083038186803b151561252057600080fd5b6102c65a03f4151561253157600080fd5b505050604051805190506125836040805190810160405280600f81526020017f6c756d696e6f736974795363616c6500000000000000000000000000000000008152508961480890919063ffffffff16565b6148cb9092919063ffffffff16565b6000604051602001526040518363ffffffff167c01000000000000000000000000000000000000000000000000000000000281526004018083600f0b600f0b815260200182600f0b600f0b81526020019250505060206040518083038186803b15156125fd57600080fd5b6102c65a03f4151561260e57600080fd5b50505060405180519050925050509392505050565b6000809054906101000a900473ffffffffffffffffffffffffffffffffffffffff1673ffffffffffffffffffffffffffffffffffffffff163373ffffffffffffffffffffffffffffffffffffffff1614151561267e57600080fd5b80600160006101000a81548173ffffffffffffffffffffffffffffffffffffffff021916908373ffffffffffffffffffffffffffffffffffffffff16021790555050565b600080600160009054906101000a900473ffffffffffffffffffffffffffffffffffffffff1673ffffffffffffffffffffffffffffffffffffffff16634af5fb0f33326000604051602001526040518363ffffffff167c0100000000000000000000000000000000000000000000000000000000028152600401808373ffffffffffffffffffffffffffffffffffffffff1673ffffffffffffffffffffffffffffffffffffffff1681526020018273ffffffffffffffffffffffffffffffffffffffff1673ffffffffffffffffffffffffffffffffffffffff16815260200192505050602060405180830381600087803b15156127be57600080fd5b6102c65a03f115156127cf57600080fd5b5050506040518051905015156127e457600080fd5b73__RealMath______________________________6325f39a6385850173__RealMath______________________________63f5a5d50360026000604051602001526040518263ffffffff167c01000000000000000000000000000000000000000000000000000000000281526004018082600a0b815260200191505060206040518083038186803b151561287857600080fd5b6102c65a03f4151561288957600080fd5b505050604051805190506000604051602001526040518363ffffffff167c01000000000000000000000000000000000000000000000000000000000281526004018083600f0b600f0b815260200182600f0b600f0b81526020019250505060206040518083038186803b15156128fe57600080fd5b6102c65a03f4151561290f57600080fd5b50505060405180519050915073__RealMath______________________________6325f39a638585038686016000604051602001526040518363ffffffff167c01000000000000000000000000000000000000000000000000000000000281526004018083600f0b600f0b815260200182600f0b600f0b81526020019250505060206040518083038186803b15156129a657600080fd5b6102c65a03f415156129b757600080fd5b5050506040518051905090509250929050565b60006129d4614ebb565b6000600160009054906101000a900473ffffffffffffffffffffffffffffffffffffffff1673ffffffffffffffffffffffffffffffffffffffff16634af5fb0f33326000604051602001526040518363ffffffff167c0100000000000000000000000000000000000000000000000000000000028152600401808373ffffffffffffffffffffffffffffffffffffffff1673ffffffffffffffffffffffffffffffffffffffff1681526020018273ffffffffffffffffffffffffffffffffffffffff1673ffffffffffffffffffffffffffffffffffffffff16815260200192505050602060405180830381600087803b1515612acf57600080fd5b6102c65a03f11515612ae057600080fd5b505050604051805190501515612af557600080fd5b612b506040805190810160405280600581526020017f636c617373000000000000000000000000000000000000000000000000000000815250602060405190810160405280896000191681525061480890919063ffffffff16565b9150612b696000606484614a1f9092919063ffffffff16565b905060008560010b148015612b82575060018460010b14155b15612bcf57604681600a0b1215612b9c5760009250612ca2565b605081600a0b1215612bb15760019250612ca2565b605a81600a0b1215612bc65760029250612ca2565b60039250612ca2565b60028460010b811515612bde57fe5b0560010b8560010b1215612c4957601481600a0b1215612c015760009250612ca2565b602881600a0b1215612c165760019250612ca2565b604681600a0b1215612c2b5760029250612ca2565b605081600a0b1215612c405760039250612ca2565b60049250612ca2565b601481600a0b1215612c5e5760009250612ca2565b601e81600a0b1215612c735760019250612ca2565b603c81600a0b1215612c885760029250612ca2565b605a81600a0b1215612c9d5760039250612ca2565b600492505b50509392505050565b6000612cb5614ebb565b600080600160009054906101000a900473ffffffffffffffffffffffffffffffffffffffff1673ffffffffffffffffffffffffffffffffffffffff16634af5fb0f33326000604051602001526040518363ffffffff167c0100000000000000000000000000000000000000000000000000000000028152600401808373ffffffffffffffffffffffffffffffffffffffff1673ffffffffffffffffffffffffffffffffffffffff1681526020018273ffffffffffffffffffffffffffffffffffffffff1673ffffffffffffffffffffffffffffffffffffffff16815260200192505050602060405180830381600087803b1515612db157600080fd5b6102c65a03f11515612dc257600080fd5b505050604051805190501515612dd757600080fd5b612e326040805190810160405280600b81526020017f706c616e6574636f756e740000000000000000000000000000000000000000008152506020604051908101604052808a6000191681525061480890919063ffffffff16565b925060026005811115612e4157fe5b866005811115612e4d57fe5b1415612f5a5760006007811115612e6057fe5b856007811115612e6c57fe5b1480612e8e575060016007811115612e8057fe5b856007811115612e8c57fe5b145b15612e9c5760059150612f55565b60026007811115612ea957fe5b856007811115612eb557fe5b1415612ec45760079150612f54565b60036007811115612ed157fe5b856007811115612edd57fe5b1480612eff575060046007811115612ef157fe5b856007811115612efd57fe5b145b80612f20575060056007811115612f1257fe5b856007811115612f1e57fe5b145b15612f2e57600c9150612f53565b60066007811115612f3b57fe5b856007811115612f4757fe5b1415612f5257600e91505b5b5b5b612fb1565b60016005811115612f6757fe5b866005811115612f7357fe5b1415612f825760029150612fb0565b60006005811115612f8f57fe5b866005811115612f9b57fe5b1415612faa5760029150612faf565b600291505b5b5b612fcc600180840160010b85614a1f9092919063ffffffff16565b90508093505050509392505050565b6000806000600160009054906101000a900473ffffffffffffffffffffffffffffffffffffffff1673ffffffffffffffffffffffffffffffffffffffff16634af5fb0f33326000604051602001526040518363ffffffff167c0100000000000000000000000000000000000000000000000000000000028152600401808373ffffffffffffffffffffffffffffffffffffffff1673ffffffffffffffffffffffffffffffffffffffff1681526020018273ffffffffffffffffffffffffffffffffffffffff1673ffffffffffffffffffffffffffffffffffffffff16815260200192505050602060405180830381600087803b15156130d957600080fd5b6102c65a03f115156130ea57600080fd5b5050506040518051905015156130ff57600080fd5b73__RealMath______________________________636e3daae4856000604051602001526040518263ffffffff167c01000000000000000000000000000000000000000000000000000000000281526004018082600f0b600f0b815260200191505060206040518083038186803b151561317857600080fd5b6102c65a03f4151561318957600080fd5b50505060405180519050905073__RealMath______________________________63f5a5d503641a1f8bb8006000604051602001526040518263ffffffff167c01000000000000000000000000000000000000000000000000000000000281526004018082600a0b815260200191505060206040518083038186803b151561321057600080fd5b6102c65a03f4151561322157600080fd5b50505060405180519050600f0b73__RealMath______________________________63b69721469091836000604051602001526040518363ffffffff167c01000000000000000000000000000000000000000000000000000000000281526004018083600f0b600f0b815260200182600f0b600f0b81526020019250505060206040518083038186803b15156132b657600080fd5b6102c65a03f415156132c757600080fd5b50505060405180519050925073__RealMath______________________________63f5a5d5036445a97413206000604051602001526040518263ffffffff167c01000000000000000000000000000000000000000000000000000000000281526004018082600a0b815260200191505060206040518083038186803b151561334e57600080fd5b6102c65a03f4151561335f57600080fd5b50505060405180519050600f0b73__RealMath______________________________63b69721469091836000604051602001526040518363ffffffff167c01000000000000000000000000000000000000000000000000000000000281526004018083600f0b600f0b815260200182600f0b600f0b81526020019250505060206040518083038186803b15156133f457600080fd5b6102c65a03f4151561340557600080fd5b50505060405180519050915050915091565b6000613421614ebb565b6000806000600160009054906101000a900473ffffffffffffffffffffffffffffffffffffffff1673ffffffffffffffffffffffffffffffffffffffff16634af5fb0f33326000604051602001526040518363ffffffff167c0100000000000000000000000000000000000000000000000000000000028152600401808373ffffffffffffffffffffffffffffffffffffffff1673ffffffffffffffffffffffffffffffffffffffff1681526020018273ffffffffffffffffffffffffffffffffffffffff1673ffffffffffffffffffffffffffffffffffffffff16815260200192505050602060405180830381600087803b151561351f57600080fd5b6102c65a03f1151561353057600080fd5b50505060405180519050151561354557600080fd5b6135a06040805190810160405280600b81526020017f696e636c696e6174696f6e0000000000000000000000000000000000000000008152506020604051908101604052808a6000191681525061480890919063ffffffff16565b9350600060048111156135af57fe5b8660048111156135bb57fe5b14156135ce576000925060af9150613687565b600160048111156135db57fe5b8660048111156135e757fe5b14156135fa576000925060579150613686565b6002600481111561360757fe5b86600481111561361357fe5b1415613626576000925060239150613685565b6003600481111561363357fe5b86600481111561363f57fe5b1415613652576000925060349150613684565b60048081111561365e57fe5b86600481111561366a57fe5b141561367e57600092506101069150613683565b600080fd5b5b5b5b5b6000905060026136ee6001606460006136de6040805190810160405280600a81526020017f726574726f6772616465000000000000000000000000000000000000000000008152508a61480890919063ffffffff16565b614d29909392919063ffffffff16565b60010b1215613701576503243f6a888690505b73__RealMath______________________________6325f39a6361385673__RealMath______________________________63f5a5d503876000604051602001526040518263ffffffff167c01000000000000000000000000000000000000000000000000000000000281526004018082600a0b600a0b815260200191505060206040518083038186803b151561379757600080fd5b6102c65a03f415156137a857600080fd5b5050506040518051905073__RealMath______________________________63f5a5d503876000604051602001526040518263ffffffff167c01000000000000000000000000000000000000000000000000000000000281526004018082600a0b600a0b815260200191505060206040518083038186803b151561382b57600080fd5b6102c65a03f4151561383c57600080fd5b50505060405180519050886148cb9092919063ffffffff16565b73__RealMath______________________________63f5a5d5036103e86000604051602001526040518263ffffffff167c01000000000000000000000000000000000000000000000000000000000281526004018082600a0b815260200191505060206040518083038186803b15156138ce57600080fd5b6102c65a03f415156138df57600080fd5b505050604051805190506000604051602001526040518363ffffffff167c01000000000000000000000000000000000000000000000000000000000281526004018083600f0b600f0b815260200182600f0b600f0b81526020019250505060206040518083038186803b151561395457600080fd5b6102c65a03f4151561396557600080fd5b50505060405180519050810194505050505092915050565b6000809054906101000a900473ffffffffffffffffffffffffffffffffffffffff1673ffffffffffffffffffffffffffffffffffffffff163373ffffffffffffffffffffffffffffffffffffffff161415156139d857600080fd5b600073ffffffffffffffffffffffffffffffffffffffff168173ffffffffffffffffffffffffffffffffffffffff1614151515613a1457600080fd5b8073ffffffffffffffffffffffffffffffffffffffff166000809054906101000a900473ffffffffffffffffffffffffffffffffffffffff1673ffffffffffffffffffffffffffffffffffffffff167f8be0079c531659141344cd1fd0a4f28419497f9722a3daafe3b4186f6b6457e060405160405180910390a3806000806101000a81548173ffffffffffffffffffffffffffffffffffffffff021916908373ffffffffffffffffffffffffffffffffffffffff16021790555050565b6000613adc614ebb565b6000806000613b296040805190810160405280600981526020017f70657269617073697300000000000000000000000000000000000000000000008152508961480890919063ffffffff16565b935060006004811115613b3857fe5b876004811115613b4457fe5b1415613b575760149250603c9150613c13565b60016004811115613b6457fe5b876004811115613b7057fe5b1415613b83576014925060469150613c12565b60026004811115613b9057fe5b876004811115613b9c57fe5b1415613bb057606492506107d09150613c11565b60036004811115613bbd57fe5b876004811115613bc957fe5b1415613bde5761012c92506101f49150613c10565b600480811115613bea57fe5b876004811115613bf657fe5b1415613c0a57601492506101f49150613c0f565b600080fd5b5b5b5b5b613d4e73__RealMath______________________________63f5a5d503856000604051602001526040518263ffffffff167c01000000000000000000000000000000000000000000000000000000000281526004018082600a0b600a0b815260200191505060206040518083038186803b1515613c8f57600080fd5b6102c65a03f41515613ca057600080fd5b5050506040518051905073__RealMath______________________________63f5a5d503856000604051602001526040518263ffffffff167c01000000000000000000000000000000000000000000000000000000000281526004018082600a0b600a0b815260200191505060206040518083038186803b1515613d2357600080fd5b6102c65a03f41515613d3457600080fd5b50505060405180519050866148cb9092919063ffffffff16565b905073__RealMath______________________________63b6972146828c6000604051602001526040518363ffffffff167c01000000000000000000000000000000000000000000000000000000000281526004018083600f0b600f0b815260200182600f0b600f0b81526020019250505060206040518083038186803b1515613dd757600080fd5b6102c65a03f41515613de857600080fd5b50505060405180519050600f0b73__RealMath______________________________6325f39a63909173__RealMath______________________________63f5a5d50360646000604051602001526040518263ffffffff167c01000000000000000000000000000000000000000000000000000000000281526004018082600a0b815260200191505060206040518083038186803b1515613e8857600080fd5b6102c65a03f41515613e9957600080fd5b505050604051805190506000604051602001526040518363ffffffff167c01000000000000000000000000000000000000000000000000000000000281526004018083600f0b600f0b815260200182600f0b600f0b81526020019250505060206040518083038186803b1515613f0e57600080fd5b6102c65a03f41515613f1f57600080fd5b50505060405180519050860194505050505095945050505050565b6000613f44614ebb565b6000806000613f916040805190810160405280600881526020017f61706f61707369730000000000000000000000000000000000000000000000008152508961480890919063ffffffff16565b935060006004811115613fa057fe5b876004811115613fac57fe5b1415613fbf576000925060069150614078565b60016004811115613fcc57fe5b876004811115613fd857fe5b1415613feb5760009250600a9150614077565b60026004811115613ff857fe5b87600481111561400457fe5b141561401857601492506103e89150614076565b6003600481111561402557fe5b87600481111561403157fe5b141561404457600a925060c89150614075565b60048081111561405057fe5b87600481111561405c57fe5b141561406f57600a925060649150614074565b600080fd5b5b5b5b5b6141b373__RealMath______________________________63f5a5d503856000604051602001526040518263ffffffff167c01000000000000000000000000000000000000000000000000000000000281526004018082600a0b600a0b815260200191505060206040518083038186803b15156140f457600080fd5b6102c65a03f4151561410557600080fd5b5050506040518051905073__RealMath______________________________63f5a5d503856000604051602001526040518263ffffffff167c01000000000000000000000000000000000000000000000000000000000281526004018082600a0b600a0b815260200191505060206040518083038186803b151561418857600080fd5b6102c65a03f4151561419957600080fd5b50505060405180519050866148cb9092919063ffffffff16565b905073__RealMath______________________________63b6972146828c6000604051602001526040518363ffffffff167c01000000000000000000000000000000000000000000000000000000000281526004018083600f0b600f0b815260200182600f0b600f0b81526020019250505060206040518083038186803b151561423c57600080fd5b6102c65a03f4151561424d57600080fd5b50505060405180519050600f0b73__RealMath______________________________6325f39a63909173__RealMath______________________________63f5a5d50360646000604051602001526040518263ffffffff167c01000000000000000000000000000000000000000000000000000000000281526004018082600a0b815260200191505060206040518083038186803b15156142ed57600080fd5b6102c65a03f415156142fe57600080fd5b505050604051805190506000604051602001526040518363ffffffff167c01000000000000000000000000000000000000000000000000000000000281526004018083600f0b600f0b815260200182600f0b600f0b81526020019250505060206040518083038186803b151561437357600080fd5b6102c65a03f4151561438457600080fd5b50505060405180519050860194505050505095945050505050565b60006143a9614ebb565b60008060006143f66040805190810160405280600781526020017f636c6561726564000000000000000000000000000000000000000000000000008152508961480890919063ffffffff16565b93506000600481111561440557fe5b87600481111561441157fe5b14156144245760149250603c91506144e1565b6001600481111561443157fe5b87600481111561443d57fe5b14156144505760289250604691506144e0565b6002600481111561445d57fe5b87600481111561446957fe5b141561447e576103e892506107d091506144df565b6003600481111561448b57fe5b87600481111561449757fe5b14156144ac5761012c92506101f491506144de565b6004808111156144b857fe5b8760048111156144c457fe5b14156144d857601492506101f491506144dd565b600080fd5b5b5b5b5b61461c73__RealMath______________________________63f5a5d503856000604051602001526040518263ffffffff167c01000000000000000000000000000000000000000000000000000000000281526004018082600a0b600a0b815260200191505060206040518083038186803b151561455d57600080fd5b6102c65a03f4151561456e57600080fd5b5050506040518051905073__RealMath______________________________63f5a5d503856000604051602001526040518263ffffffff167c01000000000000000000000000000000000000000000000000000000000281526004018082600a0b600a0b815260200191505060206040518083038186803b15156145f157600080fd5b6102c65a03f4151561460257600080fd5b50505060405180519050866148cb9092919063ffffffff16565b905073__RealMath______________________________63b6972146828c6000604051602001526040518363ffffffff167c01000000000000000000000000000000000000000000000000000000000281526004018083600f0b600f0b815260200182600f0b600f0b81526020019250505060206040518083038186803b15156146a557600080fd5b6102c65a03f415156146b657600080fd5b50505060405180519050600f0b73__RealMath______________________________6325f39a63909173__RealMath______________________________63f5a5d50360646000604051602001526040518263ffffffff167c01000000000000000000000000000000000000000000000000000000000281526004018082600a0b815260200191505060206040518083038186803b151561475657600080fd5b6102c65a03f4151561476757600080fd5b505050604051805190506000604051602001526040518363ffffffff167c01000000000000000000000000000000000000000000000000000000000281526004018083600f0b600f0b815260200182600f0b600f0b81526020019250505060206040518083038186803b15156147dc57600080fd5b6102c65a03f415156147ed57600080fd5b50505060405180519050860194505050505095945050505050565b614810614ebb565b602060405190810160405280600285600001518560006040516020015260405180836000191660001916815260200182805190602001908083835b602083101515614870578051825260208201915060208101905060208303925061484b565b6001836020036101000a0380198251168184511680821785525050505050509050019250505060206040518083038160008661646e5a03f115156148b357600080fd5b50506040518051905060001916815250905092915050565b6000826148d785614da7565b600f0b73__RealMath______________________________63b697214690918686036000604051602001526040518363ffffffff167c01000000000000000000000000000000000000000000000000000000000281526004018083600f0b600f0b815260200182600f0b600f0b81526020019250505060206040518083038186803b151561496457600080fd5b6102c65a03f4151561497557600080fd5b505050604051805190500190509392505050565b614991614ebb565b60206040519081016040528060028560000151856000604051602001526040518083600019166000191681526020018281526020019250505060206040518083038160008661646e5a03f115156149e757600080fd5b50506040518051905060001916815250905092915050565b60008060010260018002614a1284614e51565b1660001916119050919050565b600073__RealMath______________________________6315dbfe2873__RealMath______________________________63f5a5d503866000604051602001526040518263ffffffff167c01000000000000000000000000000000000000000000000000000000000281526004018082600a0b600a0b815260200191505060206040518083038186803b1515614ab457600080fd5b6102c65a03f41515614ac557600080fd5b50505060405180519050614ad887614da7565b600f0b73__RealMath______________________________63b6972146909173__RealMath______________________________63f5a5d5038a6000604051602001526040518263ffffffff167c01000000000000000000000000000000000000000000000000000000000281526004018082600a0b600a0b815260200191505060206040518083038186803b1515614b7057600080fd5b6102c65a03f41515614b8157600080fd5b5050506040518051905073__RealMath______________________________63f5a5d5038a6000604051602001526040518263ffffffff167c01000000000000000000000000000000000000000000000000000000000281526004018082600a0b600a0b815260200191505060206040518083038186803b1515614c0457600080fd5b6102c65a03f41515614c1557600080fd5b50505060405180519050036000604051602001526040518363ffffffff167c01000000000000000000000000000000000000000000000000000000000281526004018083600f0b600f0b815260200182600f0b600f0b81526020019250505060206040518083038186803b1515614c8b57600080fd5b6102c65a03f41515614c9c57600080fd5b50505060405180519050016000604051602001526040518263ffffffff167c01000000000000000000000000000000000000000000000000000000000281526004018082600f0b600f0b815260200191505060206040518083038186803b1515614d0557600080fd5b6102c65a03f41515614d1657600080fd5b5050506040518051905090509392505050565b600080600060018660000b1415614d55578360000b614d4d8860018860000b614a1f565b019250614d9d565b8360000b9150600090505b8560000b8160000b1215614d9957614d88614d7e888360000b614989565b6001876000614d29565b820191508080600101915050614d60565b8192505b5050949350505050565b6000614db282614ea5565b600f0b73__RealMath______________________________6384f1bd4e90916000604051602001526040518263ffffffff167c01000000000000000000000000000000000000000000000000000000000281526004018082600f0b600f0b815260200191505060206040518083038186803b1515614e2f57600080fd5b6102c65a03f41515614e4057600080fd5b505050604051805190509050919050565b60006002826000015160006040516020015260405180826000191660001916815260200191505060206040518083038160008661646e5a03f11515614e9557600080fd5b5050604051805190509050919050565b6000614eb082614e51565b600190049050919050565b6020604051908101604052806000801916815250905600a165627a7a72305820cf3967bd7166d4bc045b3f17e981449b2f3ef45f9f99e4f38c6c4b80018e2a410029",
  "source": "pragma solidity ^0.4.18;\n\nimport \"./RNG.sol\";\nimport \"./RealMath.sol\";\n\nimport \"./AccessControl.sol\";\nimport \"./ControlledAccess.sol\";\n\nimport \"./MacroverseStarGenerator.sol\";\n\n/**\n * Represents a Macroverse generator for planetary systems around stars and\n * other stellar objects.\n *\n * Permission to call methods on this contract is regulated by a configurable\n * AccessControl contract. One such set of terms might be to require that the\n * account initiating a transaction have a certain minimum MRV token balance.\n *\n * The owner of this contract reserves the right to supersede it with a new\n * version, and to modify the terms for accessing this contract, at any time,\n * for any reason, and without notice. This includes the right to indefinitely\n * or permanently suspend or terminate access to this contract for any person,\n * account, or other contract, or for all persons, accounts, or other\n * contracts. The owner also reserves the right to not do any of the above.\n */\ncontract MacroverseSystemGenerator is ControlledAccess {\n    // TODO: RNG doesn't get linked against because we can't pass the struct to the library...\n    using RNG for *;\n    using RealMath for *;\n    // No SafeMath or it might confuse RealMath\n\n    /**\n     * It is also useful to have Pi around.\n     * We can't pull it in from the library.\n     */\n    int128 constant REAL_PI = 3454217652358;\n\n    /**\n     * How many fractional bits are there?\n     */\n    int256 constant REAL_FBITS = 40;\n    \n    /**\n     * What's the first non-fractional bit\n     */\n    int128 constant REAL_ONE = int128(1) << REAL_FBITS;\n    \n    /**\n     * What's the last fractional bit?\n     */\n    int128 constant REAL_HALF = REAL_ONE >> 1;\n    \n    /**\n     * What's two? Two is pretty useful.\n     */\n    int128 constant REAL_TWO = REAL_ONE << 1;\n    /**\n     * Define different types of planet.\n     */\n    enum PlanetClass {Lunar, Terrestrial, Uranian, Jovian, AsteroidBelt}\n\n    /**\n     * Deploy a new copy of the MacroverseSystemGenerator.\n     */\n    function MacroverseSystemGenerator(address accessControlAddress) ControlledAccess(AccessControl(accessControlAddress)) public {\n        // Nothing to do!\n    }\n    \n    /**\n     * If the object has any planets at all, get the planet count. Will return\n     * nonzero numbers always, so make sure to check getObjectHasPlanets in the\n     * Star Generator.\n     */\n    function getObjectPlanetCount(bytes32 starSeed, MacroverseStarGenerator.ObjectClass objectClass,\n        MacroverseStarGenerator.SpectralType spectralType) public view onlyControlledAccess returns (int16) {\n        \n        var node = RNG.RandNode(starSeed).derive(\"planetcount\");\n        \n        \n        int16 limit;\n\n        if (objectClass == MacroverseStarGenerator.ObjectClass.MainSequence) {\n            if (spectralType == MacroverseStarGenerator.SpectralType.TypeO ||\n                spectralType == MacroverseStarGenerator.SpectralType.TypeB) {\n                \n                limit = 5;\n            } else if (spectralType == MacroverseStarGenerator.SpectralType.TypeA) {\n                limit = 7;\n            } else if (spectralType == MacroverseStarGenerator.SpectralType.TypeF ||\n                spectralType == MacroverseStarGenerator.SpectralType.TypeG ||\n                spectralType == MacroverseStarGenerator.SpectralType.TypeK) {\n                \n                limit = 12;\n            } else if (spectralType == MacroverseStarGenerator.SpectralType.TypeM) {\n                limit = 14;\n            }\n        } else if (objectClass == MacroverseStarGenerator.ObjectClass.Giant) {\n            limit = 2;\n        } else if (objectClass == MacroverseStarGenerator.ObjectClass.Supergiant) {\n            limit = 2;\n        } else {\n           // Black hole, neutron star, or white dwarf\n           limit = 2;\n        }\n        \n        var roll = int16(node.getIntBetween(1, limit + 1));\n        \n        return roll;\n    }\n\n    /**\n     * Compute the luminosity of a stellar object given its mass and class.\n     * We didn't define this in the star generator, but we need it for the planet generator.\n     *\n     * Returns luminosity in solar luminosities.\n     */\n    function getObjectLuminosity(bytes32 starSeed, MacroverseStarGenerator.ObjectClass objectClass, int128 realObjectMass) public view onlyControlledAccess returns (int128) {\n        \n        var node = RNG.RandNode(starSeed);\n\n        int128 realBaseLuminosity;\n        if (objectClass == MacroverseStarGenerator.ObjectClass.BlackHole) {\n            // Black hole luminosity is going to be from the accretion disk.\n            // See <https://astronomy.stackexchange.com/q/12567>\n            // We'll return pretty much whatever and user code can back-fill the accretion disk if any.\n            if(node.derive(\"accretiondisk\").getBool()) {\n                // These aren't absurd masses; they're on the order of world annual food production per second.\n                realBaseLuminosity = node.derive(\"luminosity\").getRealBetween(RealMath.toReal(1), RealMath.toReal(5));\n            } else {\n                // No accretion disk\n                realBaseLuminosity = 0;\n            }\n        } else if (objectClass == MacroverseStarGenerator.ObjectClass.NeutronStar) {\n            // These will be dim and not really mass-related\n            realBaseLuminosity = node.derive(\"luminosity\").getRealBetween(RealMath.fraction(1, 20), RealMath.fraction(2, 10));\n        } else if (objectClass == MacroverseStarGenerator.ObjectClass.WhiteDwarf) {\n            // These are also dim\n            realBaseLuminosity = RealMath.pow(realObjectMass.mul(REAL_HALF), RealMath.fraction(35, 10));\n        } else {\n            // Normal stars follow a normal mass-lumoinosity relationship\n            realBaseLuminosity = RealMath.pow(realObjectMass, RealMath.fraction(35, 10));\n        }\n        \n        // Perturb the generated luminosity for fun\n        return realBaseLuminosity.mul(node.derive(\"luminosityScale\").getRealBetween(RealMath.fraction(95, 100), RealMath.fraction(105, 100)));\n    }\n\n    /**\n     * Get the inner and outer boundaries of the habitable zone for a star, in meters, based on its luminosity in solar luminosities.\n     * This is just a rule-of-thumb; actual habitability is going to depend on atmosphere (see Venus, Mars)\n     */\n    function getObjectHabitableZone(int128 realLuminosity) public view onlyControlledAccess returns (int128 realInnerRadius, int128 realOuterRadius) {\n        // Light per unit area scales with the square of the distance, so if we move twice as far out we get 1/4 the light.\n        // So if our star is half as bright as the sun, the habitable zone radius is 1/sqrt(2) = sqrt(1/2) as big\n        // So we scale this by the square root of the luminosity.\n        int128 realScale = RealMath.sqrt(realLuminosity);\n        // Wikipedia says nobody knows the bounds for Sol, but let's say 0.75 to 2.0 AU to be nice and round and also sort of average\n        realInnerRadius = RealMath.toReal(112198400000).mul(realScale);\n        realOuterRadius = RealMath.toReal(299195700000).mul(realScale);\n    }\n\n    \n    /**\n     * Get the seed for a planet from the seed for the star and its number.\n     */\n    function getPlanetSeed(bytes32 starSeed, int16 planetNumber) public view onlyControlledAccess returns (bytes32) {\n        return RNG.RandNode(starSeed).derive(planetNumber)._hash;\n    }\n    \n    /**\n     * Decide what kind of planet a given planet is.\n     * It depends on its place in the order.\n     * Takes the *planet*'s seed, its number, and the total planets in the system.\n     */\n    function getPlanetClass(bytes32 seed, int16 planetNumber, int16 totalPlanets) public view onlyControlledAccess returns (PlanetClass) {\n        // TODO: do something based on metallicity?\n        var node = RNG.RandNode(seed).derive(\"class\");\n        \n        var roll = node.getIntBetween(0, 100);\n        \n        // Inner planets should be more planet-y, ideally smaller\n        // Asteroid belts shouldn't be first that often\n        \n        if (planetNumber == 0 && totalPlanets != 1) {\n            // Innermost planet of a multi-planet system\n            // No asteroid belts allowed!\n            if (roll < 70) {\n                return PlanetClass.Lunar;\n            } else if (roll < 80) {\n                return PlanetClass.Terrestrial;\n            } else if (roll < 90) {\n                return PlanetClass.Uranian;\n            } else {\n                return PlanetClass.Jovian;\n            }\n        } else if (planetNumber < totalPlanets / 2) {\n            // Inner system\n            if (roll < 20) {\n                return PlanetClass.Lunar;\n            } else if (roll < 40) {\n                return PlanetClass.Terrestrial;\n            } else if (roll < 70) {\n                return PlanetClass.Uranian;\n            } else if (roll < 80) {\n                return PlanetClass.Jovian;\n            } else {\n                return PlanetClass.AsteroidBelt;\n            }\n        } else {\n            // Outer system\n            if (roll < 20) {\n                return PlanetClass.Lunar;\n            } else if (roll < 30) {\n                return PlanetClass.Terrestrial;\n            } else if (roll < 60) {\n                return PlanetClass.Uranian;\n            } else if (roll < 90) {\n                return PlanetClass.Jovian;\n            } else {\n                return PlanetClass.AsteroidBelt;\n            }\n        }\n    }\n    \n    /**\n     * Decide what the mass of the planet is. We can't do even the mass of\n     * Jupiter in the ~88 bits we have in a real (should we have used int256 as\n     * the backing type?) so we work in Earth masses.\n     */\n    function getPlanetMass(bytes32 seed, PlanetClass class) public view onlyControlledAccess returns (int128) {\n        var node = RNG.RandNode(seed).derive(\"mass\");\n        \n        if (class == PlanetClass.Lunar) {\n            return node.getRealBetween(RealMath.fraction(1, 100), RealMath.fraction(9, 100));\n        } else if (class == PlanetClass.Terrestrial) {\n            return node.getRealBetween(RealMath.fraction(10, 100), RealMath.toReal(9));\n        } else if (class == PlanetClass.Uranian) {\n            return node.getRealBetween(RealMath.toReal(9), RealMath.toReal(20));\n        } else if (class == PlanetClass.Jovian) {\n            return node.getRealBetween(RealMath.toReal(50), RealMath.toReal(400));\n        } else if (class == PlanetClass.AsteroidBelt) {\n            return node.getRealBetween(RealMath.fraction(1, 100), RealMath.fraction(20, 100));\n        } else {\n            // Not real!\n            revert();\n        }\n    }\n    \n    // Define the orbit shape\n\n    /**\n     * Given the parent star's habitable zone bounds, the planet seed, the planet class\n     * to be generated, and the \"clearance\" radius around the previous planet\n     * in meters, produces orbit statistics (periapsis, apoapsis, and\n     * clearance) in meters.\n     *\n     * The first planet uses a previous clearance of 0.\n     */\n    function getPlanetOrbitDimensions(int128 realInnerRadius, int128 realOuterRadius, bytes32 seed, PlanetClass class, int128 realPrevClearance)\n        public view onlyControlledAccess returns (int128 realPeriapsis, int128 realApoapsis, int128 realClearance) {\n\n        // We scale all the random generation around the habitable zone distance.\n\n        // Make the planet RNG node to use for all the computations\n        var node = RNG.RandNode(seed);\n        \n        // Compute the statistics with their own functions\n        realPeriapsis = getPlanetPeriapsis(realInnerRadius, realOuterRadius, node, class, realPrevClearance);\n        realApoapsis = getPlanetApoapsis(realInnerRadius, realOuterRadius, node, class, realPeriapsis);\n        realClearance = getPlanetClearance(realInnerRadius, realOuterRadius, node, class, realApoapsis);\n    }\n\n    /**\n     * Decide what the planet's orbit's periapsis is, in meters.\n     * This is the first statistic about the orbit to be generated.\n     *\n     * For the first planet, realPrevClearance is 0. For others, it is the\n     * clearance (i.e. distance from star that the planet has cleared out) of\n     * the previous planet.\n     */\n    function getPlanetPeriapsis(int128 realInnerRadius, int128 realOuterRadius, RNG.RandNode planetNode, PlanetClass class, int128 realPrevClearance)\n        internal view returns (int128) {\n        \n        var node = planetNode.derive(\"periapsis\");\n        \n        // Define minimum and maximum periapsis distance above previous planet's\n        // cleared band. Work in % of the habitable zone inner radius.\n        int88 minimum;\n        int88 maximum;\n        if (class == PlanetClass.Lunar) {\n            minimum = 20;\n            maximum = 60;\n        } else if (class == PlanetClass.Terrestrial) {\n            minimum = 20;\n            maximum = 70;\n        } else if (class == PlanetClass.Uranian) {\n            minimum = 100;\n            maximum = 2000;\n        } else if (class == PlanetClass.Jovian) {\n            minimum = 300;\n            maximum = 500;\n        } else if (class == PlanetClass.AsteroidBelt) {\n            minimum = 20;\n            maximum = 500;\n        } else {\n            // Not real!\n            revert();\n        }\n        \n        int128 realSeparation = node.getRealBetween(RealMath.toReal(minimum), RealMath.toReal(maximum));\n        return realPrevClearance + RealMath.mul(realSeparation, realInnerRadius).div(RealMath.toReal(100)); \n    }\n    \n    /**\n     * Decide what the planet's orbit's apoapsis is, in meters.\n     * This is the second statistic about the orbit to be generated.\n     */\n    function getPlanetApoapsis(int128 realInnerRadius, int128 realOuterRadius, RNG.RandNode planetNode, PlanetClass class, int128 realPeriapsis)\n        internal view returns (int128) {\n        \n        var node = planetNode.derive(\"apoapsis\");\n        \n        // Define minimum and maximum apoapsis distance above planet's periapsis.\n        // Work in % of the habitable zone inner radius.\n        int88 minimum;\n        int88 maximum;\n        if (class == PlanetClass.Lunar) {\n            minimum = 0;\n            maximum = 6;\n        } else if (class == PlanetClass.Terrestrial) {\n            minimum = 0;\n            maximum = 10;\n        } else if (class == PlanetClass.Uranian) {\n            minimum = 20;\n            maximum = 1000;\n        } else if (class == PlanetClass.Jovian) {\n            minimum = 10;\n            maximum = 200;\n        } else if (class == PlanetClass.AsteroidBelt) {\n            minimum = 10;\n            maximum = 100;\n        } else {\n            // Not real!\n            revert();\n        }\n        \n        int128 realWidth = node.getRealBetween(RealMath.toReal(minimum), RealMath.toReal(maximum));\n        return realPeriapsis + RealMath.mul(realWidth, realInnerRadius).div(RealMath.toReal(100)); \n    }\n    \n    /**\n     * Decide how far out the cleared band after the planet's orbit is.\n     */\n    function getPlanetClearance(int128 realInnerRadius, int128 realOuterRadius, RNG.RandNode planetNode, PlanetClass class, int128 realApoapsis)\n        internal view returns (int128) {\n        \n        var node = planetNode.derive(\"cleared\");\n        \n        // Define minimum and maximum clearance.\n        // Work in % of the habitable zone inner radius.\n        int88 minimum;\n        int88 maximum;\n        if (class == PlanetClass.Lunar) {\n            minimum = 20;\n            maximum = 60;\n        } else if (class == PlanetClass.Terrestrial) {\n            minimum = 40;\n            maximum = 70;\n        } else if (class == PlanetClass.Uranian) {\n            minimum = 1000;\n            maximum = 2000;\n        } else if (class == PlanetClass.Jovian) {\n            minimum = 300;\n            maximum = 500;\n        } else if (class == PlanetClass.AsteroidBelt) {\n            minimum = 20;\n            maximum = 500;\n        } else {\n            // Not real!\n            revert();\n        }\n        \n        int128 realSeparation = node.getRealBetween(RealMath.toReal(minimum), RealMath.toReal(maximum));\n        return realApoapsis + RealMath.mul(realSeparation, realInnerRadius).div(RealMath.toReal(100)); \n    }\n    \n    /**\n     * Convert from periapsis and apoapsis to semimajor axis and eccentricity.\n     */\n    function convertOrbitShape(int128 realPeriapsis, int128 realApoapsis) public view onlyControlledAccess returns (int128 realSemimajor, int128 realEccentricity) {\n        // Semimajor axis is average of apoapsis and periapsis\n        realSemimajor = RealMath.div(realApoapsis + realPeriapsis, RealMath.toReal(2));\n        \n        // Eccentricity is ratio of difference and sum\n        realEccentricity = RealMath.div(realApoapsis - realPeriapsis, realApoapsis + realPeriapsis);\n    }\n    \n    // Define the orbital plane\n    \n    /**\n     * Get the longitude of the ascending node (angle from galactic +X to ascending node) for a planet.\n     */ \n    function getPlanetLan(bytes32 seed) public view onlyControlledAccess returns (int128) {\n        var node = RNG.RandNode(seed).derive(\"LAN\");\n        // Angles should be uniform from 0 to 2 PI\n        return node.getRealBetween(RealMath.toReal(0), RealMath.mul(RealMath.toReal(2), REAL_PI));\n    }\n    \n    /**\n     * Get the inclination (angle from galactic XZ plane to orbital plane at the ascending node) for a planet.\n     * Inclination is always positive. If it were negative, the ascending node would really be the descending node.\n     * Result is a real in radians.\n     */ \n    function getPlanetInclination(bytes32 seed, PlanetClass class) public view onlyControlledAccess returns (int128) {\n        var node = RNG.RandNode(seed).derive(\"inclination\");\n    \n        // Define minimum and maximum inclinations in milliradians\n        // 175 milliradians = ~ 10 degrees\n        int88 minimum;\n        int88 maximum;\n        if (class == PlanetClass.Lunar) {\n            minimum = 0;\n            maximum = 175;\n        } else if (class == PlanetClass.Terrestrial) {\n            minimum = 0;\n            maximum = 87;\n        } else if (class == PlanetClass.Uranian) {\n            minimum = 0;\n            maximum = 35;\n        } else if (class == PlanetClass.Jovian) {\n            minimum = 0;\n            maximum = 52;\n        } else if (class == PlanetClass.AsteroidBelt) {\n            minimum = 0;\n            maximum = 262;\n        } else {\n            // Not real!\n            revert();\n        }\n        \n        // Decide if we should be retrograde (PI-ish inclination)\n        int128 real_retrograde_offset = 0;\n        if (node.derive(\"retrograde\").d(1, 100, 0) < 2) {\n            // This planet ought to move retrograde\n            real_retrograde_offset = REAL_PI;\n        }\n\n        return real_retrograde_offset + RealMath.div(node.getRealBetween(RealMath.toReal(minimum), RealMath.toReal(maximum)), RealMath.toReal(1000));    \n    }\n    \n    // Define the orbit's embedding in the plane (and in time)\n    \n    /**\n     * Get the argument of periapsis (angle from ascending node to periapsis position, in the orbital plane) for a planet.\n     */\n    function getPlanetAop(bytes32 seed) public view onlyControlledAccess returns (int128) {\n        var node = RNG.RandNode(seed).derive(\"AOP\");\n        // Angles should be uniform from 0 to 2 PI.\n        // We already made sure planets wouldn't get too close together when laying out the orbits.\n        return node.getRealBetween(RealMath.toReal(0), RealMath.mul(RealMath.toReal(2), REAL_PI));\n    }\n    \n    /**\n     * Get the mean anomaly (which sweeps from 0 at periapsis to 2 pi at the next periapsis) at epoch (time 0) for a planet.\n     */\n    function getPlanetMeanAnomalyAtEpoch(bytes32 seed) public view onlyControlledAccess returns (int128) {\n        var node = RNG.RandNode(seed).derive(\"MAE\");\n        // Angles should be uniform from 0 to 2 PI.\n        return node.getRealBetween(RealMath.toReal(0), RealMath.mul(RealMath.toReal(2), REAL_PI));\n    }  \n}\n \n",
  "sourcePath": "/Users/anovak/Documents/Workspace/macroverse/contracts/MacroverseSystemGenerator.sol",
  "compiler": {
    "name": "solc",
    "version": "0.4.19+commit.c4cbbb05.Emscripten.clang"
  },
  "schemaVersion": "2.0.0",
  "updatedAt": "2018-07-06T04:56:52.710Z"
}