{
  "contractName": "MacroverseExistenceChecker",
  "abi": [
    {
      "inputs": [
        {
          "internalType": "address",
          "name": "starGeneratorAddress",
          "type": "address"
        },
        {
          "internalType": "address",
          "name": "starGeneratorPatchAddress",
          "type": "address"
        },
        {
          "internalType": "address",
          "name": "systemGeneratorAddress",
          "type": "address"
        },
        {
          "internalType": "address",
          "name": "moonGeneratorAddress",
          "type": "address"
        }
      ],
      "stateMutability": "nonpayable",
      "type": "constructor"
    },
    {
      "inputs": [
        {
          "internalType": "int16",
          "name": "sectorX",
          "type": "int16"
        },
        {
          "internalType": "int16",
          "name": "sectorY",
          "type": "int16"
        },
        {
          "internalType": "int16",
          "name": "sectorZ",
          "type": "int16"
        }
      ],
      "name": "sectorExists",
      "outputs": [
        {
          "internalType": "bool",
          "name": "",
          "type": "bool"
        }
      ],
      "stateMutability": "pure",
      "type": "function"
    },
    {
      "inputs": [
        {
          "internalType": "int16",
          "name": "sectorX",
          "type": "int16"
        },
        {
          "internalType": "int16",
          "name": "sectorY",
          "type": "int16"
        },
        {
          "internalType": "int16",
          "name": "sectorZ",
          "type": "int16"
        },
        {
          "internalType": "uint16",
          "name": "system",
          "type": "uint16"
        }
      ],
      "name": "systemExists",
      "outputs": [
        {
          "internalType": "bool",
          "name": "",
          "type": "bool"
        }
      ],
      "stateMutability": "view",
      "type": "function"
    },
    {
      "inputs": [
        {
          "internalType": "int16",
          "name": "sectorX",
          "type": "int16"
        },
        {
          "internalType": "int16",
          "name": "sectorY",
          "type": "int16"
        },
        {
          "internalType": "int16",
          "name": "sectorZ",
          "type": "int16"
        },
        {
          "internalType": "uint16",
          "name": "system",
          "type": "uint16"
        },
        {
          "internalType": "uint16",
          "name": "planet",
          "type": "uint16"
        },
        {
          "internalType": "uint16",
          "name": "moon",
          "type": "uint16"
        }
      ],
      "name": "moonExistsVerbose",
      "outputs": [
        {
          "internalType": "bool",
          "name": "exists",
          "type": "bool"
        },
        {
          "internalType": "bytes32",
          "name": "planetSeed",
          "type": "bytes32"
        },
        {
          "internalType": "enum Macroverse.WorldClass",
          "name": "planetClass",
          "type": "uint8"
        }
      ],
      "stateMutability": "view",
      "type": "function"
    },
    {
      "inputs": [
        {
          "internalType": "int16",
          "name": "sectorX",
          "type": "int16"
        },
        {
          "internalType": "int16",
          "name": "sectorY",
          "type": "int16"
        },
        {
          "internalType": "int16",
          "name": "sectorZ",
          "type": "int16"
        },
        {
          "internalType": "uint16",
          "name": "system",
          "type": "uint16"
        },
        {
          "internalType": "uint16",
          "name": "planet",
          "type": "uint16"
        }
      ],
      "name": "planetExists",
      "outputs": [
        {
          "internalType": "bool",
          "name": "",
          "type": "bool"
        }
      ],
      "stateMutability": "view",
      "type": "function"
    },
    {
      "inputs": [
        {
          "internalType": "int16",
          "name": "sectorX",
          "type": "int16"
        },
        {
          "internalType": "int16",
          "name": "sectorY",
          "type": "int16"
        },
        {
          "internalType": "int16",
          "name": "sectorZ",
          "type": "int16"
        },
        {
          "internalType": "uint16",
          "name": "system",
          "type": "uint16"
        },
        {
          "internalType": "uint16",
          "name": "planet",
          "type": "uint16"
        },
        {
          "internalType": "uint16",
          "name": "moon",
          "type": "uint16"
        }
      ],
      "name": "moonExists",
      "outputs": [
        {
          "internalType": "bool",
          "name": "",
          "type": "bool"
        }
      ],
      "stateMutability": "view",
      "type": "function"
    },
    {
      "inputs": [
        {
          "internalType": "uint256",
          "name": "token",
          "type": "uint256"
        }
      ],
      "name": "exists",
      "outputs": [
        {
          "internalType": "bool",
          "name": "",
          "type": "bool"
        }
      ],
      "stateMutability": "view",
      "type": "function"
    }
  ],
  "bytecode": "0x608060405234801561001057600080fd5b50604051610da8380380610da88339818101604052608081101561003357600080fd5b50805160208201516040830151606090930151600080546001600160a01b039485166001600160a01b0319918216179091556001805493851693821693909317909255600280549484169483169490941790935560038054929093169116179055610d05806100a36000396000f3fe608060405234801561001057600080fd5b50600436106100625760003560e01c8063433b6c45146100675780634d063587146100b75780634f558e79146100eb5780635bb5a2da14610108578063718501f114610156578063dab38782146101da575b600080fd5b6100a36004803603608081101561007d57600080fd5b508035600190810b916020810135820b916040820135900b906060013561ffff1661021e565b604080519115158252519081900360200190f35b6100a3600480360360608110156100cd57600080fd5b508035600190810b916020810135820b91604090910135900b6102dd565b6100a36004803603602081101561010157600080fd5b5035610371565b6100a3600480360360c081101561011e57600080fd5b508035600190810b916020810135820b916040820135900b9061ffff6060820135811691608081013582169160a090910135166106da565b6101a4600480360360c081101561016c57600080fd5b508035600190810b916020810135820b916040820135900b9061ffff6060820135811691608081013582169160a090910135166106fa565b60405180841515151581526020018381526020018260098111156101c457fe5b60ff168152602001935050505060405180910390f35b6100a3600480360360a08110156101f057600080fd5b508035600190810b916020810135820b916040820135900b9061ffff606082013581169160800135166108e2565b600061022b8585856102dd565b610237575060006102d5565b60005460408051630b236b5160e31b8152600188810b810b600483015287810b810b602483015286810b900b604482015290516001600160a01b039092169163591b5a8891606480820192602092909190829003018186803b15801561029c57600080fd5b505afa1580156102b0573d6000803e3d6000fd5b505050506040513d60208110156102c657600080fd5b505161ffff9081169083161090505b949350505050565b6000612710600185900b13156102f55750600061036a565b612710600184900b131561030b5750600061036a565b612710600183900b13156103215750600061036a565b61270f19600185900b12156103385750600061036a565b61270f19600184900b121561034f5750600061036a565b61270f19600183900b12156103665750600061036a565b5060015b9392505050565b60008061037d83610900565b9050600080600061038d86610906565b92509250925060008414156103b2576103a78383836102dd565b9450505050506106d5565b60006103bd87610938565b905060018514156103e0576103d48484848461021e565b955050505050506106d5565b60006103eb8861094b565b905060006103f889610958565b9050600287141561041e5761041086868686866108e2565b9750505050505050506106d5565b6003871415610435576104108686868686866106da565b61043e89610965565b61044457fe5b60008061ffff83811614156105af5760006104628989898989610989565b91945092509050826104815760009a50505050505050505050506106d5565b60025460408051635c60c21b60e11b81526004810185905261ffff8816602482015290516001600160a01b039092169163b8c1843691604480820192602092909190829003018186803b1580156104d757600080fd5b505afa1580156104eb573d6000803e3d6000fd5b505050506040513d602081101561050157600080fd5b5051915060096002546040805163cc841c1d60e01b81526004810186905261ffff808a1660248301528516604482015290516001600160a01b039092169163cc841c1d91606480820192602092909190829003018186803b15801561056557600080fd5b505afa158015610579573d6000803e3d6000fd5b505050506040513d602081101561058f57600080fd5b5051600981111561059c57fe5b14159a50505050505050505050506106d5565b60006105bf8989898989896106fa565b91945092509050826105de5760009a50505050505050505050506106d5565b60025460408051635c60c21b60e11b81526004810185905261ffff8716602482015290516001600160a01b039092169163b8c1843691604480820192602092909190829003018186803b15801561063457600080fd5b505afa158015610648573d6000803e3d6000fd5b505050506040513d602081101561065e57600080fd5b50519150600860035460405163a1ea933360e01b81526001600160a01b039091169063a1ea9333908490869089906004018084600981111561069c57fe5b60ff1681526020018381526020018261ffff1661ffff168152602001935050505060206040518083038186803b15801561056557600080fd5b919050565b6000806106eb8888888888886106fa565b50909998505050505050505050565b6000806000806000806107108c8c8c8c8c610989565b9250925092508261072457600095506108d3565b60025460408051635c60c21b60e11b81526004810185905261ffff8b16602482015290516001600160a01b039092169163b8c1843691604480820192602092909190829003018186803b15801561077a57600080fd5b505afa15801561078e573d6000803e3d6000fd5b505050506040513d60208110156107a457600080fd5b50516002546040805163cc841c1d60e01b81526004810184905261ffff808d1660248301528516604482015290519297506001600160a01b039091169163cc841c1d91606480820192602092909190829003018186803b15801561080757600080fd5b505afa15801561081b573d6000803e3d6000fd5b505050506040513d602081101561083157600080fd5b5051600354604051630ac20ded60e21b8152600481018881529296506000926001600160a01b0390921691632b0837b4918991899160240182600981111561087557fe5b60ff1681526020019250505060206040518083038186803b15801561089957600080fd5b505afa1580156108ad573d6000803e3d6000fd5b505050506040513d60208110156108c357600080fd5b505161ffff908116908916109650505b50505096509650969350505050565b6000806108f28787878787610989565b509098975050505050505050565b601f1690565b6000806000610916846005610cc8565b9250610923846015610cc8565b9150610930846025610cc8565b929491935050565b6000610945826035610cc8565b92915050565b6000610945826045610cc8565b6000610945826055610cc8565b60008061097183610900565b90506004811015801561036a5750601f101592915050565b600080600061099a8888888861021e565b6109a75760009250610cbd565b6000546040805163ee8f568160e01b815260018b810b810b60048301528a810b810b602483015289810b900b604482015261ffff8816606482015290516001600160a01b039092169163ee8f568191608480820192602092909190829003018186803b158015610a1657600080fd5b505afa158015610a2a573d6000803e3d6000fd5b505050506040513d6020811015610a4057600080fd5b5051600080546040805163159d1e8560e11b815260048101859052905193955091926001600160a01b0390911691632b3a3d0a916024808301926020929190829003018186803b158015610a9357600080fd5b505afa158015610aa7573d6000803e3d6000fd5b505050506040513d6020811015610abd57600080fd5b50516000805460405163541a9fc160e01b81526004810187815293945091926001600160a01b039091169163541a9fc1918791869190602401826005811115610b0257fe5b60ff1681526020019250505060206040518083038186803b158015610b2657600080fd5b505afa158015610b3a573d6000803e3d6000fd5b505050506040513d6020811015610b5057600080fd5b505160005460405163718909fd60e01b8152600481018781529293506001600160a01b039091169163718909fd9187918691869190602401836005811115610b9457fe5b60ff168152602001826007811115610ba857fe5b60ff168152602001935050505060206040518083038186803b158015610bcd57600080fd5b505afa158015610be1573d6000803e3d6000fd5b505050506040513d6020811015610bf757600080fd5b505115610cb55760015460405163bfd4fac160e01b8152600481018681526001600160a01b039092169163bfd4fac19187918691869190602401836005811115610c3d57fe5b60ff168152602001826007811115610c5157fe5b60ff168152602001935050505060206040518083038186803b158015610c7657600080fd5b505afa158015610c8a573d6000803e3d6000fd5b505050506040513d6020811015610ca057600080fd5b505161ffff8082169088161095509250610cba565b600094505b50505b955095509592505050565b60ff161c9056fea26469706673582212203a3ea87ca69e2d421328b952b9a988cd7b0029859eb5ede2726a73923f6ab5b864736f6c634300060a0033",
  "immutableReferences": {},
  "source": "pragma solidity ^0.6.10;\n\nimport \"openzeppelin-solidity/contracts/access/Ownable.sol\";\nimport \"./HasNoEther.sol\";\nimport \"./HasNoContracts.sol\";\n\nimport \"./MacroverseNFTUtils.sol\";\nimport \"./MacroverseStarGenerator.sol\";\nimport \"./MacroverseStarGeneratorPatch1.sol\";\nimport \"./MacroverseSystemGenerator.sol\";\nimport \"./MacroverseMoonGenerator.sol\";\nimport \"./Macroverse.sol\";\n\n/**\n * The MacroverseExistenceChecker queries Macroverse generator contracts to\n * determine if a particular thing (e.g. the nth planet of such-and-such a\n * star) exists in the Macroverse world.\n *\n * It does not need to be ControlledAccess because the Macroverse contracts it\n * calls into are. It does not have defenses against receiving stuck Ether and\n * tokens because it is not intended to be involved in end-user token\n * transactions in any capacity.\n *\n * Serves as an example for how Macroverse can be queried from on-chain logic.\n */\ncontract MacroverseExistenceChecker {\n\n    using MacroverseNFTUtils for uint256;\n\n    // These constants are shared with the TokenUtils library\n\n    // Define the types of tokens that can exist\n    uint256 constant TOKEN_TYPE_SECTOR = 0;\n    uint256 constant TOKEN_TYPE_SYSTEM = 1;\n    uint256 constant TOKEN_TYPE_PLANET = 2;\n    uint256 constant TOKEN_TYPE_MOON = 3;\n    // Land tokens are a range of type field values.\n    // Land tokens of the min type use one trixel field\n    uint256 constant TOKEN_TYPE_LAND_MIN = 4;\n    uint256 constant TOKEN_TYPE_LAND_MAX = 31;\n\n    // Sentinel for no moon used (for land on a planet)\n    uint16 constant MOON_NONE = 0xFFFF;\n\n    // These constants are shared with the generator contracts\n\n    // How far out does the sector system extend?\n    int16 constant MAX_SECTOR = 10000;\n\n    //\n    // Contract state\n    //\n\n    // Keep track of all of the generator contract addresses\n    MacroverseStarGenerator private starGenerator;\n    MacroverseStarGeneratorPatch1 private starGeneratorPatch;\n    MacroverseSystemGenerator private systemGenerator;\n    MacroverseMoonGenerator private moonGenerator;\n\n    /**\n     * Deploy a new copy of the Macroverse Existence Checker.\n     *\n     * The given generator contracts will be queried.\n     */\n    constructor(address starGeneratorAddress, address starGeneratorPatchAddress,\n        address systemGeneratorAddress, address moonGeneratorAddress) public {\n\n        // Remember where all the generators are\n        starGenerator = MacroverseStarGenerator(starGeneratorAddress);\n        starGeneratorPatch = MacroverseStarGeneratorPatch1(starGeneratorPatchAddress);\n        systemGenerator = MacroverseSystemGenerator(systemGeneratorAddress);\n        moonGenerator = MacroverseMoonGenerator(moonGeneratorAddress);\n        \n    }\n\n    /**\n     * Return true if a sector with the given coordinates exists in the\n     * Macroverse universe, and false otherwise.\n     */\n    function sectorExists(int16 sectorX, int16 sectorY, int16 sectorZ) public pure returns (bool) {\n        // Enforce absolute bounds.\n        if (sectorX > MAX_SECTOR) return false;\n        if (sectorY > MAX_SECTOR) return false;\n        if (sectorZ > MAX_SECTOR) return false;\n        if (sectorX < -MAX_SECTOR) return false;\n        if (sectorY < -MAX_SECTOR) return false;\n        if (sectorZ < -MAX_SECTOR) return false;\n\n        return true;\n    }\n\n    /**\n     * Determine if the given system (which might be a star, black hole, etc.)\n     * exists in the given sector. If the sector doesn't exist, returns false.\n     */\n    function systemExists(int16 sectorX, int16 sectorY, int16 sectorZ, uint16 system) public view returns (bool) {\n        if (!sectorExists(sectorX, sectorY, sectorZ)) {\n            // The system can't exist if the sector doesn't.\n            return false;\n        }\n\n        // If the sector does exist, the system exists if it is in bounds\n        return (system < starGenerator.getSectorObjectCount(sectorX, sectorY, sectorZ));\n    }\n\n\n    /**\n     * Determine if the given planet exists, and if so returns some information\n     * generated about it for re-use.\n     */\n    function planetExistsVerbose(int16 sectorX, int16 sectorY, int16 sectorZ, uint16 system, uint16 planet) internal view returns (bool exists,\n        bytes32 systemSeed, uint16 totalPlanets) {\n\n        if (!systemExists(sectorX, sectorY, sectorZ, system)) {\n            // The planet can't exist if the parent system doesn't.\n            exists = false;\n        } else {\n            // Get the system seed for the parent star/black hole/whatever\n            // TODO: unify with above to save on derives?\n            systemSeed = starGenerator.getSectorObjectSeed(sectorX, sectorY, sectorZ, system);\n\n            // Get class and spectral type\n            MacroverseStarGenerator.ObjectClass systemClass = starGenerator.getObjectClass(systemSeed);\n            MacroverseStarGenerator.SpectralType systemType = starGenerator.getObjectSpectralType(systemSeed, systemClass);\n\n            if (starGenerator.getObjectHasPlanets(systemSeed, systemClass, systemType)) {\n                // There are some planets. Are there enough?\n                totalPlanets = starGeneratorPatch.getObjectPlanetCount(systemSeed, systemClass, systemType);\n                exists = (planet < totalPlanets);\n            } else {\n                // This system doesn't actually have planets\n                exists = false;\n            }\n        }\n    }\n\n    /**\n     * Determine if the given moon exists, and if so returns some information\n     * generated about it for re-use.\n     */\n    function moonExistsVerbose(int16 sectorX, int16 sectorY, int16 sectorZ, uint16 system, uint16 planet, uint16 moon) public view returns (bool exists,\n        bytes32 planetSeed, Macroverse.WorldClass planetClass) {\n        \n        (bool havePlanet, bytes32 systemSeed, uint16 totalPlanets) = planetExistsVerbose(sectorX, sectorY, sectorZ, system, planet);\n\n        if (!havePlanet) {\n            // Moon can't exist without its planet\n            exists = false;\n        } else {\n\n            // Otherwise, work out the seed of the planet.\n            planetSeed = systemGenerator.getWorldSeed(systemSeed, planet);\n            \n            // Use it to get the class of the planet, which is important for knowing if there is a moon\n            planetClass = systemGenerator.getPlanetClass(planetSeed, planet, totalPlanets);\n\n            // Count its moons\n            uint16 moonCount = moonGenerator.getPlanetMoonCount(planetSeed, planetClass);\n\n            // This moon exists if it is less than the count\n            exists = (moon < moonCount);\n        }\n    }\n\n    /**\n     * Determine if the given planet exists.\n     */\n    function planetExists(int16 sectorX, int16 sectorY, int16 sectorZ, uint16 system, uint16 planet) public view returns (bool) {\n        // Get only one return value. Ignore the others with these extra commas\n        (bool exists, , ) = planetExistsVerbose(sectorX, sectorY, sectorZ, system, planet);\n\n        // Caller only cares about existence\n        return exists;\n    }\n\n    /**\n     * Determine if the given moon exists.\n     */\n    function moonExists(int16 sectorX, int16 sectorY, int16 sectorZ, uint16 system, uint16 planet, uint16 moon) public view returns (bool) {\n        // Get only the existence flag\n        (bool exists, , ) = moonExistsVerbose(sectorX, sectorY, sectorZ, system, planet, moon);\n    \n        // Return it\n        return exists;\n    }\n\n    /**\n     * Determine if the thing referred to by the given packed NFT token number\n     * exists.\n     *\n     * Token is assumed to be canonical/valid. Use MacroverseNFTUtils\n     * tokenIsCanonical() to validate it first.\n     */\n    function exists(uint256 token) public view returns (bool) {\n        // Get the type\n        uint256 tokenType = token.getTokenType();\n\n        // Unpack the sector. There's always a sector.\n        (int16 sectorX, int16 sectorY, int16 sectorZ) = token.getTokenSector();\n\n        if (tokenType == TOKEN_TYPE_SECTOR) {\n            // Check if the requested sector exists\n            return sectorExists(sectorX, sectorY, sectorZ);\n        }\n\n        // There must be a system number\n        uint16 system = token.getTokenSystem();\n\n        if (tokenType == TOKEN_TYPE_SYSTEM) {\n            // Check if the requested system exists\n            return systemExists(sectorX, sectorY, sectorZ, system);\n        }\n\n        // There must be a planet number\n        uint16 planet = token.getTokenPlanet();\n\n        // And there may be a moon\n        uint16 moon = token.getTokenMoon();\n\n        if (tokenType == TOKEN_TYPE_PLANET) {\n            // We exist if the planet exists.\n            // TODO: maybe check for ring/asteroid field types and don't let their land exist at all?\n            return planetExists(sectorX, sectorY, sectorZ, system, planet);\n        }\n\n        if (tokenType == TOKEN_TYPE_MOON) {\n             // We exist if the moon exists\n            return moonExists(sectorX, sectorY, sectorZ, system, planet, moon);\n        }\n\n        // Otherwise it must be land.\n        assert(token.tokenIsLand());\n\n        // We exist if the planet or moon exists and isn't a ring or asteroid belt\n        // We need the parent existence flag\n        bool haveParent;\n        // We will need a seed scratch.\n        bytes32 seed;\n\n        if (moon == MOON_NONE) {\n            // Make sure the planet exists and isn't a ring\n            uint16 totalPlanets;\n            (haveParent, seed, totalPlanets) = planetExistsVerbose(sectorX, sectorY, sectorZ, system, planet);\n\n            if (!haveParent) {\n                return false;\n            }\n\n            // Get the planet's seed\n            seed = systemGenerator.getWorldSeed(seed, planet);\n\n            // Land exists if the planet isn't an AsteroidBelt\n            return systemGenerator.getPlanetClass(seed, planet, totalPlanets) != Macroverse.WorldClass.AsteroidBelt;\n\n        } else {\n            // Make sure the moon exists and isn't a ring\n            Macroverse.WorldClass planetClass;\n            (haveParent, seed, planetClass) = moonExistsVerbose(sectorX, sectorY, sectorZ, system, planet, moon);\n\n            if (!haveParent) {\n                return false;\n            }\n\n            // Get the moon's seed\n            seed = systemGenerator.getWorldSeed(seed, moon);\n\n            // Land exists if the moon isn't a Ring\n            return moonGenerator.getMoonClass(planetClass, seed, moon) != Macroverse.WorldClass.Ring;\n        }\n    }\n\n}\n\n// SPDX-License-Identifier: UNLICENSED\n",
  "sourcePath": "/home/anovak/workspace/macroverse/contracts/MacroverseExistenceChecker.sol",
  "compiler": {
    "name": "solc",
    "version": "0.6.10+commit.00c0fcaf.Emscripten.clang"
  },
  "schemaVersion": "3.3.1",
  "updatedAt": "2020-12-11T02:46:40.796Z",
  "devdoc": {
    "methods": {}
  },
  "userdoc": {
    "methods": {
      "constructor": "Deploy a new copy of the Macroverse Existence Checker. The given generator contracts will be queried.",
      "exists(uint256)": {
        "notice": "Determine if the thing referred to by the given packed NFT token number exists. Token is assumed to be canonical/valid. Use MacroverseNFTUtils tokenIsCanonical() to validate it first."
      },
      "moonExists(int16,int16,int16,uint16,uint16,uint16)": {
        "notice": "Determine if the given moon exists."
      },
      "moonExistsVerbose(int16,int16,int16,uint16,uint16,uint16)": {
        "notice": "Determine if the given moon exists, and if so returns some information generated about it for re-use."
      },
      "planetExists(int16,int16,int16,uint16,uint16)": {
        "notice": "Determine if the given planet exists."
      },
      "sectorExists(int16,int16,int16)": {
        "notice": "Return true if a sector with the given coordinates exists in the Macroverse universe, and false otherwise."
      },
      "systemExists(int16,int16,int16,uint16)": {
        "notice": "Determine if the given system (which might be a star, black hole, etc.) exists in the given sector. If the sector doesn't exist, returns false."
      }
    },
    "notice": "The MacroverseExistenceChecker queries Macroverse generator contracts to determine if a particular thing (e.g. the nth planet of such-and-such a star) exists in the Macroverse world. It does not need to be ControlledAccess because the Macroverse contracts it calls into are. It does not have defenses against receiving stuck Ether and tokens because it is not intended to be involved in end-user token transactions in any capacity. Serves as an example for how Macroverse can be queried from on-chain logic."
  }
}