{
  "contractName": "MacroverseSystemGenerator",
  "abi": [
    {
      "constant": true,
      "inputs": [],
      "name": "owner",
      "outputs": [
        {
          "name": "",
          "type": "address"
        }
      ],
      "payable": false,
      "stateMutability": "view",
      "type": "function"
    },
    {
      "constant": false,
      "inputs": [
        {
          "name": "newAccessControl",
          "type": "address"
        }
      ],
      "name": "changeAccessControl",
      "outputs": [],
      "payable": false,
      "stateMutability": "nonpayable",
      "type": "function"
    },
    {
      "constant": false,
      "inputs": [
        {
          "name": "newOwner",
          "type": "address"
        }
      ],
      "name": "transferOwnership",
      "outputs": [],
      "payable": false,
      "stateMutability": "nonpayable",
      "type": "function"
    },
    {
      "inputs": [
        {
          "name": "accessControlAddress",
          "type": "address"
        }
      ],
      "payable": false,
      "stateMutability": "nonpayable",
      "type": "constructor"
    },
    {
      "anonymous": false,
      "inputs": [
        {
          "indexed": true,
          "name": "previousOwner",
          "type": "address"
        },
        {
          "indexed": true,
          "name": "newOwner",
          "type": "address"
        }
      ],
      "name": "OwnershipTransferred",
      "type": "event"
    },
    {
      "constant": true,
      "inputs": [
        {
          "name": "starSeed",
          "type": "bytes32"
        },
        {
          "name": "objectClass",
          "type": "uint8"
        },
        {
          "name": "spectralType",
          "type": "uint8"
        }
      ],
      "name": "getObjectPlanetCount",
      "outputs": [
        {
          "name": "",
          "type": "int16"
        }
      ],
      "payable": false,
      "stateMutability": "view",
      "type": "function"
    },
    {
      "constant": true,
      "inputs": [
        {
          "name": "starSeed",
          "type": "bytes32"
        },
        {
          "name": "planetNumber",
          "type": "int16"
        }
      ],
      "name": "getPlanetSeed",
      "outputs": [
        {
          "name": "",
          "type": "bytes32"
        }
      ],
      "payable": false,
      "stateMutability": "view",
      "type": "function"
    },
    {
      "constant": true,
      "inputs": [
        {
          "name": "seed",
          "type": "bytes32"
        },
        {
          "name": "planetNumber",
          "type": "int16"
        },
        {
          "name": "totalPlanets",
          "type": "int16"
        }
      ],
      "name": "getPlanetClass",
      "outputs": [
        {
          "name": "",
          "type": "uint8"
        }
      ],
      "payable": false,
      "stateMutability": "view",
      "type": "function"
    },
    {
      "constant": true,
      "inputs": [
        {
          "name": "seed",
          "type": "bytes32"
        },
        {
          "name": "class",
          "type": "uint8"
        }
      ],
      "name": "getPlanetMass",
      "outputs": [
        {
          "name": "",
          "type": "int128"
        }
      ],
      "payable": false,
      "stateMutability": "view",
      "type": "function"
    },
    {
      "constant": true,
      "inputs": [
        {
          "name": "objectClass",
          "type": "uint8"
        },
        {
          "name": "spectralType",
          "type": "uint8"
        },
        {
          "name": "seed",
          "type": "bytes32"
        },
        {
          "name": "class",
          "type": "uint8"
        },
        {
          "name": "realPrevClearance",
          "type": "int128"
        }
      ],
      "name": "getPlanetOrbitDimensions",
      "outputs": [
        {
          "name": "realPeriapsis",
          "type": "int128"
        },
        {
          "name": "realApoapsis",
          "type": "int128"
        },
        {
          "name": "realClearance",
          "type": "int128"
        }
      ],
      "payable": false,
      "stateMutability": "view",
      "type": "function"
    },
    {
      "constant": true,
      "inputs": [
        {
          "name": "realPeriapsis",
          "type": "int128"
        },
        {
          "name": "realApoapsis",
          "type": "int128"
        }
      ],
      "name": "convertOrbitShape",
      "outputs": [
        {
          "name": "realSemimajor",
          "type": "int128"
        },
        {
          "name": "realEccentricity",
          "type": "int128"
        }
      ],
      "payable": false,
      "stateMutability": "view",
      "type": "function"
    },
    {
      "constant": true,
      "inputs": [
        {
          "name": "seed",
          "type": "bytes32"
        }
      ],
      "name": "getPlanetLan",
      "outputs": [
        {
          "name": "",
          "type": "int128"
        }
      ],
      "payable": false,
      "stateMutability": "view",
      "type": "function"
    },
    {
      "constant": true,
      "inputs": [
        {
          "name": "seed",
          "type": "bytes32"
        },
        {
          "name": "class",
          "type": "uint8"
        }
      ],
      "name": "getPlanetInclination",
      "outputs": [
        {
          "name": "",
          "type": "int128"
        }
      ],
      "payable": false,
      "stateMutability": "view",
      "type": "function"
    },
    {
      "constant": true,
      "inputs": [
        {
          "name": "seed",
          "type": "bytes32"
        }
      ],
      "name": "getPlanetAop",
      "outputs": [
        {
          "name": "",
          "type": "int128"
        }
      ],
      "payable": false,
      "stateMutability": "view",
      "type": "function"
    },
    {
      "constant": true,
      "inputs": [
        {
          "name": "seed",
          "type": "bytes32"
        }
      ],
      "name": "getPlanetMeanAnomalyAtEpoch",
      "outputs": [
        {
          "name": "",
          "type": "int128"
        }
      ],
      "payable": false,
      "stateMutability": "view",
      "type": "function"
    }
  ],
  "bytecode": "0x6060604052341561000f57600080fd5b604051602080613ea98339810160405280805190602001909190505080336000806101000a81548173ffffffffffffffffffffffffffffffffffffffff021916908373ffffffffffffffffffffffffffffffffffffffff16021790555080600160006101000a81548173ffffffffffffffffffffffffffffffffffffffff021916908373ffffffffffffffffffffffffffffffffffffffff1602179055505050613deb806100be6000396000f3006060604052600436106100c5576000357c0100000000000000000000000000000000000000000000000000000000900463ffffffff16806310dfa4b3146100ca578063158712e61461010b5780631f6fcf8e1461014c5780635433f7641461019b57806363e68c81146101e85780637037abab146102295780638da5cb5b146102b45780639387730c146103095780639a8914bc146103425780639e19642f1461039b578063bfd4fac1146103fc578063d2b4620b14610455578063f2fde38b146104a2575b600080fd5b34156100d557600080fd5b6100ef6004808035600019169060200190919050506104db565b6040518082600f0b600f0b815260200191505060405180910390f35b341561011657600080fd5b610130600480803560001916906020019091905050610846565b6040518082600f0b600f0b815260200191505060405180910390f35b341561015757600080fd5b61017d60048080356000191690602001909190803560010b906020019091905050610bb1565b60405180826000191660001916815260200191505060405180910390f35b34156101a657600080fd5b6101cc60048080356000191690602001909190803560ff16906020019091905050610d07565b6040518082600f0b600f0b815260200191505060405180910390f35b34156101f357600080fd5b61020d6004808035600019169060200190919050506115a6565b6040518082600f0b600f0b815260200191505060405180910390f35b341561023457600080fd5b61027e600480803560ff1690602001909190803560ff169060200190919080356000191690602001909190803560ff16906020019091908035600f0b906020019091905050611911565b6040518084600f0b600f0b815260200183600f0b600f0b815260200182600f0b600f0b8152602001935050505060405180910390f35b34156102bf57600080fd5b6102c761267f565b604051808273ffffffffffffffffffffffffffffffffffffffff1673ffffffffffffffffffffffffffffffffffffffff16815260200191505060405180910390f35b341561031457600080fd5b610340600480803573ffffffffffffffffffffffffffffffffffffffff169060200190919050506126a4565b005b341561034d57600080fd5b6103726004808035600f0b906020019091908035600f0b906020019091905050612743565b6040518083600f0b600f0b815260200182600f0b600f0b81526020019250505060405180910390f35b34156103a657600080fd5b6103d860048080356000191690602001909190803560010b90602001909190803560010b906020019091905050612a4b565b604051808260048111156103e857fe5b60ff16815260200191505060405180910390f35b341561040757600080fd5b61043960048080356000191690602001909190803560ff1690602001909190803560ff16906020019091905050612d2c565b604051808260010b60010b815260200191505060405180910390f35b341561046057600080fd5b61048660048080356000191690602001909190803560ff1690602001909190505061305a565b6040518082600f0b600f0b815260200191505060405180910390f35b34156104ad57600080fd5b6104d9600480803573ffffffffffffffffffffffffffffffffffffffff169060200190919050506135c0565b005b60006104e5613da8565b600160009054906101000a900473ffffffffffffffffffffffffffffffffffffffff1673ffffffffffffffffffffffffffffffffffffffff16634af5fb0f33326000604051602001526040518363ffffffff167c0100000000000000000000000000000000000000000000000000000000028152600401808373ffffffffffffffffffffffffffffffffffffffff1673ffffffffffffffffffffffffffffffffffffffff1681526020018273ffffffffffffffffffffffffffffffffffffffff1673ffffffffffffffffffffffffffffffffffffffff16815260200192505050602060405180830381600087803b15156105de57600080fd5b6102c65a03f115156105ef57600080fd5b50505060405180519050151561060457600080fd5b61065f6040805190810160405280600381526020017f414f500000000000000000000000000000000000000000000000000000000000815250602060405190810160405280866000191681525061371590919063ffffffff16565b905061083e73__RealMath______________________________63f5a5d503600080604051602001526040518263ffffffff167c01000000000000000000000000000000000000000000000000000000000281526004018082600a0b815260200191505060206040518083038186803b15156106da57600080fd5b6102c65a03f415156106eb57600080fd5b5050506040518051905073__RealMath______________________________63b697214673__RealMath______________________________63f5a5d50360026000604051602001526040518263ffffffff167c01000000000000000000000000000000000000000000000000000000000281526004018082600a0b815260200191505060206040518083038186803b151561078657600080fd5b6102c65a03f4151561079757600080fd5b505050604051805190506503243f6a88866000604051602001526040518363ffffffff167c01000000000000000000000000000000000000000000000000000000000281526004018083600f0b600f0b815260200182600f0b600f0b81526020019250505060206040518083038186803b151561081357600080fd5b6102c65a03f4151561082457600080fd5b50505060405180519050836137d89092919063ffffffff16565b915050919050565b6000610850613da8565b600160009054906101000a900473ffffffffffffffffffffffffffffffffffffffff1673ffffffffffffffffffffffffffffffffffffffff16634af5fb0f33326000604051602001526040518363ffffffff167c0100000000000000000000000000000000000000000000000000000000028152600401808373ffffffffffffffffffffffffffffffffffffffff1673ffffffffffffffffffffffffffffffffffffffff1681526020018273ffffffffffffffffffffffffffffffffffffffff1673ffffffffffffffffffffffffffffffffffffffff16815260200192505050602060405180830381600087803b151561094957600080fd5b6102c65a03f1151561095a57600080fd5b50505060405180519050151561096f57600080fd5b6109ca6040805190810160405280600381526020017f4c414e0000000000000000000000000000000000000000000000000000000000815250602060405190810160405280866000191681525061371590919063ffffffff16565b9050610ba973__RealMath______________________________63f5a5d503600080604051602001526040518263ffffffff167c01000000000000000000000000000000000000000000000000000000000281526004018082600a0b815260200191505060206040518083038186803b1515610a4557600080fd5b6102c65a03f41515610a5657600080fd5b5050506040518051905073__RealMath______________________________63b697214673__RealMath______________________________63f5a5d50360026000604051602001526040518263ffffffff167c01000000000000000000000000000000000000000000000000000000000281526004018082600a0b815260200191505060206040518083038186803b1515610af157600080fd5b6102c65a03f41515610b0257600080fd5b505050604051805190506503243f6a88866000604051602001526040518363ffffffff167c01000000000000000000000000000000000000000000000000000000000281526004018083600f0b600f0b815260200182600f0b600f0b81526020019250505060206040518083038186803b1515610b7e57600080fd5b6102c65a03f41515610b8f57600080fd5b50505060405180519050836137d89092919063ffffffff16565b915050919050565b6000600160009054906101000a900473ffffffffffffffffffffffffffffffffffffffff1673ffffffffffffffffffffffffffffffffffffffff16634af5fb0f33326000604051602001526040518363ffffffff167c0100000000000000000000000000000000000000000000000000000000028152600401808373ffffffffffffffffffffffffffffffffffffffff1673ffffffffffffffffffffffffffffffffffffffff1681526020018273ffffffffffffffffffffffffffffffffffffffff1673ffffffffffffffffffffffffffffffffffffffff16815260200192505050602060405180830381600087803b1515610cac57600080fd5b6102c65a03f11515610cbd57600080fd5b505050604051805190501515610cd257600080fd5b610cfb8260010b602060405190810160405280866000191681525061389690919063ffffffff16565b60000151905092915050565b6000610d11613da8565b600160009054906101000a900473ffffffffffffffffffffffffffffffffffffffff1673ffffffffffffffffffffffffffffffffffffffff16634af5fb0f33326000604051602001526040518363ffffffff167c0100000000000000000000000000000000000000000000000000000000028152600401808373ffffffffffffffffffffffffffffffffffffffff1673ffffffffffffffffffffffffffffffffffffffff1681526020018273ffffffffffffffffffffffffffffffffffffffff1673ffffffffffffffffffffffffffffffffffffffff16815260200192505050602060405180830381600087803b1515610e0a57600080fd5b6102c65a03f11515610e1b57600080fd5b505050604051805190501515610e3057600080fd5b610e8b6040805190810160405280600481526020017f6d61737300000000000000000000000000000000000000000000000000000000815250602060405190810160405280876000191681525061371590919063ffffffff16565b905060006004811115610e9a57fe5b836004811115610ea657fe5b141561100257610ffb73__RealMath______________________________631dade0d4600160646000604051602001526040518363ffffffff167c01000000000000000000000000000000000000000000000000000000000281526004018083600a0b815260200182600a0b81526020019250505060206040518083038186803b1515610f3257600080fd5b6102c65a03f41515610f4357600080fd5b5050506040518051905073__RealMath______________________________631dade0d4600960646000604051602001526040518363ffffffff167c01000000000000000000000000000000000000000000000000000000000281526004018083600a0b815260200182600a0b81526020019250505060206040518083038186803b1515610fd057600080fd5b6102c65a03f41515610fe157600080fd5b50505060405180519050836137d89092919063ffffffff16565b915061159f565b6001600481111561100f57fe5b83600481111561101b57fe5b141561116b5761116473__RealMath______________________________631dade0d4600a60646000604051602001526040518363ffffffff167c01000000000000000000000000000000000000000000000000000000000281526004018083600a0b815260200182600a0b81526020019250505060206040518083038186803b15156110a757600080fd5b6102c65a03f415156110b857600080fd5b5050506040518051905073__RealMath______________________________63f5a5d50360096000604051602001526040518263ffffffff167c01000000000000000000000000000000000000000000000000000000000281526004018082600a0b815260200191505060206040518083038186803b151561113957600080fd5b6102c65a03f4151561114a57600080fd5b50505060405180519050836137d89092919063ffffffff16565b915061159f565b6002600481111561117857fe5b83600481111561118457fe5b14156112c8576112c173__RealMath______________________________63f5a5d50360096000604051602001526040518263ffffffff167c01000000000000000000000000000000000000000000000000000000000281526004018082600a0b815260200191505060206040518083038186803b151561120457600080fd5b6102c65a03f4151561121557600080fd5b5050506040518051905073__RealMath______________________________63f5a5d50360146000604051602001526040518263ffffffff167c01000000000000000000000000000000000000000000000000000000000281526004018082600a0b815260200191505060206040518083038186803b151561129657600080fd5b6102c65a03f415156112a757600080fd5b50505060405180519050836137d89092919063ffffffff16565b915061159f565b600360048111156112d557fe5b8360048111156112e157fe5b14156114265761141f73__RealMath______________________________63f5a5d50360326000604051602001526040518263ffffffff167c01000000000000000000000000000000000000000000000000000000000281526004018082600a0b815260200191505060206040518083038186803b151561136157600080fd5b6102c65a03f4151561137257600080fd5b5050506040518051905073__RealMath______________________________63f5a5d5036101906000604051602001526040518263ffffffff167c01000000000000000000000000000000000000000000000000000000000281526004018082600a0b815260200191505060206040518083038186803b15156113f457600080fd5b6102c65a03f4151561140557600080fd5b50505060405180519050836137d89092919063ffffffff16565b915061159f565b60048081111561143257fe5b83600481111561143e57fe5b141561159a5761159373__RealMath______________________________631dade0d4600160646000604051602001526040518363ffffffff167c01000000000000000000000000000000000000000000000000000000000281526004018083600a0b815260200182600a0b81526020019250505060206040518083038186803b15156114ca57600080fd5b6102c65a03f415156114db57600080fd5b5050506040518051905073__RealMath______________________________631dade0d4601460646000604051602001526040518363ffffffff167c01000000000000000000000000000000000000000000000000000000000281526004018083600a0b815260200182600a0b81526020019250505060206040518083038186803b151561156857600080fd5b6102c65a03f4151561157957600080fd5b50505060405180519050836137d89092919063ffffffff16565b915061159f565b600080fd5b5092915050565b60006115b0613da8565b600160009054906101000a900473ffffffffffffffffffffffffffffffffffffffff1673ffffffffffffffffffffffffffffffffffffffff16634af5fb0f33326000604051602001526040518363ffffffff167c0100000000000000000000000000000000000000000000000000000000028152600401808373ffffffffffffffffffffffffffffffffffffffff1673ffffffffffffffffffffffffffffffffffffffff1681526020018273ffffffffffffffffffffffffffffffffffffffff1673ffffffffffffffffffffffffffffffffffffffff16815260200192505050602060405180830381600087803b15156116a957600080fd5b6102c65a03f115156116ba57600080fd5b5050506040518051905015156116cf57600080fd5b61172a6040805190810160405280600381526020017f4d41450000000000000000000000000000000000000000000000000000000000815250602060405190810160405280866000191681525061371590919063ffffffff16565b905061190973__RealMath______________________________63f5a5d503600080604051602001526040518263ffffffff167c01000000000000000000000000000000000000000000000000000000000281526004018082600a0b815260200191505060206040518083038186803b15156117a557600080fd5b6102c65a03f415156117b657600080fd5b5050506040518051905073__RealMath______________________________63b697214673__RealMath______________________________63f5a5d50360026000604051602001526040518263ffffffff167c01000000000000000000000000000000000000000000000000000000000281526004018082600a0b815260200191505060206040518083038186803b151561185157600080fd5b6102c65a03f4151561186257600080fd5b505050604051805190506503243f6a88866000604051602001526040518363ffffffff167c01000000000000000000000000000000000000000000000000000000000281526004018083600f0b600f0b815260200182600f0b600f0b81526020019250505060206040518083038186803b15156118de57600080fd5b6102c65a03f415156118ef57600080fd5b50505060405180519050836137d89092919063ffffffff16565b915050919050565b6000806000806000611921613da8565b611929613da8565b6000806000600160009054906101000a900473ffffffffffffffffffffffffffffffffffffffff1673ffffffffffffffffffffffffffffffffffffffff16634af5fb0f33326000604051602001526040518363ffffffff167c0100000000000000000000000000000000000000000000000000000000028152600401808373ffffffffffffffffffffffffffffffffffffffff1673ffffffffffffffffffffffffffffffffffffffff1681526020018273ffffffffffffffffffffffffffffffffffffffff1673ffffffffffffffffffffffffffffffffffffffff16815260200192505050602060405180830381600087803b1515611a2757600080fd5b6102c65a03f11515611a3857600080fd5b505050604051805190501515611a4d57600080fd5b600580811115611a5957fe5b8f6005811115611a6557fe5b1415611a7657621e84809650611c7f565b60046005811115611a8357fe5b8f6005811115611a8f57fe5b1415611aa0576210c8e09650611c7e565b60036005811115611aad57fe5b8f6005811115611ab957fe5b1415611aca57620c35009650611c7d565b60026005811115611ad757fe5b8f6005811115611ae357fe5b1415611c1f5760006007811115611af657fe5b8e6007811115611b0257fe5b1415611b1357629896809650611c1a565b60016007811115611b2057fe5b8e6007811115611b2c57fe5b1415611b3d57624c4b409650611c19565b60026007811115611b4a57fe5b8e6007811115611b5657fe5b1415611b67576216e3609650611c18565b60036007811115611b7457fe5b8e6007811115611b8057fe5b1415611b915762124f809650611c17565b60046007811115611b9e57fe5b8e6007811115611baa57fe5b1415611bbb57620f42409650611c16565b60056007811115611bc857fe5b8e6007811115611bd457fe5b1415611be557620516159650611c15565b60066007811115611bf257fe5b8e6007811115611bfe57fe5b1415611c0f57620186a09650611c14565b600080fd5b5b5b5b5b5b5b611c7c565b60016005811115611c2c57fe5b8f6005811115611c3857fe5b1415611c4a576301312d009650611c7b565b60006005811115611c5757fe5b8f6005811115611c6357fe5b1415611c75576302faf0809650611c7a565b600080fd5b5b5b5b5b5b73__RealMath______________________________63f5a5d503886103e8026000604051602001526040518263ffffffff167c01000000000000000000000000000000000000000000000000000000000281526004018082600a0b600a0b815260200191505060206040518083038186803b1515611cfc57600080fd5b6102c65a03f41515611d0d57600080fd5b5050506040518051905095506020604051908101604052808e600019168152509450611d776040805190810160405280600981526020017f70657269617073697300000000000000000000000000000000000000000000008152508661371590919063ffffffff16565b935060006004811115611d8657fe5b8c6004811115611d9257fe5b1415611da55760149250603c9150611e62565b60016004811115611db257fe5b8c6004811115611dbe57fe5b1415611dd1576028925060469150611e61565b60026004811115611dde57fe5b8c6004811115611dea57fe5b1415611dff576103e892506107d09150611e60565b60036004811115611e0c57fe5b8c6004811115611e1857fe5b1415611e2d5761012c92506101f49150611e5f565b600480811115611e3957fe5b8c6004811115611e4557fe5b1415611e5957601492506101f49150611e5e565b600080fd5b5b5b5b5b611f9d73__RealMath______________________________63f5a5d503856000604051602001526040518263ffffffff167c01000000000000000000000000000000000000000000000000000000000281526004018082600a0b600a0b815260200191505060206040518083038186803b1515611ede57600080fd5b6102c65a03f41515611eef57600080fd5b5050506040518051905073__RealMath______________________________63f5a5d503856000604051602001526040518263ffffffff167c01000000000000000000000000000000000000000000000000000000000281526004018082600a0b600a0b815260200191505060206040518083038186803b1515611f7257600080fd5b6102c65a03f41515611f8357600080fd5b50505060405180519050866137d89092919063ffffffff16565b905073__RealMath______________________________63b697214682886000604051602001526040518363ffffffff167c01000000000000000000000000000000000000000000000000000000000281526004018083600f0b600f0b815260200182600f0b600f0b81526020019250505060206040518083038186803b151561202657600080fd5b6102c65a03f4151561203757600080fd5b505050604051805190508b01995061208d6040805190810160405280600881526020017f61706f61707369730000000000000000000000000000000000000000000000008152508661371590919063ffffffff16565b93506000600481111561209c57fe5b8c60048111156120a857fe5b14156120bb576000925060069150612174565b600160048111156120c857fe5b8c60048111156120d457fe5b14156120e75760009250600a9150612173565b600260048111156120f457fe5b8c600481111561210057fe5b141561211457601492506103e89150612172565b6003600481111561212157fe5b8c600481111561212d57fe5b141561214057600a925060c89150612171565b60048081111561214c57fe5b8c600481111561215857fe5b141561216b57600a925060649150612170565b600080fd5b5b5b5b5b6122af73__RealMath______________________________63f5a5d503856000604051602001526040518263ffffffff167c01000000000000000000000000000000000000000000000000000000000281526004018082600a0b600a0b815260200191505060206040518083038186803b15156121f057600080fd5b6102c65a03f4151561220157600080fd5b5050506040518051905073__RealMath______________________________63f5a5d503856000604051602001526040518263ffffffff167c01000000000000000000000000000000000000000000000000000000000281526004018082600a0b600a0b815260200191505060206040518083038186803b151561228457600080fd5b6102c65a03f4151561229557600080fd5b50505060405180519050866137d89092919063ffffffff16565b905073__RealMath______________________________63b697214682886000604051602001526040518363ffffffff167c01000000000000000000000000000000000000000000000000000000000281526004018083600f0b600f0b815260200182600f0b600f0b81526020019250505060206040518083038186803b151561233857600080fd5b6102c65a03f4151561234957600080fd5b505050604051805190508a01985061239f6040805190810160405280600781526020017f636c6561726564000000000000000000000000000000000000000000000000008152508661371590919063ffffffff16565b9350600060048111156123ae57fe5b8c60048111156123ba57fe5b14156123cd5760149250603c915061248a565b600160048111156123da57fe5b8c60048111156123e657fe5b14156123f9576028925060469150612489565b6002600481111561240657fe5b8c600481111561241257fe5b1415612427576103e892506107d09150612488565b6003600481111561243457fe5b8c600481111561244057fe5b14156124555761012c92506101f49150612487565b60048081111561246157fe5b8c600481111561246d57fe5b141561248157601492506101f49150612486565b600080fd5b5b5b5b5b6125c573__RealMath______________________________63f5a5d503856000604051602001526040518263ffffffff167c01000000000000000000000000000000000000000000000000000000000281526004018082600a0b600a0b815260200191505060206040518083038186803b151561250657600080fd5b6102c65a03f4151561251757600080fd5b5050506040518051905073__RealMath______________________________63f5a5d503856000604051602001526040518263ffffffff167c01000000000000000000000000000000000000000000000000000000000281526004018082600a0b600a0b815260200191505060206040518083038186803b151561259a57600080fd5b6102c65a03f415156125ab57600080fd5b50505060405180519050866137d89092919063ffffffff16565b905073__RealMath______________________________63b697214682886000604051602001526040518363ffffffff167c01000000000000000000000000000000000000000000000000000000000281526004018083600f0b600f0b815260200182600f0b600f0b81526020019250505060206040518083038186803b151561264e57600080fd5b6102c65a03f4151561265f57600080fd5b505050604051805190508901975050505050505050955095509592505050565b6000809054906101000a900473ffffffffffffffffffffffffffffffffffffffff1681565b6000809054906101000a900473ffffffffffffffffffffffffffffffffffffffff1673ffffffffffffffffffffffffffffffffffffffff163373ffffffffffffffffffffffffffffffffffffffff161415156126ff57600080fd5b80600160006101000a81548173ffffffffffffffffffffffffffffffffffffffff021916908373ffffffffffffffffffffffffffffffffffffffff16021790555050565b600080600160009054906101000a900473ffffffffffffffffffffffffffffffffffffffff1673ffffffffffffffffffffffffffffffffffffffff16634af5fb0f33326000604051602001526040518363ffffffff167c0100000000000000000000000000000000000000000000000000000000028152600401808373ffffffffffffffffffffffffffffffffffffffff1673ffffffffffffffffffffffffffffffffffffffff1681526020018273ffffffffffffffffffffffffffffffffffffffff1673ffffffffffffffffffffffffffffffffffffffff16815260200192505050602060405180830381600087803b151561283f57600080fd5b6102c65a03f1151561285057600080fd5b50505060405180519050151561286557600080fd5b73__RealMath______________________________6325f39a6385850173__RealMath______________________________63f5a5d50360026000604051602001526040518263ffffffff167c01000000000000000000000000000000000000000000000000000000000281526004018082600a0b815260200191505060206040518083038186803b15156128f957600080fd5b6102c65a03f4151561290a57600080fd5b505050604051805190506000604051602001526040518363ffffffff167c01000000000000000000000000000000000000000000000000000000000281526004018083600f0b600f0b815260200182600f0b600f0b81526020019250505060206040518083038186803b151561297f57600080fd5b6102c65a03f4151561299057600080fd5b50505060405180519050915073__RealMath______________________________6325f39a638585038686016000604051602001526040518363ffffffff167c01000000000000000000000000000000000000000000000000000000000281526004018083600f0b600f0b815260200182600f0b600f0b81526020019250505060206040518083038186803b1515612a2757600080fd5b6102c65a03f41515612a3857600080fd5b5050506040518051905090509250929050565b6000612a55613da8565b6000600160009054906101000a900473ffffffffffffffffffffffffffffffffffffffff1673ffffffffffffffffffffffffffffffffffffffff16634af5fb0f33326000604051602001526040518363ffffffff167c0100000000000000000000000000000000000000000000000000000000028152600401808373ffffffffffffffffffffffffffffffffffffffff1673ffffffffffffffffffffffffffffffffffffffff1681526020018273ffffffffffffffffffffffffffffffffffffffff1673ffffffffffffffffffffffffffffffffffffffff16815260200192505050602060405180830381600087803b1515612b5057600080fd5b6102c65a03f11515612b6157600080fd5b505050604051805190501515612b7657600080fd5b612bd16040805190810160405280600581526020017f636c617373000000000000000000000000000000000000000000000000000000815250602060405190810160405280896000191681525061371590919063ffffffff16565b9150612bea600160648461390c9092919063ffffffff16565b905060008560010b148015612c03575060018460010b14155b15612c5057604681600a0b1215612c1d5760009250612d23565b605081600a0b1215612c325760019250612d23565b605a81600a0b1215612c475760029250612d23565b60039250612d23565b60028460010b811515612c5f57fe5b0560010b8560010b1215612cca57601481600a0b1215612c825760009250612d23565b602881600a0b1215612c975760019250612d23565b604681600a0b1215612cac5760029250612d23565b605081600a0b1215612cc15760039250612d23565b60049250612d23565b601481600a0b1215612cdf5760009250612d23565b601e81600a0b1215612cf45760019250612d23565b603c81600a0b1215612d095760029250612d23565b605a81600a0b1215612d1e5760039250612d23565b600492505b50509392505050565b6000612d36613da8565b600080600160009054906101000a900473ffffffffffffffffffffffffffffffffffffffff1673ffffffffffffffffffffffffffffffffffffffff16634af5fb0f33326000604051602001526040518363ffffffff167c0100000000000000000000000000000000000000000000000000000000028152600401808373ffffffffffffffffffffffffffffffffffffffff1673ffffffffffffffffffffffffffffffffffffffff1681526020018273ffffffffffffffffffffffffffffffffffffffff1673ffffffffffffffffffffffffffffffffffffffff16815260200192505050602060405180830381600087803b1515612e3257600080fd5b6102c65a03f11515612e4357600080fd5b505050604051805190501515612e5857600080fd5b612eb36040805190810160405280600b81526020017f706c616e6574636f756e740000000000000000000000000000000000000000008152506020604051908101604052808a6000191681525061371590919063ffffffff16565b925060026005811115612ec257fe5b866005811115612ece57fe5b1415612fdb5760006007811115612ee157fe5b856007811115612eed57fe5b1480612f0f575060016007811115612f0157fe5b856007811115612f0d57fe5b145b15612f1d5760059150612fd6565b60026007811115612f2a57fe5b856007811115612f3657fe5b1415612f455760079150612fd5565b60036007811115612f5257fe5b856007811115612f5e57fe5b1480612f80575060046007811115612f7257fe5b856007811115612f7e57fe5b145b80612fa1575060056007811115612f9357fe5b856007811115612f9f57fe5b145b15612faf57600c9150612fd4565b60066007811115612fbc57fe5b856007811115612fc857fe5b1415612fd357600e91505b5b5b5b613032565b60016005811115612fe857fe5b866005811115612ff457fe5b14156130035760029150613031565b6000600581111561301057fe5b86600581111561301c57fe5b141561302b5760029150613030565b600291505b5b5b61304b60018360010b8561390c9092919063ffffffff16565b90508093505050509392505050565b6000613064613da8565b6000806000600160009054906101000a900473ffffffffffffffffffffffffffffffffffffffff1673ffffffffffffffffffffffffffffffffffffffff16634af5fb0f33326000604051602001526040518363ffffffff167c0100000000000000000000000000000000000000000000000000000000028152600401808373ffffffffffffffffffffffffffffffffffffffff1673ffffffffffffffffffffffffffffffffffffffff1681526020018273ffffffffffffffffffffffffffffffffffffffff1673ffffffffffffffffffffffffffffffffffffffff16815260200192505050602060405180830381600087803b151561316257600080fd5b6102c65a03f1151561317357600080fd5b50505060405180519050151561318857600080fd5b6131e36040805190810160405280600b81526020017f696e636c696e6174696f6e0000000000000000000000000000000000000000008152506020604051908101604052808a6000191681525061371590919063ffffffff16565b9350600060048111156131f257fe5b8660048111156131fe57fe5b1415613211576000925060af91506132ca565b6001600481111561321e57fe5b86600481111561322a57fe5b141561323d5760009250605791506132c9565b6002600481111561324a57fe5b86600481111561325657fe5b14156132695760009250602391506132c8565b6003600481111561327657fe5b86600481111561328257fe5b14156132955760009250603491506132c7565b6004808111156132a157fe5b8660048111156132ad57fe5b14156132c1576000925061010691506132c6565b600080fd5b5b5b5b5b6000905060026133316001606460006133216040805190810160405280600a81526020017f726574726f6772616465000000000000000000000000000000000000000000008152508a61371590919063ffffffff16565b613c16909392919063ffffffff16565b60010b1215613344576503243f6a888690505b73__RealMath______________________________6325f39a6361349973__RealMath______________________________63f5a5d503876000604051602001526040518263ffffffff167c01000000000000000000000000000000000000000000000000000000000281526004018082600a0b600a0b815260200191505060206040518083038186803b15156133da57600080fd5b6102c65a03f415156133eb57600080fd5b5050506040518051905073__RealMath______________________________63f5a5d503876000604051602001526040518263ffffffff167c01000000000000000000000000000000000000000000000000000000000281526004018082600a0b600a0b815260200191505060206040518083038186803b151561346e57600080fd5b6102c65a03f4151561347f57600080fd5b50505060405180519050886137d89092919063ffffffff16565b73__RealMath______________________________63f5a5d5036103e86000604051602001526040518263ffffffff167c01000000000000000000000000000000000000000000000000000000000281526004018082600a0b815260200191505060206040518083038186803b151561351157600080fd5b6102c65a03f4151561352257600080fd5b505050604051805190506000604051602001526040518363ffffffff167c01000000000000000000000000000000000000000000000000000000000281526004018083600f0b600f0b815260200182600f0b600f0b81526020019250505060206040518083038186803b151561359757600080fd5b6102c65a03f415156135a857600080fd5b50505060405180519050810194505050505092915050565b6000809054906101000a900473ffffffffffffffffffffffffffffffffffffffff1673ffffffffffffffffffffffffffffffffffffffff163373ffffffffffffffffffffffffffffffffffffffff1614151561361b57600080fd5b600073ffffffffffffffffffffffffffffffffffffffff168173ffffffffffffffffffffffffffffffffffffffff161415151561365757600080fd5b8073ffffffffffffffffffffffffffffffffffffffff166000809054906101000a900473ffffffffffffffffffffffffffffffffffffffff1673ffffffffffffffffffffffffffffffffffffffff167f8be0079c531659141344cd1fd0a4f28419497f9722a3daafe3b4186f6b6457e060405160405180910390a3806000806101000a81548173ffffffffffffffffffffffffffffffffffffffff021916908373ffffffffffffffffffffffffffffffffffffffff16021790555050565b61371d613da8565b602060405190810160405280600285600001518560006040516020015260405180836000191660001916815260200182805190602001908083835b60208310151561377d5780518252602082019150602081019050602083039250613758565b6001836020036101000a0380198251168184511680821785525050505050509050019250505060206040518083038160008661646e5a03f115156137c057600080fd5b50506040518051905060001916815250905092915050565b6000826137e485613c94565b600f0b73__RealMath______________________________63b697214690918686036000604051602001526040518363ffffffff167c01000000000000000000000000000000000000000000000000000000000281526004018083600f0b600f0b815260200182600f0b600f0b81526020019250505060206040518083038186803b151561387157600080fd5b6102c65a03f4151561388257600080fd5b505050604051805190500190509392505050565b61389e613da8565b60206040519081016040528060028560000151856000604051602001526040518083600019166000191681526020018281526020019250505060206040518083038160008661646e5a03f115156138f457600080fd5b50506040518051905060001916815250905092915050565b600073__RealMath______________________________6315dbfe2873__RealMath______________________________63f5a5d503866000604051602001526040518263ffffffff167c01000000000000000000000000000000000000000000000000000000000281526004018082600a0b600a0b815260200191505060206040518083038186803b15156139a157600080fd5b6102c65a03f415156139b257600080fd5b505050604051805190506139c587613c94565b600f0b73__RealMath______________________________63b6972146909173__RealMath______________________________63f5a5d5038a6000604051602001526040518263ffffffff167c01000000000000000000000000000000000000000000000000000000000281526004018082600a0b600a0b815260200191505060206040518083038186803b1515613a5d57600080fd5b6102c65a03f41515613a6e57600080fd5b5050506040518051905073__RealMath______________________________63f5a5d5038a6000604051602001526040518263ffffffff167c01000000000000000000000000000000000000000000000000000000000281526004018082600a0b600a0b815260200191505060206040518083038186803b1515613af157600080fd5b6102c65a03f41515613b0257600080fd5b50505060405180519050036000604051602001526040518363ffffffff167c01000000000000000000000000000000000000000000000000000000000281526004018083600f0b600f0b815260200182600f0b600f0b81526020019250505060206040518083038186803b1515613b7857600080fd5b6102c65a03f41515613b8957600080fd5b50505060405180519050016000604051602001526040518263ffffffff167c01000000000000000000000000000000000000000000000000000000000281526004018082600f0b600f0b815260200191505060206040518083038186803b1515613bf257600080fd5b6102c65a03f41515613c0357600080fd5b5050506040518051905090509392505050565b600080600060018660000b1415613c42578360000b613c3a8860018860000b61390c565b019250613c8a565b8360000b9150600090505b8560000b8160000b1215613c8657613c75613c6b888360000b613896565b6001876000613c16565b820191508080600101915050613c4d565b8192505b5050949350505050565b6000613c9f82613d3e565b600f0b73__RealMath______________________________6384f1bd4e90916000604051602001526040518263ffffffff167c01000000000000000000000000000000000000000000000000000000000281526004018082600f0b600f0b815260200191505060206040518083038186803b1515613d1c57600080fd5b6102c65a03f41515613d2d57600080fd5b505050604051805190509050919050565b6000613d4982613d54565b600190049050919050565b60006002826000015160006040516020015260405180826000191660001916815260200191505060206040518083038160008661646e5a03f11515613d9857600080fd5b5050604051805190509050919050565b6020604051908101604052806000801916815250905600a165627a7a72305820883753cf313710b51fe34af1587015ffb15f61442f72347c82509b14fcd118ae0029",
  "source": "pragma solidity ^0.4.18;\n\nimport \"./RNG.sol\";\nimport \"./RealMath.sol\";\n\nimport \"./AccessControl.sol\";\nimport \"./ControlledAccess.sol\";\n\nimport \"./MacroverseStarGenerator.sol\";\n\n/**\n * Represents a Macroverse generator for planetary systems around stars and\n * other stellar objects.\n *\n * Permission to call methods on this contract is regulated by a configurable\n * AccessControl contract. One such set of terms might be to require that the\n * account initiating a transaction have a certain minimum MRV token balance.\n *\n * The owner of this contract reserves the right to supersede it with a new\n * version, and to modify the terms for accessing this contract, at any time,\n * for any reason, and without notice. This includes the right to indefinitely\n * or permanently suspend or terminate access to this contract for any person,\n * account, or other contract, or for all persons, accounts, or other\n * contracts. The owner also reserves the right to not do any of the above.\n */\ncontract MacroverseSystemGenerator is ControlledAccess {\n    // TODO: RNG doesn't get linked against because we can't pass the struct to the library...\n    using RNG for *;\n    using RealMath for *;\n    // No SafeMath or it might confuse RealMath\n\n    /**\n     * It is also useful to have Pi around.\n     * We can't pull it in from the library.\n     */\n    int128 constant REAL_PI = 3454217652358;\n\n    /**\n     * Define different types of planet.\n     */\n    enum PlanetClass {Lunar, Terrestrial, Uranian, Jovian, AsteroidBelt}\n\n    /**\n     * Deploy a new copy of the MacroverseSystemGenerator.\n     */\n    function MacroverseSystemGenerator(address accessControlAddress) ControlledAccess(AccessControl(accessControlAddress)) public {\n        // Nothing to do!\n    }\n    \n    /**\n     * If the object has any planets at all, get the planet count. Will return\n     * nonzero numbers always, so make sure to check getObjectHasPlanets in the\n     * Star Generator.\n     */\n    function getObjectPlanetCount(bytes32 starSeed, MacroverseStarGenerator.ObjectClass objectClass,\n        MacroverseStarGenerator.SpectralType spectralType) public view onlyControlledAccess returns (int16) {\n        \n        var node = RNG.RandNode(starSeed).derive(\"planetcount\");\n        \n        \n        int16 limit;\n\n        if (objectClass == MacroverseStarGenerator.ObjectClass.MainSequence) {\n            if (spectralType == MacroverseStarGenerator.SpectralType.TypeO ||\n                spectralType == MacroverseStarGenerator.SpectralType.TypeB) {\n                \n                limit = 5;\n            } else if (spectralType == MacroverseStarGenerator.SpectralType.TypeA) {\n                limit = 7;\n            } else if (spectralType == MacroverseStarGenerator.SpectralType.TypeF ||\n                spectralType == MacroverseStarGenerator.SpectralType.TypeG ||\n                spectralType == MacroverseStarGenerator.SpectralType.TypeK) {\n                \n                limit = 12;\n            } else if (spectralType == MacroverseStarGenerator.SpectralType.TypeM) {\n                limit = 14;\n            }\n        } else if (objectClass == MacroverseStarGenerator.ObjectClass.Giant) {\n            limit = 2;\n        } else if (objectClass == MacroverseStarGenerator.ObjectClass.Supergiant) {\n            limit = 2;\n        } else {\n           // Black hole, neutron star, or white dwarf\n           limit = 2;\n        }\n        \n        var roll = int16(node.getIntBetween(1, limit));\n        \n        return roll;\n    }\n    \n    /**\n     * Get the seed for a planet from the seed for the star and its number.\n     */\n    function getPlanetSeed(bytes32 starSeed, int16 planetNumber) public view onlyControlledAccess returns (bytes32) {\n        return RNG.RandNode(starSeed).derive(planetNumber)._hash;\n    }\n    \n    /**\n     * Decide what kind of planet a given planet is.\n     * It depends on its place in the order.\n     * Takes the *planet*'s seed, its number, and the total planets in the system.\n     */\n    function getPlanetClass(bytes32 seed, int16 planetNumber, int16 totalPlanets) public view onlyControlledAccess returns (PlanetClass) {\n        // TODO: do something based on metallicity?\n        var node = RNG.RandNode(seed).derive(\"class\");\n        \n        var roll = node.getIntBetween(1, 100);\n        \n        // Inner planets should be more planet-y, ideally smaller\n        // Asteroid belts shouldn't be first that often\n        \n        if (planetNumber == 0 && totalPlanets != 1) {\n            // Innermost planet of a multi-planet system\n            // No asteroid belts allowed!\n            if (roll < 70) {\n                return PlanetClass.Lunar;\n            } else if (roll < 80) {\n                return PlanetClass.Terrestrial;\n            } else if (roll < 90) {\n                return PlanetClass.Uranian;\n            } else {\n                return PlanetClass.Jovian;\n            }\n        } else if (planetNumber < totalPlanets / 2) {\n            // Inner system\n            if (roll < 20) {\n                return PlanetClass.Lunar;\n            } else if (roll < 40) {\n                return PlanetClass.Terrestrial;\n            } else if (roll < 70) {\n                return PlanetClass.Uranian;\n            } else if (roll < 80) {\n                return PlanetClass.Jovian;\n            } else {\n                return PlanetClass.AsteroidBelt;\n            }\n        } else {\n            // Outer system\n            if (roll < 20) {\n                return PlanetClass.Lunar;\n            } else if (roll < 30) {\n                return PlanetClass.Terrestrial;\n            } else if (roll < 60) {\n                return PlanetClass.Uranian;\n            } else if (roll < 90) {\n                return PlanetClass.Jovian;\n            } else {\n                return PlanetClass.AsteroidBelt;\n            }\n        }\n    }\n    \n    /**\n     * Decide what the mass of the planet is. We can't do even the mass of\n     * Jupiter in the ~88 bits we have in a real (should we have used int256 as\n     * the backing type?) so we work in Earth masses.\n     */\n    function getPlanetMass(bytes32 seed, PlanetClass class) public view onlyControlledAccess returns (int128) {\n        var node = RNG.RandNode(seed).derive(\"mass\");\n        \n        if (class == PlanetClass.Lunar) {\n            return node.getRealBetween(RealMath.fraction(1, 100), RealMath.fraction(9, 100));\n        } else if (class == PlanetClass.Terrestrial) {\n            return node.getRealBetween(RealMath.fraction(10, 100), RealMath.toReal(9));\n        } else if (class == PlanetClass.Uranian) {\n            return node.getRealBetween(RealMath.toReal(9), RealMath.toReal(20));\n        } else if (class == PlanetClass.Jovian) {\n            return node.getRealBetween(RealMath.toReal(50), RealMath.toReal(400));\n        } else if (class == PlanetClass.AsteroidBelt) {\n            return node.getRealBetween(RealMath.fraction(1, 100), RealMath.fraction(20, 100));\n        } else {\n            // Not real!\n            revert();\n        }\n    }\n    \n    // Define the orbit shape\n\n    /**\n     * Given the parent star class and type, the planet seed, the planet class\n     * to be generated, and the \"clearance\" radius around the previous planet\n     * in meters, produces orbit statistics (periapsis, apoapsis, and\n     * clearance) in meters.\n     *\n     * The first planet uses a previous clearance of 0.\n     */\n    function getPlanetOrbitDimensions(MacroverseStarGenerator.ObjectClass objectClass,\n        MacroverseStarGenerator.SpectralType spectralType, bytes32 seed, PlanetClass class, int128 realPrevClearance)\n        public view onlyControlledAccess returns (int128 realPeriapsis, int128 realApoapsis, int128 realClearance) {\n\n        // Each object class and spectral type combo has a characteristic base length (in km).\n        // For sun-sized TypeG MainSequence stars, that is 1,000,000\n        int88 baseLength;\n        if (objectClass == MacroverseStarGenerator.ObjectClass.BlackHole) {\n            // Black hole systems should be about twice our size\n            baseLength = 2000000;\n        } else if (objectClass == MacroverseStarGenerator.ObjectClass.NeutronStar) {\n            // Neutron star systems should be about our size\n            baseLength = 1100000;\n        } else if (objectClass == MacroverseStarGenerator.ObjectClass.WhiteDwarf) {\n            // White dwarf systems can be smaller\n            baseLength = 800000;\n        } else if (objectClass == MacroverseStarGenerator.ObjectClass.MainSequence) {\n            if (spectralType == MacroverseStarGenerator.SpectralType.TypeO) {\n                // Type O systems should be big (10x)\n                baseLength = 10000000;\n            } else if (spectralType == MacroverseStarGenerator.SpectralType.TypeB) {\n                // Type B should be smaller (5x)\n                baseLength = 5000000;\n            } else if (spectralType == MacroverseStarGenerator.SpectralType.TypeA) {\n                // Type A should be just a bit bigger\n                baseLength = 1500000;\n            } else if (spectralType == MacroverseStarGenerator.SpectralType.TypeF) {\n                // Type F should be just a hair bigger\n                baseLength = 1200000;\n            } else if (spectralType == MacroverseStarGenerator.SpectralType.TypeG) {\n                // Type G should be on average our size\n                baseLength = 1000000;\n            } else if (spectralType == MacroverseStarGenerator.SpectralType.TypeK) {\n                // Type K should be smaller (1/3)\n                baseLength = 333333;\n            } else if (spectralType == MacroverseStarGenerator.SpectralType.TypeM) {\n                // Type M should be even smaller (1/10)\n                baseLength = 100000;\n            } else {\n                // Not real!\n                revert();\n            }\n        } else if (objectClass == MacroverseStarGenerator.ObjectClass.Giant) {\n            // Giants are giant (20x)\n            baseLength = 20000000;\n        } else if (objectClass == MacroverseStarGenerator.ObjectClass.Supergiant) {\n            // Supergiants are gianter (50x)\n            baseLength = 50000000;\n        } else {\n            // Not real!\n            revert();\n        }\n\n        int128 realBaseLengthMeters = RealMath.toReal(1000 * baseLength);\n\n        // Make an RNG node for the planet\n        var seedNode = RNG.RandNode(seed);\n\n        // Now compute the periapsis\n        var node = seedNode.derive(\"periapsis\");\n        \n        // Define minimum and maximum periapsis distance above previous planet's\n        // cleared band in millions of km\n        int88 minimum;\n        int88 maximum;\n        if (class == PlanetClass.Lunar) {\n            minimum = 20;\n            maximum = 60;\n        } else if (class == PlanetClass.Terrestrial) {\n            minimum = 40;\n            maximum = 70;\n        } else if (class == PlanetClass.Uranian) {\n            minimum = 1000;\n            maximum = 2000;\n        } else if (class == PlanetClass.Jovian) {\n            minimum = 300;\n            maximum = 500;\n        } else if (class == PlanetClass.AsteroidBelt) {\n            minimum = 20;\n            maximum = 500;\n        } else {\n            // Not real!\n            revert();\n        }\n        \n        // Compute separation from cleared band\n        int128 realIncrement = node.getRealBetween(RealMath.toReal(minimum), RealMath.toReal(maximum));\n        // Convert to real in meters and add to the band size\n        realPeriapsis = realPrevClearance + RealMath.mul(realIncrement, realBaseLengthMeters); \n\n        // Now do the apoapsis\n        node = seedNode.derive(\"apoapsis\");\n        \n        // Define minimum and maximum apoapsis distance above planet's periapsis\n        // Think in gigameters (millions of km)\n        if (class == PlanetClass.Lunar) {\n            minimum = 0;\n            maximum = 6;\n        } else if (class == PlanetClass.Terrestrial) {\n            minimum = 0;\n            maximum = 10;\n        } else if (class == PlanetClass.Uranian) {\n            minimum = 20;\n            maximum = 1000;\n        } else if (class == PlanetClass.Jovian) {\n            minimum = 10;\n            maximum = 200;\n        } else if (class == PlanetClass.AsteroidBelt) {\n            minimum = 10;\n            maximum = 100;\n        } else {\n            // Not real!\n            revert();\n        }\n        \n        realIncrement = node.getRealBetween(RealMath.toReal(minimum), RealMath.toReal(maximum));\n        realApoapsis = realPeriapsis + RealMath.mul(realIncrement, realBaseLengthMeters); \n\n        // And finally compute our own cleared band\n    \n        node = seedNode.derive(\"cleared\");\n        \n        // Define minimum and maximum clearance in millions of km.\n        // TODO: Constants should be sort of like the periapsis constants I think? But maybe not identical.\n        // Think in gigameters (millions of km)\n        if (class == PlanetClass.Lunar) {\n            minimum = 20;\n            maximum = 60;\n        } else if (class == PlanetClass.Terrestrial) {\n            minimum = 40;\n            maximum = 70;\n        } else if (class == PlanetClass.Uranian) {\n            minimum = 1000;\n            maximum = 2000;\n        } else if (class == PlanetClass.Jovian) {\n            minimum = 300;\n            maximum = 500;\n        } else if (class == PlanetClass.AsteroidBelt) {\n            minimum = 20;\n            maximum = 500;\n        } else {\n            // Not real!\n            revert();\n        }\n        \n        realIncrement = node.getRealBetween(RealMath.toReal(minimum), RealMath.toReal(maximum));\n        realClearance = realApoapsis + RealMath.mul(realIncrement, realBaseLengthMeters); \n    }\n    \n    /**\n     * Convert from periapsis and apoapsis to semimajor axis and eccentricity.\n     */\n    function convertOrbitShape(int128 realPeriapsis, int128 realApoapsis) public view onlyControlledAccess returns (int128 realSemimajor, int128 realEccentricity) {\n        // Semimajor axis is average of apoapsis and periapsis\n        realSemimajor = RealMath.div(realApoapsis + realPeriapsis, RealMath.toReal(2));\n        \n        // Eccentricity is ratio of difference and sum\n        realEccentricity = RealMath.div(realApoapsis - realPeriapsis, realApoapsis + realPeriapsis);\n    }\n    \n    // Define the orbital plane\n    \n    /**\n     * Get the longitude of the ascending node (angle from galactic +X to ascending node) for a planet.\n     */ \n    function getPlanetLan(bytes32 seed) public view onlyControlledAccess returns (int128) {\n        var node = RNG.RandNode(seed).derive(\"LAN\");\n        // Angles should be uniform from 0 to 2 PI\n        return node.getRealBetween(RealMath.toReal(0), RealMath.mul(RealMath.toReal(2), REAL_PI));\n    }\n    \n    /**\n     * Get the inclination (angle from galactic XZ plane to orbital plane at the ascending node) for a planet.\n     * Inclination is always positive. If it were negative, the ascending node would really be the descending node.\n     * Result is a real in radians.\n     */ \n    function getPlanetInclination(bytes32 seed, PlanetClass class) public view onlyControlledAccess returns (int128) {\n        var node = RNG.RandNode(seed).derive(\"inclination\");\n    \n        // Define minimum and maximum inclinations in milliradians\n        // 175 milliradians = ~ 10 degrees\n        int88 minimum;\n        int88 maximum;\n        if (class == PlanetClass.Lunar) {\n            minimum = 0;\n            maximum = 175;\n        } else if (class == PlanetClass.Terrestrial) {\n            minimum = 0;\n            maximum = 87;\n        } else if (class == PlanetClass.Uranian) {\n            minimum = 0;\n            maximum = 35;\n        } else if (class == PlanetClass.Jovian) {\n            minimum = 0;\n            maximum = 52;\n        } else if (class == PlanetClass.AsteroidBelt) {\n            minimum = 0;\n            maximum = 262;\n        } else {\n            // Not real!\n            revert();\n        }\n        \n        // Decide if we should be retrograde (PI-ish inclination)\n        int128 real_retrograde_offset = 0;\n        if (node.derive(\"retrograde\").d(1, 100, 0) < 2) {\n            // This planet ought to move retrograde\n            real_retrograde_offset = REAL_PI;\n        }\n\n        return real_retrograde_offset + RealMath.div(node.getRealBetween(RealMath.toReal(minimum), RealMath.toReal(maximum)), RealMath.toReal(1000));    \n    }\n    \n    // Define the orbit's embedding in the plane (and in time)\n    \n    /**\n     * Get the argument of periapsis (angle from ascending node to periapsis position, in the orbital plane) for a planet.\n     */\n    function getPlanetAop(bytes32 seed) public view onlyControlledAccess returns (int128) {\n        var node = RNG.RandNode(seed).derive(\"AOP\");\n        // Angles should be uniform from 0 to 2 PI.\n        // We already made sure planets wouldn't get too close together when laying out the orbits.\n        return node.getRealBetween(RealMath.toReal(0), RealMath.mul(RealMath.toReal(2), REAL_PI));\n    }\n    \n    /**\n     * Get the mean anomaly (which sweeps from 0 at periapsis to 2 pi at the next periapsis) at epoch (time 0) for a planet.\n     */\n    function getPlanetMeanAnomalyAtEpoch(bytes32 seed) public view onlyControlledAccess returns (int128) {\n        var node = RNG.RandNode(seed).derive(\"MAE\");\n        // Angles should be uniform from 0 to 2 PI.\n        return node.getRealBetween(RealMath.toReal(0), RealMath.mul(RealMath.toReal(2), REAL_PI));\n    }  \n}\n \n",
  "sourcePath": "/Users/anovak/Documents/Workspace/macroverse/contracts/MacroverseSystemGenerator.sol",
  "compiler": {
    "name": "solc",
    "version": "0.4.19+commit.c4cbbb05.Emscripten.clang"
  },
  "schemaVersion": "2.0.0",
  "updatedAt": "2018-06-29T05:00:30.401Z"
}