{
  "contractName": "MacroverseSystemGenerator",
  "abi": [
    {
      "inputs": [
        {
          "internalType": "address",
          "name": "accessControlAddress",
          "type": "address"
        }
      ],
      "stateMutability": "nonpayable",
      "type": "constructor"
    },
    {
      "anonymous": false,
      "inputs": [
        {
          "indexed": true,
          "internalType": "address",
          "name": "previousOwner",
          "type": "address"
        },
        {
          "indexed": true,
          "internalType": "address",
          "name": "newOwner",
          "type": "address"
        }
      ],
      "name": "OwnershipTransferred",
      "type": "event"
    },
    {
      "inputs": [
        {
          "internalType": "address",
          "name": "newAccessControl",
          "type": "address"
        }
      ],
      "name": "changeAccessControl",
      "outputs": [],
      "stateMutability": "nonpayable",
      "type": "function"
    },
    {
      "inputs": [],
      "name": "owner",
      "outputs": [
        {
          "internalType": "address",
          "name": "",
          "type": "address"
        }
      ],
      "stateMutability": "view",
      "type": "function"
    },
    {
      "inputs": [],
      "name": "renounceOwnership",
      "outputs": [],
      "stateMutability": "nonpayable",
      "type": "function"
    },
    {
      "inputs": [
        {
          "internalType": "address",
          "name": "newOwner",
          "type": "address"
        }
      ],
      "name": "transferOwnership",
      "outputs": [],
      "stateMutability": "nonpayable",
      "type": "function"
    },
    {
      "inputs": [
        {
          "internalType": "bytes32",
          "name": "parentSeed",
          "type": "bytes32"
        },
        {
          "internalType": "uint16",
          "name": "childNumber",
          "type": "uint16"
        }
      ],
      "name": "getWorldSeed",
      "outputs": [
        {
          "internalType": "bytes32",
          "name": "",
          "type": "bytes32"
        }
      ],
      "stateMutability": "view",
      "type": "function"
    },
    {
      "inputs": [
        {
          "internalType": "bytes32",
          "name": "seed",
          "type": "bytes32"
        },
        {
          "internalType": "uint16",
          "name": "planetNumber",
          "type": "uint16"
        },
        {
          "internalType": "uint16",
          "name": "totalPlanets",
          "type": "uint16"
        }
      ],
      "name": "getPlanetClass",
      "outputs": [
        {
          "internalType": "enum Macroverse.WorldClass",
          "name": "",
          "type": "uint8"
        }
      ],
      "stateMutability": "view",
      "type": "function"
    },
    {
      "inputs": [
        {
          "internalType": "bytes32",
          "name": "seed",
          "type": "bytes32"
        },
        {
          "internalType": "enum Macroverse.WorldClass",
          "name": "class",
          "type": "uint8"
        }
      ],
      "name": "getWorldMass",
      "outputs": [
        {
          "internalType": "int128",
          "name": "",
          "type": "int128"
        }
      ],
      "stateMutability": "view",
      "type": "function"
    },
    {
      "inputs": [
        {
          "internalType": "int128",
          "name": "realInnerRadius",
          "type": "int128"
        },
        {
          "internalType": "int128",
          "name": "realOuterRadius",
          "type": "int128"
        },
        {
          "internalType": "bytes32",
          "name": "seed",
          "type": "bytes32"
        },
        {
          "internalType": "enum Macroverse.WorldClass",
          "name": "class",
          "type": "uint8"
        },
        {
          "internalType": "int128",
          "name": "realPrevClearance",
          "type": "int128"
        }
      ],
      "name": "getPlanetOrbitDimensions",
      "outputs": [
        {
          "internalType": "int128",
          "name": "realPeriapsis",
          "type": "int128"
        },
        {
          "internalType": "int128",
          "name": "realApoapsis",
          "type": "int128"
        },
        {
          "internalType": "int128",
          "name": "realClearance",
          "type": "int128"
        }
      ],
      "stateMutability": "view",
      "type": "function"
    },
    {
      "inputs": [
        {
          "internalType": "int128",
          "name": "realPeriapsis",
          "type": "int128"
        },
        {
          "internalType": "int128",
          "name": "realApoapsis",
          "type": "int128"
        }
      ],
      "name": "convertOrbitShape",
      "outputs": [
        {
          "internalType": "int128",
          "name": "realSemimajor",
          "type": "int128"
        },
        {
          "internalType": "int128",
          "name": "realEccentricity",
          "type": "int128"
        }
      ],
      "stateMutability": "view",
      "type": "function"
    },
    {
      "inputs": [
        {
          "internalType": "bytes32",
          "name": "seed",
          "type": "bytes32"
        }
      ],
      "name": "getWorldLan",
      "outputs": [
        {
          "internalType": "int128",
          "name": "",
          "type": "int128"
        }
      ],
      "stateMutability": "view",
      "type": "function"
    },
    {
      "inputs": [
        {
          "internalType": "bytes32",
          "name": "seed",
          "type": "bytes32"
        },
        {
          "internalType": "enum Macroverse.WorldClass",
          "name": "class",
          "type": "uint8"
        }
      ],
      "name": "getPlanetInclination",
      "outputs": [
        {
          "internalType": "int128",
          "name": "",
          "type": "int128"
        }
      ],
      "stateMutability": "view",
      "type": "function"
    },
    {
      "inputs": [
        {
          "internalType": "bytes32",
          "name": "seed",
          "type": "bytes32"
        }
      ],
      "name": "getWorldAop",
      "outputs": [
        {
          "internalType": "int128",
          "name": "",
          "type": "int128"
        }
      ],
      "stateMutability": "view",
      "type": "function"
    },
    {
      "inputs": [
        {
          "internalType": "bytes32",
          "name": "seed",
          "type": "bytes32"
        }
      ],
      "name": "getWorldMeanAnomalyAtEpoch",
      "outputs": [
        {
          "internalType": "int128",
          "name": "",
          "type": "int128"
        }
      ],
      "stateMutability": "view",
      "type": "function"
    },
    {
      "inputs": [
        {
          "internalType": "bytes32",
          "name": "seed",
          "type": "bytes32"
        },
        {
          "internalType": "uint16",
          "name": "worldNumber",
          "type": "uint16"
        }
      ],
      "name": "isTidallyLocked",
      "outputs": [
        {
          "internalType": "bool",
          "name": "",
          "type": "bool"
        }
      ],
      "stateMutability": "view",
      "type": "function"
    },
    {
      "inputs": [
        {
          "internalType": "bytes32",
          "name": "seed",
          "type": "bytes32"
        }
      ],
      "name": "getWorldYXAxisAngles",
      "outputs": [
        {
          "internalType": "int128",
          "name": "realYRadians",
          "type": "int128"
        },
        {
          "internalType": "int128",
          "name": "realXRadians",
          "type": "int128"
        }
      ],
      "stateMutability": "view",
      "type": "function"
    },
    {
      "inputs": [
        {
          "internalType": "bytes32",
          "name": "seed",
          "type": "bytes32"
        }
      ],
      "name": "getWorldSpinRate",
      "outputs": [
        {
          "internalType": "int128",
          "name": "",
          "type": "int128"
        }
      ],
      "stateMutability": "view",
      "type": "function"
    }
  ],
  "bytecode": "0x608060405234801561001057600080fd5b506040516121853803806121858339818101604052602081101561003357600080fd5b810190808051906020019092919050505080600061005561013b60201b60201c565b9050806000806101000a81548173ffffffffffffffffffffffffffffffffffffffff021916908373ffffffffffffffffffffffffffffffffffffffff1602179055508073ffffffffffffffffffffffffffffffffffffffff16600073ffffffffffffffffffffffffffffffffffffffff167f8be0079c531659141344cd1fd0a4f28419497f9722a3daafe3b4186f6b6457e060405160405180910390a35080600160006101000a81548173ffffffffffffffffffffffffffffffffffffffff021916908373ffffffffffffffffffffffffffffffffffffffff1602179055505050610143565b600033905090565b612033806101526000396000f3fe608060405234801561001057600080fd5b50600436106101005760003560e01c80639a8914bc11610097578063cc841c1d11610066578063cc841c1d146104b1578063d2b4620b1461051d578063e775060114610572578063f2fde38b146105c757610100565b80639a8914bc1461036c578063a3828ebe146103d1578063b081066614610419578063b8c184361461046157610100565b80638da5cb5b116100d35780638da5cb5b146102425780639387730c1461028c57806396ab5ec7146102d057806399b64cf31461032457610100565b806303742dd4146101055780635f2eb7b91461019b578063715018a6146101f05780638301f10e146101fa575b600080fd5b610165600480360360a081101561011b57600080fd5b810190808035600f0b90602001909291908035600f0b906020019092919080359060200190929190803560ff1690602001909291908035600f0b906020019092919050505061060b565b6040518084600f0b600f0b815260200183600f0b600f0b815260200182600f0b600f0b8152602001935050505060405180910390f35b6101c7600480360360208110156101b157600080fd5b8101908080359060200190929190505050610816565b6040518083600f0b600f0b815260200182600f0b600f0b81526020019250505060405180910390f35b6101f86109cc565b005b6102266004803603602081101561021057600080fd5b8101908080359060200190929190505050610b54565b6040518082600f0b600f0b815260200191505060405180910390f35b61024a610cfe565b604051808273ffffffffffffffffffffffffffffffffffffffff1673ffffffffffffffffffffffffffffffffffffffff16815260200191505060405180910390f35b6102ce600480360360208110156102a257600080fd5b81019080803573ffffffffffffffffffffffffffffffffffffffff169060200190929190505050610d27565b005b61030a600480360360408110156102e657600080fd5b8101908080359060200190929190803561ffff169060200190929190505050610e34565b604051808215151515815260200191505060405180910390f35b6103506004803603602081101561033a57600080fd5b8101908080359060200190929190505050610fef565b6040518082600f0b600f0b815260200191505060405180910390f35b6103a86004803603604081101561038257600080fd5b810190808035600f0b90602001909291908035600f0b9060200190929190505050611199565b6040518083600f0b600f0b815260200182600f0b600f0b81526020019250505060405180910390f35b6103fd600480360360208110156103e757600080fd5b8101908080359060200190929190505050611365565b6040518082600f0b600f0b815260200191505060405180910390f35b6104456004803603602081101561042f57600080fd5b810190808035906020019092919050505061150f565b6040518082600f0b600f0b815260200191505060405180910390f35b61049b6004803603604081101561047757600080fd5b8101908080359060200190929190803561ffff1690602001909291905050506116b9565b6040518082815260200191505060405180910390f35b6104f9600480360360608110156104c757600080fd5b8101908080359060200190929190803561ffff169060200190929190803561ffff169060200190929190505050611874565b6040518082600981111561050957fe5b60ff16815260200191505060405180910390f35b6105566004803603604081101561053357600080fd5b8101908080359060200190929190803560ff169060200190929190505050611a40565b6040518082600f0b600f0b815260200191505060405180910390f35b6105ab6004803603604081101561058857600080fd5b8101908080359060200190929190803560ff169060200190929190505050611c01565b6040518082600f0b600f0b815260200191505060405180910390f35b610609600480360360208110156105dd57600080fd5b81019080803573ffffffffffffffffffffffffffffffffffffffff169060200190929190505050611dc2565b005b6000806000600160009054906101000a900473ffffffffffffffffffffffffffffffffffffffff1673ffffffffffffffffffffffffffffffffffffffff16634af5fb0f33326040518363ffffffff1660e01b8152600401808373ffffffffffffffffffffffffffffffffffffffff1673ffffffffffffffffffffffffffffffffffffffff1681526020018273ffffffffffffffffffffffffffffffffffffffff1673ffffffffffffffffffffffffffffffffffffffff1681526020019250505060206040518083038186803b1580156106e357600080fd5b505afa1580156106f7573d6000803e3d6000fd5b505050506040513d602081101561070d57600080fd5b810190808051906020019092919050505061072757600080fd5b73__MacroverseSystemGeneratorPart1________630a73a94189898989896040518663ffffffff1660e01b81526004018086600f0b600f0b815260200185600f0b600f0b815260200184815260200183600981111561078357fe5b60ff16815260200182600f0b600f0b81526020019550505050505060606040518083038186803b1580156107b657600080fd5b505af41580156107ca573d6000803e3d6000fd5b505050506040513d60608110156107e057600080fd5b81019080805190602001909291908051906020019092919080519060200190929190505050925092509250955095509592505050565b600080600160009054906101000a900473ffffffffffffffffffffffffffffffffffffffff1673ffffffffffffffffffffffffffffffffffffffff16634af5fb0f33326040518363ffffffff1660e01b8152600401808373ffffffffffffffffffffffffffffffffffffffff1673ffffffffffffffffffffffffffffffffffffffff1681526020018273ffffffffffffffffffffffffffffffffffffffff1673ffffffffffffffffffffffffffffffffffffffff1681526020019250505060206040518083038186803b1580156108ec57600080fd5b505afa158015610900573d6000803e3d6000fd5b505050506040513d602081101561091657600080fd5b810190808051906020019092919050505061093057600080fd5b73__MacroverseSystemGeneratorPart2________635f2eb7b9846040518263ffffffff1660e01b815260040180828152602001915050604080518083038186803b15801561097e57600080fd5b505af4158015610992573d6000803e3d6000fd5b505050506040513d60408110156109a857600080fd5b81019080805190602001909291908051906020019092919050505091509150915091565b6109d4611fcf565b73ffffffffffffffffffffffffffffffffffffffff166000809054906101000a900473ffffffffffffffffffffffffffffffffffffffff1673ffffffffffffffffffffffffffffffffffffffff1614610a95576040517f08c379a00000000000000000000000000000000000000000000000000000000081526004018080602001828103825260208152602001807f4f776e61626c653a2063616c6c6572206973206e6f7420746865206f776e657281525060200191505060405180910390fd5b600073ffffffffffffffffffffffffffffffffffffffff166000809054906101000a900473ffffffffffffffffffffffffffffffffffffffff1673ffffffffffffffffffffffffffffffffffffffff167f8be0079c531659141344cd1fd0a4f28419497f9722a3daafe3b4186f6b6457e060405160405180910390a360008060006101000a81548173ffffffffffffffffffffffffffffffffffffffff021916908373ffffffffffffffffffffffffffffffffffffffff160217905550565b6000600160009054906101000a900473ffffffffffffffffffffffffffffffffffffffff1673ffffffffffffffffffffffffffffffffffffffff16634af5fb0f33326040518363ffffffff1660e01b8152600401808373ffffffffffffffffffffffffffffffffffffffff1673ffffffffffffffffffffffffffffffffffffffff1681526020018273ffffffffffffffffffffffffffffffffffffffff1673ffffffffffffffffffffffffffffffffffffffff1681526020019250505060206040518083038186803b158015610c2957600080fd5b505afa158015610c3d573d6000803e3d6000fd5b505050506040513d6020811015610c5357600080fd5b8101908080519060200190929190505050610c6d57600080fd5b73__MacroverseSystemGeneratorPart2________638301f10e836040518263ffffffff1660e01b81526004018082815260200191505060206040518083038186803b158015610cbc57600080fd5b505af4158015610cd0573d6000803e3d6000fd5b505050506040513d6020811015610ce657600080fd5b81019080805190602001909291905050509050919050565b60008060009054906101000a900473ffffffffffffffffffffffffffffffffffffffff16905090565b610d2f611fcf565b73ffffffffffffffffffffffffffffffffffffffff166000809054906101000a900473ffffffffffffffffffffffffffffffffffffffff1673ffffffffffffffffffffffffffffffffffffffff1614610df0576040517f08c379a00000000000000000000000000000000000000000000000000000000081526004018080602001828103825260208152602001807f4f776e61626c653a2063616c6c6572206973206e6f7420746865206f776e657281525060200191505060405180910390fd5b80600160006101000a81548173ffffffffffffffffffffffffffffffffffffffff021916908373ffffffffffffffffffffffffffffffffffffffff16021790555050565b6000600160009054906101000a900473ffffffffffffffffffffffffffffffffffffffff1673ffffffffffffffffffffffffffffffffffffffff16634af5fb0f33326040518363ffffffff1660e01b8152600401808373ffffffffffffffffffffffffffffffffffffffff1673ffffffffffffffffffffffffffffffffffffffff1681526020018273ffffffffffffffffffffffffffffffffffffffff1673ffffffffffffffffffffffffffffffffffffffff1681526020019250505060206040518083038186803b158015610f0957600080fd5b505afa158015610f1d573d6000803e3d6000fd5b505050506040513d6020811015610f3357600080fd5b8101908080519060200190929190505050610f4d57600080fd5b73__MacroverseSystemGeneratorPart2________6396ab5ec784846040518363ffffffff1660e01b8152600401808381526020018261ffff1661ffff1681526020019250505060206040518083038186803b158015610fac57600080fd5b505af4158015610fc0573d6000803e3d6000fd5b505050506040513d6020811015610fd657600080fd5b8101908080519060200190929190505050905092915050565b6000600160009054906101000a900473ffffffffffffffffffffffffffffffffffffffff1673ffffffffffffffffffffffffffffffffffffffff16634af5fb0f33326040518363ffffffff1660e01b8152600401808373ffffffffffffffffffffffffffffffffffffffff1673ffffffffffffffffffffffffffffffffffffffff1681526020018273ffffffffffffffffffffffffffffffffffffffff1673ffffffffffffffffffffffffffffffffffffffff1681526020019250505060206040518083038186803b1580156110c457600080fd5b505afa1580156110d8573d6000803e3d6000fd5b505050506040513d60208110156110ee57600080fd5b810190808051906020019092919050505061110857600080fd5b73__MacroverseSystemGeneratorPart2________6399b64cf3836040518263ffffffff1660e01b81526004018082815260200191505060206040518083038186803b15801561115757600080fd5b505af415801561116b573d6000803e3d6000fd5b505050506040513d602081101561118157600080fd5b81019080805190602001909291905050509050919050565b600080600160009054906101000a900473ffffffffffffffffffffffffffffffffffffffff1673ffffffffffffffffffffffffffffffffffffffff16634af5fb0f33326040518363ffffffff1660e01b8152600401808373ffffffffffffffffffffffffffffffffffffffff1673ffffffffffffffffffffffffffffffffffffffff1681526020018273ffffffffffffffffffffffffffffffffffffffff1673ffffffffffffffffffffffffffffffffffffffff1681526020019250505060206040518083038186803b15801561126f57600080fd5b505afa158015611283573d6000803e3d6000fd5b505050506040513d602081101561129957600080fd5b81019080805190602001909291905050506112b357600080fd5b73__MacroverseSystemGeneratorPart2________639a8914bc85856040518363ffffffff1660e01b81526004018083600f0b600f0b815260200182600f0b600f0b815260200192505050604080518083038186803b15801561131557600080fd5b505af4158015611329573d6000803e3d6000fd5b505050506040513d604081101561133f57600080fd5b810190808051906020019092919080519060200190929190505050915091509250929050565b6000600160009054906101000a900473ffffffffffffffffffffffffffffffffffffffff1673ffffffffffffffffffffffffffffffffffffffff16634af5fb0f33326040518363ffffffff1660e01b8152600401808373ffffffffffffffffffffffffffffffffffffffff1673ffffffffffffffffffffffffffffffffffffffff1681526020018273ffffffffffffffffffffffffffffffffffffffff1673ffffffffffffffffffffffffffffffffffffffff1681526020019250505060206040518083038186803b15801561143a57600080fd5b505afa15801561144e573d6000803e3d6000fd5b505050506040513d602081101561146457600080fd5b810190808051906020019092919050505061147e57600080fd5b73__MacroverseSystemGeneratorPart2________63a3828ebe836040518263ffffffff1660e01b81526004018082815260200191505060206040518083038186803b1580156114cd57600080fd5b505af41580156114e1573d6000803e3d6000fd5b505050506040513d60208110156114f757600080fd5b81019080805190602001909291905050509050919050565b6000600160009054906101000a900473ffffffffffffffffffffffffffffffffffffffff1673ffffffffffffffffffffffffffffffffffffffff16634af5fb0f33326040518363ffffffff1660e01b8152600401808373ffffffffffffffffffffffffffffffffffffffff1673ffffffffffffffffffffffffffffffffffffffff1681526020018273ffffffffffffffffffffffffffffffffffffffff1673ffffffffffffffffffffffffffffffffffffffff1681526020019250505060206040518083038186803b1580156115e457600080fd5b505afa1580156115f8573d6000803e3d6000fd5b505050506040513d602081101561160e57600080fd5b810190808051906020019092919050505061162857600080fd5b73__MacroverseSystemGeneratorPart2________63b0810666836040518263ffffffff1660e01b81526004018082815260200191505060206040518083038186803b15801561167757600080fd5b505af415801561168b573d6000803e3d6000fd5b505050506040513d60208110156116a157600080fd5b81019080805190602001909291905050509050919050565b6000600160009054906101000a900473ffffffffffffffffffffffffffffffffffffffff1673ffffffffffffffffffffffffffffffffffffffff16634af5fb0f33326040518363ffffffff1660e01b8152600401808373ffffffffffffffffffffffffffffffffffffffff1673ffffffffffffffffffffffffffffffffffffffff1681526020018273ffffffffffffffffffffffffffffffffffffffff1673ffffffffffffffffffffffffffffffffffffffff1681526020019250505060206040518083038186803b15801561178e57600080fd5b505afa1580156117a2573d6000803e3d6000fd5b505050506040513d60208110156117b857600080fd5b81019080805190602001909291905050506117d257600080fd5b73__MacroverseSystemGeneratorPart1________63b8c1843684846040518363ffffffff1660e01b8152600401808381526020018261ffff1661ffff1681526020019250505060206040518083038186803b15801561183157600080fd5b505af4158015611845573d6000803e3d6000fd5b505050506040513d602081101561185b57600080fd5b8101908080519060200190929190505050905092915050565b6000600160009054906101000a900473ffffffffffffffffffffffffffffffffffffffff1673ffffffffffffffffffffffffffffffffffffffff16634af5fb0f33326040518363ffffffff1660e01b8152600401808373ffffffffffffffffffffffffffffffffffffffff1673ffffffffffffffffffffffffffffffffffffffff1681526020018273ffffffffffffffffffffffffffffffffffffffff1673ffffffffffffffffffffffffffffffffffffffff1681526020019250505060206040518083038186803b15801561194957600080fd5b505afa15801561195d573d6000803e3d6000fd5b505050506040513d602081101561197357600080fd5b810190808051906020019092919050505061198d57600080fd5b73__MacroverseSystemGeneratorPart1________63cc841c1d8585856040518463ffffffff1660e01b8152600401808481526020018361ffff1661ffff1681526020018261ffff1661ffff168152602001935050505060206040518083038186803b1580156119fc57600080fd5b505af4158015611a10573d6000803e3d6000fd5b505050506040513d6020811015611a2657600080fd5b810190808051906020019092919050505090509392505050565b6000600160009054906101000a900473ffffffffffffffffffffffffffffffffffffffff1673ffffffffffffffffffffffffffffffffffffffff16634af5fb0f33326040518363ffffffff1660e01b8152600401808373ffffffffffffffffffffffffffffffffffffffff1673ffffffffffffffffffffffffffffffffffffffff1681526020018273ffffffffffffffffffffffffffffffffffffffff1673ffffffffffffffffffffffffffffffffffffffff1681526020019250505060206040518083038186803b158015611b1557600080fd5b505afa158015611b29573d6000803e3d6000fd5b505050506040513d6020811015611b3f57600080fd5b8101908080519060200190929190505050611b5957600080fd5b73__MacroverseSystemGeneratorPart2________6350b8946584846040518363ffffffff1660e01b815260040180838152602001826009811115611b9a57fe5b60ff1681526020019250505060206040518083038186803b158015611bbe57600080fd5b505af4158015611bd2573d6000803e3d6000fd5b505050506040513d6020811015611be857600080fd5b8101908080519060200190929190505050905092915050565b6000600160009054906101000a900473ffffffffffffffffffffffffffffffffffffffff1673ffffffffffffffffffffffffffffffffffffffff16634af5fb0f33326040518363ffffffff1660e01b8152600401808373ffffffffffffffffffffffffffffffffffffffff1673ffffffffffffffffffffffffffffffffffffffff1681526020018273ffffffffffffffffffffffffffffffffffffffff1673ffffffffffffffffffffffffffffffffffffffff1681526020019250505060206040518083038186803b158015611cd657600080fd5b505afa158015611cea573d6000803e3d6000fd5b505050506040513d6020811015611d0057600080fd5b8101908080519060200190929190505050611d1a57600080fd5b73__MacroverseSystemGeneratorPart1________638ef76a0984846040518363ffffffff1660e01b815260040180838152602001826009811115611d5b57fe5b60ff1681526020019250505060206040518083038186803b158015611d7f57600080fd5b505af4158015611d93573d6000803e3d6000fd5b505050506040513d6020811015611da957600080fd5b8101908080519060200190929190505050905092915050565b611dca611fcf565b73ffffffffffffffffffffffffffffffffffffffff166000809054906101000a900473ffffffffffffffffffffffffffffffffffffffff1673ffffffffffffffffffffffffffffffffffffffff1614611e8b576040517f08c379a00000000000000000000000000000000000000000000000000000000081526004018080602001828103825260208152602001807f4f776e61626c653a2063616c6c6572206973206e6f7420746865206f776e657281525060200191505060405180910390fd5b600073ffffffffffffffffffffffffffffffffffffffff168173ffffffffffffffffffffffffffffffffffffffff161415611f11576040517f08c379a0000000000000000000000000000000000000000000000000000000008152600401808060200182810382526026815260200180611fd86026913960400191505060405180910390fd5b8073ffffffffffffffffffffffffffffffffffffffff166000809054906101000a900473ffffffffffffffffffffffffffffffffffffffff1673ffffffffffffffffffffffffffffffffffffffff167f8be0079c531659141344cd1fd0a4f28419497f9722a3daafe3b4186f6b6457e060405160405180910390a3806000806101000a81548173ffffffffffffffffffffffffffffffffffffffff021916908373ffffffffffffffffffffffffffffffffffffffff16021790555050565b60003390509056fe4f776e61626c653a206e6577206f776e657220697320746865207a65726f2061646472657373a26469706673582212200b6314542d04f77f137ae9024203827f795b9a373e95589203ff8e7aebc982c964736f6c634300060a0033",
  "immutableReferences": {},
  "source": "pragma solidity ^0.6.10;\n\nimport \"./AccessControl.sol\";\nimport \"./ControlledAccess.sol\";\n\nimport \"./Macroverse.sol\";\nimport \"./MacroverseSystemGeneratorPart1.sol\";\nimport \"./MacroverseSystemGeneratorPart2.sol\";\n\n/**\n * Represents a Macroverse generator for planetary systems around stars and\n * other stellar objects.\n *\n * Because of contract size limitations, some code in this contract is shared\n * between planets and moons, while some code is planet-specific. Moon-specific\n * code lives in the MacroverseMoonGenerator.\n *\n * Permission to call methods on this contract is regulated by a configurable\n * AccessControl contract. One such set of terms might be to require that the\n * account initiating a transaction have a certain minimum MRV token balance.\n *\n * The owner of this contract reserves the right to supersede it with a new\n * version, and to modify the terms for accessing this contract, at any time,\n * for any reason, and without notice. This includes the right to indefinitely\n * or permanently suspend or terminate access to this contract for any person,\n * account, or other contract, or for all persons, accounts, or other\n * contracts. The owner also reserves the right to not do any of the above.\n */\ncontract MacroverseSystemGenerator is ControlledAccess {\n    \n\n    /**\n     * Deploy a new copy of the MacroverseSystemGenerator.\n     */\n    constructor(address accessControlAddress) ControlledAccess(accessControlAddress) public {\n        // Nothing to do!\n    }\n    \n    /**\n     * Get the seed for a planet or moon from the seed for its parent (star or planet) and its child number.\n     */\n    function getWorldSeed(bytes32 parentSeed, uint16 childNumber) public view onlyControlledAccess returns (bytes32) {\n        return MacroverseSystemGeneratorPart1.getWorldSeed(parentSeed, childNumber);\n    }\n    \n    /**\n     * Decide what kind of planet a given planet is.\n     * It depends on its place in the order.\n     * Takes the *planet*'s seed, its number, and the total planets in the system.\n     */\n    function getPlanetClass(bytes32 seed, uint16 planetNumber, uint16 totalPlanets) public view onlyControlledAccess returns (Macroverse.WorldClass) {\n        return MacroverseSystemGeneratorPart1.getPlanetClass(seed, planetNumber, totalPlanets);\n    }\n    \n    /**\n     * Decide what the mass of the planet or moon is. We can't do even the mass of\n     * Jupiter in the ~88 bits we have in a real (should we have used int256 as\n     * the backing type?) so we work in Earth masses.\n     *\n     * Also produces the masses for moons.\n     */\n    function getWorldMass(bytes32 seed, Macroverse.WorldClass class) public view onlyControlledAccess returns (int128) {\n        return MacroverseSystemGeneratorPart1.getWorldMass(seed, class);\n    }\n    \n    // Define the orbit shape\n\n    /**\n     * Given the parent star's habitable zone bounds, the planet seed, the planet class\n     * to be generated, and the \"clearance\" radius around the previous planet\n     * in meters, produces orbit statistics (periapsis, apoapsis, and\n     * clearance) in meters.\n     *\n     * The first planet uses a previous clearance of 0.\n     *\n     * TODO: realOuterRadius from the habitable zone never gets used. We should remove it.\n     */\n    function getPlanetOrbitDimensions(int128 realInnerRadius, int128 realOuterRadius, bytes32 seed, Macroverse.WorldClass class, int128 realPrevClearance)\n        public view onlyControlledAccess returns (int128 realPeriapsis, int128 realApoapsis, int128 realClearance) {\n        \n        return MacroverseSystemGeneratorPart1.getPlanetOrbitDimensions(realInnerRadius, realOuterRadius, seed, class, realPrevClearance);\n    }\n\n    /**\n     * Convert from periapsis and apoapsis to semimajor axis and eccentricity.\n     */\n    function convertOrbitShape(int128 realPeriapsis, int128 realApoapsis) public view onlyControlledAccess returns (int128 realSemimajor, int128 realEccentricity) {\n        return MacroverseSystemGeneratorPart2.convertOrbitShape(realPeriapsis, realApoapsis);\n    }\n    \n    // Define the orbital plane\n    \n    /**\n     * Get the longitude of the ascending node for a planet or moon. For\n     * planets, this is the angle from system +X to ascending node. For\n     * moons, we use system +X transformed into the planet's equatorial plane\n     * by the equatorial plane/rotation axis angles.\n     */ \n    function getWorldLan(bytes32 seed) public view onlyControlledAccess returns (int128) {\n        return MacroverseSystemGeneratorPart2.getWorldLan(seed);\n    }\n    \n    /**\n     * Get the inclination (angle from system XZ plane to orbital plane at the ascending node) for a planet.\n     * For a moon, this is done in the moon generator instead.\n     * Inclination is always positive. If it were negative, the ascending node would really be the descending node.\n     * Result is a real in radians.\n     */ \n    function getPlanetInclination(bytes32 seed, Macroverse.WorldClass class) public view onlyControlledAccess returns (int128) {\n        return MacroverseSystemGeneratorPart2.getPlanetInclination(seed, class);\n    }\n    \n    // Define the orbit's embedding in the plane (and in time)\n    \n    /**\n     * Get the argument of periapsis (angle from ascending node to periapsis position, in the orbital plane) for a planet or moon.\n     */\n    function getWorldAop(bytes32 seed) public view onlyControlledAccess returns (int128) {\n        return MacroverseSystemGeneratorPart2.getWorldAop(seed);\n    }\n    \n    /**\n     * Get the mean anomaly (which sweeps from 0 at periapsis to 2 pi at the next periapsis) at epoch (time 0) for a planet or moon.\n     */\n    function getWorldMeanAnomalyAtEpoch(bytes32 seed) public view onlyControlledAccess returns (int128) {\n        return MacroverseSystemGeneratorPart2.getWorldMeanAnomalyAtEpoch(seed);\n    }\n\n    /**\n     * Determine if the world is tidally locked, given its seed and its number\n     * out from the parent, starting with 0.\n     * Overrides getWorldZXAxisAngles and getWorldSpinRate. \n     * Not used for asteroid belts or rings.\n     */\n    function isTidallyLocked(bytes32 seed, uint16 worldNumber) public view onlyControlledAccess returns (bool) {\n        return MacroverseSystemGeneratorPart2.isTidallyLocked(seed, worldNumber);\n    }\n\n    /**\n     * Get the Y and X axis angles for a world, in radians.\n     * The world's rotation axis starts straight up in its orbital plane.\n     * Then the planet is rotated in Y, around the axis by the Y angle.\n     * Then it is rotated forward (what would be toward the viewer) in the\n     * world's transformed X by the X axis angle.\n     * Both angles are in radians.\n     * The X angle is never negative, because the Y angle would just be the opposite direction.\n     * It is also never greater than Pi, because otherwise we would just measure around the other way.\n     * Not used for asteroid belts or rings.\n     * For a tidally locked world, ignore these values and use 0 for both angles.\n     */\n    function getWorldYXAxisAngles(bytes32 seed) public view onlyControlledAccess returns (int128 realYRadians, int128 realXRadians) {\n        return MacroverseSystemGeneratorPart2.getWorldYXAxisAngles(seed); \n    }\n\n    /**\n     * Get the spin rate of the world in radians per Julian year around its axis.\n     * For a tidally locked world, ignore this value and use the mean angular\n     * motion computed by the OrbitalMechanics contract, given the orbit\n     * details.\n     * Not used for asteroid belts or rings.\n     */\n    function getWorldSpinRate(bytes32 seed) public view onlyControlledAccess returns (int128) {\n        return MacroverseSystemGeneratorPart2.getWorldSpinRate(seed);\n    }\n\n}\n\n// SPDX-License-Identifier: UNLICENSED\n",
  "sourcePath": "/z/home/anovak/workspace/macroverse/contracts/MacroverseSystemGenerator.sol",
  "compiler": {
    "name": "solc",
    "version": "0.6.10+commit.00c0fcaf.Emscripten.clang"
  },
  "schemaVersion": "3.1.0",
  "updatedAt": "2020-09-04T05:29:09.642Z",
  "devdoc": {
    "methods": {
      "owner()": {
        "details": "Returns the address of the current owner."
      },
      "renounceOwnership()": {
        "details": "Leaves the contract without owner. It will not be possible to call `onlyOwner` functions anymore. Can only be called by the current owner. NOTE: Renouncing ownership will leave the contract without an owner, thereby removing any functionality that is only available to the owner."
      },
      "transferOwnership(address)": {
        "details": "Transfers ownership of the contract to a new account (`newOwner`). Can only be called by the current owner."
      }
    }
  },
  "userdoc": {
    "methods": {
      "changeAccessControl(address)": {
        "notice": "Change the access control strategy of the prototype."
      },
      "constructor": "Deploy a new copy of the MacroverseSystemGenerator.",
      "convertOrbitShape(int128,int128)": {
        "notice": "Convert from periapsis and apoapsis to semimajor axis and eccentricity."
      },
      "getPlanetClass(bytes32,uint16,uint16)": {
        "notice": "Decide what kind of planet a given planet is. It depends on its place in the order. Takes the *planet*'s seed, its number, and the total planets in the system."
      },
      "getPlanetInclination(bytes32,uint8)": {
        "notice": "Get the inclination (angle from system XZ plane to orbital plane at the ascending node) for a planet. For a moon, this is done in the moon generator instead. Inclination is always positive. If it were negative, the ascending node would really be the descending node. Result is a real in radians."
      },
      "getPlanetOrbitDimensions(int128,int128,bytes32,uint8,int128)": {
        "notice": "Given the parent star's habitable zone bounds, the planet seed, the planet class to be generated, and the \"clearance\" radius around the previous planet in meters, produces orbit statistics (periapsis, apoapsis, and clearance) in meters. The first planet uses a previous clearance of 0. TODO: realOuterRadius from the habitable zone never gets used. We should remove it."
      },
      "getWorldAop(bytes32)": {
        "notice": "Get the argument of periapsis (angle from ascending node to periapsis position, in the orbital plane) for a planet or moon."
      },
      "getWorldLan(bytes32)": {
        "notice": "Get the longitude of the ascending node for a planet or moon. For planets, this is the angle from system +X to ascending node. For moons, we use system +X transformed into the planet's equatorial plane by the equatorial plane/rotation axis angles."
      },
      "getWorldMass(bytes32,uint8)": {
        "notice": "Decide what the mass of the planet or moon is. We can't do even the mass of Jupiter in the ~88 bits we have in a real (should we have used int256 as the backing type?) so we work in Earth masses. Also produces the masses for moons."
      },
      "getWorldMeanAnomalyAtEpoch(bytes32)": {
        "notice": "Get the mean anomaly (which sweeps from 0 at periapsis to 2 pi at the next periapsis) at epoch (time 0) for a planet or moon."
      },
      "getWorldSeed(bytes32,uint16)": {
        "notice": "Get the seed for a planet or moon from the seed for its parent (star or planet) and its child number."
      },
      "getWorldSpinRate(bytes32)": {
        "notice": "Get the spin rate of the world in radians per Julian year around its axis. For a tidally locked world, ignore this value and use the mean angular motion computed by the OrbitalMechanics contract, given the orbit details. Not used for asteroid belts or rings."
      },
      "getWorldYXAxisAngles(bytes32)": {
        "notice": "Get the Y and X axis angles for a world, in radians. The world's rotation axis starts straight up in its orbital plane. Then the planet is rotated in Y, around the axis by the Y angle. Then it is rotated forward (what would be toward the viewer) in the world's transformed X by the X axis angle. Both angles are in radians. The X angle is never negative, because the Y angle would just be the opposite direction. It is also never greater than Pi, because otherwise we would just measure around the other way. Not used for asteroid belts or rings. For a tidally locked world, ignore these values and use 0 for both angles."
      },
      "isTidallyLocked(bytes32,uint16)": {
        "notice": "Determine if the world is tidally locked, given its seed and its number out from the parent, starting with 0. Overrides getWorldZXAxisAngles and getWorldSpinRate.  Not used for asteroid belts or rings."
      }
    },
    "notice": "Represents a Macroverse generator for planetary systems around stars and other stellar objects. Because of contract size limitations, some code in this contract is shared between planets and moons, while some code is planet-specific. Moon-specific code lives in the MacroverseMoonGenerator. Permission to call methods on this contract is regulated by a configurable AccessControl contract. One such set of terms might be to require that the account initiating a transaction have a certain minimum MRV token balance. The owner of this contract reserves the right to supersede it with a new version, and to modify the terms for accessing this contract, at any time, for any reason, and without notice. This includes the right to indefinitely or permanently suspend or terminate access to this contract for any person, account, or other contract, or for all persons, accounts, or other contracts. The owner also reserves the right to not do any of the above."
  }
}