{
  "contractName": "MinimumBalanceAccessControl",
  "abi": [
    {
      "inputs": [
        {
          "name": "tokenAddress_",
          "type": "address"
        },
        {
          "name": "minBalanceInAtomicUnits_",
          "type": "uint256"
        }
      ],
      "payable": false,
      "stateMutability": "nonpayable",
      "type": "constructor"
    },
    {
      "constant": true,
      "inputs": [
        {
          "name": "",
          "type": "address"
        },
        {
          "name": "origin",
          "type": "address"
        }
      ],
      "name": "allowQuery",
      "outputs": [
        {
          "name": "",
          "type": "bool"
        }
      ],
      "payable": false,
      "stateMutability": "view",
      "type": "function"
    }
  ],
  "bytecode": "0x608060405234801561001057600080fd5b506040516040806102728339810180604052604081101561003057600080fd5b810190808051906020019092919080519060200190929190505050816000806101000a81548173ffffffffffffffffffffffffffffffffffffffff021916908373ffffffffffffffffffffffffffffffffffffffff1602179055508060018190555050506101cf806100a36000396000f3fe608060405234801561001057600080fd5b506004361061002b5760003560e01c80634af5fb0f14610030575b600080fd5b6100926004803603604081101561004657600080fd5b81019080803573ffffffffffffffffffffffffffffffffffffffff169060200190929190803573ffffffffffffffffffffffffffffffffffffffff1690602001909291905050506100ac565b604051808215151515815260200191505060405180910390f35b60006001546000809054906101000a900473ffffffffffffffffffffffffffffffffffffffff1673ffffffffffffffffffffffffffffffffffffffff166370a08231846040518263ffffffff1660e01b8152600401808273ffffffffffffffffffffffffffffffffffffffff1673ffffffffffffffffffffffffffffffffffffffff16815260200191505060206040518083038186803b15801561014f57600080fd5b505afa158015610163573d6000803e3d6000fd5b505050506040513d602081101561017957600080fd5b810190808051906020019092919050505010610198576001905061019d565b600090505b9291505056fea165627a7a72305820fb25a631fe6bd9549973898c96640b2a42b92b2b2e3821903eeb56907aa81a3c0029",
  "source": "pragma solidity ^0.5.2;\n\nimport \"openzeppelin-solidity/contracts/token/ERC20/IERC20.sol\";\n\nimport \"./AccessControl.sol\";\n\n\n/**\n * Represents an access control strategy where any end user (origin) with a minimum balance in an ERC20 token is allowed.\n */\ncontract MinimumBalanceAccessControl {\n    IERC20 tokenAddress;\n    uint minBalanceInAtomicUnits;\n    \n    /**\n     * Make a new MinimumBalanceAccessControl that requires the specified minimum balance of the specified token.\n     */\n    constructor(address tokenAddress_, uint minBalanceInAtomicUnits_) public {\n        tokenAddress = IERC20(tokenAddress_);\n        minBalanceInAtomicUnits = minBalanceInAtomicUnits_;\n    }\n    \n    /**\n     * Allow all queries resulting from a transaction initiated from an origin address with at least the required minimum balance.\n     * This means that any contract you use can make queries on your behalf, but that no contract with the minimum balance can proxy\n     * queries for others.\n     */\n    function allowQuery(address /* sender */, address origin) public view returns (bool) {\n        if (tokenAddress.balanceOf(origin) >= minBalanceInAtomicUnits) {\n            return true;\n        }\n        return false;\n    }\n}\n",
  "sourcePath": "/Users/anovak/Documents/Workspace/macroverse/contracts/MinimumBalanceAccessControl.sol",
  "compiler": {
    "name": "solc",
    "version": "0.5.8+commit.23d335f2.Emscripten.clang"
  },
  "schemaVersion": "3.0.16",
  "updatedAt": "2020-01-10T05:18:25.181Z",
  "devdoc": {
    "methods": {}
  },
  "userdoc": {
    "methods": {
      "allowQuery(address,address)": {
        "notice": "Allow all queries resulting from a transaction initiated from an origin address with at least the required minimum balance. This means that any contract you use can make queries on your behalf, but that no contract with the minimum balance can proxy queries for others."
      },
      "constructor": "Make a new MinimumBalanceAccessControl that requires the specified minimum balance of the specified token."
    },
    "notice": "Represents an access control strategy where any end user (origin) with a minimum balance in an ERC20 token is allowed."
  }
}