{
  "contractName": "MRVToken",
  "abi": [
    {
      "inputs": [
        {
          "internalType": "address payable",
          "name": "sendProceedsTo",
          "type": "address"
        },
        {
          "internalType": "address",
          "name": "sendTokensTo",
          "type": "address"
        }
      ],
      "payable": false,
      "stateMutability": "nonpayable",
      "type": "constructor"
    },
    {
      "anonymous": false,
      "inputs": [
        {
          "indexed": true,
          "internalType": "address",
          "name": "owner",
          "type": "address"
        },
        {
          "indexed": true,
          "internalType": "address",
          "name": "spender",
          "type": "address"
        },
        {
          "indexed": false,
          "internalType": "uint256",
          "name": "value",
          "type": "uint256"
        }
      ],
      "name": "Approval",
      "type": "event"
    },
    {
      "anonymous": false,
      "inputs": [
        {
          "indexed": false,
          "internalType": "uint256",
          "name": "time",
          "type": "uint256"
        }
      ],
      "name": "CrowdsaleClose",
      "type": "event"
    },
    {
      "anonymous": false,
      "inputs": [
        {
          "indexed": false,
          "internalType": "uint256",
          "name": "time",
          "type": "uint256"
        }
      ],
      "name": "CrowdsaleOpen",
      "type": "event"
    },
    {
      "anonymous": false,
      "inputs": [
        {
          "indexed": false,
          "internalType": "uint8",
          "name": "newDecimals",
          "type": "uint8"
        }
      ],
      "name": "DecimalChange",
      "type": "event"
    },
    {
      "anonymous": false,
      "inputs": [
        {
          "indexed": true,
          "internalType": "address",
          "name": "previousOwner",
          "type": "address"
        },
        {
          "indexed": true,
          "internalType": "address",
          "name": "newOwner",
          "type": "address"
        }
      ],
      "name": "OwnershipTransferred",
      "type": "event"
    },
    {
      "anonymous": false,
      "inputs": [
        {
          "indexed": false,
          "internalType": "uint256",
          "name": "time",
          "type": "uint256"
        },
        {
          "indexed": false,
          "internalType": "uint256",
          "name": "etherAmount",
          "type": "uint256"
        },
        {
          "indexed": false,
          "internalType": "address",
          "name": "from",
          "type": "address"
        }
      ],
      "name": "TokenPurchase",
      "type": "event"
    },
    {
      "anonymous": false,
      "inputs": [
        {
          "indexed": true,
          "internalType": "address",
          "name": "from",
          "type": "address"
        },
        {
          "indexed": true,
          "internalType": "address",
          "name": "to",
          "type": "address"
        },
        {
          "indexed": false,
          "internalType": "uint256",
          "name": "value",
          "type": "uint256"
        }
      ],
      "name": "Transfer",
      "type": "event"
    },
    {
      "payable": true,
      "stateMutability": "payable",
      "type": "fallback"
    },
    {
      "constant": true,
      "inputs": [
        {
          "internalType": "address",
          "name": "owner",
          "type": "address"
        },
        {
          "internalType": "address",
          "name": "spender",
          "type": "address"
        }
      ],
      "name": "allowance",
      "outputs": [
        {
          "internalType": "uint256",
          "name": "",
          "type": "uint256"
        }
      ],
      "payable": false,
      "stateMutability": "view",
      "type": "function"
    },
    {
      "constant": false,
      "inputs": [
        {
          "internalType": "address",
          "name": "spender",
          "type": "address"
        },
        {
          "internalType": "uint256",
          "name": "amount",
          "type": "uint256"
        }
      ],
      "name": "approve",
      "outputs": [
        {
          "internalType": "bool",
          "name": "",
          "type": "bool"
        }
      ],
      "payable": false,
      "stateMutability": "nonpayable",
      "type": "function"
    },
    {
      "constant": true,
      "inputs": [
        {
          "internalType": "address",
          "name": "account",
          "type": "address"
        }
      ],
      "name": "balanceOf",
      "outputs": [
        {
          "internalType": "uint256",
          "name": "",
          "type": "uint256"
        }
      ],
      "payable": false,
      "stateMutability": "view",
      "type": "function"
    },
    {
      "constant": true,
      "inputs": [],
      "name": "closeTimer",
      "outputs": [
        {
          "internalType": "uint256",
          "name": "",
          "type": "uint256"
        }
      ],
      "payable": false,
      "stateMutability": "view",
      "type": "function"
    },
    {
      "constant": true,
      "inputs": [],
      "name": "decimals",
      "outputs": [
        {
          "internalType": "uint8",
          "name": "",
          "type": "uint8"
        }
      ],
      "payable": false,
      "stateMutability": "view",
      "type": "function"
    },
    {
      "constant": true,
      "inputs": [],
      "name": "isOwner",
      "outputs": [
        {
          "internalType": "bool",
          "name": "",
          "type": "bool"
        }
      ],
      "payable": false,
      "stateMutability": "view",
      "type": "function"
    },
    {
      "constant": true,
      "inputs": [],
      "name": "maxCrowdsaleSupplyInWholeTokens",
      "outputs": [
        {
          "internalType": "uint256",
          "name": "",
          "type": "uint256"
        }
      ],
      "payable": false,
      "stateMutability": "view",
      "type": "function"
    },
    {
      "constant": true,
      "inputs": [],
      "name": "name",
      "outputs": [
        {
          "internalType": "string",
          "name": "",
          "type": "string"
        }
      ],
      "payable": false,
      "stateMutability": "view",
      "type": "function"
    },
    {
      "constant": true,
      "inputs": [],
      "name": "openTimer",
      "outputs": [
        {
          "internalType": "uint256",
          "name": "",
          "type": "uint256"
        }
      ],
      "payable": false,
      "stateMutability": "view",
      "type": "function"
    },
    {
      "constant": true,
      "inputs": [],
      "name": "owner",
      "outputs": [
        {
          "internalType": "address",
          "name": "",
          "type": "address"
        }
      ],
      "payable": false,
      "stateMutability": "view",
      "type": "function"
    },
    {
      "constant": false,
      "inputs": [
        {
          "internalType": "address",
          "name": "contractAddr",
          "type": "address"
        }
      ],
      "name": "reclaimContract",
      "outputs": [],
      "payable": false,
      "stateMutability": "nonpayable",
      "type": "function"
    },
    {
      "constant": false,
      "inputs": [
        {
          "internalType": "address",
          "name": "tokenAddr",
          "type": "address"
        }
      ],
      "name": "reclaimToken",
      "outputs": [],
      "payable": false,
      "stateMutability": "nonpayable",
      "type": "function"
    },
    {
      "constant": false,
      "inputs": [],
      "name": "renounceOwnership",
      "outputs": [],
      "payable": false,
      "stateMutability": "nonpayable",
      "type": "function"
    },
    {
      "constant": true,
      "inputs": [],
      "name": "symbol",
      "outputs": [
        {
          "internalType": "string",
          "name": "",
          "type": "string"
        }
      ],
      "payable": false,
      "stateMutability": "view",
      "type": "function"
    },
    {
      "constant": true,
      "inputs": [
        {
          "internalType": "address",
          "name": "",
          "type": "address"
        },
        {
          "internalType": "uint256",
          "name": "",
          "type": "uint256"
        },
        {
          "internalType": "bytes",
          "name": "",
          "type": "bytes"
        }
      ],
      "name": "tokenFallback",
      "outputs": [],
      "payable": false,
      "stateMutability": "pure",
      "type": "function"
    },
    {
      "constant": true,
      "inputs": [],
      "name": "totalSupply",
      "outputs": [
        {
          "internalType": "uint256",
          "name": "",
          "type": "uint256"
        }
      ],
      "payable": false,
      "stateMutability": "view",
      "type": "function"
    },
    {
      "constant": false,
      "inputs": [
        {
          "internalType": "address",
          "name": "recipient",
          "type": "address"
        },
        {
          "internalType": "uint256",
          "name": "amount",
          "type": "uint256"
        }
      ],
      "name": "transfer",
      "outputs": [
        {
          "internalType": "bool",
          "name": "",
          "type": "bool"
        }
      ],
      "payable": false,
      "stateMutability": "nonpayable",
      "type": "function"
    },
    {
      "constant": false,
      "inputs": [
        {
          "internalType": "address",
          "name": "sender",
          "type": "address"
        },
        {
          "internalType": "address",
          "name": "recipient",
          "type": "address"
        },
        {
          "internalType": "uint256",
          "name": "amount",
          "type": "uint256"
        }
      ],
      "name": "transferFrom",
      "outputs": [
        {
          "internalType": "bool",
          "name": "",
          "type": "bool"
        }
      ],
      "payable": false,
      "stateMutability": "nonpayable",
      "type": "function"
    },
    {
      "constant": false,
      "inputs": [
        {
          "internalType": "address",
          "name": "newOwner",
          "type": "address"
        }
      ],
      "name": "transferOwnership",
      "outputs": [],
      "payable": false,
      "stateMutability": "nonpayable",
      "type": "function"
    },
    {
      "constant": true,
      "inputs": [],
      "name": "wholeTokensPerEth",
      "outputs": [
        {
          "internalType": "uint256",
          "name": "",
          "type": "uint256"
        }
      ],
      "payable": false,
      "stateMutability": "view",
      "type": "function"
    },
    {
      "constant": true,
      "inputs": [],
      "name": "wholeTokensReserved",
      "outputs": [
        {
          "internalType": "uint256",
          "name": "",
          "type": "uint256"
        }
      ],
      "payable": false,
      "stateMutability": "view",
      "type": "function"
    },
    {
      "constant": true,
      "inputs": [],
      "name": "openTimerElapsed",
      "outputs": [
        {
          "internalType": "bool",
          "name": "",
          "type": "bool"
        }
      ],
      "payable": false,
      "stateMutability": "view",
      "type": "function"
    },
    {
      "constant": true,
      "inputs": [],
      "name": "closeTimerElapsed",
      "outputs": [
        {
          "internalType": "bool",
          "name": "",
          "type": "bool"
        }
      ],
      "payable": false,
      "stateMutability": "view",
      "type": "function"
    },
    {
      "constant": false,
      "inputs": [],
      "name": "checkOpenTimer",
      "outputs": [],
      "payable": false,
      "stateMutability": "nonpayable",
      "type": "function"
    },
    {
      "constant": false,
      "inputs": [],
      "name": "checkCloseTimer",
      "outputs": [],
      "payable": false,
      "stateMutability": "nonpayable",
      "type": "function"
    },
    {
      "constant": true,
      "inputs": [],
      "name": "isCrowdsaleActive",
      "outputs": [
        {
          "internalType": "bool",
          "name": "",
          "type": "bool"
        }
      ],
      "payable": false,
      "stateMutability": "view",
      "type": "function"
    },
    {
      "constant": false,
      "inputs": [
        {
          "internalType": "uint256",
          "name": "newMaxInWholeTokens",
          "type": "uint256"
        }
      ],
      "name": "setMaxSupply",
      "outputs": [],
      "payable": false,
      "stateMutability": "nonpayable",
      "type": "function"
    },
    {
      "constant": false,
      "inputs": [],
      "name": "openCrowdsale",
      "outputs": [],
      "payable": false,
      "stateMutability": "nonpayable",
      "type": "function"
    },
    {
      "constant": false,
      "inputs": [
        {
          "internalType": "uint256",
          "name": "minutesFromNow",
          "type": "uint256"
        }
      ],
      "name": "setCrowdsaleOpenTimerFor",
      "outputs": [],
      "payable": false,
      "stateMutability": "nonpayable",
      "type": "function"
    },
    {
      "constant": false,
      "inputs": [],
      "name": "clearCrowdsaleOpenTimer",
      "outputs": [],
      "payable": false,
      "stateMutability": "nonpayable",
      "type": "function"
    },
    {
      "constant": false,
      "inputs": [
        {
          "internalType": "uint256",
          "name": "minutesFromNow",
          "type": "uint256"
        }
      ],
      "name": "setCrowdsaleCloseTimerFor",
      "outputs": [],
      "payable": false,
      "stateMutability": "nonpayable",
      "type": "function"
    },
    {
      "constant": false,
      "inputs": [],
      "name": "clearCrowdsaleCloseTimer",
      "outputs": [],
      "payable": false,
      "stateMutability": "nonpayable",
      "type": "function"
    },
    {
      "constant": false,
      "inputs": [],
      "name": "closeCrowdsale",
      "outputs": [],
      "payable": false,
      "stateMutability": "nonpayable",
      "type": "function"
    },
    {
      "constant": false,
      "inputs": [
        {
          "internalType": "uint8",
          "name": "newDecimals",
          "type": "uint8"
        }
      ],
      "name": "setDecimals",
      "outputs": [],
      "payable": false,
      "stateMutability": "nonpayable",
      "type": "function"
    },
    {
      "constant": false,
      "inputs": [],
      "name": "reclaimEther",
      "outputs": [],
      "payable": false,
      "stateMutability": "nonpayable",
      "type": "function"
    },
    {
      "constant": false,
      "inputs": [
        {
          "internalType": "address",
          "name": "",
          "type": "address"
        },
        {
          "internalType": "uint256",
          "name": "",
          "type": "uint256"
        }
      ],
      "name": "increaseAllowance",
      "outputs": [
        {
          "internalType": "bool",
          "name": "",
          "type": "bool"
        }
      ],
      "payable": false,
      "stateMutability": "nonpayable",
      "type": "function"
    },
    {
      "constant": false,
      "inputs": [
        {
          "internalType": "address",
          "name": "",
          "type": "address"
        },
        {
          "internalType": "uint256",
          "name": "",
          "type": "uint256"
        }
      ],
      "name": "decreaseAllowance",
      "outputs": [
        {
          "internalType": "bool",
          "name": "",
          "type": "bool"
        }
      ],
      "payable": false,
      "stateMutability": "nonpayable",
      "type": "function"
    }
  ],
  "bytecode": "0x6080604052600060075560006008553480156200001b57600080fd5b5060405162002d8b38038062002d8b833981810160405260408110156200004157600080fd5b81019080805190602001909291908051906020019092919050505060006200006e620001d160201b60201c565b905080600360006101000a81548173ffffffffffffffffffffffffffffffffffffffff021916908373ffffffffffffffffffffffffffffffffffffffff1602179055508073ffffffffffffffffffffffffffffffffffffffff16600073ffffffffffffffffffffffffffffffffffffffff167f8be0079c531659141344cd1fd0a4f28419497f9722a3daafe3b4186f6b6457e060405160405180910390a35081600460006101000a81548173ffffffffffffffffffffffffffffffffffffffff021916908373ffffffffffffffffffffffffffffffffffffffff1602179055506012600360146101000a81548160ff021916908360ff1602179055506200018881670de0b6b3a764000061138802620001d960201b60201c565b6000600660006101000a81548160ff0219169083151502179055506000600660016101000a81548160ff0219169083151502179055506305f5e10060058190555050506200042c565b600033905090565b600073ffffffffffffffffffffffffffffffffffffffff168273ffffffffffffffffffffffffffffffffffffffff1614156200027d576040517f08c379a000000000000000000000000000000000000000000000000000000000815260040180806020018281038252601f8152602001807f45524332303a206d696e7420746f20746865207a65726f20616464726573730081525060200191505060405180910390fd5b6200029981600254620003a360201b62001ef91790919060201c565b600281905550620002f7816000808573ffffffffffffffffffffffffffffffffffffffff1673ffffffffffffffffffffffffffffffffffffffff16815260200190815260200160002054620003a360201b62001ef91790919060201c565b6000808473ffffffffffffffffffffffffffffffffffffffff1673ffffffffffffffffffffffffffffffffffffffff168152602001908152602001600020819055508173ffffffffffffffffffffffffffffffffffffffff16600073ffffffffffffffffffffffffffffffffffffffff167fddf252ad1be2c89b69c2b068fc378daa952ba7f163c4a11628f55a4df523b3ef836040518082815260200191505060405180910390a35050565b60008082840190508381101562000422576040517f08c379a000000000000000000000000000000000000000000000000000000000815260040180806020018281038252601b8152602001807f536166654d6174683a206164646974696f6e206f766572666c6f77000000000081525060200191505060405180910390fd5b8091505092915050565b61294f806200043c6000396000f3fe60806040526004361061021a5760003560e01c8063715018a611610123578063983c0a01116100ab578063dd3260fc1161006f578063dd3260fc14610b0a578063dd62ed3e14610b21578063e330a73714610ba6578063ea66363114610be1578063f2fde38b14610c105761021a565b8063983c0a01146109465780639f727c271461095d578063a457c2d714610974578063a9059cbb146109e7578063c0ee0b8a14610a5a5761021a565b80638490d598116100f25780638490d598146107da5780638da5cb5b146108055780638f32d59b1461085c57806392f351f91461088b57806395d89b41146108b65761021a565b8063715018a61461071b57806379d220ae146107325780637a1395aa1461076d57806380f4531f146107ab5761021a565b80632aed7f3f116101a65780634e15dfe9116101755780634e15dfe91461060e5780635da24f90146106395780636d6e2710146106645780636f8b44b01461067b57806370a08231146106b65761021a565b80632aed7f3f146104ee578063313ce5671461053f578063346fc0dd14610570578063395093511461059b5761021a565b806317ffc320116101ed57806317ffc320146103b157806318160ddd146104025780631f4425f31461042d57806323b872dd1461044457806328ef6f40146104d75761021a565b80630118e6861461026857806306fdde0314610297578063095ea7b3146103275780630d051c521461039a575b610222610c61565b61022a610ccb565b600660019054906101000a900460ff161561024457600080fd5b600660009054906101000a900460ff1661025d57600080fd5b61026633610d35565b005b34801561027457600080fd5b5061027d610ebc565b604051808215151515815260200191505060405180910390f35b3480156102a357600080fd5b506102ac610f0a565b6040518080602001828103825283818151815260200191508051906020019080838360005b838110156102ec5780820151818401526020810190506102d1565b50505050905090810190601f1680156103195780820380516001836020036101000a031916815260200191505b509250505060405180910390f35b34801561033357600080fd5b506103806004803603604081101561034a57600080fd5b81019080803573ffffffffffffffffffffffffffffffffffffffff16906020019092919080359060200190929190505050610f43565b604051808215151515815260200191505060405180910390f35b3480156103a657600080fd5b506103af610f61565b005b3480156103bd57600080fd5b50610400600480360360208110156103d457600080fd5b81019080803573ffffffffffffffffffffffffffffffffffffffff169060200190929190505050611007565b005b34801561040e57600080fd5b50610417611211565b6040518082815260200191505060405180910390f35b34801561043957600080fd5b50610442610ccb565b005b34801561045057600080fd5b506104bd6004803603606081101561046757600080fd5b81019080803573ffffffffffffffffffffffffffffffffffffffff169060200190929190803573ffffffffffffffffffffffffffffffffffffffff1690602001909291908035906020019092919050505061121b565b604051808215151515815260200191505060405180910390f35b3480156104e357600080fd5b506104ec6112f4565b005b3480156104fa57600080fd5b5061053d6004803603602081101561051157600080fd5b81019080803573ffffffffffffffffffffffffffffffffffffffff1690602001909291905050506113ec565b005b34801561054b57600080fd5b5061055461150d565b604051808260ff1660ff16815260200191505060405180910390f35b34801561057c57600080fd5b50610585611520565b6040518082815260200191505060405180910390f35b3480156105a757600080fd5b506105f4600480360360408110156105be57600080fd5b81019080803573ffffffffffffffffffffffffffffffffffffffff16906020019092919080359060200190929190505050611526565b604051808215151515815260200191505060405180910390f35b34801561061a57600080fd5b5061062361152d565b6040518082815260200191505060405180910390f35b34801561064557600080fd5b5061064e611533565b6040518082815260200191505060405180910390f35b34801561067057600080fd5b50610679611539565b005b34801561068757600080fd5b506106b46004803603602081101561069e57600080fd5b81019080803590602001909291905050506115df565b005b3480156106c257600080fd5b50610705600480360360208110156106d957600080fd5b81019080803573ffffffffffffffffffffffffffffffffffffffff169060200190929190505050611685565b6040518082815260200191505060405180910390f35b34801561072757600080fd5b506107306116cd565b005b34801561073e57600080fd5b5061076b6004803603602081101561075557600080fd5b8101908080359060200190929190505050611808565b005b34801561077957600080fd5b506107a96004803603602081101561079057600080fd5b81019080803560ff1690602001909291905050506118b3565b005b3480156107b757600080fd5b506107c06119b8565b604051808215151515815260200191505060405180910390f35b3480156107e657600080fd5b506107ef6119d2565b6040518082815260200191505060405180910390f35b34801561081157600080fd5b5061081a6119d8565b604051808273ffffffffffffffffffffffffffffffffffffffff1673ffffffffffffffffffffffffffffffffffffffff16815260200191505060405180910390f35b34801561086857600080fd5b50610871611a02565b604051808215151515815260200191505060405180910390f35b34801561089757600080fd5b506108a0611a61565b6040518082815260200191505060405180910390f35b3480156108c257600080fd5b506108cb611a67565b6040518080602001828103825283818151815260200191508051906020019080838360005b8381101561090b5780820151818401526020810190506108f0565b50505050905090810190601f1680156109385780820380516001836020036101000a031916815260200191505b509250505060405180910390f35b34801561095257600080fd5b5061095b611aa0565b005b34801561096957600080fd5b50610972611bb9565b005b34801561098057600080fd5b506109cd6004803603604081101561099757600080fd5b81019080803573ffffffffffffffffffffffffffffffffffffffff16906020019092919080359060200190929190505050611c77565b604051808215151515815260200191505060405180910390f35b3480156109f357600080fd5b50610a4060048036036040811015610a0a57600080fd5b81019080803573ffffffffffffffffffffffffffffffffffffffff16906020019092919080359060200190929190505050611c7e565b604051808215151515815260200191505060405180910390f35b348015610a6657600080fd5b50610b0860048036036060811015610a7d57600080fd5b81019080803573ffffffffffffffffffffffffffffffffffffffff1690602001909291908035906020019092919080359060200190640100000000811115610ac457600080fd5b820183602082011115610ad657600080fd5b80359060200191846001830284011164010000000083111715610af857600080fd5b9091929391929390505050611c9c565b005b348015610b1657600080fd5b50610b1f610c61565b005b348015610b2d57600080fd5b50610b9060048036036040811015610b4457600080fd5b81019080803573ffffffffffffffffffffffffffffffffffffffff169060200190929190803573ffffffffffffffffffffffffffffffffffffffff169060200190929190505050611ca1565b6040518082815260200191505060405180910390f35b348015610bb257600080fd5b50610bdf60048036036020811015610bc957600080fd5b8101908080359060200190929190505050611d28565b005b348015610bed57600080fd5b50610bf6611dd3565b604051808215151515815260200191505060405180910390f35b348015610c1c57600080fd5b50610c5f60048036036020811015610c3357600080fd5b81019080803573ffffffffffffffffffffffffffffffffffffffff169060200190929190505050611ded565b005b610c69611dd3565b15610cc9576001600660006101000a81548160ff02191690831515021790555060006007819055507ff82aa3c8d92a1044b702b0c9718bd99d353a4a85a215bdb4fe6c6a04b5f541e0426040518082815260200191505060405180910390a15b565b610cd36119b8565b15610d33576001600660016101000a81548160ff02191690831515021790555060006008819055507f99424d4740b41446c45fa894e3dda8489b8ef8df8a37f8035f83053ed26485c1426040518082815260200191505060405180910390a15b565b610d3d610c61565b610d45610ccb565b600660019054906101000a900460ff1615610d5f57600080fd5b600660009054906101000a900460ff16610d7857600080fd5b6000341415610d8657600080fd5b6000610d9d61138834611e7390919063ffffffff16565b90506000610dbb82610dad611211565b611ef990919063ffffffff16565b9050670de0b6b3a76400006005546113880102811115610dda57600080fd5b610de48383611f81565b7fd240e127ddfc99c27bdd1c45b264d1954a1e2bdb17a4c37e81586fd141288261423485604051808481526020018381526020018273ffffffffffffffffffffffffffffffffffffffff1673ffffffffffffffffffffffffffffffffffffffff168152602001935050505060405180910390a1600460009054906101000a900473ffffffffffffffffffffffffffffffffffffffff1673ffffffffffffffffffffffffffffffffffffffff166108fc349081150290604051600060405180830381858888f19350505050610eb757600080fd5b505050565b6000600660009054906101000a900460ff1680610edd5750610edc611dd3565b5b8015610f055750600660019054906101000a900460ff1680610f035750610f026119b8565b5b155b905090565b6040518060400160405280601081526020017f4d6163726f766572736520546f6b656e0000000000000000000000000000000081525081565b6000610f57610f5061213c565b8484612144565b6001905092915050565b610f69611a02565b610fdb576040517f08c379a00000000000000000000000000000000000000000000000000000000081526004018080602001828103825260208152602001807f4f776e61626c653a2063616c6c6572206973206e6f7420746865206f776e657281525060200191505060405180910390fd5b610fe3610ccb565b600660019054906101000a900460ff1615610ffd57600080fd5b6000600881905550565b61100f611a02565b611081576040517f08c379a00000000000000000000000000000000000000000000000000000000081526004018080602001828103825260208152602001807f4f776e61626c653a2063616c6c6572206973206e6f7420746865206f776e657281525060200191505060405180910390fd5b600081905060008173ffffffffffffffffffffffffffffffffffffffff166370a08231306040518263ffffffff1660e01b8152600401808273ffffffffffffffffffffffffffffffffffffffff1673ffffffffffffffffffffffffffffffffffffffff16815260200191505060206040518083038186803b15801561110557600080fd5b505afa158015611119573d6000803e3d6000fd5b505050506040513d602081101561112f57600080fd5b810190808051906020019092919050505090508173ffffffffffffffffffffffffffffffffffffffff1663a9059cbb6111666119d8565b836040518363ffffffff1660e01b8152600401808373ffffffffffffffffffffffffffffffffffffffff1673ffffffffffffffffffffffffffffffffffffffff16815260200182815260200192505050602060405180830381600087803b1580156111d057600080fd5b505af11580156111e4573d6000803e3d6000fd5b505050506040513d60208110156111fa57600080fd5b810190808051906020019092919050505050505050565b6000600254905090565b600061122884848461233b565b6112e98461123461213c565b6112e4856040518060600160405280602881526020016128aa60289139600160008b73ffffffffffffffffffffffffffffffffffffffff1673ffffffffffffffffffffffffffffffffffffffff168152602001908152602001600020600061129a61213c565b73ffffffffffffffffffffffffffffffffffffffff1673ffffffffffffffffffffffffffffffffffffffff168152602001908152602001600020546125f19092919063ffffffff16565b612144565b600190509392505050565b6112fc611a02565b61136e576040517f08c379a00000000000000000000000000000000000000000000000000000000081526004018080602001828103825260208152602001807f4f776e61626c653a2063616c6c6572206973206e6f7420746865206f776e657281525060200191505060405180910390fd5b611376610c61565b600660009054906101000a900460ff161561139057600080fd5b6001600660006101000a81548160ff02191690831515021790555060006007819055507ff82aa3c8d92a1044b702b0c9718bd99d353a4a85a215bdb4fe6c6a04b5f541e0426040518082815260200191505060405180910390a1565b6113f4611a02565b611466576040517f08c379a00000000000000000000000000000000000000000000000000000000081526004018080602001828103825260208152602001807f4f776e61626c653a2063616c6c6572206973206e6f7420746865206f776e657281525060200191505060405180910390fd5b60008190508073ffffffffffffffffffffffffffffffffffffffff1663f2fde38b61148f6119d8565b6040518263ffffffff1660e01b8152600401808273ffffffffffffffffffffffffffffffffffffffff1673ffffffffffffffffffffffffffffffffffffffff168152602001915050600060405180830381600087803b1580156114f157600080fd5b505af1158015611505573d6000803e3d6000fd5b505050505050565b600360149054906101000a900460ff1681565b60055481565b6000806000fd5b61138881565b60085481565b611541611a02565b6115b3576040517f08c379a00000000000000000000000000000000000000000000000000000000081526004018080602001828103825260208152602001807f4f776e61626c653a2063616c6c6572206973206e6f7420746865206f776e657281525060200191505060405180910390fd5b6115bb610c61565b600660009054906101000a900460ff16156115d557600080fd5b6000600781905550565b6115e7611a02565b611659576040517f08c379a00000000000000000000000000000000000000000000000000000000081526004018080602001828103825260208152602001807f4f776e61626c653a2063616c6c6572206973206e6f7420746865206f776e657281525060200191505060405180910390fd5b611661610c61565b600660009054906101000a900460ff161561167b57600080fd5b8060058190555050565b60008060008373ffffffffffffffffffffffffffffffffffffffff1673ffffffffffffffffffffffffffffffffffffffff168152602001908152602001600020549050919050565b6116d5611a02565b611747576040517f08c379a00000000000000000000000000000000000000000000000000000000081526004018080602001828103825260208152602001807f4f776e61626c653a2063616c6c6572206973206e6f7420746865206f776e657281525060200191505060405180910390fd5b600073ffffffffffffffffffffffffffffffffffffffff16600360009054906101000a900473ffffffffffffffffffffffffffffffffffffffff1673ffffffffffffffffffffffffffffffffffffffff167f8be0079c531659141344cd1fd0a4f28419497f9722a3daafe3b4186f6b6457e060405160405180910390a36000600360006101000a81548173ffffffffffffffffffffffffffffffffffffffff021916908373ffffffffffffffffffffffffffffffffffffffff160217905550565b611810611a02565b611882576040517f08c379a00000000000000000000000000000000000000000000000000000000081526004018080602001828103825260208152602001807f4f776e61626c653a2063616c6c6572206973206e6f7420746865206f776e657281525060200191505060405180910390fd5b61188a610c61565b600660009054906101000a900460ff16156118a457600080fd5b603c8102420160078190555050565b6118bb611a02565b61192d576040517f08c379a00000000000000000000000000000000000000000000000000000000081526004018080602001828103825260208152602001807f4f776e61626c653a2063616c6c6572206973206e6f7420746865206f776e657281525060200191505060405180910390fd5b611935610ccb565b600660019054906101000a900460ff1661194e57600080fd5b80600360146101000a81548160ff021916908360ff1602179055507fed6150ec960548590c920ded6ef554ec9e451dd7b4c85f62fb3760812cd72cf1600360149054906101000a900460ff16604051808260ff1660ff16815260200191505060405180910390a150565b600080600854141580156119cd575060085442115b905090565b61138881565b6000600360009054906101000a900473ffffffffffffffffffffffffffffffffffffffff16905090565b6000600360009054906101000a900473ffffffffffffffffffffffffffffffffffffffff1673ffffffffffffffffffffffffffffffffffffffff16611a4561213c565b73ffffffffffffffffffffffffffffffffffffffff1614905090565b60075481565b6040518060400160405280600381526020017f4d5256000000000000000000000000000000000000000000000000000000000081525081565b611aa8611a02565b611b1a576040517f08c379a00000000000000000000000000000000000000000000000000000000081526004018080602001828103825260208152602001807f4f776e61626c653a2063616c6c6572206973206e6f7420746865206f776e657281525060200191505060405180910390fd5b611b22610c61565b611b2a610ccb565b600660019054906101000a900460ff1615611b4457600080fd5b600660009054906101000a900460ff16611b5d57600080fd5b6001600660016101000a81548160ff02191690831515021790555060006008819055507f99424d4740b41446c45fa894e3dda8489b8ef8df8a37f8035f83053ed26485c1426040518082815260200191505060405180910390a1565b611bc1611a02565b611c33576040517f08c379a00000000000000000000000000000000000000000000000000000000081526004018080602001828103825260208152602001807f4f776e61626c653a2063616c6c6572206973206e6f7420746865206f776e657281525060200191505060405180910390fd5b611c3b6119d8565b73ffffffffffffffffffffffffffffffffffffffff166108fc479081150290604051600060405180830381858888f19350505050611c7557fe5b565b6000806000fd5b6000611c92611c8b61213c565b848461233b565b6001905092915050565b600080fd5b6000600160008473ffffffffffffffffffffffffffffffffffffffff1673ffffffffffffffffffffffffffffffffffffffff16815260200190815260200160002060008373ffffffffffffffffffffffffffffffffffffffff1673ffffffffffffffffffffffffffffffffffffffff16815260200190815260200160002054905092915050565b611d30611a02565b611da2576040517f08c379a00000000000000000000000000000000000000000000000000000000081526004018080602001828103825260208152602001807f4f776e61626c653a2063616c6c6572206973206e6f7420746865206f776e657281525060200191505060405180910390fd5b611daa610ccb565b600660019054906101000a900460ff1615611dc457600080fd5b603c8102420160088190555050565b60008060075414158015611de8575060075442115b905090565b611df5611a02565b611e67576040517f08c379a00000000000000000000000000000000000000000000000000000000081526004018080602001828103825260208152602001807f4f776e61626c653a2063616c6c6572206973206e6f7420746865206f776e657281525060200191505060405180910390fd5b611e70816126b1565b50565b600080831415611e865760009050611ef3565b6000828402905082848281611e9757fe5b0414611eee576040517f08c379a00000000000000000000000000000000000000000000000000000000081526004018080602001828103825260218152602001806128896021913960400191505060405180910390fd5b809150505b92915050565b600080828401905083811015611f77576040517f08c379a000000000000000000000000000000000000000000000000000000000815260040180806020018281038252601b8152602001807f536166654d6174683a206164646974696f6e206f766572666c6f77000000000081525060200191505060405180910390fd5b8091505092915050565b600073ffffffffffffffffffffffffffffffffffffffff168273ffffffffffffffffffffffffffffffffffffffff161415612024576040517f08c379a000000000000000000000000000000000000000000000000000000000815260040180806020018281038252601f8152602001807f45524332303a206d696e7420746f20746865207a65726f20616464726573730081525060200191505060405180910390fd5b61203981600254611ef990919063ffffffff16565b600281905550612090816000808573ffffffffffffffffffffffffffffffffffffffff1673ffffffffffffffffffffffffffffffffffffffff16815260200190815260200160002054611ef990919063ffffffff16565b6000808473ffffffffffffffffffffffffffffffffffffffff1673ffffffffffffffffffffffffffffffffffffffff168152602001908152602001600020819055508173ffffffffffffffffffffffffffffffffffffffff16600073ffffffffffffffffffffffffffffffffffffffff167fddf252ad1be2c89b69c2b068fc378daa952ba7f163c4a11628f55a4df523b3ef836040518082815260200191505060405180910390a35050565b600033905090565b600073ffffffffffffffffffffffffffffffffffffffff168373ffffffffffffffffffffffffffffffffffffffff1614156121ca576040517f08c379a00000000000000000000000000000000000000000000000000000000081526004018080602001828103825260248152602001806128f76024913960400191505060405180910390fd5b600073ffffffffffffffffffffffffffffffffffffffff168273ffffffffffffffffffffffffffffffffffffffff161415612250576040517f08c379a00000000000000000000000000000000000000000000000000000000081526004018080602001828103825260228152602001806128416022913960400191505060405180910390fd5b80600160008573ffffffffffffffffffffffffffffffffffffffff1673ffffffffffffffffffffffffffffffffffffffff16815260200190815260200160002060008473ffffffffffffffffffffffffffffffffffffffff1673ffffffffffffffffffffffffffffffffffffffff168152602001908152602001600020819055508173ffffffffffffffffffffffffffffffffffffffff168373ffffffffffffffffffffffffffffffffffffffff167f8c5be1e5ebec7d5bd14f71427d1e84f3dd0314c0f7b2291e5b200ac8c7c3b925836040518082815260200191505060405180910390a3505050565b600073ffffffffffffffffffffffffffffffffffffffff168373ffffffffffffffffffffffffffffffffffffffff1614156123c1576040517f08c379a00000000000000000000000000000000000000000000000000000000081526004018080602001828103825260258152602001806128d26025913960400191505060405180910390fd5b600073ffffffffffffffffffffffffffffffffffffffff168273ffffffffffffffffffffffffffffffffffffffff161415612447576040517f08c379a00000000000000000000000000000000000000000000000000000000081526004018080602001828103825260238152602001806127f86023913960400191505060405180910390fd5b6124b281604051806060016040528060268152602001612863602691396000808773ffffffffffffffffffffffffffffffffffffffff1673ffffffffffffffffffffffffffffffffffffffff168152602001908152602001600020546125f19092919063ffffffff16565b6000808573ffffffffffffffffffffffffffffffffffffffff1673ffffffffffffffffffffffffffffffffffffffff16815260200190815260200160002081905550612545816000808573ffffffffffffffffffffffffffffffffffffffff1673ffffffffffffffffffffffffffffffffffffffff16815260200190815260200160002054611ef990919063ffffffff16565b6000808473ffffffffffffffffffffffffffffffffffffffff1673ffffffffffffffffffffffffffffffffffffffff168152602001908152602001600020819055508173ffffffffffffffffffffffffffffffffffffffff168373ffffffffffffffffffffffffffffffffffffffff167fddf252ad1be2c89b69c2b068fc378daa952ba7f163c4a11628f55a4df523b3ef836040518082815260200191505060405180910390a3505050565b600083831115829061269e576040517f08c379a00000000000000000000000000000000000000000000000000000000081526004018080602001828103825283818151815260200191508051906020019080838360005b83811015612663578082015181840152602081019050612648565b50505050905090810190601f1680156126905780820380516001836020036101000a031916815260200191505b509250505060405180910390fd5b5060008385039050809150509392505050565b600073ffffffffffffffffffffffffffffffffffffffff168173ffffffffffffffffffffffffffffffffffffffff161415612737576040517f08c379a000000000000000000000000000000000000000000000000000000000815260040180806020018281038252602681526020018061281b6026913960400191505060405180910390fd5b8073ffffffffffffffffffffffffffffffffffffffff16600360009054906101000a900473ffffffffffffffffffffffffffffffffffffffff1673ffffffffffffffffffffffffffffffffffffffff167f8be0079c531659141344cd1fd0a4f28419497f9722a3daafe3b4186f6b6457e060405160405180910390a380600360006101000a81548173ffffffffffffffffffffffffffffffffffffffff021916908373ffffffffffffffffffffffffffffffffffffffff1602179055505056fe45524332303a207472616e7366657220746f20746865207a65726f20616464726573734f776e61626c653a206e6577206f776e657220697320746865207a65726f206164647265737345524332303a20617070726f766520746f20746865207a65726f206164647265737345524332303a207472616e7366657220616d6f756e7420657863656564732062616c616e6365536166654d6174683a206d756c7469706c69636174696f6e206f766572666c6f7745524332303a207472616e7366657220616d6f756e74206578636565647320616c6c6f77616e636545524332303a207472616e736665722066726f6d20746865207a65726f206164647265737345524332303a20617070726f76652066726f6d20746865207a65726f2061646472657373a265627a7a72315820e26bafe290c2065415acd64dbf8a133906274a087c2b6c9ad1c5d3b409d4c93a64736f6c634300050e0032",
  "source": "pragma solidity ^0.5.2;\n\n\nimport \"openzeppelin-solidity/contracts/token/ERC20/ERC20.sol\";\nimport \"openzeppelin-solidity/contracts/ownership/Ownable.sol\";\nimport \"./HasNoTokens.sol\";\nimport \"./HasNoContracts.sol\";\n\n\n/**\n * MRV token, distributed by crowdsale. Token and crowdsale functionality are unified in a single\n * contract, to make clear and restrict the conditions under which tokens can be created or destroyed.\n * Derived from OpenZeppelin CrowdsaleToken template.\n *\n * Key Crowdsale Facts:\n * \n * * MRV tokens will be sold at a rate of 5,000 per ETH.\n *\n * * All MRV token sales are final. No refunds can be issued by the contract.\n *\n * * Unless adjusted later by the crowdsale operator, up to 100 million tokens will be available.\n *\n * * An additional 5,000 tokens are reserved. \n *\n * * Participate in the crowdsale by sending ETH to this contract, when the crowdsale is open.\n *\n * * Sending more ETH than required to purchase all the remaining tokens will fail.\n *\n * * Timers can be set to allow anyone to open/close the crowdsale at the proper time. The crowdsale\n *   operator reserves the right to set, unset, and reset these timers at any time, for any reason,\n *   and without notice.\n *\n * * The operator of the crowdsale has the ability to manually open it and close it, and reserves\n *   the right to do so at any time, for any reason, and without notice.\n *\n * * The crowdsale cannot be reopened, and no tokens can be created, after the crowdsale closes.\n *\n * * The crowdsale operator reserves the right to adjust the decimal places of the MRV token at\n *   any time after the crowdsale closes, for any reason, and without notice. MRV tokens are\n *   initially divisible to 18 decimal places.\n *\n * * The crowdsale operator reserves the right to not open or close the crowdsale, not set the\n *   open or close timer, and generally refrain from doing things that the contract would otherwise\n *   authorize them to do.\n *\n * * The crowdsale operator reserves the right to claim and keep any ETH or tokens that end up in\n *   the contract's account. During normal crowdsale operation, ETH is not stored in the contract's\n *   account, and is instead sent directly to the beneficiary.\n */\ncontract MRVToken is ERC20, Ownable, HasNoTokens, HasNoContracts {\n\n    // Token Parameters\n\n    // From StandardToken we inherit balances and totalSupply.\n    \n    // What is the full name of the token?\n    string public constant name = \"Macroverse Token\";\n    // What is its suggested symbol?\n    string public constant symbol = \"MRV\";\n    // How many of the low base-10 digits are to the right of the decimal point?\n    // Note that this is not constant! After the crowdsale, the contract owner can\n    // adjust the decimal places, allowing for 10-to-1 splits and merges.\n    uint8 public decimals;\n    \n    // Crowdsale Parameters\n    \n    // Where will funds collected during the crowdsale be sent?\n    address payable beneficiary;\n    // How many MRV can be sold in the crowdsale?\n    uint public maxCrowdsaleSupplyInWholeTokens;\n    // How many whole tokens are reserved for the beneficiary?\n    uint public constant wholeTokensReserved = 5000;\n    // How many tokens per ETH during the crowdsale?\n    uint public constant wholeTokensPerEth = 5000;\n    \n    // Set to true when the crowdsale starts\n    // Internal flag. Use isCrowdsaleActive instead().\n    bool crowdsaleStarted;\n    // Set to true when the crowdsale ends\n    // Internal flag. Use isCrowdsaleActive instead().\n    bool crowdsaleEnded;\n    // We can also set some timers to open and close the crowdsale. 0 = timer is not set.\n    // After this time, the crowdsale will open with a call to checkOpenTimer().\n    uint public openTimer = 0;\n    // After this time, no contributions will be accepted, and the crowdsale will close with a call to checkCloseTimer().\n    uint public closeTimer = 0;\n    \n    ////////////\n    // Constructor\n    ////////////\n    \n    /**\n    * Deploy a new MRVToken contract, paying crowdsale proceeds to the given address,\n    * and awarding reserved tokens to the other given address.\n    */\n    constructor(address payable sendProceedsTo, address sendTokensTo) public {\n        // Proceeds of the crowdsale go here.\n        beneficiary = sendProceedsTo;\n        \n        // Start with 18 decimals, same as ETH\n        decimals = 18;\n        \n        // Initially, the reserved tokens belong to the given address.\n        // TODO: This change for OZ 2.0 compatibility causes the code to differ from the behavior of the mainnet deployed contract!\n        _mint(sendTokensTo, wholeTokensReserved * 10 ** 18);\n        \n        // Initially the crowdsale has not yet started or ended.\n        crowdsaleStarted = false;\n        crowdsaleEnded = false;\n        // Default to a max supply of 100 million tokens available.\n        maxCrowdsaleSupplyInWholeTokens = 100000000;\n    }\n    \n    ////////////\n    // Fallback function\n    ////////////\n    \n    /**\n    * This is the MAIN CROWDSALE ENTRY POINT. You participate in the crowdsale by \n    * sending ETH to this contract. That calls this function, which credits tokens\n    * to the address or contract that sent the ETH.\n    *\n    * Since MRV tokens are sold at a rate of more than one per ether, and since\n    * they, like ETH, have 18 decimal places (at the time of sale), any fractional\n    * amount of ETH should be handled safely.\n    *\n    * Note that all orders are fill-or-kill. If you send in more ether than there are\n    * tokens remaining to be bought, your transaction will be rolled back and you will\n    * get no tokens and waste your gas.\n    */\n    function() external payable onlyDuringCrowdsale {\n        createTokens(msg.sender);\n    }\n    \n    ////////////\n    // Events\n    ////////////\n    \n    // Fired when the crowdsale is recorded as started.\n    event CrowdsaleOpen(uint time);\n    // Fired when someone contributes to the crowdsale and buys MRV\n    event TokenPurchase(uint time, uint etherAmount, address from);\n    // Fired when the crowdsale is recorded as ended.\n    event CrowdsaleClose(uint time);\n    // Fired when the decimal point moves\n    event DecimalChange(uint8 newDecimals);\n    \n    ////////////\n    // Modifiers (encoding important crowdsale logic)\n    ////////////\n    \n    /**\n     * Only allow some actions before the crowdsale closes, whether it's open or not.\n     */\n    modifier onlyBeforeClosed {\n        checkCloseTimer();\n        if (crowdsaleEnded) revert();\n        _;\n    }\n    \n    /**\n     * Only allow some actions after the crowdsale is over.\n     * Will set the crowdsale closed if it should be.\n     */\n    modifier onlyAfterClosed {\n        checkCloseTimer();\n        if (!crowdsaleEnded) revert();\n        _;\n    }\n    \n    /**\n     * Only allow some actions before the crowdsale starts.\n     */\n    modifier onlyBeforeOpened {\n        checkOpenTimer();\n        if (crowdsaleStarted) revert();\n        _;\n    }\n    \n    /**\n     * Only allow some actions while the crowdsale is active.\n     * Will set the crowdsale open if it should be.\n     */\n    modifier onlyDuringCrowdsale {\n        checkOpenTimer();\n        checkCloseTimer();\n        if (crowdsaleEnded) revert();\n        if (!crowdsaleStarted) revert();\n        _;\n    }\n\n    ////////////\n    // Status and utility functions\n    ////////////\n    \n    /**\n     * Determine if the crowdsale should open by timer.\n     */\n    function openTimerElapsed() public view returns (bool) {\n        return (openTimer != 0 && now > openTimer);\n    }\n    \n    /**\n     * Determine if the crowdsale should close by timer.\n     */\n    function closeTimerElapsed() public view returns (bool) {\n        return (closeTimer != 0 && now > closeTimer);\n    }\n    \n    /**\n     * If the open timer has elapsed, start the crowdsale.\n     * Can be called by people, but also gets called when people try to contribute.\n     */\n    function checkOpenTimer() public {\n        if (openTimerElapsed()) {\n            crowdsaleStarted = true;\n            openTimer = 0;\n            emit CrowdsaleOpen(now);\n        }\n    }\n    \n    /**\n     * If the close timer has elapsed, stop the crowdsale.\n     */\n    function checkCloseTimer() public {\n        if (closeTimerElapsed()) {\n            crowdsaleEnded = true;\n            closeTimer = 0;\n            emit CrowdsaleClose(now);\n        }\n    }\n    \n    /**\n     * Determine if the crowdsale is currently happening.\n     */\n    function isCrowdsaleActive() public view returns (bool) {\n        // The crowdsale is happening if it is open or due to open, and it isn't closed or due to close.\n        return ((crowdsaleStarted || openTimerElapsed()) && !(crowdsaleEnded || closeTimerElapsed()));\n    }\n    \n    ////////////\n    // Before the crowdsale: configuration\n    ////////////\n    \n    /**\n     * Before the crowdsale opens, the max token count can be configured.\n     */\n    function setMaxSupply(uint newMaxInWholeTokens) public onlyOwner onlyBeforeOpened {\n        maxCrowdsaleSupplyInWholeTokens = newMaxInWholeTokens;\n    }\n    \n    /**\n     * Allow the owner to start the crowdsale manually.\n     */\n    function openCrowdsale() public onlyOwner onlyBeforeOpened {\n        crowdsaleStarted = true;\n        openTimer = 0;\n        emit CrowdsaleOpen(now);\n    }\n    \n    /**\n     * Let the owner start the timer for the crowdsale start. Without further owner intervention,\n     * anyone will be able to open the crowdsale when the timer expires.\n     * Further calls will re-set the timer to count from the time the transaction is processed.\n     * The timer can be re-set after it has tripped, unless someone has already opened the crowdsale.\n     */\n    function setCrowdsaleOpenTimerFor(uint minutesFromNow) public onlyOwner onlyBeforeOpened {\n        openTimer = now + minutesFromNow * 1 minutes;\n    }\n    \n    /**\n     * Let the owner stop the crowdsale open timer, as long as the crowdsale has not yet opened.\n     */\n    function clearCrowdsaleOpenTimer() public onlyOwner onlyBeforeOpened {\n        openTimer = 0;\n    }\n    \n    /**\n     * Let the owner start the timer for the crowdsale end. Counts from when the function is called,\n     * *not* from the start of the crowdsale.\n     * It is possible, but a bad idea, to set this before the open timer.\n     */\n    function setCrowdsaleCloseTimerFor(uint minutesFromNow) public onlyOwner onlyBeforeClosed {\n        closeTimer = now + minutesFromNow * 1 minutes;\n    }\n    \n    /**\n     * Let the owner stop the crowdsale close timer, as long as it has not yet expired.\n     */\n    function clearCrowdsaleCloseTimer() public onlyOwner onlyBeforeClosed {\n        closeTimer = 0;\n    }\n    \n    \n    ////////////\n    // During the crowdsale\n    ////////////\n    \n    /**\n     * Create tokens for the given address, in response to a payment.\n     * Cannot be called by outside callers; use the fallback function, which will create tokens for whoever pays it.\n     */\n    function createTokens(address recipient) internal onlyDuringCrowdsale {\n        if (msg.value == 0) {\n            revert();\n        }\n\n        uint tokens = msg.value.mul(wholeTokensPerEth); // Exploits the fact that we have 18 decimals, like ETH.\n        \n        uint256 newTotalSupply = totalSupply().add(tokens);\n        \n        if (newTotalSupply > (wholeTokensReserved + maxCrowdsaleSupplyInWholeTokens) * 10 ** 18) {\n            // This would be too many tokens issued.\n            // Don't mess around with partial order fills.\n            revert();\n        }\n        \n        // Otherwise, we can fill the order entirely, so make the tokens and put them in the specified account.\n        // TODO: This has been updated for OZ 2.0; the deployed contract on chain does NOT use the OZ minting logic.\n        // In particular, it did not emit transfer events for minted tokens, which confuses some blockchain viewers.\n        _mint(recipient, tokens);\n        \n        // Announce the purchase\n        emit TokenPurchase(now, msg.value, recipient);\n\n        // Lastly (after all state changes), send the money to the crowdsale beneficiary.\n        // This allows the crowdsale contract itself not to hold any ETH.\n        // It also means that ALL SALES ARE FINAL!\n        if (!beneficiary.send(msg.value)) {\n            revert();\n        }\n    }\n    \n    /**\n     * Allow the owner to end the crowdsale manually.\n     */\n    function closeCrowdsale() public onlyOwner onlyDuringCrowdsale {\n        crowdsaleEnded = true;\n        closeTimer = 0;\n        emit CrowdsaleClose(now);\n    }  \n    \n    ////////////\n    // After the crowdsale: token maintainance\n    ////////////\n    \n    /**\n     * When the crowdsale is finished, the contract owner may adjust the decimal places for display purposes.\n     * This should work like a 10-to-1 split or reverse-split.\n     * The point of this mechanism is to keep the individual MRV tokens from getting inconveniently valuable or cheap.\n     * However, it relies on the contract owner taking the time to update the decimal place value.\n     * Note that this changes the decimals IMMEDIATELY with NO NOTICE to users.\n     */\n    function setDecimals(uint8 newDecimals) public onlyOwner onlyAfterClosed {\n        decimals = newDecimals;\n        // Announce the change\n        emit DecimalChange(decimals);\n    }\n    \n    /**\n     * If Ether somehow manages to get into this contract, provide a way to get it out again.\n     * During normal crowdsale operation, ETH is immediately forwarded to the beneficiary.\n     */\n    function reclaimEther() external onlyOwner {\n        // Send the ETH. Make sure it worked.\n        // Go through uint160 to make owner payable\n        assert(address(uint160(owner())).send(address(this).balance));\n    }\n\n    // TODO: the following two functions do NOT exist in the on-chain mainnet\n    // version of the contract. They are here to allow the project to build\n    // with newer versions of OpenZeppelin.\n\n    /**\n     * Block the increaseAllowance method which is not in the mainned deployed\n     * contract, but which OZ added to their library after we deployed.\n     */\n    function increaseAllowance(address /* spender */, uint256 /* addedValue */) public returns (bool) {\n        revert();\n    }\n\n    /**\n     * Block the decreaseAllowance method which is not in the mainned deployed\n     * contract, but which OZ added to their library after we deployed.\n     */\n    function decreaseAllowance(address /* spender */, uint256 /* addedValue */) public returns (bool) {\n        revert();\n    }\n\n}\n",
  "sourcePath": "/z/home/anovak/workspace/macroverse/contracts/MRVToken.sol",
  "compiler": {
    "name": "solc",
    "version": "0.5.14+commit.01f1aaa4.Emscripten.clang"
  },
  "schemaVersion": "3.1.0",
  "updatedAt": "2020-05-22T04:32:06.023Z",
  "networkType": "ethereum",
  "devdoc": {
    "methods": {
      "allowance(address,address)": {
        "details": "See {IERC20-allowance}."
      },
      "approve(address,uint256)": {
        "details": "See {IERC20-approve}.     * Requirements:     * - `spender` cannot be the zero address."
      },
      "balanceOf(address)": {
        "details": "See {IERC20-balanceOf}."
      },
      "isOwner()": {
        "details": "Returns true if the caller is the current owner."
      },
      "owner()": {
        "details": "Returns the address of the current owner."
      },
      "reclaimContract(address)": {
        "details": "Reclaim ownership of Ownable contracts",
        "params": {
          "contractAddr": "The address of the Ownable to be reclaimed."
        }
      },
      "reclaimToken(address)": {
        "details": "Reclaim all IERC20 compatible tokens",
        "params": {
          "tokenAddr": "address The address of the token contract"
        }
      },
      "renounceOwnership()": {
        "details": "Leaves the contract without owner. It will not be possible to call `onlyOwner` functions anymore. Can only be called by the current owner.     * NOTE: Renouncing ownership will leave the contract without an owner, thereby removing any functionality that is only available to the owner."
      },
      "tokenFallback(address,uint256,bytes)": {
        "details": "Reject all ERC23 compatible tokens"
      },
      "totalSupply()": {
        "details": "See {IERC20-totalSupply}."
      },
      "transfer(address,uint256)": {
        "details": "See {IERC20-transfer}.     * Requirements:     * - `recipient` cannot be the zero address. - the caller must have a balance of at least `amount`."
      },
      "transferFrom(address,address,uint256)": {
        "details": "See {IERC20-transferFrom}.     * Emits an {Approval} event indicating the updated allowance. This is not required by the EIP. See the note at the beginning of {ERC20};     * Requirements: - `sender` and `recipient` cannot be the zero address. - `sender` must have a balance of at least `amount`. - the caller must have allowance for `sender`'s tokens of at least `amount`."
      },
      "transferOwnership(address)": {
        "details": "Transfers ownership of the contract to a new account (`newOwner`). Can only be called by the current owner."
      }
    }
  },
  "userdoc": {
    "methods": {
      "checkCloseTimer()": {
        "notice": "If the close timer has elapsed, stop the crowdsale."
      },
      "checkOpenTimer()": {
        "notice": "If the open timer has elapsed, start the crowdsale. Can be called by people, but also gets called when people try to contribute."
      },
      "clearCrowdsaleCloseTimer()": {
        "notice": "Let the owner stop the crowdsale close timer, as long as it has not yet expired."
      },
      "clearCrowdsaleOpenTimer()": {
        "notice": "Let the owner stop the crowdsale open timer, as long as the crowdsale has not yet opened."
      },
      "closeCrowdsale()": {
        "notice": "Allow the owner to end the crowdsale manually."
      },
      "closeTimerElapsed()": {
        "notice": "Determine if the crowdsale should close by timer."
      },
      "constructor": "Deploy a new MRVToken contract, paying crowdsale proceeds to the given address, and awarding reserved tokens to the other given address.",
      "decreaseAllowance(address,uint256)": {
        "notice": "Block the decreaseAllowance method which is not in the mainned deployed contract, but which OZ added to their library after we deployed."
      },
      "increaseAllowance(address,uint256)": {
        "notice": "Block the increaseAllowance method which is not in the mainned deployed contract, but which OZ added to their library after we deployed."
      },
      "isCrowdsaleActive()": {
        "notice": "Determine if the crowdsale is currently happening."
      },
      "openCrowdsale()": {
        "notice": "Allow the owner to start the crowdsale manually."
      },
      "openTimerElapsed()": {
        "notice": "Determine if the crowdsale should open by timer."
      },
      "reclaimEther()": {
        "notice": "If Ether somehow manages to get into this contract, provide a way to get it out again. During normal crowdsale operation, ETH is immediately forwarded to the beneficiary."
      },
      "setCrowdsaleCloseTimerFor(uint256)": {
        "notice": "Let the owner start the timer for the crowdsale end. Counts from when the function is called, *not* from the start of the crowdsale. It is possible, but a bad idea, to set this before the open timer."
      },
      "setCrowdsaleOpenTimerFor(uint256)": {
        "notice": "Let the owner start the timer for the crowdsale start. Without further owner intervention, anyone will be able to open the crowdsale when the timer expires. Further calls will re-set the timer to count from the time the transaction is processed. The timer can be re-set after it has tripped, unless someone has already opened the crowdsale."
      },
      "setDecimals(uint8)": {
        "notice": "When the crowdsale is finished, the contract owner may adjust the decimal places for display purposes. This should work like a 10-to-1 split or reverse-split. The point of this mechanism is to keep the individual MRV tokens from getting inconveniently valuable or cheap. However, it relies on the contract owner taking the time to update the decimal place value. Note that this changes the decimals IMMEDIATELY with NO NOTICE to users."
      },
      "setMaxSupply(uint256)": {
        "notice": "Before the crowdsale opens, the max token count can be configured."
      }
    },
    "notice": "MRV token, distributed by crowdsale. Token and crowdsale functionality are unified in a single contract, to make clear and restrict the conditions under which tokens can be created or destroyed. Derived from OpenZeppelin CrowdsaleToken template. * Key Crowdsale Facts:  * * MRV tokens will be sold at a rate of 5,000 per ETH. * * All MRV token sales are final. No refunds can be issued by the contract. * * Unless adjusted later by the crowdsale operator, up to 100 million tokens will be available. * * An additional 5,000 tokens are reserved.  * * Participate in the crowdsale by sending ETH to this contract, when the crowdsale is open. * * Sending more ETH than required to purchase all the remaining tokens will fail. * * Timers can be set to allow anyone to open/close the crowdsale at the proper time. The crowdsale  operator reserves the right to set, unset, and reset these timers at any time, for any reason,  and without notice. * * The operator of the crowdsale has the ability to manually open it and close it, and reserves  the right to do so at any time, for any reason, and without notice. * * The crowdsale cannot be reopened, and no tokens can be created, after the crowdsale closes. * * The crowdsale operator reserves the right to adjust the decimal places of the MRV token at  any time after the crowdsale closes, for any reason, and without notice. MRV tokens are  initially divisible to 18 decimal places. * * The crowdsale operator reserves the right to not open or close the crowdsale, not set the  open or close timer, and generally refrain from doing things that the contract would otherwise  authorize them to do. * * The crowdsale operator reserves the right to claim and keep any ETH or tokens that end up in  the contract's account. During normal crowdsale operation, ETH is not stored in the contract's  account, and is instead sent directly to the beneficiary."
  }
}