{
  "contractName": "OrbitalMechanics",
  "abi": [
    {
      "inputs": [
        {
          "internalType": "int128",
          "name": "real_central_mass_in_sols",
          "type": "int128"
        },
        {
          "internalType": "int128",
          "name": "real_semimajor_axis",
          "type": "int128"
        }
      ],
      "name": "computeMeanAngularMotion",
      "outputs": [
        {
          "internalType": "int128",
          "name": "",
          "type": "int128"
        }
      ],
      "stateMutability": "pure",
      "type": "function"
    },
    {
      "inputs": [
        {
          "internalType": "int128",
          "name": "real_mean_anomaly_at_epoch",
          "type": "int128"
        },
        {
          "internalType": "int128",
          "name": "real_mean_angular_motion",
          "type": "int128"
        },
        {
          "internalType": "int128",
          "name": "real_years_since_epoch",
          "type": "int128"
        }
      ],
      "name": "computeMeanAnomaly",
      "outputs": [
        {
          "internalType": "int128",
          "name": "",
          "type": "int128"
        }
      ],
      "stateMutability": "pure",
      "type": "function"
    },
    {
      "inputs": [
        {
          "internalType": "int128",
          "name": "real_mean_anomaly",
          "type": "int128"
        },
        {
          "internalType": "int128",
          "name": "real_eccentricity",
          "type": "int128"
        },
        {
          "internalType": "int88",
          "name": "max_iterations",
          "type": "int88"
        }
      ],
      "name": "computeEccentricAnomalyLimited",
      "outputs": [
        {
          "internalType": "int128",
          "name": "",
          "type": "int128"
        }
      ],
      "stateMutability": "pure",
      "type": "function"
    },
    {
      "inputs": [
        {
          "internalType": "int128",
          "name": "real_mean_anomaly",
          "type": "int128"
        },
        {
          "internalType": "int128",
          "name": "real_eccentricity",
          "type": "int128"
        }
      ],
      "name": "computeEccentricAnomaly",
      "outputs": [
        {
          "internalType": "int128",
          "name": "",
          "type": "int128"
        }
      ],
      "stateMutability": "pure",
      "type": "function"
    },
    {
      "inputs": [
        {
          "internalType": "int128",
          "name": "real_eccentric_anomaly",
          "type": "int128"
        },
        {
          "internalType": "int128",
          "name": "real_eccentricity",
          "type": "int128"
        }
      ],
      "name": "computeTrueAnomaly",
      "outputs": [
        {
          "internalType": "int128",
          "name": "",
          "type": "int128"
        }
      ],
      "stateMutability": "pure",
      "type": "function"
    },
    {
      "inputs": [
        {
          "internalType": "int128",
          "name": "real_true_anomaly",
          "type": "int128"
        },
        {
          "internalType": "int128",
          "name": "real_semimajor_axis",
          "type": "int128"
        },
        {
          "internalType": "int128",
          "name": "real_eccentricity",
          "type": "int128"
        }
      ],
      "name": "computeRadius",
      "outputs": [
        {
          "internalType": "int128",
          "name": "",
          "type": "int128"
        }
      ],
      "stateMutability": "pure",
      "type": "function"
    },
    {
      "inputs": [
        {
          "internalType": "int128",
          "name": "real_radius",
          "type": "int128"
        },
        {
          "internalType": "int128",
          "name": "real_true_anomaly",
          "type": "int128"
        },
        {
          "internalType": "int128",
          "name": "real_lan",
          "type": "int128"
        },
        {
          "internalType": "int128",
          "name": "real_inclination",
          "type": "int128"
        },
        {
          "internalType": "int128",
          "name": "real_aop",
          "type": "int128"
        }
      ],
      "name": "computeCartesianOffset",
      "outputs": [
        {
          "internalType": "int128",
          "name": "real_x",
          "type": "int128"
        },
        {
          "internalType": "int128",
          "name": "real_y",
          "type": "int128"
        },
        {
          "internalType": "int128",
          "name": "real_z",
          "type": "int128"
        }
      ],
      "stateMutability": "pure",
      "type": "function"
    }
  ],
  "bytecode": "0x608060405234801561001057600080fd5b50612145806100206000396000f3fe608060405234801561001057600080fd5b506004361061007d5760003560e01c8063a3730c431161005b578063a3730c431461016a578063c37044c61461019e578063daabdccd146101c8578063e3eb83d6146101f25761007d565b80632c70dc9314610082578063449a6acd146100cf5780635bd81dc0146100f9575b600080fd5b6100b66004803603606081101561009857600080fd5b508035600f90810b916020810135820b91604090910135900b610226565b60408051600f92830b90920b8252519081900360200190f35b6100b6600480360360408110156100e557600080fd5b508035600f90810b9160200135900b6102d5565b61013d600480360360a081101561010f57600080fd5b508035600f90810b916020810135820b916040820135810b916060810135820b91608090910135900b6102ea565b60408051600f94850b850b815292840b840b602084015290830b90920b8183015290519081900360600190f35b6100b66004803603606081101561018057600080fd5b508035600f90810b916020810135820b91604090910135900b610c3b565b6100b6600480360360408110156101b457600080fd5b508035600f90810b9160200135900b610ee5565b6100b6600480360360408110156101de57600080fd5b508035600f90810b9160200135900b6112e3565b6100b66004803603606081101561020857600080fd5b508035600f90810b91602081013590910b9060400135600a0b6117a0565b60408051635b4b90a360e11b8152600f84810b810b810b600483015283810b900b602482015290516000916506487ed5110b9173__RealMath______________________________9163b6972146916044808301926020929190829003018186803b15801561029457600080fd5b505af41580156102a8573d6000803e3d6000fd5b505050506040513d60208110156102be57600080fd5b50518501600f0b816102cc57fe5b07949350505050565b60006102e38383600a6117a0565b9392505050565b60008060008086600f0b73__RealMath______________________________63a807adca90916040518263ffffffff1660e01b81526004018082600f0b600f0b815260200191505060206040518083038186803b15801561034a57600080fd5b505af415801561035e573d6000803e3d6000fd5b505050506040513d602081101561037457600080fd5b505160408051632d1d4e5b60e21b8152600f8a810b810b900b6004820152905191925060009173__RealMath______________________________9163b475396c916024808301926020929190829003018186803b1580156103d557600080fd5b505af41580156103e9573d6000803e3d6000fd5b505050506040513d60208110156103ff57600080fd5b505160408051635403d6e560e11b8152888c01600f90810b810b900b6004820152905191925060009173__RealMath______________________________9163a807adca916024808301926020929190829003018186803b15801561046357600080fd5b505af4158015610477573d6000803e3d6000fd5b505050506040513d602081101561048d57600080fd5b505160408051632d1d4e5b60e21b8152898d01600f90810b810b900b6004820152905191925060009173__RealMath______________________________9163b475396c916024808301926020929190829003018186803b1580156104f157600080fd5b505af4158015610505573d6000803e3d6000fd5b505050506040513d602081101561051b57600080fd5b505160408051635403d6e560e11b8152600f8c810b810b900b6004820152905191925060009173__RealMath______________________________9163a807adca916024808301926020929190829003018186803b15801561057c57600080fd5b505af4158015610590573d6000803e3d6000fd5b505050506040513d60208110156105a657600080fd5b505160408051632d1d4e5b60e21b8152600f8d810b810b900b6004820152905191925060009173__RealMath______________________________9163b475396c916024808301926020929190829003018186803b15801561060757600080fd5b505af415801561061b573d6000803e3d6000fd5b505050506040513d602081101561063157600080fd5b810190808051906020019092919050505090508d600f0b73__RealMath______________________________63b6972146909187600f0b73__RealMath______________________________63b69721469091886040518363ffffffff1660e01b81526004018083600f0b600f0b815260200182600f0b600f0b81526020019250505060206040518083038186803b1580156106cc57600080fd5b505af41580156106e0573d6000803e3d6000fd5b505050506040513d60208110156106f657600080fd5b505160408051635b4b90a360e11b8152600f92830b830b830b600482015287830b90920b60248301525173__RealMath______________________________9163b6972146916044808301926020929190829003018186803b15801561075b57600080fd5b505af415801561076f573d6000803e3d6000fd5b505050506040513d602081101561078557600080fd5b505160408051635b4b90a360e11b8152600f8c810b810b810b60048301528a810b900b6024820152905173__RealMath______________________________9163b6972146916044808301926020929190829003018186803b1580156107ea57600080fd5b505af41580156107fe573d6000803e3d6000fd5b505050506040513d602081101561081457600080fd5b5051604080516001600160e01b031960e087901b168152600f94850b850b600482015292909103830b90920b602482015290516044808301926020929190829003018186803b15801561086657600080fd5b505af415801561087a573d6000803e3d6000fd5b505050506040513d602081101561089057600080fd5b810190808051906020019092919050505098508d600f0b73__RealMath______________________________63b6972146909188600f0b73__RealMath______________________________63b69721469091886040518363ffffffff1660e01b81526004018083600f0b600f0b815260200182600f0b600f0b81526020019250505060206040518083038186803b15801561092b57600080fd5b505af415801561093f573d6000803e3d6000fd5b505050506040513d602081101561095557600080fd5b505160408051635b4b90a360e11b8152600f92830b830b830b600482015287830b90920b60248301525173__RealMath______________________________9163b6972146916044808301926020929190829003018186803b1580156109ba57600080fd5b505af41580156109ce573d6000803e3d6000fd5b505050506040513d60208110156109e457600080fd5b505160408051635b4b90a360e11b8152600f8b810b810b810b60048301528a810b900b6024820152905173__RealMath______________________________9163b6972146916044808301926020929190829003018186803b158015610a4957600080fd5b505af4158015610a5d573d6000803e3d6000fd5b505050506040513d6020811015610a7357600080fd5b5051604080516001600160e01b031960e087901b168152600f94850b850b600482015292909101830b90920b602482015290516044808301926020929190829003018186803b158015610ac557600080fd5b505af4158015610ad9573d6000803e3d6000fd5b505050506040513d6020811015610aef57600080fd5b810190808051906020019092919050505097508d600f0b73__RealMath______________________________63b69721469091836040518363ffffffff1660e01b81526004018083600f0b600f0b815260200182600f0b600f0b81526020019250505060206040518083038186803b158015610b6a57600080fd5b505af4158015610b7e573d6000803e3d6000fd5b505050506040513d6020811015610b9457600080fd5b505160408051635b4b90a360e11b8152600f92830b830b830b600482015285830b90920b60248301525173__RealMath______________________________9163b6972146916044808301926020929190829003018186803b158015610bf957600080fd5b505af4158015610c0d573d6000803e3d6000fd5b505050506040513d6020811015610c2357600080fd5b5051989e979d50979b50959950505050505050505050565b60408051635b4b90a360e11b8152600f83810b810b80820b60048401526024830152915160009273__RealMath______________________________9263b6972146929187900b91849184916044808301926020929190829003018186803b158015610ca657600080fd5b505af4158015610cba573d6000803e3d6000fd5b505050506040513d6020811015610cd057600080fd5b505160286001901b036040518363ffffffff1660e01b81526004018083600f0b600f0b815260200182600f0b600f0b81526020019250505060206040518083038186803b158015610d2057600080fd5b505af4158015610d34573d6000803e3d6000fd5b505050506040513d6020811015610d4a57600080fd5b505160408051635403d6e560e11b8152600f87810b810b810b6004830152915173__RealMath______________________________936325f39a639390810b92859263b69721469289900b91849163a807adca91602480820192602092909190829003018186803b158015610dbe57600080fd5b505af4158015610dd2573d6000803e3d6000fd5b505050506040513d6020811015610de857600080fd5b5051604080516001600160e01b031960e086901b168152600f93840b840b600482015291830b90920b602482015290516044808301926020929190829003018186803b158015610e3757600080fd5b505af4158015610e4b573d6000803e3d6000fd5b505050506040513d6020811015610e6157600080fd5b505160286001901b016040518363ffffffff1660e01b81526004018083600f0b600f0b815260200182600f0b600f0b81526020019250505060206040518083038186803b158015610eb157600080fd5b505af4158015610ec5573d6000803e3d6000fd5b505050506040513d6020811015610edb57600080fd5b5051949350505050565b60408051635b4b90a360e11b8152600f84810b810b900b60048201526d0731c2d8b22e3ac00000000000006024820152905160009173__RealMath______________________________9163b697214691604480820192602092909190829003018186803b158015610f5657600080fd5b505af4158015610f6a573d6000803e3d6000fd5b505050506040513d6020811015610f8057600080fd5b5051604080516325f39a6360e01b8152600f92830b830b830b600482015284830b90920b60248301525173__RealMath______________________________916325f39a63916044808301926020929190829003018186803b158015610fe557600080fd5b505af4158015610ff9573d6000803e3d6000fd5b505050506040513d602081101561100f57600080fd5b505160408051635b4b90a360e11b8152600f92830b830b90920b60048301526801e187e0000000019060248301525173__RealMath______________________________9163b6972146916044808301926020929190829003018186803b15801561107957600080fd5b505af415801561108d573d6000803e3d6000fd5b505050506040513d60208110156110a357600080fd5b5051604080516325f39a6360e01b8152600f92830b830b830b600482015284830b90920b60248301525173__RealMath______________________________916325f39a63916044808301926020929190829003018186803b15801561110857600080fd5b505af415801561111c573d6000803e3d6000fd5b505050506040513d602081101561113257600080fd5b505160408051635b4b90a360e11b8152600f92830b830b90920b60048301526801e187e0000000019060248301525173__RealMath______________________________9163b6972146916044808301926020929190829003018186803b15801561119c57600080fd5b505af41580156111b0573d6000803e3d6000fd5b505050506040513d60208110156111c657600080fd5b5051604080516325f39a6360e01b8152600f92830b830b830b600482015284830b90920b60248301525173__RealMath______________________________916325f39a63916044808301926020929190829003018186803b15801561122b57600080fd5b505af415801561123f573d6000803e3d6000fd5b505050506040513d602081101561125557600080fd5b505160408051631b8f6ab960e21b8152600f92830b830b90920b60048301525173__RealMath______________________________91636e3daae4916024808301926020929190829003018186803b1580156112b057600080fd5b505af41580156112c4573d6000803e3d6000fd5b505050506040513d60208110156112da57600080fd5b50519392505050565b604080516325f39a6360e01b8152600f84810b810b900b60048201526502000000000060248201529051600091829173__RealMath______________________________916325f39a63916044808301926020929190829003018186803b15801561134d57600080fd5b505af4158015611361573d6000803e3d6000fd5b505050506040513d602081101561137757600080fd5b5051905073__RealMath______________________________6367179ffb8460286001901b03600f0b73__RealMath______________________________636e3daae490916040518263ffffffff1660e01b81526004018082600f0b600f0b815260200191505060206040518083038186803b1580156113f657600080fd5b505af415801561140a573d6000803e3d6000fd5b505050506040513d602081101561142057600080fd5b505160408051635403d6e560e11b8152600f86810b810b810b6004830152915173__RealMath______________________________9363b6972146930b91849163a807adca91602480820192602092909190829003018186803b15801561148657600080fd5b505af415801561149a573d6000803e3d6000fd5b505050506040513d60208110156114b057600080fd5b5051604080516001600160e01b031960e086901b168152600f93840b840b600482015291830b90920b602482015290516044808301926020929190829003018186803b1580156114ff57600080fd5b505af4158015611513573d6000803e3d6000fd5b505050506040513d602081101561152957600080fd5b505160408051631b8f6ab960e21b8152650100000000008801600f90810b810b900b6004820152905173__RealMath______________________________91636e3daae4916024808301926020929190829003018186803b15801561158d57600080fd5b505af41580156115a1573d6000803e3d6000fd5b505050506040513d60208110156115b757600080fd5b505160408051632d1d4e5b60e21b8152600f87810b810b810b6004830152915173__RealMath______________________________9363b6972146930b91849163b475396c91602480820192602092909190829003018186803b15801561161d57600080fd5b505af4158015611631573d6000803e3d6000fd5b505050506040513d602081101561164757600080fd5b5051604080516001600160e01b031960e086901b168152600f93840b840b600482015291830b90920b602482015290516044808301926020929190829003018186803b15801561169657600080fd5b505af41580156116aa573d6000803e3d6000fd5b505050506040513d60208110156116c057600080fd5b5051604080516001600160e01b031960e086901b168152600f93840b840b600482015291830b90920b602482015290516044808301926020929190829003018186803b15801561170f57600080fd5b505af4158015611723573d6000803e3d6000fd5b505050506040513d602081101561173957600080fd5b505160408051635b4b90a360e11b8152600f92830b830b90920b60048301526502000000000060248301525173__RealMath______________________________9163b6972146916044808301926020929190829003018186803b158015610eb157600080fd5b60408051635b4b90a360e11b8152600f84810b810b9081900b600483015260248201529051600091829173__RealMath______________________________9163b6972146916044808301926020929190829003018186803b15801561180557600080fd5b505af4158015611819573d6000803e3d6000fd5b505050506040513d602081101561182f57600080fd5b505160408051635b4b90a360e11b8152600f83810b810b810b600483015287810b900b6024820152905191925060009173__RealMath______________________________9163b6972146916044808301926020929190829003018186803b15801561189a57600080fd5b505af41580156118ae573d6000803e3d6000fd5b505050506040513d60208110156118c457600080fd5b505160408051635403d6e560e11b8152600f89810b810b900b6004820152905191925060009173__RealMath______________________________9163a807adca916024808301926020929190829003018186803b15801561192557600080fd5b505af4158015611939573d6000803e3d6000fd5b505050506040513d602081101561194f57600080fd5b505160408051635b4b90a360e11b8152600f83810b810b810b600483015285810b900b6024820152905191925060009173__RealMath______________________________9163b6972146916044808301926020929190829003018186803b1580156119ba57600080fd5b505af41580156119ce573d6000803e3d6000fd5b505050506040513d60208110156119e457600080fd5b505160408051635b4b90a360e11b8152600f92830b830b90920b60048301526503000000000060248301525173__RealMath______________________________9163b6972146916044808301926020929190829003018186803b158015611a4b57600080fd5b505af4158015611a5f573d6000803e3d6000fd5b505050506040513d6020811015611a7557600080fd5b5051604080516325f39a6360e01b8152600f92830b830b90920b60048301526502000000000060248301525173__RealMath______________________________916325f39a63916044808301926020929190829003018186803b158015611adc57600080fd5b505af4158015611af0573d6000803e3d6000fd5b505050506040513d6020811015611b0657600080fd5b505160408051635b4b90a360e11b8152918601600f90810b810b810b600484015284810b900b60248301525173__RealMath______________________________9163b6972146916044808301926020929190829003018186803b158015611b6d57600080fd5b505af4158015611b81573d6000803e3d6000fd5b505050506040513d6020811015611b9757600080fd5b505187600165010000000000901d600003600f0b73__RealMath______________________________63b69721469091876040518363ffffffff1660e01b81526004018083600f0b600f0b815260200182600f0b600f0b81526020019250505060206040518083038186803b158015611c0f57600080fd5b505af4158015611c23573d6000803e3d6000fd5b505050506040513d6020811015611c3957600080fd5b505160408051632d1d4e5b60e21b8152600f8d810b810b810b6004830152915173__RealMath______________________________9563b69721469590940190930190910b91849163b475396c916024808301926020929190829003018186803b158015611ca657600080fd5b505af4158015611cba573d6000803e3d6000fd5b505050506040513d6020811015611cd057600080fd5b5051604080516001600160e01b031960e086901b168152600f93840b840b600482015291830b90920b602482015290516044808301926020929190829003018186803b158015611d1f57600080fd5b505af4158015611d33573d6000803e3d6000fd5b505050506040513d6020811015611d4957600080fd5b50518801905060005b86600a0b81600a0b12156120f55760008989600f0b73__RealMath______________________________63b6972146909186600f0b73__RealMath______________________________63b475396c90916040518263ffffffff1660e01b81526004018082600f0b600f0b815260200191505060206040518083038186803b158015611ddd57600080fd5b505af4158015611df1573d6000803e3d6000fd5b505050506040513d6020811015611e0757600080fd5b5051604080516001600160e01b031960e086901b168152600f93840b840b600482015291830b90920b602482015290516044808301926020929190829003018186803b158015611e5657600080fd5b505af4158015611e6a573d6000803e3d6000fd5b505050506040513d6020811015611e8057600080fd5b50516040805163700f496960e11b815291860392909203600f81810b810b900b6004830152915191925060059173__RealMath______________________________9163e01e92d2916024808301926020929190829003018186803b158015611ee857600080fd5b505af4158015611efc573d6000803e3d6000fd5b505050506040513d6020811015611f1257600080fd5b5051600f0b13611f2257506120f5565b600089600f0b73__RealMath______________________________63b6972146909186600f0b73__RealMath______________________________63a807adca90916040518263ffffffff1660e01b81526004018082600f0b600f0b815260200191505060206040518083038186803b158015611f9e57600080fd5b505af4158015611fb2573d6000803e3d6000fd5b505050506040513d6020811015611fc857600080fd5b5051604080516001600160e01b031960e086901b168152600f93840b840b600482015291830b90920b602482015290516044808301926020929190829003018186803b15801561201757600080fd5b505af415801561202b573d6000803e3d6000fd5b505050506040513d602081101561204157600080fd5b505165010000000000039050600f81900b61205857fe5b604080516325f39a6360e01b8152600f84810b810b810b600483015283810b900b6024820152905173__RealMath______________________________916325f39a63916044808301926020929190829003018186803b1580156120bb57600080fd5b505af41580156120cf573d6000803e3d6000fd5b505050506040513d60208110156120e557600080fd5b5051909303925050600101611d52565b506506487ed5110b600f82900b079897505050505050505056fea2646970667358221220c3b34cd42eada3772ba482e34b7881ec0fb21dda6e4a330a0dc7aedc49c3d19064736f6c634300060a0033",
  "immutableReferences": {},
  "source": "pragma solidity ^0.6.10;\n\nimport \"./RealMath.sol\";\n\n/**\n * Provides methods for doing orbital mechanics calculations, based on\n * RealMath.\n * \n * DON'T use these functions for computing positions for things every frame;\n * the RealMath library isn't really accurate enough for that. Use these in\n * smart contract game logic, on a time scale of one or more blocks.\n */\ncontract OrbitalMechanics {\n    using RealMath for *;\n\n    /**@dev\n     * We need the gravitational constant. Calculated by solving the mean\n     * motion equation for Earth. We can be mostly precise here, because we\n     * know the semimajor axis and year length (in Julian years) to a few\n     * places.\n     *\n     * This is 132712875029098577920 m^3 s^-2 sols^-1\n     */\n    int128 constant REAL_G_PER_SOL = 145919349250077040774785972305920;\n\n    // TODO: We have to copy-paste constants from RealMath because Solidity doesn't expose them by import.\n\n    /**@dev\n     * It is also useful to have Pi around.\n     * We can't pull it in from the library.\n     */\n    int128 constant REAL_PI = 3454217652358;\n\n    /**@dev\n     * And two pi, which happens to be odd in its most accurate representation.\n     */\n    int128 constant REAL_TWO_PI = 6908435304715;\n\n    /**@dev\n     * How many fractional bits are there?\n     */\n    int256 constant REAL_FBITS = 40;\n\n    /**@dev\n     * What's the first non-fractional bit\n     */\n    int128 constant REAL_ONE = int128(1) << int128(REAL_FBITS);\n\n    /**@dev\n     * What's the last fractional bit?\n     */\n    int128 constant REAL_HALF = REAL_ONE >> int128(1);\n\n    /**@dev\n     * We need 2 for constants in numerical methods.\n     */\n    int128 constant REAL_TWO = REAL_ONE * 2;\n    \n    /**@dev\n     * We need 3 for constants in numerical methods.\n     */\n    int128 constant REAL_THREE = REAL_ONE * 3;\n\n    /**@dev\n     * A \"year\" is 365.25 days. We use Julian years.\n     */\n    int128 constant REAL_SECONDS_PER_YEAR = 34697948144703898000;\n\n    \n\n    // Functions for orbital mechanics. Maybe should be a library?\n    // Are NOT controlled access, since they don't talk to the RNG.\n    // Please don't do these in Solidity unless you have to; you can do orbital mechanics in JS just fine with actual floats.\n    // The steps to compute an orbit are:\n    // \n    // 1. Compute the semimajor axis as (apoapsis + periapsis) / 2 (do this yourself)\n    // 2. Compute the mean angular motion, n = sqrt(central mass * gravitational constant / semimajor axis^3)\n    // 3. Compute the Mean Anomaly, as n * time since epoch + MA at epoch, and wrap to an angle 0 to 2 pi\n    // 4. Compute the Eccentric Anomaly numerically to solve MA = EA - eccentricity * sin(EA)\n    // 5. Compute the True Anomaly as 2 * atan2(sqrt(1 - eccentricity) * cos(EA / 2), sqrt(1 + eccentricity) * sin(EA / 2))\n    // 6. Compute the current radius as r = semimajor * (1 - eccentricity^2) / (1 + eccentricity * cos(TA))\n    // 7. Compute Cartesian X (toward longitude 0) = radius * (cos(LAN) * cos(AOP + TA) - sin(LAN) * sin(AOP + TA) * cos(inclination))\n    // 8. Compute Cartesian Y (in plane) = radius * (sin(LAN) * cos(AOP + TA) + cos(LAN) * sin(AOP + TA) * cos(inclination))\n    // 9. Compute Cartesian Z (above plane) = radius * sin(inclination) * sin(AOP + TA)\n\n\n    /**\n     * Compute the mean angular motion, in radians per Julian year (365.25\n     * days), given a star mass in sols and a semimajor axis in meters.\n     */\n    function computeMeanAngularMotion(int128 real_central_mass_in_sols, int128 real_semimajor_axis) public pure returns (int128) {\n        // REAL_G_PER_SOL is big, but nothing masses more than 100s of sols, so we can do the multiply.\n        // But the semimajor axis in meters may be very big so we can't really do the cube for the denominator.\n        // And since values in radians per second are tiny, their squares are even tinier and probably out of range.\n        // So we scale up to radians per year\n        return real_central_mass_in_sols.mul(REAL_G_PER_SOL)\n            .div(real_semimajor_axis)\n            .mul(REAL_SECONDS_PER_YEAR)\n            .div(real_semimajor_axis)\n            .mul(REAL_SECONDS_PER_YEAR).div(real_semimajor_axis).sqrt();\n    }\n\n    /**\n     * Compute the mean anomaly, from 0 to 2 PI, given the mean anomaly at\n     * epoch, mean angular motion (in radians per Julian year) and the time (in\n     * Julian years) since epoch.\n     */\n    function computeMeanAnomaly(int128 real_mean_anomaly_at_epoch, int128 real_mean_angular_motion, int128 real_years_since_epoch) public pure returns (int128) {\n        return (real_mean_anomaly_at_epoch + real_mean_angular_motion.mul(real_years_since_epoch)) % REAL_TWO_PI;\n    }\n\n    /**\n     * Compute the eccentric anomaly, given the mean anomaly and eccentricity.\n     * Uses numerical methods to solve MA = EA - eccentricity * sin(EA). Limit to a certain iteration count.\n     */\n    function computeEccentricAnomalyLimited(int128 real_mean_anomaly, int128 real_eccentricity, int88 max_iterations) public pure returns (int128) {\n        // We are going to find the root of EA - eccentricity * sin(EA) - MA, in EA.\n        // We use Newton's Method.\n        // f(EA) =  EA - eccentricity * sin(EA) - MA\n        // f'(EA) = 1 - eccentricity * cos(EA)\n        // x_n = x_n-1 - f(x_n) / f'(x_n)\n\n        // Start with the 3rd-order approximation from http://alpheratz.net/dynamics/twobody/KeplerIterations_summary.pdf\n        // \"A Practical Method for Solving the Kepler Equation\"\n        int128 e2 = real_eccentricity.mul(real_eccentricity);\n        int128 e3 = e2.mul(real_eccentricity);\n        int128 cosMA = real_mean_anomaly.cos();\n        int128 real_guess = real_mean_anomaly + ((-REAL_HALF).mul(e3) + real_eccentricity + \n            (e2 + cosMA.mul(e3).mul(REAL_THREE).div(REAL_TWO)).mul(cosMA)).mul(real_mean_anomaly.sin());\n            \n        for (int88 i = 0; i < max_iterations; i++) {\n            int128 real_value = real_guess - real_eccentricity.mul(real_guess.sin()) - real_mean_anomaly;\n            \n            if (real_value.abs() <= 5) {\n                // We found the root within epsilon.\n                // Note that we are implicitly turning this random small number into a tiny real.\n                break;\n            }\n            \n            // Otherwise we update\n            int128 real_derivative = REAL_ONE - real_eccentricity.mul(real_guess.cos());\n            // The derivative can never be 0. If it were, since cos() is <= 1, the eccentricity would be 1.\n            // Eccentricity must be <= 1\n            assert(real_derivative != 0);\n            real_guess = real_guess - real_value.div(real_derivative);\n        }\n\n        // Bound to 0 to 2 pi angle range.\n        return real_guess % REAL_TWO_PI;\n    }\n\n    /**\n     * Compute the eccentric anomaly, given the mean anomaly and eccentricity.\n     * Uses numerical methods to solve MA = EA - eccentricity * sin(EA). Internally limited to a reasonable iteration count.\n     */\n    function computeEccentricAnomaly(int128 real_mean_anomaly, int128 real_eccentricity) public pure returns (int128) {\n        return computeEccentricAnomalyLimited(real_mean_anomaly, real_eccentricity, 10);\n    }\n\n    /**\n     * Compute the true anomaly from the eccentric anomaly and the eccentricity.\n     */\n    function computeTrueAnomaly(int128 real_eccentric_anomaly, int128 real_eccentricity) public pure returns (int128) {\n        int128 real_half_ea = real_eccentric_anomaly.div(REAL_TWO);\n        return RealMath.atan2((REAL_ONE - real_eccentricity).sqrt().mul(real_half_ea.cos()), (REAL_ONE + real_eccentricity).sqrt().mul(real_half_ea.sin())).mul(REAL_TWO);\n    }\n\n    /**\n     * Compute the current orbit radius (distance from parent body) from the true anomaly, semimajor axis, and eccentricity.\n     * Operates on distances in meters.\n     */\n    function computeRadius(int128 real_true_anomaly, int128 real_semimajor_axis, int128 real_eccentricity) public pure returns (int128) {\n         return real_semimajor_axis.mul(REAL_ONE - real_eccentricity.mul(real_eccentricity)).div(REAL_ONE + real_eccentricity.mul(real_true_anomaly.cos()));\n    }\n\n    /**\n     * Compute Cartesian X, Y, and Z offset from center of parent body to orbiting body.\n     * Operates on distances in meters.\n     * X is toward longitude 0 of the parent body.\n     * Y is the other in-plane direction.\n     * Z is up out of the plane.\n     */\n    function computeCartesianOffset(int128 real_radius, int128 real_true_anomaly, int128 real_lan, int128 real_inclination,\n        int128 real_aop) public pure returns (int128 real_x, int128 real_y, int128 real_z) {\n        \n        // Compute some intermediates\n        int128 cos_lan = real_lan.cos();\n        int128 sin_lan = real_lan.sin();\n        int128 aop_ta_cos = (real_aop + real_true_anomaly).cos();\n        int128 aop_ta_sin = (real_aop + real_true_anomaly).sin();\n        int128 inclination_cos = real_inclination.cos();\n        int128 inclination_sin = real_inclination.sin();\n\n        // Compute the actual coordinates\n        real_x = real_radius.mul(cos_lan.mul(aop_ta_cos) - sin_lan.mul(aop_ta_sin).mul(inclination_cos));\n        real_y = real_radius.mul(sin_lan.mul(aop_ta_cos) + cos_lan.mul(aop_ta_sin).mul(inclination_cos));\n        real_z = real_radius.mul(inclination_sin).mul(aop_ta_sin);\n\n    }\n}\n\n// SPDX-License-Identifier: UNLICENSED\n",
  "sourcePath": "/home/anovak/workspace/macroverse/contracts/OrbitalMechanics.sol",
  "compiler": {
    "name": "solc",
    "version": "0.6.10+commit.00c0fcaf.Emscripten.clang"
  },
  "schemaVersion": "3.3.1",
  "updatedAt": "2020-12-11T02:46:41.003Z",
  "devdoc": {
    "methods": {},
    "stateVariables": {
      "REAL_FBITS": {
        "details": "How many fractional bits are there?"
      },
      "REAL_G_PER_SOL": {
        "details": "We need the gravitational constant. Calculated by solving the mean motion equation for Earth. We can be mostly precise here, because we know the semimajor axis and year length (in Julian years) to a few places. This is 132712875029098577920 m^3 s^-2 sols^-1"
      },
      "REAL_HALF": {
        "details": "What's the last fractional bit?"
      },
      "REAL_ONE": {
        "details": "What's the first non-fractional bit"
      },
      "REAL_PI": {
        "details": "It is also useful to have Pi around. We can't pull it in from the library."
      },
      "REAL_SECONDS_PER_YEAR": {
        "details": "A \"year\" is 365.25 days. We use Julian years."
      },
      "REAL_THREE": {
        "details": "We need 3 for constants in numerical methods."
      },
      "REAL_TWO": {
        "details": "We need 2 for constants in numerical methods."
      },
      "REAL_TWO_PI": {
        "details": "And two pi, which happens to be odd in its most accurate representation."
      }
    }
  },
  "userdoc": {
    "methods": {
      "computeCartesianOffset(int128,int128,int128,int128,int128)": {
        "notice": "Compute Cartesian X, Y, and Z offset from center of parent body to orbiting body. Operates on distances in meters. X is toward longitude 0 of the parent body. Y is the other in-plane direction. Z is up out of the plane."
      },
      "computeEccentricAnomaly(int128,int128)": {
        "notice": "Compute the eccentric anomaly, given the mean anomaly and eccentricity. Uses numerical methods to solve MA = EA - eccentricity * sin(EA). Internally limited to a reasonable iteration count."
      },
      "computeEccentricAnomalyLimited(int128,int128,int88)": {
        "notice": "Compute the eccentric anomaly, given the mean anomaly and eccentricity. Uses numerical methods to solve MA = EA - eccentricity * sin(EA). Limit to a certain iteration count."
      },
      "computeMeanAngularMotion(int128,int128)": {
        "notice": "Compute the mean angular motion, in radians per Julian year (365.25 days), given a star mass in sols and a semimajor axis in meters."
      },
      "computeMeanAnomaly(int128,int128,int128)": {
        "notice": "Compute the mean anomaly, from 0 to 2 PI, given the mean anomaly at epoch, mean angular motion (in radians per Julian year) and the time (in Julian years) since epoch."
      },
      "computeRadius(int128,int128,int128)": {
        "notice": "Compute the current orbit radius (distance from parent body) from the true anomaly, semimajor axis, and eccentricity. Operates on distances in meters."
      },
      "computeTrueAnomaly(int128,int128)": {
        "notice": "Compute the true anomaly from the eccentric anomaly and the eccentricity."
      }
    },
    "notice": "Provides methods for doing orbital mechanics calculations, based on RealMath.  DON'T use these functions for computing positions for things every frame; the RealMath library isn't really accurate enough for that. Use these in smart contract game logic, on a time scale of one or more blocks."
  }
}