{
  "contractName": "OrbitalMechanics",
  "abi": [
    {
      "constant": true,
      "inputs": [
        {
          "name": "real_central_mass_in_sols",
          "type": "int128"
        },
        {
          "name": "real_semimajor_axis",
          "type": "int128"
        }
      ],
      "name": "computeMeanAngularMotion",
      "outputs": [
        {
          "name": "",
          "type": "int128"
        }
      ],
      "payable": false,
      "stateMutability": "pure",
      "type": "function"
    },
    {
      "constant": true,
      "inputs": [
        {
          "name": "real_mean_anomaly_at_epoch",
          "type": "int128"
        },
        {
          "name": "real_mean_angular_motion",
          "type": "int128"
        },
        {
          "name": "real_years_since_epoch",
          "type": "int128"
        }
      ],
      "name": "computeMeanAnomaly",
      "outputs": [
        {
          "name": "",
          "type": "int128"
        }
      ],
      "payable": false,
      "stateMutability": "pure",
      "type": "function"
    },
    {
      "constant": true,
      "inputs": [
        {
          "name": "real_mean_anomaly",
          "type": "int128"
        },
        {
          "name": "real_eccentricity",
          "type": "int128"
        },
        {
          "name": "max_iterations",
          "type": "int88"
        }
      ],
      "name": "computeEccentricAnomalyLimited",
      "outputs": [
        {
          "name": "",
          "type": "int128"
        }
      ],
      "payable": false,
      "stateMutability": "pure",
      "type": "function"
    },
    {
      "constant": true,
      "inputs": [
        {
          "name": "real_mean_anomaly",
          "type": "int128"
        },
        {
          "name": "real_eccentricity",
          "type": "int128"
        }
      ],
      "name": "computeEccentricAnomaly",
      "outputs": [
        {
          "name": "",
          "type": "int128"
        }
      ],
      "payable": false,
      "stateMutability": "pure",
      "type": "function"
    },
    {
      "constant": true,
      "inputs": [
        {
          "name": "real_eccentric_anomaly",
          "type": "int128"
        },
        {
          "name": "real_eccentricity",
          "type": "int128"
        }
      ],
      "name": "computeTrueAnomaly",
      "outputs": [
        {
          "name": "",
          "type": "int128"
        }
      ],
      "payable": false,
      "stateMutability": "pure",
      "type": "function"
    },
    {
      "constant": true,
      "inputs": [
        {
          "name": "real_true_anomaly",
          "type": "int128"
        },
        {
          "name": "real_semimajor_axis",
          "type": "int128"
        },
        {
          "name": "real_eccentricity",
          "type": "int128"
        }
      ],
      "name": "computeRadius",
      "outputs": [
        {
          "name": "",
          "type": "int128"
        }
      ],
      "payable": false,
      "stateMutability": "pure",
      "type": "function"
    },
    {
      "constant": true,
      "inputs": [
        {
          "name": "real_radius",
          "type": "int128"
        },
        {
          "name": "real_true_anomaly",
          "type": "int128"
        },
        {
          "name": "real_lan",
          "type": "int128"
        },
        {
          "name": "real_inclination",
          "type": "int128"
        },
        {
          "name": "real_aop",
          "type": "int128"
        }
      ],
      "name": "computeCartesianOffset",
      "outputs": [
        {
          "name": "real_x",
          "type": "int128"
        },
        {
          "name": "real_y",
          "type": "int128"
        },
        {
          "name": "real_z",
          "type": "int128"
        }
      ],
      "payable": false,
      "stateMutability": "pure",
      "type": "function"
    }
  ],
  "bytecode": "0x608060405234801561001057600080fd5b50612cfb806100206000396000f300608060405260043610610083576000357c0100000000000000000000000000000000000000000000000000000000900463ffffffff1680632c70dc9314610088578063449a6acd146100ec5780635bd81dc014610143578063a3730c43146101db578063c37044c61461023f578063daabdccd14610296578063e3eb83d6146102ed575b600080fd5b34801561009457600080fd5b506100d06004803603810190808035600f0b90602001909291908035600f0b90602001909291908035600f0b9060200190929190505050610351565b6040518082600f0b600f0b815260200191505060405180910390f35b3480156100f857600080fd5b506101276004803603810190808035600f0b90602001909291908035600f0b9060200190929190505050610434565b6040518082600f0b600f0b815260200191505060405180910390f35b34801561014f57600080fd5b506101a56004803603810190808035600f0b90602001909291908035600f0b90602001909291908035600f0b90602001909291908035600f0b90602001909291908035600f0b906020019092919050505061044a565b6040518084600f0b600f0b815260200183600f0b600f0b815260200182600f0b600f0b8152602001935050505060405180910390f35b3480156101e757600080fd5b506102236004803603810190808035600f0b90602001909291908035600f0b90602001909291908035600f0b9060200190929190505050611018565b6040518082600f0b600f0b815260200191505060405180910390f35b34801561024b57600080fd5b5061027a6004803603810190808035600f0b90602001909291908035600f0b90602001909291905050506113fc565b6040518082600f0b600f0b815260200191505060405180910390f35b3480156102a257600080fd5b506102d16004803603810190808035600f0b90602001909291908035600f0b906020019092919050505061194b565b6040518082600f0b600f0b815260200191505060405180910390f35b3480156102f957600080fd5b506103356004803603810190808035600f0b90602001909291908035600f0b90602001909291908035600a0b906020019092919050505061202e565b6040518082600f0b600f0b815260200191505060405180910390f35b60006506487ed5110b600f0b83600f0b73__RealMath______________________________63b69721469091856040518363ffffffff167c01000000000000000000000000000000000000000000000000000000000281526004018083600f0b600f0b815260200182600f0b600f0b81526020019250505060206040518083038186803b1580156103e157600080fd5b505af41580156103f5573d6000803e3d6000fd5b505050506040513d602081101561040b57600080fd5b81019080805190602001909291905050508501600f0b81151561042a57fe5b0790509392505050565b60006104428383600a61202e565b905092915050565b60008060008060008060008060008b600f0b73__RealMath______________________________63a807adca90916040518263ffffffff167c01000000000000000000000000000000000000000000000000000000000281526004018082600f0b600f0b815260200191505060206040518083038186803b1580156104ce57600080fd5b505af41580156104e2573d6000803e3d6000fd5b505050506040513d60208110156104f857600080fd5b810190808051906020019092919050505095508b600f0b73__RealMath______________________________63b475396c90916040518263ffffffff167c01000000000000000000000000000000000000000000000000000000000281526004018082600f0b600f0b815260200191505060206040518083038186803b15801561058157600080fd5b505af4158015610595573d6000803e3d6000fd5b505050506040513d60208110156105ab57600080fd5b810190808051906020019092919050505094508c8a01600f0b73__RealMath______________________________63a807adca90916040518263ffffffff167c01000000000000000000000000000000000000000000000000000000000281526004018082600f0b600f0b815260200191505060206040518083038186803b15801561063657600080fd5b505af415801561064a573d6000803e3d6000fd5b505050506040513d602081101561066057600080fd5b810190808051906020019092919050505093508c8a01600f0b73__RealMath______________________________63b475396c90916040518263ffffffff167c01000000000000000000000000000000000000000000000000000000000281526004018082600f0b600f0b815260200191505060206040518083038186803b1580156106eb57600080fd5b505af41580156106ff573d6000803e3d6000fd5b505050506040513d602081101561071557600080fd5b810190808051906020019092919050505092508a600f0b73__RealMath______________________________63a807adca90916040518263ffffffff167c01000000000000000000000000000000000000000000000000000000000281526004018082600f0b600f0b815260200191505060206040518083038186803b15801561079e57600080fd5b505af41580156107b2573d6000803e3d6000fd5b505050506040513d60208110156107c857600080fd5b810190808051906020019092919050505091508a600f0b73__RealMath______________________________63b475396c90916040518263ffffffff167c01000000000000000000000000000000000000000000000000000000000281526004018082600f0b600f0b815260200191505060206040518083038186803b15801561085157600080fd5b505af4158015610865573d6000803e3d6000fd5b505050506040513d602081101561087b57600080fd5b810190808051906020019092919050505090508d600f0b73__RealMath______________________________63b6972146909187600f0b73__RealMath______________________________63b69721469091886040518363ffffffff167c01000000000000000000000000000000000000000000000000000000000281526004018083600f0b600f0b815260200182600f0b600f0b81526020019250505060206040518083038186803b15801561093257600080fd5b505af4158015610946573d6000803e3d6000fd5b505050506040513d602081101561095c57600080fd5b8101908080519060200190929190505050600f0b73__RealMath______________________________63b69721469091876040518363ffffffff167c01000000000000000000000000000000000000000000000000000000000281526004018083600f0b600f0b815260200182600f0b600f0b81526020019250505060206040518083038186803b1580156109f057600080fd5b505af4158015610a04573d6000803e3d6000fd5b505050506040513d6020811015610a1a57600080fd5b810190808051906020019092919050505089600f0b73__RealMath______________________________63b697214690918a6040518363ffffffff167c01000000000000000000000000000000000000000000000000000000000281526004018083600f0b600f0b815260200182600f0b600f0b81526020019250505060206040518083038186803b158015610aaf57600080fd5b505af4158015610ac3573d6000803e3d6000fd5b505050506040513d6020811015610ad957600080fd5b8101908080519060200190929190505050036040518363ffffffff167c01000000000000000000000000000000000000000000000000000000000281526004018083600f0b600f0b815260200182600f0b600f0b81526020019250505060206040518083038186803b158015610b4e57600080fd5b505af4158015610b62573d6000803e3d6000fd5b505050506040513d6020811015610b7857600080fd5b810190808051906020019092919050505098508d600f0b73__RealMath______________________________63b6972146909188600f0b73__RealMath______________________________63b69721469091886040518363ffffffff167c01000000000000000000000000000000000000000000000000000000000281526004018083600f0b600f0b815260200182600f0b600f0b81526020019250505060206040518083038186803b158015610c2f57600080fd5b505af4158015610c43573d6000803e3d6000fd5b505050506040513d6020811015610c5957600080fd5b8101908080519060200190929190505050600f0b73__RealMath______________________________63b69721469091876040518363ffffffff167c01000000000000000000000000000000000000000000000000000000000281526004018083600f0b600f0b815260200182600f0b600f0b81526020019250505060206040518083038186803b158015610ced57600080fd5b505af4158015610d01573d6000803e3d6000fd5b505050506040513d6020811015610d1757600080fd5b810190808051906020019092919050505088600f0b73__RealMath______________________________63b697214690918a6040518363ffffffff167c01000000000000000000000000000000000000000000000000000000000281526004018083600f0b600f0b815260200182600f0b600f0b81526020019250505060206040518083038186803b158015610dac57600080fd5b505af4158015610dc0573d6000803e3d6000fd5b505050506040513d6020811015610dd657600080fd5b8101908080519060200190929190505050016040518363ffffffff167c01000000000000000000000000000000000000000000000000000000000281526004018083600f0b600f0b815260200182600f0b600f0b81526020019250505060206040518083038186803b158015610e4b57600080fd5b505af4158015610e5f573d6000803e3d6000fd5b505050506040513d6020811015610e7557600080fd5b810190808051906020019092919050505097508d600f0b73__RealMath______________________________63b69721469091836040518363ffffffff167c01000000000000000000000000000000000000000000000000000000000281526004018083600f0b600f0b815260200182600f0b600f0b81526020019250505060206040518083038186803b158015610f0c57600080fd5b505af4158015610f20573d6000803e3d6000fd5b505050506040513d6020811015610f3657600080fd5b8101908080519060200190929190505050600f0b73__RealMath______________________________63b69721469091856040518363ffffffff167c01000000000000000000000000000000000000000000000000000000000281526004018083600f0b600f0b815260200182600f0b600f0b81526020019250505060206040518083038186803b158015610fca57600080fd5b505af4158015610fde573d6000803e3d6000fd5b505050506040513d6020811015610ff457600080fd5b81019080805190602001909291905050509650505050505050955095509592505050565b600082600f0b73__RealMath______________________________63b6972146909184600f0b73__RealMath______________________________63b69721469091876040518363ffffffff167c01000000000000000000000000000000000000000000000000000000000281526004018083600f0b600f0b815260200182600f0b600f0b81526020019250505060206040518083038186803b1580156110be57600080fd5b505af41580156110d2573d6000803e3d6000fd5b505050506040513d60208110156110e857600080fd5b810190808051906020019092919050505060286001600f0b600082121561110b57fe5b9060020a02036040518363ffffffff167c01000000000000000000000000000000000000000000000000000000000281526004018083600f0b600f0b815260200182600f0b600f0b81526020019250505060206040518083038186803b15801561117457600080fd5b505af4158015611188573d6000803e3d6000fd5b505050506040513d602081101561119e57600080fd5b8101908080519060200190929190505050600f0b73__RealMath______________________________6325f39a63909184600f0b73__RealMath______________________________63b6972146909189600f0b73__RealMath______________________________63a807adca90916040518263ffffffff167c01000000000000000000000000000000000000000000000000000000000281526004018082600f0b600f0b815260200191505060206040518083038186803b15801561126457600080fd5b505af4158015611278573d6000803e3d6000fd5b505050506040513d602081101561128e57600080fd5b81019080805190602001909291905050506040518363ffffffff167c01000000000000000000000000000000000000000000000000000000000281526004018083600f0b600f0b815260200182600f0b600f0b81526020019250505060206040518083038186803b15801561130257600080fd5b505af4158015611316573d6000803e3d6000fd5b505050506040513d602081101561132c57600080fd5b810190808051906020019092919050505060286001600f0b600082121561134f57fe5b9060020a02016040518363ffffffff167c01000000000000000000000000000000000000000000000000000000000281526004018083600f0b600f0b815260200182600f0b600f0b81526020019250505060206040518083038186803b1580156113b857600080fd5b505af41580156113cc573d6000803e3d6000fd5b505050506040513d60208110156113e257600080fd5b810190808051906020019092919050505090509392505050565b600082600f0b73__RealMath______________________________63b697214690916d0731c2d8b22e3ac00000000000006040518363ffffffff167c01000000000000000000000000000000000000000000000000000000000281526004018083600f0b600f0b815260200182600f0b600f0b81526020019250505060206040518083038186803b15801561149057600080fd5b505af41580156114a4573d6000803e3d6000fd5b505050506040513d60208110156114ba57600080fd5b8101908080519060200190929190505050600f0b73__RealMath______________________________6325f39a639091846040518363ffffffff167c01000000000000000000000000000000000000000000000000000000000281526004018083600f0b600f0b815260200182600f0b600f0b81526020019250505060206040518083038186803b15801561154e57600080fd5b505af4158015611562573d6000803e3d6000fd5b505050506040513d602081101561157857600080fd5b8101908080519060200190929190505050600f0b73__RealMath______________________________63b697214690916801e187e000000001906040518363ffffffff167c01000000000000000000000000000000000000000000000000000000000281526004018083600f0b600f0b815260200182600f0b600f0b81526020019250505060206040518083038186803b15801561161557600080fd5b505af4158015611629573d6000803e3d6000fd5b505050506040513d602081101561163f57600080fd5b8101908080519060200190929190505050600f0b73__RealMath______________________________6325f39a639091846040518363ffffffff167c01000000000000000000000000000000000000000000000000000000000281526004018083600f0b600f0b815260200182600f0b600f0b81526020019250505060206040518083038186803b1580156116d357600080fd5b505af41580156116e7573d6000803e3d6000fd5b505050506040513d60208110156116fd57600080fd5b8101908080519060200190929190505050600f0b73__RealMath______________________________63b697214690916801e187e000000001906040518363ffffffff167c01000000000000000000000000000000000000000000000000000000000281526004018083600f0b600f0b815260200182600f0b600f0b81526020019250505060206040518083038186803b15801561179a57600080fd5b505af41580156117ae573d6000803e3d6000fd5b505050506040513d60208110156117c457600080fd5b8101908080519060200190929190505050600f0b73__RealMath______________________________6325f39a639091846040518363ffffffff167c01000000000000000000000000000000000000000000000000000000000281526004018083600f0b600f0b815260200182600f0b600f0b81526020019250505060206040518083038186803b15801561185857600080fd5b505af415801561186c573d6000803e3d6000fd5b505050506040513d602081101561188257600080fd5b8101908080519060200190929190505050600f0b73__RealMath______________________________636e3daae490916040518263ffffffff167c01000000000000000000000000000000000000000000000000000000000281526004018082600f0b600f0b815260200191505060206040518083038186803b15801561190857600080fd5b505af415801561191c573d6000803e3d6000fd5b505050506040513d602081101561193257600080fd5b8101908080519060200190929190505050905092915050565b60008083600f0b73__RealMath______________________________6325f39a639091600260286001600f0b600082121561198257fe5b9060020a02026040518363ffffffff167c01000000000000000000000000000000000000000000000000000000000281526004018083600f0b600f0b815260200182600f0b600f0b81526020019250505060206040518083038186803b1580156119eb57600080fd5b505af41580156119ff573d6000803e3d6000fd5b505050506040513d6020811015611a1557600080fd5b8101908080519060200190929190505050905073__RealMath______________________________6367179ffb8460286001600f0b6000821215611a5557fe5b9060020a0203600f0b73__RealMath______________________________636e3daae490916040518263ffffffff167c01000000000000000000000000000000000000000000000000000000000281526004018082600f0b600f0b815260200191505060206040518083038186803b158015611ad057600080fd5b505af4158015611ae4573d6000803e3d6000fd5b505050506040513d6020811015611afa57600080fd5b8101908080519060200190929190505050600f0b73__RealMath______________________________63b6972146909185600f0b73__RealMath______________________________63a807adca90916040518263ffffffff167c01000000000000000000000000000000000000000000000000000000000281526004018082600f0b600f0b815260200191505060206040518083038186803b158015611ba057600080fd5b505af4158015611bb4573d6000803e3d6000fd5b505050506040513d6020811015611bca57600080fd5b81019080805190602001909291905050506040518363ffffffff167c01000000000000000000000000000000000000000000000000000000000281526004018083600f0b600f0b815260200182600f0b600f0b81526020019250505060206040518083038186803b158015611c3e57600080fd5b505af4158015611c52573d6000803e3d6000fd5b505050506040513d6020811015611c6857600080fd5b81019080805190602001909291905050508560286001600f0b6000821215611c8c57fe5b9060020a0201600f0b73__RealMath______________________________636e3daae490916040518263ffffffff167c01000000000000000000000000000000000000000000000000000000000281526004018082600f0b600f0b815260200191505060206040518083038186803b158015611d0757600080fd5b505af4158015611d1b573d6000803e3d6000fd5b505050506040513d6020811015611d3157600080fd5b8101908080519060200190929190505050600f0b73__RealMath______________________________63b6972146909186600f0b73__RealMath______________________________63b475396c90916040518263ffffffff167c01000000000000000000000000000000000000000000000000000000000281526004018082600f0b600f0b815260200191505060206040518083038186803b158015611dd757600080fd5b505af4158015611deb573d6000803e3d6000fd5b505050506040513d6020811015611e0157600080fd5b81019080805190602001909291905050506040518363ffffffff167c01000000000000000000000000000000000000000000000000000000000281526004018083600f0b600f0b815260200182600f0b600f0b81526020019250505060206040518083038186803b158015611e7557600080fd5b505af4158015611e89573d6000803e3d6000fd5b505050506040513d6020811015611e9f57600080fd5b81019080805190602001909291905050506040518363ffffffff167c01000000000000000000000000000000000000000000000000000000000281526004018083600f0b600f0b815260200182600f0b600f0b81526020019250505060206040518083038186803b158015611f1357600080fd5b505af4158015611f27573d6000803e3d6000fd5b505050506040513d6020811015611f3d57600080fd5b8101908080519060200190929190505050600f0b73__RealMath______________________________63b69721469091600260286001600f0b6000821215611f8157fe5b9060020a02026040518363ffffffff167c01000000000000000000000000000000000000000000000000000000000281526004018083600f0b600f0b815260200182600f0b600f0b81526020019250505060206040518083038186803b158015611fea57600080fd5b505af4158015611ffe573d6000803e3d6000fd5b505050506040513d602081101561201457600080fd5b810190808051906020019092919050505091505092915050565b60008060008060008060008089600f0b73__RealMath______________________________63b697214690918c6040518363ffffffff167c01000000000000000000000000000000000000000000000000000000000281526004018083600f0b600f0b815260200182600f0b600f0b81526020019250505060206040518083038186803b1580156120be57600080fd5b505af41580156120d2573d6000803e3d6000fd5b505050506040513d60208110156120e857600080fd5b8101908080519060200190929190505050965086600f0b73__RealMath______________________________63b697214690918c6040518363ffffffff167c01000000000000000000000000000000000000000000000000000000000281526004018083600f0b600f0b815260200182600f0b600f0b81526020019250505060206040518083038186803b15801561217f57600080fd5b505af4158015612193573d6000803e3d6000fd5b505050506040513d60208110156121a957600080fd5b810190808051906020019092919050505095508a600f0b73__RealMath______________________________63a807adca90916040518263ffffffff167c01000000000000000000000000000000000000000000000000000000000281526004018082600f0b600f0b815260200191505060206040518083038186803b15801561223257600080fd5b505af4158015612246573d6000803e3d6000fd5b505050506040513d602081101561225c57600080fd5b8101908080519060200190929190505050945084600f0b73__RealMath______________________________63b69721469091886040518363ffffffff167c01000000000000000000000000000000000000000000000000000000000281526004018083600f0b600f0b815260200182600f0b600f0b81526020019250505060206040518083038186803b1580156122f357600080fd5b505af4158015612307573d6000803e3d6000fd5b505050506040513d602081101561231d57600080fd5b8101908080519060200190929190505050600f0b73__RealMath______________________________63b69721469091600360286001600f0b600082121561236157fe5b9060020a02026040518363ffffffff167c01000000000000000000000000000000000000000000000000000000000281526004018083600f0b600f0b815260200182600f0b600f0b81526020019250505060206040518083038186803b1580156123ca57600080fd5b505af41580156123de573d6000803e3d6000fd5b505050506040513d60208110156123f457600080fd5b8101908080519060200190929190505050600f0b73__RealMath______________________________6325f39a639091600260286001600f0b600082121561243857fe5b9060020a02026040518363ffffffff167c01000000000000000000000000000000000000000000000000000000000281526004018083600f0b600f0b815260200182600f0b600f0b81526020019250505060206040518083038186803b1580156124a157600080fd5b505af41580156124b5573d6000803e3d6000fd5b505050506040513d60208110156124cb57600080fd5b81019080805190602001909291905050508701600f0b73__RealMath______________________________63b69721469091876040518363ffffffff167c01000000000000000000000000000000000000000000000000000000000281526004018083600f0b600f0b815260200182600f0b600f0b81526020019250505060206040518083038186803b15801561256157600080fd5b505af4158015612575573d6000803e3d6000fd5b505050506040513d602081101561258b57600080fd5b81019080805190602001909291905050508a600160286001600f0b60008212156125b157fe5b9060020a02600f0b9060020a9005600003600f0b73__RealMath______________________________63b697214690918a6040518363ffffffff167c01000000000000000000000000000000000000000000000000000000000281526004018083600f0b600f0b815260200182600f0b600f0b81526020019250505060206040518083038186803b15801561264557600080fd5b505af4158015612659573d6000803e3d6000fd5b505050506040513d602081101561266f57600080fd5b81019080805190602001909291905050500101600f0b73__RealMath______________________________63b697214690918d600f0b73__RealMath______________________________63b475396c90916040518263ffffffff167c01000000000000000000000000000000000000000000000000000000000281526004018082600f0b600f0b815260200191505060206040518083038186803b15801561271757600080fd5b505af415801561272b573d6000803e3d6000fd5b505050506040513d602081101561274157600080fd5b81019080805190602001909291905050506040518363ffffffff167c01000000000000000000000000000000000000000000000000000000000281526004018083600f0b600f0b815260200182600f0b600f0b81526020019250505060206040518083038186803b1580156127b557600080fd5b505af41580156127c9573d6000803e3d6000fd5b505050506040513d60208110156127df57600080fd5b81019080805190602001909291905050508b019350600092505b88600a0b83600a0b1215612ca7578a8a600f0b73__RealMath______________________________63b6972146909187600f0b73__RealMath______________________________63b475396c90916040518263ffffffff167c01000000000000000000000000000000000000000000000000000000000281526004018082600f0b600f0b815260200191505060206040518083038186803b15801561289e57600080fd5b505af41580156128b2573d6000803e3d6000fd5b505050506040513d60208110156128c857600080fd5b81019080805190602001909291905050506040518363ffffffff167c01000000000000000000000000000000000000000000000000000000000281526004018083600f0b600f0b815260200182600f0b600f0b81526020019250505060206040518083038186803b15801561293c57600080fd5b505af4158015612950573d6000803e3d6000fd5b505050506040513d602081101561296657600080fd5b81019080805190602001909291905050508503039150600582600f0b73__RealMath______________________________63e01e92d290916040518263ffffffff167c01000000000000000000000000000000000000000000000000000000000281526004018082600f0b600f0b815260200191505060206040518083038186803b1580156129f457600080fd5b505af4158015612a08573d6000803e3d6000fd5b505050506040513d6020811015612a1e57600080fd5b8101908080519060200190929190505050600f0b131515612a3e57612ca7565b89600f0b73__RealMath______________________________63b6972146909186600f0b73__RealMath______________________________63a807adca90916040518263ffffffff167c01000000000000000000000000000000000000000000000000000000000281526004018082600f0b600f0b815260200191505060206040518083038186803b158015612ad457600080fd5b505af4158015612ae8573d6000803e3d6000fd5b505050506040513d6020811015612afe57600080fd5b81019080805190602001909291905050506040518363ffffffff167c01000000000000000000000000000000000000000000000000000000000281526004018083600f0b600f0b815260200182600f0b600f0b81526020019250505060206040518083038186803b158015612b7257600080fd5b505af4158015612b86573d6000803e3d6000fd5b505050506040513d6020811015612b9c57600080fd5b810190808051906020019092919050505060286001600f0b6000821215612bbf57fe5b9060020a02039050600081600f0b14151515612bd757fe5b81600f0b73__RealMath______________________________6325f39a639091836040518363ffffffff167c01000000000000000000000000000000000000000000000000000000000281526004018083600f0b600f0b815260200182600f0b600f0b81526020019250505060206040518083038186803b158015612c5b57600080fd5b505af4158015612c6f573d6000803e3d6000fd5b505050506040513d6020811015612c8557600080fd5b81019080805190602001909291905050508403935082806001019350506127f9565b6506487ed5110b600f0b84600f0b811515612cbe57fe5b0797505050505050505093925050505600a165627a7a7230582004ca9ff58a6cc80c4fba214f4ee1a5f0aab2b20bdf45e707786c922e7ff1aa1d0029",
  "source": "pragma solidity ^0.4.24;\n\nimport \"./RealMath.sol\";\n\n/**\n * Provides methods for doing orbital mechanics calculations, based on\n * RealMath.\n * \n * DON'T use these functions for computing positions for things every frame;\n * the RealMath library isn't really accurate enough for that. Use these in\n * smart contract game logic, on a time scale of one or more blocks.\n */\ncontract OrbitalMechanics {\n    using RealMath for *;\n\n    /**\n     * We need the gravitational constant. Calculated by solving the mean\n     * motion equation for Earth. We can be mostly precise here, because we\n     * know the semimajor axis and year length (in Julian years) to a few\n     * places.\n     *\n     * This is 132712875029098577920 m^3 s^-2 sols^-1\n     */\n    int128 constant REAL_G_PER_SOL = 145919349250077040774785972305920;\n\n    // TODO: We have to copy-paste constants from RealMath because Solidity doesn't expose them by import.\n\n    /**\n     * It is also useful to have Pi around.\n     * We can't pull it in from the library.\n     */\n    int128 constant REAL_PI = 3454217652358;\n\n    /**\n     * And two pi, which happens to be odd in its most accurate representation.\n     */\n    int128 constant REAL_TWO_PI = 6908435304715;\n\n    /**\n     * How many fractional bits are there?\n     */\n    int256 constant REAL_FBITS = 40;\n\n    /**\n     * What's the first non-fractional bit\n     */\n    int128 constant REAL_ONE = int128(1) << REAL_FBITS;\n\n    /**\n     * What's the last fractional bit?\n     */\n    int128 constant REAL_HALF = REAL_ONE >> 1;\n\n    /**\n     * We need 2 for constants in numerical methods.\n     */\n    int128 constant REAL_TWO = REAL_ONE * 2;\n    \n    /**\n     * We need 3 for constants in numerical methods.\n     */\n    int128 constant REAL_THREE = REAL_ONE * 3;\n\n    /**\n     * A \"year\" is 365.25 days. We use Julian years.\n     */\n    int128 constant REAL_SECONDS_PER_YEAR = 34697948144703898000;\n\n    \n\n    // Functions for orbital mechanics. Maybe should be a library?\n    // Are NOT controlled access, since they don't talk to the RNG.\n    // Please don't do these in Solidity unless you have to; you can do orbital mechanics in JS just fine with actual floats.\n    // The steps to compute an orbit are:\n    // \n    // 1. Compute the semimajor axis as (apoapsis + periapsis) / 2 (do this yourself)\n    // 2. Compute the mean angular motion, n = sqrt(central mass * gravitational constant / semimajor axis^3)\n    // 3. Compute the Mean Anomaly, as n * time since epoch + MA at epoch, and wrap to an angle 0 to 2 pi\n    // 4. Compute the Eccentric Anomaly numerically to solve MA = EA - eccentricity * sin(EA)\n    // 5. Compute the True Anomaly as 2 * atan2(sqrt(1 - eccentricity) * cos(EA / 2), sqrt(1 + eccentricity) * sin(EA / 2))\n    // 6. Compute the current radius as r = semimajor * (1 - eccentricity^2) / (1 + eccentricity * cos(TA))\n    // 7. Compute Cartesian X (toward longitude 0) = radius * (cos(LAN) * cos(AOP + TA) - sin(LAN) * sin(AOP + TA) * cos(inclination))\n    // 8. Compute Cartesian Y (in plane) = radius * (sin(LAN) * cos(AOP + TA) + cos(LAN) * sin(AOP + TA) * cos(inclination))\n    // 9. Compute Cartesian Z (above plane) = radius * sin(inclination) * sin(AOP + TA)\n\n\n    /**\n     * Compute the mean angular motion, in radians per Julian year (365.25\n     * days), given a star mass in sols and a semimajor axis in meters.\n     */\n    function computeMeanAngularMotion(int128 real_central_mass_in_sols, int128 real_semimajor_axis) public pure returns (int128) {\n        // REAL_G_PER_SOL is big, but nothing masses more than 100s of sols, so we can do the multiply.\n        // But the semimajor axis in meters may be very big so we can't really do the cube for the denominator.\n        // And since values in radians per second are tiny, their squares are even tinier and probably out of range.\n        // So we scale up to radians per year\n        return real_central_mass_in_sols.mul(REAL_G_PER_SOL)\n            .div(real_semimajor_axis)\n            .mul(REAL_SECONDS_PER_YEAR)\n            .div(real_semimajor_axis)\n            .mul(REAL_SECONDS_PER_YEAR).div(real_semimajor_axis).sqrt();\n    }\n\n    /**\n     * Compute the mean anomaly, from 0 to 2 PI, given the mean anomaly at\n     * epoch, mean angular motion (in radians per Julian year) and the time (in\n     * Julian years) since epoch.\n     */\n    function computeMeanAnomaly(int128 real_mean_anomaly_at_epoch, int128 real_mean_angular_motion, int128 real_years_since_epoch) public pure returns (int128) {\n        return (real_mean_anomaly_at_epoch + real_mean_angular_motion.mul(real_years_since_epoch)) % REAL_TWO_PI;\n    }\n\n    /**\n     * Compute the eccentric anomaly, given the mean anomaly and eccentricity.\n     * Uses numerical methods to solve MA = EA - eccentricity * sin(EA). Limit to a certain iteration count.\n     */\n    function computeEccentricAnomalyLimited(int128 real_mean_anomaly, int128 real_eccentricity, int88 max_iterations) public pure returns (int128) {\n        // We are going to find the root of EA - eccentricity * sin(EA) - MA, in EA.\n        // We use Newton's Method.\n        // f(EA) =  EA - eccentricity * sin(EA) - MA\n        // f'(EA) = 1 - eccentricity * cos(EA)\n        // x_n = x_n-1 - f(x_n) / f'(x_n)\n\n        // Start with the 3rd-order approximation from http://alpheratz.net/dynamics/twobody/KeplerIterations_summary.pdf\n        // \"A Practical Method for Solving the Kepler Equation\"\n        int128 e2 = real_eccentricity.mul(real_eccentricity);\n        int128 e3 = e2.mul(real_eccentricity);\n        int128 cosMA = real_mean_anomaly.cos();\n        int128 real_guess = real_mean_anomaly + ((-REAL_HALF).mul(e3) + real_eccentricity + \n            (e2 + cosMA.mul(e3).mul(REAL_THREE).div(REAL_TWO)).mul(cosMA)).mul(real_mean_anomaly.sin());\n            \n        for (int88 i = 0; i < max_iterations; i++) {\n            int128 real_value = real_guess - real_eccentricity.mul(real_guess.sin()) - real_mean_anomaly;\n            \n            if (real_value.abs() <= 5) {\n                // We found the root within epsilon.\n                // Note that we are implicitly turning this random small number into a tiny real.\n                break;\n            }\n            \n            // Otherwise we update\n            int128 real_derivative = REAL_ONE - real_eccentricity.mul(real_guess.cos());\n            // The derivative can never be 0. If it were, since cos() is <= 1, the eccentricity would be 1.\n            // Eccentricity must be <= 1\n            assert(real_derivative != 0);\n            real_guess = real_guess - real_value.div(real_derivative);\n        }\n\n        // Bound to 0 to 2 pi angle range.\n        return real_guess % REAL_TWO_PI;\n    }\n\n    /**\n     * Compute the eccentric anomaly, given the mean anomaly and eccentricity.\n     * Uses numerical methods to solve MA = EA - eccentricity * sin(EA). Internally limited to a reasonable iteration count.\n     */\n    function computeEccentricAnomaly(int128 real_mean_anomaly, int128 real_eccentricity) public pure returns (int128) {\n        return computeEccentricAnomalyLimited(real_mean_anomaly, real_eccentricity, 10);\n    }\n\n    /**\n     * Compute the true anomaly from the eccentric anomaly and the eccentricity.\n     */\n    function computeTrueAnomaly(int128 real_eccentric_anomaly, int128 real_eccentricity) public pure returns (int128) {\n        int128 real_half_ea = real_eccentric_anomaly.div(REAL_TWO);\n        return RealMath.atan2((REAL_ONE - real_eccentricity).sqrt().mul(real_half_ea.cos()), (REAL_ONE + real_eccentricity).sqrt().mul(real_half_ea.sin())).mul(REAL_TWO);\n    }\n\n    /**\n     * Compute the current orbit radius (distance from parent body) from the true anomaly, semimajor axis, and eccentricity.\n     * Operates on distances in meters.\n     */\n    function computeRadius(int128 real_true_anomaly, int128 real_semimajor_axis, int128 real_eccentricity) public pure returns (int128) {\n         return real_semimajor_axis.mul(REAL_ONE - real_eccentricity.mul(real_eccentricity)).div(REAL_ONE + real_eccentricity.mul(real_true_anomaly.cos()));\n    }\n\n    /**\n     * Compute Cartesian X, Y, and Z offset from center of parent body to orbiting body.\n     * Operates on distances in meters.\n     * X is toward longitude 0 of the parent body.\n     * Y is the other in-plane direction.\n     * Z is up out of the plane.\n     */\n    function computeCartesianOffset(int128 real_radius, int128 real_true_anomaly, int128 real_lan, int128 real_inclination,\n        int128 real_aop) public pure returns (int128 real_x, int128 real_y, int128 real_z) {\n        \n        // Compute some intermediates\n        int128 cos_lan = real_lan.cos();\n        int128 sin_lan = real_lan.sin();\n        int128 aop_ta_cos = (real_aop + real_true_anomaly).cos();\n        int128 aop_ta_sin = (real_aop + real_true_anomaly).sin();\n        int128 inclination_cos = real_inclination.cos();\n        int128 inclination_sin = real_inclination.sin();\n\n        // Compute the actual coordinates\n        real_x = real_radius.mul(cos_lan.mul(aop_ta_cos) - sin_lan.mul(aop_ta_sin).mul(inclination_cos));\n        real_y = real_radius.mul(sin_lan.mul(aop_ta_cos) + cos_lan.mul(aop_ta_sin).mul(inclination_cos));\n        real_z = real_radius.mul(inclination_sin).mul(aop_ta_sin);\n\n    }\n}\n",
  "sourcePath": "/Users/anovak/Documents/Workspace/macroverse/contracts/OrbitalMechanics.sol",
  "compiler": {
    "name": "solc",
    "version": "0.4.24+commit.e67f0147.Emscripten.clang"
  },
  "schemaVersion": "2.0.1",
  "updatedAt": "2019-09-20T03:20:02.568Z"
}