{
  "contractName": "RealMath",
  "abi": [
    {
      "inputs": [
        {
          "internalType": "int88",
          "name": "ipart",
          "type": "int88"
        }
      ],
      "name": "toReal",
      "outputs": [
        {
          "internalType": "int128",
          "name": "",
          "type": "int128"
        }
      ],
      "stateMutability": "pure",
      "type": "function"
    },
    {
      "inputs": [
        {
          "internalType": "int128",
          "name": "real_value",
          "type": "int128"
        }
      ],
      "name": "fromReal",
      "outputs": [
        {
          "internalType": "int88",
          "name": "",
          "type": "int88"
        }
      ],
      "stateMutability": "pure",
      "type": "function"
    },
    {
      "inputs": [
        {
          "internalType": "int128",
          "name": "real_value",
          "type": "int128"
        }
      ],
      "name": "round",
      "outputs": [
        {
          "internalType": "int128",
          "name": "",
          "type": "int128"
        }
      ],
      "stateMutability": "pure",
      "type": "function"
    },
    {
      "inputs": [
        {
          "internalType": "int128",
          "name": "real_value",
          "type": "int128"
        }
      ],
      "name": "abs",
      "outputs": [
        {
          "internalType": "int128",
          "name": "",
          "type": "int128"
        }
      ],
      "stateMutability": "pure",
      "type": "function"
    },
    {
      "inputs": [
        {
          "internalType": "int128",
          "name": "real_value",
          "type": "int128"
        }
      ],
      "name": "fractionalBits",
      "outputs": [
        {
          "internalType": "uint40",
          "name": "",
          "type": "uint40"
        }
      ],
      "stateMutability": "pure",
      "type": "function"
    },
    {
      "inputs": [
        {
          "internalType": "int128",
          "name": "real_value",
          "type": "int128"
        }
      ],
      "name": "fpart",
      "outputs": [
        {
          "internalType": "int128",
          "name": "",
          "type": "int128"
        }
      ],
      "stateMutability": "pure",
      "type": "function"
    },
    {
      "inputs": [
        {
          "internalType": "int128",
          "name": "real_value",
          "type": "int128"
        }
      ],
      "name": "fpartSigned",
      "outputs": [
        {
          "internalType": "int128",
          "name": "",
          "type": "int128"
        }
      ],
      "stateMutability": "pure",
      "type": "function"
    },
    {
      "inputs": [
        {
          "internalType": "int128",
          "name": "real_value",
          "type": "int128"
        }
      ],
      "name": "ipart",
      "outputs": [
        {
          "internalType": "int128",
          "name": "",
          "type": "int128"
        }
      ],
      "stateMutability": "pure",
      "type": "function"
    },
    {
      "inputs": [
        {
          "internalType": "int128",
          "name": "real_a",
          "type": "int128"
        },
        {
          "internalType": "int128",
          "name": "real_b",
          "type": "int128"
        }
      ],
      "name": "mul",
      "outputs": [
        {
          "internalType": "int128",
          "name": "",
          "type": "int128"
        }
      ],
      "stateMutability": "pure",
      "type": "function"
    },
    {
      "inputs": [
        {
          "internalType": "int128",
          "name": "real_numerator",
          "type": "int128"
        },
        {
          "internalType": "int128",
          "name": "real_denominator",
          "type": "int128"
        }
      ],
      "name": "div",
      "outputs": [
        {
          "internalType": "int128",
          "name": "",
          "type": "int128"
        }
      ],
      "stateMutability": "pure",
      "type": "function"
    },
    {
      "inputs": [
        {
          "internalType": "int88",
          "name": "numerator",
          "type": "int88"
        },
        {
          "internalType": "int88",
          "name": "denominator",
          "type": "int88"
        }
      ],
      "name": "fraction",
      "outputs": [
        {
          "internalType": "int128",
          "name": "",
          "type": "int128"
        }
      ],
      "stateMutability": "pure",
      "type": "function"
    },
    {
      "inputs": [
        {
          "internalType": "int128",
          "name": "real_base",
          "type": "int128"
        },
        {
          "internalType": "int88",
          "name": "exponent",
          "type": "int88"
        }
      ],
      "name": "ipow",
      "outputs": [
        {
          "internalType": "int128",
          "name": "",
          "type": "int128"
        }
      ],
      "stateMutability": "pure",
      "type": "function"
    },
    {
      "inputs": [
        {
          "internalType": "int128",
          "name": "real_arg",
          "type": "int128"
        },
        {
          "internalType": "int256",
          "name": "max_iterations",
          "type": "int256"
        }
      ],
      "name": "lnLimited",
      "outputs": [
        {
          "internalType": "int128",
          "name": "",
          "type": "int128"
        }
      ],
      "stateMutability": "pure",
      "type": "function"
    },
    {
      "inputs": [
        {
          "internalType": "int128",
          "name": "real_arg",
          "type": "int128"
        }
      ],
      "name": "ln",
      "outputs": [
        {
          "internalType": "int128",
          "name": "",
          "type": "int128"
        }
      ],
      "stateMutability": "pure",
      "type": "function"
    },
    {
      "inputs": [
        {
          "internalType": "int128",
          "name": "real_arg",
          "type": "int128"
        },
        {
          "internalType": "int256",
          "name": "max_iterations",
          "type": "int256"
        }
      ],
      "name": "expLimited",
      "outputs": [
        {
          "internalType": "int128",
          "name": "",
          "type": "int128"
        }
      ],
      "stateMutability": "pure",
      "type": "function"
    },
    {
      "inputs": [
        {
          "internalType": "int128",
          "name": "real_arg",
          "type": "int128"
        }
      ],
      "name": "exp",
      "outputs": [
        {
          "internalType": "int128",
          "name": "",
          "type": "int128"
        }
      ],
      "stateMutability": "pure",
      "type": "function"
    },
    {
      "inputs": [
        {
          "internalType": "int128",
          "name": "real_base",
          "type": "int128"
        },
        {
          "internalType": "int128",
          "name": "real_exponent",
          "type": "int128"
        }
      ],
      "name": "pow",
      "outputs": [
        {
          "internalType": "int128",
          "name": "",
          "type": "int128"
        }
      ],
      "stateMutability": "pure",
      "type": "function"
    },
    {
      "inputs": [
        {
          "internalType": "int128",
          "name": "real_arg",
          "type": "int128"
        }
      ],
      "name": "sqrt",
      "outputs": [
        {
          "internalType": "int128",
          "name": "",
          "type": "int128"
        }
      ],
      "stateMutability": "pure",
      "type": "function"
    },
    {
      "inputs": [
        {
          "internalType": "int128",
          "name": "real_arg",
          "type": "int128"
        },
        {
          "internalType": "int88",
          "name": "max_iterations",
          "type": "int88"
        }
      ],
      "name": "sinLimited",
      "outputs": [
        {
          "internalType": "int128",
          "name": "",
          "type": "int128"
        }
      ],
      "stateMutability": "pure",
      "type": "function"
    },
    {
      "inputs": [
        {
          "internalType": "int128",
          "name": "real_arg",
          "type": "int128"
        }
      ],
      "name": "sin",
      "outputs": [
        {
          "internalType": "int128",
          "name": "",
          "type": "int128"
        }
      ],
      "stateMutability": "pure",
      "type": "function"
    },
    {
      "inputs": [
        {
          "internalType": "int128",
          "name": "real_arg",
          "type": "int128"
        }
      ],
      "name": "cos",
      "outputs": [
        {
          "internalType": "int128",
          "name": "",
          "type": "int128"
        }
      ],
      "stateMutability": "pure",
      "type": "function"
    },
    {
      "inputs": [
        {
          "internalType": "int128",
          "name": "real_arg",
          "type": "int128"
        }
      ],
      "name": "tan",
      "outputs": [
        {
          "internalType": "int128",
          "name": "",
          "type": "int128"
        }
      ],
      "stateMutability": "pure",
      "type": "function"
    },
    {
      "inputs": [
        {
          "internalType": "int128",
          "name": "real_arg",
          "type": "int128"
        }
      ],
      "name": "atanSmall",
      "outputs": [
        {
          "internalType": "int128",
          "name": "",
          "type": "int128"
        }
      ],
      "stateMutability": "pure",
      "type": "function"
    },
    {
      "inputs": [
        {
          "internalType": "int128",
          "name": "real_y",
          "type": "int128"
        },
        {
          "internalType": "int128",
          "name": "real_x",
          "type": "int128"
        }
      ],
      "name": "atan2",
      "outputs": [
        {
          "internalType": "int128",
          "name": "",
          "type": "int128"
        }
      ],
      "stateMutability": "pure",
      "type": "function"
    }
  ],
  "bytecode": "0x610cbe610026600b82828239805160001a60731461001957fe5b30600052607381538281f3fe73000000000000000000000000000000000000000030146080604052600436106101625760003560e01c806392aea05a116100cd578063b697214611610086578063b69721461461042f578063bf93961c14610459578063d271b06714610479578063e01e92d214610499578063f0033b43146104b9578063f5a5d503146104d957610162565b806392aea05a14610359578063935f43b21461037f578063a807adca1461039f578063b0cbaab2146103bf578063b28332d3146103df578063b475396c1461040f57610162565b80633e2f55ca1161011f5780633e2f55ca146102765780634672f5551461029f57806367179ffb146102c95780636e3daae4146102f357806382396bc61461031357806384f1bd4e1461033957610162565b8063082ec5561461016757806315dbfe28146101a95780631dade0d4146101e257806325f39a631461020c5780632a663686146102365780632d8e0c9b14610256575b600080fd5b6101906004803603604081101561017d57600080fd5b508035600f0b9060200135600a0b6104f9565b60408051600f92830b90920b8252519081900360200190f35b6101c9600480360360208110156101bf57600080fd5b5035600f0b61055c565b60408051600a92830b90920b8252519081900360200190f35b610190600480360360408110156101f857600080fd5b508035600a90810b9160200135900b61056d565b6101906004803603604081101561022257600080fd5b508035600f90810b9160200135900b610584565b6101906004803603602081101561024c57600080fd5b5035600f0b6105a4565b6101906004803603602081101561026c57600080fd5b5035600f0b6105cf565b6101906004803603604081101561028c57600080fd5b508035600f0b9060200135600a0b610645565b610190600480360360408110156102b557600080fd5b508035600f90810b9160200135900b6106c0565b610190600480360360408110156102df57600080fd5b508035600f90810b9160200135900b610777565b6101906004803603602081101561030957600080fd5b5035600f0b610829565b6101906004803603604081101561032957600080fd5b508035600f0b906020013561083c565b6101906004803603602081101561034f57600080fd5b5035600f0b61091a565b6101906004803603604081101561036f57600080fd5b508035600f0b906020013561093b565b6101906004803603602081101561039557600080fd5b5035600f0b610983565b610190600480360360208110156103b557600080fd5b5035600f0b610996565b610190600480360360208110156103d557600080fd5b5035600f0b6109a9565b6103f56004803603602081101561034f57600080fd5b6040805164ffffffffff9092168252519081900360200190f35b6101906004803603602081101561042557600080fd5b5035600f0b6109b6565b6101906004803603604081101561044557600080fd5b508035600f90810b9160200135900b6109c3565b6101906004803603602081101561046f57600080fd5b5035600f0b6109d1565b6101906004803603602081101561048f57600080fd5b5035600f0b610a21565b610190600480360360208110156104af57600080fd5b5035600f0b610a2e565b610190600480360360208110156104cf57600080fd5b5035600f0b610a4d565b610190600480360360208110156104ef57600080fd5b5035600a0b610a64565b60008082600a0b121561050b57600080fd5b600160281b5b82600a0b6000146105535782600116600a0b600114156105385761053581856109c3565b90505b600183600a0b901d925061054c84856109c3565b9350610511565b90505b92915050565b600160281b600f82900b055b919050565b600061055361057b84610a64565b61058484610a64565b6000600f82810b9084900b600160281b028161059c57fe5b059392505050565b6000806105b08361091a565b9050600083600f0b12156105c8576000039050610568565b9050610568565b6000806105dc83846109c3565b905061063e6106316455232d2bb261062a61061d641da06a6e336106166106096402ef6c340519896109c3565b640d4ca0c28301886109c3565b03866109c3565b643177d9557101856109c3565b03836109c3565b64fffe4bcada01846109c3565b9392505050565b6506487ed5110b600f9290920b91909107906000600160281b60001983015b600081600a0b126106ad5761069c61069661067f87886109c3565b610584846002026003018560020260020102610a64565b836109c3565b600160281b03915060001901610664565b506106b884826109c3565b949350505050565b600081600f0b600014156106d95750600160281b610556565b82600f0b600014156106fe57600082600f0b12156106f657600080fd5b506000610556565b6107078261091a565b600f0b61074c57600082600f0b13156107335761072c836107278461055c565b6104f9565b9050610556565b61072c600160281b61058485610727600087900361055c565b600083600f0b121561075d57600080fd5b6105536107728361076d86610a21565b6109c3565b6109a9565b600080600061078584610a2e565b9050600061079286610a2e565b905080600f0b82600f0b13156107bb576107b46107af8284610584565b6105cf565b92506107d3565b6107c86107af8383610584565b6501921fb544430392505b600085600f0b121561080c57600086600f0b12156107fb576503243f6a888683039250610807565b826503243f6a88860392505b61081f565b600086600f0b121561081f578260000392505b5090949350505050565b600061055682600160281b60011d6106c0565b60008083600f0b1361084d57600080fd5b600f83900b600160281b141561086557506000610556565b60008061087185610a70565b9092509050600061089064ffffffffff198401600160281b8501610584565b90506000805b8681600a0b12156108e35760006108c56108b685846002026001016104f9565b61058484600202600101610a64565b928301929050600f81900b6108da57506108e3565b50600101610896565b506108f481650200000000006109c3565b90508061090e61090385610a64565b64b17217f7d26109c3565b01979650505050505050565b6000600160281b61092a83610a2e565b600f0b8161093457fe5b0792915050565b600080600160281b815b8481600a0b121561081f57918101916109688261076d8861058460018601610a64565b915081600f0b6000141561097b5761081f565b600101610945565b600061098e826105a4565b909103919050565b60006105566501921fb5444383016109b6565b600061055682606461093b565b600061055682600f610645565b600f91820b910b0260281d90565b6000806109dd8361055c565b905060006480000000006109f08561091a565b1664ffffffffff161115610a18576000600f84900b1215610a145760001901610a18565b6001015b61063e81610a64565b600061055682606461083c565b60008082600f0b1315610a42575080610568565b816000039050610568565b6000610556610a5b836109b6565b61058484610996565b600a0b600160281b0290565b600080600083600f0b13610a8357600080fd5b6000610a99610a9485600f0b610afe565b610b38565b60ff169050602881039150600082600a0b1215610ad25781600003600a0b600f0b84600f0b6000821215610ac957fe5b901b9250610af8565b600082600a0b12610af85781600a0b600f0b84600f0b6000821215610af357fe5b901d92505b50915091565b600181811c909117600281901c17600481901c17600881901c17601081901c17602081901c17604081901c17608081901c179081901c1890565b60007faaaaaaaaaaaaaaaaaaaaaaaaaaaaaaaaaaaaaaaaaaaaaaaaaaaaaaaaaaaaaaaa821615610b66576001175b7fcccccccccccccccccccccccccccccccccccccccccccccccccccccccccccccccc821615610b92576002175b7ff0f0f0f0f0f0f0f0f0f0f0f0f0f0f0f0f0f0f0f0f0f0f0f0f0f0f0f0f0f0f0f0821615610bbe576004175b7fff00ff00ff00ff00ff00ff00ff00ff00ff00ff00ff00ff00ff00ff00ff00ff00821615610bea576008175b7fffff0000ffff0000ffff0000ffff0000ffff0000ffff0000ffff0000ffff0000821615610c16576010175b7fffffffff00000000ffffffff00000000ffffffff00000000ffffffff00000000821615610c42576020175b77ffffffffffffffff0000000000000000ffffffffffffffff19821615610c67576040175b6fffffffffffffffffffffffffffffffff198216156105685760801791905056fea2646970667358221220e8735e7727f1152b0e9ff1bd2a5ffc8a31ff598864f03ab12a566c6f6ba00bc764736f6c634300060a0033",
  "immutableReferences": {},
  "source": "pragma solidity ^0.6.10;\n\n/**\n * RealMath: fixed-point math library, based on fractional and integer parts.\n * Using int128 as real88x40, which isn't in Solidity yet.\n * 40 fractional bits gets us down to 1E-12 precision, while still letting us\n * go up to galaxy scale counting in meters.\n * Internally uses the wider int256 for some math.\n *\n * Note that for addition, subtraction, and mod (%), you should just use the\n * built-in Solidity operators. Functions for these operations are not provided.\n *\n * Note that the fancy functions like sqrt, atan2, etc. aren't as accurate as\n * they should be. They are (hopefully) Good Enough for doing orbital mechanics\n * on block timescales in a game context, but they may not be good enough for\n * other applications.\n */\n\nlibrary RealMath {\n    \n    /**@dev\n     * How many total bits are there?\n     */\n    int256 constant REAL_BITS = 128;\n    \n    /**@dev\n     * How many fractional bits are there?\n     */\n    int256 constant REAL_FBITS = 40;\n    \n    /**@dev\n     * How many integer bits are there?\n     */\n    int256 constant REAL_IBITS = REAL_BITS - REAL_FBITS;\n    \n    /**@dev\n     * What's the first non-fractional bit\n     */\n    int128 constant REAL_ONE = int128(1) << int128(REAL_FBITS);\n    \n    /**@dev\n     * What's the last fractional bit?\n     */\n    int128 constant REAL_HALF = REAL_ONE >> int128(1);\n    \n    /**@dev\n     * What's two? Two is pretty useful.\n     */\n    int128 constant REAL_TWO = REAL_ONE << int128(1);\n    \n    /**@dev\n     * And our logarithms are based on ln(2).\n     */\n    int128 constant REAL_LN_TWO = 762123384786;\n    \n    /**@dev\n     * It is also useful to have Pi around.\n     */\n    int128 constant REAL_PI = 3454217652358;\n    \n    /**@dev\n     * And half Pi, to save on divides.\n     * TODO: That might not be how the compiler handles constants.\n     */\n    int128 constant REAL_HALF_PI = 1727108826179;\n    \n    /**@dev\n     * And two pi, which happens to be odd in its most accurate representation.\n     */\n    int128 constant REAL_TWO_PI = 6908435304715;\n    \n    /**@dev\n     * What's the sign bit?\n     */\n    int128 constant SIGN_MASK = int128(1) << int128(127);\n    \n\n    /**\n     * Convert an integer to a real. Preserves sign.\n     */\n    function toReal(int88 ipart) public pure returns (int128) {\n        return int128(ipart) * REAL_ONE;\n    }\n    \n    /**\n     * Convert a real to an integer. Preserves sign.\n     */\n    function fromReal(int128 real_value) public pure returns (int88) {\n        return int88(real_value / REAL_ONE);\n    }\n    \n    /**\n     * Round a real to the nearest integral real value.\n     */\n    function round(int128 real_value) public pure returns (int128) {\n        // First, truncate.\n        int88 ipart = fromReal(real_value);\n        if ((fractionalBits(real_value) & (uint40(1) << uint40(REAL_FBITS - 1))) > 0) {\n            // High fractional bit is set. Round up.\n            if (real_value < int128(0)) {\n                // Rounding up for a negative number is rounding down.\n                ipart -= 1;\n            } else {\n                ipart += 1;\n            }\n        }\n        return toReal(ipart);\n    }\n    \n    /**\n     * Get the absolute value of a real. Just the same as abs on a normal int128.\n     */\n    function abs(int128 real_value) public pure returns (int128) {\n        if (real_value > 0) {\n            return real_value;\n        } else {\n            return -real_value;\n        }\n    }\n    \n    /**\n     * Returns the fractional bits of a real. Ignores the sign of the real.\n     */\n    function fractionalBits(int128 real_value) public pure returns (uint40) {\n        return uint40(abs(real_value) % REAL_ONE);\n    }\n    \n    /**\n     * Get the fractional part of a real, as a real. Ignores sign (so fpart(-0.5) is 0.5).\n     */\n    function fpart(int128 real_value) public pure returns (int128) {\n        // This gets the fractional part but strips the sign\n        return abs(real_value) % REAL_ONE;\n    }\n\n    /**\n     * Get the fractional part of a real, as a real. Respects sign (so fpartSigned(-0.5) is -0.5).\n     */\n    function fpartSigned(int128 real_value) public pure returns (int128) {\n        // This gets the fractional part but strips the sign\n        int128 fractional = fpart(real_value);\n        if (real_value < 0) {\n            // Add the negative sign back in.\n            return -fractional;\n        } else {\n            return fractional;\n        }\n    }\n    \n    /**\n     * Get the integer part of a fixed point value.\n     */\n    function ipart(int128 real_value) public pure returns (int128) {\n        // Subtract out the fractional part to get the real part.\n        return real_value - fpartSigned(real_value);\n    }\n    \n    /**\n     * Multiply one real by another. Truncates overflows.\n     */\n    function mul(int128 real_a, int128 real_b) public pure returns (int128) {\n        // When multiplying fixed point in x.y and z.w formats we get (x+z).(y+w) format.\n        // So we just have to clip off the extra REAL_FBITS fractional bits.\n        return int128((int256(real_a) * int256(real_b)) >> REAL_FBITS);\n    }\n    \n    /**\n     * Divide one real by another real. Truncates overflows.\n     */\n    function div(int128 real_numerator, int128 real_denominator) public pure returns (int128) {\n        // We use the reverse of the multiplication trick: convert numerator from\n        // x.y to (x+z).(y+w) fixed point, then divide by denom in z.w fixed point.\n        return int128((int256(real_numerator) * REAL_ONE) / int256(real_denominator));\n    }\n    \n    /**\n     * Create a real from a rational fraction.\n     */\n    function fraction(int88 numerator, int88 denominator) public pure returns (int128) {\n        return div(toReal(numerator), toReal(denominator));\n    }\n    \n    // Now we have some fancy math things (like pow and trig stuff). This isn't\n    // in the RealMath that was deployed with the original Macroverse\n    // deployment, so it needs to be linked into your contract statically.\n    \n    /**\n     * Raise a number to a positive integer power in O(log power) time.\n     * See <https://stackoverflow.com/a/101613>\n     */\n    function ipow(int128 real_base, int88 exponent) public pure returns (int128) {\n        if (exponent < 0) {\n            // Negative powers are not allowed here.\n            revert();\n        }\n        \n        // Start with the 0th power\n        int128 real_result = REAL_ONE;\n        while (exponent != 0) {\n            // While there are still bits set\n            if ((exponent & 0x1) == 0x1) {\n                // If the low bit is set, multiply in the (many-times-squared) base\n                real_result = mul(real_result, real_base);\n            }\n            // Shift off the low bit\n            exponent = exponent >> 1;\n            // Do the squaring\n            real_base = mul(real_base, real_base);\n        }\n        \n        // Return the final result.\n        return real_result;\n    }\n    \n    /**\n     * Zero all but the highest set bit of a number.\n     * See <https://stackoverflow.com/a/53184>\n     */\n    function hibit(uint256 val) internal pure returns (uint256) {\n        // Set all the bits below the highest set bit\n        val |= (val >>  1);\n        val |= (val >>  2);\n        val |= (val >>  4);\n        val |= (val >>  8);\n        val |= (val >> 16);\n        val |= (val >> 32);\n        val |= (val >> 64);\n        val |= (val >> 128);\n        return val ^ (val >> 1);\n    }\n    \n    /**\n     * Given a number with one bit set, finds the index of that bit.\n     */\n    function findbit(uint256 val) internal pure returns (uint8 index) {\n        index = 0;\n        // We and the value with alternating bit patters of various pitches to find it.\n        \n        if (val & 0xAAAAAAAAAAAAAAAAAAAAAAAAAAAAAAAAAAAAAAAAAAAAAAAAAAAAAAAAAAAAAAAA != 0) {\n            // Picth 1\n            index |= 1;\n        }\n        if (val & 0xCCCCCCCCCCCCCCCCCCCCCCCCCCCCCCCCCCCCCCCCCCCCCCCCCCCCCCCCCCCCCCCC != 0) {\n            // Pitch 2\n            index |= 2;\n        }\n        if (val & 0xF0F0F0F0F0F0F0F0F0F0F0F0F0F0F0F0F0F0F0F0F0F0F0F0F0F0F0F0F0F0F0F0 != 0) {\n            // Pitch 4\n            index |= 4;\n        }\n        if (val & 0xFF00FF00FF00FF00FF00FF00FF00FF00FF00FF00FF00FF00FF00FF00FF00FF00 != 0) {\n            // Pitch 8\n            index |= 8;\n        }\n        if (val & 0xFFFF0000FFFF0000FFFF0000FFFF0000FFFF0000FFFF0000FFFF0000FFFF0000 != 0) {\n            // Pitch 16\n            index |= 16;\n        }\n        if (val & 0xFFFFFFFF00000000FFFFFFFF00000000FFFFFFFF00000000FFFFFFFF00000000 != 0) {\n            // Pitch 32\n            index |= 32;\n        }\n        if (val & 0xFFFFFFFFFFFFFFFF0000000000000000FFFFFFFFFFFFFFFF0000000000000000 != 0) {\n            // Pitch 64\n            index |= 64;\n        }\n        if (val & 0xFFFFFFFFFFFFFFFFFFFFFFFFFFFFFFFF00000000000000000000000000000000 != 0) {\n            // Pitch 128\n            index |= 128;\n        }\n    }\n    \n    /**\n     * Shift real_arg left or right until it is between 1 and 2. Return the\n     * rescaled value, and the number of bits of right shift applied. Shift may be negative.\n     *\n     * Expresses real_arg as real_scaled * 2^shift, setting shift to put real_arg between [1 and 2).\n     *\n     * Rejects 0 or negative arguments.\n     */\n    function rescale(int128 real_arg) internal pure returns (int128 real_scaled, int88 shift) {\n        if (real_arg <= 0) {\n            // Not in domain!\n            revert();\n        }\n        \n        // Find the high bit\n        int88 high_bit = findbit(hibit(uint256(real_arg)));\n        \n        // We'll shift so the high bit is the lowest non-fractional bit.\n        shift = high_bit - int88(REAL_FBITS);\n        \n        if (shift < 0) {\n            // Shift left\n            real_scaled = real_arg << int128(-shift);\n        } else if (shift >= 0) {\n            // Shift right\n            real_scaled = real_arg >> int128(shift);\n        }\n    }\n    \n    /**\n     * Calculate the natural log of a number. Rescales the input value and uses\n     * the algorithm outlined at <https://math.stackexchange.com/a/977836> and\n     * the ipow implementation.\n     *\n     * Lets you artificially limit the number of iterations.\n     *\n     * Note that it is potentially possible to get an un-converged value; lack\n     * of convergence does not throw.\n     */\n    function lnLimited(int128 real_arg, int max_iterations) public pure returns (int128) {\n        if (real_arg <= 0) {\n            // Outside of acceptable domain\n            revert();\n        }\n        \n        if (real_arg == REAL_ONE) {\n            // Handle this case specially because people will want exactly 0 and\n            // not ~2^-39 ish.\n            return 0;\n        }\n        \n        // We know it's positive, so rescale it to be between [1 and 2)\n        int128 real_rescaled;\n        int88 shift;\n        (real_rescaled, shift) = rescale(real_arg);\n        \n        // Compute the argument to iterate on\n        int128 real_series_arg = div(real_rescaled - REAL_ONE, real_rescaled + REAL_ONE);\n        \n        // We will accumulate the result here\n        int128 real_series_result = 0;\n        \n        for (int88 n = 0; n < max_iterations; n++) {\n            // Compute term n of the series\n            int128 real_term = div(ipow(real_series_arg, 2 * n + 1), toReal(2 * n + 1));\n            // And add it in\n            real_series_result += real_term;\n            if (real_term == 0) {\n                // We must have converged. Next term is too small to represent.\n                break;\n            }\n            // If we somehow never converge I guess we will run out of gas\n        }\n        \n        // Double it to account for the factor of 2 outside the sum\n        real_series_result = mul(real_series_result, REAL_TWO);\n        \n        // Now compute and return the overall result\n        return mul(toReal(shift), REAL_LN_TWO) + real_series_result;\n        \n    }\n    \n    /**\n     * Calculate a natural logarithm with a sensible maximum iteration count to\n     * wait until convergence. Note that it is potentially possible to get an\n     * un-converged value; lack of convergence does not throw.\n     */\n    function ln(int128 real_arg) public pure returns (int128) {\n        return lnLimited(real_arg, 100);\n    }\n    \n    /**\n     * Calculate e^x. Uses the series given at\n     * <http://pages.mtu.edu/~shene/COURSES/cs201/NOTES/chap04/exp.html>.\n     *\n     * Lets you artificially limit the number of iterations.\n     *\n     * Note that it is potentially possible to get an un-converged value; lack\n     * of convergence does not throw.\n     */\n    function expLimited(int128 real_arg, int max_iterations) public pure returns (int128) {\n        // We will accumulate the result here\n        int128 real_result = 0;\n        \n        // We use this to save work computing terms\n        int128 real_term = REAL_ONE;\n        \n        for (int88 n = 0; n < max_iterations; n++) {\n            // Add in the term\n            real_result += real_term;\n            \n            // Compute the next term\n            real_term = mul(real_term, div(real_arg, toReal(n + 1)));\n            \n            if (real_term == 0) {\n                // We must have converged. Next term is too small to represent.\n                break;\n            }\n            // If we somehow never converge I guess we will run out of gas\n        }\n        \n        // Return the result\n        return real_result;\n        \n    }\n    \n    /**\n     * Calculate e^x with a sensible maximum iteration count to wait until\n     * convergence. Note that it is potentially possible to get an un-converged\n     * value; lack of convergence does not throw.\n     */\n    function exp(int128 real_arg) public pure returns (int128) {\n        return expLimited(real_arg, 100);\n    }\n    \n    /**\n     * Raise any number to any power, except for negative bases to fractional powers.\n     */\n    function pow(int128 real_base, int128 real_exponent) public pure returns (int128) {\n        if (real_exponent == 0) {\n            // Anything to the 0 is 1\n            return REAL_ONE;\n        }\n        \n        if (real_base == 0) {\n            if (real_exponent < 0) {\n                // Outside of domain!\n                revert();\n            }\n            // Otherwise it's 0\n            return 0;\n        }\n        \n        if (fpart(real_exponent) == 0) {\n            // Anything (even a negative base) is super easy to do to an integer power.\n            \n            if (real_exponent > 0) {\n                // Positive integer power is easy\n                return ipow(real_base, fromReal(real_exponent));\n            } else {\n                // Negative integer power is harder\n                return div(REAL_ONE, ipow(real_base, fromReal(-real_exponent)));\n            }\n        }\n        \n        if (real_base < 0) {\n            // It's a negative base to a non-integer power.\n            // In general pow(-x^y) is undefined, unless y is an int or some\n            // weird rational-number-based relationship holds.\n            revert();\n        }\n        \n        // If it's not a special case, actually do it.\n        return exp(mul(real_exponent, ln(real_base)));\n    }\n    \n    /**\n     * Compute the square root of a number.\n     */\n    function sqrt(int128 real_arg) public pure returns (int128) {\n        return pow(real_arg, REAL_HALF);\n    }\n    \n    /**\n     * Compute the sin of a number to a certain number of Taylor series terms.\n     */\n    function sinLimited(int128 real_arg, int88 max_iterations) public pure returns (int128) {\n        // First bring the number into 0 to 2 pi\n        // TODO: This will introduce an error for very large numbers, because the error in our Pi will compound.\n        // But for actual reasonable angle values we should be fine.\n        real_arg = real_arg % REAL_TWO_PI;\n        \n        int128 accumulator = REAL_ONE;\n        \n        // We sum from large to small iteration so that we can have higher powers in later terms\n        for (int88 iteration = max_iterations - 1; iteration >= 0; iteration--) {\n            accumulator = REAL_ONE - mul(div(mul(real_arg, real_arg), toReal((2 * iteration + 2) * (2 * iteration + 3))), accumulator);\n            // We can't stop early; we need to make it to the first term.\n        }\n        \n        return mul(real_arg, accumulator);\n    }\n    \n    /**\n     * Calculate sin(x) with a sensible maximum iteration count to wait until\n     * convergence.\n     */\n    function sin(int128 real_arg) public pure returns (int128) {\n        return sinLimited(real_arg, 15);\n    }\n    \n    /**\n     * Calculate cos(x).\n     */\n    function cos(int128 real_arg) public pure returns (int128) {\n        return sin(real_arg + REAL_HALF_PI);\n    }\n    \n    /**\n     * Calculate tan(x). May overflow for large results. May throw if tan(x)\n     * would be infinite, or return an approximation, or overflow.\n     */\n    function tan(int128 real_arg) public pure returns (int128) {\n        return div(sin(real_arg), cos(real_arg));\n    }\n    \n    /**\n     * Calculate atan(x) for x in [-1, 1].\n     * Uses the Chebyshev polynomial approach presented at\n     * https://www.mathworks.com/help/fixedpoint/examples/calculate-fixed-point-arctangent.html\n     * Uses polynomials received by personal communication.\n     * 0.999974x-0.332568x^3+0.193235x^5-0.115729x^7+0.0519505x^9-0.0114658x^11\n     */\n    function atanSmall(int128 real_arg) public pure returns (int128) {\n        int128 real_arg_squared = mul(real_arg, real_arg);\n        return mul(mul(mul(mul(mul(mul(\n            - 12606780422,  real_arg_squared) // x^11\n            + 57120178819,  real_arg_squared) // x^9\n            - 127245381171, real_arg_squared) // x^7\n            + 212464129393, real_arg_squared) // x^5\n            - 365662383026, real_arg_squared) // x^3\n            + 1099483040474, real_arg);       // x^1\n    }\n    \n    /**\n     * Compute the nice two-component arctangent of y/x.\n     */\n    function atan2(int128 real_y, int128 real_x) public pure returns (int128) {\n        int128 atan_result;\n        \n        // Do the angle correction shown at\n        // https://www.mathworks.com/help/fixedpoint/examples/calculate-fixed-point-arctangent.html\n        \n        // We will re-use these absolute values\n        int128 real_abs_x = abs(real_x);\n        int128 real_abs_y = abs(real_y);\n        \n        if (real_abs_x > real_abs_y) {\n            // We are in the (0, pi/4] region\n            // abs(y)/abs(x) will be in 0 to 1.\n            atan_result = atanSmall(div(real_abs_y, real_abs_x));\n        } else {\n            // We are in the (pi/4, pi/2) region\n            // abs(x) / abs(y) will be in 0 to 1; we swap the arguments\n            atan_result = REAL_HALF_PI - atanSmall(div(real_abs_x, real_abs_y));\n        }\n        \n        // Now we correct the result for other regions\n        if (real_x < 0) {\n            if (real_y < 0) {\n                atan_result -= REAL_PI;\n            } else {\n                atan_result = REAL_PI - atan_result;\n            }\n        } else {\n            if (real_y < 0) {\n                atan_result = -atan_result;\n            }\n        }\n        \n        return atan_result;\n    }\n}\n\n// SPDX-License-Identifier: MIT\n\n\n\n\n\n\n\n\n\n\n\n\n\n\n\n\n\n\n\n\n\n",
  "sourcePath": "/home/anovak/workspace/macroverse/contracts/RealMath.sol",
  "compiler": {
    "name": "solc",
    "version": "0.6.10+commit.00c0fcaf.Emscripten.clang"
  },
  "schemaVersion": "3.3.1",
  "updatedAt": "2020-12-11T02:46:41.031Z",
  "devdoc": {
    "methods": {},
    "stateVariables": {
      "REAL_BITS": {
        "details": "How many total bits are there?"
      },
      "REAL_FBITS": {
        "details": "How many fractional bits are there?"
      },
      "REAL_HALF": {
        "details": "What's the last fractional bit?"
      },
      "REAL_HALF_PI": {
        "details": "And half Pi, to save on divides. TODO: That might not be how the compiler handles constants."
      },
      "REAL_IBITS": {
        "details": "How many integer bits are there?"
      },
      "REAL_LN_TWO": {
        "details": "And our logarithms are based on ln(2)."
      },
      "REAL_ONE": {
        "details": "What's the first non-fractional bit"
      },
      "REAL_PI": {
        "details": "It is also useful to have Pi around."
      },
      "REAL_TWO": {
        "details": "What's two? Two is pretty useful."
      },
      "REAL_TWO_PI": {
        "details": "And two pi, which happens to be odd in its most accurate representation."
      },
      "SIGN_MASK": {
        "details": "What's the sign bit?"
      }
    }
  },
  "userdoc": {
    "methods": {
      "abs(int128)": {
        "notice": "Get the absolute value of a real. Just the same as abs on a normal int128."
      },
      "atan2(int128,int128)": {
        "notice": "Compute the nice two-component arctangent of y/x."
      },
      "atanSmall(int128)": {
        "notice": "Calculate atan(x) for x in [-1, 1]. Uses the Chebyshev polynomial approach presented at https://www.mathworks.com/help/fixedpoint/examples/calculate-fixed-point-arctangent.html Uses polynomials received by personal communication. 0.999974x-0.332568x^3+0.193235x^5-0.115729x^7+0.0519505x^9-0.0114658x^11"
      },
      "cos(int128)": {
        "notice": "Calculate cos(x)."
      },
      "div(int128,int128)": {
        "notice": "Divide one real by another real. Truncates overflows."
      },
      "exp(int128)": {
        "notice": "Calculate e^x with a sensible maximum iteration count to wait until convergence. Note that it is potentially possible to get an un-converged value; lack of convergence does not throw."
      },
      "expLimited(int128,int256)": {
        "notice": "Calculate e^x. Uses the series given at <http://pages.mtu.edu/~shene/COURSES/cs201/NOTES/chap04/exp.html>. Lets you artificially limit the number of iterations. Note that it is potentially possible to get an un-converged value; lack of convergence does not throw."
      },
      "fpart(int128)": {
        "notice": "Get the fractional part of a real, as a real. Ignores sign (so fpart(-0.5) is 0.5)."
      },
      "fpartSigned(int128)": {
        "notice": "Get the fractional part of a real, as a real. Respects sign (so fpartSigned(-0.5) is -0.5)."
      },
      "fraction(int88,int88)": {
        "notice": "Create a real from a rational fraction."
      },
      "fractionalBits(int128)": {
        "notice": "Returns the fractional bits of a real. Ignores the sign of the real."
      },
      "fromReal(int128)": {
        "notice": "Convert a real to an integer. Preserves sign."
      },
      "ipart(int128)": {
        "notice": "Get the integer part of a fixed point value."
      },
      "ipow(int128,int88)": {
        "notice": "Raise a number to a positive integer power in O(log power) time. See <https://stackoverflow.com/a/101613>"
      },
      "ln(int128)": {
        "notice": "Calculate a natural logarithm with a sensible maximum iteration count to wait until convergence. Note that it is potentially possible to get an un-converged value; lack of convergence does not throw."
      },
      "lnLimited(int128,int256)": {
        "notice": "Calculate the natural log of a number. Rescales the input value and uses the algorithm outlined at <https://math.stackexchange.com/a/977836> and the ipow implementation. Lets you artificially limit the number of iterations. Note that it is potentially possible to get an un-converged value; lack of convergence does not throw."
      },
      "mul(int128,int128)": {
        "notice": "Multiply one real by another. Truncates overflows."
      },
      "pow(int128,int128)": {
        "notice": "Raise any number to any power, except for negative bases to fractional powers."
      },
      "round(int128)": {
        "notice": "Round a real to the nearest integral real value."
      },
      "sin(int128)": {
        "notice": "Calculate sin(x) with a sensible maximum iteration count to wait until convergence."
      },
      "sinLimited(int128,int88)": {
        "notice": "Compute the sin of a number to a certain number of Taylor series terms."
      },
      "sqrt(int128)": {
        "notice": "Compute the square root of a number."
      },
      "tan(int128)": {
        "notice": "Calculate tan(x). May overflow for large results. May throw if tan(x) would be infinite, or return an approximation, or overflow."
      },
      "toReal(int88)": {
        "notice": "Convert an integer to a real. Preserves sign."
      }
    },
    "notice": "RealMath: fixed-point math library, based on fractional and integer parts. Using int128 as real88x40, which isn't in Solidity yet. 40 fractional bits gets us down to 1E-12 precision, while still letting us go up to galaxy scale counting in meters. Internally uses the wider int256 for some math. Note that for addition, subtraction, and mod (%), you should just use the built-in Solidity operators. Functions for these operations are not provided. Note that the fancy functions like sqrt, atan2, etc. aren't as accurate as they should be. They are (hopefully) Good Enough for doing orbital mechanics on block timescales in a game context, but they may not be good enough for other applications."
  }
}