{
  "contractName": "TestnetMRVToken",
  "abi": [
    {
      "constant": true,
      "inputs": [],
      "name": "isCrowdsaleActive",
      "outputs": [
        {
          "name": "",
          "type": "bool"
        }
      ],
      "payable": false,
      "stateMutability": "view",
      "type": "function"
    },
    {
      "constant": true,
      "inputs": [],
      "name": "name",
      "outputs": [
        {
          "name": "",
          "type": "string"
        }
      ],
      "payable": false,
      "stateMutability": "view",
      "type": "function"
    },
    {
      "constant": false,
      "inputs": [
        {
          "name": "spender",
          "type": "address"
        },
        {
          "name": "value",
          "type": "uint256"
        }
      ],
      "name": "approve",
      "outputs": [
        {
          "name": "",
          "type": "bool"
        }
      ],
      "payable": false,
      "stateMutability": "nonpayable",
      "type": "function"
    },
    {
      "constant": false,
      "inputs": [],
      "name": "clearCrowdsaleCloseTimer",
      "outputs": [],
      "payable": false,
      "stateMutability": "nonpayable",
      "type": "function"
    },
    {
      "constant": false,
      "inputs": [
        {
          "name": "tokenAddr",
          "type": "address"
        }
      ],
      "name": "reclaimToken",
      "outputs": [],
      "payable": false,
      "stateMutability": "nonpayable",
      "type": "function"
    },
    {
      "constant": true,
      "inputs": [],
      "name": "totalSupply",
      "outputs": [
        {
          "name": "",
          "type": "uint256"
        }
      ],
      "payable": false,
      "stateMutability": "view",
      "type": "function"
    },
    {
      "constant": false,
      "inputs": [],
      "name": "checkCloseTimer",
      "outputs": [],
      "payable": false,
      "stateMutability": "nonpayable",
      "type": "function"
    },
    {
      "constant": false,
      "inputs": [
        {
          "name": "from",
          "type": "address"
        },
        {
          "name": "to",
          "type": "address"
        },
        {
          "name": "value",
          "type": "uint256"
        }
      ],
      "name": "transferFrom",
      "outputs": [
        {
          "name": "",
          "type": "bool"
        }
      ],
      "payable": false,
      "stateMutability": "nonpayable",
      "type": "function"
    },
    {
      "constant": false,
      "inputs": [],
      "name": "openCrowdsale",
      "outputs": [],
      "payable": false,
      "stateMutability": "nonpayable",
      "type": "function"
    },
    {
      "constant": false,
      "inputs": [
        {
          "name": "contractAddr",
          "type": "address"
        }
      ],
      "name": "reclaimContract",
      "outputs": [],
      "payable": false,
      "stateMutability": "nonpayable",
      "type": "function"
    },
    {
      "constant": true,
      "inputs": [],
      "name": "decimals",
      "outputs": [
        {
          "name": "",
          "type": "uint8"
        }
      ],
      "payable": false,
      "stateMutability": "view",
      "type": "function"
    },
    {
      "constant": true,
      "inputs": [],
      "name": "maxCrowdsaleSupplyInWholeTokens",
      "outputs": [
        {
          "name": "",
          "type": "uint256"
        }
      ],
      "payable": false,
      "stateMutability": "view",
      "type": "function"
    },
    {
      "constant": false,
      "inputs": [
        {
          "name": "",
          "type": "address"
        },
        {
          "name": "",
          "type": "uint256"
        }
      ],
      "name": "increaseAllowance",
      "outputs": [
        {
          "name": "",
          "type": "bool"
        }
      ],
      "payable": false,
      "stateMutability": "nonpayable",
      "type": "function"
    },
    {
      "constant": true,
      "inputs": [],
      "name": "wholeTokensPerEth",
      "outputs": [
        {
          "name": "",
          "type": "uint256"
        }
      ],
      "payable": false,
      "stateMutability": "view",
      "type": "function"
    },
    {
      "constant": true,
      "inputs": [],
      "name": "closeTimer",
      "outputs": [
        {
          "name": "",
          "type": "uint256"
        }
      ],
      "payable": false,
      "stateMutability": "view",
      "type": "function"
    },
    {
      "constant": false,
      "inputs": [],
      "name": "clearCrowdsaleOpenTimer",
      "outputs": [],
      "payable": false,
      "stateMutability": "nonpayable",
      "type": "function"
    },
    {
      "constant": false,
      "inputs": [
        {
          "name": "newMaxInWholeTokens",
          "type": "uint256"
        }
      ],
      "name": "setMaxSupply",
      "outputs": [],
      "payable": false,
      "stateMutability": "nonpayable",
      "type": "function"
    },
    {
      "constant": true,
      "inputs": [
        {
          "name": "owner",
          "type": "address"
        }
      ],
      "name": "balanceOf",
      "outputs": [
        {
          "name": "",
          "type": "uint256"
        }
      ],
      "payable": false,
      "stateMutability": "view",
      "type": "function"
    },
    {
      "constant": false,
      "inputs": [],
      "name": "renounceOwnership",
      "outputs": [],
      "payable": false,
      "stateMutability": "nonpayable",
      "type": "function"
    },
    {
      "constant": false,
      "inputs": [
        {
          "name": "minutesFromNow",
          "type": "uint256"
        }
      ],
      "name": "setCrowdsaleOpenTimerFor",
      "outputs": [],
      "payable": false,
      "stateMutability": "nonpayable",
      "type": "function"
    },
    {
      "constant": false,
      "inputs": [
        {
          "name": "newDecimals",
          "type": "uint8"
        }
      ],
      "name": "setDecimals",
      "outputs": [],
      "payable": false,
      "stateMutability": "nonpayable",
      "type": "function"
    },
    {
      "constant": true,
      "inputs": [],
      "name": "closeTimerElapsed",
      "outputs": [
        {
          "name": "",
          "type": "bool"
        }
      ],
      "payable": false,
      "stateMutability": "view",
      "type": "function"
    },
    {
      "constant": true,
      "inputs": [],
      "name": "wholeTokensReserved",
      "outputs": [
        {
          "name": "",
          "type": "uint256"
        }
      ],
      "payable": false,
      "stateMutability": "view",
      "type": "function"
    },
    {
      "constant": true,
      "inputs": [],
      "name": "owner",
      "outputs": [
        {
          "name": "",
          "type": "address"
        }
      ],
      "payable": false,
      "stateMutability": "view",
      "type": "function"
    },
    {
      "constant": true,
      "inputs": [],
      "name": "isOwner",
      "outputs": [
        {
          "name": "",
          "type": "bool"
        }
      ],
      "payable": false,
      "stateMutability": "view",
      "type": "function"
    },
    {
      "constant": true,
      "inputs": [],
      "name": "openTimer",
      "outputs": [
        {
          "name": "",
          "type": "uint256"
        }
      ],
      "payable": false,
      "stateMutability": "view",
      "type": "function"
    },
    {
      "constant": true,
      "inputs": [],
      "name": "symbol",
      "outputs": [
        {
          "name": "",
          "type": "string"
        }
      ],
      "payable": false,
      "stateMutability": "view",
      "type": "function"
    },
    {
      "constant": false,
      "inputs": [],
      "name": "closeCrowdsale",
      "outputs": [],
      "payable": false,
      "stateMutability": "nonpayable",
      "type": "function"
    },
    {
      "constant": false,
      "inputs": [],
      "name": "reclaimEther",
      "outputs": [],
      "payable": false,
      "stateMutability": "nonpayable",
      "type": "function"
    },
    {
      "constant": false,
      "inputs": [
        {
          "name": "",
          "type": "address"
        },
        {
          "name": "",
          "type": "uint256"
        }
      ],
      "name": "decreaseAllowance",
      "outputs": [
        {
          "name": "",
          "type": "bool"
        }
      ],
      "payable": false,
      "stateMutability": "nonpayable",
      "type": "function"
    },
    {
      "constant": false,
      "inputs": [
        {
          "name": "to",
          "type": "address"
        },
        {
          "name": "value",
          "type": "uint256"
        }
      ],
      "name": "transfer",
      "outputs": [
        {
          "name": "",
          "type": "bool"
        }
      ],
      "payable": false,
      "stateMutability": "nonpayable",
      "type": "function"
    },
    {
      "constant": true,
      "inputs": [
        {
          "name": "",
          "type": "address"
        },
        {
          "name": "",
          "type": "uint256"
        },
        {
          "name": "",
          "type": "bytes"
        }
      ],
      "name": "tokenFallback",
      "outputs": [],
      "payable": false,
      "stateMutability": "pure",
      "type": "function"
    },
    {
      "constant": false,
      "inputs": [],
      "name": "checkOpenTimer",
      "outputs": [],
      "payable": false,
      "stateMutability": "nonpayable",
      "type": "function"
    },
    {
      "constant": true,
      "inputs": [
        {
          "name": "owner",
          "type": "address"
        },
        {
          "name": "spender",
          "type": "address"
        }
      ],
      "name": "allowance",
      "outputs": [
        {
          "name": "",
          "type": "uint256"
        }
      ],
      "payable": false,
      "stateMutability": "view",
      "type": "function"
    },
    {
      "constant": false,
      "inputs": [
        {
          "name": "minutesFromNow",
          "type": "uint256"
        }
      ],
      "name": "setCrowdsaleCloseTimerFor",
      "outputs": [],
      "payable": false,
      "stateMutability": "nonpayable",
      "type": "function"
    },
    {
      "constant": true,
      "inputs": [],
      "name": "openTimerElapsed",
      "outputs": [
        {
          "name": "",
          "type": "bool"
        }
      ],
      "payable": false,
      "stateMutability": "view",
      "type": "function"
    },
    {
      "constant": false,
      "inputs": [
        {
          "name": "newOwner",
          "type": "address"
        }
      ],
      "name": "transferOwnership",
      "outputs": [],
      "payable": false,
      "stateMutability": "nonpayable",
      "type": "function"
    },
    {
      "inputs": [
        {
          "name": "sendProceedsTo",
          "type": "address"
        },
        {
          "name": "sendTokensTo",
          "type": "address"
        }
      ],
      "payable": false,
      "stateMutability": "nonpayable",
      "type": "constructor"
    },
    {
      "payable": true,
      "stateMutability": "payable",
      "type": "fallback"
    },
    {
      "anonymous": false,
      "inputs": [
        {
          "indexed": false,
          "name": "time",
          "type": "uint256"
        }
      ],
      "name": "CrowdsaleOpen",
      "type": "event"
    },
    {
      "anonymous": false,
      "inputs": [
        {
          "indexed": false,
          "name": "time",
          "type": "uint256"
        },
        {
          "indexed": false,
          "name": "etherAmount",
          "type": "uint256"
        },
        {
          "indexed": false,
          "name": "from",
          "type": "address"
        }
      ],
      "name": "TokenPurchase",
      "type": "event"
    },
    {
      "anonymous": false,
      "inputs": [
        {
          "indexed": false,
          "name": "time",
          "type": "uint256"
        }
      ],
      "name": "CrowdsaleClose",
      "type": "event"
    },
    {
      "anonymous": false,
      "inputs": [
        {
          "indexed": false,
          "name": "newDecimals",
          "type": "uint8"
        }
      ],
      "name": "DecimalChange",
      "type": "event"
    },
    {
      "anonymous": false,
      "inputs": [
        {
          "indexed": true,
          "name": "previousOwner",
          "type": "address"
        },
        {
          "indexed": true,
          "name": "newOwner",
          "type": "address"
        }
      ],
      "name": "OwnershipTransferred",
      "type": "event"
    },
    {
      "anonymous": false,
      "inputs": [
        {
          "indexed": true,
          "name": "from",
          "type": "address"
        },
        {
          "indexed": true,
          "name": "to",
          "type": "address"
        },
        {
          "indexed": false,
          "name": "value",
          "type": "uint256"
        }
      ],
      "name": "Transfer",
      "type": "event"
    },
    {
      "anonymous": false,
      "inputs": [
        {
          "indexed": true,
          "name": "owner",
          "type": "address"
        },
        {
          "indexed": true,
          "name": "spender",
          "type": "address"
        },
        {
          "indexed": false,
          "name": "value",
          "type": "uint256"
        }
      ],
      "name": "Approval",
      "type": "event"
    },
    {
      "constant": false,
      "inputs": [
        {
          "name": "amount",
          "type": "uint256"
        }
      ],
      "name": "mint",
      "outputs": [],
      "payable": false,
      "stateMutability": "nonpayable",
      "type": "function"
    }
  ],
  "bytecode": "0x6080604052600060075560006008553480156200001b57600080fd5b50604051604080620022da8339810180604052810190808051906020019092919080519060200190929190505050818133600360006101000a81548173ffffffffffffffffffffffffffffffffffffffff021916908373ffffffffffffffffffffffffffffffffffffffff160217905550600360009054906101000a900473ffffffffffffffffffffffffffffffffffffffff1673ffffffffffffffffffffffffffffffffffffffff16600073ffffffffffffffffffffffffffffffffffffffff167f8be0079c531659141344cd1fd0a4f28419497f9722a3daafe3b4186f6b6457e060405160405180910390a381600460006101000a81548173ffffffffffffffffffffffffffffffffffffffff021916908373ffffffffffffffffffffffffffffffffffffffff1602179055506012600360146101000a81548160ff021916908360ff1602179055506200018d81670de0b6b3a764000061138802620001d8640100000000026401000000009004565b6000600660006101000a81548160ff0219169083151502179055506000600660016101000a81548160ff0219169083151502179055506305f5e1006005819055505050505062000359565b60008273ffffffffffffffffffffffffffffffffffffffff1614151515620001ff57600080fd5b6200022481600254620003376401000000000262001ab0179091906401000000009004565b6002819055506200028b816000808573ffffffffffffffffffffffffffffffffffffffff1673ffffffffffffffffffffffffffffffffffffffff16815260200190815260200160002054620003376401000000000262001ab0179091906401000000009004565b6000808473ffffffffffffffffffffffffffffffffffffffff1673ffffffffffffffffffffffffffffffffffffffff168152602001908152602001600020819055508173ffffffffffffffffffffffffffffffffffffffff16600073ffffffffffffffffffffffffffffffffffffffff167fddf252ad1be2c89b69c2b068fc378daa952ba7f163c4a11628f55a4df523b3ef836040518082815260200191505060405180910390a35050565b60008082840190508381101515156200034f57600080fd5b8091505092915050565b611f7180620003696000396000f3006080604052600436106101d8576000357c0100000000000000000000000000000000000000000000000000000000900463ffffffff1680630118e6861461022857806306fdde0314610257578063095ea7b3146102e75780630d051c521461034c57806317ffc3201461036357806318160ddd146103a65780631f4425f3146103d157806323b872dd146103e857806328ef6f401461046d5780632aed7f3f14610484578063313ce567146104c7578063346fc0dd146104f857806339509351146105235780634e15dfe9146105885780635da24f90146105b35780636d6e2710146105de5780636f8b44b0146105f557806370a0823114610622578063715018a61461067957806379d220ae146106905780637a1395aa146106bd57806380f4531f146106ed5780638490d5981461071c5780638da5cb5b146107475780638f32d59b1461079e57806392f351f9146107cd57806395d89b41146107f8578063983c0a01146108885780639f727c271461089f578063a0712d68146108b6578063a457c2d7146108e3578063a9059cbb14610948578063c0ee0b8a146109ad578063dd3260fc14610a12578063dd62ed3e14610a29578063e330a73714610aa0578063ea66363114610acd578063f2fde38b14610afc575b6101e0610b3f565b6101e8610ba9565b600660019054906101000a900460ff161561020257600080fd5b600660009054906101000a900460ff16151561021d57600080fd5b61022633610c13565b005b34801561023457600080fd5b5061023d610d9d565b604051808215151515815260200191505060405180910390f35b34801561026357600080fd5b5061026c610deb565b6040518080602001828103825283818151815260200191508051906020019080838360005b838110156102ac578082015181840152602081019050610291565b50505050905090810190601f1680156102d95780820380516001836020036101000a031916815260200191505b509250505060405180910390f35b3480156102f357600080fd5b50610332600480360381019080803573ffffffffffffffffffffffffffffffffffffffff16906020019092919080359060200190929190505050610e24565b604051808215151515815260200191505060405180910390f35b34801561035857600080fd5b50610361610f51565b005b34801561036f57600080fd5b506103a4600480360381019080803573ffffffffffffffffffffffffffffffffffffffff169060200190929190505050610f90565b005b3480156103b257600080fd5b506103bb61116c565b6040518082815260200191505060405180910390f35b3480156103dd57600080fd5b506103e6610ba9565b005b3480156103f457600080fd5b50610453600480360381019080803573ffffffffffffffffffffffffffffffffffffffff169060200190929190803573ffffffffffffffffffffffffffffffffffffffff16906020019092919080359060200190929190505050611176565b604051808215151515815260200191505060405180910390f35b34801561047957600080fd5b50610482611328565b005b34801561049057600080fd5b506104c5600480360381019080803573ffffffffffffffffffffffffffffffffffffffff1690602001909291905050506113b9565b005b3480156104d357600080fd5b506104dc61148f565b604051808260ff1660ff16815260200191505060405180910390f35b34801561050457600080fd5b5061050d6114a2565b6040518082815260200191505060405180910390f35b34801561052f57600080fd5b5061056e600480360381019080803573ffffffffffffffffffffffffffffffffffffffff169060200190929190803590602001909291905050506114a8565b604051808215151515815260200191505060405180910390f35b34801561059457600080fd5b5061059d6114af565b6040518082815260200191505060405180910390f35b3480156105bf57600080fd5b506105c86114b5565b6040518082815260200191505060405180910390f35b3480156105ea57600080fd5b506105f36114bb565b005b34801561060157600080fd5b50610620600480360381019080803590602001909291905050506114fa565b005b34801561062e57600080fd5b50610663600480360381019080803573ffffffffffffffffffffffffffffffffffffffff169060200190929190505050611539565b6040518082815260200191505060405180910390f35b34801561068557600080fd5b5061068e611581565b005b34801561069c57600080fd5b506106bb60048036038101908080359060200190929190505050611655565b005b3480156106c957600080fd5b506106eb600480360381019080803560ff169060200190929190505050611699565b005b3480156106f957600080fd5b50610702611739565b604051808215151515815260200191505060405180910390f35b34801561072857600080fd5b50610731611753565b6040518082815260200191505060405180910390f35b34801561075357600080fd5b5061075c611759565b604051808273ffffffffffffffffffffffffffffffffffffffff1673ffffffffffffffffffffffffffffffffffffffff16815260200191505060405180910390f35b3480156107aa57600080fd5b506107b3611783565b604051808215151515815260200191505060405180910390f35b3480156107d957600080fd5b506107e26117db565b6040518082815260200191505060405180910390f35b34801561080457600080fd5b5061080d6117e1565b6040518080602001828103825283818151815260200191508051906020019080838360005b8381101561084d578082015181840152602081019050610832565b50505050905090810190601f16801561087a5780820380516001836020036101000a031916815260200191505b509250505060405180910390f35b34801561089457600080fd5b5061089d61181a565b005b3480156108ab57600080fd5b506108b46118ce565b005b3480156108c257600080fd5b506108e16004803603810190808035906020019092919050505061193e565b005b3480156108ef57600080fd5b5061092e600480360381019080803573ffffffffffffffffffffffffffffffffffffffff1690602001909291908035906020019092919050505061194b565b604051808215151515815260200191505060405180910390f35b34801561095457600080fd5b50610993600480360381019080803573ffffffffffffffffffffffffffffffffffffffff16906020019092919080359060200190929190505050611952565b604051808215151515815260200191505060405180910390f35b3480156109b957600080fd5b50610a10600480360381019080803573ffffffffffffffffffffffffffffffffffffffff16906020019092919080359060200190929190803590602001908201803590602001919091929391929390505050611969565b005b348015610a1e57600080fd5b50610a27610b3f565b005b348015610a3557600080fd5b50610a8a600480360381019080803573ffffffffffffffffffffffffffffffffffffffff169060200190929190803573ffffffffffffffffffffffffffffffffffffffff16906020019092919050505061196e565b6040518082815260200191505060405180910390f35b348015610aac57600080fd5b50610acb600480360381019080803590602001909291905050506119f5565b005b348015610ad957600080fd5b50610ae2611a39565b604051808215151515815260200191505060405180910390f35b348015610b0857600080fd5b50610b3d600480360381019080803573ffffffffffffffffffffffffffffffffffffffff169060200190929190505050611a53565b005b610b47611a39565b15610ba7576001600660006101000a81548160ff02191690831515021790555060006007819055507ff82aa3c8d92a1044b702b0c9718bd99d353a4a85a215bdb4fe6c6a04b5f541e0426040518082815260200191505060405180910390a15b565b610bb1611739565b15610c11576001600660016101000a81548160ff02191690831515021790555060006008819055507f99424d4740b41446c45fa894e3dda8489b8ef8df8a37f8035f83053ed26485c1426040518082815260200191505060405180910390a15b565b600080610c1e610b3f565b610c26610ba9565b600660019054906101000a900460ff1615610c4057600080fd5b600660009054906101000a900460ff161515610c5b57600080fd5b6000341415610c6957600080fd5b610c7e61138834611a7290919063ffffffff16565b9150610c9a82610c8c61116c565b611ab090919063ffffffff16565b9050670de0b6b3a76400006005546113880102811115610cb957600080fd5b610cc38383611ad1565b7fd240e127ddfc99c27bdd1c45b264d1954a1e2bdb17a4c37e81586fd141288261423485604051808481526020018381526020018273ffffffffffffffffffffffffffffffffffffffff1673ffffffffffffffffffffffffffffffffffffffff168152602001935050505060405180910390a1600460009054906101000a900473ffffffffffffffffffffffffffffffffffffffff1673ffffffffffffffffffffffffffffffffffffffff166108fc349081150290604051600060405180830381858888f193505050501515610d9857600080fd5b505050565b6000600660009054906101000a900460ff1680610dbe5750610dbd611a39565b5b8015610de65750600660019054906101000a900460ff1680610de45750610de3611739565b5b155b905090565b6040805190810160405280601081526020017f4d6163726f766572736520546f6b656e0000000000000000000000000000000081525081565b60008073ffffffffffffffffffffffffffffffffffffffff168373ffffffffffffffffffffffffffffffffffffffff1614151515610e6157600080fd5b81600160003373ffffffffffffffffffffffffffffffffffffffff1673ffffffffffffffffffffffffffffffffffffffff16815260200190815260200160002060008573ffffffffffffffffffffffffffffffffffffffff1673ffffffffffffffffffffffffffffffffffffffff168152602001908152602001600020819055508273ffffffffffffffffffffffffffffffffffffffff163373ffffffffffffffffffffffffffffffffffffffff167f8c5be1e5ebec7d5bd14f71427d1e84f3dd0314c0f7b2291e5b200ac8c7c3b925846040518082815260200191505060405180910390a36001905092915050565b610f59611783565b1515610f6457600080fd5b610f6c610ba9565b600660019054906101000a900460ff1615610f8657600080fd5b6000600881905550565b600080610f9b611783565b1515610fa657600080fd5b8291508173ffffffffffffffffffffffffffffffffffffffff166370a08231306040518263ffffffff167c0100000000000000000000000000000000000000000000000000000000028152600401808273ffffffffffffffffffffffffffffffffffffffff1673ffffffffffffffffffffffffffffffffffffffff168152602001915050602060405180830381600087803b15801561104457600080fd5b505af1158015611058573d6000803e3d6000fd5b505050506040513d602081101561106e57600080fd5b810190808051906020019092919050505090508173ffffffffffffffffffffffffffffffffffffffff1663a9059cbb6110a5611759565b836040518363ffffffff167c0100000000000000000000000000000000000000000000000000000000028152600401808373ffffffffffffffffffffffffffffffffffffffff1673ffffffffffffffffffffffffffffffffffffffff16815260200182815260200192505050602060405180830381600087803b15801561112b57600080fd5b505af115801561113f573d6000803e3d6000fd5b505050506040513d602081101561115557600080fd5b810190808051906020019092919050505050505050565b6000600254905090565b6000600160008573ffffffffffffffffffffffffffffffffffffffff1673ffffffffffffffffffffffffffffffffffffffff16815260200190815260200160002060003373ffffffffffffffffffffffffffffffffffffffff1673ffffffffffffffffffffffffffffffffffffffff16815260200190815260200160002054821115151561120357600080fd5b61129282600160008773ffffffffffffffffffffffffffffffffffffffff1673ffffffffffffffffffffffffffffffffffffffff16815260200190815260200160002060003373ffffffffffffffffffffffffffffffffffffffff1673ffffffffffffffffffffffffffffffffffffffff16815260200190815260200160002054611c0f90919063ffffffff16565b600160008673ffffffffffffffffffffffffffffffffffffffff1673ffffffffffffffffffffffffffffffffffffffff16815260200190815260200160002060003373ffffffffffffffffffffffffffffffffffffffff1673ffffffffffffffffffffffffffffffffffffffff1681526020019081526020016000208190555061131d848484611c30565b600190509392505050565b611330611783565b151561133b57600080fd5b611343610b3f565b600660009054906101000a900460ff161561135d57600080fd5b6001600660006101000a81548160ff02191690831515021790555060006007819055507ff82aa3c8d92a1044b702b0c9718bd99d353a4a85a215bdb4fe6c6a04b5f541e0426040518082815260200191505060405180910390a1565b60006113c3611783565b15156113ce57600080fd5b8190508073ffffffffffffffffffffffffffffffffffffffff1663f2fde38b6113f5611759565b6040518263ffffffff167c0100000000000000000000000000000000000000000000000000000000028152600401808273ffffffffffffffffffffffffffffffffffffffff1673ffffffffffffffffffffffffffffffffffffffff168152602001915050600060405180830381600087803b15801561147357600080fd5b505af1158015611487573d6000803e3d6000fd5b505050505050565b600360149054906101000a900460ff1681565b60055481565b6000806000fd5b61138881565b60085481565b6114c3611783565b15156114ce57600080fd5b6114d6610b3f565b600660009054906101000a900460ff16156114f057600080fd5b6000600781905550565b611502611783565b151561150d57600080fd5b611515610b3f565b600660009054906101000a900460ff161561152f57600080fd5b8060058190555050565b60008060008373ffffffffffffffffffffffffffffffffffffffff1673ffffffffffffffffffffffffffffffffffffffff168152602001908152602001600020549050919050565b611589611783565b151561159457600080fd5b600073ffffffffffffffffffffffffffffffffffffffff16600360009054906101000a900473ffffffffffffffffffffffffffffffffffffffff1673ffffffffffffffffffffffffffffffffffffffff167f8be0079c531659141344cd1fd0a4f28419497f9722a3daafe3b4186f6b6457e060405160405180910390a36000600360006101000a81548173ffffffffffffffffffffffffffffffffffffffff021916908373ffffffffffffffffffffffffffffffffffffffff160217905550565b61165d611783565b151561166857600080fd5b611670610b3f565b600660009054906101000a900460ff161561168a57600080fd5b603c8102420160078190555050565b6116a1611783565b15156116ac57600080fd5b6116b4610ba9565b600660019054906101000a900460ff1615156116cf57600080fd5b80600360146101000a81548160ff021916908360ff1602179055507fed6150ec960548590c920ded6ef554ec9e451dd7b4c85f62fb3760812cd72cf1600360149054906101000a900460ff16604051808260ff1660ff16815260200191505060405180910390a150565b6000806008541415801561174e575060085442115b905090565b61138881565b6000600360009054906101000a900473ffffffffffffffffffffffffffffffffffffffff16905090565b6000600360009054906101000a900473ffffffffffffffffffffffffffffffffffffffff1673ffffffffffffffffffffffffffffffffffffffff163373ffffffffffffffffffffffffffffffffffffffff1614905090565b60075481565b6040805190810160405280600381526020017f4d5256000000000000000000000000000000000000000000000000000000000081525081565b611822611783565b151561182d57600080fd5b611835610b3f565b61183d610ba9565b600660019054906101000a900460ff161561185757600080fd5b600660009054906101000a900460ff16151561187257600080fd5b6001600660016101000a81548160ff02191690831515021790555060006008819055507f99424d4740b41446c45fa894e3dda8489b8ef8df8a37f8035f83053ed26485c1426040518082815260200191505060405180910390a1565b6118d6611783565b15156118e157600080fd5b6118e9611759565b73ffffffffffffffffffffffffffffffffffffffff166108fc3073ffffffffffffffffffffffffffffffffffffffff16319081150290604051600060405180830381858888f19350505050151561193c57fe5b565b6119483382611ad1565b50565b6000806000fd5b600061195f338484611c30565b6001905092915050565b600080fd5b6000600160008473ffffffffffffffffffffffffffffffffffffffff1673ffffffffffffffffffffffffffffffffffffffff16815260200190815260200160002060008373ffffffffffffffffffffffffffffffffffffffff1673ffffffffffffffffffffffffffffffffffffffff16815260200190815260200160002054905092915050565b6119fd611783565b1515611a0857600080fd5b611a10610ba9565b600660019054906101000a900460ff1615611a2a57600080fd5b603c8102420160088190555050565b60008060075414158015611a4e575060075442115b905090565b611a5b611783565b1515611a6657600080fd5b611a6f81611e49565b50565b6000806000841415611a875760009150611aa9565b8284029050828482811515611a9857fe5b04141515611aa557600080fd5b8091505b5092915050565b6000808284019050838110151515611ac757600080fd5b8091505092915050565b60008273ffffffffffffffffffffffffffffffffffffffff1614151515611af757600080fd5b611b0c81600254611ab090919063ffffffff16565b600281905550611b63816000808573ffffffffffffffffffffffffffffffffffffffff1673ffffffffffffffffffffffffffffffffffffffff16815260200190815260200160002054611ab090919063ffffffff16565b6000808473ffffffffffffffffffffffffffffffffffffffff1673ffffffffffffffffffffffffffffffffffffffff168152602001908152602001600020819055508173ffffffffffffffffffffffffffffffffffffffff16600073ffffffffffffffffffffffffffffffffffffffff167fddf252ad1be2c89b69c2b068fc378daa952ba7f163c4a11628f55a4df523b3ef836040518082815260200191505060405180910390a35050565b600080838311151515611c2157600080fd5b82840390508091505092915050565b6000808473ffffffffffffffffffffffffffffffffffffffff1673ffffffffffffffffffffffffffffffffffffffff168152602001908152602001600020548111151515611c7d57600080fd5b600073ffffffffffffffffffffffffffffffffffffffff168273ffffffffffffffffffffffffffffffffffffffff1614151515611cb957600080fd5b611d0a816000808673ffffffffffffffffffffffffffffffffffffffff1673ffffffffffffffffffffffffffffffffffffffff16815260200190815260200160002054611c0f90919063ffffffff16565b6000808573ffffffffffffffffffffffffffffffffffffffff1673ffffffffffffffffffffffffffffffffffffffff16815260200190815260200160002081905550611d9d816000808573ffffffffffffffffffffffffffffffffffffffff1673ffffffffffffffffffffffffffffffffffffffff16815260200190815260200160002054611ab090919063ffffffff16565b6000808473ffffffffffffffffffffffffffffffffffffffff1673ffffffffffffffffffffffffffffffffffffffff168152602001908152602001600020819055508173ffffffffffffffffffffffffffffffffffffffff168373ffffffffffffffffffffffffffffffffffffffff167fddf252ad1be2c89b69c2b068fc378daa952ba7f163c4a11628f55a4df523b3ef836040518082815260200191505060405180910390a3505050565b600073ffffffffffffffffffffffffffffffffffffffff168173ffffffffffffffffffffffffffffffffffffffff1614151515611e8557600080fd5b8073ffffffffffffffffffffffffffffffffffffffff16600360009054906101000a900473ffffffffffffffffffffffffffffffffffffffff1673ffffffffffffffffffffffffffffffffffffffff167f8be0079c531659141344cd1fd0a4f28419497f9722a3daafe3b4186f6b6457e060405160405180910390a380600360006101000a81548173ffffffffffffffffffffffffffffffffffffffff021916908373ffffffffffffffffffffffffffffffffffffffff160217905550505600a165627a7a723058207da13ab547a067c0a66f673737b79a54e32fb3acea7cef3e281b72a671031efd0029",
  "source": "pragma solidity ^0.4.24;\n\nimport \"./MRVToken.sol\";\n\n/**\n * MRVToken contract which adds unrestricted minting by anyone.\n *\n * Only useful on a testnet.\n */\ncontract TestnetMRVToken is MRVToken {\n\n    /**\n     * Make a new TestnetMRVToken.\n     * Passes through arguments to the base MRVToken constructor.\n     */\n    constructor(address sendProceedsTo, address sendTokensTo) MRVToken(sendProceedsTo, sendTokensTo) public {\n        // Nothing to do!\n    }\n\n   \n    /**\n     * Allow anyone to mint themselves any amount of tokens, for testing.\n     */\n    function mint(uint256 amount) public {\n        _mint(msg.sender, amount);\n    }\n\n}\n",
  "sourcePath": "/Users/anovak/Documents/Workspace/macroverse/contracts/TestnetMRVToken.sol",
  "compiler": {
    "name": "solc",
    "version": "0.4.24+commit.e67f0147.Emscripten.clang"
  },
  "schemaVersion": "2.0.1",
  "updatedAt": "2019-09-20T03:20:02.571Z"
}