{
  "contractName": "TestnetMRVToken",
  "abi": [
    {
      "inputs": [
        {
          "internalType": "address payable",
          "name": "sendProceedsTo",
          "type": "address"
        },
        {
          "internalType": "address",
          "name": "sendTokensTo",
          "type": "address"
        }
      ],
      "stateMutability": "nonpayable",
      "type": "constructor"
    },
    {
      "anonymous": false,
      "inputs": [
        {
          "indexed": true,
          "internalType": "address",
          "name": "owner",
          "type": "address"
        },
        {
          "indexed": true,
          "internalType": "address",
          "name": "spender",
          "type": "address"
        },
        {
          "indexed": false,
          "internalType": "uint256",
          "name": "value",
          "type": "uint256"
        }
      ],
      "name": "Approval",
      "type": "event"
    },
    {
      "anonymous": false,
      "inputs": [
        {
          "indexed": false,
          "internalType": "uint256",
          "name": "time",
          "type": "uint256"
        }
      ],
      "name": "CrowdsaleClose",
      "type": "event"
    },
    {
      "anonymous": false,
      "inputs": [
        {
          "indexed": false,
          "internalType": "uint256",
          "name": "time",
          "type": "uint256"
        }
      ],
      "name": "CrowdsaleOpen",
      "type": "event"
    },
    {
      "anonymous": false,
      "inputs": [
        {
          "indexed": false,
          "internalType": "uint8",
          "name": "newDecimals",
          "type": "uint8"
        }
      ],
      "name": "DecimalChange",
      "type": "event"
    },
    {
      "anonymous": false,
      "inputs": [
        {
          "indexed": true,
          "internalType": "address",
          "name": "previousOwner",
          "type": "address"
        },
        {
          "indexed": true,
          "internalType": "address",
          "name": "newOwner",
          "type": "address"
        }
      ],
      "name": "OwnershipTransferred",
      "type": "event"
    },
    {
      "anonymous": false,
      "inputs": [
        {
          "indexed": false,
          "internalType": "uint256",
          "name": "time",
          "type": "uint256"
        },
        {
          "indexed": false,
          "internalType": "uint256",
          "name": "etherAmount",
          "type": "uint256"
        },
        {
          "indexed": false,
          "internalType": "address",
          "name": "from",
          "type": "address"
        }
      ],
      "name": "TokenPurchase",
      "type": "event"
    },
    {
      "anonymous": false,
      "inputs": [
        {
          "indexed": true,
          "internalType": "address",
          "name": "from",
          "type": "address"
        },
        {
          "indexed": true,
          "internalType": "address",
          "name": "to",
          "type": "address"
        },
        {
          "indexed": false,
          "internalType": "uint256",
          "name": "value",
          "type": "uint256"
        }
      ],
      "name": "Transfer",
      "type": "event"
    },
    {
      "inputs": [
        {
          "internalType": "address",
          "name": "_owner",
          "type": "address"
        },
        {
          "internalType": "address",
          "name": "_spender",
          "type": "address"
        }
      ],
      "name": "allowance",
      "outputs": [
        {
          "internalType": "uint256",
          "name": "remaining",
          "type": "uint256"
        }
      ],
      "stateMutability": "view",
      "type": "function"
    },
    {
      "inputs": [
        {
          "internalType": "address",
          "name": "_spender",
          "type": "address"
        },
        {
          "internalType": "uint256",
          "name": "_value",
          "type": "uint256"
        }
      ],
      "name": "approve",
      "outputs": [],
      "stateMutability": "nonpayable",
      "type": "function"
    },
    {
      "inputs": [
        {
          "internalType": "address",
          "name": "_owner",
          "type": "address"
        }
      ],
      "name": "balanceOf",
      "outputs": [
        {
          "internalType": "uint256",
          "name": "balance",
          "type": "uint256"
        }
      ],
      "stateMutability": "view",
      "type": "function"
    },
    {
      "inputs": [],
      "name": "checkCloseTimer",
      "outputs": [],
      "stateMutability": "nonpayable",
      "type": "function"
    },
    {
      "inputs": [],
      "name": "checkOpenTimer",
      "outputs": [],
      "stateMutability": "nonpayable",
      "type": "function"
    },
    {
      "inputs": [],
      "name": "clearCrowdsaleCloseTimer",
      "outputs": [],
      "stateMutability": "nonpayable",
      "type": "function"
    },
    {
      "inputs": [],
      "name": "clearCrowdsaleOpenTimer",
      "outputs": [],
      "stateMutability": "nonpayable",
      "type": "function"
    },
    {
      "inputs": [],
      "name": "closeCrowdsale",
      "outputs": [],
      "stateMutability": "nonpayable",
      "type": "function"
    },
    {
      "inputs": [],
      "name": "closeTimer",
      "outputs": [
        {
          "internalType": "uint256",
          "name": "",
          "type": "uint256"
        }
      ],
      "stateMutability": "view",
      "type": "function"
    },
    {
      "inputs": [],
      "name": "closeTimerElapsed",
      "outputs": [
        {
          "internalType": "bool",
          "name": "",
          "type": "bool"
        }
      ],
      "stateMutability": "view",
      "type": "function"
    },
    {
      "inputs": [],
      "name": "decimals",
      "outputs": [
        {
          "internalType": "uint8",
          "name": "",
          "type": "uint8"
        }
      ],
      "stateMutability": "view",
      "type": "function"
    },
    {
      "inputs": [],
      "name": "isCrowdsaleActive",
      "outputs": [
        {
          "internalType": "bool",
          "name": "",
          "type": "bool"
        }
      ],
      "stateMutability": "view",
      "type": "function"
    },
    {
      "inputs": [],
      "name": "maxCrowdsaleSupplyInWholeTokens",
      "outputs": [
        {
          "internalType": "uint256",
          "name": "",
          "type": "uint256"
        }
      ],
      "stateMutability": "view",
      "type": "function"
    },
    {
      "inputs": [],
      "name": "name",
      "outputs": [
        {
          "internalType": "string",
          "name": "",
          "type": "string"
        }
      ],
      "stateMutability": "view",
      "type": "function"
    },
    {
      "inputs": [],
      "name": "openCrowdsale",
      "outputs": [],
      "stateMutability": "nonpayable",
      "type": "function"
    },
    {
      "inputs": [],
      "name": "openTimer",
      "outputs": [
        {
          "internalType": "uint256",
          "name": "",
          "type": "uint256"
        }
      ],
      "stateMutability": "view",
      "type": "function"
    },
    {
      "inputs": [],
      "name": "openTimerElapsed",
      "outputs": [
        {
          "internalType": "bool",
          "name": "",
          "type": "bool"
        }
      ],
      "stateMutability": "view",
      "type": "function"
    },
    {
      "inputs": [],
      "name": "owner",
      "outputs": [
        {
          "internalType": "address",
          "name": "",
          "type": "address"
        }
      ],
      "stateMutability": "view",
      "type": "function"
    },
    {
      "inputs": [
        {
          "internalType": "address",
          "name": "contractAddr",
          "type": "address"
        }
      ],
      "name": "reclaimContract",
      "outputs": [],
      "stateMutability": "nonpayable",
      "type": "function"
    },
    {
      "inputs": [],
      "name": "reclaimEther",
      "outputs": [],
      "stateMutability": "nonpayable",
      "type": "function"
    },
    {
      "inputs": [
        {
          "internalType": "address",
          "name": "tokenAddr",
          "type": "address"
        }
      ],
      "name": "reclaimToken",
      "outputs": [],
      "stateMutability": "nonpayable",
      "type": "function"
    },
    {
      "inputs": [],
      "name": "renounceOwnership",
      "outputs": [],
      "stateMutability": "nonpayable",
      "type": "function"
    },
    {
      "inputs": [
        {
          "internalType": "uint256",
          "name": "minutesFromNow",
          "type": "uint256"
        }
      ],
      "name": "setCrowdsaleCloseTimerFor",
      "outputs": [],
      "stateMutability": "nonpayable",
      "type": "function"
    },
    {
      "inputs": [
        {
          "internalType": "uint256",
          "name": "minutesFromNow",
          "type": "uint256"
        }
      ],
      "name": "setCrowdsaleOpenTimerFor",
      "outputs": [],
      "stateMutability": "nonpayable",
      "type": "function"
    },
    {
      "inputs": [
        {
          "internalType": "uint8",
          "name": "newDecimals",
          "type": "uint8"
        }
      ],
      "name": "setDecimals",
      "outputs": [],
      "stateMutability": "nonpayable",
      "type": "function"
    },
    {
      "inputs": [
        {
          "internalType": "uint256",
          "name": "newMaxInWholeTokens",
          "type": "uint256"
        }
      ],
      "name": "setMaxSupply",
      "outputs": [],
      "stateMutability": "nonpayable",
      "type": "function"
    },
    {
      "inputs": [],
      "name": "symbol",
      "outputs": [
        {
          "internalType": "string",
          "name": "",
          "type": "string"
        }
      ],
      "stateMutability": "view",
      "type": "function"
    },
    {
      "inputs": [
        {
          "internalType": "address",
          "name": "",
          "type": "address"
        },
        {
          "internalType": "uint256",
          "name": "",
          "type": "uint256"
        },
        {
          "internalType": "bytes",
          "name": "",
          "type": "bytes"
        }
      ],
      "name": "tokenFallback",
      "outputs": [],
      "stateMutability": "pure",
      "type": "function"
    },
    {
      "inputs": [],
      "name": "totalSupply",
      "outputs": [
        {
          "internalType": "uint256",
          "name": "",
          "type": "uint256"
        }
      ],
      "stateMutability": "view",
      "type": "function"
    },
    {
      "inputs": [
        {
          "internalType": "address",
          "name": "_to",
          "type": "address"
        },
        {
          "internalType": "uint256",
          "name": "_value",
          "type": "uint256"
        }
      ],
      "name": "transfer",
      "outputs": [],
      "stateMutability": "nonpayable",
      "type": "function"
    },
    {
      "inputs": [
        {
          "internalType": "address",
          "name": "_from",
          "type": "address"
        },
        {
          "internalType": "address",
          "name": "_to",
          "type": "address"
        },
        {
          "internalType": "uint256",
          "name": "_value",
          "type": "uint256"
        }
      ],
      "name": "transferFrom",
      "outputs": [],
      "stateMutability": "nonpayable",
      "type": "function"
    },
    {
      "inputs": [
        {
          "internalType": "address",
          "name": "newOwner",
          "type": "address"
        }
      ],
      "name": "transferOwnership",
      "outputs": [],
      "stateMutability": "nonpayable",
      "type": "function"
    },
    {
      "inputs": [],
      "name": "wholeTokensPerEth",
      "outputs": [
        {
          "internalType": "uint256",
          "name": "",
          "type": "uint256"
        }
      ],
      "stateMutability": "view",
      "type": "function"
    },
    {
      "inputs": [],
      "name": "wholeTokensReserved",
      "outputs": [
        {
          "internalType": "uint256",
          "name": "",
          "type": "uint256"
        }
      ],
      "stateMutability": "view",
      "type": "function"
    },
    {
      "stateMutability": "payable",
      "type": "receive"
    },
    {
      "inputs": [
        {
          "internalType": "uint256",
          "name": "amount",
          "type": "uint256"
        }
      ],
      "name": "mint",
      "outputs": [],
      "stateMutability": "nonpayable",
      "type": "function"
    }
  ],
  "bytecode": "0x60806040526000600755600060085534801561001a57600080fd5b50604051611ac8380380611ac88339818101604052604081101561003d57600080fd5b5080516020909101518181600061005b6001600160e01b0361014a16565b600380546001600160a01b0319166001600160a01b038316908117909155604051919250906000907f8be0079c531659141344cd1fd0a4f28419497f9722a3daafe3b4186f6b6457e0908290a350600480546001600160a01b0319166001600160a01b039384161790556003805460ff60a01b1916600960a11b17905569010f0cf064dd59200000600081815591831682526001602090815260408084208390556006805461ffff191690556305f5e100600555805192835251938516937fddf252ad1be2c89b69c2b068fc378daa952ba7f163c4a11628f55a4df523b3ef9281900390910190a3505061014e565b3390565b61196b8061015d6000396000f3fe6080604052600436106102085760003560e01c8063715018a6116101185780639f727c27116100a0578063dd3260fc1161006f578063dd3260fc14610723578063dd62ed3e14610738578063e330a73714610773578063ea6636311461079d578063f2fde38b146107b25761024c565b80639f727c2714610619578063a0712d681461062e578063a9059cbb14610658578063c0ee0b8a146106915761024c565b80638490d598116100e75780638490d5981461048c5780638da5cb5b146105a957806392f351f9146105da57806395d89b41146105ef578063983c0a01146106045761024c565b8063715018a61461052857806379d220ae1461053d5780637a1395aa1461056757806380f4531f146105945761024c565b806328ef6f401161019b5780634e15dfe91161016a5780634e15dfe91461048c5780635da24f90146104a15780636d6e2710146104b65780636f8b44b0146104cb57806370a08231146104f55761024c565b806328ef6f40146104045780632aed7f3f14610419578063313ce5671461044c578063346fc0dd146104775761024c565b806317ffc320116101d757806317ffc3201461035257806318160ddd146103855780631f4425f3146103ac57806323b872dd146103c15761024c565b80630118e6861461025157806306fdde031461027a578063095ea7b3146103045780630d051c521461033d5761024c565b3661024c576102156107e5565b61021d61083a565b600654610100900460ff161561023257600080fd5b60065460ff1661024157600080fd5b61024a33610890565b005b600080fd5b34801561025d57600080fd5b506102666109da565b604080519115158252519081900360200190f35b34801561028657600080fd5b5061028f610a18565b6040805160208082528351818301528351919283929083019185019080838360005b838110156102c95781810151838201526020016102b1565b50505050905090810190601f1680156102f65780820380516001836020036101000a031916815260200191505b509250505060405180910390f35b34801561031057600080fd5b5061024a6004803603604081101561032757600080fd5b506001600160a01b038135169060200135610a44565b34801561034957600080fd5b5061024a610ae1565b34801561035e57600080fd5b5061024a6004803603602081101561037557600080fd5b50356001600160a01b0316610b5d565b34801561039157600080fd5b5061039a610cc6565b60408051918252519081900360200190f35b3480156103b857600080fd5b5061024a61083a565b3480156103cd57600080fd5b5061024a600480360360608110156103e457600080fd5b506001600160a01b03813581169160208101359091169060400135610ccc565b34801561041057600080fd5b5061024a610de4565b34801561042557600080fd5b5061024a6004803603602081101561043c57600080fd5b50356001600160a01b0316610e9b565b34801561045857600080fd5b50610461610f6f565b6040805160ff9092168252519081900360200190f35b34801561048357600080fd5b5061039a610f7f565b34801561049857600080fd5b5061039a610f85565b3480156104ad57600080fd5b5061039a610f8b565b3480156104c257600080fd5b5061024a610f91565b3480156104d757600080fd5b5061024a600480360360208110156104ee57600080fd5b5035611008565b34801561050157600080fd5b5061039a6004803603602081101561051857600080fd5b50356001600160a01b031661107d565b34801561053457600080fd5b5061024a611098565b34801561054957600080fd5b5061024a6004803603602081101561056057600080fd5b503561113a565b34801561057357600080fd5b5061024a6004803603602081101561058a57600080fd5b503560ff166111b4565b3480156105a057600080fd5b5061026661127c565b3480156105b557600080fd5b506105be611295565b604080516001600160a01b039092168252519081900360200190f35b3480156105e657600080fd5b5061039a6112a4565b3480156105fb57600080fd5b5061028f6112aa565b34801561061057600080fd5b5061024a6112c9565b34801561062557600080fd5b5061024a61139e565b34801561063a57600080fd5b5061024a6004803603602081101561065157600080fd5b503561142b565b34801561066457600080fd5b5061024a6004803603604081101561067b57600080fd5b506001600160a01b0381351690602001356114c2565b34801561069d57600080fd5b5061024a600480360360608110156106b457600080fd5b6001600160a01b03823516916020810135918101906060810160408201356401000000008111156106e457600080fd5b8201836020820111156106f657600080fd5b8035906020019184600183028401116401000000008311171561071857600080fd5b50909250905061024c565b34801561072f57600080fd5b5061024a6107e5565b34801561074457600080fd5b5061039a6004803603604081101561075b57600080fd5b506001600160a01b038135811691602001351661157e565b34801561077f57600080fd5b5061024a6004803603602081101561079657600080fd5b50356115ab565b3480156107a957600080fd5b5061026661162a565b3480156107be57600080fd5b5061024a600480360360208110156107d557600080fd5b50356001600160a01b0316611643565b6107ed61162a565b15610838576006805460ff1916600117905560006007556040805142815290517ff82aa3c8d92a1044b702b0c9718bd99d353a4a85a215bdb4fe6c6a04b5f541e09181900360200190a15b565b61084261127c565b15610838576006805461ff00191661010017905560006008556040805142815290517f99424d4740b41446c45fa894e3dda8489b8ef8df8a37f8035f83053ed26485c19181900360200190a1565b6108986107e5565b6108a061083a565b600654610100900460ff16156108b557600080fd5b60065460ff166108c457600080fd5b346108ce57600080fd5b60006108e23461138863ffffffff61173c16565b905060006108fb8260005461179c90919063ffffffff16565b905060055461138801670de0b6b3a76400000281111561091a57600080fd5b60008181556001600160a01b038416815260016020526040902054610945908363ffffffff61179c16565b6001600160a01b038416600081815260016020908152604091829020939093558051428152349381019390935282810191909152517fd240e127ddfc99c27bdd1c45b264d1954a1e2bdb17a4c37e81586fd1412882619181900360600190a16004546040516001600160a01b03909116903480156108fc02916000818181858888f193505050506109d557600080fd5b505050565b60065460009060ff16806109f157506109f161162a565b8015610a135750600654610100900460ff1680610a115750610a1161127c565b155b905090565b6040518060400160405280601081526020016f26b0b1b937bb32b939b2902a37b5b2b760811b81525081565b8015801590610a7557503360009081526002602090815260408083206001600160a01b038616845290915290205415155b15610a7f57600080fd5b3360008181526002602090815260408083206001600160a01b03871680855290835292819020859055805185815290519293927f8c5be1e5ebec7d5bd14f71427d1e84f3dd0314c0f7b2291e5b200ac8c7c3b925929181900390910190a35050565b610ae96117f6565b6003546001600160a01b03908116911614610b39576040805162461bcd60e51b81526020600482018190526024820152600080516020611916833981519152604482015290519081900360640190fd5b610b4161083a565b600654610100900460ff1615610b5657600080fd5b6000600855565b610b656117f6565b6003546001600160a01b03908116911614610bb5576040805162461bcd60e51b81526020600482018190526024820152600080516020611916833981519152604482015290519081900360640190fd5b604080516370a0823160e01b8152306004820152905182916000916001600160a01b038416916370a08231916024808301926020929190829003018186803b158015610c0057600080fd5b505afa158015610c14573d6000803e3d6000fd5b505050506040513d6020811015610c2a57600080fd5b505190506001600160a01b03821663a9059cbb610c45611295565b836040518363ffffffff1660e01b815260040180836001600160a01b03166001600160a01b0316815260200182815260200192505050602060405180830381600087803b158015610c9557600080fd5b505af1158015610ca9573d6000803e3d6000fd5b505050506040513d6020811015610cbf57600080fd5b5050505050565b60005481565b60606064361015610cdc57600080fd5b6001600160a01b03808516600090815260026020908152604080832033845282528083205493871683526001909152902054610d1e908463ffffffff61179c16565b6001600160a01b038086166000908152600160205260408082209390935590871681522054610d53908463ffffffff6117fa16565b6001600160a01b038616600090815260016020526040902055610d7c818463ffffffff6117fa16565b6001600160a01b03808716600081815260026020908152604080832033845282529182902094909455805187815290519288169391927fddf252ad1be2c89b69c2b068fc378daa952ba7f163c4a11628f55a4df523b3ef929181900390910190a35050505050565b610dec6117f6565b6003546001600160a01b03908116911614610e3c576040805162461bcd60e51b81526020600482018190526024820152600080516020611916833981519152604482015290519081900360640190fd5b610e446107e5565b60065460ff1615610e5457600080fd5b6006805460ff1916600117905560006007556040805142815290517ff82aa3c8d92a1044b702b0c9718bd99d353a4a85a215bdb4fe6c6a04b5f541e09181900360200190a1565b610ea36117f6565b6003546001600160a01b03908116911614610ef3576040805162461bcd60e51b81526020600482018190526024820152600080516020611916833981519152604482015290519081900360640190fd5b806001600160a01b03811663f2fde38b610f0b611295565b6040518263ffffffff1660e01b815260040180826001600160a01b03166001600160a01b03168152602001915050600060405180830381600087803b158015610f5357600080fd5b505af1158015610f67573d6000803e3d6000fd5b505050505050565b600354600160a01b900460ff1681565b60055481565b61138881565b60085481565b610f996117f6565b6003546001600160a01b03908116911614610fe9576040805162461bcd60e51b81526020600482018190526024820152600080516020611916833981519152604482015290519081900360640190fd5b610ff16107e5565b60065460ff161561100157600080fd5b6000600755565b6110106117f6565b6003546001600160a01b03908116911614611060576040805162461bcd60e51b81526020600482018190526024820152600080516020611916833981519152604482015290519081900360640190fd5b6110686107e5565b60065460ff161561107857600080fd5b600555565b6001600160a01b031660009081526001602052604090205490565b6110a06117f6565b6003546001600160a01b039081169116146110f0576040805162461bcd60e51b81526020600482018190526024820152600080516020611916833981519152604482015290519081900360640190fd5b6003546040516000916001600160a01b0316907f8be0079c531659141344cd1fd0a4f28419497f9722a3daafe3b4186f6b6457e0908390a3600380546001600160a01b0319169055565b6111426117f6565b6003546001600160a01b03908116911614611192576040805162461bcd60e51b81526020600482018190526024820152600080516020611916833981519152604482015290519081900360640190fd5b61119a6107e5565b60065460ff16156111aa57600080fd5b603c024201600755565b6111bc6117f6565b6003546001600160a01b0390811691161461120c576040805162461bcd60e51b81526020600482018190526024820152600080516020611916833981519152604482015290519081900360640190fd5b61121461083a565b600654610100900460ff1661122857600080fd5b6003805460ff8316600160a01b810260ff60a01b199092169190911790915560408051918252517fed6150ec960548590c920ded6ef554ec9e451dd7b4c85f62fb3760812cd72cf19181900360200190a150565b6000600854600014158015610a13575050600854421190565b6003546001600160a01b031690565b60075481565b6040518060400160405280600381526020016226a92b60e91b81525081565b6112d16117f6565b6003546001600160a01b03908116911614611321576040805162461bcd60e51b81526020600482018190526024820152600080516020611916833981519152604482015290519081900360640190fd5b6113296107e5565b61133161083a565b600654610100900460ff161561134657600080fd5b60065460ff1661135557600080fd5b6006805461ff00191661010017905560006008556040805142815290517f99424d4740b41446c45fa894e3dda8489b8ef8df8a37f8035f83053ed26485c19181900360200190a1565b6113a66117f6565b6003546001600160a01b039081169116146113f6576040805162461bcd60e51b81526020600482018190526024820152600080516020611916833981519152604482015290519081900360640190fd5b6113fe611295565b6001600160a01b03166108fc479081150290604051600060405180830381858888f1935050505061083857fe5b6001600160c01b0381111561143f57600080fd5b600054611452908263ffffffff61179c16565b600090815533815260016020526040902054611474908263ffffffff61179c16565b3360008181526001602090815260408083209490945583518581529351929391927fddf252ad1be2c89b69c2b068fc378daa952ba7f163c4a11628f55a4df523b3ef9281900390910190a350565b604060443610156114d257600080fd5b336000908152600160205260409020546114f2908363ffffffff6117fa16565b33600090815260016020526040808220929092556001600160a01b03851681522054611524908363ffffffff61179c16565b6001600160a01b0384166000818152600160209081526040918290209390935580518581529051919233927fddf252ad1be2c89b69c2b068fc378daa952ba7f163c4a11628f55a4df523b3ef9281900390910190a3505050565b6001600160a01b038083166000908152600260209081526040808320938516835292905220545b92915050565b6115b36117f6565b6003546001600160a01b03908116911614611603576040805162461bcd60e51b81526020600482018190526024820152600080516020611916833981519152604482015290519081900360640190fd5b61160b61083a565b600654610100900460ff161561162057600080fd5b603c024201600855565b6000600754600014158015610a13575050600754421190565b61164b6117f6565b6003546001600160a01b0390811691161461169b576040805162461bcd60e51b81526020600482018190526024820152600080516020611916833981519152604482015290519081900360640190fd5b6001600160a01b0381166116e05760405162461bcd60e51b81526004018080602001828103825260268152602001806118cf6026913960400191505060405180910390fd5b6003546040516001600160a01b038084169216907f8be0079c531659141344cd1fd0a4f28419497f9722a3daafe3b4186f6b6457e090600090a3600380546001600160a01b0319166001600160a01b0392909216919091179055565b60008261174b575060006115a5565b8282028284828161175857fe5b04146117955760405162461bcd60e51b81526004018080602001828103825260218152602001806118f56021913960400191505060405180910390fd5b9392505050565b600082820183811015611795576040805162461bcd60e51b815260206004820152601b60248201527f536166654d6174683a206164646974696f6e206f766572666c6f770000000000604482015290519081900360640190fd5b3390565b600061179583836040518060400160405280601e81526020017f536166654d6174683a207375627472616374696f6e206f766572666c6f770000815250600081848411156118c65760405162461bcd60e51b81526004018080602001828103825283818151815260200191508051906020019080838360005b8381101561188b578181015183820152602001611873565b50505050905090810190601f1680156118b85780820380516001836020036101000a031916815260200191505b509250505060405180910390fd5b50505090039056fe4f776e61626c653a206e6577206f776e657220697320746865207a65726f2061646472657373536166654d6174683a206d756c7469706c69636174696f6e206f766572666c6f774f776e61626c653a2063616c6c6572206973206e6f7420746865206f776e6572a2646970667358221220cd018ed2e74054802b20313a953e55f7967ac4f7d80d201dd8c781f205bbfcf864736f6c634300060a0033",
  "immutableReferences": {},
  "source": "pragma solidity ^0.6.10;\n\nimport \"./MRVToken.sol\";\n\n/**\n * MRVToken contract which adds unrestricted minting by anyone.\n *\n * Only useful on a testnet.\n */\ncontract TestnetMRVToken is MRVToken {\n\n    /**\n     * Make a new TestnetMRVToken.\n     * Passes through arguments to the base MRVToken constructor.\n     */\n    constructor(address payable sendProceedsTo, address sendTokensTo) MRVToken(sendProceedsTo, sendTokensTo) public {\n        // Send the event we forget to send in the base implementation.\n        Transfer(address(0), sendTokensTo, totalSupply);\n    }\n\n   \n    /**\n     * Allow anyone to mint themselves any amount of tokens, for testing.\n     * Unless it's truly huge and going to DoS the contract by pegging total supply.\n     */\n    function mint(uint256 amount) public {\n        if (amount > 0x0000000000000000FFFFFFFFFFFFFFFFFFFFFFFFFFFFFFFFFFFFFFFFFFFFFFFF) {\n            revert();\n        }\n        totalSupply = totalSupply.add(amount);\n        balances[msg.sender] = balances[msg.sender].add(amount);\n        Transfer(address(0), msg.sender, amount);\n    }\n\n}\n\n// SPDX-License-Identifier: UNLICENSED\n",
  "sourcePath": "/home/anovak/workspace/macroverse/contracts/TestnetMRVToken.sol",
  "compiler": {
    "name": "solc",
    "version": "0.6.10+commit.00c0fcaf.Emscripten.clang"
  },
  "schemaVersion": "3.3.1",
  "updatedAt": "2020-12-11T02:46:41.044Z",
  "devdoc": {
    "methods": {
      "allowance(address,address)": {
        "details": "Function to check the amount of tokens that an owner allowed to a spender.",
        "params": {
          "_owner": "address The address which owns the funds.",
          "_spender": "address The address which will spend the funds. return A uint256 specifing the amount of tokens still avaible for the spender."
        }
      },
      "approve(address,uint256)": {
        "details": "Aprove the passed address to spend the specified amount of tokens on behalf of msg.sender.",
        "params": {
          "_spender": "The address which will spend the funds.",
          "_value": "The amount of tokens to be spent."
        }
      },
      "balanceOf(address)": {
        "details": "Gets the balance of the specified address.",
        "params": {
          "_owner": "The address to query the the balance of.  return An uint256 representing the amount owned by the passed address."
        }
      },
      "owner()": {
        "details": "Returns the address of the current owner."
      },
      "reclaimContract(address)": {
        "details": "Reclaim ownership of Ownable contracts",
        "params": {
          "contractAddr": "The address of the Ownable to be reclaimed."
        }
      },
      "reclaimToken(address)": {
        "details": "Reclaim all IERC20 compatible tokens",
        "params": {
          "tokenAddr": "address The address of the token contract"
        }
      },
      "renounceOwnership()": {
        "details": "Leaves the contract without owner. It will not be possible to call `onlyOwner` functions anymore. Can only be called by the current owner. NOTE: Renouncing ownership will leave the contract without an owner, thereby removing any functionality that is only available to the owner."
      },
      "tokenFallback(address,uint256,bytes)": {
        "details": "Reject all ERC23 compatible tokens"
      },
      "transfer(address,uint256)": {
        "details": "transfer token for a specified address",
        "params": {
          "_to": "The address to transfer to.",
          "_value": "The amount to be transferred."
        }
      },
      "transferFrom(address,address,uint256)": {
        "details": "Transfer tokens from one address to another",
        "params": {
          "_from": "address The address which you want to send tokens from",
          "_to": "address The address which you want to transfer to",
          "_value": "uint256 the amout of tokens to be transfered"
        }
      },
      "transferOwnership(address)": {
        "details": "Transfers ownership of the contract to a new account (`newOwner`). Can only be called by the current owner."
      }
    }
  },
  "userdoc": {
    "methods": {
      "checkCloseTimer()": {
        "notice": "If the close timer has elapsed, stop the crowdsale."
      },
      "checkOpenTimer()": {
        "notice": "If the open timer has elapsed, start the crowdsale. Can be called by people, but also gets called when people try to contribute."
      },
      "clearCrowdsaleCloseTimer()": {
        "notice": "Let the owner stop the crowdsale close timer, as long as it has not yet expired."
      },
      "clearCrowdsaleOpenTimer()": {
        "notice": "Let the owner stop the crowdsale open timer, as long as the crowdsale has not yet opened."
      },
      "closeCrowdsale()": {
        "notice": "Allow the owner to end the crowdsale manually."
      },
      "closeTimerElapsed()": {
        "notice": "Determine if the crowdsale should close by timer."
      },
      "constructor": "Make a new TestnetMRVToken. Passes through arguments to the base MRVToken constructor.",
      "isCrowdsaleActive()": {
        "notice": "Determine if the crowdsale is currently happening."
      },
      "mint(uint256)": {
        "notice": "Allow anyone to mint themselves any amount of tokens, for testing. Unless it's truly huge and going to DoS the contract by pegging total supply."
      },
      "openCrowdsale()": {
        "notice": "Allow the owner to start the crowdsale manually."
      },
      "openTimerElapsed()": {
        "notice": "Determine if the crowdsale should open by timer."
      },
      "reclaimEther()": {
        "notice": "If Ether somehow manages to get into this contract, provide a way to get it out again. During normal crowdsale operation, ETH is immediately forwarded to the beneficiary."
      },
      "setCrowdsaleCloseTimerFor(uint256)": {
        "notice": "Let the owner start the timer for the crowdsale end. Counts from when the function is called, *not* from the start of the crowdsale. It is possible, but a bad idea, to set this before the open timer."
      },
      "setCrowdsaleOpenTimerFor(uint256)": {
        "notice": "Let the owner start the timer for the crowdsale start. Without further owner intervention, anyone will be able to open the crowdsale when the timer expires. Further calls will re-set the timer to count from the time the transaction is processed. The timer can be re-set after it has tripped, unless someone has already opened the crowdsale."
      },
      "setDecimals(uint8)": {
        "notice": "When the crowdsale is finished, the contract owner may adjust the decimal places for display purposes. This should work like a 10-to-1 split or reverse-split. The point of this mechanism is to keep the individual MRV tokens from getting inconveniently valuable or cheap. However, it relies on the contract owner taking the time to update the decimal place value. Note that this changes the decimals IMMEDIATELY with NO NOTICE to users."
      },
      "setMaxSupply(uint256)": {
        "notice": "Before the crowdsale opens, the max token count can be configured."
      }
    },
    "notice": "MRVToken contract which adds unrestricted minting by anyone. Only useful on a testnet."
  }
}