{
  "contractName": "TestnetMRVToken",
  "abi": [
    {
      "constant": true,
      "inputs": [],
      "name": "isCrowdsaleActive",
      "outputs": [
        {
          "name": "",
          "type": "bool"
        }
      ],
      "payable": false,
      "stateMutability": "view",
      "type": "function"
    },
    {
      "constant": true,
      "inputs": [],
      "name": "name",
      "outputs": [
        {
          "name": "",
          "type": "string"
        }
      ],
      "payable": false,
      "stateMutability": "view",
      "type": "function"
    },
    {
      "constant": false,
      "inputs": [
        {
          "name": "spender",
          "type": "address"
        },
        {
          "name": "amount",
          "type": "uint256"
        }
      ],
      "name": "approve",
      "outputs": [
        {
          "name": "",
          "type": "bool"
        }
      ],
      "payable": false,
      "stateMutability": "nonpayable",
      "type": "function"
    },
    {
      "constant": false,
      "inputs": [],
      "name": "clearCrowdsaleCloseTimer",
      "outputs": [],
      "payable": false,
      "stateMutability": "nonpayable",
      "type": "function"
    },
    {
      "constant": false,
      "inputs": [
        {
          "name": "tokenAddr",
          "type": "address"
        }
      ],
      "name": "reclaimToken",
      "outputs": [],
      "payable": false,
      "stateMutability": "nonpayable",
      "type": "function"
    },
    {
      "constant": true,
      "inputs": [],
      "name": "totalSupply",
      "outputs": [
        {
          "name": "",
          "type": "uint256"
        }
      ],
      "payable": false,
      "stateMutability": "view",
      "type": "function"
    },
    {
      "constant": false,
      "inputs": [],
      "name": "checkCloseTimer",
      "outputs": [],
      "payable": false,
      "stateMutability": "nonpayable",
      "type": "function"
    },
    {
      "constant": false,
      "inputs": [
        {
          "name": "sender",
          "type": "address"
        },
        {
          "name": "recipient",
          "type": "address"
        },
        {
          "name": "amount",
          "type": "uint256"
        }
      ],
      "name": "transferFrom",
      "outputs": [
        {
          "name": "",
          "type": "bool"
        }
      ],
      "payable": false,
      "stateMutability": "nonpayable",
      "type": "function"
    },
    {
      "constant": false,
      "inputs": [],
      "name": "openCrowdsale",
      "outputs": [],
      "payable": false,
      "stateMutability": "nonpayable",
      "type": "function"
    },
    {
      "constant": false,
      "inputs": [
        {
          "name": "contractAddr",
          "type": "address"
        }
      ],
      "name": "reclaimContract",
      "outputs": [],
      "payable": false,
      "stateMutability": "nonpayable",
      "type": "function"
    },
    {
      "constant": true,
      "inputs": [],
      "name": "decimals",
      "outputs": [
        {
          "name": "",
          "type": "uint8"
        }
      ],
      "payable": false,
      "stateMutability": "view",
      "type": "function"
    },
    {
      "constant": true,
      "inputs": [],
      "name": "maxCrowdsaleSupplyInWholeTokens",
      "outputs": [
        {
          "name": "",
          "type": "uint256"
        }
      ],
      "payable": false,
      "stateMutability": "view",
      "type": "function"
    },
    {
      "constant": false,
      "inputs": [
        {
          "name": "",
          "type": "address"
        },
        {
          "name": "",
          "type": "uint256"
        }
      ],
      "name": "increaseAllowance",
      "outputs": [
        {
          "name": "",
          "type": "bool"
        }
      ],
      "payable": false,
      "stateMutability": "nonpayable",
      "type": "function"
    },
    {
      "constant": true,
      "inputs": [],
      "name": "wholeTokensPerEth",
      "outputs": [
        {
          "name": "",
          "type": "uint256"
        }
      ],
      "payable": false,
      "stateMutability": "view",
      "type": "function"
    },
    {
      "constant": true,
      "inputs": [],
      "name": "closeTimer",
      "outputs": [
        {
          "name": "",
          "type": "uint256"
        }
      ],
      "payable": false,
      "stateMutability": "view",
      "type": "function"
    },
    {
      "constant": false,
      "inputs": [],
      "name": "clearCrowdsaleOpenTimer",
      "outputs": [],
      "payable": false,
      "stateMutability": "nonpayable",
      "type": "function"
    },
    {
      "constant": false,
      "inputs": [
        {
          "name": "newMaxInWholeTokens",
          "type": "uint256"
        }
      ],
      "name": "setMaxSupply",
      "outputs": [],
      "payable": false,
      "stateMutability": "nonpayable",
      "type": "function"
    },
    {
      "constant": true,
      "inputs": [
        {
          "name": "account",
          "type": "address"
        }
      ],
      "name": "balanceOf",
      "outputs": [
        {
          "name": "",
          "type": "uint256"
        }
      ],
      "payable": false,
      "stateMutability": "view",
      "type": "function"
    },
    {
      "constant": false,
      "inputs": [],
      "name": "renounceOwnership",
      "outputs": [],
      "payable": false,
      "stateMutability": "nonpayable",
      "type": "function"
    },
    {
      "constant": false,
      "inputs": [
        {
          "name": "minutesFromNow",
          "type": "uint256"
        }
      ],
      "name": "setCrowdsaleOpenTimerFor",
      "outputs": [],
      "payable": false,
      "stateMutability": "nonpayable",
      "type": "function"
    },
    {
      "constant": false,
      "inputs": [
        {
          "name": "newDecimals",
          "type": "uint8"
        }
      ],
      "name": "setDecimals",
      "outputs": [],
      "payable": false,
      "stateMutability": "nonpayable",
      "type": "function"
    },
    {
      "constant": true,
      "inputs": [],
      "name": "closeTimerElapsed",
      "outputs": [
        {
          "name": "",
          "type": "bool"
        }
      ],
      "payable": false,
      "stateMutability": "view",
      "type": "function"
    },
    {
      "constant": true,
      "inputs": [],
      "name": "wholeTokensReserved",
      "outputs": [
        {
          "name": "",
          "type": "uint256"
        }
      ],
      "payable": false,
      "stateMutability": "view",
      "type": "function"
    },
    {
      "constant": true,
      "inputs": [],
      "name": "owner",
      "outputs": [
        {
          "name": "",
          "type": "address"
        }
      ],
      "payable": false,
      "stateMutability": "view",
      "type": "function"
    },
    {
      "constant": true,
      "inputs": [],
      "name": "isOwner",
      "outputs": [
        {
          "name": "",
          "type": "bool"
        }
      ],
      "payable": false,
      "stateMutability": "view",
      "type": "function"
    },
    {
      "constant": true,
      "inputs": [],
      "name": "openTimer",
      "outputs": [
        {
          "name": "",
          "type": "uint256"
        }
      ],
      "payable": false,
      "stateMutability": "view",
      "type": "function"
    },
    {
      "constant": true,
      "inputs": [],
      "name": "symbol",
      "outputs": [
        {
          "name": "",
          "type": "string"
        }
      ],
      "payable": false,
      "stateMutability": "view",
      "type": "function"
    },
    {
      "constant": false,
      "inputs": [],
      "name": "closeCrowdsale",
      "outputs": [],
      "payable": false,
      "stateMutability": "nonpayable",
      "type": "function"
    },
    {
      "constant": false,
      "inputs": [],
      "name": "reclaimEther",
      "outputs": [],
      "payable": false,
      "stateMutability": "nonpayable",
      "type": "function"
    },
    {
      "constant": false,
      "inputs": [
        {
          "name": "",
          "type": "address"
        },
        {
          "name": "",
          "type": "uint256"
        }
      ],
      "name": "decreaseAllowance",
      "outputs": [
        {
          "name": "",
          "type": "bool"
        }
      ],
      "payable": false,
      "stateMutability": "nonpayable",
      "type": "function"
    },
    {
      "constant": false,
      "inputs": [
        {
          "name": "recipient",
          "type": "address"
        },
        {
          "name": "amount",
          "type": "uint256"
        }
      ],
      "name": "transfer",
      "outputs": [
        {
          "name": "",
          "type": "bool"
        }
      ],
      "payable": false,
      "stateMutability": "nonpayable",
      "type": "function"
    },
    {
      "constant": true,
      "inputs": [
        {
          "name": "",
          "type": "address"
        },
        {
          "name": "",
          "type": "uint256"
        },
        {
          "name": "",
          "type": "bytes"
        }
      ],
      "name": "tokenFallback",
      "outputs": [],
      "payable": false,
      "stateMutability": "pure",
      "type": "function"
    },
    {
      "constant": false,
      "inputs": [],
      "name": "checkOpenTimer",
      "outputs": [],
      "payable": false,
      "stateMutability": "nonpayable",
      "type": "function"
    },
    {
      "constant": true,
      "inputs": [
        {
          "name": "owner",
          "type": "address"
        },
        {
          "name": "spender",
          "type": "address"
        }
      ],
      "name": "allowance",
      "outputs": [
        {
          "name": "",
          "type": "uint256"
        }
      ],
      "payable": false,
      "stateMutability": "view",
      "type": "function"
    },
    {
      "constant": false,
      "inputs": [
        {
          "name": "minutesFromNow",
          "type": "uint256"
        }
      ],
      "name": "setCrowdsaleCloseTimerFor",
      "outputs": [],
      "payable": false,
      "stateMutability": "nonpayable",
      "type": "function"
    },
    {
      "constant": true,
      "inputs": [],
      "name": "openTimerElapsed",
      "outputs": [
        {
          "name": "",
          "type": "bool"
        }
      ],
      "payable": false,
      "stateMutability": "view",
      "type": "function"
    },
    {
      "constant": false,
      "inputs": [
        {
          "name": "newOwner",
          "type": "address"
        }
      ],
      "name": "transferOwnership",
      "outputs": [],
      "payable": false,
      "stateMutability": "nonpayable",
      "type": "function"
    },
    {
      "inputs": [
        {
          "name": "sendProceedsTo",
          "type": "address"
        },
        {
          "name": "sendTokensTo",
          "type": "address"
        }
      ],
      "payable": false,
      "stateMutability": "nonpayable",
      "type": "constructor"
    },
    {
      "payable": true,
      "stateMutability": "payable",
      "type": "fallback"
    },
    {
      "anonymous": false,
      "inputs": [
        {
          "indexed": false,
          "name": "time",
          "type": "uint256"
        }
      ],
      "name": "CrowdsaleOpen",
      "type": "event"
    },
    {
      "anonymous": false,
      "inputs": [
        {
          "indexed": false,
          "name": "time",
          "type": "uint256"
        },
        {
          "indexed": false,
          "name": "etherAmount",
          "type": "uint256"
        },
        {
          "indexed": false,
          "name": "from",
          "type": "address"
        }
      ],
      "name": "TokenPurchase",
      "type": "event"
    },
    {
      "anonymous": false,
      "inputs": [
        {
          "indexed": false,
          "name": "time",
          "type": "uint256"
        }
      ],
      "name": "CrowdsaleClose",
      "type": "event"
    },
    {
      "anonymous": false,
      "inputs": [
        {
          "indexed": false,
          "name": "newDecimals",
          "type": "uint8"
        }
      ],
      "name": "DecimalChange",
      "type": "event"
    },
    {
      "anonymous": false,
      "inputs": [
        {
          "indexed": true,
          "name": "previousOwner",
          "type": "address"
        },
        {
          "indexed": true,
          "name": "newOwner",
          "type": "address"
        }
      ],
      "name": "OwnershipTransferred",
      "type": "event"
    },
    {
      "anonymous": false,
      "inputs": [
        {
          "indexed": true,
          "name": "from",
          "type": "address"
        },
        {
          "indexed": true,
          "name": "to",
          "type": "address"
        },
        {
          "indexed": false,
          "name": "value",
          "type": "uint256"
        }
      ],
      "name": "Transfer",
      "type": "event"
    },
    {
      "anonymous": false,
      "inputs": [
        {
          "indexed": true,
          "name": "owner",
          "type": "address"
        },
        {
          "indexed": true,
          "name": "spender",
          "type": "address"
        },
        {
          "indexed": false,
          "name": "value",
          "type": "uint256"
        }
      ],
      "name": "Approval",
      "type": "event"
    },
    {
      "constant": false,
      "inputs": [
        {
          "name": "amount",
          "type": "uint256"
        }
      ],
      "name": "mint",
      "outputs": [],
      "payable": false,
      "stateMutability": "nonpayable",
      "type": "function"
    }
  ],
  "bytecode": "0x6080604052600060075560006008553480156200001b57600080fd5b5060405160408062002e08833981018060405260408110156200003d57600080fd5b81019080805190602001909291908051906020019092919050505081816200006a620001ed60201b60201c565b600360006101000a81548173ffffffffffffffffffffffffffffffffffffffff021916908373ffffffffffffffffffffffffffffffffffffffff160217905550600360009054906101000a900473ffffffffffffffffffffffffffffffffffffffff1673ffffffffffffffffffffffffffffffffffffffff16600073ffffffffffffffffffffffffffffffffffffffff167f8be0079c531659141344cd1fd0a4f28419497f9722a3daafe3b4186f6b6457e060405160405180910390a381600460006101000a81548173ffffffffffffffffffffffffffffffffffffffff021916908373ffffffffffffffffffffffffffffffffffffffff1602179055506012600360146101000a81548160ff021916908360ff160217905550620001a281670de0b6b3a764000061138802620001f560201b60201c565b6000600660006101000a81548160ff0219169083151502179055506000600660016101000a81548160ff0219169083151502179055506305f5e1006005819055505050505062000448565b600033905090565b600073ffffffffffffffffffffffffffffffffffffffff168273ffffffffffffffffffffffffffffffffffffffff16141562000299576040517f08c379a000000000000000000000000000000000000000000000000000000000815260040180806020018281038252601f8152602001807f45524332303a206d696e7420746f20746865207a65726f20616464726573730081525060200191505060405180910390fd5b620002b581600254620003bf60201b62001f631790919060201c565b60028190555062000313816000808573ffffffffffffffffffffffffffffffffffffffff1673ffffffffffffffffffffffffffffffffffffffff16815260200190815260200160002054620003bf60201b62001f631790919060201c565b6000808473ffffffffffffffffffffffffffffffffffffffff1673ffffffffffffffffffffffffffffffffffffffff168152602001908152602001600020819055508173ffffffffffffffffffffffffffffffffffffffff16600073ffffffffffffffffffffffffffffffffffffffff167fddf252ad1be2c89b69c2b068fc378daa952ba7f163c4a11628f55a4df523b3ef836040518082815260200191505060405180910390a35050565b6000808284019050838110156200043e576040517f08c379a000000000000000000000000000000000000000000000000000000000815260040180806020018281038252601b8152602001807f536166654d6174683a206164646974696f6e206f766572666c6f77000000000081525060200191505060405180910390fd5b8091505092915050565b6129b080620004586000396000f3fe6080604052600436106102255760003560e01c806379d220ae116101235780639f727c27116100ab578063dd3260fc1161006f578063dd3260fc14610b50578063dd62ed3e14610b67578063e330a73714610bec578063ea66363114610c27578063f2fde38b14610c5657610225565b80639f727c2714610968578063a0712d681461097f578063a457c2d7146109ba578063a9059cbb14610a2d578063c0ee0b8a14610aa057610225565b80638da5cb5b116100f25780638da5cb5b146108105780638f32d59b1461086757806392f351f91461089657806395d89b41146108c1578063983c0a011461095157610225565b806379d220ae1461073d5780637a1395aa1461077857806380f4531f146107b65780638490d598146107e557610225565b80632aed7f3f116101b15780635da24f90116101755780635da24f90146106445780636d6e27101461066f5780636f8b44b01461068657806370a08231146106c1578063715018a61461072657610225565b80632aed7f3f146104f9578063313ce5671461054a578063346fc0dd1461057b57806339509351146105a65780634e15dfe91461061957610225565b806317ffc320116101f857806317ffc320146103bc57806318160ddd1461040d5780631f4425f31461043857806323b872dd1461044f57806328ef6f40146104e257610225565b80630118e6861461027357806306fdde03146102a2578063095ea7b3146103325780630d051c52146103a5575b61022d610ca7565b610235610d11565b600660019054906101000a900460ff161561024f57600080fd5b600660009054906101000a900460ff1661026857600080fd5b61027133610d7b565b005b34801561027f57600080fd5b50610288610f02565b604051808215151515815260200191505060405180910390f35b3480156102ae57600080fd5b506102b7610f50565b6040518080602001828103825283818151815260200191508051906020019080838360005b838110156102f75780820151818401526020810190506102dc565b50505050905090810190601f1680156103245780820380516001836020036101000a031916815260200191505b509250505060405180910390f35b34801561033e57600080fd5b5061038b6004803603604081101561035557600080fd5b81019080803573ffffffffffffffffffffffffffffffffffffffff16906020019092919080359060200190929190505050610f89565b604051808215151515815260200191505060405180910390f35b3480156103b157600080fd5b506103ba610fa7565b005b3480156103c857600080fd5b5061040b600480360360208110156103df57600080fd5b81019080803573ffffffffffffffffffffffffffffffffffffffff16906020019092919050505061104d565b005b34801561041957600080fd5b50610422611257565b6040518082815260200191505060405180910390f35b34801561044457600080fd5b5061044d610d11565b005b34801561045b57600080fd5b506104c86004803603606081101561047257600080fd5b81019080803573ffffffffffffffffffffffffffffffffffffffff169060200190929190803573ffffffffffffffffffffffffffffffffffffffff16906020019092919080359060200190929190505050611261565b604051808215151515815260200191505060405180910390f35b3480156104ee57600080fd5b506104f761133a565b005b34801561050557600080fd5b506105486004803603602081101561051c57600080fd5b81019080803573ffffffffffffffffffffffffffffffffffffffff169060200190929190505050611432565b005b34801561055657600080fd5b5061055f611553565b604051808260ff1660ff16815260200191505060405180910390f35b34801561058757600080fd5b50610590611566565b6040518082815260200191505060405180910390f35b3480156105b257600080fd5b506105ff600480360360408110156105c957600080fd5b81019080803573ffffffffffffffffffffffffffffffffffffffff1690602001909291908035906020019092919050505061156c565b604051808215151515815260200191505060405180910390f35b34801561062557600080fd5b5061062e611573565b6040518082815260200191505060405180910390f35b34801561065057600080fd5b50610659611579565b6040518082815260200191505060405180910390f35b34801561067b57600080fd5b5061068461157f565b005b34801561069257600080fd5b506106bf600480360360208110156106a957600080fd5b8101908080359060200190929190505050611625565b005b3480156106cd57600080fd5b50610710600480360360208110156106e457600080fd5b81019080803573ffffffffffffffffffffffffffffffffffffffff1690602001909291905050506116cb565b6040518082815260200191505060405180910390f35b34801561073257600080fd5b5061073b611713565b005b34801561074957600080fd5b506107766004803603602081101561076057600080fd5b810190808035906020019092919050505061184e565b005b34801561078457600080fd5b506107b46004803603602081101561079b57600080fd5b81019080803560ff1690602001909291905050506118f9565b005b3480156107c257600080fd5b506107cb6119fe565b604051808215151515815260200191505060405180910390f35b3480156107f157600080fd5b506107fa611a18565b6040518082815260200191505060405180910390f35b34801561081c57600080fd5b50610825611a1e565b604051808273ffffffffffffffffffffffffffffffffffffffff1673ffffffffffffffffffffffffffffffffffffffff16815260200191505060405180910390f35b34801561087357600080fd5b5061087c611a48565b604051808215151515815260200191505060405180910390f35b3480156108a257600080fd5b506108ab611aa7565b6040518082815260200191505060405180910390f35b3480156108cd57600080fd5b506108d6611aad565b6040518080602001828103825283818151815260200191508051906020019080838360005b838110156109165780820151818401526020810190506108fb565b50505050905090810190601f1680156109435780820380516001836020036101000a031916815260200191505b509250505060405180910390f35b34801561095d57600080fd5b50610966611ae6565b005b34801561097457600080fd5b5061097d611bff565b005b34801561098b57600080fd5b506109b8600480360360208110156109a257600080fd5b8101908080359060200190929190505050611cd4565b005b3480156109c657600080fd5b50610a13600480360360408110156109dd57600080fd5b81019080803573ffffffffffffffffffffffffffffffffffffffff16906020019092919080359060200190929190505050611ce1565b604051808215151515815260200191505060405180910390f35b348015610a3957600080fd5b50610a8660048036036040811015610a5057600080fd5b81019080803573ffffffffffffffffffffffffffffffffffffffff16906020019092919080359060200190929190505050611ce8565b604051808215151515815260200191505060405180910390f35b348015610aac57600080fd5b50610b4e60048036036060811015610ac357600080fd5b81019080803573ffffffffffffffffffffffffffffffffffffffff1690602001909291908035906020019092919080359060200190640100000000811115610b0a57600080fd5b820183602082011115610b1c57600080fd5b80359060200191846001830284011164010000000083111715610b3e57600080fd5b9091929391929390505050611d06565b005b348015610b5c57600080fd5b50610b65610ca7565b005b348015610b7357600080fd5b50610bd660048036036040811015610b8a57600080fd5b81019080803573ffffffffffffffffffffffffffffffffffffffff169060200190929190803573ffffffffffffffffffffffffffffffffffffffff169060200190929190505050611d0b565b6040518082815260200191505060405180910390f35b348015610bf857600080fd5b50610c2560048036036020811015610c0f57600080fd5b8101908080359060200190929190505050611d92565b005b348015610c3357600080fd5b50610c3c611e3d565b604051808215151515815260200191505060405180910390f35b348015610c6257600080fd5b50610ca560048036036020811015610c7957600080fd5b81019080803573ffffffffffffffffffffffffffffffffffffffff169060200190929190505050611e57565b005b610caf611e3d565b15610d0f576001600660006101000a81548160ff02191690831515021790555060006007819055507ff82aa3c8d92a1044b702b0c9718bd99d353a4a85a215bdb4fe6c6a04b5f541e0426040518082815260200191505060405180910390a15b565b610d196119fe565b15610d79576001600660016101000a81548160ff02191690831515021790555060006008819055507f99424d4740b41446c45fa894e3dda8489b8ef8df8a37f8035f83053ed26485c1426040518082815260200191505060405180910390a15b565b610d83610ca7565b610d8b610d11565b600660019054906101000a900460ff1615610da557600080fd5b600660009054906101000a900460ff16610dbe57600080fd5b6000341415610dcc57600080fd5b6000610de361138834611edd90919063ffffffff16565b90506000610e0182610df3611257565b611f6390919063ffffffff16565b9050670de0b6b3a76400006005546113880102811115610e2057600080fd5b610e2a8383611feb565b7fd240e127ddfc99c27bdd1c45b264d1954a1e2bdb17a4c37e81586fd141288261423485604051808481526020018381526020018273ffffffffffffffffffffffffffffffffffffffff1673ffffffffffffffffffffffffffffffffffffffff168152602001935050505060405180910390a1600460009054906101000a900473ffffffffffffffffffffffffffffffffffffffff1673ffffffffffffffffffffffffffffffffffffffff166108fc349081150290604051600060405180830381858888f19350505050610efd57600080fd5b505050565b6000600660009054906101000a900460ff1680610f235750610f22611e3d565b5b8015610f4b5750600660019054906101000a900460ff1680610f495750610f486119fe565b5b155b905090565b6040518060400160405280601081526020017f4d6163726f766572736520546f6b656e0000000000000000000000000000000081525081565b6000610f9d610f966121a6565b84846121ae565b6001905092915050565b610faf611a48565b611021576040517f08c379a00000000000000000000000000000000000000000000000000000000081526004018080602001828103825260208152602001807f4f776e61626c653a2063616c6c6572206973206e6f7420746865206f776e657281525060200191505060405180910390fd5b611029610d11565b600660019054906101000a900460ff161561104357600080fd5b6000600881905550565b611055611a48565b6110c7576040517f08c379a00000000000000000000000000000000000000000000000000000000081526004018080602001828103825260208152602001807f4f776e61626c653a2063616c6c6572206973206e6f7420746865206f776e657281525060200191505060405180910390fd5b600081905060008173ffffffffffffffffffffffffffffffffffffffff166370a08231306040518263ffffffff1660e01b8152600401808273ffffffffffffffffffffffffffffffffffffffff1673ffffffffffffffffffffffffffffffffffffffff16815260200191505060206040518083038186803b15801561114b57600080fd5b505afa15801561115f573d6000803e3d6000fd5b505050506040513d602081101561117557600080fd5b810190808051906020019092919050505090508173ffffffffffffffffffffffffffffffffffffffff1663a9059cbb6111ac611a1e565b836040518363ffffffff1660e01b8152600401808373ffffffffffffffffffffffffffffffffffffffff1673ffffffffffffffffffffffffffffffffffffffff16815260200182815260200192505050602060405180830381600087803b15801561121657600080fd5b505af115801561122a573d6000803e3d6000fd5b505050506040513d602081101561124057600080fd5b810190808051906020019092919050505050505050565b6000600254905090565b600061126e8484846123a5565b61132f8461127a6121a6565b61132a8560405180606001604052806028815260200161291460289139600160008b73ffffffffffffffffffffffffffffffffffffffff1673ffffffffffffffffffffffffffffffffffffffff16815260200190815260200160002060006112e06121a6565b73ffffffffffffffffffffffffffffffffffffffff1673ffffffffffffffffffffffffffffffffffffffff1681526020019081526020016000205461265b9092919063ffffffff16565b6121ae565b600190509392505050565b611342611a48565b6113b4576040517f08c379a00000000000000000000000000000000000000000000000000000000081526004018080602001828103825260208152602001807f4f776e61626c653a2063616c6c6572206973206e6f7420746865206f776e657281525060200191505060405180910390fd5b6113bc610ca7565b600660009054906101000a900460ff16156113d657600080fd5b6001600660006101000a81548160ff02191690831515021790555060006007819055507ff82aa3c8d92a1044b702b0c9718bd99d353a4a85a215bdb4fe6c6a04b5f541e0426040518082815260200191505060405180910390a1565b61143a611a48565b6114ac576040517f08c379a00000000000000000000000000000000000000000000000000000000081526004018080602001828103825260208152602001807f4f776e61626c653a2063616c6c6572206973206e6f7420746865206f776e657281525060200191505060405180910390fd5b60008190508073ffffffffffffffffffffffffffffffffffffffff1663f2fde38b6114d5611a1e565b6040518263ffffffff1660e01b8152600401808273ffffffffffffffffffffffffffffffffffffffff1673ffffffffffffffffffffffffffffffffffffffff168152602001915050600060405180830381600087803b15801561153757600080fd5b505af115801561154b573d6000803e3d6000fd5b505050505050565b600360149054906101000a900460ff1681565b60055481565b6000806000fd5b61138881565b60085481565b611587611a48565b6115f9576040517f08c379a00000000000000000000000000000000000000000000000000000000081526004018080602001828103825260208152602001807f4f776e61626c653a2063616c6c6572206973206e6f7420746865206f776e657281525060200191505060405180910390fd5b611601610ca7565b600660009054906101000a900460ff161561161b57600080fd5b6000600781905550565b61162d611a48565b61169f576040517f08c379a00000000000000000000000000000000000000000000000000000000081526004018080602001828103825260208152602001807f4f776e61626c653a2063616c6c6572206973206e6f7420746865206f776e657281525060200191505060405180910390fd5b6116a7610ca7565b600660009054906101000a900460ff16156116c157600080fd5b8060058190555050565b60008060008373ffffffffffffffffffffffffffffffffffffffff1673ffffffffffffffffffffffffffffffffffffffff168152602001908152602001600020549050919050565b61171b611a48565b61178d576040517f08c379a00000000000000000000000000000000000000000000000000000000081526004018080602001828103825260208152602001807f4f776e61626c653a2063616c6c6572206973206e6f7420746865206f776e657281525060200191505060405180910390fd5b600073ffffffffffffffffffffffffffffffffffffffff16600360009054906101000a900473ffffffffffffffffffffffffffffffffffffffff1673ffffffffffffffffffffffffffffffffffffffff167f8be0079c531659141344cd1fd0a4f28419497f9722a3daafe3b4186f6b6457e060405160405180910390a36000600360006101000a81548173ffffffffffffffffffffffffffffffffffffffff021916908373ffffffffffffffffffffffffffffffffffffffff160217905550565b611856611a48565b6118c8576040517f08c379a00000000000000000000000000000000000000000000000000000000081526004018080602001828103825260208152602001807f4f776e61626c653a2063616c6c6572206973206e6f7420746865206f776e657281525060200191505060405180910390fd5b6118d0610ca7565b600660009054906101000a900460ff16156118ea57600080fd5b603c8102420160078190555050565b611901611a48565b611973576040517f08c379a00000000000000000000000000000000000000000000000000000000081526004018080602001828103825260208152602001807f4f776e61626c653a2063616c6c6572206973206e6f7420746865206f776e657281525060200191505060405180910390fd5b61197b610d11565b600660019054906101000a900460ff1661199457600080fd5b80600360146101000a81548160ff021916908360ff1602179055507fed6150ec960548590c920ded6ef554ec9e451dd7b4c85f62fb3760812cd72cf1600360149054906101000a900460ff16604051808260ff1660ff16815260200191505060405180910390a150565b60008060085414158015611a13575060085442115b905090565b61138881565b6000600360009054906101000a900473ffffffffffffffffffffffffffffffffffffffff16905090565b6000600360009054906101000a900473ffffffffffffffffffffffffffffffffffffffff1673ffffffffffffffffffffffffffffffffffffffff16611a8b6121a6565b73ffffffffffffffffffffffffffffffffffffffff1614905090565b60075481565b6040518060400160405280600381526020017f4d5256000000000000000000000000000000000000000000000000000000000081525081565b611aee611a48565b611b60576040517f08c379a00000000000000000000000000000000000000000000000000000000081526004018080602001828103825260208152602001807f4f776e61626c653a2063616c6c6572206973206e6f7420746865206f776e657281525060200191505060405180910390fd5b611b68610ca7565b611b70610d11565b600660019054906101000a900460ff1615611b8a57600080fd5b600660009054906101000a900460ff16611ba357600080fd5b6001600660016101000a81548160ff02191690831515021790555060006008819055507f99424d4740b41446c45fa894e3dda8489b8ef8df8a37f8035f83053ed26485c1426040518082815260200191505060405180910390a1565b611c07611a48565b611c79576040517f08c379a00000000000000000000000000000000000000000000000000000000081526004018080602001828103825260208152602001807f4f776e61626c653a2063616c6c6572206973206e6f7420746865206f776e657281525060200191505060405180910390fd5b611c81611a1e565b73ffffffffffffffffffffffffffffffffffffffff166108fc3073ffffffffffffffffffffffffffffffffffffffff16319081150290604051600060405180830381858888f19350505050611cd257fe5b565b611cde3382611feb565b50565b6000806000fd5b6000611cfc611cf56121a6565b84846123a5565b6001905092915050565b600080fd5b6000600160008473ffffffffffffffffffffffffffffffffffffffff1673ffffffffffffffffffffffffffffffffffffffff16815260200190815260200160002060008373ffffffffffffffffffffffffffffffffffffffff1673ffffffffffffffffffffffffffffffffffffffff16815260200190815260200160002054905092915050565b611d9a611a48565b611e0c576040517f08c379a00000000000000000000000000000000000000000000000000000000081526004018080602001828103825260208152602001807f4f776e61626c653a2063616c6c6572206973206e6f7420746865206f776e657281525060200191505060405180910390fd5b611e14610d11565b600660019054906101000a900460ff1615611e2e57600080fd5b603c8102420160088190555050565b60008060075414158015611e52575060075442115b905090565b611e5f611a48565b611ed1576040517f08c379a00000000000000000000000000000000000000000000000000000000081526004018080602001828103825260208152602001807f4f776e61626c653a2063616c6c6572206973206e6f7420746865206f776e657281525060200191505060405180910390fd5b611eda8161271b565b50565b600080831415611ef05760009050611f5d565b6000828402905082848281611f0157fe5b0414611f58576040517f08c379a00000000000000000000000000000000000000000000000000000000081526004018080602001828103825260218152602001806128f36021913960400191505060405180910390fd5b809150505b92915050565b600080828401905083811015611fe1576040517f08c379a000000000000000000000000000000000000000000000000000000000815260040180806020018281038252601b8152602001807f536166654d6174683a206164646974696f6e206f766572666c6f77000000000081525060200191505060405180910390fd5b8091505092915050565b600073ffffffffffffffffffffffffffffffffffffffff168273ffffffffffffffffffffffffffffffffffffffff16141561208e576040517f08c379a000000000000000000000000000000000000000000000000000000000815260040180806020018281038252601f8152602001807f45524332303a206d696e7420746f20746865207a65726f20616464726573730081525060200191505060405180910390fd5b6120a381600254611f6390919063ffffffff16565b6002819055506120fa816000808573ffffffffffffffffffffffffffffffffffffffff1673ffffffffffffffffffffffffffffffffffffffff16815260200190815260200160002054611f6390919063ffffffff16565b6000808473ffffffffffffffffffffffffffffffffffffffff1673ffffffffffffffffffffffffffffffffffffffff168152602001908152602001600020819055508173ffffffffffffffffffffffffffffffffffffffff16600073ffffffffffffffffffffffffffffffffffffffff167fddf252ad1be2c89b69c2b068fc378daa952ba7f163c4a11628f55a4df523b3ef836040518082815260200191505060405180910390a35050565b600033905090565b600073ffffffffffffffffffffffffffffffffffffffff168373ffffffffffffffffffffffffffffffffffffffff161415612234576040517f08c379a00000000000000000000000000000000000000000000000000000000081526004018080602001828103825260248152602001806129616024913960400191505060405180910390fd5b600073ffffffffffffffffffffffffffffffffffffffff168273ffffffffffffffffffffffffffffffffffffffff1614156122ba576040517f08c379a00000000000000000000000000000000000000000000000000000000081526004018080602001828103825260228152602001806128ab6022913960400191505060405180910390fd5b80600160008573ffffffffffffffffffffffffffffffffffffffff1673ffffffffffffffffffffffffffffffffffffffff16815260200190815260200160002060008473ffffffffffffffffffffffffffffffffffffffff1673ffffffffffffffffffffffffffffffffffffffff168152602001908152602001600020819055508173ffffffffffffffffffffffffffffffffffffffff168373ffffffffffffffffffffffffffffffffffffffff167f8c5be1e5ebec7d5bd14f71427d1e84f3dd0314c0f7b2291e5b200ac8c7c3b925836040518082815260200191505060405180910390a3505050565b600073ffffffffffffffffffffffffffffffffffffffff168373ffffffffffffffffffffffffffffffffffffffff16141561242b576040517f08c379a000000000000000000000000000000000000000000000000000000000815260040180806020018281038252602581526020018061293c6025913960400191505060405180910390fd5b600073ffffffffffffffffffffffffffffffffffffffff168273ffffffffffffffffffffffffffffffffffffffff1614156124b1576040517f08c379a00000000000000000000000000000000000000000000000000000000081526004018080602001828103825260238152602001806128626023913960400191505060405180910390fd5b61251c816040518060600160405280602681526020016128cd602691396000808773ffffffffffffffffffffffffffffffffffffffff1673ffffffffffffffffffffffffffffffffffffffff1681526020019081526020016000205461265b9092919063ffffffff16565b6000808573ffffffffffffffffffffffffffffffffffffffff1673ffffffffffffffffffffffffffffffffffffffff168152602001908152602001600020819055506125af816000808573ffffffffffffffffffffffffffffffffffffffff1673ffffffffffffffffffffffffffffffffffffffff16815260200190815260200160002054611f6390919063ffffffff16565b6000808473ffffffffffffffffffffffffffffffffffffffff1673ffffffffffffffffffffffffffffffffffffffff168152602001908152602001600020819055508173ffffffffffffffffffffffffffffffffffffffff168373ffffffffffffffffffffffffffffffffffffffff167fddf252ad1be2c89b69c2b068fc378daa952ba7f163c4a11628f55a4df523b3ef836040518082815260200191505060405180910390a3505050565b6000838311158290612708576040517f08c379a00000000000000000000000000000000000000000000000000000000081526004018080602001828103825283818151815260200191508051906020019080838360005b838110156126cd5780820151818401526020810190506126b2565b50505050905090810190601f1680156126fa5780820380516001836020036101000a031916815260200191505b509250505060405180910390fd5b5060008385039050809150509392505050565b600073ffffffffffffffffffffffffffffffffffffffff168173ffffffffffffffffffffffffffffffffffffffff1614156127a1576040517f08c379a00000000000000000000000000000000000000000000000000000000081526004018080602001828103825260268152602001806128856026913960400191505060405180910390fd5b8073ffffffffffffffffffffffffffffffffffffffff16600360009054906101000a900473ffffffffffffffffffffffffffffffffffffffff1673ffffffffffffffffffffffffffffffffffffffff167f8be0079c531659141344cd1fd0a4f28419497f9722a3daafe3b4186f6b6457e060405160405180910390a380600360006101000a81548173ffffffffffffffffffffffffffffffffffffffff021916908373ffffffffffffffffffffffffffffffffffffffff1602179055505056fe45524332303a207472616e7366657220746f20746865207a65726f20616464726573734f776e61626c653a206e6577206f776e657220697320746865207a65726f206164647265737345524332303a20617070726f766520746f20746865207a65726f206164647265737345524332303a207472616e7366657220616d6f756e7420657863656564732062616c616e6365536166654d6174683a206d756c7469706c69636174696f6e206f766572666c6f7745524332303a207472616e7366657220616d6f756e74206578636565647320616c6c6f77616e636545524332303a207472616e736665722066726f6d20746865207a65726f206164647265737345524332303a20617070726f76652066726f6d20746865207a65726f2061646472657373a165627a7a723058208cd1657977afe294936e9282aa3896e62879ad9bf74d1faac6593648b7cb27780029",
  "source": "pragma solidity ^0.5.2;\n\nimport \"./MRVToken.sol\";\n\n/**\n * MRVToken contract which adds unrestricted minting by anyone.\n *\n * Only useful on a testnet.\n */\ncontract TestnetMRVToken is MRVToken {\n\n    /**\n     * Make a new TestnetMRVToken.\n     * Passes through arguments to the base MRVToken constructor.\n     */\n    constructor(address payable sendProceedsTo, address sendTokensTo) MRVToken(sendProceedsTo, sendTokensTo) public {\n        // Nothing to do!\n    }\n\n   \n    /**\n     * Allow anyone to mint themselves any amount of tokens, for testing.\n     */\n    function mint(uint256 amount) public {\n        _mint(msg.sender, amount);\n    }\n\n}\n",
  "sourcePath": "/Users/anovak/Documents/Workspace/macroverse/contracts/TestnetMRVToken.sol",
  "compiler": {
    "name": "solc",
    "version": "0.5.8+commit.23d335f2.Emscripten.clang"
  },
  "schemaVersion": "3.0.16",
  "updatedAt": "2020-01-10T05:20:57.313Z",
  "devdoc": {
    "methods": {
      "allowance(address,address)": {
        "details": "See {IERC20-allowance}."
      },
      "approve(address,uint256)": {
        "details": "See {IERC20-approve}.     * Requirements:     * - `spender` cannot be the zero address."
      },
      "balanceOf(address)": {
        "details": "See {IERC20-balanceOf}."
      },
      "isOwner()": {
        "details": "Returns true if the caller is the current owner."
      },
      "owner()": {
        "details": "Returns the address of the current owner."
      },
      "reclaimContract(address)": {
        "details": "Reclaim ownership of Ownable contracts",
        "params": {
          "contractAddr": "The address of the Ownable to be reclaimed."
        }
      },
      "reclaimToken(address)": {
        "details": "Reclaim all IERC20 compatible tokens",
        "params": {
          "tokenAddr": "address The address of the token contract"
        }
      },
      "renounceOwnership()": {
        "details": "Leaves the contract without owner. It will not be possible to call `onlyOwner` functions anymore. Can only be called by the current owner.     * NOTE: Renouncing ownership will leave the contract without an owner, thereby removing any functionality that is only available to the owner."
      },
      "tokenFallback(address,uint256,bytes)": {
        "details": "Reject all ERC23 compatible tokens"
      },
      "totalSupply()": {
        "details": "See {IERC20-totalSupply}."
      },
      "transfer(address,uint256)": {
        "details": "See {IERC20-transfer}.     * Requirements:     * - `recipient` cannot be the zero address. - the caller must have a balance of at least `amount`."
      },
      "transferFrom(address,address,uint256)": {
        "details": "See {IERC20-transferFrom}.     * Emits an {Approval} event indicating the updated allowance. This is not required by the EIP. See the note at the beginning of {ERC20};     * Requirements: - `sender` and `recipient` cannot be the zero address. - `sender` must have a balance of at least `amount`. - the caller must have allowance for `sender`'s tokens of at least `amount`."
      },
      "transferOwnership(address)": {
        "details": "Transfers ownership of the contract to a new account (`newOwner`). Can only be called by the current owner."
      }
    }
  },
  "userdoc": {
    "methods": {
      "checkCloseTimer()": {
        "notice": "If the close timer has elapsed, stop the crowdsale."
      },
      "checkOpenTimer()": {
        "notice": "If the open timer has elapsed, start the crowdsale. Can be called by people, but also gets called when people try to contribute."
      },
      "clearCrowdsaleCloseTimer()": {
        "notice": "Let the owner stop the crowdsale close timer, as long as it has not yet expired."
      },
      "clearCrowdsaleOpenTimer()": {
        "notice": "Let the owner stop the crowdsale open timer, as long as the crowdsale has not yet opened."
      },
      "closeCrowdsale()": {
        "notice": "Allow the owner to end the crowdsale manually."
      },
      "closeTimerElapsed()": {
        "notice": "Determine if the crowdsale should close by timer."
      },
      "constructor": "Make a new TestnetMRVToken. Passes through arguments to the base MRVToken constructor.",
      "decreaseAllowance(address,uint256)": {
        "notice": "Block the decreaseAllowance method which is not in the mainned deployed contract, but which OZ added to their library after we deployed."
      },
      "increaseAllowance(address,uint256)": {
        "notice": "Block the increaseAllowance method which is not in the mainned deployed contract, but which OZ added to their library after we deployed."
      },
      "isCrowdsaleActive()": {
        "notice": "Determine if the crowdsale is currently happening."
      },
      "mint(uint256)": {
        "notice": "Allow anyone to mint themselves any amount of tokens, for testing."
      },
      "openCrowdsale()": {
        "notice": "Allow the owner to start the crowdsale manually."
      },
      "openTimerElapsed()": {
        "notice": "Determine if the crowdsale should open by timer."
      },
      "reclaimEther()": {
        "notice": "If Ether somehow manages to get into this contract, provide a way to get it out again. During normal crowdsale operation, ETH is immediately forwarded to the beneficiary."
      },
      "setCrowdsaleCloseTimerFor(uint256)": {
        "notice": "Let the owner start the timer for the crowdsale end. Counts from when the function is called, *not* from the start of the crowdsale. It is possible, but a bad idea, to set this before the open timer."
      },
      "setCrowdsaleOpenTimerFor(uint256)": {
        "notice": "Let the owner start the timer for the crowdsale start. Without further owner intervention, anyone will be able to open the crowdsale when the timer expires. Further calls will re-set the timer to count from the time the transaction is processed. The timer can be re-set after it has tripped, unless someone has already opened the crowdsale."
      },
      "setDecimals(uint8)": {
        "notice": "When the crowdsale is finished, the contract owner may adjust the decimal places for display purposes. This should work like a 10-to-1 split or reverse-split. The point of this mechanism is to keep the individual MRV tokens from getting inconveniently valuable or cheap. However, it relies on the contract owner taking the time to update the decimal place value. Note that this changes the decimals IMMEDIATELY with NO NOTICE to users."
      },
      "setMaxSupply(uint256)": {
        "notice": "Before the crowdsale opens, the max token count can be configured."
      }
    },
    "notice": "MRVToken contract which adds unrestricted minting by anyone. * Only useful on a testnet."
  }
}