{
  "contractName": "UnrestrictedAccessControl",
  "abi": [
    {
      "constant": true,
      "inputs": [
        {
          "internalType": "address",
          "name": "",
          "type": "address"
        },
        {
          "internalType": "address",
          "name": "",
          "type": "address"
        }
      ],
      "name": "allowQuery",
      "outputs": [
        {
          "internalType": "bool",
          "name": "",
          "type": "bool"
        }
      ],
      "payable": false,
      "stateMutability": "pure",
      "type": "function"
    }
  ],
  "bytecode": "0x608060405234801561001057600080fd5b5060e78061001f6000396000f3fe6080604052348015600f57600080fd5b506004361060285760003560e01c80634af5fb0f14602d575b600080fd5b608c60048036036040811015604157600080fd5b81019080803573ffffffffffffffffffffffffffffffffffffffff169060200190929190803573ffffffffffffffffffffffffffffffffffffffff16906020019092919050505060a6565b604051808215151515815260200191505060405180910390f35b6000600190509291505056fea265627a7a72315820726609bca9caf7d21aa152869e075aab50bf9345bf177e67ceb2b4bc794627ca64736f6c634300050e0032",
  "source": "pragma solidity ^0.5.2;\n\nimport \"./AccessControl.sol\";\n\n/**\n * Represents an access control strategy where all requests are accepted.\n */\ncontract UnrestrictedAccessControl {\n    /**\n     * Always approve access, ignoring the addresses passed in.\n     * Note that this raises solidity compiler warnings about unused variables.\n     */\n    function allowQuery(address /* sender */, address /* origin */) public pure returns (bool) {\n        return true;\n    }\n}\n",
  "sourcePath": "/z/home/anovak/workspace/macroverse/contracts/UnrestrictedAccessControl.sol",
  "compiler": {
    "name": "solc",
    "version": "0.5.14+commit.01f1aaa4.Emscripten.clang"
  },
  "schemaVersion": "3.1.0",
  "updatedAt": "2020-05-22T04:25:20.772Z",
  "networkType": "ethereum",
  "devdoc": {
    "methods": {}
  },
  "userdoc": {
    "methods": {
      "allowQuery(address,address)": {
        "notice": "Always approve access, ignoring the addresses passed in. Note that this raises solidity compiler warnings about unused variables."
      }
    },
    "notice": "Represents an access control strategy where all requests are accepted."
  }
}