{
  "contractName": "UnrestrictedAccessControl",
  "abi": [
    {
      "inputs": [
        {
          "internalType": "address",
          "name": "",
          "type": "address"
        },
        {
          "internalType": "address",
          "name": "",
          "type": "address"
        }
      ],
      "name": "allowQuery",
      "outputs": [
        {
          "internalType": "bool",
          "name": "",
          "type": "bool"
        }
      ],
      "stateMutability": "pure",
      "type": "function"
    }
  ],
  "bytecode": "0x608060405234801561001057600080fd5b5060e88061001f6000396000f3fe6080604052348015600f57600080fd5b506004361060285760003560e01c80634af5fb0f14602d575b600080fd5b608c60048036036040811015604157600080fd5b81019080803573ffffffffffffffffffffffffffffffffffffffff169060200190929190803573ffffffffffffffffffffffffffffffffffffffff16906020019092919050505060a6565b604051808215151515815260200191505060405180910390f35b6000600190509291505056fea26469706673582212208d7260393bec914baec2204107388989b7429f79eb1ca2b01da97c1e672ebd3f64736f6c634300060a0033",
  "immutableReferences": {},
  "source": "pragma solidity ^0.6.10;\n\nimport \"./AccessControl.sol\";\n\n/**\n * Represents an access control strategy where all requests are accepted.\n */\ncontract UnrestrictedAccessControl {\n    /**\n     * Always approve access, ignoring the addresses passed in.\n     * Note that this raises solidity compiler warnings about unused variables.\n     */\n    function allowQuery(address /* sender */, address /* origin */) public pure returns (bool) {\n        return true;\n    }\n}\n\n// This code is part of Macroverse and is licensed: UNLICENSED\n",
  "sourcePath": "/z/home/anovak/workspace/macroverse/contracts/UnrestrictedAccessControl.sol",
  "compiler": {
    "name": "solc",
    "version": "0.6.10+commit.00c0fcaf.Emscripten.clang"
  },
  "schemaVersion": "3.1.0",
  "updatedAt": "2020-09-04T05:38:56.914Z",
  "devdoc": {
    "methods": {}
  },
  "userdoc": {
    "methods": {
      "allowQuery(address,address)": {
        "notice": "Always approve access, ignoring the addresses passed in. Note that this raises solidity compiler warnings about unused variables."
      }
    },
    "notice": "Represents an access control strategy where all requests are accepted."
  }
}