{
  "contractName": "UnrestrictedAccessControl",
  "abi": [
    {
      "constant": true,
      "inputs": [
        {
          "name": "",
          "type": "address"
        },
        {
          "name": "",
          "type": "address"
        }
      ],
      "name": "allowQuery",
      "outputs": [
        {
          "name": "",
          "type": "bool"
        }
      ],
      "payable": false,
      "stateMutability": "pure",
      "type": "function"
    }
  ],
  "bytecode": "0x608060405234801561001057600080fd5b5060de8061001f6000396000f3fe6080604052348015600f57600080fd5b506004361060285760003560e01c80634af5fb0f14602d575b600080fd5b608c60048036036040811015604157600080fd5b81019080803573ffffffffffffffffffffffffffffffffffffffff169060200190929190803573ffffffffffffffffffffffffffffffffffffffff16906020019092919050505060a6565b604051808215151515815260200191505060405180910390f35b6000600190509291505056fea165627a7a723058200e0d2feec79bf8838e8ffc1f33ae7b71e98c44abd9ade9bbd27f5a976ebea2a10029",
  "source": "pragma solidity ^0.5.2;\n\nimport \"./AccessControl.sol\";\n\n/**\n * Represents an access control strategy where all requests are accepted.\n */\ncontract UnrestrictedAccessControl {\n    /**\n     * Always approve access, ignoring the addresses passed in.\n     * Note that this raises solidity compiler warnings about unused variables.\n     */\n    function allowQuery(address /* sender */, address /* origin */) public pure returns (bool) {\n        return true;\n    }\n}\n",
  "sourcePath": "/Users/anovak/Documents/Workspace/macroverse/contracts/UnrestrictedAccessControl.sol",
  "compiler": {
    "name": "solc",
    "version": "0.5.8+commit.23d335f2.Emscripten.clang"
  },
  "schemaVersion": "3.0.16",
  "updatedAt": "2020-01-10T05:14:39.836Z",
  "devdoc": {
    "methods": {}
  },
  "userdoc": {
    "methods": {
      "allowQuery(address,address)": {
        "notice": "Always approve access, ignoring the addresses passed in. Note that this raises solidity compiler warnings about unused variables."
      }
    },
    "notice": "Represents an access control strategy where all requests are accepted."
  }
}